{
  "contractName": "StacksAuctionHouse",
  "abi": [
    {
      "inputs": [
        {
          "internalType": "address payable",
          "name": "_treasuryAddress",
          "type": "address"
        }
      ],
      "stateMutability": "nonpayable",
      "type": "constructor"
    },
    {
      "anonymous": false,
      "inputs": [
        {
          "indexed": true,
          "internalType": "address",
          "name": "previousOwner",
          "type": "address"
        },
        {
          "indexed": true,
          "internalType": "address",
          "name": "newOwner",
          "type": "address"
        }
      ],
      "name": "OwnershipTransferred",
      "type": "event"
    },
    {
      "inputs": [],
      "name": "auctionOpened",
      "outputs": [
        {
          "internalType": "bool",
          "name": "",
          "type": "bool"
        }
      ],
      "stateMutability": "view",
      "type": "function",
      "constant": true
    },
    {
      "inputs": [
        {
          "internalType": "uint256",
          "name": "",
          "type": "uint256"
        }
      ],
      "name": "auctions",
      "outputs": [
        {
          "internalType": "uint256",
          "name": "endPrice",
          "type": "uint256"
        },
        {
          "internalType": "address payable",
          "name": "topBidder",
          "type": "address"
        },
        {
          "internalType": "uint256",
          "name": "startTime",
          "type": "uint256"
        },
        {
          "internalType": "uint256",
          "name": "endTime",
          "type": "uint256"
        },
        {
          "internalType": "bool",
          "name": "closed",
          "type": "bool"
        }
      ],
      "stateMutability": "view",
      "type": "function",
      "constant": true
    },
    {
      "inputs": [],
      "name": "createdAuctions",
      "outputs": [
        {
          "internalType": "uint256",
          "name": "",
          "type": "uint256"
        }
      ],
      "stateMutability": "view",
      "type": "function",
      "constant": true
    },
    {
      "inputs": [],
      "name": "owner",
      "outputs": [
        {
          "internalType": "address",
          "name": "",
          "type": "address"
        }
      ],
      "stateMutability": "view",
      "type": "function",
      "constant": true
    },
    {
      "inputs": [],
      "name": "renounceOwnership",
      "outputs": [],
      "stateMutability": "nonpayable",
      "type": "function"
    },
    {
      "inputs": [
        {
          "internalType": "address",
          "name": "newOwner",
          "type": "address"
        }
      ],
      "name": "transferOwnership",
      "outputs": [],
      "stateMutability": "nonpayable",
      "type": "function"
    },
    {
      "inputs": [],
      "name": "treasuryAddress",
      "outputs": [
        {
          "internalType": "address payable",
          "name": "",
          "type": "address"
        }
      ],
      "stateMutability": "view",
      "type": "function",
      "constant": true
    },
    {
      "inputs": [],
      "name": "getCurrentWinner",
      "outputs": [
        {
          "internalType": "address payable",
          "name": "",
          "type": "address"
        }
      ],
      "stateMutability": "view",
      "type": "function",
      "constant": true
    },
    {
      "inputs": [
        {
          "internalType": "uint256",
          "name": "_tokenId",
          "type": "uint256"
        }
      ],
      "name": "getAuctionWinner",
      "outputs": [
        {
          "internalType": "address payable",
          "name": "",
          "type": "address"
        }
      ],
      "stateMutability": "view",
      "type": "function",
      "constant": true
    },
    {
      "inputs": [],
      "name": "getCurrentAuction",
      "outputs": [
        {
          "components": [
            {
              "internalType": "uint256",
              "name": "endPrice",
              "type": "uint256"
            },
            {
              "internalType": "address payable",
              "name": "topBidder",
              "type": "address"
            },
            {
              "internalType": "uint256",
              "name": "startTime",
              "type": "uint256"
            },
            {
              "internalType": "uint256",
              "name": "endTime",
              "type": "uint256"
            },
            {
              "internalType": "bool",
              "name": "closed",
              "type": "bool"
            }
          ],
          "internalType": "struct StacksAuctionHouse.Auction",
          "name": "",
          "type": "tuple"
        }
      ],
      "stateMutability": "view",
      "type": "function",
      "constant": true
    },
    {
      "inputs": [],
      "name": "getLastCreatedAuction",
      "outputs": [
        {
          "components": [
            {
              "internalType": "uint256",
              "name": "endPrice",
              "type": "uint256"
            },
            {
              "internalType": "address payable",
              "name": "topBidder",
              "type": "address"
            },
            {
              "internalType": "uint256",
              "name": "startTime",
              "type": "uint256"
            },
            {
              "internalType": "uint256",
              "name": "endTime",
              "type": "uint256"
            },
            {
              "internalType": "bool",
              "name": "closed",
              "type": "bool"
            }
          ],
          "internalType": "struct StacksAuctionHouse.Auction",
          "name": "",
          "type": "tuple"
        }
      ],
      "stateMutability": "view",
      "type": "function",
      "constant": true
    },
    {
      "inputs": [
        {
          "internalType": "uint256",
          "name": "_tokenId",
          "type": "uint256"
        }
      ],
      "name": "getAuction",
      "outputs": [
        {
          "components": [
            {
              "internalType": "uint256",
              "name": "endPrice",
              "type": "uint256"
            },
            {
              "internalType": "address payable",
              "name": "topBidder",
              "type": "address"
            },
            {
              "internalType": "uint256",
              "name": "startTime",
              "type": "uint256"
            },
            {
              "internalType": "uint256",
              "name": "endTime",
              "type": "uint256"
            },
            {
              "internalType": "bool",
              "name": "closed",
              "type": "bool"
            }
          ],
          "internalType": "struct StacksAuctionHouse.Auction",
          "name": "",
          "type": "tuple"
        }
      ],
      "stateMutability": "view",
      "type": "function",
      "constant": true
    },
    {
      "inputs": [],
      "name": "bid",
      "outputs": [],
      "stateMutability": "payable",
      "type": "function",
      "payable": true
    },
    {
      "inputs": [
        {
          "internalType": "uint256",
          "name": "_tokenId",
          "type": "uint256"
        }
      ],
      "name": "closeAuction",
      "outputs": [],
      "stateMutability": "nonpayable",
      "type": "function"
    },
    {
      "inputs": [
        {
          "internalType": "address payable",
          "name": "_treasuryAddress",
          "type": "address"
        }
      ],
      "name": "setTreasuryAddress",
      "outputs": [],
      "stateMutability": "nonpayable",
      "type": "function"
    },
    {
      "inputs": [
        {
          "internalType": "bool",
          "name": "_open",
          "type": "bool"
        }
      ],
      "name": "setAuctionOpened",
      "outputs": [],
      "stateMutability": "nonpayable",
      "type": "function"
    },
    {
      "inputs": [
        {
          "internalType": "uint256",
          "name": "_amount",
          "type": "uint256"
        }
      ],
      "name": "createAuctions",
      "outputs": [],
      "stateMutability": "nonpayable",
      "type": "function"
    },
    {
      "inputs": [],
      "name": "daysSinceStart",
      "outputs": [
        {
          "internalType": "uint256",
          "name": "",
          "type": "uint256"
        }
      ],
      "stateMutability": "view",
      "type": "function",
      "constant": true
    }
  ],
  "bytecode": "0x608060405260006002556001600360146101000a81548160ff0219169083151502179055506363e6da806004553480156200003957600080fd5b5060405162001fb738038062001fb783398181016040528101906200005f919062000625565b6200007f62000073620001f260201b60201c565b620001fa60201b60201c565b80600360006101000a81548173ffffffffffffffffffffffffffffffffffffffff021916908373ffffffffffffffffffffffffffffffffffffffff1602179055506040518060a0016040528060008152602001600073ffffffffffffffffffffffffffffffffffffffff16815260200160045481526020016001620151806004546200010c919062000690565b620001189190620006cb565b815260200160001515815250600160008081526020019081526020016000206000820151816000015560208201518160010160006101000a81548173ffffffffffffffffffffffffffffffffffffffff021916908373ffffffffffffffffffffffffffffffffffffffff160217905550604082015181600201556060820151816003015560808201518160040160006101000a81548160ff02191690831515021790555090505060026000815480929190620001d49062000706565b9190505550620001eb601e620002be60201b60201c565b50620007d6565b600033905090565b60008060009054906101000a900473ffffffffffffffffffffffffffffffffffffffff169050816000806101000a81548173ffffffffffffffffffffffffffffffffffffffff021916908373ffffffffffffffffffffffffffffffffffffffff1602179055508173ffffffffffffffffffffffffffffffffffffffff168173ffffffffffffffffffffffffffffffffffffffff167f8be0079c531659141344cd1fd0a4f28419497f9722a3daafe3b4186f6b6457e060405160405180910390a35050565b620002ce6200031e60201b60201c565b600081600254620002e0919062000690565b9050600060025490505b81811015620003195762000303620003af60201b60201c565b8080620003109062000706565b915050620002ea565b505050565b6200032e620001f260201b60201c565b73ffffffffffffffffffffffffffffffffffffffff16620003546200059260201b60201c565b73ffffffffffffffffffffffffffffffffffffffff1614620003ad576040517f08c379a0000000000000000000000000000000000000000000000000000000008152600401620003a490620007b4565b60405180910390fd5b565b6000600160006001600254620003c69190620006cb565b81526020019081526020016000206040518060a0016040529081600082015481526020016001820160009054906101000a900473ffffffffffffffffffffffffffffffffffffffff1673ffffffffffffffffffffffffffffffffffffffff1673ffffffffffffffffffffffffffffffffffffffff16815260200160028201548152602001600382015481526020016004820160009054906101000a900460ff16151515158152505090506040518060a0016040528060008152602001600073ffffffffffffffffffffffffffffffffffffffff16815260200160018360600151620004b2919062000690565b8152602001620151808360600151620004cc919062000690565b8152602001600015158152506001600060025481526020019081526020016000206000820151816000015560208201518160010160006101000a81548173ffffffffffffffffffffffffffffffffffffffff021916908373ffffffffffffffffffffffffffffffffffffffff160217905550604082015181600201556060820151816003015560808201518160040160006101000a81548160ff021916908315150217905550905050600260008154809291906200058a9062000706565b919050555050565b60008060009054906101000a900473ffffffffffffffffffffffffffffffffffffffff16905090565b600080fd5b600073ffffffffffffffffffffffffffffffffffffffff82169050919050565b6000620005ed82620005c0565b9050919050565b620005ff81620005e0565b81146200060b57600080fd5b50565b6000815190506200061f81620005f4565b92915050565b6000602082840312156200063e576200063d620005bb565b5b60006200064e848285016200060e565b91505092915050565b6000819050919050565b7f4e487b7100000000000000000000000000000000000000000000000000000000600052601160045260246000fd5b60006200069d8262000657565b9150620006aa8362000657565b9250828201905080821115620006c557620006c462000661565b5b92915050565b6000620006d88262000657565b9150620006e58362000657565b92508282039050818111156200070057620006ff62000661565b5b92915050565b6000620007138262000657565b91507fffffffffffffffffffffffffffffffffffffffffffffffffffffffffffffffff820362000748576200074762000661565b5b600182019050919050565b600082825260208201905092915050565b7f4f776e61626c653a2063616c6c6572206973206e6f7420746865206f776e6572600082015250565b60006200079c60208362000753565b9150620007a98262000764565b602082019050919050565b60006020820190508181036000830152620007cf816200078d565b9050919050565b6117d180620007e66000396000f3fe6080604052600436106101095760003560e01c806378bd793511610095578063acc49d8811610064578063acc49d881461033c578063c5f956af14610365578063dcb66f1214610390578063f22d9834146103bb578063f2fde38b146103e657610109565b806378bd7935146102805780638da5cb5b146102bd578063932247cf146102e8578063985d27cc1461031157610109565b80632b29bd0e116100dc5780632b29bd0e146101a9578063329bfc33146101d4578063571a26a0146101ff5780636605bfda14610240578063715018a61461026957610109565b8063083d353b1461010e57806317cf813e1461014b5780631998aeef14610176578063236ed8f314610180575b600080fd5b34801561011a57600080fd5b50610135600480360381019061013091906110d6565b61040f565b6040516101429190611144565b60405180910390f35b34801561015757600080fd5b5061016061044f565b60405161016d919061116e565b60405180910390f35b61017e610472565b005b34801561018c57600080fd5b506101a760048036038101906101a291906110d6565b61062d565b005b3480156101b557600080fd5b506101be610738565b6040516101cb91906111a4565b60405180910390f35b3480156101e057600080fd5b506101e961074b565b6040516101f69190611144565b60405180910390f35b34801561020b57600080fd5b50610226600480360381019061022191906110d6565b610790565b6040516102379594939291906111bf565b60405180910390f35b34801561024c57600080fd5b506102676004803603810190610262919061123e565b6107f3565b005b34801561027557600080fd5b5061027e61083f565b005b34801561028c57600080fd5b506102a760048036038101906102a291906110d6565b610853565b6040516102b49190611300565b60405180910390f35b3480156102c957600080fd5b506102d261090f565b6040516102df919061133c565b60405180910390f35b3480156102f457600080fd5b5061030f600480360381019061030a9190611383565b610938565b005b34801561031d57600080fd5b5061032661095d565b6040516103339190611300565b60405180910390f35b34801561034857600080fd5b50610363600480360381019061035e91906110d6565b610a25565b005b34801561037157600080fd5b5061037a610a6f565b6040516103879190611144565b60405180910390f35b34801561039c57600080fd5b506103a5610a95565b6040516103b29190611300565b60405180910390f35b3480156103c757600080fd5b506103d0610b56565b6040516103dd919061116e565b60405180910390f35b3480156103f257600080fd5b5061040d600480360381019061040891906113dc565b610b5c565b005b60006001600083815260200190815260200160002060010160009054906101000a900473ffffffffffffffffffffffffffffffffffffffff169050919050565b600062015180600454426104639190611438565b61046d919061149b565b905090565b600360149054906101000a900460ff166104c1576040517f08c379a00000000000000000000000000000000000000000000000000000000081526004016104b890611529565b60405180910390fd5b60006104cb610a95565b905060006104d761044f565b9050600034905082600001518111610524576040517f08c379a000000000000000000000000000000000000000000000000000000000815260040161051b90611595565b60405180910390fd5b600083600001519050600084602001519050336001600086815260200190815260200160002060010160006101000a81548173ffffffffffffffffffffffffffffffffffffffff021916908373ffffffffffffffffffffffffffffffffffffffff1602179055508260016000868152602001908152602001600020600001819055508073ffffffffffffffffffffffffffffffffffffffff166108fc839081150290604051600060405180830381858888f193505050501580156105ec573d6000803e3d6000fd5b5060006106046001866105ff9190611438565b610853565b905080608001516106255761062460018661061f9190611438565b610bdf565b5b505050505050565b610635610d2f565b6000600160008381526020019081526020016000206040518060a0016040529081600082015481526020016001820160009054906101000a900473ffffffffffffffffffffffffffffffffffffffff1673ffffffffffffffffffffffffffffffffffffffff1673ffffffffffffffffffffffffffffffffffffffff16815260200160028201548152602001600382015481526020016004820160009054906101000a900460ff161515151581525050905080608001511561072b576040517f08c379a000000000000000000000000000000000000000000000000000000000815260040161072290611601565b60405180910390fd5b61073482610bdf565b5050565b600360149054906101000a900460ff1681565b60006001600061075961044f565b815260200190815260200160002060010160009054906101000a900473ffffffffffffffffffffffffffffffffffffffff16905090565b60016020528060005260406000206000915090508060000154908060010160009054906101000a900473ffffffffffffffffffffffffffffffffffffffff16908060020154908060030154908060040160009054906101000a900460ff16905085565b6107fb610d2f565b80600360006101000a81548173ffffffffffffffffffffffffffffffffffffffff021916908373ffffffffffffffffffffffffffffffffffffffff16021790555050565b610847610d2f565b6108516000610dad565b565b61085b611054565b600160008381526020019081526020016000206040518060a0016040529081600082015481526020016001820160009054906101000a900473ffffffffffffffffffffffffffffffffffffffff1673ffffffffffffffffffffffffffffffffffffffff1673ffffffffffffffffffffffffffffffffffffffff16815260200160028201548152602001600382015481526020016004820160009054906101000a900460ff1615151515815250509050919050565b60008060009054906101000a900473ffffffffffffffffffffffffffffffffffffffff16905090565b610940610d2f565b80600360146101000a81548160ff02191690831515021790555050565b610965611054565b6001600060016002546109789190611438565b81526020019081526020016000206040518060a0016040529081600082015481526020016001820160009054906101000a900473ffffffffffffffffffffffffffffffffffffffff1673ffffffffffffffffffffffffffffffffffffffff1673ffffffffffffffffffffffffffffffffffffffff16815260200160028201548152602001600382015481526020016004820160009054906101000a900460ff161515151581525050905090565b610a2d610d2f565b600081600254610a3d9190611621565b9050600060025490505b81811015610a6a57610a57610e71565b8080610a6290611655565b915050610a47565b505050565b600360009054906101000a900473ffffffffffffffffffffffffffffffffffffffff1681565b610a9d611054565b60016000610aa961044f565b81526020019081526020016000206040518060a0016040529081600082015481526020016001820160009054906101000a900473ffffffffffffffffffffffffffffffffffffffff1673ffffffffffffffffffffffffffffffffffffffff1673ffffffffffffffffffffffffffffffffffffffff16815260200160028201548152602001600382015481526020016004820160009054906101000a900460ff161515151581525050905090565b60025481565b610b64610d2f565b600073ffffffffffffffffffffffffffffffffffffffff168173ffffffffffffffffffffffffffffffffffffffff1603610bd3576040517f08c379a0000000000000000000000000000000000000000000000000000000008152600401610bca9061170f565b60405180910390fd5b610bdc81610dad565b50565b6000600160008381526020019081526020016000206040518060a0016040529081600082015481526020016001820160009054906101000a900473ffffffffffffffffffffffffffffffffffffffff1673ffffffffffffffffffffffffffffffffffffffff1673ffffffffffffffffffffffffffffffffffffffff16815260200160028201548152602001600382015481526020016004820160009054906101000a900460ff1615151515815250509050600180600084815260200190815260200160002060040160006101000a81548160ff021916908315150217905550600360009054906101000a900473ffffffffffffffffffffffffffffffffffffffff1673ffffffffffffffffffffffffffffffffffffffff166108fc82600001519081150290604051600060405180830381858888f19350505050158015610d2a573d6000803e3d6000fd5b505050565b610d3761104c565b73ffffffffffffffffffffffffffffffffffffffff16610d5561090f565b73ffffffffffffffffffffffffffffffffffffffff1614610dab576040517f08c379a0000000000000000000000000000000000000000000000000000000008152600401610da29061177b565b60405180910390fd5b565b60008060009054906101000a900473ffffffffffffffffffffffffffffffffffffffff169050816000806101000a81548173ffffffffffffffffffffffffffffffffffffffff021916908373ffffffffffffffffffffffffffffffffffffffff1602179055508173ffffffffffffffffffffffffffffffffffffffff168173ffffffffffffffffffffffffffffffffffffffff167f8be0079c531659141344cd1fd0a4f28419497f9722a3daafe3b4186f6b6457e060405160405180910390a35050565b6000600160006001600254610e869190611438565b81526020019081526020016000206040518060a0016040529081600082015481526020016001820160009054906101000a900473ffffffffffffffffffffffffffffffffffffffff1673ffffffffffffffffffffffffffffffffffffffff1673ffffffffffffffffffffffffffffffffffffffff16815260200160028201548152602001600382015481526020016004820160009054906101000a900460ff16151515158152505090506040518060a0016040528060008152602001600073ffffffffffffffffffffffffffffffffffffffff16815260200160018360600151610f709190611621565b8152602001620151808360600151610f889190611621565b8152602001600015158152506001600060025481526020019081526020016000206000820151816000015560208201518160010160006101000a81548173ffffffffffffffffffffffffffffffffffffffff021916908373ffffffffffffffffffffffffffffffffffffffff160217905550604082015181600201556060820151816003015560808201518160040160006101000a81548160ff0219169083151502179055509050506002600081548092919061104490611655565b919050555050565b600033905090565b6040518060a0016040528060008152602001600073ffffffffffffffffffffffffffffffffffffffff16815260200160008152602001600081526020016000151581525090565b600080fd5b6000819050919050565b6110b3816110a0565b81146110be57600080fd5b50565b6000813590506110d0816110aa565b92915050565b6000602082840312156110ec576110eb61109b565b5b60006110fa848285016110c1565b91505092915050565b600073ffffffffffffffffffffffffffffffffffffffff82169050919050565b600061112e82611103565b9050919050565b61113e81611123565b82525050565b60006020820190506111596000830184611135565b92915050565b611168816110a0565b82525050565b6000602082019050611183600083018461115f565b92915050565b60008115159050919050565b61119e81611189565b82525050565b60006020820190506111b96000830184611195565b92915050565b600060a0820190506111d4600083018861115f565b6111e16020830187611135565b6111ee604083018661115f565b6111fb606083018561115f565b6112086080830184611195565b9695505050505050565b61121b81611123565b811461122657600080fd5b50565b60008135905061123881611212565b92915050565b6000602082840312156112545761125361109b565b5b600061126284828501611229565b91505092915050565b611274816110a0565b82525050565b61128381611123565b82525050565b61129281611189565b82525050565b60a0820160008201516112ae600085018261126b565b5060208201516112c1602085018261127a565b5060408201516112d4604085018261126b565b5060608201516112e7606085018261126b565b5060808201516112fa6080850182611289565b50505050565b600060a0820190506113156000830184611298565b92915050565b600061132682611103565b9050919050565b6113368161131b565b82525050565b6000602082019050611351600083018461132d565b92915050565b61136081611189565b811461136b57600080fd5b50565b60008135905061137d81611357565b92915050565b6000602082840312156113995761139861109b565b5b60006113a78482850161136e565b91505092915050565b6113b98161131b565b81146113c457600080fd5b50565b6000813590506113d6816113b0565b92915050565b6000602082840312156113f2576113f161109b565b5b6000611400848285016113c7565b91505092915050565b7f4e487b7100000000000000000000000000000000000000000000000000000000600052601160045260246000fd5b6000611443826110a0565b915061144e836110a0565b925082820390508181111561146657611465611409565b5b92915050565b7f4e487b7100000000000000000000000000000000000000000000000000000000600052601260045260246000fd5b60006114a6826110a0565b91506114b1836110a0565b9250826114c1576114c061146c565b5b828204905092915050565b600082825260208201905092915050565b7f41756374696f6e20697320636c6f736564000000000000000000000000000000600082015250565b60006115136011836114cc565b915061151e826114dd565b602082019050919050565b6000602082019050818103600083015261154281611506565b9050919050565b7f42696420697320746f6f206c6f77000000000000000000000000000000000000600082015250565b600061157f600e836114cc565b915061158a82611549565b602082019050919050565b600060208201905081810360008301526115ae81611572565b9050919050565b7f41756374696f6e20616c726561647920636c6f73656400000000000000000000600082015250565b60006115eb6016836114cc565b91506115f6826115b5565b602082019050919050565b6000602082019050818103600083015261161a816115de565b9050919050565b600061162c826110a0565b9150611637836110a0565b925082820190508082111561164f5761164e611409565b5b92915050565b6000611660826110a0565b91507fffffffffffffffffffffffffffffffffffffffffffffffffffffffffffffffff820361169257611691611409565b5b600182019050919050565b7f4f776e61626c653a206e6577206f776e657220697320746865207a65726f206160008201527f6464726573730000000000000000000000000000000000000000000000000000602082015250565b60006116f96026836114cc565b91506117048261169d565b604082019050919050565b60006020820190508181036000830152611728816116ec565b9050919050565b7f4f776e61626c653a2063616c6c6572206973206e6f7420746865206f776e6572600082015250565b60006117656020836114cc565b91506117708261172f565b602082019050919050565b6000602082019050818103600083015261179481611758565b905091905056fea2646970667358221220b324ed15bd5a797628d1760a6639f442bc460b6127cd8f5170903e2378f2153564736f6c63430008110033",
  "immutableReferences": {},
  "source": "// SPDX-License-Identifier: MIT\npragma solidity >=0.4.22 <0.9.0;\n\nimport \"@openzeppelin/contracts/access/Ownable.sol\";\n\ncontract StacksAuctionHouse is Ownable {\n  mapping(uint => Auction) public auctions;\n  uint public createdAuctions = 0;\n  address payable public treasuryAddress;\n  bool public auctionOpened = true;\n  // uint startTimeOfFirstAuction = 1677628800; // Wed Mar 01 2023 00:00:00 GMT+0000\n  uint startTimeOfFirstAuction = 1676073600;  // Test start: Sat Feb 11 2023 00:00:00 GMT+0000\n\n  struct Auction {\n    uint endPrice;\n    address payable topBidder;\n    uint startTime;\n    uint endTime;\n    bool closed;\n  }\n\n  constructor(address payable _treasuryAddress) {\n    treasuryAddress = _treasuryAddress;\n    // Create the first auction\n    auctions[0] = Auction({\n      endPrice: 0,\n      topBidder: payable(address(0)),\n      startTime: startTimeOfFirstAuction,\n      endTime: (startTimeOfFirstAuction + 1 days) - 1,\n      closed: false\n    });\n    createdAuctions++;\n    // Create next 30 auctions\n    createAuctions(30);\n  }\n\n  function getCurrentWinner() public view returns (address payable) {\n    return auctions[daysSinceStart()].topBidder;\n  }\n\n  function getAuctionWinner(uint _tokenId) public view returns (address payable) {\n    return auctions[_tokenId].topBidder;\n  }\n\n  function getCurrentAuction() public view returns (Auction memory) {\n    return auctions[daysSinceStart()];\n  }\n\n  function getLastCreatedAuction() public view returns (Auction memory) {\n    return auctions[createdAuctions - 1];\n  }\n\n  function getAuction(uint _tokenId) public view returns (Auction memory) {\n    return auctions[_tokenId];\n  }\n\n  function bid() public payable {\n    require(auctionOpened, \"Auction is closed\");\n    Auction memory auction = getCurrentAuction();\n    uint auctionId = daysSinceStart();\n    uint paidVal = msg.value;\n\n    require(paidVal > auction.endPrice, \"Bid is too low\");\n    uint lastBid = auction.endPrice;\n    address payable lastBidder = auction.topBidder;\n    // update the auction\n    auctions[auctionId].topBidder = payable(msg.sender);\n    auctions[auctionId].endPrice = paidVal;\n\n    // refund last bidder\n    lastBidder.transfer(lastBid);\n\n    Auction memory lastAuction = getAuction(auctionId - 1);\n    if(!lastAuction.closed) {\n      _closeAuction(auctionId - 1);\n    }\n  }\n\n  function closeAuction(uint _tokenId) public onlyOwner {\n    Auction memory auction = auctions[_tokenId];\n    require(!auction.closed, \"Auction already closed\");\n    _closeAuction(_tokenId);\n  }\n\n  function _closeAuction(uint _tokenId) private {\n    Auction memory auction = auctions[_tokenId];\n    // close the auction\n    auctions[_tokenId].closed = true;\n    // move funds to the treasury\n    treasuryAddress.transfer(auction.endPrice);\n  }\n\n  // Admin functions\n  function setTreasuryAddress(address payable _treasuryAddress) public onlyOwner {\n    treasuryAddress = _treasuryAddress;\n  }\n\n  function setAuctionOpened(bool _open) public onlyOwner {\n    auctionOpened = _open;\n  }\n\n  // run to create auctions in bulk for the next _amount days\n  function createAuctions(uint _amount) public onlyOwner {\n    uint finalCreatedAuctions = createdAuctions + _amount;\n    for (uint i = createdAuctions; i < finalCreatedAuctions; i++) {\n      createNextAuction();\n    }\n  }\n\n  function createNextAuction() private {\n    Auction memory lastAuction = auctions[createdAuctions - 1];\n    auctions[createdAuctions] = Auction({\n      endPrice: 0,\n      topBidder: payable(address(0)),\n      startTime: lastAuction.endTime + 1, // 1 second after the last auction ends\n      endTime: lastAuction.endTime + 1 days, // 1 day after the last auction ends\n      closed: false\n    });\n    createdAuctions++;\n  }\n\n  // daysSinceStart() same as currentAuctionId()\n  function daysSinceStart() public view returns (uint) {\n    return (block.timestamp - startTimeOfFirstAuction) / 1 days;\n  }\n}\n",
  "sourcePath": "/Users/bruno/dev/crypto/stacks/contracts/StacksAuctionHouse.sol",
  "compiler": {
    "name": "solc",
    "version": "0.8.17+commit.8df45f5f.Emscripten.clang"
  },
  "schemaVersion": "3.4.10",
  "updatedAt": "2023-02-17T11:33:42.311Z",
  "networkType": "ethereum",
  "devdoc": {
    "kind": "dev",
    "methods": {
      "owner()": {
        "details": "Returns the address of the current owner."
      },
      "renounceOwnership()": {
        "details": "Leaves the contract without owner. It will not be possible to call `onlyOwner` functions anymore. Can only be called by the current owner. NOTE: Renouncing ownership will leave the contract without an owner, thereby removing any functionality that is only available to the owner."
      },
      "transferOwnership(address)": {
        "details": "Transfers ownership of the contract to a new account (`newOwner`). Can only be called by the current owner."
      }
    },
    "version": 1
  },
  "userdoc": {
    "kind": "user",
    "methods": {},
    "version": 1
  }
}