{
  "contractName": "StacksAuctionHouse",
  "abi": [
    {
      "inputs": [
        {
          "internalType": "address payable",
          "name": "_treasuryAddress",
          "type": "address"
        }
      ],
      "stateMutability": "nonpayable",
      "type": "constructor"
    },
    {
      "anonymous": false,
      "inputs": [
        {
          "indexed": true,
          "internalType": "address",
          "name": "owner",
          "type": "address"
        },
        {
          "indexed": true,
          "internalType": "address",
          "name": "approved",
          "type": "address"
        },
        {
          "indexed": true,
          "internalType": "uint256",
          "name": "tokenId",
          "type": "uint256"
        }
      ],
      "name": "Approval",
      "type": "event"
    },
    {
      "anonymous": false,
      "inputs": [
        {
          "indexed": true,
          "internalType": "address",
          "name": "owner",
          "type": "address"
        },
        {
          "indexed": true,
          "internalType": "address",
          "name": "operator",
          "type": "address"
        },
        {
          "indexed": false,
          "internalType": "bool",
          "name": "approved",
          "type": "bool"
        }
      ],
      "name": "ApprovalForAll",
      "type": "event"
    },
    {
      "anonymous": false,
      "inputs": [
        {
          "indexed": true,
          "internalType": "address",
          "name": "previousOwner",
          "type": "address"
        },
        {
          "indexed": true,
          "internalType": "address",
          "name": "newOwner",
          "type": "address"
        }
      ],
      "name": "OwnershipTransferred",
      "type": "event"
    },
    {
      "anonymous": false,
      "inputs": [
        {
          "indexed": true,
          "internalType": "address",
          "name": "from",
          "type": "address"
        },
        {
          "indexed": true,
          "internalType": "address",
          "name": "to",
          "type": "address"
        },
        {
          "indexed": true,
          "internalType": "uint256",
          "name": "tokenId",
          "type": "uint256"
        }
      ],
      "name": "Transfer",
      "type": "event"
    },
    {
      "inputs": [],
      "name": "PERCENT_DIVIDER",
      "outputs": [
        {
          "internalType": "uint256",
          "name": "",
          "type": "uint256"
        }
      ],
      "stateMutability": "view",
      "type": "function",
      "constant": true
    },
    {
      "inputs": [],
      "name": "SALE_FEE",
      "outputs": [
        {
          "internalType": "uint256",
          "name": "",
          "type": "uint256"
        }
      ],
      "stateMutability": "view",
      "type": "function",
      "constant": true
    },
    {
      "inputs": [
        {
          "internalType": "address",
          "name": "to",
          "type": "address"
        },
        {
          "internalType": "uint256",
          "name": "tokenId",
          "type": "uint256"
        }
      ],
      "name": "approve",
      "outputs": [],
      "stateMutability": "nonpayable",
      "type": "function"
    },
    {
      "inputs": [],
      "name": "auctionHouse",
      "outputs": [
        {
          "internalType": "address",
          "name": "",
          "type": "address"
        }
      ],
      "stateMutability": "view",
      "type": "function",
      "constant": true
    },
    {
      "inputs": [
        {
          "internalType": "uint256",
          "name": "",
          "type": "uint256"
        }
      ],
      "name": "auctionWinner",
      "outputs": [
        {
          "internalType": "address payable",
          "name": "",
          "type": "address"
        }
      ],
      "stateMutability": "view",
      "type": "function",
      "constant": true
    },
    {
      "inputs": [
        {
          "internalType": "uint256",
          "name": "",
          "type": "uint256"
        }
      ],
      "name": "auctions",
      "outputs": [
        {
          "internalType": "uint256",
          "name": "endPrice",
          "type": "uint256"
        },
        {
          "internalType": "uint256",
          "name": "startTime",
          "type": "uint256"
        },
        {
          "internalType": "uint256",
          "name": "endTime",
          "type": "uint256"
        },
        {
          "internalType": "bool",
          "name": "active",
          "type": "bool"
        }
      ],
      "stateMutability": "view",
      "type": "function",
      "constant": true
    },
    {
      "inputs": [
        {
          "internalType": "address",
          "name": "owner",
          "type": "address"
        }
      ],
      "name": "balanceOf",
      "outputs": [
        {
          "internalType": "uint256",
          "name": "",
          "type": "uint256"
        }
      ],
      "stateMutability": "view",
      "type": "function",
      "constant": true
    },
    {
      "inputs": [
        {
          "internalType": "uint256",
          "name": "tokenId",
          "type": "uint256"
        }
      ],
      "name": "getApproved",
      "outputs": [
        {
          "internalType": "address",
          "name": "",
          "type": "address"
        }
      ],
      "stateMutability": "view",
      "type": "function",
      "constant": true
    },
    {
      "inputs": [
        {
          "internalType": "address",
          "name": "owner",
          "type": "address"
        },
        {
          "internalType": "address",
          "name": "operator",
          "type": "address"
        }
      ],
      "name": "isApprovedForAll",
      "outputs": [
        {
          "internalType": "bool",
          "name": "",
          "type": "bool"
        }
      ],
      "stateMutability": "view",
      "type": "function",
      "constant": true
    },
    {
      "inputs": [],
      "name": "maxSupply",
      "outputs": [
        {
          "internalType": "uint256",
          "name": "",
          "type": "uint256"
        }
      ],
      "stateMutability": "view",
      "type": "function",
      "constant": true
    },
    {
      "inputs": [
        {
          "internalType": "uint256",
          "name": "_tokenId",
          "type": "uint256"
        }
      ],
      "name": "mint",
      "outputs": [],
      "stateMutability": "nonpayable",
      "type": "function"
    },
    {
      "inputs": [],
      "name": "mintOpen",
      "outputs": [
        {
          "internalType": "bool",
          "name": "",
          "type": "bool"
        }
      ],
      "stateMutability": "view",
      "type": "function",
      "constant": true
    },
    {
      "inputs": [],
      "name": "name",
      "outputs": [
        {
          "internalType": "string",
          "name": "",
          "type": "string"
        }
      ],
      "stateMutability": "view",
      "type": "function",
      "constant": true
    },
    {
      "inputs": [],
      "name": "owner",
      "outputs": [
        {
          "internalType": "address",
          "name": "",
          "type": "address"
        }
      ],
      "stateMutability": "view",
      "type": "function",
      "constant": true
    },
    {
      "inputs": [
        {
          "internalType": "uint256",
          "name": "tokenId",
          "type": "uint256"
        }
      ],
      "name": "ownerOf",
      "outputs": [
        {
          "internalType": "address",
          "name": "",
          "type": "address"
        }
      ],
      "stateMutability": "view",
      "type": "function",
      "constant": true
    },
    {
      "inputs": [],
      "name": "renounceOwnership",
      "outputs": [],
      "stateMutability": "nonpayable",
      "type": "function"
    },
    {
      "inputs": [
        {
          "internalType": "uint256",
          "name": "",
          "type": "uint256"
        },
        {
          "internalType": "uint256",
          "name": "_salePrice",
          "type": "uint256"
        }
      ],
      "name": "royaltyInfo",
      "outputs": [
        {
          "internalType": "address",
          "name": "receiver",
          "type": "address"
        },
        {
          "internalType": "uint256",
          "name": "royaltyAmount",
          "type": "uint256"
        }
      ],
      "stateMutability": "view",
      "type": "function",
      "constant": true
    },
    {
      "inputs": [
        {
          "internalType": "address",
          "name": "from",
          "type": "address"
        },
        {
          "internalType": "address",
          "name": "to",
          "type": "address"
        },
        {
          "internalType": "uint256",
          "name": "tokenId",
          "type": "uint256"
        }
      ],
      "name": "safeTransferFrom",
      "outputs": [],
      "stateMutability": "nonpayable",
      "type": "function"
    },
    {
      "inputs": [
        {
          "internalType": "address",
          "name": "from",
          "type": "address"
        },
        {
          "internalType": "address",
          "name": "to",
          "type": "address"
        },
        {
          "internalType": "uint256",
          "name": "tokenId",
          "type": "uint256"
        },
        {
          "internalType": "bytes",
          "name": "data",
          "type": "bytes"
        }
      ],
      "name": "safeTransferFrom",
      "outputs": [],
      "stateMutability": "nonpayable",
      "type": "function"
    },
    {
      "inputs": [
        {
          "internalType": "address",
          "name": "operator",
          "type": "address"
        },
        {
          "internalType": "bool",
          "name": "approved",
          "type": "bool"
        }
      ],
      "name": "setApprovalForAll",
      "outputs": [],
      "stateMutability": "nonpayable",
      "type": "function"
    },
    {
      "inputs": [
        {
          "internalType": "address",
          "name": "_auctionHouse",
          "type": "address"
        }
      ],
      "name": "setAuctionHouse",
      "outputs": [],
      "stateMutability": "nonpayable",
      "type": "function"
    },
    {
      "inputs": [
        {
          "internalType": "uint256",
          "name": "_SALE_FEE",
          "type": "uint256"
        }
      ],
      "name": "setRegularFee",
      "outputs": [],
      "stateMutability": "nonpayable",
      "type": "function"
    },
    {
      "inputs": [],
      "name": "softCap",
      "outputs": [
        {
          "internalType": "uint256",
          "name": "",
          "type": "uint256"
        }
      ],
      "stateMutability": "view",
      "type": "function",
      "constant": true
    },
    {
      "inputs": [
        {
          "internalType": "bytes4",
          "name": "_interfaceId",
          "type": "bytes4"
        }
      ],
      "name": "supportsInterface",
      "outputs": [
        {
          "internalType": "bool",
          "name": "",
          "type": "bool"
        }
      ],
      "stateMutability": "view",
      "type": "function",
      "constant": true
    },
    {
      "inputs": [],
      "name": "symbol",
      "outputs": [
        {
          "internalType": "string",
          "name": "",
          "type": "string"
        }
      ],
      "stateMutability": "view",
      "type": "function",
      "constant": true
    },
    {
      "inputs": [
        {
          "internalType": "address",
          "name": "_teamMember",
          "type": "address"
        }
      ],
      "name": "teamMint",
      "outputs": [],
      "stateMutability": "nonpayable",
      "type": "function"
    },
    {
      "inputs": [],
      "name": "teamMinted",
      "outputs": [
        {
          "internalType": "uint256",
          "name": "",
          "type": "uint256"
        }
      ],
      "stateMutability": "view",
      "type": "function",
      "constant": true
    },
    {
      "inputs": [
        {
          "internalType": "bool",
          "name": "_open",
          "type": "bool"
        }
      ],
      "name": "toggleMint",
      "outputs": [],
      "stateMutability": "nonpayable",
      "type": "function"
    },
    {
      "inputs": [
        {
          "internalType": "bool",
          "name": "_open",
          "type": "bool"
        }
      ],
      "name": "toggleWlMint",
      "outputs": [],
      "stateMutability": "nonpayable",
      "type": "function"
    },
    {
      "inputs": [
        {
          "internalType": "uint256",
          "name": "",
          "type": "uint256"
        }
      ],
      "name": "tokenMetaDataRecord",
      "outputs": [
        {
          "internalType": "bool",
          "name": "minted",
          "type": "bool"
        },
        {
          "internalType": "uint256",
          "name": "timestamp",
          "type": "uint256"
        }
      ],
      "stateMutability": "view",
      "type": "function",
      "constant": true
    },
    {
      "inputs": [
        {
          "internalType": "uint256",
          "name": "",
          "type": "uint256"
        }
      ],
      "name": "tokenMinter",
      "outputs": [
        {
          "internalType": "address",
          "name": "",
          "type": "address"
        }
      ],
      "stateMutability": "view",
      "type": "function",
      "constant": true
    },
    {
      "inputs": [
        {
          "internalType": "uint256",
          "name": "_tokenId",
          "type": "uint256"
        }
      ],
      "name": "tokenURI",
      "outputs": [
        {
          "internalType": "string",
          "name": "",
          "type": "string"
        }
      ],
      "stateMutability": "view",
      "type": "function",
      "constant": true
    },
    {
      "inputs": [],
      "name": "totalAuctions",
      "outputs": [
        {
          "internalType": "uint256",
          "name": "",
          "type": "uint256"
        }
      ],
      "stateMutability": "view",
      "type": "function",
      "constant": true
    },
    {
      "inputs": [
        {
          "internalType": "address",
          "name": "from",
          "type": "address"
        },
        {
          "internalType": "address",
          "name": "to",
          "type": "address"
        },
        {
          "internalType": "uint256",
          "name": "tokenId",
          "type": "uint256"
        }
      ],
      "name": "transferFrom",
      "outputs": [],
      "stateMutability": "nonpayable",
      "type": "function"
    },
    {
      "inputs": [
        {
          "internalType": "address",
          "name": "newOwner",
          "type": "address"
        }
      ],
      "name": "transferOwnership",
      "outputs": [],
      "stateMutability": "nonpayable",
      "type": "function"
    },
    {
      "inputs": [],
      "name": "treasuryAddress",
      "outputs": [
        {
          "internalType": "address payable",
          "name": "",
          "type": "address"
        }
      ],
      "stateMutability": "view",
      "type": "function",
      "constant": true
    },
    {
      "inputs": [],
      "name": "wlMint",
      "outputs": [],
      "stateMutability": "nonpayable",
      "type": "function"
    },
    {
      "inputs": [],
      "name": "wlMintOpen",
      "outputs": [
        {
          "internalType": "bool",
          "name": "",
          "type": "bool"
        }
      ],
      "stateMutability": "view",
      "type": "function",
      "constant": true
    },
    {
      "inputs": [],
      "name": "getCurrentWinner",
      "outputs": [
        {
          "internalType": "address payable",
          "name": "",
          "type": "address"
        }
      ],
      "stateMutability": "view",
      "type": "function",
      "constant": true
    },
    {
      "inputs": [],
      "name": "getCurrentAuction",
      "outputs": [
        {
          "components": [
            {
              "internalType": "uint256",
              "name": "endPrice",
              "type": "uint256"
            },
            {
              "internalType": "uint256",
              "name": "startTime",
              "type": "uint256"
            },
            {
              "internalType": "uint256",
              "name": "endTime",
              "type": "uint256"
            },
            {
              "internalType": "bool",
              "name": "active",
              "type": "bool"
            }
          ],
          "internalType": "struct StacksAuctionHouse.Auction",
          "name": "",
          "type": "tuple"
        }
      ],
      "stateMutability": "view",
      "type": "function",
      "constant": true
    },
    {
      "inputs": [
        {
          "internalType": "uint256",
          "name": "_tokenId",
          "type": "uint256"
        }
      ],
      "name": "getAuction",
      "outputs": [
        {
          "components": [
            {
              "internalType": "uint256",
              "name": "endPrice",
              "type": "uint256"
            },
            {
              "internalType": "uint256",
              "name": "startTime",
              "type": "uint256"
            },
            {
              "internalType": "uint256",
              "name": "endTime",
              "type": "uint256"
            },
            {
              "internalType": "bool",
              "name": "active",
              "type": "bool"
            }
          ],
          "internalType": "struct StacksAuctionHouse.Auction",
          "name": "",
          "type": "tuple"
        }
      ],
      "stateMutability": "view",
      "type": "function",
      "constant": true
    },
    {
      "inputs": [],
      "name": "bid",
      "outputs": [],
      "stateMutability": "payable",
      "type": "function",
      "payable": true
    },
    {
      "inputs": [
        {
          "internalType": "address payable",
          "name": "_treasuryAddress",
          "type": "address"
        }
      ],
      "name": "setTreasuryAddress",
      "outputs": [],
      "stateMutability": "nonpayable",
      "type": "function"
    }
  ],
  "bytecode": "0x60806040526103e8600955611388600e55610fa9600f55600060105560006013553480156200002d57600080fd5b5060405162005f5e38038062005f5e833981810160405281019062000053919062000436565b6040518060400160405280601181526020017f537461636b7320416c70686120436172640000000000000000000000000000008152506040518060400160405280600681526020017f535441434b5300000000000000000000000000000000000000000000000000008152508160009081620000d09190620006e2565b508060019081620000e29190620006e2565b50505062000105620000f9620001f260201b60201c565b620001fa60201b60201c565b80601460006101000a81548173ffffffffffffffffffffffffffffffffffffffff021916908373ffffffffffffffffffffffffffffffffffffffff16021790555060006363fe958090506040518060800160405280600081526020018281526020016201518083620001789190620007f8565b8152602001600115158152506011600080815260200190815260200160002060008201518160000155602082015181600101556040820151816002015560608201518160030160006101000a81548160ff021916908315150217905550905050620001ea6001620002c060201b60201c565b50506200086e565b600033905090565b6000600860009054906101000a900473ffffffffffffffffffffffffffffffffffffffff16905081600860006101000a81548173ffffffffffffffffffffffffffffffffffffffff021916908373ffffffffffffffffffffffffffffffffffffffff1602179055508173ffffffffffffffffffffffffffffffffffffffff168173ffffffffffffffffffffffffffffffffffffffff167f8be0079c531659141344cd1fd0a4f28419497f9722a3daafe3b4186f6b6457e060405160405180910390a35050565b600060116000600184620002d5919062000833565b81526020019081526020016000206040518060800160405290816000820154815260200160018201548152602001600282015481526020016003820160009054906101000a900460ff1615151515815250509050604051806080016040528060008152602001600183604001516200034e9190620007f8565b8152602001620151808360400151620003689190620007f8565b8152602001600015158152506011600084815260200190815260200160002060008201518160000155602082015181600101556040820151816002015560608201518160030160006101000a81548160ff0219169083151502179055509050505050565b600080fd5b600073ffffffffffffffffffffffffffffffffffffffff82169050919050565b6000620003fe82620003d1565b9050919050565b6200041081620003f1565b81146200041c57600080fd5b50565b600081519050620004308162000405565b92915050565b6000602082840312156200044f576200044e620003cc565b5b60006200045f848285016200041f565b91505092915050565b600081519050919050565b7f4e487b7100000000000000000000000000000000000000000000000000000000600052604160045260246000fd5b7f4e487b7100000000000000000000000000000000000000000000000000000000600052602260045260246000fd5b60006002820490506001821680620004ea57607f821691505b6020821081036200050057620004ff620004a2565b5b50919050565b60008190508160005260206000209050919050565b60006020601f8301049050919050565b600082821b905092915050565b6000600883026200056a7fffffffffffffffffffffffffffffffffffffffffffffffffffffffffffffffff826200052b565b6200057686836200052b565b95508019841693508086168417925050509392505050565b6000819050919050565b6000819050919050565b6000620005c3620005bd620005b7846200058e565b62000598565b6200058e565b9050919050565b6000819050919050565b620005df83620005a2565b620005f7620005ee82620005ca565b84845462000538565b825550505050565b600090565b6200060e620005ff565b6200061b818484620005d4565b505050565b5b8181101562000643576200063760008262000604565b60018101905062000621565b5050565b601f82111562000692576200065c8162000506565b62000667846200051b565b8101602085101562000677578190505b6200068f62000686856200051b565b83018262000620565b50505b505050565b600082821c905092915050565b6000620006b76000198460080262000697565b1980831691505092915050565b6000620006d28383620006a4565b9150826002028217905092915050565b620006ed8262000468565b67ffffffffffffffff81111562000709576200070862000473565b5b620007158254620004d1565b6200072282828562000647565b600060209050601f8311600181146200075a576000841562000745578287015190505b620007518582620006c4565b865550620007c1565b601f1984166200076a8662000506565b60005b8281101562000794578489015182556001820191506020850194506020810190506200076d565b86831015620007b45784890151620007b0601f891682620006a4565b8355505b6001600288020188555050505b505050505050565b7f4e487b7100000000000000000000000000000000000000000000000000000000600052601160045260246000fd5b600062000805826200058e565b915062000812836200058e565b92508282019050808211156200082d576200082c620007c9565b5b92915050565b600062000840826200058e565b91506200084d836200058e565b9250828203905081811115620008685762000867620007c9565b5b92915050565b6156e0806200087e6000396000f3fe608060405260043610620002955760003560e01c80637c57d9471162000163578063bdce6c4411620000c7578063e76d89521162000085578063e76d895214620009f1578063e8b5498d1462000a1f578063e985e9c51462000a4f578063ed9152c81462000a93578063f2fde38b1462000ac3578063fe0dad251462000af15762000295565b8063bdce6c4414620008d8578063c5f956af146200091d578063c87b56dd146200094d578063d5abeb011462000991578063dcb66f1214620009c15762000295565b806395d89b41116200012157806395d89b4114620007c2578063a0712d6814620007f2578063a22cb4651462000820578063ac813088146200084e578063b6a1dba1146200087c578063b88d4fde14620008aa5762000295565b80637c57d94714620006d65780637f9fa411146200071a5780638a4dcd8514620007345780638da5cb5b1462000762578063906a26e014620007925762000295565b806329fc7bd8116200020b5780636352211e11620001c95780636352211e14620005925780636605bfda14620005d657806370a082311462000604578063715018a61462000648578063729eaa66146200066257806378bd793514620006925762000295565b806329fc7bd814620004785780632a55205a14620004a8578063329bfc3314620004ed57806342842e0e146200051d578063571a26a0146200054b5762000295565b806316002f4a116200025957806316002f4a14620003b05780631998aeef14620003e057806323b872dd14620003ec57806324bbd049146200041a57806329c4ba09146200044a5762000295565b8062725dca146200029a57806301ffc9a714620002ca57806306fdde03146200030e578063081812fc146200033e578063095ea7b31462000382575b600080fd5b348015620002a757600080fd5b50620002b262000b35565b604051620002c19190620031a9565b60405180910390f35b348015620002d757600080fd5b50620002f66004803603810190620002f0919062003237565b62000b48565b604051620003059190620031a9565b60405180910390f35b3480156200031b57600080fd5b506200032662000bb4565b60405162000335919062003303565b60405180910390f35b3480156200034b57600080fd5b506200036a600480360381019062000364919062003362565b62000c4e565b604051620003799190620033d9565b60405180910390f35b3480156200038f57600080fd5b50620003ae6004803603810190620003a8919062003427565b62000c96565b005b348015620003bd57600080fd5b50620003c862000dbe565b604051620003d791906200347f565b60405180910390f35b620003ea62000dc4565b005b348015620003f957600080fd5b506200041860048036038101906200041291906200349c565b62000f45565b005b3480156200042757600080fd5b506200043262000fae565b604051620004419190620031a9565b60405180910390f35b3480156200045757600080fd5b5062000476600480360381019062000470919062003362565b62000fc1565b005b3480156200048557600080fd5b50620004906200101d565b6040516200049f91906200347f565b60405180910390f35b348015620004b557600080fd5b50620004d46004803603810190620004ce9190620034f8565b62001023565b604051620004e49291906200353f565b60405180910390f35b348015620004fa57600080fd5b50620005056200105a565b60405162000514919062003591565b60405180910390f35b3480156200052a57600080fd5b506200054960048036038101906200054391906200349c565b62001097565b005b3480156200055857600080fd5b5062000577600480360381019062000571919062003362565b620010b9565b604051620005899493929190620035ae565b60405180910390f35b3480156200059f57600080fd5b50620005be6004803603810190620005b8919062003362565b620010f6565b604051620005cd9190620033d9565b60405180910390f35b348015620005e357600080fd5b50620006026004803603810190620005fc91906200362c565b62001181565b005b3480156200061157600080fd5b506200063060048036038101906200062a91906200365e565b620011cf565b6040516200063f91906200347f565b60405180910390f35b3480156200065557600080fd5b506200066062001289565b005b3480156200066f57600080fd5b506200067a620012a1565b6040516200068991906200347f565b60405180910390f35b3480156200069f57600080fd5b50620006be6004803603810190620006b8919062003362565b620012a7565b604051620006cd91906200370f565b60405180910390f35b348015620006e357600080fd5b50620007026004803603810190620006fc919062003362565b6200130f565b604051620007119190620033d9565b60405180910390f35b3480156200072757600080fd5b506200073262001342565b005b3480156200074157600080fd5b506200076060048036038101906200075a91906200375d565b620015fa565b005b3480156200076f57600080fd5b506200077a62001621565b604051620007899190620033d9565b60405180910390f35b3480156200079f57600080fd5b50620007aa6200164b565b604051620007b991906200347f565b60405180910390f35b348015620007cf57600080fd5b50620007da62001651565b604051620007e9919062003303565b60405180910390f35b348015620007ff57600080fd5b506200081e600480360381019062000818919062003362565b620016eb565b005b3480156200082d57600080fd5b506200084c60048036038101906200084691906200378f565b620018f7565b005b3480156200085b57600080fd5b506200087a60048036038101906200087491906200375d565b62001911565b005b3480156200088957600080fd5b50620008a86004803603810190620008a291906200365e565b62001938565b005b348015620008b757600080fd5b50620008d66004803603810190620008d0919062003927565b62001b38565b005b348015620008e557600080fd5b50620009046004803603810190620008fe919062003362565b62001ba3565b60405162000914929190620039b8565b60405180910390f35b3480156200092a57600080fd5b506200093562001bd4565b60405162000944919062003591565b60405180910390f35b3480156200095a57600080fd5b5062000979600480360381019062000973919062003362565b62001bfa565b60405162000988919062003303565b60405180910390f35b3480156200099e57600080fd5b50620009a962001c39565b604051620009b891906200347f565b60405180910390f35b348015620009ce57600080fd5b50620009d962001c3f565b604051620009e891906200370f565b60405180910390f35b348015620009fe57600080fd5b5062000a1d600480360381019062000a1791906200365e565b62001ca7565b005b34801562000a2c57600080fd5b5062000a3762001cf5565b60405162000a4691906200347f565b60405180910390f35b34801562000a5c57600080fd5b5062000a7b600480360381019062000a759190620039e5565b62001cfb565b60405162000a8a9190620031a9565b60405180910390f35b34801562000aa057600080fd5b5062000aab62001d8f565b60405162000aba9190620033d9565b60405180910390f35b34801562000ad057600080fd5b5062000aef600480360381019062000ae991906200365e565b62001db5565b005b34801562000afe57600080fd5b5062000b1d600480360381019062000b17919062003362565b62001e3f565b60405162000b2c919062003591565b60405180910390f35b600a60009054906101000a900460ff1681565b6000632a55205a60e01b7bffffffffffffffffffffffffffffffffffffffffffffffffffffffff1916827bffffffffffffffffffffffffffffffffffffffffffffffffffffffff19160362000ba1576001905062000baf565b62000bac8262001e72565b90505b919050565b60606000805462000bc59062003a5b565b80601f016020809104026020016040519081016040528092919081815260200182805462000bf39062003a5b565b801562000c445780601f1062000c185761010080835404028352916020019162000c44565b820191906000526020600020905b81548152906001019060200180831162000c2657829003601f168201915b5050505050905090565b600062000c5b8262001eef565b6004600083815260200190815260200160002060009054906101000a900473ffffffffffffffffffffffffffffffffffffffff169050919050565b600062000ca382620010f6565b90508073ffffffffffffffffffffffffffffffffffffffff168373ffffffffffffffffffffffffffffffffffffffff160362000d16576040517f08c379a000000000000000000000000000000000000000000000000000000000815260040162000d0d9062003b06565b60405180910390fd5b8073ffffffffffffffffffffffffffffffffffffffff1662000d3762001f3f565b73ffffffffffffffffffffffffffffffffffffffff16148062000d6b575062000d6a8162000d6462001f3f565b62001cfb565b5b62000dad576040517f08c379a000000000000000000000000000000000000000000000000000000000815260040162000da49062003b9e565b60405180910390fd5b62000db9838362001f47565b505050565b60135481565b600062000dd062001c3f565b90508060000151341162000e1b576040517f08c379a000000000000000000000000000000000000000000000000000000000815260040162000e129062003c10565b60405180910390fd5b600081600001519050600060126000601354815260200190815260200160002060009054906101000a900473ffffffffffffffffffffffffffffffffffffffff1690503360126000601354815260200190815260200160002060006101000a81548173ffffffffffffffffffffffffffffffffffffffff021916908373ffffffffffffffffffffffffffffffffffffffff16021790555034601160006013548152602001908152602001600020600001819055508073ffffffffffffffffffffffffffffffffffffffff166108fc839081150290604051600060405180830381858888f1935050505015801562000f16573d6000803e3d6000fd5b5042836040015110801562000f2c575082606001515b1562000f405762000f3f60135462002002565b5b505050565b62000f5a62000f5362001f3f565b826200215b565b62000f9c576040517f08c379a000000000000000000000000000000000000000000000000000000000815260040162000f939062003ca8565b60405180910390fd5b62000fa9838383620021f8565b505050565b600d60149054906101000a900460ff1681565b62000fcb62002502565b610ce481111562001013576040517f08c379a00000000000000000000000000000000000000000000000000000000081526004016200100a9062003d1a565b60405180910390fd5b8060098190555050565b61271081565b6000806200103062001621565b6127106009548562001043919062003d6b565b6200104f919062003de5565b915091509250929050565b600060126000601354815260200190815260200160002060009054906101000a900473ffffffffffffffffffffffffffffffffffffffff16905090565b620010b48383836040518060200160405280600081525062001b38565b505050565b60116020528060005260406000206000915090508060000154908060010154908060020154908060030160009054906101000a900460ff16905084565b600080620011048362002587565b9050600073ffffffffffffffffffffffffffffffffffffffff168173ffffffffffffffffffffffffffffffffffffffff160362001178576040517f08c379a00000000000000000000000000000000000000000000000000000000081526004016200116f9062003e6d565b60405180910390fd5b80915050919050565b6200118b62002502565b80601460006101000a81548173ffffffffffffffffffffffffffffffffffffffff021916908373ffffffffffffffffffffffffffffffffffffffff16021790555050565b60008073ffffffffffffffffffffffffffffffffffffffff168273ffffffffffffffffffffffffffffffffffffffff160362001242576040517f08c379a0000000000000000000000000000000000000000000000000000000008152600401620012399062003f05565b60405180910390fd5b600360008373ffffffffffffffffffffffffffffffffffffffff1673ffffffffffffffffffffffffffffffffffffffff168152602001908152602001600020549050919050565b6200129362002502565b6200129f6000620025c4565b565b60095481565b620012b162003154565b601160008381526020019081526020016000206040518060800160405290816000820154815260200160018201548152602001600282015481526020016003820160009054906101000a900460ff1615151515815250509050919050565b600b6020528060005260406000206000915054906101000a900473ffffffffffffffffffffffffffffffffffffffff1681565b600a60009054906101000a900460ff1662001394576040517f08c379a00000000000000000000000000000000000000000000000000000000081526004016200138b9062003f77565b60405180910390fd5b6000604051620013a4906200317e565b604051809103906000f080158015620013c1573d6000803e3d6000fd5b5073ffffffffffffffffffffffffffffffffffffffff16637553e639336040518263ffffffff1660e01b8152600401620013fc9190620033d9565b6040805180830381865afa15801562001419573d6000803e3d6000fd5b505050506040513d601f19601f820116820180604052508101906200143f919062004025565b9050806020015162001488576040517f08c379a00000000000000000000000000000000000000000000000000000000081526004016200147f90620040a7565b60405180910390fd5b600081600001519050600e54811115620014d9576040517f08c379a0000000000000000000000000000000000000000000000000000000008152600401620014d09062004119565b60405180910390fd5b600c600082815260200190815260200160002060000160009054906101000a900460ff161562001540576040517f08c379a000000000000000000000000000000000000000000000000000000000815260040162001537906200418b565b60405180910390fd5b33600b600083815260200190815260200160002060006101000a81548173ffffffffffffffffffffffffffffffffffffffff021916908373ffffffffffffffffffffffffffffffffffffffff160217905550604051806040016040528060011515815260200142815250600c600083815260200190815260200160002060008201518160000160006101000a81548160ff02191690831515021790555060208201518160010155905050620015f633826200268a565b5050565b6200160462002502565b80600d60146101000a81548160ff02191690831515021790555050565b6000600860009054906101000a900473ffffffffffffffffffffffffffffffffffffffff16905090565b600f5481565b606060018054620016629062003a5b565b80601f0160208091040260200160405190810160405280929190818152602001828054620016909062003a5b565b8015620016e15780601f10620016b557610100808354040283529160200191620016e1565b820191906000526020600020905b815481529060010190602001808311620016c357829003601f168201915b5050505050905090565b600d60149054906101000a900460ff166200173d576040517f08c379a0000000000000000000000000000000000000000000000000000000008152600401620017349062003f77565b60405180910390fd5b600e5481111562001785576040517f08c379a00000000000000000000000000000000000000000000000000000000081526004016200177c9062004119565b60405180910390fd5b3373ffffffffffffffffffffffffffffffffffffffff16600b600083815260200190815260200160002060009054906101000a900473ffffffffffffffffffffffffffffffffffffffff1673ffffffffffffffffffffffffffffffffffffffff161462001829576040517f08c379a0000000000000000000000000000000000000000000000000000000008152600401620018209062004223565b60405180910390fd5b600c600082815260200190815260200160002060000160009054906101000a900460ff161562001890576040517f08c379a000000000000000000000000000000000000000000000000000000000815260040162001887906200418b565b60405180910390fd5b604051806040016040528060011515815260200142815250600c600083815260200190815260200160002060008201518160000160006101000a81548160ff02191690831515021790555060208201518160010155905050620018f433826200268a565b50565b6200190d6200190562001f3f565b8383620026aa565b5050565b6200191b62002502565b80600a60006101000a81548160ff02191690831515021790555050565b6200194262002502565b60006001601054600f5462001958919062004245565b62001964919062004245565b9050600e54811115620019ae576040517f08c379a0000000000000000000000000000000000000000000000000000000008152600401620019a59062004119565b60405180910390fd5b6110d6811062001a0257636592007f421162001a01576040517f08c379a0000000000000000000000000000000000000000000000000000000008152600401620019f890620042f6565b60405180910390fd5b5b611202811062001a5657636774857f421162001a55576040517f08c379a000000000000000000000000000000000000000000000000000000000815260040162001a4c906200438e565b60405180910390fd5b5b61132e811062001aaa57636955b8ff421162001aa9576040517f08c379a000000000000000000000000000000000000000000000000000000000815260040162001aa09062004426565b60405180910390fd5b5b62001ab681836200281b565b604051806040016040528060011515815260200142815250600c600083815260200190815260200160002060008201518160000160006101000a81548160ff0219169083151502179055506020820151816001015590505062001b1a33826200268a565b6010600081548092919062001b2f9062004448565b91905055505050565b62001b4d62001b4662001f3f565b836200215b565b62001b8f576040517f08c379a000000000000000000000000000000000000000000000000000000000815260040162001b869062003ca8565b60405180910390fd5b62001b9d8484848462002871565b50505050565b600c6020528060005260406000206000915090508060000160009054906101000a900460ff16908060010154905082565b601460009054906101000a900473ffffffffffffffffffffffffffffffffffffffff1681565b606062001c078262001eef565b62001c11620028d4565b60405160200162001c239190620044d7565b6040516020818303038152906040529050919050565b600e5481565b62001c4962003154565b6011600060135481526020019081526020016000206040518060800160405290816000820154815260200160018201548152602001600282015481526020016003820160009054906101000a900460ff161515151581525050905090565b62001cb162002502565b80600d60006101000a81548173ffffffffffffffffffffffffffffffffffffffff021916908373ffffffffffffffffffffffffffffffffffffffff16021790555050565b60105481565b6000600560008473ffffffffffffffffffffffffffffffffffffffff1673ffffffffffffffffffffffffffffffffffffffff16815260200190815260200160002060008373ffffffffffffffffffffffffffffffffffffffff1673ffffffffffffffffffffffffffffffffffffffff16815260200190815260200160002060009054906101000a900460ff16905092915050565b600d60009054906101000a900473ffffffffffffffffffffffffffffffffffffffff1681565b62001dbf62002502565b600073ffffffffffffffffffffffffffffffffffffffff168173ffffffffffffffffffffffffffffffffffffffff160362001e31576040517f08c379a000000000000000000000000000000000000000000000000000000000815260040162001e289062004566565b60405180910390fd5b62001e3c81620025c4565b50565b60126020528060005260406000206000915054906101000a900473ffffffffffffffffffffffffffffffffffffffff1681565b60007f2a55205a000000000000000000000000000000000000000000000000000000007bffffffffffffffffffffffffffffffffffffffffffffffffffffffff1916827bffffffffffffffffffffffffffffffffffffffffffffffffffffffff1916148062001ee8575062001ee782620028f5565b5b9050919050565b62001efa81620029db565b62001f3c576040517f08c379a000000000000000000000000000000000000000000000000000000000815260040162001f339062003e6d565b60405180910390fd5b50565b600033905090565b816004600083815260200190815260200160002060006101000a81548173ffffffffffffffffffffffffffffffffffffffff021916908373ffffffffffffffffffffffffffffffffffffffff160217905550808273ffffffffffffffffffffffffffffffffffffffff1662001fbc83620010f6565b73ffffffffffffffffffffffffffffffffffffffff167f8c5be1e5ebec7d5bd14f71427d1e84f3dd0314c0f7b2291e5b200ac8c7c3b92560405160405180910390a45050565b6000601160008381526020019081526020016000206040518060800160405290816000820154815260200160018201548152602001600282015481526020016003820160009054906101000a900460ff1615151515815250509050600081606001901515908115158152505060016011600060018562002083919062004245565b815260200190815260200160002060030160006101000a81548160ff021916908315150217905550620020c4600283620020be919062004245565b62002a1e565b60136000815480929190620020d99062004448565b9190505550620020e98262002b2a565b601460009054906101000a900473ffffffffffffffffffffffffffffffffffffffff1673ffffffffffffffffffffffffffffffffffffffff166108fc82600001519081150290604051600060405180830381858888f1935050505015801562002156573d6000803e3d6000fd5b505050565b6000806200216983620010f6565b90508073ffffffffffffffffffffffffffffffffffffffff168473ffffffffffffffffffffffffffffffffffffffff161480620021ae5750620021ad818562001cfb565b5b80620021ef57508373ffffffffffffffffffffffffffffffffffffffff16620021d78462000c4e565b73ffffffffffffffffffffffffffffffffffffffff16145b91505092915050565b8273ffffffffffffffffffffffffffffffffffffffff166200221a82620010f6565b73ffffffffffffffffffffffffffffffffffffffff161462002273576040517f08c379a00000000000000000000000000000000000000000000000000000000081526004016200226a90620045fe565b60405180910390fd5b600073ffffffffffffffffffffffffffffffffffffffff168273ffffffffffffffffffffffffffffffffffffffff1603620022e5576040517f08c379a0000000000000000000000000000000000000000000000000000000008152600401620022dc9062004696565b60405180910390fd5b620022f4838383600162002b6c565b8273ffffffffffffffffffffffffffffffffffffffff166200231682620010f6565b73ffffffffffffffffffffffffffffffffffffffff16146200236f576040517f08c379a00000000000000000000000000000000000000000000000000000000081526004016200236690620045fe565b60405180910390fd5b6004600082815260200190815260200160002060006101000a81549073ffffffffffffffffffffffffffffffffffffffff02191690556001600360008573ffffffffffffffffffffffffffffffffffffffff1673ffffffffffffffffffffffffffffffffffffffff168152602001908152602001600020600082825403925050819055506001600360008473ffffffffffffffffffffffffffffffffffffffff1673ffffffffffffffffffffffffffffffffffffffff16815260200190815260200160002060008282540192505081905550816002600083815260200190815260200160002060006101000a81548173ffffffffffffffffffffffffffffffffffffffff021916908373ffffffffffffffffffffffffffffffffffffffff160217905550808273ffffffffffffffffffffffffffffffffffffffff168473ffffffffffffffffffffffffffffffffffffffff167fddf252ad1be2c89b69c2b068fc378daa952ba7f163c4a11628f55a4df523b3ef60405160405180910390a4620024fd838383600162002c99565b505050565b6200250c62001f3f565b73ffffffffffffffffffffffffffffffffffffffff166200252c62001621565b73ffffffffffffffffffffffffffffffffffffffff161462002585576040517f08c379a00000000000000000000000000000000000000000000000000000000081526004016200257c9062004708565b60405180910390fd5b565b60006002600083815260200190815260200160002060009054906101000a900473ffffffffffffffffffffffffffffffffffffffff169050919050565b6000600860009054906101000a900473ffffffffffffffffffffffffffffffffffffffff16905081600860006101000a81548173ffffffffffffffffffffffffffffffffffffffff021916908373ffffffffffffffffffffffffffffffffffffffff1602179055508173ffffffffffffffffffffffffffffffffffffffff168173ffffffffffffffffffffffffffffffffffffffff167f8be0079c531659141344cd1fd0a4f28419497f9722a3daafe3b4186f6b6457e060405160405180910390a35050565b620026a682826040518060200160405280600081525062002c9f565b5050565b8173ffffffffffffffffffffffffffffffffffffffff168373ffffffffffffffffffffffffffffffffffffffff16036200271b576040517f08c379a000000000000000000000000000000000000000000000000000000000815260040162002712906200477a565b60405180910390fd5b80600560008573ffffffffffffffffffffffffffffffffffffffff1673ffffffffffffffffffffffffffffffffffffffff16815260200190815260200160002060008473ffffffffffffffffffffffffffffffffffffffff1673ffffffffffffffffffffffffffffffffffffffff16815260200190815260200160002060006101000a81548160ff0219169083151502179055508173ffffffffffffffffffffffffffffffffffffffff168373ffffffffffffffffffffffffffffffffffffffff167f17307eab39ab6107e8899845ad3d59bd9653f200f220920489ca2b5937696c31836040516200280e9190620031a9565b60405180910390a3505050565b80600b600084815260200190815260200160002060006101000a81548173ffffffffffffffffffffffffffffffffffffffff021916908373ffffffffffffffffffffffffffffffffffffffff1602179055505050565b6200287e848484620021f8565b6200288c8484848462002d01565b620028ce576040517f08c379a0000000000000000000000000000000000000000000000000000000008152600401620028c59062004812565b60405180910390fd5b50505050565b60606040518060600160405280603c81526020016200566f603c9139905090565b60007f80ac58cd000000000000000000000000000000000000000000000000000000007bffffffffffffffffffffffffffffffffffffffffffffffffffffffff1916827bffffffffffffffffffffffffffffffffffffffffffffffffffffffff19161480620029c157507f5b5e139f000000000000000000000000000000000000000000000000000000007bffffffffffffffffffffffffffffffffffffffffffffffffffffffff1916827bffffffffffffffffffffffffffffffffffffffffffffffffffffffff1916145b80620029d45750620029d38262002e99565b5b9050919050565b60008073ffffffffffffffffffffffffffffffffffffffff16620029ff8362002587565b73ffffffffffffffffffffffffffffffffffffffff1614159050919050565b60006011600060018462002a33919062004834565b81526020019081526020016000206040518060800160405290816000820154815260200160018201548152602001600282015481526020016003820160009054906101000a900460ff16151515158152505090506040518060800160405280600081526020016001836040015162002aac919062004245565b815260200162015180836040015162002ac6919062004245565b8152602001600015158152506011600084815260200190815260200160002060008201518160000155602082015181600101556040820151816002015560608201518160030160006101000a81548160ff0219169083151502179055509050505050565b62002b69816012600084815260200190815260200160002060009054906101000a900473ffffffffffffffffffffffffffffffffffffffff166200281b565b50565b600181111562002c9357600073ffffffffffffffffffffffffffffffffffffffff168473ffffffffffffffffffffffffffffffffffffffff161462002c045780600360008673ffffffffffffffffffffffffffffffffffffffff1673ffffffffffffffffffffffffffffffffffffffff168152602001908152602001600020600082825462002bfc919062004834565b925050819055505b600073ffffffffffffffffffffffffffffffffffffffff168373ffffffffffffffffffffffffffffffffffffffff161462002c925780600360008573ffffffffffffffffffffffffffffffffffffffff1673ffffffffffffffffffffffffffffffffffffffff168152602001908152602001600020600082825462002c8a919062004245565b925050819055505b5b50505050565b50505050565b62002cab838362002f03565b62002cba600084848462002d01565b62002cfc576040517f08c379a000000000000000000000000000000000000000000000000000000000815260040162002cf39062004812565b60405180910390fd5b505050565b600062002d248473ffffffffffffffffffffffffffffffffffffffff1662003131565b1562002e8c578373ffffffffffffffffffffffffffffffffffffffff1663150b7a0262002d5062001f3f565b8786866040518563ffffffff1660e01b815260040162002d749493929190620048cc565b6020604051808303816000875af192505050801562002db357506040513d601f19601f8201168201806040525081019062002db0919062004937565b60015b62002e3b573d806000811462002de6576040519150601f19603f3d011682016040523d82523d6000602084013e62002deb565b606091505b50600081510362002e33576040517f08c379a000000000000000000000000000000000000000000000000000000000815260040162002e2a9062004812565b60405180910390fd5b805181602001fd5b63150b7a0260e01b7bffffffffffffffffffffffffffffffffffffffffffffffffffffffff1916817bffffffffffffffffffffffffffffffffffffffffffffffffffffffff19161491505062002e91565b600190505b949350505050565b60007f01ffc9a7000000000000000000000000000000000000000000000000000000007bffffffffffffffffffffffffffffffffffffffffffffffffffffffff1916827bffffffffffffffffffffffffffffffffffffffffffffffffffffffff1916149050919050565b600073ffffffffffffffffffffffffffffffffffffffff168273ffffffffffffffffffffffffffffffffffffffff160362002f75576040517f08c379a000000000000000000000000000000000000000000000000000000000815260040162002f6c90620049b9565b60405180910390fd5b62002f8081620029db565b1562002fc3576040517f08c379a000000000000000000000000000000000000000000000000000000000815260040162002fba9062004a2b565b60405180910390fd5b62002fd360008383600162002b6c565b62002fde81620029db565b1562003021576040517f08c379a0000000000000000000000000000000000000000000000000000000008152600401620030189062004a2b565b60405180910390fd5b6001600360008473ffffffffffffffffffffffffffffffffffffffff1673ffffffffffffffffffffffffffffffffffffffff16815260200190815260200160002060008282540192505081905550816002600083815260200190815260200160002060006101000a81548173ffffffffffffffffffffffffffffffffffffffff021916908373ffffffffffffffffffffffffffffffffffffffff160217905550808273ffffffffffffffffffffffffffffffffffffffff16600073ffffffffffffffffffffffffffffffffffffffff167fddf252ad1be2c89b69c2b068fc378daa952ba7f163c4a11628f55a4df523b3ef60405160405180910390a46200312d60008383600162002c99565b5050565b6000808273ffffffffffffffffffffffffffffffffffffffff163b119050919050565b60405180608001604052806000815260200160008152602001600081526020016000151581525090565b610c218062004a4e83390190565b60008115159050919050565b620031a3816200318c565b82525050565b6000602082019050620031c0600083018462003198565b92915050565b6000604051905090565b600080fd5b600080fd5b60007fffffffff0000000000000000000000000000000000000000000000000000000082169050919050565b6200321181620031da565b81146200321d57600080fd5b50565b600081359050620032318162003206565b92915050565b60006020828403121562003250576200324f620031d0565b5b6000620032608482850162003220565b91505092915050565b600081519050919050565b600082825260208201905092915050565b60005b83811015620032a557808201518184015260208101905062003288565b60008484015250505050565b6000601f19601f8301169050919050565b6000620032cf8262003269565b620032db818562003274565b9350620032ed81856020860162003285565b620032f881620032b1565b840191505092915050565b600060208201905081810360008301526200331f8184620032c2565b905092915050565b6000819050919050565b6200333c8162003327565b81146200334857600080fd5b50565b6000813590506200335c8162003331565b92915050565b6000602082840312156200337b576200337a620031d0565b5b60006200338b848285016200334b565b91505092915050565b600073ffffffffffffffffffffffffffffffffffffffff82169050919050565b6000620033c18262003394565b9050919050565b620033d381620033b4565b82525050565b6000602082019050620033f06000830184620033c8565b92915050565b6200340181620033b4565b81146200340d57600080fd5b50565b6000813590506200342181620033f6565b92915050565b60008060408385031215620034415762003440620031d0565b5b6000620034518582860162003410565b925050602062003464858286016200334b565b9150509250929050565b620034798162003327565b82525050565b60006020820190506200349660008301846200346e565b92915050565b600080600060608486031215620034b857620034b7620031d0565b5b6000620034c88682870162003410565b9350506020620034db8682870162003410565b9250506040620034ee868287016200334b565b9150509250925092565b60008060408385031215620035125762003511620031d0565b5b600062003522858286016200334b565b925050602062003535858286016200334b565b9150509250929050565b6000604082019050620035566000830185620033c8565b6200356560208301846200346e565b9392505050565b6000620035798262003394565b9050919050565b6200358b816200356c565b82525050565b6000602082019050620035a8600083018462003580565b92915050565b6000608082019050620035c560008301876200346e565b620035d460208301866200346e565b620035e360408301856200346e565b620035f2606083018462003198565b95945050505050565b62003606816200356c565b81146200361257600080fd5b50565b6000813590506200362681620035fb565b92915050565b600060208284031215620036455762003644620031d0565b5b6000620036558482850162003615565b91505092915050565b600060208284031215620036775762003676620031d0565b5b6000620036878482850162003410565b91505092915050565b6200369b8162003327565b82525050565b620036ac816200318c565b82525050565b608082016000820151620036ca600085018262003690565b506020820151620036df602085018262003690565b506040820151620036f4604085018262003690565b506060820151620037096060850182620036a1565b50505050565b6000608082019050620037266000830184620036b2565b92915050565b62003737816200318c565b81146200374357600080fd5b50565b60008135905062003757816200372c565b92915050565b600060208284031215620037765762003775620031d0565b5b6000620037868482850162003746565b91505092915050565b60008060408385031215620037a957620037a8620031d0565b5b6000620037b98582860162003410565b9250506020620037cc8582860162003746565b9150509250929050565b600080fd5b600080fd5b7f4e487b7100000000000000000000000000000000000000000000000000000000600052604160045260246000fd5b6200381a82620032b1565b810181811067ffffffffffffffff821117156200383c576200383b620037e0565b5b80604052505050565b600062003851620031c6565b90506200385f82826200380f565b919050565b600067ffffffffffffffff821115620038825762003881620037e0565b5b6200388d82620032b1565b9050602081019050919050565b82818337600083830152505050565b6000620038c0620038ba8462003864565b62003845565b905082815260208101848484011115620038df57620038de620037db565b5b620038ec8482856200389a565b509392505050565b600082601f8301126200390c576200390b620037d6565b5b81356200391e848260208601620038a9565b91505092915050565b60008060008060808587031215620039445762003943620031d0565b5b6000620039548782880162003410565b9450506020620039678782880162003410565b93505060406200397a878288016200334b565b925050606085013567ffffffffffffffff8111156200399e576200399d620031d5565b5b620039ac87828801620038f4565b91505092959194509250565b6000604082019050620039cf600083018562003198565b620039de60208301846200346e565b9392505050565b60008060408385031215620039ff57620039fe620031d0565b5b600062003a0f8582860162003410565b925050602062003a228582860162003410565b9150509250929050565b7f4e487b7100000000000000000000000000000000000000000000000000000000600052602260045260246000fd5b6000600282049050600182168062003a7457607f821691505b60208210810362003a8a5762003a8962003a2c565b5b50919050565b7f4552433732313a20617070726f76616c20746f2063757272656e74206f776e6560008201527f7200000000000000000000000000000000000000000000000000000000000000602082015250565b600062003aee60218362003274565b915062003afb8262003a90565b604082019050919050565b6000602082019050818103600083015262003b218162003adf565b9050919050565b7f4552433732313a20617070726f76652063616c6c6572206973206e6f7420746f60008201527f6b656e206f776e6572206f7220617070726f76656420666f7220616c6c000000602082015250565b600062003b86603d8362003274565b915062003b938262003b28565b604082019050919050565b6000602082019050818103600083015262003bb98162003b77565b9050919050565b7f42696420697320746f6f206c6f77000000000000000000000000000000000000600082015250565b600062003bf8600e8362003274565b915062003c058262003bc0565b602082019050919050565b6000602082019050818103600083015262003c2b8162003be9565b9050919050565b7f4552433732313a2063616c6c6572206973206e6f7420746f6b656e206f776e6560008201527f72206f7220617070726f76656400000000000000000000000000000000000000602082015250565b600062003c90602d8362003274565b915062003c9d8262003c32565b604082019050919050565b6000602082019050818103600083015262003cc38162003c81565b9050919050565b7f466565206d757374206265206c657373206f7220657175616c20746f20333325600082015250565b600062003d0260208362003274565b915062003d0f8262003cca565b602082019050919050565b6000602082019050818103600083015262003d358162003cf3565b9050919050565b7f4e487b7100000000000000000000000000000000000000000000000000000000600052601160045260246000fd5b600062003d788262003327565b915062003d858362003327565b925082820262003d958162003327565b9150828204841483151762003daf5762003dae62003d3c565b5b5092915050565b7f4e487b7100000000000000000000000000000000000000000000000000000000600052601260045260246000fd5b600062003df28262003327565b915062003dff8362003327565b92508262003e125762003e1162003db6565b5b828204905092915050565b7f4552433732313a20696e76616c696420746f6b656e2049440000000000000000600082015250565b600062003e5560188362003274565b915062003e628262003e1d565b602082019050919050565b6000602082019050818103600083015262003e888162003e46565b9050919050565b7f4552433732313a2061646472657373207a65726f206973206e6f74206120766160008201527f6c6964206f776e65720000000000000000000000000000000000000000000000602082015250565b600062003eed60298362003274565b915062003efa8262003e8f565b604082019050919050565b6000602082019050818103600083015262003f208162003ede565b9050919050565b7f4d696e74696e67206973206e6f74206f70656e00000000000000000000000000600082015250565b600062003f5f60138362003274565b915062003f6c8262003f27565b602082019050919050565b6000602082019050818103600083015262003f928162003f50565b9050919050565b600080fd5b60008151905062003faf8162003331565b92915050565b60008151905062003fc6816200372c565b92915050565b60006040828403121562003fe55762003fe462003f99565b5b62003ff1604062003845565b90506000620040038482850162003f9e565b6000830152506020620040198482850162003fb5565b60208301525092915050565b6000604082840312156200403e576200403d620031d0565b5b60006200404e8482850162003fcc565b91505092915050565b7f41646472657373206e6f742077686974656c6973746564000000000000000000600082015250565b60006200408f60178362003274565b91506200409c8262004057565b602082019050919050565b60006020820190508181036000830152620040c28162004080565b9050919050565b7f546f6b656e20494420697320746f6f2068696768000000000000000000000000600082015250565b60006200410160148362003274565b91506200410e82620040c9565b602082019050919050565b600060208201905081810360008301526200413481620040f2565b9050919050565b7f546f6b656e2068617320616c7265616479206265656e206d696e746564000000600082015250565b600062004173601d8362003274565b915062004180826200413b565b602082019050919050565b60006020820190508181036000830152620041a68162004164565b9050919050565b7f596f7520617265206e6f7420616c6c6f77656420746f206d696e74207468697360008201527f20746f6b656e0000000000000000000000000000000000000000000000000000602082015250565b60006200420b60268362003274565b91506200421882620041ad565b604082019050919050565b600060208201905081810360008301526200423e81620041fc565b9050919050565b6000620042528262003327565b91506200425f8362003327565b92508282019050808211156200427a576200427962003d3c565b5b92915050565b7f5465616d2063616e206f6e6c79206d696e742033303020746f6b656e7320696e60008201527f2032303233000000000000000000000000000000000000000000000000000000602082015250565b6000620042de60258362003274565b9150620042eb8262004280565b604082019050919050565b600060208201905081810360008301526200431181620042cf565b9050919050565b7f5465616d2063616e206f6e6c79206d696e742033303020746f6b656e7320696e60008201527f2032303234000000000000000000000000000000000000000000000000000000602082015250565b60006200437660258362003274565b9150620043838262004318565b604082019050919050565b60006020820190508181036000830152620043a98162004367565b9050919050565b7f5465616d2063616e206f6e6c79206d696e74207468652072656d61696e696e6760008201527f20746f6b656e7320696e20323032350000000000000000000000000000000000602082015250565b60006200440e602f8362003274565b91506200441b82620043b0565b604082019050919050565b600060208201905081810360008301526200444181620043ff565b9050919050565b6000620044558262003327565b91507fffffffffffffffffffffffffffffffffffffffffffffffffffffffffffffffff82036200448a576200448962003d3c565b5b600182019050919050565b600081905092915050565b6000620044ad8262003269565b620044b9818562004495565b9350620044cb81856020860162003285565b80840191505092915050565b6000620044e58284620044a0565b915081905092915050565b7f4f776e61626c653a206e6577206f776e657220697320746865207a65726f206160008201527f6464726573730000000000000000000000000000000000000000000000000000602082015250565b60006200454e60268362003274565b91506200455b82620044f0565b604082019050919050565b6000602082019050818103600083015262004581816200453f565b9050919050565b7f4552433732313a207472616e736665722066726f6d20696e636f72726563742060008201527f6f776e6572000000000000000000000000000000000000000000000000000000602082015250565b6000620045e660258362003274565b9150620045f38262004588565b604082019050919050565b600060208201905081810360008301526200461981620045d7565b9050919050565b7f4552433732313a207472616e7366657220746f20746865207a65726f2061646460008201527f7265737300000000000000000000000000000000000000000000000000000000602082015250565b60006200467e60248362003274565b91506200468b8262004620565b604082019050919050565b60006020820190508181036000830152620046b1816200466f565b9050919050565b7f4f776e61626c653a2063616c6c6572206973206e6f7420746865206f776e6572600082015250565b6000620046f060208362003274565b9150620046fd82620046b8565b602082019050919050565b600060208201905081810360008301526200472381620046e1565b9050919050565b7f4552433732313a20617070726f766520746f2063616c6c657200000000000000600082015250565b60006200476260198362003274565b91506200476f826200472a565b602082019050919050565b60006020820190508181036000830152620047958162004753565b9050919050565b7f4552433732313a207472616e7366657220746f206e6f6e20455243373231526560008201527f63656976657220696d706c656d656e7465720000000000000000000000000000602082015250565b6000620047fa60328362003274565b915062004807826200479c565b604082019050919050565b600060208201905081810360008301526200482d81620047eb565b9050919050565b6000620048418262003327565b91506200484e8362003327565b925082820390508181111562004869576200486862003d3c565b5b92915050565b600081519050919050565b600082825260208201905092915050565b600062004898826200486f565b620048a481856200487a565b9350620048b681856020860162003285565b620048c181620032b1565b840191505092915050565b6000608082019050620048e36000830187620033c8565b620048f26020830186620033c8565b6200490160408301856200346e565b81810360608301526200491581846200488b565b905095945050505050565b600081519050620049318162003206565b92915050565b60006020828403121562004950576200494f620031d0565b5b6000620049608482850162004920565b91505092915050565b7f4552433732313a206d696e7420746f20746865207a65726f2061646472657373600082015250565b6000620049a160208362003274565b9150620049ae8262004969565b602082019050919050565b60006020820190508181036000830152620049d48162004992565b9050919050565b7f4552433732313a20746f6b656e20616c7265616479206d696e74656400000000600082015250565b600062004a13601c8362003274565b915062004a2082620049db565b602082019050919050565b6000602082019050818103600083015262004a468162004a04565b905091905056fe608060405234801561001057600080fd5b5061002d61002261003260201b60201c565b61003a60201b60201c565b6100fe565b600033905090565b60008060009054906101000a900473ffffffffffffffffffffffffffffffffffffffff169050816000806101000a81548173ffffffffffffffffffffffffffffffffffffffff021916908373ffffffffffffffffffffffffffffffffffffffff1602179055508173ffffffffffffffffffffffffffffffffffffffff168173ffffffffffffffffffffffffffffffffffffffff167f8be0079c531659141344cd1fd0a4f28419497f9722a3daafe3b4186f6b6457e060405160405180910390a35050565b610b148061010d6000396000f3fe608060405234801561001057600080fd5b506004361061007d5760003560e01c8063715018a61161005b578063715018a6146100eb5780637553e639146100f55780638da5cb5b14610125578063f2fde38b146101435761007d565b8063341cd3ab146100825780635e5c06e21461009e57806360b0d313146100cf575b600080fd5b61009c60048036038101906100979190610758565b61015f565b005b6100b860048036038101906100b391906107a1565b610228565b6040516100c6929190610802565b60405180910390f35b6100e960048036038101906100e49190610857565b610259565b005b6100f36102e9565b005b61010f600480360381019061010a91906107a1565b6102fd565b60405161011c91906108e4565b60405180910390f35b61012d61037b565b60405161013a919061090e565b60405180910390f35b61015d600480360381019061015891906107a1565b6103a4565b005b610167610427565b60005b815181101561022457604051806040016040528082815260200160011515815250600160008484815181106101a2576101a1610929565b5b602002602001015173ffffffffffffffffffffffffffffffffffffffff1673ffffffffffffffffffffffffffffffffffffffff1681526020019081526020016000206000820151816000015560208201518160010160006101000a81548160ff021916908315150217905550905050808061021c90610987565b91505061016a565b5050565b60016020528060005260406000206000915090508060000154908060010160009054906101000a900460ff16905082565b610261610427565b604051806040016040528082815260200160011515815250600160008473ffffffffffffffffffffffffffffffffffffffff1673ffffffffffffffffffffffffffffffffffffffff1681526020019081526020016000206000820151816000015560208201518160010160006101000a81548160ff0219169083151502179055509050505050565b6102f1610427565b6102fb60006104a5565b565b610305610571565b600160008373ffffffffffffffffffffffffffffffffffffffff1673ffffffffffffffffffffffffffffffffffffffff168152602001908152602001600020604051806040016040529081600082015481526020016001820160009054906101000a900460ff1615151515815250509050919050565b60008060009054906101000a900473ffffffffffffffffffffffffffffffffffffffff16905090565b6103ac610427565b600073ffffffffffffffffffffffffffffffffffffffff168173ffffffffffffffffffffffffffffffffffffffff160361041b576040517f08c379a000000000000000000000000000000000000000000000000000000000815260040161041290610a52565b60405180910390fd5b610424816104a5565b50565b61042f610569565b73ffffffffffffffffffffffffffffffffffffffff1661044d61037b565b73ffffffffffffffffffffffffffffffffffffffff16146104a3576040517f08c379a000000000000000000000000000000000000000000000000000000000815260040161049a90610abe565b60405180910390fd5b565b60008060009054906101000a900473ffffffffffffffffffffffffffffffffffffffff169050816000806101000a81548173ffffffffffffffffffffffffffffffffffffffff021916908373ffffffffffffffffffffffffffffffffffffffff1602179055508173ffffffffffffffffffffffffffffffffffffffff168173ffffffffffffffffffffffffffffffffffffffff167f8be0079c531659141344cd1fd0a4f28419497f9722a3daafe3b4186f6b6457e060405160405180910390a35050565b600033905090565b6040518060400160405280600081526020016000151581525090565b6000604051905090565b600080fd5b600080fd5b600080fd5b6000601f19601f8301169050919050565b7f4e487b7100000000000000000000000000000000000000000000000000000000600052604160045260246000fd5b6105ef826105a6565b810181811067ffffffffffffffff8211171561060e5761060d6105b7565b5b80604052505050565b600061062161058d565b905061062d82826105e6565b919050565b600067ffffffffffffffff82111561064d5761064c6105b7565b5b602082029050602081019050919050565b600080fd5b600073ffffffffffffffffffffffffffffffffffffffff82169050919050565b600061068e82610663565b9050919050565b61069e81610683565b81146106a957600080fd5b50565b6000813590506106bb81610695565b92915050565b60006106d46106cf84610632565b610617565b905080838252602082019050602084028301858111156106f7576106f661065e565b5b835b81811015610720578061070c88826106ac565b8452602084019350506020810190506106f9565b5050509392505050565b600082601f83011261073f5761073e6105a1565b5b813561074f8482602086016106c1565b91505092915050565b60006020828403121561076e5761076d610597565b5b600082013567ffffffffffffffff81111561078c5761078b61059c565b5b6107988482850161072a565b91505092915050565b6000602082840312156107b7576107b6610597565b5b60006107c5848285016106ac565b91505092915050565b6000819050919050565b6107e1816107ce565b82525050565b60008115159050919050565b6107fc816107e7565b82525050565b600060408201905061081760008301856107d8565b61082460208301846107f3565b9392505050565b610834816107ce565b811461083f57600080fd5b50565b6000813590506108518161082b565b92915050565b6000806040838503121561086e5761086d610597565b5b600061087c858286016106ac565b925050602061088d85828601610842565b9150509250929050565b6108a0816107ce565b82525050565b6108af816107e7565b82525050565b6040820160008201516108cb6000850182610897565b5060208201516108de60208501826108a6565b50505050565b60006040820190506108f960008301846108b5565b92915050565b61090881610683565b82525050565b600060208201905061092360008301846108ff565b92915050565b7f4e487b7100000000000000000000000000000000000000000000000000000000600052603260045260246000fd5b7f4e487b7100000000000000000000000000000000000000000000000000000000600052601160045260246000fd5b6000610992826107ce565b91507fffffffffffffffffffffffffffffffffffffffffffffffffffffffffffffffff82036109c4576109c3610958565b5b600182019050919050565b600082825260208201905092915050565b7f4f776e61626c653a206e6577206f776e657220697320746865207a65726f206160008201527f6464726573730000000000000000000000000000000000000000000000000000602082015250565b6000610a3c6026836109cf565b9150610a47826109e0565b604082019050919050565b60006020820190508181036000830152610a6b81610a2f565b9050919050565b7f4f776e61626c653a2063616c6c6572206973206e6f7420746865206f776e6572600082015250565b6000610aa86020836109cf565b9150610ab382610a72565b602082019050919050565b60006020820190508181036000830152610ad781610a9b565b905091905056fea26469706673582212203b824e0e98929b8687a0e9d92b226b2fa0f00fae76719160755575c91a3531ad64736f6c63430008110033697066733a2f2f516d5837527a644355487a506e67386d7373547058414257547856465651774e58313234746d70515551694639702f737461636b73a2646970667358221220405e08d6cd8de40cd489ad1c4533c24b13af14f4fcfdcade42df3ecf0f41360064736f6c63430008110033",
  "immutableReferences": {},
  "source": "// SPDX-License-Identifier: MIT\npragma solidity >=0.4.22 <0.9.0;\n\nimport \"@openzeppelin/contracts/access/Ownable.sol\";\nimport \"./Stacks.sol\";\n\ncontract StacksAuctionHouse is Ownable, Stacks {\n  mapping(uint => Auction) public auctions;\n  mapping(uint => address payable) public auctionWinner;\n  uint public totalAuctions = 0;\n  address payable public treasuryAddress;\n\n  struct Auction {\n    uint endPrice;\n    uint startTime;\n    uint endTime;\n    bool active;\n  }\n\n  constructor(address payable _treasuryAddress) {\n    treasuryAddress = _treasuryAddress;\n\n    uint startTime = 1677628800; // Wed Mar 01 2023 00:00:00 GMT+0000\n    // Create the first auction\n    auctions[0] = Auction({\n      endPrice: 0,\n      startTime: startTime,\n      endTime: startTime + 1 days,\n      active: true\n    });\n    // Create the second auction\n    startAuction(1);\n  }\n\n  function getCurrentWinner() public view returns (address payable) {\n    return auctionWinner[totalAuctions];\n  }\n\n  function getCurrentAuction() public view returns (Auction memory) {\n    return auctions[totalAuctions];\n  }\n\n  function getAuction(uint _tokenId) public view returns (Auction memory) {\n    return auctions[_tokenId];\n  }\n\n  function bid() public payable {\n    Auction memory auction = getCurrentAuction();\n    require(msg.value > auction.endPrice, \"Bid is too low\");\n    uint lastBid = auction.endPrice;\n    address payable lastBidder = auctionWinner[totalAuctions];\n    // update the auction\n    auctionWinner[totalAuctions] = payable(msg.sender);\n    auctions[totalAuctions].endPrice = msg.value;\n    // refund last bidder\n    lastBidder.transfer(lastBid);\n    // after-bid callback\n    if (auction.endTime < block.timestamp && auction.active) {\n      closeAuction(totalAuctions);\n    }\n  }\n\n  function closeAuction(uint _tokenId) private {\n    Auction memory auction = auctions[_tokenId];\n    // close the auction and open the next one\n    auction.active = false;\n    auctions[_tokenId + 1].active = true;\n    // create new auction ahead of the current one\n    startAuction(_tokenId + 2);\n    // total auctions gets incremented when the auction is finished\n    totalAuctions++;\n    // then winner can mint\n    allowMint(_tokenId);\n    // move funds to the treasury\n    treasuryAddress.transfer(auction.endPrice);\n  }\n\n  function startAuction(uint _tokenId) private {\n    // this must run 1 in advance of the auction.\n    // [0, 1, 2 (current), 3] --> when current moves to 3, then the 4th is created\n    Auction memory lastAuction = auctions[_tokenId - 1];\n    auctions[_tokenId] = Auction({\n      endPrice: 0,\n      startTime: lastAuction.endTime + 1, // 1 second after the last auction ends\n      endTime: lastAuction.endTime + 1 days, // 1 day after the last auction ends\n      active: false\n    });\n  }\n\n  function allowMint(uint _tokenId) private {\n    // Allow the winner to mint the token on the Stacks contract\n    addAvailableForMint(_tokenId, auctionWinner[_tokenId]);\n  }\n\n  // Admin functions\n  function setTreasuryAddress(address payable _treasuryAddress) public onlyOwner {\n    treasuryAddress = _treasuryAddress;\n  }\n}\n",
  "sourcePath": "/Users/bruno/dev/crypto/stacks/contracts/StacksAuctionHouse.sol",
  "compiler": {
    "name": "solc",
    "version": "0.8.17+commit.8df45f5f.Emscripten.clang"
  },
  "schemaVersion": "3.4.10",
  "updatedAt": "2023-02-08T17:40:29.441Z",
  "networkType": "ethereum",
  "devdoc": {
    "kind": "dev",
    "methods": {
      "approve(address,uint256)": {
        "details": "See {IERC721-approve}."
      },
      "balanceOf(address)": {
        "details": "See {IERC721-balanceOf}."
      },
      "getApproved(uint256)": {
        "details": "See {IERC721-getApproved}."
      },
      "isApprovedForAll(address,address)": {
        "details": "See {IERC721-isApprovedForAll}."
      },
      "name()": {
        "details": "See {IERC721Metadata-name}."
      },
      "owner()": {
        "details": "Returns the address of the current owner."
      },
      "ownerOf(uint256)": {
        "details": "See {IERC721-ownerOf}."
      },
      "renounceOwnership()": {
        "details": "Leaves the contract without owner. It will not be possible to call `onlyOwner` functions anymore. Can only be called by the current owner. NOTE: Renouncing ownership will leave the contract without an owner, thereby removing any functionality that is only available to the owner."
      },
      "safeTransferFrom(address,address,uint256)": {
        "details": "See {IERC721-safeTransferFrom}."
      },
      "safeTransferFrom(address,address,uint256,bytes)": {
        "details": "See {IERC721-safeTransferFrom}."
      },
      "setApprovalForAll(address,bool)": {
        "details": "See {IERC721-setApprovalForAll}."
      },
      "symbol()": {
        "details": "See {IERC721Metadata-symbol}."
      },
      "transferFrom(address,address,uint256)": {
        "details": "See {IERC721-transferFrom}."
      },
      "transferOwnership(address)": {
        "details": "Transfers ownership of the contract to a new account (`newOwner`). Can only be called by the current owner."
      }
    },
    "version": 1
  },
  "userdoc": {
    "kind": "user",
    "methods": {},
    "version": 1
  }
}