{
  "contractName": "Stacks",
  "abi": [
    {
      "inputs": [
        {
          "internalType": "address",
          "name": "_treasuryAddress",
          "type": "address"
        }
      ],
      "stateMutability": "nonpayable",
      "type": "constructor"
    },
    {
      "anonymous": false,
      "inputs": [
        {
          "indexed": true,
          "internalType": "address",
          "name": "owner",
          "type": "address"
        },
        {
          "indexed": true,
          "internalType": "address",
          "name": "approved",
          "type": "address"
        },
        {
          "indexed": true,
          "internalType": "uint256",
          "name": "tokenId",
          "type": "uint256"
        }
      ],
      "name": "Approval",
      "type": "event"
    },
    {
      "anonymous": false,
      "inputs": [
        {
          "indexed": true,
          "internalType": "address",
          "name": "owner",
          "type": "address"
        },
        {
          "indexed": true,
          "internalType": "address",
          "name": "operator",
          "type": "address"
        },
        {
          "indexed": false,
          "internalType": "bool",
          "name": "approved",
          "type": "bool"
        }
      ],
      "name": "ApprovalForAll",
      "type": "event"
    },
    {
      "anonymous": false,
      "inputs": [
        {
          "indexed": true,
          "internalType": "address",
          "name": "previousOwner",
          "type": "address"
        },
        {
          "indexed": true,
          "internalType": "address",
          "name": "newOwner",
          "type": "address"
        }
      ],
      "name": "OwnershipTransferred",
      "type": "event"
    },
    {
      "anonymous": false,
      "inputs": [
        {
          "indexed": true,
          "internalType": "address",
          "name": "from",
          "type": "address"
        },
        {
          "indexed": true,
          "internalType": "address",
          "name": "to",
          "type": "address"
        },
        {
          "indexed": true,
          "internalType": "uint256",
          "name": "tokenId",
          "type": "uint256"
        }
      ],
      "name": "Transfer",
      "type": "event"
    },
    {
      "inputs": [],
      "name": "PERCENT_DIVIDER",
      "outputs": [
        {
          "internalType": "uint256",
          "name": "",
          "type": "uint256"
        }
      ],
      "stateMutability": "view",
      "type": "function",
      "constant": true
    },
    {
      "inputs": [],
      "name": "SALE_FEE",
      "outputs": [
        {
          "internalType": "uint256",
          "name": "",
          "type": "uint256"
        }
      ],
      "stateMutability": "view",
      "type": "function",
      "constant": true
    },
    {
      "inputs": [
        {
          "internalType": "address",
          "name": "to",
          "type": "address"
        },
        {
          "internalType": "uint256",
          "name": "tokenId",
          "type": "uint256"
        }
      ],
      "name": "approve",
      "outputs": [],
      "stateMutability": "nonpayable",
      "type": "function"
    },
    {
      "inputs": [],
      "name": "auctionHouse",
      "outputs": [
        {
          "internalType": "address",
          "name": "",
          "type": "address"
        }
      ],
      "stateMutability": "view",
      "type": "function",
      "constant": true
    },
    {
      "inputs": [
        {
          "internalType": "address",
          "name": "owner",
          "type": "address"
        }
      ],
      "name": "balanceOf",
      "outputs": [
        {
          "internalType": "uint256",
          "name": "",
          "type": "uint256"
        }
      ],
      "stateMutability": "view",
      "type": "function",
      "constant": true
    },
    {
      "inputs": [
        {
          "internalType": "uint256",
          "name": "tokenId",
          "type": "uint256"
        }
      ],
      "name": "getApproved",
      "outputs": [
        {
          "internalType": "address",
          "name": "",
          "type": "address"
        }
      ],
      "stateMutability": "view",
      "type": "function",
      "constant": true
    },
    {
      "inputs": [
        {
          "internalType": "address",
          "name": "owner",
          "type": "address"
        },
        {
          "internalType": "address",
          "name": "operator",
          "type": "address"
        }
      ],
      "name": "isApprovedForAll",
      "outputs": [
        {
          "internalType": "bool",
          "name": "",
          "type": "bool"
        }
      ],
      "stateMutability": "view",
      "type": "function",
      "constant": true
    },
    {
      "inputs": [],
      "name": "maxSupply",
      "outputs": [
        {
          "internalType": "uint256",
          "name": "",
          "type": "uint256"
        }
      ],
      "stateMutability": "view",
      "type": "function",
      "constant": true
    },
    {
      "inputs": [],
      "name": "mintOpen",
      "outputs": [
        {
          "internalType": "bool",
          "name": "",
          "type": "bool"
        }
      ],
      "stateMutability": "view",
      "type": "function",
      "constant": true
    },
    {
      "inputs": [],
      "name": "name",
      "outputs": [
        {
          "internalType": "string",
          "name": "",
          "type": "string"
        }
      ],
      "stateMutability": "view",
      "type": "function",
      "constant": true
    },
    {
      "inputs": [],
      "name": "owner",
      "outputs": [
        {
          "internalType": "address",
          "name": "",
          "type": "address"
        }
      ],
      "stateMutability": "view",
      "type": "function",
      "constant": true
    },
    {
      "inputs": [
        {
          "internalType": "uint256",
          "name": "tokenId",
          "type": "uint256"
        }
      ],
      "name": "ownerOf",
      "outputs": [
        {
          "internalType": "address",
          "name": "",
          "type": "address"
        }
      ],
      "stateMutability": "view",
      "type": "function",
      "constant": true
    },
    {
      "inputs": [],
      "name": "renounceOwnership",
      "outputs": [],
      "stateMutability": "nonpayable",
      "type": "function"
    },
    {
      "inputs": [
        {
          "internalType": "address",
          "name": "from",
          "type": "address"
        },
        {
          "internalType": "address",
          "name": "to",
          "type": "address"
        },
        {
          "internalType": "uint256",
          "name": "tokenId",
          "type": "uint256"
        }
      ],
      "name": "safeTransferFrom",
      "outputs": [],
      "stateMutability": "nonpayable",
      "type": "function"
    },
    {
      "inputs": [
        {
          "internalType": "address",
          "name": "from",
          "type": "address"
        },
        {
          "internalType": "address",
          "name": "to",
          "type": "address"
        },
        {
          "internalType": "uint256",
          "name": "tokenId",
          "type": "uint256"
        },
        {
          "internalType": "bytes",
          "name": "data",
          "type": "bytes"
        }
      ],
      "name": "safeTransferFrom",
      "outputs": [],
      "stateMutability": "nonpayable",
      "type": "function"
    },
    {
      "inputs": [
        {
          "internalType": "address",
          "name": "operator",
          "type": "address"
        },
        {
          "internalType": "bool",
          "name": "approved",
          "type": "bool"
        }
      ],
      "name": "setApprovalForAll",
      "outputs": [],
      "stateMutability": "nonpayable",
      "type": "function"
    },
    {
      "inputs": [],
      "name": "softCap",
      "outputs": [
        {
          "internalType": "uint256",
          "name": "",
          "type": "uint256"
        }
      ],
      "stateMutability": "view",
      "type": "function",
      "constant": true
    },
    {
      "inputs": [],
      "name": "symbol",
      "outputs": [
        {
          "internalType": "string",
          "name": "",
          "type": "string"
        }
      ],
      "stateMutability": "view",
      "type": "function",
      "constant": true
    },
    {
      "inputs": [],
      "name": "teamMinted",
      "outputs": [
        {
          "internalType": "uint256",
          "name": "",
          "type": "uint256"
        }
      ],
      "stateMutability": "view",
      "type": "function",
      "constant": true
    },
    {
      "inputs": [
        {
          "internalType": "uint256",
          "name": "index",
          "type": "uint256"
        }
      ],
      "name": "tokenByIndex",
      "outputs": [
        {
          "internalType": "uint256",
          "name": "",
          "type": "uint256"
        }
      ],
      "stateMutability": "view",
      "type": "function",
      "constant": true
    },
    {
      "inputs": [
        {
          "internalType": "uint256",
          "name": "",
          "type": "uint256"
        }
      ],
      "name": "tokenMetaDataRecord",
      "outputs": [
        {
          "internalType": "bool",
          "name": "minted",
          "type": "bool"
        },
        {
          "internalType": "address",
          "name": "minter",
          "type": "address"
        },
        {
          "internalType": "uint256",
          "name": "timestamp",
          "type": "uint256"
        }
      ],
      "stateMutability": "view",
      "type": "function",
      "constant": true
    },
    {
      "inputs": [
        {
          "internalType": "address",
          "name": "owner",
          "type": "address"
        },
        {
          "internalType": "uint256",
          "name": "index",
          "type": "uint256"
        }
      ],
      "name": "tokenOfOwnerByIndex",
      "outputs": [
        {
          "internalType": "uint256",
          "name": "",
          "type": "uint256"
        }
      ],
      "stateMutability": "view",
      "type": "function",
      "constant": true
    },
    {
      "inputs": [],
      "name": "totalSupply",
      "outputs": [
        {
          "internalType": "uint256",
          "name": "",
          "type": "uint256"
        }
      ],
      "stateMutability": "view",
      "type": "function",
      "constant": true
    },
    {
      "inputs": [
        {
          "internalType": "address",
          "name": "from",
          "type": "address"
        },
        {
          "internalType": "address",
          "name": "to",
          "type": "address"
        },
        {
          "internalType": "uint256",
          "name": "tokenId",
          "type": "uint256"
        }
      ],
      "name": "transferFrom",
      "outputs": [],
      "stateMutability": "nonpayable",
      "type": "function"
    },
    {
      "inputs": [
        {
          "internalType": "address",
          "name": "newOwner",
          "type": "address"
        }
      ],
      "name": "transferOwnership",
      "outputs": [],
      "stateMutability": "nonpayable",
      "type": "function"
    },
    {
      "inputs": [],
      "name": "treasuryAddress",
      "outputs": [
        {
          "internalType": "address",
          "name": "",
          "type": "address"
        }
      ],
      "stateMutability": "view",
      "type": "function",
      "constant": true
    },
    {
      "inputs": [],
      "name": "wlMintOpen",
      "outputs": [
        {
          "internalType": "bool",
          "name": "",
          "type": "bool"
        }
      ],
      "stateMutability": "view",
      "type": "function",
      "constant": true
    },
    {
      "inputs": [
        {
          "internalType": "uint256",
          "name": "_tokenId",
          "type": "uint256"
        }
      ],
      "name": "mint",
      "outputs": [],
      "stateMutability": "nonpayable",
      "type": "function"
    },
    {
      "inputs": [
        {
          "internalType": "address payable",
          "name": "_treasuryAddress",
          "type": "address"
        }
      ],
      "name": "setTreasuryAddress",
      "outputs": [],
      "stateMutability": "nonpayable",
      "type": "function"
    },
    {
      "inputs": [
        {
          "internalType": "address",
          "name": "_auctionHouse",
          "type": "address"
        }
      ],
      "name": "setAuctionHouse",
      "outputs": [],
      "stateMutability": "nonpayable",
      "type": "function"
    },
    {
      "inputs": [
        {
          "internalType": "bool",
          "name": "_open",
          "type": "bool"
        }
      ],
      "name": "toggleMint",
      "outputs": [],
      "stateMutability": "nonpayable",
      "type": "function"
    },
    {
      "inputs": [
        {
          "internalType": "bool",
          "name": "_open",
          "type": "bool"
        }
      ],
      "name": "toggleWlMint",
      "outputs": [],
      "stateMutability": "nonpayable",
      "type": "function"
    },
    {
      "inputs": [],
      "name": "wlMint",
      "outputs": [],
      "stateMutability": "nonpayable",
      "type": "function"
    },
    {
      "inputs": [
        {
          "internalType": "address",
          "name": "_teamMember",
          "type": "address"
        }
      ],
      "name": "teamMint",
      "outputs": [],
      "stateMutability": "nonpayable",
      "type": "function"
    },
    {
      "inputs": [
        {
          "internalType": "uint256",
          "name": "_SALE_FEE",
          "type": "uint256"
        }
      ],
      "name": "setRegularFee",
      "outputs": [],
      "stateMutability": "nonpayable",
      "type": "function"
    },
    {
      "inputs": [
        {
          "internalType": "bytes4",
          "name": "_interfaceId",
          "type": "bytes4"
        }
      ],
      "name": "supportsInterface",
      "outputs": [
        {
          "internalType": "bool",
          "name": "",
          "type": "bool"
        }
      ],
      "stateMutability": "view",
      "type": "function",
      "constant": true
    },
    {
      "inputs": [
        {
          "internalType": "uint256",
          "name": "",
          "type": "uint256"
        },
        {
          "internalType": "uint256",
          "name": "_salePrice",
          "type": "uint256"
        }
      ],
      "name": "royaltyInfo",
      "outputs": [
        {
          "internalType": "address",
          "name": "receiver",
          "type": "address"
        },
        {
          "internalType": "uint256",
          "name": "royaltyAmount",
          "type": "uint256"
        }
      ],
      "stateMutability": "view",
      "type": "function",
      "constant": true
    },
    {
      "inputs": [
        {
          "internalType": "uint256",
          "name": "_tokenId",
          "type": "uint256"
        }
      ],
      "name": "tokenURI",
      "outputs": [
        {
          "internalType": "string",
          "name": "",
          "type": "string"
        }
      ],
      "stateMutability": "view",
      "type": "function",
      "constant": true
    }
  ],
  "bytecode": "0x60806040526103e8600d55611388601155610fa960125560006013553480156200002857600080fd5b5060405162005dc238038062005dc283398181016040528101906200004e919062000280565b6040518060400160405280601681526020017f537461636b7320496e766573746d656e742043617264000000000000000000008152506040518060400160405280600681526020017f535441434b5300000000000000000000000000000000000000000000000000008152508160009081620000cb91906200052c565b508060019081620000dd91906200052c565b50505062000100620000f46200014860201b60201c565b6200015060201b60201c565b80601460006101000a81548173ffffffffffffffffffffffffffffffffffffffff021916908373ffffffffffffffffffffffffffffffffffffffff1602179055505062000613565b600033905090565b6000600c60009054906101000a900473ffffffffffffffffffffffffffffffffffffffff16905081600c60006101000a81548173ffffffffffffffffffffffffffffffffffffffff021916908373ffffffffffffffffffffffffffffffffffffffff1602179055508173ffffffffffffffffffffffffffffffffffffffff168173ffffffffffffffffffffffffffffffffffffffff167f8be0079c531659141344cd1fd0a4f28419497f9722a3daafe3b4186f6b6457e060405160405180910390a35050565b600080fd5b600073ffffffffffffffffffffffffffffffffffffffff82169050919050565b600062000248826200021b565b9050919050565b6200025a816200023b565b81146200026657600080fd5b50565b6000815190506200027a816200024f565b92915050565b60006020828403121562000299576200029862000216565b5b6000620002a98482850162000269565b91505092915050565b600081519050919050565b7f4e487b7100000000000000000000000000000000000000000000000000000000600052604160045260246000fd5b7f4e487b7100000000000000000000000000000000000000000000000000000000600052602260045260246000fd5b600060028204905060018216806200033457607f821691505b6020821081036200034a5762000349620002ec565b5b50919050565b60008190508160005260206000209050919050565b60006020601f8301049050919050565b600082821b905092915050565b600060088302620003b47fffffffffffffffffffffffffffffffffffffffffffffffffffffffffffffffff8262000375565b620003c0868362000375565b95508019841693508086168417925050509392505050565b6000819050919050565b6000819050919050565b60006200040d620004076200040184620003d8565b620003e2565b620003d8565b9050919050565b6000819050919050565b6200042983620003ec565b62000441620004388262000414565b84845462000382565b825550505050565b600090565b6200045862000449565b620004658184846200041e565b505050565b5b818110156200048d57620004816000826200044e565b6001810190506200046b565b5050565b601f821115620004dc57620004a68162000350565b620004b18462000365565b81016020851015620004c1578190505b620004d9620004d08562000365565b8301826200046a565b50505b505050565b600082821c905092915050565b60006200050160001984600802620004e1565b1980831691505092915050565b60006200051c8383620004ee565b9150826002028217905092915050565b6200053782620002b2565b67ffffffffffffffff811115620005535762000552620002bd565b5b6200055f82546200031b565b6200056c82828562000491565b600060209050601f831160018114620005a457600084156200058f578287015190505b6200059b85826200050e565b8655506200060b565b601f198416620005b48662000350565b60005b82811015620005de57848901518255600182019150602085019450602081019050620005b7565b86831015620005fe5784890151620005fa601f891682620004ee565b8355505b6001600288020188555050505b505050505050565b61579f80620006236000396000f3fe60806040523480156200001157600080fd5b5060043610620002675760003560e01c80637f9fa411116200014d578063b88d4fde11620000c9578063e76d89521162000087578063e76d89521462000743578063e8b5498d1462000763578063e985e9c51462000785578063ed9152c814620007bb578063f2fde38b14620007dd5762000267565b8063b88d4fde1462000671578063bdce6c441462000691578063c5f956af14620006c9578063c87b56dd14620006eb578063d5abeb0114620007215762000267565b806395d89b41116200011757806395d89b4114620005cf578063a0712d6814620005f1578063a22cb4651462000611578063ac8130881462000631578063b6a1dba114620006515762000267565b80637f9fa411146200055f5780638a4dcd85146200056b5780638da5cb5b146200058b578063906a26e014620005ad5762000267565b806329fc7bd811620001e95780636352211e11620001a75780636352211e14620004a55780636605bfda14620004db57806370a0823114620004fb578063715018a61462000531578063729eaa66146200053d5762000267565b806329fc7bd814620003c05780632a55205a14620003e25780632f745c59146200041957806342842e0e146200044f5780634f6ccce7146200046f5762000267565b8063095ea7b31162000237578063095ea7b3146200031c57806318160ddd146200033c57806323b872dd146200035e57806324bbd049146200037e57806329c4ba0914620003a05762000267565b8062725dca146200026c57806301ffc9a7146200028e57806306fdde0314620002c4578063081812fc14620002e6575b600080fd5b62000276620007fd565b60405162000285919062002ff3565b60405180910390f35b620002ac6004803603810190620002a6919062003081565b62000810565b604051620002bb919062002ff3565b60405180910390f35b620002ce6200087c565b604051620002dd91906200314d565b60405180910390f35b620003046004803603810190620002fe9190620031ac565b62000916565b60405162000313919062003223565b60405180910390f35b6200033a600480360381019062000334919062003271565b6200095e565b005b6200034662000a86565b604051620003559190620032c9565b60405180910390f35b6200037c6004803603810190620003769190620032e6565b62000a93565b005b6200038862000afc565b60405162000397919062002ff3565b60405180910390f35b620003be6004803603810190620003b89190620031ac565b62000b0f565b005b620003ca62000b6b565b604051620003d99190620032c9565b60405180910390f35b620004006004803603810190620003fa919062003342565b62000b71565b6040516200041092919062003389565b60405180910390f35b62000437600480360381019062000431919062003271565b62000bc1565b604051620004469190620032c9565b60405180910390f35b6200046d6004803603810190620004679190620032e6565b62000c6b565b005b6200048d6004803603810190620004879190620031ac565b62000c8d565b6040516200049c9190620032c9565b60405180910390f35b620004c36004803603810190620004bd9190620031ac565b62000d06565b604051620004d2919062003223565b60405180910390f35b620004f96004803603810190620004f39190620033fb565b62000d91565b005b6200051960048036038101906200051391906200342d565b62000ddf565b604051620005289190620032c9565b60405180910390f35b6200053b62000e99565b005b6200054762000eb1565b604051620005569190620032c9565b60405180910390f35b6200056962000eb7565b005b62000589600480360381019062000583919062003490565b62001138565b005b620005956200115f565b604051620005a4919062003223565b60405180910390f35b620005b762001189565b604051620005c69190620032c9565b60405180910390f35b620005d96200118f565b604051620005e891906200314d565b60405180910390f35b6200060f6004803603810190620006099190620031ac565b62001229565b005b6200062f6004803603810190620006299190620034c2565b6200156c565b005b6200064f600480360381019062000649919062003490565b62001586565b005b6200066f60048036038101906200066991906200342d565b620015ad565b005b6200068f60048036038101906200068991906200365a565b62001804565b005b620006af6004803603810190620006a99190620031ac565b6200186f565b604051620006c093929190620036eb565b60405180910390f35b620006d3620018c6565b604051620006e2919062003223565b60405180910390f35b620007096004803603810190620007039190620031ac565b620018ec565b6040516200071891906200314d565b60405180910390f35b6200072b6200192b565b6040516200073a9190620032c9565b60405180910390f35b6200076160048036038101906200075b91906200342d565b62001931565b005b6200076d6200197f565b6040516200077c9190620032c9565b60405180910390f35b620007a360048036038101906200079d919062003728565b62001985565b604051620007b2919062002ff3565b60405180910390f35b620007c562001a19565b604051620007d4919062003223565b60405180910390f35b620007fb6004803603810190620007f591906200342d565b62001a3f565b005b600e60009054906101000a900460ff1681565b6000632a55205a60e01b7bffffffffffffffffffffffffffffffffffffffffffffffffffffffff1916827bffffffffffffffffffffffffffffffffffffffffffffffffffffffff19160362000869576001905062000877565b620008748262001ac9565b90505b919050565b6060600080546200088d906200379e565b80601f0160208091040260200160405190810160405280929190818152602001828054620008bb906200379e565b80156200090c5780601f10620008e0576101008083540402835291602001916200090c565b820191906000526020600020905b815481529060010190602001808311620008ee57829003601f168201915b5050505050905090565b6000620009238262001b46565b6004600083815260200190815260200160002060009054906101000a900473ffffffffffffffffffffffffffffffffffffffff169050919050565b60006200096b8262000d06565b90508073ffffffffffffffffffffffffffffffffffffffff168373ffffffffffffffffffffffffffffffffffffffff1603620009de576040517f08c379a0000000000000000000000000000000000000000000000000000000008152600401620009d59062003849565b60405180910390fd5b8073ffffffffffffffffffffffffffffffffffffffff16620009ff62001b96565b73ffffffffffffffffffffffffffffffffffffffff16148062000a33575062000a328162000a2c62001b96565b62001985565b5b62000a75576040517f08c379a000000000000000000000000000000000000000000000000000000000815260040162000a6c90620038e1565b60405180910390fd5b62000a81838362001b9e565b505050565b6000600880549050905090565b62000aa862000aa162001b96565b8262001c59565b62000aea576040517f08c379a000000000000000000000000000000000000000000000000000000000815260040162000ae19062003979565b60405180910390fd5b62000af783838362001cf6565b505050565b601060149054906101000a900460ff1681565b62000b1962002000565b610ce481111562000b61576040517f08c379a000000000000000000000000000000000000000000000000000000000815260040162000b5890620039eb565b60405180910390fd5b80600d8190555050565b61271081565b600080601460009054906101000a900473ffffffffffffffffffffffffffffffffffffffff16612710600d548562000baa919062003a3c565b62000bb6919062003ab6565b915091509250929050565b600062000bce8362000ddf565b821062000c12576040517f08c379a000000000000000000000000000000000000000000000000000000000815260040162000c099062003b64565b60405180910390fd5b600660008473ffffffffffffffffffffffffffffffffffffffff1673ffffffffffffffffffffffffffffffffffffffff168152602001908152602001600020600083815260200190815260200160002054905092915050565b62000c888383836040518060200160405280600081525062001804565b505050565b600062000c9962000a86565b821062000cdd576040517f08c379a000000000000000000000000000000000000000000000000000000000815260040162000cd49062003bfc565b60405180910390fd5b6008828154811062000cf45762000cf362003c1e565b5b90600052602060002001549050919050565b60008062000d148362002085565b9050600073ffffffffffffffffffffffffffffffffffffffff168173ffffffffffffffffffffffffffffffffffffffff160362000d88576040517f08c379a000000000000000000000000000000000000000000000000000000000815260040162000d7f9062003c9d565b60405180910390fd5b80915050919050565b62000d9b62002000565b80601460006101000a81548173ffffffffffffffffffffffffffffffffffffffff021916908373ffffffffffffffffffffffffffffffffffffffff16021790555050565b60008073ffffffffffffffffffffffffffffffffffffffff168273ffffffffffffffffffffffffffffffffffffffff160362000e52576040517f08c379a000000000000000000000000000000000000000000000000000000000815260040162000e499062003d35565b60405180910390fd5b600360008373ffffffffffffffffffffffffffffffffffffffff1673ffffffffffffffffffffffffffffffffffffffff168152602001908152602001600020549050919050565b62000ea362002000565b62000eaf6000620020c2565b565b600d5481565b600e60009054906101000a900460ff1662000f09576040517f08c379a000000000000000000000000000000000000000000000000000000000815260040162000f009062003da7565b60405180910390fd5b600060405162000f199062002fc8565b604051809103906000f08015801562000f36573d6000803e3d6000fd5b5073ffffffffffffffffffffffffffffffffffffffff16637553e639336040518263ffffffff1660e01b815260040162000f71919062003223565b6040805180830381865afa15801562000f8e573d6000803e3d6000fd5b505050506040513d601f19601f8201168201806040525081019062000fb4919062003e55565b9050806020015162000ffd576040517f08c379a000000000000000000000000000000000000000000000000000000000815260040162000ff49062003ed7565b60405180910390fd5b600081600001519050600f600082815260200190815260200160002060000160009054906101000a900460ff16156200106d576040517f08c379a0000000000000000000000000000000000000000000000000000000008152600401620010649062003f49565b60405180910390fd5b60405180606001604052806001151581526020013373ffffffffffffffffffffffffffffffffffffffff16815260200142815250600f600083815260200190815260200160002060008201518160000160006101000a81548160ff02191690831515021790555060208201518160000160016101000a81548173ffffffffffffffffffffffffffffffffffffffff021916908373ffffffffffffffffffffffffffffffffffffffff1602179055506040820151816001015590505062001134338262002188565b5050565b6200114262002000565b80601060146101000a81548160ff02191690831515021790555050565b6000600c60009054906101000a900473ffffffffffffffffffffffffffffffffffffffff16905090565b60125481565b606060018054620011a0906200379e565b80601f0160208091040260200160405190810160405280929190818152602001828054620011ce906200379e565b80156200121f5780601f10620011f3576101008083540402835291602001916200121f565b820191906000526020600020905b8154815290600101906020018083116200120157829003601f168201915b5050505050905090565b601060149054906101000a900460ff166200127b576040517f08c379a0000000000000000000000000000000000000000000000000000000008152600401620012729062003da7565b60405180910390fd5b600081101580156200128f57506011548111155b620012d1576040517f08c379a0000000000000000000000000000000000000000000000000000000008152600401620012c89062003fbb565b60405180910390fd5b6000601060009054906101000a900473ffffffffffffffffffffffffffffffffffffffff16905060008173ffffffffffffffffffffffffffffffffffffffff166378bd7935846040518263ffffffff1660e01b8152600401620013359190620032c9565b60a060405180830381865afa15801562001353573d6000803e3d6000fd5b505050506040513d601f19601f820116820180604052508101906200137991906200408f565b905042816060015110620013c4576040517f08c379a0000000000000000000000000000000000000000000000000000000008152600401620013bb9062004111565b60405180910390fd5b3373ffffffffffffffffffffffffffffffffffffffff16816020015173ffffffffffffffffffffffffffffffffffffffff161462001439576040517f08c379a00000000000000000000000000000000000000000000000000000000081526004016200143090620041a9565b60405180910390fd5b600f600084815260200190815260200160002060000160009054906101000a900460ff1615620014a0576040517f08c379a0000000000000000000000000000000000000000000000000000000008152600401620014979062003f49565b60405180910390fd5b60405180606001604052806001151581526020013373ffffffffffffffffffffffffffffffffffffffff16815260200142815250600f600085815260200190815260200160002060008201518160000160006101000a81548160ff02191690831515021790555060208201518160000160016101000a81548173ffffffffffffffffffffffffffffffffffffffff021916908373ffffffffffffffffffffffffffffffffffffffff1602179055506040820151816001015590505062001567338462002188565b505050565b620015826200157a62001b96565b8383620021a8565b5050565b6200159062002000565b80600e60006101000a81548160ff02191690831515021790555050565b620015b762002000565b60006001601354601254620015cd9190620041cb565b620015d99190620041cb565b905060115481111562001623576040517f08c379a00000000000000000000000000000000000000000000000000000000081526004016200161a9062004256565b60405180910390fd5b6110d681106200167757636592007f421162001676576040517f08c379a00000000000000000000000000000000000000000000000000000000081526004016200166d90620042ee565b60405180910390fd5b5b6112028110620016cb57636774857f4211620016ca576040517f08c379a0000000000000000000000000000000000000000000000000000000008152600401620016c19062004386565b60405180910390fd5b5b61132e81106200171f57636955b8ff42116200171e576040517f08c379a000000000000000000000000000000000000000000000000000000000815260040162001715906200441e565b60405180910390fd5b5b60405180606001604052806001151581526020018373ffffffffffffffffffffffffffffffffffffffff16815260200142815250600f600083815260200190815260200160002060008201518160000160006101000a81548160ff02191690831515021790555060208201518160000160016101000a81548173ffffffffffffffffffffffffffffffffffffffff021916908373ffffffffffffffffffffffffffffffffffffffff16021790555060408201518160010155905050620017e6828262002188565b60136000815480929190620017fb9062004440565b91905055505050565b620018196200181262001b96565b8362001c59565b6200185b576040517f08c379a0000000000000000000000000000000000000000000000000000000008152600401620018529062003979565b60405180910390fd5b620018698484848462002319565b50505050565b600f6020528060005260406000206000915090508060000160009054906101000a900460ff16908060000160019054906101000a900473ffffffffffffffffffffffffffffffffffffffff16908060010154905083565b601460009054906101000a900473ffffffffffffffffffffffffffffffffffffffff1681565b6060620018f98262001b46565b620019036200237c565b604051602001620019159190620044cf565b6040516020818303038152906040529050919050565b60115481565b6200193b62002000565b80601060006101000a81548173ffffffffffffffffffffffffffffffffffffffff021916908373ffffffffffffffffffffffffffffffffffffffff16021790555050565b60135481565b6000600560008473ffffffffffffffffffffffffffffffffffffffff1673ffffffffffffffffffffffffffffffffffffffff16815260200190815260200160002060008373ffffffffffffffffffffffffffffffffffffffff1673ffffffffffffffffffffffffffffffffffffffff16815260200190815260200160002060009054906101000a900460ff16905092915050565b601060009054906101000a900473ffffffffffffffffffffffffffffffffffffffff1681565b62001a4962002000565b600073ffffffffffffffffffffffffffffffffffffffff168173ffffffffffffffffffffffffffffffffffffffff160362001abb576040517f08c379a000000000000000000000000000000000000000000000000000000000815260040162001ab2906200455e565b60405180910390fd5b62001ac681620020c2565b50565b60007f2a55205a000000000000000000000000000000000000000000000000000000007bffffffffffffffffffffffffffffffffffffffffffffffffffffffff1916827bffffffffffffffffffffffffffffffffffffffffffffffffffffffff1916148062001b3f575062001b3e826200239d565b5b9050919050565b62001b51816200241a565b62001b93576040517f08c379a000000000000000000000000000000000000000000000000000000000815260040162001b8a9062003c9d565b60405180910390fd5b50565b600033905090565b816004600083815260200190815260200160002060006101000a81548173ffffffffffffffffffffffffffffffffffffffff021916908373ffffffffffffffffffffffffffffffffffffffff160217905550808273ffffffffffffffffffffffffffffffffffffffff1662001c138362000d06565b73ffffffffffffffffffffffffffffffffffffffff167f8c5be1e5ebec7d5bd14f71427d1e84f3dd0314c0f7b2291e5b200ac8c7c3b92560405160405180910390a45050565b60008062001c678362000d06565b90508073ffffffffffffffffffffffffffffffffffffffff168473ffffffffffffffffffffffffffffffffffffffff16148062001cac575062001cab818562001985565b5b8062001ced57508373ffffffffffffffffffffffffffffffffffffffff1662001cd58462000916565b73ffffffffffffffffffffffffffffffffffffffff16145b91505092915050565b8273ffffffffffffffffffffffffffffffffffffffff1662001d188262000d06565b73ffffffffffffffffffffffffffffffffffffffff161462001d71576040517f08c379a000000000000000000000000000000000000000000000000000000000815260040162001d6890620045f6565b60405180910390fd5b600073ffffffffffffffffffffffffffffffffffffffff168273ffffffffffffffffffffffffffffffffffffffff160362001de3576040517f08c379a000000000000000000000000000000000000000000000000000000000815260040162001dda906200468e565b60405180910390fd5b62001df283838360016200245d565b8273ffffffffffffffffffffffffffffffffffffffff1662001e148262000d06565b73ffffffffffffffffffffffffffffffffffffffff161462001e6d576040517f08c379a000000000000000000000000000000000000000000000000000000000815260040162001e6490620045f6565b60405180910390fd5b6004600082815260200190815260200160002060006101000a81549073ffffffffffffffffffffffffffffffffffffffff02191690556001600360008573ffffffffffffffffffffffffffffffffffffffff1673ffffffffffffffffffffffffffffffffffffffff168152602001908152602001600020600082825403925050819055506001600360008473ffffffffffffffffffffffffffffffffffffffff1673ffffffffffffffffffffffffffffffffffffffff16815260200190815260200160002060008282540192505081905550816002600083815260200190815260200160002060006101000a81548173ffffffffffffffffffffffffffffffffffffffff021916908373ffffffffffffffffffffffffffffffffffffffff160217905550808273ffffffffffffffffffffffffffffffffffffffff168473ffffffffffffffffffffffffffffffffffffffff167fddf252ad1be2c89b69c2b068fc378daa952ba7f163c4a11628f55a4df523b3ef60405160405180910390a462001ffb838383600162002471565b505050565b6200200a62001b96565b73ffffffffffffffffffffffffffffffffffffffff166200202a6200115f565b73ffffffffffffffffffffffffffffffffffffffff161462002083576040517f08c379a00000000000000000000000000000000000000000000000000000000081526004016200207a9062004700565b60405180910390fd5b565b60006002600083815260200190815260200160002060009054906101000a900473ffffffffffffffffffffffffffffffffffffffff169050919050565b6000600c60009054906101000a900473ffffffffffffffffffffffffffffffffffffffff16905081600c60006101000a81548173ffffffffffffffffffffffffffffffffffffffff021916908373ffffffffffffffffffffffffffffffffffffffff1602179055508173ffffffffffffffffffffffffffffffffffffffff168173ffffffffffffffffffffffffffffffffffffffff167f8be0079c531659141344cd1fd0a4f28419497f9722a3daafe3b4186f6b6457e060405160405180910390a35050565b620021a482826040518060200160405280600081525062002477565b5050565b8173ffffffffffffffffffffffffffffffffffffffff168373ffffffffffffffffffffffffffffffffffffffff160362002219576040517f08c379a0000000000000000000000000000000000000000000000000000000008152600401620022109062004772565b60405180910390fd5b80600560008573ffffffffffffffffffffffffffffffffffffffff1673ffffffffffffffffffffffffffffffffffffffff16815260200190815260200160002060008473ffffffffffffffffffffffffffffffffffffffff1673ffffffffffffffffffffffffffffffffffffffff16815260200190815260200160002060006101000a81548160ff0219169083151502179055508173ffffffffffffffffffffffffffffffffffffffff168373ffffffffffffffffffffffffffffffffffffffff167f17307eab39ab6107e8899845ad3d59bd9653f200f220920489ca2b5937696c31836040516200230c919062002ff3565b60405180910390a3505050565b6200232684848462001cf6565b6200233484848484620024d9565b62002376576040517f08c379a00000000000000000000000000000000000000000000000000000000081526004016200236d906200480a565b60405180910390fd5b50505050565b60606040518060600160405280603c81526020016200572e603c9139905090565b60007f780e9d63000000000000000000000000000000000000000000000000000000007bffffffffffffffffffffffffffffffffffffffffffffffffffffffff1916827bffffffffffffffffffffffffffffffffffffffffffffffffffffffff19161480620024135750620024128262002671565b5b9050919050565b60008073ffffffffffffffffffffffffffffffffffffffff166200243e8362002085565b73ffffffffffffffffffffffffffffffffffffffff1614159050919050565b6200246b8484848462002757565b50505050565b50505050565b620024838383620028c8565b620024926000848484620024d9565b620024d4576040517f08c379a0000000000000000000000000000000000000000000000000000000008152600401620024cb906200480a565b60405180910390fd5b505050565b6000620024fc8473ffffffffffffffffffffffffffffffffffffffff1662002af6565b1562002664578373ffffffffffffffffffffffffffffffffffffffff1663150b7a026200252862001b96565b8786866040518563ffffffff1660e01b81526004016200254c949392919062004889565b6020604051808303816000875af19250505080156200258b57506040513d601f19601f82011682018060405250810190620025889190620048f4565b60015b62002613573d8060008114620025be576040519150601f19603f3d011682016040523d82523d6000602084013e620025c3565b606091505b5060008151036200260b576040517f08c379a000000000000000000000000000000000000000000000000000000000815260040162002602906200480a565b60405180910390fd5b805181602001fd5b63150b7a0260e01b7bffffffffffffffffffffffffffffffffffffffffffffffffffffffff1916817bffffffffffffffffffffffffffffffffffffffffffffffffffffffff19161491505062002669565b600190505b949350505050565b60007f80ac58cd000000000000000000000000000000000000000000000000000000007bffffffffffffffffffffffffffffffffffffffffffffffffffffffff1916827bffffffffffffffffffffffffffffffffffffffffffffffffffffffff191614806200273d57507f5b5e139f000000000000000000000000000000000000000000000000000000007bffffffffffffffffffffffffffffffffffffffffffffffffffffffff1916827bffffffffffffffffffffffffffffffffffffffffffffffffffffffff1916145b806200275057506200274f8262002b19565b5b9050919050565b620027658484848462002b83565b6001811115620027ac576040517f08c379a0000000000000000000000000000000000000000000000000000000008152600401620027a3906200499c565b60405180910390fd5b6000829050600073ffffffffffffffffffffffffffffffffffffffff168573ffffffffffffffffffffffffffffffffffffffff1603620027f757620027f18162002cb0565b62002839565b8373ffffffffffffffffffffffffffffffffffffffff168573ffffffffffffffffffffffffffffffffffffffff1614620028385762002837858262002cf9565b5b5b600073ffffffffffffffffffffffffffffffffffffffff168473ffffffffffffffffffffffffffffffffffffffff16036200287f57620028798162002e6b565b620028c1565b8473ffffffffffffffffffffffffffffffffffffffff168473ffffffffffffffffffffffffffffffffffffffff1614620028c057620028bf848262002f47565b5b5b5050505050565b600073ffffffffffffffffffffffffffffffffffffffff168273ffffffffffffffffffffffffffffffffffffffff16036200293a576040517f08c379a0000000000000000000000000000000000000000000000000000000008152600401620029319062004a0e565b60405180910390fd5b62002945816200241a565b1562002988576040517f08c379a00000000000000000000000000000000000000000000000000000000081526004016200297f9062004a80565b60405180910390fd5b620029986000838360016200245d565b620029a3816200241a565b15620029e6576040517f08c379a0000000000000000000000000000000000000000000000000000000008152600401620029dd9062004a80565b60405180910390fd5b6001600360008473ffffffffffffffffffffffffffffffffffffffff1673ffffffffffffffffffffffffffffffffffffffff16815260200190815260200160002060008282540192505081905550816002600083815260200190815260200160002060006101000a81548173ffffffffffffffffffffffffffffffffffffffff021916908373ffffffffffffffffffffffffffffffffffffffff160217905550808273ffffffffffffffffffffffffffffffffffffffff16600073ffffffffffffffffffffffffffffffffffffffff167fddf252ad1be2c89b69c2b068fc378daa952ba7f163c4a11628f55a4df523b3ef60405160405180910390a462002af260008383600162002471565b5050565b6000808273ffffffffffffffffffffffffffffffffffffffff163b119050919050565b60007f01ffc9a7000000000000000000000000000000000000000000000000000000007bffffffffffffffffffffffffffffffffffffffffffffffffffffffff1916827bffffffffffffffffffffffffffffffffffffffffffffffffffffffff1916149050919050565b600181111562002caa57600073ffffffffffffffffffffffffffffffffffffffff168473ffffffffffffffffffffffffffffffffffffffff161462002c1b5780600360008673ffffffffffffffffffffffffffffffffffffffff1673ffffffffffffffffffffffffffffffffffffffff168152602001908152602001600020600082825462002c13919062004aa2565b925050819055505b600073ffffffffffffffffffffffffffffffffffffffff168373ffffffffffffffffffffffffffffffffffffffff161462002ca95780600360008573ffffffffffffffffffffffffffffffffffffffff1673ffffffffffffffffffffffffffffffffffffffff168152602001908152602001600020600082825462002ca19190620041cb565b925050819055505b5b50505050565b6008805490506009600083815260200190815260200160002081905550600881908060018154018082558091505060019003906000526020600020016000909190919091505550565b6000600162002d088462000ddf565b62002d14919062004aa2565b905060006007600084815260200190815260200160002054905081811462002dfa576000600660008673ffffffffffffffffffffffffffffffffffffffff1673ffffffffffffffffffffffffffffffffffffffff168152602001908152602001600020600084815260200190815260200160002054905080600660008773ffffffffffffffffffffffffffffffffffffffff1673ffffffffffffffffffffffffffffffffffffffff168152602001908152602001600020600084815260200190815260200160002081905550816007600083815260200190815260200160002081905550505b6007600084815260200190815260200160002060009055600660008573ffffffffffffffffffffffffffffffffffffffff1673ffffffffffffffffffffffffffffffffffffffff16815260200190815260200160002060008381526020019081526020016000206000905550505050565b6000600160088054905062002e81919062004aa2565b905060006009600084815260200190815260200160002054905060006008838154811062002eb45762002eb362003c1e565b5b90600052602060002001549050806008838154811062002ed95762002ed862003c1e565b5b90600052602060002001819055508160096000838152602001908152602001600020819055506009600085815260200190815260200160002060009055600880548062002f2b5762002f2a62004add565b5b6001900381819060005260206000200160009055905550505050565b600062002f548362000ddf565b905081600660008573ffffffffffffffffffffffffffffffffffffffff1673ffffffffffffffffffffffffffffffffffffffff168152602001908152602001600020600083815260200190815260200160002081905550806007600084815260200190815260200160002081905550505050565b610c218062004b0d83390190565b60008115159050919050565b62002fed8162002fd6565b82525050565b60006020820190506200300a600083018462002fe2565b92915050565b6000604051905090565b600080fd5b600080fd5b60007fffffffff0000000000000000000000000000000000000000000000000000000082169050919050565b6200305b8162003024565b81146200306757600080fd5b50565b6000813590506200307b8162003050565b92915050565b6000602082840312156200309a57620030996200301a565b5b6000620030aa848285016200306a565b91505092915050565b600081519050919050565b600082825260208201905092915050565b60005b83811015620030ef578082015181840152602081019050620030d2565b60008484015250505050565b6000601f19601f8301169050919050565b60006200311982620030b3565b620031258185620030be565b935062003137818560208601620030cf565b6200314281620030fb565b840191505092915050565b600060208201905081810360008301526200316981846200310c565b905092915050565b6000819050919050565b620031868162003171565b81146200319257600080fd5b50565b600081359050620031a6816200317b565b92915050565b600060208284031215620031c557620031c46200301a565b5b6000620031d58482850162003195565b91505092915050565b600073ffffffffffffffffffffffffffffffffffffffff82169050919050565b60006200320b82620031de565b9050919050565b6200321d81620031fe565b82525050565b60006020820190506200323a600083018462003212565b92915050565b6200324b81620031fe565b81146200325757600080fd5b50565b6000813590506200326b8162003240565b92915050565b600080604083850312156200328b576200328a6200301a565b5b60006200329b858286016200325a565b9250506020620032ae8582860162003195565b9150509250929050565b620032c38162003171565b82525050565b6000602082019050620032e06000830184620032b8565b92915050565b6000806000606084860312156200330257620033016200301a565b5b600062003312868287016200325a565b935050602062003325868287016200325a565b9250506040620033388682870162003195565b9150509250925092565b600080604083850312156200335c576200335b6200301a565b5b60006200336c8582860162003195565b92505060206200337f8582860162003195565b9150509250929050565b6000604082019050620033a0600083018562003212565b620033af6020830184620032b8565b9392505050565b6000620033c382620031de565b9050919050565b620033d581620033b6565b8114620033e157600080fd5b50565b600081359050620033f581620033ca565b92915050565b6000602082840312156200341457620034136200301a565b5b60006200342484828501620033e4565b91505092915050565b6000602082840312156200344657620034456200301a565b5b600062003456848285016200325a565b91505092915050565b6200346a8162002fd6565b81146200347657600080fd5b50565b6000813590506200348a816200345f565b92915050565b600060208284031215620034a957620034a86200301a565b5b6000620034b98482850162003479565b91505092915050565b60008060408385031215620034dc57620034db6200301a565b5b6000620034ec858286016200325a565b9250506020620034ff8582860162003479565b9150509250929050565b600080fd5b600080fd5b7f4e487b7100000000000000000000000000000000000000000000000000000000600052604160045260246000fd5b6200354d82620030fb565b810181811067ffffffffffffffff821117156200356f576200356e62003513565b5b80604052505050565b60006200358462003010565b905062003592828262003542565b919050565b600067ffffffffffffffff821115620035b557620035b462003513565b5b620035c082620030fb565b9050602081019050919050565b82818337600083830152505050565b6000620035f3620035ed8462003597565b62003578565b9050828152602081018484840111156200361257620036116200350e565b5b6200361f848285620035cd565b509392505050565b600082601f8301126200363f576200363e62003509565b5b813562003651848260208601620035dc565b91505092915050565b600080600080608085870312156200367757620036766200301a565b5b600062003687878288016200325a565b94505060206200369a878288016200325a565b9350506040620036ad8782880162003195565b925050606085013567ffffffffffffffff811115620036d157620036d06200301f565b5b620036df8782880162003627565b91505092959194509250565b600060608201905062003702600083018662002fe2565b62003711602083018562003212565b620037206040830184620032b8565b949350505050565b600080604083850312156200374257620037416200301a565b5b600062003752858286016200325a565b925050602062003765858286016200325a565b9150509250929050565b7f4e487b7100000000000000000000000000000000000000000000000000000000600052602260045260246000fd5b60006002820490506001821680620037b757607f821691505b602082108103620037cd57620037cc6200376f565b5b50919050565b7f4552433732313a20617070726f76616c20746f2063757272656e74206f776e6560008201527f7200000000000000000000000000000000000000000000000000000000000000602082015250565b600062003831602183620030be565b91506200383e82620037d3565b604082019050919050565b60006020820190508181036000830152620038648162003822565b9050919050565b7f4552433732313a20617070726f76652063616c6c6572206973206e6f7420746f60008201527f6b656e206f776e6572206f7220617070726f76656420666f7220616c6c000000602082015250565b6000620038c9603d83620030be565b9150620038d6826200386b565b604082019050919050565b60006020820190508181036000830152620038fc81620038ba565b9050919050565b7f4552433732313a2063616c6c6572206973206e6f7420746f6b656e206f776e6560008201527f72206f7220617070726f76656400000000000000000000000000000000000000602082015250565b600062003961602d83620030be565b91506200396e8262003903565b604082019050919050565b60006020820190508181036000830152620039948162003952565b9050919050565b7f466565206d757374206265206c657373206f7220657175616c20746f20333325600082015250565b6000620039d3602083620030be565b9150620039e0826200399b565b602082019050919050565b6000602082019050818103600083015262003a0681620039c4565b9050919050565b7f4e487b7100000000000000000000000000000000000000000000000000000000600052601160045260246000fd5b600062003a498262003171565b915062003a568362003171565b925082820262003a668162003171565b9150828204841483151762003a805762003a7f62003a0d565b5b5092915050565b7f4e487b7100000000000000000000000000000000000000000000000000000000600052601260045260246000fd5b600062003ac38262003171565b915062003ad08362003171565b92508262003ae35762003ae262003a87565b5b828204905092915050565b7f455243373231456e756d657261626c653a206f776e657220696e646578206f7560008201527f74206f6620626f756e6473000000000000000000000000000000000000000000602082015250565b600062003b4c602b83620030be565b915062003b598262003aee565b604082019050919050565b6000602082019050818103600083015262003b7f8162003b3d565b9050919050565b7f455243373231456e756d657261626c653a20676c6f62616c20696e646578206f60008201527f7574206f6620626f756e64730000000000000000000000000000000000000000602082015250565b600062003be4602c83620030be565b915062003bf18262003b86565b604082019050919050565b6000602082019050818103600083015262003c178162003bd5565b9050919050565b7f4e487b7100000000000000000000000000000000000000000000000000000000600052603260045260246000fd5b7f4552433732313a20696e76616c696420746f6b656e2049440000000000000000600082015250565b600062003c85601883620030be565b915062003c928262003c4d565b602082019050919050565b6000602082019050818103600083015262003cb88162003c76565b9050919050565b7f4552433732313a2061646472657373207a65726f206973206e6f74206120766160008201527f6c6964206f776e65720000000000000000000000000000000000000000000000602082015250565b600062003d1d602983620030be565b915062003d2a8262003cbf565b604082019050919050565b6000602082019050818103600083015262003d508162003d0e565b9050919050565b7f4d696e74696e67206973206e6f74206f70656e00000000000000000000000000600082015250565b600062003d8f601383620030be565b915062003d9c8262003d57565b602082019050919050565b6000602082019050818103600083015262003dc28162003d80565b9050919050565b600080fd5b60008151905062003ddf816200317b565b92915050565b60008151905062003df6816200345f565b92915050565b60006040828403121562003e155762003e1462003dc9565b5b62003e21604062003578565b9050600062003e338482850162003dce565b600083015250602062003e498482850162003de5565b60208301525092915050565b60006040828403121562003e6e5762003e6d6200301a565b5b600062003e7e8482850162003dfc565b91505092915050565b7f41646472657373206e6f742077686974656c6973746564000000000000000000600082015250565b600062003ebf601783620030be565b915062003ecc8262003e87565b602082019050919050565b6000602082019050818103600083015262003ef28162003eb0565b9050919050565b7f546f6b656e2068617320616c7265616479206265656e206d696e746564000000600082015250565b600062003f31601d83620030be565b915062003f3e8262003ef9565b602082019050919050565b6000602082019050818103600083015262003f648162003f22565b9050919050565b7f546f6b656e20494420697320696e76616c696400000000000000000000000000600082015250565b600062003fa3601383620030be565b915062003fb08262003f6b565b602082019050919050565b6000602082019050818103600083015262003fd68162003f94565b9050919050565b60008151905062003fee81620033ca565b92915050565b600060a082840312156200400d576200400c62003dc9565b5b6200401960a062003578565b905060006200402b8482850162003dce565b6000830152506020620040418482850162003fdd565b6020830152506040620040578482850162003dce565b60408301525060606200406d8482850162003dce565b6060830152506080620040838482850162003de5565b60808301525092915050565b600060a08284031215620040a857620040a76200301a565b5b6000620040b88482850162003ff4565b91505092915050565b7f41756374696f6e206973206e6f7420636c6f7365640000000000000000000000600082015250565b6000620040f9601583620030be565b91506200410682620040c1565b602082019050919050565b600060208201905081810360008301526200412c81620040ea565b9050919050565b7f596f7520617265206e6f74207468652077696e6e6572206f662074686973206160008201527f756374696f6e0000000000000000000000000000000000000000000000000000602082015250565b600062004191602683620030be565b91506200419e8262004133565b604082019050919050565b60006020820190508181036000830152620041c48162004182565b9050919050565b6000620041d88262003171565b9150620041e58362003171565b92508282019050808211156200420057620041ff62003a0d565b5b92915050565b7f546f6b656e20494420697320746f6f2068696768000000000000000000000000600082015250565b60006200423e601483620030be565b91506200424b8262004206565b602082019050919050565b6000602082019050818103600083015262004271816200422f565b9050919050565b7f5465616d2063616e206f6e6c79206d696e742033303020746f6b656e7320696e60008201527f2032303233000000000000000000000000000000000000000000000000000000602082015250565b6000620042d6602583620030be565b9150620042e38262004278565b604082019050919050565b600060208201905081810360008301526200430981620042c7565b9050919050565b7f5465616d2063616e206f6e6c79206d696e742033303020746f6b656e7320696e60008201527f2032303234000000000000000000000000000000000000000000000000000000602082015250565b60006200436e602583620030be565b91506200437b8262004310565b604082019050919050565b60006020820190508181036000830152620043a1816200435f565b9050919050565b7f5465616d2063616e206f6e6c79206d696e74207468652072656d61696e696e6760008201527f20746f6b656e7320696e20323032350000000000000000000000000000000000602082015250565b600062004406602f83620030be565b91506200441382620043a8565b604082019050919050565b600060208201905081810360008301526200443981620043f7565b9050919050565b60006200444d8262003171565b91507fffffffffffffffffffffffffffffffffffffffffffffffffffffffffffffffff820362004482576200448162003a0d565b5b600182019050919050565b600081905092915050565b6000620044a582620030b3565b620044b181856200448d565b9350620044c3818560208601620030cf565b80840191505092915050565b6000620044dd828462004498565b915081905092915050565b7f4f776e61626c653a206e6577206f776e657220697320746865207a65726f206160008201527f6464726573730000000000000000000000000000000000000000000000000000602082015250565b600062004546602683620030be565b91506200455382620044e8565b604082019050919050565b60006020820190508181036000830152620045798162004537565b9050919050565b7f4552433732313a207472616e736665722066726f6d20696e636f72726563742060008201527f6f776e6572000000000000000000000000000000000000000000000000000000602082015250565b6000620045de602583620030be565b9150620045eb8262004580565b604082019050919050565b600060208201905081810360008301526200461181620045cf565b9050919050565b7f4552433732313a207472616e7366657220746f20746865207a65726f2061646460008201527f7265737300000000000000000000000000000000000000000000000000000000602082015250565b600062004676602483620030be565b9150620046838262004618565b604082019050919050565b60006020820190508181036000830152620046a98162004667565b9050919050565b7f4f776e61626c653a2063616c6c6572206973206e6f7420746865206f776e6572600082015250565b6000620046e8602083620030be565b9150620046f582620046b0565b602082019050919050565b600060208201905081810360008301526200471b81620046d9565b9050919050565b7f4552433732313a20617070726f766520746f2063616c6c657200000000000000600082015250565b60006200475a601983620030be565b9150620047678262004722565b602082019050919050565b600060208201905081810360008301526200478d816200474b565b9050919050565b7f4552433732313a207472616e7366657220746f206e6f6e20455243373231526560008201527f63656976657220696d706c656d656e7465720000000000000000000000000000602082015250565b6000620047f2603283620030be565b9150620047ff8262004794565b604082019050919050565b600060208201905081810360008301526200482581620047e3565b9050919050565b600081519050919050565b600082825260208201905092915050565b600062004855826200482c565b62004861818562004837565b935062004873818560208601620030cf565b6200487e81620030fb565b840191505092915050565b6000608082019050620048a0600083018762003212565b620048af602083018662003212565b620048be6040830185620032b8565b8181036060830152620048d2818462004848565b905095945050505050565b600081519050620048ee8162003050565b92915050565b6000602082840312156200490d576200490c6200301a565b5b60006200491d84828501620048dd565b91505092915050565b7f455243373231456e756d657261626c653a20636f6e736563757469766520747260008201527f616e7366657273206e6f7420737570706f727465640000000000000000000000602082015250565b600062004984603583620030be565b9150620049918262004926565b604082019050919050565b60006020820190508181036000830152620049b78162004975565b9050919050565b7f4552433732313a206d696e7420746f20746865207a65726f2061646472657373600082015250565b6000620049f6602083620030be565b915062004a0382620049be565b602082019050919050565b6000602082019050818103600083015262004a2981620049e7565b9050919050565b7f4552433732313a20746f6b656e20616c7265616479206d696e74656400000000600082015250565b600062004a68601c83620030be565b915062004a758262004a30565b602082019050919050565b6000602082019050818103600083015262004a9b8162004a59565b9050919050565b600062004aaf8262003171565b915062004abc8362003171565b925082820390508181111562004ad75762004ad662003a0d565b5b92915050565b7f4e487b7100000000000000000000000000000000000000000000000000000000600052603160045260246000fdfe608060405234801561001057600080fd5b5061002d61002261003260201b60201c565b61003a60201b60201c565b6100fe565b600033905090565b60008060009054906101000a900473ffffffffffffffffffffffffffffffffffffffff169050816000806101000a81548173ffffffffffffffffffffffffffffffffffffffff021916908373ffffffffffffffffffffffffffffffffffffffff1602179055508173ffffffffffffffffffffffffffffffffffffffff168173ffffffffffffffffffffffffffffffffffffffff167f8be0079c531659141344cd1fd0a4f28419497f9722a3daafe3b4186f6b6457e060405160405180910390a35050565b610b148061010d6000396000f3fe608060405234801561001057600080fd5b506004361061007d5760003560e01c8063715018a61161005b578063715018a6146100eb5780637553e639146100f55780638da5cb5b14610125578063f2fde38b146101435761007d565b8063341cd3ab146100825780635e5c06e21461009e57806360b0d313146100cf575b600080fd5b61009c60048036038101906100979190610758565b61015f565b005b6100b860048036038101906100b391906107a1565b610228565b6040516100c6929190610802565b60405180910390f35b6100e960048036038101906100e49190610857565b610259565b005b6100f36102e9565b005b61010f600480360381019061010a91906107a1565b6102fd565b60405161011c91906108e4565b60405180910390f35b61012d61037b565b60405161013a919061090e565b60405180910390f35b61015d600480360381019061015891906107a1565b6103a4565b005b610167610427565b60005b815181101561022457604051806040016040528082815260200160011515815250600160008484815181106101a2576101a1610929565b5b602002602001015173ffffffffffffffffffffffffffffffffffffffff1673ffffffffffffffffffffffffffffffffffffffff1681526020019081526020016000206000820151816000015560208201518160010160006101000a81548160ff021916908315150217905550905050808061021c90610987565b91505061016a565b5050565b60016020528060005260406000206000915090508060000154908060010160009054906101000a900460ff16905082565b610261610427565b604051806040016040528082815260200160011515815250600160008473ffffffffffffffffffffffffffffffffffffffff1673ffffffffffffffffffffffffffffffffffffffff1681526020019081526020016000206000820151816000015560208201518160010160006101000a81548160ff0219169083151502179055509050505050565b6102f1610427565b6102fb60006104a5565b565b610305610571565b600160008373ffffffffffffffffffffffffffffffffffffffff1673ffffffffffffffffffffffffffffffffffffffff168152602001908152602001600020604051806040016040529081600082015481526020016001820160009054906101000a900460ff1615151515815250509050919050565b60008060009054906101000a900473ffffffffffffffffffffffffffffffffffffffff16905090565b6103ac610427565b600073ffffffffffffffffffffffffffffffffffffffff168173ffffffffffffffffffffffffffffffffffffffff160361041b576040517f08c379a000000000000000000000000000000000000000000000000000000000815260040161041290610a52565b60405180910390fd5b610424816104a5565b50565b61042f610569565b73ffffffffffffffffffffffffffffffffffffffff1661044d61037b565b73ffffffffffffffffffffffffffffffffffffffff16146104a3576040517f08c379a000000000000000000000000000000000000000000000000000000000815260040161049a90610abe565b60405180910390fd5b565b60008060009054906101000a900473ffffffffffffffffffffffffffffffffffffffff169050816000806101000a81548173ffffffffffffffffffffffffffffffffffffffff021916908373ffffffffffffffffffffffffffffffffffffffff1602179055508173ffffffffffffffffffffffffffffffffffffffff168173ffffffffffffffffffffffffffffffffffffffff167f8be0079c531659141344cd1fd0a4f28419497f9722a3daafe3b4186f6b6457e060405160405180910390a35050565b600033905090565b6040518060400160405280600081526020016000151581525090565b6000604051905090565b600080fd5b600080fd5b600080fd5b6000601f19601f8301169050919050565b7f4e487b7100000000000000000000000000000000000000000000000000000000600052604160045260246000fd5b6105ef826105a6565b810181811067ffffffffffffffff8211171561060e5761060d6105b7565b5b80604052505050565b600061062161058d565b905061062d82826105e6565b919050565b600067ffffffffffffffff82111561064d5761064c6105b7565b5b602082029050602081019050919050565b600080fd5b600073ffffffffffffffffffffffffffffffffffffffff82169050919050565b600061068e82610663565b9050919050565b61069e81610683565b81146106a957600080fd5b50565b6000813590506106bb81610695565b92915050565b60006106d46106cf84610632565b610617565b905080838252602082019050602084028301858111156106f7576106f661065e565b5b835b81811015610720578061070c88826106ac565b8452602084019350506020810190506106f9565b5050509392505050565b600082601f83011261073f5761073e6105a1565b5b813561074f8482602086016106c1565b91505092915050565b60006020828403121561076e5761076d610597565b5b600082013567ffffffffffffffff81111561078c5761078b61059c565b5b6107988482850161072a565b91505092915050565b6000602082840312156107b7576107b6610597565b5b60006107c5848285016106ac565b91505092915050565b6000819050919050565b6107e1816107ce565b82525050565b60008115159050919050565b6107fc816107e7565b82525050565b600060408201905061081760008301856107d8565b61082460208301846107f3565b9392505050565b610834816107ce565b811461083f57600080fd5b50565b6000813590506108518161082b565b92915050565b6000806040838503121561086e5761086d610597565b5b600061087c858286016106ac565b925050602061088d85828601610842565b9150509250929050565b6108a0816107ce565b82525050565b6108af816107e7565b82525050565b6040820160008201516108cb6000850182610897565b5060208201516108de60208501826108a6565b50505050565b60006040820190506108f960008301846108b5565b92915050565b61090881610683565b82525050565b600060208201905061092360008301846108ff565b92915050565b7f4e487b7100000000000000000000000000000000000000000000000000000000600052603260045260246000fd5b7f4e487b7100000000000000000000000000000000000000000000000000000000600052601160045260246000fd5b6000610992826107ce565b91507fffffffffffffffffffffffffffffffffffffffffffffffffffffffffffffffff82036109c4576109c3610958565b5b600182019050919050565b600082825260208201905092915050565b7f4f776e61626c653a206e6577206f776e657220697320746865207a65726f206160008201527f6464726573730000000000000000000000000000000000000000000000000000602082015250565b6000610a3c6026836109cf565b9150610a47826109e0565b604082019050919050565b60006020820190508181036000830152610a6b81610a2f565b9050919050565b7f4f776e61626c653a2063616c6c6572206973206e6f7420746865206f776e6572600082015250565b6000610aa86020836109cf565b9150610ab382610a72565b602082019050919050565b60006020820190508181036000830152610ad781610a9b565b905091905056fea26469706673582212203b824e0e98929b8687a0e9d92b226b2fa0f00fae76719160755575c91a3531ad64736f6c63430008110033697066733a2f2f516d57474b384446796133786e363432674c7470357a64547a326b4b4a6574616956583872617a424c354e7a75342f737461636b73a26469706673582212200ba8bf550ad24d7c09cae021abe7320b2eb7873fd6d4a11d64be159cce519ea164736f6c63430008110033",
  "immutableReferences": {},
  "source": "// SPDX-License-Identifier: MIT\npragma solidity >=0.4.22 <0.9.0;\n\nimport \"@openzeppelin/contracts/access/Ownable.sol\";\nimport \"@openzeppelin/contracts/token/ERC721/ERC721.sol\";\nimport \"@openzeppelin/contracts/token/ERC721/extensions/ERC721Enumerable.sol\";\nimport \"@openzeppelin/contracts/token/common/ERC2981.sol\";\nimport \"./WhitelistData.sol\";\nimport \"./StacksAuctionHouse.sol\";\n\ncontract Stacks is ERC721, ERC721Enumerable, ERC2981, Ownable {\n  bytes4 private constant _INTERFACE_ID_ERC2981 = 0x2a55205a;\n\n  uint public constant PERCENT_DIVIDER = 10000;\n  uint public SALE_FEE = 1000; // 10%\n\n  bool public wlMintOpen;\n\n  mapping(uint => TokenMetaData) public tokenMetaDataRecord;\n\n  address public auctionHouse;\n  bool public mintOpen;\n  uint public maxSupply = 5000; // Immutable\n  uint public softCap = 4009; // Available for auction - Immutable\n  uint public teamMinted = 0;\n  address public treasuryAddress;\n\n  struct TokenMetaData {\n    bool minted;\n    address minter;\n    uint timestamp;\n  }\n\n  constructor(address _treasuryAddress) ERC721(\"Stacks Investment Card\", \"STACKS\") {\n    treasuryAddress = _treasuryAddress;\n  }\n\n  function mint(uint _tokenId) public {\n    require(mintOpen, \"Minting is not open\");\n    require(_tokenId >=0 && _tokenId <= maxSupply, \"Token ID is invalid\");\n\n    StacksAuctionHouse auctionHouseContract = StacksAuctionHouse(auctionHouse);\n    StacksAuctionHouse.Auction memory auction = auctionHouseContract.getAuction(_tokenId);\n    require(auction.endTime < block.timestamp, \"Auction is not closed\");\n    require(auction.topBidder == msg.sender, \"You are not the winner of this auction\");\n\n    require(!tokenMetaDataRecord[_tokenId].minted, \"Token has already been minted\");\n\n    tokenMetaDataRecord[_tokenId] = TokenMetaData(true, msg.sender, block.timestamp);\n    _safeMint(msg.sender, _tokenId);\n  }\n\n  // Admin functions\n  function setTreasuryAddress(address payable _treasuryAddress) public onlyOwner {\n    treasuryAddress = _treasuryAddress;\n  }\n\n  function setAuctionHouse(address _auctionHouse) public onlyOwner {\n    auctionHouse = _auctionHouse;\n  }\n\n  function toggleMint(bool _open) public onlyOwner {\n    mintOpen = _open;\n  }\n\n  function toggleWlMint(bool _open) public onlyOwner {\n    wlMintOpen = _open;\n  }\n\n  function wlMint() public {\n    require(wlMintOpen, \"Minting is not open\");\n    WhitelistData.Account memory wlAccount = new WhitelistData().getWhitelistAccount(msg.sender);\n    require(wlAccount.exists, \"Address not whitelisted\");\n\n    // _tokenId for whitelist is between 0 and 250\n    uint _tokenId = wlAccount.tokenId;\n    require(!tokenMetaDataRecord[_tokenId].minted, \"Token has already been minted\");\n\n    tokenMetaDataRecord[_tokenId] = TokenMetaData(true, msg.sender, block.timestamp);\n    _safeMint(msg.sender, _tokenId);\n  }\n\n  // Mint token for team members\n  function teamMint(address _teamMember) public onlyOwner {\n    // _tokenId for team is between 4010 and 5000\n    uint _tokenId = softCap + teamMinted + 1;\n    require(_tokenId <= maxSupply, \"Token ID is too high\");\n\n    // make it so team can only mint 300 tokens per year\n    // 2023: 4010 - 4309\n    if(_tokenId >= 4310) {\n      // 2024: 4310 - 4609\n      require(block.timestamp > 1704067199, \"Team can only mint 300 tokens in 2023\"); // 31/12/2023\n    }\n    if(_tokenId >= 4610) {\n      // 2025: 4610 - 4909\n      require(block.timestamp > 1735689599, \"Team can only mint 300 tokens in 2024\"); // 31/12/2024\n    }\n    if(_tokenId >= 4910) {\n      // 2026: 4910 - 5000\n      require(block.timestamp > 1767225599, \"Team can only mint the remaining tokens in 2025\"); // 31/12/2025\n    }\n\n    // set mint timestamp\n    tokenMetaDataRecord[_tokenId] = TokenMetaData(true, _teamMember, block.timestamp);\n    // mint token\n    _safeMint(_teamMember, _tokenId);\n    teamMinted++;\n  }\n\n  function setRegularFee(uint _SALE_FEE) public onlyOwner {\n    require(_SALE_FEE <= 3300, \"Fee must be less or equal to 33%\");\n    SALE_FEE = _SALE_FEE;\n  }\n\n  function supportsInterface(bytes4 _interfaceId) public view virtual override(ERC721, ERC2981, ERC721Enumerable) returns (bool) {\n    if (_interfaceId == _INTERFACE_ID_ERC2981) { return true; }\n    return super.supportsInterface(_interfaceId);\n  }\n\n  function royaltyInfo(uint256, uint256 _salePrice) override view public returns (address receiver, uint256 royaltyAmount){\n    return (treasuryAddress, _salePrice * SALE_FEE / PERCENT_DIVIDER);\n  }\n\n  // Overwrite tokenURI\n  // ignore tokenId as all the tokens have the same image\n  function tokenURI(uint256 _tokenId) public view virtual override returns (string memory) {\n    _requireMinted(_tokenId);\n    return string(abi.encodePacked(_baseURI()));\n  }\n\n  // Overwrite _baseURI\n  function _baseURI() override pure internal returns (string memory) {\n    return \"ipfs://QmWGK8DFya3xn642gLtp5zdTz2kKJetaiVX8razBL5Nzu4/stacks\";\n  }\n\n  function _beforeTokenTransfer(address from, address to, uint256 firstTokenId, uint256 batchSize) internal virtual override(ERC721, ERC721Enumerable) {\n    return super._beforeTokenTransfer(from, to, firstTokenId, batchSize);\n  }\n}\n",
  "sourcePath": "/Users/bruno/dev/crypto/stacks/contracts/Stacks.sol",
  "compiler": {
    "name": "solc",
    "version": "0.8.17+commit.8df45f5f.Emscripten.clang"
  },
  "schemaVersion": "3.4.10",
  "updatedAt": "2023-02-17T11:15:09.210Z",
  "networkType": "ethereum",
  "devdoc": {
    "kind": "dev",
    "methods": {
      "approve(address,uint256)": {
        "details": "See {IERC721-approve}."
      },
      "balanceOf(address)": {
        "details": "See {IERC721-balanceOf}."
      },
      "getApproved(uint256)": {
        "details": "See {IERC721-getApproved}."
      },
      "isApprovedForAll(address,address)": {
        "details": "See {IERC721-isApprovedForAll}."
      },
      "name()": {
        "details": "See {IERC721Metadata-name}."
      },
      "owner()": {
        "details": "Returns the address of the current owner."
      },
      "ownerOf(uint256)": {
        "details": "See {IERC721-ownerOf}."
      },
      "renounceOwnership()": {
        "details": "Leaves the contract without owner. It will not be possible to call `onlyOwner` functions anymore. Can only be called by the current owner. NOTE: Renouncing ownership will leave the contract without an owner, thereby removing any functionality that is only available to the owner."
      },
      "safeTransferFrom(address,address,uint256)": {
        "details": "See {IERC721-safeTransferFrom}."
      },
      "safeTransferFrom(address,address,uint256,bytes)": {
        "details": "See {IERC721-safeTransferFrom}."
      },
      "setApprovalForAll(address,bool)": {
        "details": "See {IERC721-setApprovalForAll}."
      },
      "symbol()": {
        "details": "See {IERC721Metadata-symbol}."
      },
      "tokenByIndex(uint256)": {
        "details": "See {IERC721Enumerable-tokenByIndex}."
      },
      "tokenOfOwnerByIndex(address,uint256)": {
        "details": "See {IERC721Enumerable-tokenOfOwnerByIndex}."
      },
      "totalSupply()": {
        "details": "See {IERC721Enumerable-totalSupply}."
      },
      "transferFrom(address,address,uint256)": {
        "details": "See {IERC721-transferFrom}."
      },
      "transferOwnership(address)": {
        "details": "Transfers ownership of the contract to a new account (`newOwner`). Can only be called by the current owner."
      }
    },
    "version": 1
  },
  "userdoc": {
    "kind": "user",
    "methods": {},
    "version": 1
  }
}