{
  "contractName": "Stacks",
  "abi": [
    {
      "inputs": [],
      "stateMutability": "nonpayable",
      "type": "constructor"
    },
    {
      "anonymous": false,
      "inputs": [
        {
          "indexed": true,
          "internalType": "address",
          "name": "owner",
          "type": "address"
        },
        {
          "indexed": true,
          "internalType": "address",
          "name": "approved",
          "type": "address"
        },
        {
          "indexed": true,
          "internalType": "uint256",
          "name": "tokenId",
          "type": "uint256"
        }
      ],
      "name": "Approval",
      "type": "event"
    },
    {
      "anonymous": false,
      "inputs": [
        {
          "indexed": true,
          "internalType": "address",
          "name": "owner",
          "type": "address"
        },
        {
          "indexed": true,
          "internalType": "address",
          "name": "operator",
          "type": "address"
        },
        {
          "indexed": false,
          "internalType": "bool",
          "name": "approved",
          "type": "bool"
        }
      ],
      "name": "ApprovalForAll",
      "type": "event"
    },
    {
      "anonymous": false,
      "inputs": [
        {
          "indexed": true,
          "internalType": "address",
          "name": "previousOwner",
          "type": "address"
        },
        {
          "indexed": true,
          "internalType": "address",
          "name": "newOwner",
          "type": "address"
        }
      ],
      "name": "OwnershipTransferred",
      "type": "event"
    },
    {
      "anonymous": false,
      "inputs": [
        {
          "indexed": true,
          "internalType": "address",
          "name": "from",
          "type": "address"
        },
        {
          "indexed": true,
          "internalType": "address",
          "name": "to",
          "type": "address"
        },
        {
          "indexed": true,
          "internalType": "uint256",
          "name": "tokenId",
          "type": "uint256"
        }
      ],
      "name": "Transfer",
      "type": "event"
    },
    {
      "inputs": [],
      "name": "PERCENT_DIVIDER",
      "outputs": [
        {
          "internalType": "uint256",
          "name": "",
          "type": "uint256"
        }
      ],
      "stateMutability": "view",
      "type": "function"
    },
    {
      "inputs": [],
      "name": "SALE_FEE",
      "outputs": [
        {
          "internalType": "uint256",
          "name": "",
          "type": "uint256"
        }
      ],
      "stateMutability": "view",
      "type": "function"
    },
    {
      "inputs": [
        {
          "internalType": "address",
          "name": "to",
          "type": "address"
        },
        {
          "internalType": "uint256",
          "name": "tokenId",
          "type": "uint256"
        }
      ],
      "name": "approve",
      "outputs": [],
      "stateMutability": "nonpayable",
      "type": "function"
    },
    {
      "inputs": [],
      "name": "auctionHouse",
      "outputs": [
        {
          "internalType": "address",
          "name": "",
          "type": "address"
        }
      ],
      "stateMutability": "view",
      "type": "function"
    },
    {
      "inputs": [
        {
          "internalType": "address",
          "name": "owner",
          "type": "address"
        }
      ],
      "name": "balanceOf",
      "outputs": [
        {
          "internalType": "uint256",
          "name": "",
          "type": "uint256"
        }
      ],
      "stateMutability": "view",
      "type": "function"
    },
    {
      "inputs": [
        {
          "internalType": "uint256",
          "name": "tokenId",
          "type": "uint256"
        }
      ],
      "name": "getApproved",
      "outputs": [
        {
          "internalType": "address",
          "name": "",
          "type": "address"
        }
      ],
      "stateMutability": "view",
      "type": "function"
    },
    {
      "inputs": [
        {
          "internalType": "address",
          "name": "owner",
          "type": "address"
        },
        {
          "internalType": "address",
          "name": "operator",
          "type": "address"
        }
      ],
      "name": "isApprovedForAll",
      "outputs": [
        {
          "internalType": "bool",
          "name": "",
          "type": "bool"
        }
      ],
      "stateMutability": "view",
      "type": "function"
    },
    {
      "inputs": [],
      "name": "maxSupply",
      "outputs": [
        {
          "internalType": "uint256",
          "name": "",
          "type": "uint256"
        }
      ],
      "stateMutability": "view",
      "type": "function"
    },
    {
      "inputs": [],
      "name": "mintOpen",
      "outputs": [
        {
          "internalType": "bool",
          "name": "",
          "type": "bool"
        }
      ],
      "stateMutability": "view",
      "type": "function"
    },
    {
      "inputs": [],
      "name": "name",
      "outputs": [
        {
          "internalType": "string",
          "name": "",
          "type": "string"
        }
      ],
      "stateMutability": "view",
      "type": "function"
    },
    {
      "inputs": [],
      "name": "owner",
      "outputs": [
        {
          "internalType": "address",
          "name": "",
          "type": "address"
        }
      ],
      "stateMutability": "view",
      "type": "function"
    },
    {
      "inputs": [
        {
          "internalType": "uint256",
          "name": "tokenId",
          "type": "uint256"
        }
      ],
      "name": "ownerOf",
      "outputs": [
        {
          "internalType": "address",
          "name": "",
          "type": "address"
        }
      ],
      "stateMutability": "view",
      "type": "function"
    },
    {
      "inputs": [],
      "name": "renounceOwnership",
      "outputs": [],
      "stateMutability": "nonpayable",
      "type": "function"
    },
    {
      "inputs": [
        {
          "internalType": "address",
          "name": "from",
          "type": "address"
        },
        {
          "internalType": "address",
          "name": "to",
          "type": "address"
        },
        {
          "internalType": "uint256",
          "name": "tokenId",
          "type": "uint256"
        }
      ],
      "name": "safeTransferFrom",
      "outputs": [],
      "stateMutability": "nonpayable",
      "type": "function"
    },
    {
      "inputs": [
        {
          "internalType": "address",
          "name": "from",
          "type": "address"
        },
        {
          "internalType": "address",
          "name": "to",
          "type": "address"
        },
        {
          "internalType": "uint256",
          "name": "tokenId",
          "type": "uint256"
        },
        {
          "internalType": "bytes",
          "name": "data",
          "type": "bytes"
        }
      ],
      "name": "safeTransferFrom",
      "outputs": [],
      "stateMutability": "nonpayable",
      "type": "function"
    },
    {
      "inputs": [
        {
          "internalType": "address",
          "name": "operator",
          "type": "address"
        },
        {
          "internalType": "bool",
          "name": "approved",
          "type": "bool"
        }
      ],
      "name": "setApprovalForAll",
      "outputs": [],
      "stateMutability": "nonpayable",
      "type": "function"
    },
    {
      "inputs": [],
      "name": "softCap",
      "outputs": [
        {
          "internalType": "uint256",
          "name": "",
          "type": "uint256"
        }
      ],
      "stateMutability": "view",
      "type": "function"
    },
    {
      "inputs": [],
      "name": "symbol",
      "outputs": [
        {
          "internalType": "string",
          "name": "",
          "type": "string"
        }
      ],
      "stateMutability": "view",
      "type": "function"
    },
    {
      "inputs": [],
      "name": "teamMinted",
      "outputs": [
        {
          "internalType": "uint256",
          "name": "",
          "type": "uint256"
        }
      ],
      "stateMutability": "view",
      "type": "function"
    },
    {
      "inputs": [
        {
          "internalType": "uint256",
          "name": "",
          "type": "uint256"
        }
      ],
      "name": "tokenMetaDataRecord",
      "outputs": [
        {
          "internalType": "bool",
          "name": "minted",
          "type": "bool"
        },
        {
          "internalType": "uint256",
          "name": "tokenId",
          "type": "uint256"
        },
        {
          "internalType": "uint256",
          "name": "timestamp",
          "type": "uint256"
        }
      ],
      "stateMutability": "view",
      "type": "function"
    },
    {
      "inputs": [
        {
          "internalType": "uint256",
          "name": "",
          "type": "uint256"
        }
      ],
      "name": "tokenMinter",
      "outputs": [
        {
          "internalType": "address",
          "name": "",
          "type": "address"
        }
      ],
      "stateMutability": "view",
      "type": "function"
    },
    {
      "inputs": [
        {
          "internalType": "uint256",
          "name": "tokenId",
          "type": "uint256"
        }
      ],
      "name": "tokenURI",
      "outputs": [
        {
          "internalType": "string",
          "name": "",
          "type": "string"
        }
      ],
      "stateMutability": "view",
      "type": "function"
    },
    {
      "inputs": [
        {
          "internalType": "address",
          "name": "from",
          "type": "address"
        },
        {
          "internalType": "address",
          "name": "to",
          "type": "address"
        },
        {
          "internalType": "uint256",
          "name": "tokenId",
          "type": "uint256"
        }
      ],
      "name": "transferFrom",
      "outputs": [],
      "stateMutability": "nonpayable",
      "type": "function"
    },
    {
      "inputs": [
        {
          "internalType": "address",
          "name": "newOwner",
          "type": "address"
        }
      ],
      "name": "transferOwnership",
      "outputs": [],
      "stateMutability": "nonpayable",
      "type": "function"
    },
    {
      "inputs": [
        {
          "internalType": "uint256",
          "name": "tokenId",
          "type": "uint256"
        }
      ],
      "name": "mint",
      "outputs": [],
      "stateMutability": "nonpayable",
      "type": "function"
    },
    {
      "inputs": [
        {
          "internalType": "uint256",
          "name": "tokenId",
          "type": "uint256"
        },
        {
          "internalType": "address",
          "name": "auctionWinner",
          "type": "address"
        }
      ],
      "name": "addAvailableForMint",
      "outputs": [],
      "stateMutability": "nonpayable",
      "type": "function"
    },
    {
      "inputs": [
        {
          "internalType": "uint256",
          "name": "tokenId",
          "type": "uint256"
        }
      ],
      "name": "prepTokenMetadata",
      "outputs": [],
      "stateMutability": "nonpayable",
      "type": "function"
    },
    {
      "inputs": [
        {
          "internalType": "address",
          "name": "_auctionHouse",
          "type": "address"
        }
      ],
      "name": "setAuctionHouse",
      "outputs": [],
      "stateMutability": "nonpayable",
      "type": "function"
    },
    {
      "inputs": [
        {
          "internalType": "bool",
          "name": "open",
          "type": "bool"
        }
      ],
      "name": "toggleMint",
      "outputs": [],
      "stateMutability": "nonpayable",
      "type": "function"
    },
    {
      "inputs": [
        {
          "internalType": "uint256",
          "name": "tokenId",
          "type": "uint256"
        },
        {
          "internalType": "address",
          "name": "teamMember",
          "type": "address"
        }
      ],
      "name": "teamMint",
      "outputs": [],
      "stateMutability": "nonpayable",
      "type": "function"
    },
    {
      "inputs": [
        {
          "internalType": "uint256",
          "name": "_SALE_FEE",
          "type": "uint256"
        }
      ],
      "name": "setRegularFee",
      "outputs": [],
      "stateMutability": "nonpayable",
      "type": "function"
    },
    {
      "inputs": [
        {
          "internalType": "bytes4",
          "name": "_interfaceId",
          "type": "bytes4"
        }
      ],
      "name": "supportsInterface",
      "outputs": [
        {
          "internalType": "bool",
          "name": "",
          "type": "bool"
        }
      ],
      "stateMutability": "view",
      "type": "function"
    },
    {
      "inputs": [
        {
          "internalType": "uint256",
          "name": "_tokenId",
          "type": "uint256"
        },
        {
          "internalType": "uint256",
          "name": "_salePrice",
          "type": "uint256"
        }
      ],
      "name": "royaltyInfo",
      "outputs": [
        {
          "internalType": "address",
          "name": "receiver",
          "type": "address"
        },
        {
          "internalType": "uint256",
          "name": "royaltyAmount",
          "type": "uint256"
        }
      ],
      "stateMutability": "view",
      "type": "function"
    }
  ],
  "bytecode": "0x60806040526103e8600955611388600d55610fa9600e556000600f553480156200002857600080fd5b506040518060400160405280600681526020017f537461636b7300000000000000000000000000000000000000000000000000008152506040518060400160405280600681526020017f535441434b5300000000000000000000000000000000000000000000000000008152508160009081620000a6919062000429565b508060019081620000b8919062000429565b505050620000db620000cf620000e160201b60201c565b620000e960201b60201c565b62000510565b600033905090565b6000600860009054906101000a900473ffffffffffffffffffffffffffffffffffffffff16905081600860006101000a81548173ffffffffffffffffffffffffffffffffffffffff021916908373ffffffffffffffffffffffffffffffffffffffff1602179055508173ffffffffffffffffffffffffffffffffffffffff168173ffffffffffffffffffffffffffffffffffffffff167f8be0079c531659141344cd1fd0a4f28419497f9722a3daafe3b4186f6b6457e060405160405180910390a35050565b600081519050919050565b7f4e487b7100000000000000000000000000000000000000000000000000000000600052604160045260246000fd5b7f4e487b7100000000000000000000000000000000000000000000000000000000600052602260045260246000fd5b600060028204905060018216806200023157607f821691505b602082108103620002475762000246620001e9565b5b50919050565b60008190508160005260206000209050919050565b60006020601f8301049050919050565b600082821b905092915050565b600060088302620002b17fffffffffffffffffffffffffffffffffffffffffffffffffffffffffffffffff8262000272565b620002bd868362000272565b95508019841693508086168417925050509392505050565b6000819050919050565b6000819050919050565b60006200030a62000304620002fe84620002d5565b620002df565b620002d5565b9050919050565b6000819050919050565b6200032683620002e9565b6200033e620003358262000311565b8484546200027f565b825550505050565b600090565b6200035562000346565b620003628184846200031b565b505050565b5b818110156200038a576200037e6000826200034b565b60018101905062000368565b5050565b601f821115620003d957620003a3816200024d565b620003ae8462000262565b81016020851015620003be578190505b620003d6620003cd8562000262565b83018262000367565b50505b505050565b600082821c905092915050565b6000620003fe60001984600802620003de565b1980831691505092915050565b6000620004198383620003eb565b9150826002028217905092915050565b6200043482620001af565b67ffffffffffffffff81111562000450576200044f620001ba565b5b6200045c825462000218565b620004698282856200038e565b600060209050601f831160018114620004a157600084156200048c578287015190505b6200049885826200040b565b86555062000508565b601f198416620004b1866200024d565b60005b82811015620004db57848901518255600182019150602085019450602081019050620004b4565b86831015620004fb5784890151620004f7601f891682620003eb565b8355505b6001600288020188555050505b505050505050565b6138f980620005206000396000f3fe608060405234801561001057600080fd5b50600436106101fb5760003560e01c80637c57d9471161011a578063bdce6c44116100ad578063e76d89521161007c578063e76d8952146105b1578063e8b5498d146105cd578063e985e9c5146105eb578063ed9152c81461061b578063f2fde38b14610639576101fb565b8063bdce6c4414610515578063bfa457bc14610547578063c87b56dd14610563578063d5abeb0114610593576101fb565b806395d89b41116100e957806395d89b41146104a3578063a0712d68146104c1578063a22cb465146104dd578063b88d4fde146104f9576101fb565b80637c57d9471461041b5780638a4dcd851461044b5780638da5cb5b14610467578063906a26e014610485576101fb565b806329fc7bd8116101925780636352211e116101615780636352211e1461039357806370a08231146103c3578063715018a6146103f3578063729eaa66146103fd576101fb565b806329fc7bd81461030c5780632a55205a1461032a5780632f2716301461035b57806342842e0e14610377576101fb565b806323b872dd116101ce57806323b872dd1461029a57806324bbd049146102b657806326e45ec5146102d457806329c4ba09146102f0576101fb565b806301ffc9a71461020057806306fdde0314610230578063081812fc1461024e578063095ea7b31461027e575b600080fd5b61021a600480360381019061021591906125ea565b610655565b6040516102279190612632565b60405180910390f35b6102386106bd565b60405161024591906126dd565b60405180910390f35b61026860048036038101906102639190612735565b61074f565b60405161027591906127a3565b60405180910390f35b610298600480360381019061029391906127ea565b610795565b005b6102b460048036038101906102af919061282a565b6108ac565b005b6102be61090c565b6040516102cb9190612632565b60405180910390f35b6102ee60048036038101906102e99190612735565b61091f565b005b61030a60048036038101906103059190612735565b610a1a565b005b610314610a2c565b604051610321919061288c565b60405180910390f35b610344600480360381019061033f91906128a7565b610a32565b6040516103529291906128e7565b60405180910390f35b61037560048036038101906103709190612910565b610a63565b005b610391600480360381019061038c919061282a565b610b49565b005b6103ad60048036038101906103a89190612735565b610b69565b6040516103ba91906127a3565b60405180910390f35b6103dd60048036038101906103d89190612950565b610bef565b6040516103ea919061288c565b60405180910390f35b6103fb610ca6565b005b610405610cba565b604051610412919061288c565b60405180910390f35b61043560048036038101906104309190612735565b610cc0565b60405161044291906127a3565b60405180910390f35b610465600480360381019061046091906129a9565b610cf3565b005b61046f610d18565b60405161047c91906127a3565b60405180910390f35b61048d610d42565b60405161049a919061288c565b60405180910390f35b6104ab610d48565b6040516104b891906126dd565b60405180910390f35b6104db60048036038101906104d69190612735565b610dda565b005b6104f760048036038101906104f291906129d6565b610fae565b005b610513600480360381019061050e9190612b4b565b610fc4565b005b61052f600480360381019061052a9190612735565b611026565b60405161053e93929190612bce565b60405180910390f35b610561600480360381019061055c9190612910565b61105d565b005b61057d60048036038101906105789190612735565b6111cd565b60405161058a91906126dd565b60405180910390f35b61059b611235565b6040516105a8919061288c565b60405180910390f35b6105cb60048036038101906105c69190612950565b61123b565b005b6105d5611287565b6040516105e2919061288c565b60405180910390f35b61060560048036038101906106009190612c05565b61128d565b6040516106129190612632565b60405180910390f35b610623611321565b60405161063091906127a3565b60405180910390f35b610653600480360381019061064e9190612950565b611347565b005b6000632a55205a60e01b7bffffffffffffffffffffffffffffffffffffffffffffffffffffffff1916827bffffffffffffffffffffffffffffffffffffffffffffffffffffffff1916036106ac57600190506106b8565b6106b5826113ca565b90505b919050565b6060600080546106cc90612c74565b80601f01602080910402602001604051908101604052809291908181526020018280546106f890612c74565b80156107455780601f1061071a57610100808354040283529160200191610745565b820191906000526020600020905b81548152906001019060200180831161072857829003601f168201915b5050505050905090565b600061075a82611444565b6004600083815260200190815260200160002060009054906101000a900473ffffffffffffffffffffffffffffffffffffffff169050919050565b60006107a082610b69565b90508073ffffffffffffffffffffffffffffffffffffffff168373ffffffffffffffffffffffffffffffffffffffff1603610810576040517f08c379a000000000000000000000000000000000000000000000000000000000815260040161080790612d17565b60405180910390fd5b8073ffffffffffffffffffffffffffffffffffffffff1661082f61148f565b73ffffffffffffffffffffffffffffffffffffffff16148061085e575061085d8161085861148f565b61128d565b5b61089d576040517f08c379a000000000000000000000000000000000000000000000000000000000815260040161089490612da9565b60405180910390fd5b6108a78383611497565b505050565b6108bd6108b761148f565b82611550565b6108fc576040517f08c379a00000000000000000000000000000000000000000000000000000000081526004016108f390612e3b565b60405180910390fd5b6109078383836115e5565b505050565b600c60149054906101000a900460ff1681565b600c60009054906101000a900473ffffffffffffffffffffffffffffffffffffffff1673ffffffffffffffffffffffffffffffffffffffff163373ffffffffffffffffffffffffffffffffffffffff16146109af576040517f08c379a00000000000000000000000000000000000000000000000000000000081526004016109a690612ea7565b60405180910390fd5b604051806060016040528060001515815260200182815260200142815250600b600083815260200190815260200160002060008201518160000160006101000a81548160ff021916908315150217905550602082015181600101556040820151816002015590505050565b610a226118de565b8060098190555050565b61271081565b600080610a3d610d18565b61271060095485610a4e9190612ef6565b610a589190612f67565b915091509250929050565b600c60009054906101000a900473ffffffffffffffffffffffffffffffffffffffff1673ffffffffffffffffffffffffffffffffffffffff163373ffffffffffffffffffffffffffffffffffffffff1614610af3576040517f08c379a0000000000000000000000000000000000000000000000000000000008152600401610aea90612ea7565b60405180910390fd5b80600a600084815260200190815260200160002060006101000a81548173ffffffffffffffffffffffffffffffffffffffff021916908373ffffffffffffffffffffffffffffffffffffffff1602179055505050565b610b6483838360405180602001604052806000815250610fc4565b505050565b600080610b758361195c565b9050600073ffffffffffffffffffffffffffffffffffffffff168173ffffffffffffffffffffffffffffffffffffffff1603610be6576040517f08c379a0000000000000000000000000000000000000000000000000000000008152600401610bdd90612fe4565b60405180910390fd5b80915050919050565b60008073ffffffffffffffffffffffffffffffffffffffff168273ffffffffffffffffffffffffffffffffffffffff1603610c5f576040517f08c379a0000000000000000000000000000000000000000000000000000000008152600401610c5690613076565b60405180910390fd5b600360008373ffffffffffffffffffffffffffffffffffffffff1673ffffffffffffffffffffffffffffffffffffffff168152602001908152602001600020549050919050565b610cae6118de565b610cb86000611999565b565b60095481565b600a6020528060005260406000206000915054906101000a900473ffffffffffffffffffffffffffffffffffffffff1681565b610cfb6118de565b80600c60146101000a81548160ff02191690831515021790555050565b6000600860009054906101000a900473ffffffffffffffffffffffffffffffffffffffff16905090565b600e5481565b606060018054610d5790612c74565b80601f0160208091040260200160405190810160405280929190818152602001828054610d8390612c74565b8015610dd05780601f10610da557610100808354040283529160200191610dd0565b820191906000526020600020905b815481529060010190602001808311610db357829003601f168201915b5050505050905090565b600c60149054906101000a900460ff16610e29576040517f08c379a0000000000000000000000000000000000000000000000000000000008152600401610e20906130e2565b60405180910390fd5b600d548110610e6d576040517f08c379a0000000000000000000000000000000000000000000000000000000008152600401610e649061314e565b60405180910390fd5b3373ffffffffffffffffffffffffffffffffffffffff16600a600083815260200190815260200160002060009054906101000a900473ffffffffffffffffffffffffffffffffffffffff1673ffffffffffffffffffffffffffffffffffffffff1614610f0e576040517f08c379a0000000000000000000000000000000000000000000000000000000008152600401610f05906131e0565b60405180910390fd5b600b600082815260200190815260200160002060000160009054906101000a900460ff1615610f72576040517f08c379a0000000000000000000000000000000000000000000000000000000008152600401610f699061324c565b60405180910390fd5b610f7c3382611a5f565b6001600b600083815260200190815260200160002060000160006101000a81548160ff02191690831515021790555050565b610fc0610fb961148f565b8383611a7d565b5050565b610fd5610fcf61148f565b83611550565b611014576040517f08c379a000000000000000000000000000000000000000000000000000000000815260040161100b90612e3b565b60405180910390fd5b61102084848484611be9565b50505050565b600b6020528060005260406000206000915090508060000160009054906101000a900460ff16908060010154908060020154905083565b6110656118de565b600e5482116110a9576040517f08c379a00000000000000000000000000000000000000000000000000000000081526004016110a0906132b8565b60405180910390fd5b600d5482106110ed576040517f08c379a00000000000000000000000000000000000000000000000000000000081526004016110e49061314e565b60405180910390fd5b80600a600084815260200190815260200160002060006101000a81548173ffffffffffffffffffffffffffffffffffffffff021916908373ffffffffffffffffffffffffffffffffffffffff160217905550604051806060016040528060011515815260200183815260200142815250600b600084815260200190815260200160002060008201518160000160006101000a81548160ff02191690831515021790555060208201518160010155604082015181600201559050506111b13383611a5f565b600f60008154809291906111c4906132d8565b91905055505050565b60606111d882611444565b60006111e2611c45565b90506000815111611202576040518060200160405280600081525061122d565b8061120c84611c82565b60405160200161121d92919061335c565b6040516020818303038152906040525b915050919050565b600d5481565b6112436118de565b80600c60006101000a81548173ffffffffffffffffffffffffffffffffffffffff021916908373ffffffffffffffffffffffffffffffffffffffff16021790555050565b600f5481565b6000600560008473ffffffffffffffffffffffffffffffffffffffff1673ffffffffffffffffffffffffffffffffffffffff16815260200190815260200160002060008373ffffffffffffffffffffffffffffffffffffffff1673ffffffffffffffffffffffffffffffffffffffff16815260200190815260200160002060009054906101000a900460ff16905092915050565b600c60009054906101000a900473ffffffffffffffffffffffffffffffffffffffff1681565b61134f6118de565b600073ffffffffffffffffffffffffffffffffffffffff168173ffffffffffffffffffffffffffffffffffffffff16036113be576040517f08c379a00000000000000000000000000000000000000000000000000000000081526004016113b5906133f2565b60405180910390fd5b6113c781611999565b50565b60007f2a55205a000000000000000000000000000000000000000000000000000000007bffffffffffffffffffffffffffffffffffffffffffffffffffffffff1916827bffffffffffffffffffffffffffffffffffffffffffffffffffffffff1916148061143d575061143c82611d50565b5b9050919050565b61144d81611e32565b61148c576040517f08c379a000000000000000000000000000000000000000000000000000000000815260040161148390612fe4565b60405180910390fd5b50565b600033905090565b816004600083815260200190815260200160002060006101000a81548173ffffffffffffffffffffffffffffffffffffffff021916908373ffffffffffffffffffffffffffffffffffffffff160217905550808273ffffffffffffffffffffffffffffffffffffffff1661150a83610b69565b73ffffffffffffffffffffffffffffffffffffffff167f8c5be1e5ebec7d5bd14f71427d1e84f3dd0314c0f7b2291e5b200ac8c7c3b92560405160405180910390a45050565b60008061155c83610b69565b90508073ffffffffffffffffffffffffffffffffffffffff168473ffffffffffffffffffffffffffffffffffffffff16148061159e575061159d818561128d565b5b806115dc57508373ffffffffffffffffffffffffffffffffffffffff166115c48461074f565b73ffffffffffffffffffffffffffffffffffffffff16145b91505092915050565b8273ffffffffffffffffffffffffffffffffffffffff1661160582610b69565b73ffffffffffffffffffffffffffffffffffffffff161461165b576040517f08c379a000000000000000000000000000000000000000000000000000000000815260040161165290613484565b60405180910390fd5b600073ffffffffffffffffffffffffffffffffffffffff168273ffffffffffffffffffffffffffffffffffffffff16036116ca576040517f08c379a00000000000000000000000000000000000000000000000000000000081526004016116c190613516565b60405180910390fd5b6116d78383836001611e73565b8273ffffffffffffffffffffffffffffffffffffffff166116f782610b69565b73ffffffffffffffffffffffffffffffffffffffff161461174d576040517f08c379a000000000000000000000000000000000000000000000000000000000815260040161174490613484565b60405180910390fd5b6004600082815260200190815260200160002060006101000a81549073ffffffffffffffffffffffffffffffffffffffff02191690556001600360008573ffffffffffffffffffffffffffffffffffffffff1673ffffffffffffffffffffffffffffffffffffffff168152602001908152602001600020600082825403925050819055506001600360008473ffffffffffffffffffffffffffffffffffffffff1673ffffffffffffffffffffffffffffffffffffffff16815260200190815260200160002060008282540192505081905550816002600083815260200190815260200160002060006101000a81548173ffffffffffffffffffffffffffffffffffffffff021916908373ffffffffffffffffffffffffffffffffffffffff160217905550808273ffffffffffffffffffffffffffffffffffffffff168473ffffffffffffffffffffffffffffffffffffffff167fddf252ad1be2c89b69c2b068fc378daa952ba7f163c4a11628f55a4df523b3ef60405160405180910390a46118d98383836001611f99565b505050565b6118e661148f565b73ffffffffffffffffffffffffffffffffffffffff16611904610d18565b73ffffffffffffffffffffffffffffffffffffffff161461195a576040517f08c379a000000000000000000000000000000000000000000000000000000000815260040161195190613582565b60405180910390fd5b565b60006002600083815260200190815260200160002060009054906101000a900473ffffffffffffffffffffffffffffffffffffffff169050919050565b6000600860009054906101000a900473ffffffffffffffffffffffffffffffffffffffff16905081600860006101000a81548173ffffffffffffffffffffffffffffffffffffffff021916908373ffffffffffffffffffffffffffffffffffffffff1602179055508173ffffffffffffffffffffffffffffffffffffffff168173ffffffffffffffffffffffffffffffffffffffff167f8be0079c531659141344cd1fd0a4f28419497f9722a3daafe3b4186f6b6457e060405160405180910390a35050565b611a79828260405180602001604052806000815250611f9f565b5050565b8173ffffffffffffffffffffffffffffffffffffffff168373ffffffffffffffffffffffffffffffffffffffff1603611aeb576040517f08c379a0000000000000000000000000000000000000000000000000000000008152600401611ae2906135ee565b60405180910390fd5b80600560008573ffffffffffffffffffffffffffffffffffffffff1673ffffffffffffffffffffffffffffffffffffffff16815260200190815260200160002060008473ffffffffffffffffffffffffffffffffffffffff1673ffffffffffffffffffffffffffffffffffffffff16815260200190815260200160002060006101000a81548160ff0219169083151502179055508173ffffffffffffffffffffffffffffffffffffffff168373ffffffffffffffffffffffffffffffffffffffff167f17307eab39ab6107e8899845ad3d59bd9653f200f220920489ca2b5937696c3183604051611bdc9190612632565b60405180910390a3505050565b611bf48484846115e5565b611c0084848484611ffa565b611c3f576040517f08c379a0000000000000000000000000000000000000000000000000000000008152600401611c3690613680565b60405180910390fd5b50505050565b60606040518060400160405280601081526020017f697066733a2f2f737461636b732e2e2e00000000000000000000000000000000815250905090565b606060006001611c9184612181565b01905060008167ffffffffffffffff811115611cb057611caf612a20565b5b6040519080825280601f01601f191660200182016040528015611ce25781602001600182028036833780820191505090505b509050600082602001820190505b600115611d45578080600190039150507f3031323334353637383961626364656600000000000000000000000000000000600a86061a8153600a8581611d3957611d38612f38565b5b04945060008503611cf0575b819350505050919050565b60007f80ac58cd000000000000000000000000000000000000000000000000000000007bffffffffffffffffffffffffffffffffffffffffffffffffffffffff1916827bffffffffffffffffffffffffffffffffffffffffffffffffffffffff19161480611e1b57507f5b5e139f000000000000000000000000000000000000000000000000000000007bffffffffffffffffffffffffffffffffffffffffffffffffffffffff1916827bffffffffffffffffffffffffffffffffffffffffffffffffffffffff1916145b80611e2b5750611e2a826122d4565b5b9050919050565b60008073ffffffffffffffffffffffffffffffffffffffff16611e548361195c565b73ffffffffffffffffffffffffffffffffffffffff1614159050919050565b6001811115611f9357600073ffffffffffffffffffffffffffffffffffffffff168473ffffffffffffffffffffffffffffffffffffffff1614611f075780600360008673ffffffffffffffffffffffffffffffffffffffff1673ffffffffffffffffffffffffffffffffffffffff1681526020019081526020016000206000828254611eff91906136a0565b925050819055505b600073ffffffffffffffffffffffffffffffffffffffff168373ffffffffffffffffffffffffffffffffffffffff1614611f925780600360008573ffffffffffffffffffffffffffffffffffffffff1673ffffffffffffffffffffffffffffffffffffffff1681526020019081526020016000206000828254611f8a91906136d4565b925050819055505b5b50505050565b50505050565b611fa9838361233e565b611fb66000848484611ffa565b611ff5576040517f08c379a0000000000000000000000000000000000000000000000000000000008152600401611fec90613680565b60405180910390fd5b505050565b600061201b8473ffffffffffffffffffffffffffffffffffffffff1661255b565b15612174578373ffffffffffffffffffffffffffffffffffffffff1663150b7a0261204461148f565b8786866040518563ffffffff1660e01b8152600401612066949392919061375d565b6020604051808303816000875af19250505080156120a257506040513d601f19601f8201168201806040525081019061209f91906137be565b60015b612124573d80600081146120d2576040519150601f19603f3d011682016040523d82523d6000602084013e6120d7565b606091505b50600081510361211c576040517f08c379a000000000000000000000000000000000000000000000000000000000815260040161211390613680565b60405180910390fd5b805181602001fd5b63150b7a0260e01b7bffffffffffffffffffffffffffffffffffffffffffffffffffffffff1916817bffffffffffffffffffffffffffffffffffffffffffffffffffffffff191614915050612179565b600190505b949350505050565b600080600090507a184f03e93ff9f4daa797ed6e38ed64bf6a1f01000000000000000083106121df577a184f03e93ff9f4daa797ed6e38ed64bf6a1f01000000000000000083816121d5576121d4612f38565b5b0492506040810190505b6d04ee2d6d415b85acef8100000000831061221c576d04ee2d6d415b85acef8100000000838161221257612211612f38565b5b0492506020810190505b662386f26fc10000831061224b57662386f26fc10000838161224157612240612f38565b5b0492506010810190505b6305f5e1008310612274576305f5e100838161226a57612269612f38565b5b0492506008810190505b612710831061229957612710838161228f5761228e612f38565b5b0492506004810190505b606483106122bc57606483816122b2576122b1612f38565b5b0492506002810190505b600a83106122cb576001810190505b80915050919050565b60007f01ffc9a7000000000000000000000000000000000000000000000000000000007bffffffffffffffffffffffffffffffffffffffffffffffffffffffff1916827bffffffffffffffffffffffffffffffffffffffffffffffffffffffff1916149050919050565b600073ffffffffffffffffffffffffffffffffffffffff168273ffffffffffffffffffffffffffffffffffffffff16036123ad576040517f08c379a00000000000000000000000000000000000000000000000000000000081526004016123a490613837565b60405180910390fd5b6123b681611e32565b156123f6576040517f08c379a00000000000000000000000000000000000000000000000000000000081526004016123ed906138a3565b60405180910390fd5b612404600083836001611e73565b61240d81611e32565b1561244d576040517f08c379a0000000000000000000000000000000000000000000000000000000008152600401612444906138a3565b60405180910390fd5b6001600360008473ffffffffffffffffffffffffffffffffffffffff1673ffffffffffffffffffffffffffffffffffffffff16815260200190815260200160002060008282540192505081905550816002600083815260200190815260200160002060006101000a81548173ffffffffffffffffffffffffffffffffffffffff021916908373ffffffffffffffffffffffffffffffffffffffff160217905550808273ffffffffffffffffffffffffffffffffffffffff16600073ffffffffffffffffffffffffffffffffffffffff167fddf252ad1be2c89b69c2b068fc378daa952ba7f163c4a11628f55a4df523b3ef60405160405180910390a4612557600083836001611f99565b5050565b6000808273ffffffffffffffffffffffffffffffffffffffff163b119050919050565b6000604051905090565b600080fd5b600080fd5b60007fffffffff0000000000000000000000000000000000000000000000000000000082169050919050565b6125c781612592565b81146125d257600080fd5b50565b6000813590506125e4816125be565b92915050565b600060208284031215612600576125ff612588565b5b600061260e848285016125d5565b91505092915050565b60008115159050919050565b61262c81612617565b82525050565b60006020820190506126476000830184612623565b92915050565b600081519050919050565b600082825260208201905092915050565b60005b8381101561268757808201518184015260208101905061266c565b60008484015250505050565b6000601f19601f8301169050919050565b60006126af8261264d565b6126b98185612658565b93506126c9818560208601612669565b6126d281612693565b840191505092915050565b600060208201905081810360008301526126f781846126a4565b905092915050565b6000819050919050565b612712816126ff565b811461271d57600080fd5b50565b60008135905061272f81612709565b92915050565b60006020828403121561274b5761274a612588565b5b600061275984828501612720565b91505092915050565b600073ffffffffffffffffffffffffffffffffffffffff82169050919050565b600061278d82612762565b9050919050565b61279d81612782565b82525050565b60006020820190506127b86000830184612794565b92915050565b6127c781612782565b81146127d257600080fd5b50565b6000813590506127e4816127be565b92915050565b6000806040838503121561280157612800612588565b5b600061280f858286016127d5565b925050602061282085828601612720565b9150509250929050565b60008060006060848603121561284357612842612588565b5b6000612851868287016127d5565b9350506020612862868287016127d5565b925050604061287386828701612720565b9150509250925092565b612886816126ff565b82525050565b60006020820190506128a1600083018461287d565b92915050565b600080604083850312156128be576128bd612588565b5b60006128cc85828601612720565b92505060206128dd85828601612720565b9150509250929050565b60006040820190506128fc6000830185612794565b612909602083018461287d565b9392505050565b6000806040838503121561292757612926612588565b5b600061293585828601612720565b9250506020612946858286016127d5565b9150509250929050565b60006020828403121561296657612965612588565b5b6000612974848285016127d5565b91505092915050565b61298681612617565b811461299157600080fd5b50565b6000813590506129a38161297d565b92915050565b6000602082840312156129bf576129be612588565b5b60006129cd84828501612994565b91505092915050565b600080604083850312156129ed576129ec612588565b5b60006129fb858286016127d5565b9250506020612a0c85828601612994565b9150509250929050565b600080fd5b600080fd5b7f4e487b7100000000000000000000000000000000000000000000000000000000600052604160045260246000fd5b612a5882612693565b810181811067ffffffffffffffff82111715612a7757612a76612a20565b5b80604052505050565b6000612a8a61257e565b9050612a968282612a4f565b919050565b600067ffffffffffffffff821115612ab657612ab5612a20565b5b612abf82612693565b9050602081019050919050565b82818337600083830152505050565b6000612aee612ae984612a9b565b612a80565b905082815260208101848484011115612b0a57612b09612a1b565b5b612b15848285612acc565b509392505050565b600082601f830112612b3257612b31612a16565b5b8135612b42848260208601612adb565b91505092915050565b60008060008060808587031215612b6557612b64612588565b5b6000612b73878288016127d5565b9450506020612b84878288016127d5565b9350506040612b9587828801612720565b925050606085013567ffffffffffffffff811115612bb657612bb561258d565b5b612bc287828801612b1d565b91505092959194509250565b6000606082019050612be36000830186612623565b612bf0602083018561287d565b612bfd604083018461287d565b949350505050565b60008060408385031215612c1c57612c1b612588565b5b6000612c2a858286016127d5565b9250506020612c3b858286016127d5565b9150509250929050565b7f4e487b7100000000000000000000000000000000000000000000000000000000600052602260045260246000fd5b60006002820490506001821680612c8c57607f821691505b602082108103612c9f57612c9e612c45565b5b50919050565b7f4552433732313a20617070726f76616c20746f2063757272656e74206f776e6560008201527f7200000000000000000000000000000000000000000000000000000000000000602082015250565b6000612d01602183612658565b9150612d0c82612ca5565b604082019050919050565b60006020820190508181036000830152612d3081612cf4565b9050919050565b7f4552433732313a20617070726f76652063616c6c6572206973206e6f7420746f60008201527f6b656e206f776e6572206f7220617070726f76656420666f7220616c6c000000602082015250565b6000612d93603d83612658565b9150612d9e82612d37565b604082019050919050565b60006020820190508181036000830152612dc281612d86565b9050919050565b7f4552433732313a2063616c6c6572206973206e6f7420746f6b656e206f776e6560008201527f72206f7220617070726f76656400000000000000000000000000000000000000602082015250565b6000612e25602d83612658565b9150612e3082612dc9565b604082019050919050565b60006020820190508181036000830152612e5481612e18565b9050919050565b7f596f7520617265206e6f74207468652061756374696f6e20686f757365000000600082015250565b6000612e91601d83612658565b9150612e9c82612e5b565b602082019050919050565b60006020820190508181036000830152612ec081612e84565b9050919050565b7f4e487b7100000000000000000000000000000000000000000000000000000000600052601160045260246000fd5b6000612f01826126ff565b9150612f0c836126ff565b9250828202612f1a816126ff565b91508282048414831517612f3157612f30612ec7565b5b5092915050565b7f4e487b7100000000000000000000000000000000000000000000000000000000600052601260045260246000fd5b6000612f72826126ff565b9150612f7d836126ff565b925082612f8d57612f8c612f38565b5b828204905092915050565b7f4552433732313a20696e76616c696420746f6b656e2049440000000000000000600082015250565b6000612fce601883612658565b9150612fd982612f98565b602082019050919050565b60006020820190508181036000830152612ffd81612fc1565b9050919050565b7f4552433732313a2061646472657373207a65726f206973206e6f74206120766160008201527f6c6964206f776e65720000000000000000000000000000000000000000000000602082015250565b6000613060602983612658565b915061306b82613004565b604082019050919050565b6000602082019050818103600083015261308f81613053565b9050919050565b7f4d696e74696e67206973206e6f74206f70656e00000000000000000000000000600082015250565b60006130cc601383612658565b91506130d782613096565b602082019050919050565b600060208201905081810360008301526130fb816130bf565b9050919050565b7f546f6b656e20494420697320746f6f2068696768000000000000000000000000600082015250565b6000613138601483612658565b915061314382613102565b602082019050919050565b600060208201905081810360008301526131678161312b565b9050919050565b7f596f7520617265206e6f7420616c6c6f77656420746f206d696e74207468697360008201527f20746f6b656e0000000000000000000000000000000000000000000000000000602082015250565b60006131ca602683612658565b91506131d58261316e565b604082019050919050565b600060208201905081810360008301526131f9816131bd565b9050919050565b7f546f6b656e2068617320616c7265616479206265656e206d696e746564000000600082015250565b6000613236601d83612658565b915061324182613200565b602082019050919050565b6000602082019050818103600083015261326581613229565b9050919050565b7f546f6b656e20494420746f6f206c6f7700000000000000000000000000000000600082015250565b60006132a2601083612658565b91506132ad8261326c565b602082019050919050565b600060208201905081810360008301526132d181613295565b9050919050565b60006132e3826126ff565b91507fffffffffffffffffffffffffffffffffffffffffffffffffffffffffffffffff820361331557613314612ec7565b5b600182019050919050565b600081905092915050565b60006133368261264d565b6133408185613320565b9350613350818560208601612669565b80840191505092915050565b6000613368828561332b565b9150613374828461332b565b91508190509392505050565b7f4f776e61626c653a206e6577206f776e657220697320746865207a65726f206160008201527f6464726573730000000000000000000000000000000000000000000000000000602082015250565b60006133dc602683612658565b91506133e782613380565b604082019050919050565b6000602082019050818103600083015261340b816133cf565b9050919050565b7f4552433732313a207472616e736665722066726f6d20696e636f72726563742060008201527f6f776e6572000000000000000000000000000000000000000000000000000000602082015250565b600061346e602583612658565b915061347982613412565b604082019050919050565b6000602082019050818103600083015261349d81613461565b9050919050565b7f4552433732313a207472616e7366657220746f20746865207a65726f2061646460008201527f7265737300000000000000000000000000000000000000000000000000000000602082015250565b6000613500602483612658565b915061350b826134a4565b604082019050919050565b6000602082019050818103600083015261352f816134f3565b9050919050565b7f4f776e61626c653a2063616c6c6572206973206e6f7420746865206f776e6572600082015250565b600061356c602083612658565b915061357782613536565b602082019050919050565b6000602082019050818103600083015261359b8161355f565b9050919050565b7f4552433732313a20617070726f766520746f2063616c6c657200000000000000600082015250565b60006135d8601983612658565b91506135e3826135a2565b602082019050919050565b60006020820190508181036000830152613607816135cb565b9050919050565b7f4552433732313a207472616e7366657220746f206e6f6e20455243373231526560008201527f63656976657220696d706c656d656e7465720000000000000000000000000000602082015250565b600061366a603283612658565b91506136758261360e565b604082019050919050565b600060208201905081810360008301526136998161365d565b9050919050565b60006136ab826126ff565b91506136b6836126ff565b92508282039050818111156136ce576136cd612ec7565b5b92915050565b60006136df826126ff565b91506136ea836126ff565b925082820190508082111561370257613701612ec7565b5b92915050565b600081519050919050565b600082825260208201905092915050565b600061372f82613708565b6137398185613713565b9350613749818560208601612669565b61375281612693565b840191505092915050565b60006080820190506137726000830187612794565b61377f6020830186612794565b61378c604083018561287d565b818103606083015261379e8184613724565b905095945050505050565b6000815190506137b8816125be565b92915050565b6000602082840312156137d4576137d3612588565b5b60006137e2848285016137a9565b91505092915050565b7f4552433732313a206d696e7420746f20746865207a65726f2061646472657373600082015250565b6000613821602083612658565b915061382c826137eb565b602082019050919050565b6000602082019050818103600083015261385081613814565b9050919050565b7f4552433732313a20746f6b656e20616c7265616479206d696e74656400000000600082015250565b600061388d601c83612658565b915061389882613857565b602082019050919050565b600060208201905081810360008301526138bc81613880565b905091905056fea264697066735822122008eb3f64dcff6015d99425827217faf168edd3a2c99eae7ee94f7217331aff3e64736f6c63430008110033",
  "immutableReferences": {},
  "source": "// SPDX-License-Identifier: MIT\npragma solidity >=0.4.22 <0.9.0;\n\nimport \"@openzeppelin/contracts/access/Ownable.sol\";\nimport \"@openzeppelin/contracts/token/ERC721/ERC721.sol\";\nimport \"@openzeppelin/contracts/token/common/ERC2981.sol\";\n\ncontract Stacks is ERC721, ERC2981, Ownable {\n  bytes4 private constant _INTERFACE_ID_ERC2981 = 0x2a55205a;\n\n  uint public constant PERCENT_DIVIDER = 10000;\n  uint public SALE_FEE = 1000;\n\n  mapping(uint => address) public tokenMinter;\n  mapping(uint => tokenMetaData) public tokenMetaDataRecord;\n\n  address public auctionHouse;\n  bool public mintOpen;\n  uint public maxSupply = 5000; // Immutable\n  uint public softCap = 4009;\n  uint public teamMinted = 0;\n\n  struct tokenMetaData {\n    bool minted;\n    uint tokenId;\n    uint timestamp;\n  }\n\n  constructor() ERC721(\"Stacks\", \"STACKS\") {}\n\n  function mint(uint tokenId) public {\n    require(mintOpen, \"Minting is not open\");\n    require(tokenId < maxSupply, \"Token ID is too high\");\n    require(tokenMinter[tokenId] == msg.sender, \"You are not allowed to mint this token\");\n    require(!tokenMetaDataRecord[tokenId].minted, \"Token has already been minted\");\n\n    _safeMint(msg.sender, tokenId);\n    tokenMetaDataRecord[tokenId].minted = true;\n  }\n\n  // Set who can mint the token with tokenId\n  function addAvailableForMint(uint tokenId, address auctionWinner) public {\n    require(msg.sender == auctionHouse, \"You are not the auction house\");\n    tokenMinter[tokenId] = auctionWinner;\n  }\n\n  // Runs before the auction so the auction house can set the metadata\n  function prepTokenMetadata(uint tokenId) public {\n    require(msg.sender == auctionHouse, \"You are not the auction house\");\n    tokenMetaDataRecord[tokenId] = tokenMetaData({\n      minted: false,\n      tokenId: tokenId,\n      timestamp: block.timestamp\n    });\n  }\n\n  // Admin functions\n  function setAuctionHouse(address _auctionHouse) public onlyOwner {\n    auctionHouse = _auctionHouse;\n  }\n\n  function toggleMint(bool open) public onlyOwner {\n    mintOpen = open;\n  }\n\n  // Mint token to offer new team members\n  function teamMint(uint tokenId, address teamMember) public onlyOwner {\n    // tokenId for team must be between 4009 and 5000\n    require(tokenId > softCap, \"Token ID too low\");\n    require(tokenId < maxSupply, \"Token ID is too high\");\n    // addAvailableForMint\n    tokenMinter[tokenId] = teamMember;\n    // prepTokenMetadata\n    tokenMetaDataRecord[tokenId] = tokenMetaData({\n      minted: true,\n      tokenId: tokenId,\n      timestamp: block.timestamp\n    });\n    // mint\n    _safeMint(msg.sender, tokenId);\n    teamMinted++;\n  }\n\n  function setRegularFee(uint _SALE_FEE) public onlyOwner {\n    SALE_FEE = _SALE_FEE;\n  }\n\n  function supportsInterface(bytes4 _interfaceId) public view virtual override(ERC721, ERC2981) returns (bool) {\n    if (_interfaceId == _INTERFACE_ID_ERC2981) {\n      return true;\n    }\n    return super.supportsInterface(_interfaceId);\n  }\n\n  // Overwrite BaseURI\n  function _baseURI() override view internal returns (string memory) {\n    return \"ipfs://stacks...\";\n  }\n\n  function royaltyInfo(uint256 _tokenId, uint256 _salePrice) override view public returns (address receiver, uint256 royaltyAmount){\n    return (owner(), _salePrice * SALE_FEE / PERCENT_DIVIDER);\n  }\n}\n",
  "sourcePath": "/Users/bruno/dev/crypto/stacks/contracts/stacks.sol",
  "compiler": {
    "name": "solc",
    "version": "0.8.17+commit.8df45f5f.Emscripten.clang"
  },
  "schemaVersion": "3.4.10",
  "updatedAt": "2023-01-01T19:49:03.556Z",
  "devdoc": {
    "kind": "dev",
    "methods": {
      "approve(address,uint256)": {
        "details": "See {IERC721-approve}."
      },
      "balanceOf(address)": {
        "details": "See {IERC721-balanceOf}."
      },
      "getApproved(uint256)": {
        "details": "See {IERC721-getApproved}."
      },
      "isApprovedForAll(address,address)": {
        "details": "See {IERC721-isApprovedForAll}."
      },
      "name()": {
        "details": "See {IERC721Metadata-name}."
      },
      "owner()": {
        "details": "Returns the address of the current owner."
      },
      "ownerOf(uint256)": {
        "details": "See {IERC721-ownerOf}."
      },
      "renounceOwnership()": {
        "details": "Leaves the contract without owner. It will not be possible to call `onlyOwner` functions anymore. Can only be called by the current owner. NOTE: Renouncing ownership will leave the contract without an owner, thereby removing any functionality that is only available to the owner."
      },
      "royaltyInfo(uint256,uint256)": {
        "details": "Returns how much royalty is owed and to whom, based on a sale price that may be denominated in any unit of exchange. The royalty amount is denominated and should be paid in that same unit of exchange."
      },
      "safeTransferFrom(address,address,uint256)": {
        "details": "See {IERC721-safeTransferFrom}."
      },
      "safeTransferFrom(address,address,uint256,bytes)": {
        "details": "See {IERC721-safeTransferFrom}."
      },
      "setApprovalForAll(address,bool)": {
        "details": "See {IERC721-setApprovalForAll}."
      },
      "symbol()": {
        "details": "See {IERC721Metadata-symbol}."
      },
      "tokenURI(uint256)": {
        "details": "See {IERC721Metadata-tokenURI}."
      },
      "transferFrom(address,address,uint256)": {
        "details": "See {IERC721-transferFrom}."
      },
      "transferOwnership(address)": {
        "details": "Transfers ownership of the contract to a new account (`newOwner`). Can only be called by the current owner."
      }
    },
    "version": 1
  },
  "userdoc": {
    "kind": "user",
    "methods": {},
    "version": 1
  }
}