{
  "contractName": "StacksAuctionHouse",
  "abi": [
    {
      "inputs": [
        {
          "internalType": "address payable",
          "name": "_treasuryAddress",
          "type": "address"
        }
      ],
      "stateMutability": "nonpayable",
      "type": "constructor"
    },
    {
      "anonymous": false,
      "inputs": [
        {
          "indexed": true,
          "internalType": "address",
          "name": "owner",
          "type": "address"
        },
        {
          "indexed": true,
          "internalType": "address",
          "name": "approved",
          "type": "address"
        },
        {
          "indexed": true,
          "internalType": "uint256",
          "name": "tokenId",
          "type": "uint256"
        }
      ],
      "name": "Approval",
      "type": "event"
    },
    {
      "anonymous": false,
      "inputs": [
        {
          "indexed": true,
          "internalType": "address",
          "name": "owner",
          "type": "address"
        },
        {
          "indexed": true,
          "internalType": "address",
          "name": "operator",
          "type": "address"
        },
        {
          "indexed": false,
          "internalType": "bool",
          "name": "approved",
          "type": "bool"
        }
      ],
      "name": "ApprovalForAll",
      "type": "event"
    },
    {
      "anonymous": false,
      "inputs": [
        {
          "indexed": true,
          "internalType": "address",
          "name": "previousOwner",
          "type": "address"
        },
        {
          "indexed": true,
          "internalType": "address",
          "name": "newOwner",
          "type": "address"
        }
      ],
      "name": "OwnershipTransferred",
      "type": "event"
    },
    {
      "anonymous": false,
      "inputs": [
        {
          "indexed": true,
          "internalType": "address",
          "name": "from",
          "type": "address"
        },
        {
          "indexed": true,
          "internalType": "address",
          "name": "to",
          "type": "address"
        },
        {
          "indexed": true,
          "internalType": "uint256",
          "name": "tokenId",
          "type": "uint256"
        }
      ],
      "name": "Transfer",
      "type": "event"
    },
    {
      "inputs": [],
      "name": "PERCENT_DIVIDER",
      "outputs": [
        {
          "internalType": "uint256",
          "name": "",
          "type": "uint256"
        }
      ],
      "stateMutability": "view",
      "type": "function"
    },
    {
      "inputs": [],
      "name": "SALE_FEE",
      "outputs": [
        {
          "internalType": "uint256",
          "name": "",
          "type": "uint256"
        }
      ],
      "stateMutability": "view",
      "type": "function"
    },
    {
      "inputs": [
        {
          "internalType": "address",
          "name": "to",
          "type": "address"
        },
        {
          "internalType": "uint256",
          "name": "tokenId",
          "type": "uint256"
        }
      ],
      "name": "approve",
      "outputs": [],
      "stateMutability": "nonpayable",
      "type": "function"
    },
    {
      "inputs": [],
      "name": "auctionHouse",
      "outputs": [
        {
          "internalType": "address",
          "name": "",
          "type": "address"
        }
      ],
      "stateMutability": "view",
      "type": "function"
    },
    {
      "inputs": [
        {
          "internalType": "uint256",
          "name": "",
          "type": "uint256"
        }
      ],
      "name": "auctionWinner",
      "outputs": [
        {
          "internalType": "address payable",
          "name": "",
          "type": "address"
        }
      ],
      "stateMutability": "view",
      "type": "function"
    },
    {
      "inputs": [
        {
          "internalType": "uint256",
          "name": "",
          "type": "uint256"
        }
      ],
      "name": "auctions",
      "outputs": [
        {
          "internalType": "uint256",
          "name": "endPrice",
          "type": "uint256"
        },
        {
          "internalType": "uint256",
          "name": "startTime",
          "type": "uint256"
        },
        {
          "internalType": "uint256",
          "name": "endTime",
          "type": "uint256"
        },
        {
          "internalType": "bool",
          "name": "active",
          "type": "bool"
        }
      ],
      "stateMutability": "view",
      "type": "function"
    },
    {
      "inputs": [
        {
          "internalType": "address",
          "name": "owner",
          "type": "address"
        }
      ],
      "name": "balanceOf",
      "outputs": [
        {
          "internalType": "uint256",
          "name": "",
          "type": "uint256"
        }
      ],
      "stateMutability": "view",
      "type": "function"
    },
    {
      "inputs": [
        {
          "internalType": "uint256",
          "name": "tokenId",
          "type": "uint256"
        }
      ],
      "name": "getApproved",
      "outputs": [
        {
          "internalType": "address",
          "name": "",
          "type": "address"
        }
      ],
      "stateMutability": "view",
      "type": "function"
    },
    {
      "inputs": [
        {
          "internalType": "address",
          "name": "owner",
          "type": "address"
        },
        {
          "internalType": "address",
          "name": "operator",
          "type": "address"
        }
      ],
      "name": "isApprovedForAll",
      "outputs": [
        {
          "internalType": "bool",
          "name": "",
          "type": "bool"
        }
      ],
      "stateMutability": "view",
      "type": "function"
    },
    {
      "inputs": [],
      "name": "maxSupply",
      "outputs": [
        {
          "internalType": "uint256",
          "name": "",
          "type": "uint256"
        }
      ],
      "stateMutability": "view",
      "type": "function"
    },
    {
      "inputs": [
        {
          "internalType": "uint256",
          "name": "_tokenId",
          "type": "uint256"
        }
      ],
      "name": "mint",
      "outputs": [],
      "stateMutability": "nonpayable",
      "type": "function"
    },
    {
      "inputs": [],
      "name": "mintOpen",
      "outputs": [
        {
          "internalType": "bool",
          "name": "",
          "type": "bool"
        }
      ],
      "stateMutability": "view",
      "type": "function"
    },
    {
      "inputs": [],
      "name": "name",
      "outputs": [
        {
          "internalType": "string",
          "name": "",
          "type": "string"
        }
      ],
      "stateMutability": "view",
      "type": "function"
    },
    {
      "inputs": [],
      "name": "owner",
      "outputs": [
        {
          "internalType": "address",
          "name": "",
          "type": "address"
        }
      ],
      "stateMutability": "view",
      "type": "function"
    },
    {
      "inputs": [
        {
          "internalType": "uint256",
          "name": "tokenId",
          "type": "uint256"
        }
      ],
      "name": "ownerOf",
      "outputs": [
        {
          "internalType": "address",
          "name": "",
          "type": "address"
        }
      ],
      "stateMutability": "view",
      "type": "function"
    },
    {
      "inputs": [],
      "name": "renounceOwnership",
      "outputs": [],
      "stateMutability": "nonpayable",
      "type": "function"
    },
    {
      "inputs": [
        {
          "internalType": "uint256",
          "name": "",
          "type": "uint256"
        },
        {
          "internalType": "uint256",
          "name": "_salePrice",
          "type": "uint256"
        }
      ],
      "name": "royaltyInfo",
      "outputs": [
        {
          "internalType": "address",
          "name": "receiver",
          "type": "address"
        },
        {
          "internalType": "uint256",
          "name": "royaltyAmount",
          "type": "uint256"
        }
      ],
      "stateMutability": "view",
      "type": "function"
    },
    {
      "inputs": [
        {
          "internalType": "address",
          "name": "from",
          "type": "address"
        },
        {
          "internalType": "address",
          "name": "to",
          "type": "address"
        },
        {
          "internalType": "uint256",
          "name": "tokenId",
          "type": "uint256"
        }
      ],
      "name": "safeTransferFrom",
      "outputs": [],
      "stateMutability": "nonpayable",
      "type": "function"
    },
    {
      "inputs": [
        {
          "internalType": "address",
          "name": "from",
          "type": "address"
        },
        {
          "internalType": "address",
          "name": "to",
          "type": "address"
        },
        {
          "internalType": "uint256",
          "name": "tokenId",
          "type": "uint256"
        },
        {
          "internalType": "bytes",
          "name": "data",
          "type": "bytes"
        }
      ],
      "name": "safeTransferFrom",
      "outputs": [],
      "stateMutability": "nonpayable",
      "type": "function"
    },
    {
      "inputs": [
        {
          "internalType": "address",
          "name": "operator",
          "type": "address"
        },
        {
          "internalType": "bool",
          "name": "approved",
          "type": "bool"
        }
      ],
      "name": "setApprovalForAll",
      "outputs": [],
      "stateMutability": "nonpayable",
      "type": "function"
    },
    {
      "inputs": [
        {
          "internalType": "address",
          "name": "_auctionHouse",
          "type": "address"
        }
      ],
      "name": "setAuctionHouse",
      "outputs": [],
      "stateMutability": "nonpayable",
      "type": "function"
    },
    {
      "inputs": [
        {
          "internalType": "uint256",
          "name": "_SALE_FEE",
          "type": "uint256"
        }
      ],
      "name": "setRegularFee",
      "outputs": [],
      "stateMutability": "nonpayable",
      "type": "function"
    },
    {
      "inputs": [],
      "name": "softCap",
      "outputs": [
        {
          "internalType": "uint256",
          "name": "",
          "type": "uint256"
        }
      ],
      "stateMutability": "view",
      "type": "function"
    },
    {
      "inputs": [
        {
          "internalType": "bytes4",
          "name": "_interfaceId",
          "type": "bytes4"
        }
      ],
      "name": "supportsInterface",
      "outputs": [
        {
          "internalType": "bool",
          "name": "",
          "type": "bool"
        }
      ],
      "stateMutability": "view",
      "type": "function"
    },
    {
      "inputs": [],
      "name": "symbol",
      "outputs": [
        {
          "internalType": "string",
          "name": "",
          "type": "string"
        }
      ],
      "stateMutability": "view",
      "type": "function"
    },
    {
      "inputs": [
        {
          "internalType": "uint256",
          "name": "_tokenId",
          "type": "uint256"
        },
        {
          "internalType": "address",
          "name": "_teamMember",
          "type": "address"
        }
      ],
      "name": "teamMint",
      "outputs": [],
      "stateMutability": "nonpayable",
      "type": "function"
    },
    {
      "inputs": [],
      "name": "teamMinted",
      "outputs": [
        {
          "internalType": "uint256",
          "name": "",
          "type": "uint256"
        }
      ],
      "stateMutability": "view",
      "type": "function"
    },
    {
      "inputs": [
        {
          "internalType": "bool",
          "name": "_open",
          "type": "bool"
        }
      ],
      "name": "toggleMint",
      "outputs": [],
      "stateMutability": "nonpayable",
      "type": "function"
    },
    {
      "inputs": [
        {
          "internalType": "uint256",
          "name": "",
          "type": "uint256"
        }
      ],
      "name": "tokenMetaDataRecord",
      "outputs": [
        {
          "internalType": "bool",
          "name": "minted",
          "type": "bool"
        },
        {
          "internalType": "uint256",
          "name": "timestamp",
          "type": "uint256"
        }
      ],
      "stateMutability": "view",
      "type": "function"
    },
    {
      "inputs": [
        {
          "internalType": "uint256",
          "name": "",
          "type": "uint256"
        }
      ],
      "name": "tokenMinter",
      "outputs": [
        {
          "internalType": "address",
          "name": "",
          "type": "address"
        }
      ],
      "stateMutability": "view",
      "type": "function"
    },
    {
      "inputs": [
        {
          "internalType": "uint256",
          "name": "_tokenId",
          "type": "uint256"
        }
      ],
      "name": "tokenURI",
      "outputs": [
        {
          "internalType": "string",
          "name": "",
          "type": "string"
        }
      ],
      "stateMutability": "view",
      "type": "function"
    },
    {
      "inputs": [],
      "name": "totalAuctions",
      "outputs": [
        {
          "internalType": "uint256",
          "name": "",
          "type": "uint256"
        }
      ],
      "stateMutability": "view",
      "type": "function"
    },
    {
      "inputs": [
        {
          "internalType": "address",
          "name": "from",
          "type": "address"
        },
        {
          "internalType": "address",
          "name": "to",
          "type": "address"
        },
        {
          "internalType": "uint256",
          "name": "tokenId",
          "type": "uint256"
        }
      ],
      "name": "transferFrom",
      "outputs": [],
      "stateMutability": "nonpayable",
      "type": "function"
    },
    {
      "inputs": [
        {
          "internalType": "address",
          "name": "newOwner",
          "type": "address"
        }
      ],
      "name": "transferOwnership",
      "outputs": [],
      "stateMutability": "nonpayable",
      "type": "function"
    },
    {
      "inputs": [],
      "name": "treasuryAddress",
      "outputs": [
        {
          "internalType": "address payable",
          "name": "",
          "type": "address"
        }
      ],
      "stateMutability": "view",
      "type": "function"
    },
    {
      "inputs": [],
      "name": "getCurrentAuction",
      "outputs": [
        {
          "components": [
            {
              "internalType": "uint256",
              "name": "endPrice",
              "type": "uint256"
            },
            {
              "internalType": "uint256",
              "name": "startTime",
              "type": "uint256"
            },
            {
              "internalType": "uint256",
              "name": "endTime",
              "type": "uint256"
            },
            {
              "internalType": "bool",
              "name": "active",
              "type": "bool"
            }
          ],
          "internalType": "struct StacksAuctionHouse.Auction",
          "name": "",
          "type": "tuple"
        }
      ],
      "stateMutability": "view",
      "type": "function"
    },
    {
      "inputs": [
        {
          "internalType": "uint256",
          "name": "_tokenId",
          "type": "uint256"
        }
      ],
      "name": "getAuction",
      "outputs": [
        {
          "components": [
            {
              "internalType": "uint256",
              "name": "endPrice",
              "type": "uint256"
            },
            {
              "internalType": "uint256",
              "name": "startTime",
              "type": "uint256"
            },
            {
              "internalType": "uint256",
              "name": "endTime",
              "type": "uint256"
            },
            {
              "internalType": "bool",
              "name": "active",
              "type": "bool"
            }
          ],
          "internalType": "struct StacksAuctionHouse.Auction",
          "name": "",
          "type": "tuple"
        }
      ],
      "stateMutability": "view",
      "type": "function"
    },
    {
      "inputs": [],
      "name": "bid",
      "outputs": [],
      "stateMutability": "payable",
      "type": "function"
    },
    {
      "inputs": [
        {
          "internalType": "address payable",
          "name": "_treasuryAddress",
          "type": "address"
        }
      ],
      "name": "setTreasuryAddress",
      "outputs": [],
      "stateMutability": "nonpayable",
      "type": "function"
    }
  ],
  "bytecode": "0x60806040526103e8600955611388600d55610fa9600e556000600f5560006012553480156200002d57600080fd5b50604051620048ad380380620048ad833981810160405281019062000053919062000436565b6040518060400160405280600681526020017f537461636b7300000000000000000000000000000000000000000000000000008152506040518060400160405280600681526020017f535441434b5300000000000000000000000000000000000000000000000000008152508160009081620000d09190620006e2565b508060019081620000e29190620006e2565b50505062000105620000f9620001f260201b60201c565b620001fa60201b60201c565b80601360006101000a81548173ffffffffffffffffffffffffffffffffffffffff021916908373ffffffffffffffffffffffffffffffffffffffff16021790555060006363fe958090506040518060800160405280600081526020018281526020016201518083620001789190620007f8565b8152602001600115158152506010600080815260200190815260200160002060008201518160000155602082015181600101556040820151816002015560608201518160030160006101000a81548160ff021916908315150217905550905050620001ea6001620002c060201b60201c565b50506200086e565b600033905090565b6000600860009054906101000a900473ffffffffffffffffffffffffffffffffffffffff16905081600860006101000a81548173ffffffffffffffffffffffffffffffffffffffff021916908373ffffffffffffffffffffffffffffffffffffffff1602179055508173ffffffffffffffffffffffffffffffffffffffff168173ffffffffffffffffffffffffffffffffffffffff167f8be0079c531659141344cd1fd0a4f28419497f9722a3daafe3b4186f6b6457e060405160405180910390a35050565b600060106000600184620002d5919062000833565b81526020019081526020016000206040518060800160405290816000820154815260200160018201548152602001600282015481526020016003820160009054906101000a900460ff1615151515815250509050604051806080016040528060008152602001600183604001516200034e9190620007f8565b8152602001620151808360400151620003689190620007f8565b8152602001600015158152506010600084815260200190815260200160002060008201518160000155602082015181600101556040820151816002015560608201518160030160006101000a81548160ff0219169083151502179055509050505050565b600080fd5b600073ffffffffffffffffffffffffffffffffffffffff82169050919050565b6000620003fe82620003d1565b9050919050565b6200041081620003f1565b81146200041c57600080fd5b50565b600081519050620004308162000405565b92915050565b6000602082840312156200044f576200044e620003cc565b5b60006200045f848285016200041f565b91505092915050565b600081519050919050565b7f4e487b7100000000000000000000000000000000000000000000000000000000600052604160045260246000fd5b7f4e487b7100000000000000000000000000000000000000000000000000000000600052602260045260246000fd5b60006002820490506001821680620004ea57607f821691505b6020821081036200050057620004ff620004a2565b5b50919050565b60008190508160005260206000209050919050565b60006020601f8301049050919050565b600082821b905092915050565b6000600883026200056a7fffffffffffffffffffffffffffffffffffffffffffffffffffffffffffffffff826200052b565b6200057686836200052b565b95508019841693508086168417925050509392505050565b6000819050919050565b6000819050919050565b6000620005c3620005bd620005b7846200058e565b62000598565b6200058e565b9050919050565b6000819050919050565b620005df83620005a2565b620005f7620005ee82620005ca565b84845462000538565b825550505050565b600090565b6200060e620005ff565b6200061b818484620005d4565b505050565b5b8181101562000643576200063760008262000604565b60018101905062000621565b5050565b601f82111562000692576200065c8162000506565b62000667846200051b565b8101602085101562000677578190505b6200068f62000686856200051b565b83018262000620565b50505b505050565b600082821c905092915050565b6000620006b76000198460080262000697565b1980831691505092915050565b6000620006d28383620006a4565b9150826002028217905092915050565b620006ed8262000468565b67ffffffffffffffff81111562000709576200070862000473565b5b620007158254620004d1565b6200072282828562000647565b600060209050601f8311600181146200075a576000841562000745578287015190505b620007518582620006c4565b865550620007c1565b601f1984166200076a8662000506565b60005b8281101562000794578489015182556001820191506020850194506020810190506200076d565b86831015620007b45784890151620007b0601f891682620006a4565b8355505b6001600288020188555050505b505050505050565b7f4e487b7100000000000000000000000000000000000000000000000000000000600052601160045260246000fd5b600062000805826200058e565b915062000812836200058e565b92508282019050808211156200082d576200082c620007c9565b5b92915050565b600062000840826200058e565b91506200084d836200058e565b9250828203905081811115620008685762000867620007c9565b5b92915050565b61402f806200087e6000396000f3fe6080604052600436106102305760003560e01c80637c57d9471161012e578063c5f956af116100ab578063e8b5498d1161006f578063e8b5498d14610859578063e985e9c514610884578063ed9152c8146108c1578063f2fde38b146108ec578063fe0dad251461091557610230565b8063c5f956af14610772578063c87b56dd1461079d578063d5abeb01146107da578063dcb66f1214610805578063e76d89521461083057610230565b8063a0712d68116100f2578063a0712d6814610690578063a22cb465146106b9578063b88d4fde146106e2578063bdce6c441461070b578063bfa457bc1461074957610230565b80637c57d947146105a95780638a4dcd85146105e65780638da5cb5b1461060f578063906a26e01461063a57806395d89b411461066557610230565b806329fc7bd8116101bc5780636605bfda116101805780636605bfda146104c457806370a08231146104ed578063715018a61461052a578063729eaa661461054157806378bd79351461056c57610230565b806329fc7bd8146103b55780632a55205a146103e057806342842e0e1461041e578063571a26a0146104475780636352211e1461048757610230565b806316002f4a1161020357806316002f4a146103035780631998aeef1461032e57806323b872dd1461033857806324bbd0491461036157806329c4ba091461038c57610230565b806301ffc9a71461023557806306fdde0314610272578063081812fc1461029d578063095ea7b3146102da575b600080fd5b34801561024157600080fd5b5061025c60048036038101906102579190612b32565b610952565b6040516102699190612b7a565b60405180910390f35b34801561027e57600080fd5b506102876109ba565b6040516102949190612c25565b60405180910390f35b3480156102a957600080fd5b506102c460048036038101906102bf9190612c7d565b610a4c565b6040516102d19190612ceb565b60405180910390f35b3480156102e657600080fd5b5061030160048036038101906102fc9190612d32565b610a92565b005b34801561030f57600080fd5b50610318610ba9565b6040516103259190612d81565b60405180910390f35b610336610baf565b005b34801561034457600080fd5b5061035f600480360381019061035a9190612d9c565b610d26565b005b34801561036d57600080fd5b50610376610d86565b6040516103839190612b7a565b60405180910390f35b34801561039857600080fd5b506103b360048036038101906103ae9190612c7d565b610d99565b005b3480156103c157600080fd5b506103ca610df0565b6040516103d79190612d81565b60405180910390f35b3480156103ec57600080fd5b5061040760048036038101906104029190612def565b610df6565b604051610415929190612e2f565b60405180910390f35b34801561042a57600080fd5b5061044560048036038101906104409190612d9c565b610e27565b005b34801561045357600080fd5b5061046e60048036038101906104699190612c7d565b610e47565b60405161047e9493929190612e58565b60405180910390f35b34801561049357600080fd5b506104ae60048036038101906104a99190612c7d565b610e84565b6040516104bb9190612ceb565b60405180910390f35b3480156104d057600080fd5b506104eb60048036038101906104e69190612edb565b610f0a565b005b3480156104f957600080fd5b50610514600480360381019061050f9190612f08565b610f56565b6040516105219190612d81565b60405180910390f35b34801561053657600080fd5b5061053f61100d565b005b34801561054d57600080fd5b50610556611021565b6040516105639190612d81565b60405180910390f35b34801561057857600080fd5b50610593600480360381019061058e9190612c7d565b611027565b6040516105a09190612fa8565b60405180910390f35b3480156105b557600080fd5b506105d060048036038101906105cb9190612c7d565b61108d565b6040516105dd9190612ceb565b60405180910390f35b3480156105f257600080fd5b5061060d60048036038101906106089190612fef565b6110c0565b005b34801561061b57600080fd5b506106246110e5565b6040516106319190612ceb565b60405180910390f35b34801561064657600080fd5b5061064f61110f565b60405161065c9190612d81565b60405180910390f35b34801561067157600080fd5b5061067a611115565b6040516106879190612c25565b60405180910390f35b34801561069c57600080fd5b506106b760048036038101906106b29190612c7d565b6111a7565b005b3480156106c557600080fd5b506106e060048036038101906106db919061301c565b6113a5565b005b3480156106ee57600080fd5b5061070960048036038101906107049190613191565b6113bb565b005b34801561071757600080fd5b50610732600480360381019061072d9190612c7d565b61141d565b604051610740929190613214565b60405180910390f35b34801561075557600080fd5b50610770600480360381019061076b919061323d565b61144e565b005b34801561077e57600080fd5b506107876115af565b604051610794919061328c565b60405180910390f35b3480156107a957600080fd5b506107c460048036038101906107bf9190612c7d565b6115d5565b6040516107d19190612c25565b60405180910390f35b3480156107e657600080fd5b506107ef61160e565b6040516107fc9190612d81565b60405180910390f35b34801561081157600080fd5b5061081a611614565b6040516108279190612fa8565b60405180910390f35b34801561083c57600080fd5b5061085760048036038101906108529190612f08565b61167a565b005b34801561086557600080fd5b5061086e6116c6565b60405161087b9190612d81565b60405180910390f35b34801561089057600080fd5b506108ab60048036038101906108a691906132a7565b6116cc565b6040516108b89190612b7a565b60405180910390f35b3480156108cd57600080fd5b506108d6611760565b6040516108e39190612ceb565b60405180910390f35b3480156108f857600080fd5b50610913600480360381019061090e9190612f08565b611786565b005b34801561092157600080fd5b5061093c60048036038101906109379190612c7d565b611809565b604051610949919061328c565b60405180910390f35b6000632a55205a60e01b7bffffffffffffffffffffffffffffffffffffffffffffffffffffffff1916827bffffffffffffffffffffffffffffffffffffffffffffffffffffffff1916036109a957600190506109b5565b6109b28261183c565b90505b919050565b6060600080546109c990613316565b80601f01602080910402602001604051908101604052809291908181526020018280546109f590613316565b8015610a425780601f10610a1757610100808354040283529160200191610a42565b820191906000526020600020905b815481529060010190602001808311610a2557829003601f168201915b5050505050905090565b6000610a57826118b6565b6004600083815260200190815260200160002060009054906101000a900473ffffffffffffffffffffffffffffffffffffffff169050919050565b6000610a9d82610e84565b90508073ffffffffffffffffffffffffffffffffffffffff168373ffffffffffffffffffffffffffffffffffffffff1603610b0d576040517f08c379a0000000000000000000000000000000000000000000000000000000008152600401610b04906133b9565b60405180910390fd5b8073ffffffffffffffffffffffffffffffffffffffff16610b2c611901565b73ffffffffffffffffffffffffffffffffffffffff161480610b5b5750610b5a81610b55611901565b6116cc565b5b610b9a576040517f08c379a0000000000000000000000000000000000000000000000000000000008152600401610b919061344b565b60405180910390fd5b610ba48383611909565b505050565b60125481565b6000610bb9611614565b905080600001513411610c01576040517f08c379a0000000000000000000000000000000000000000000000000000000008152600401610bf8906134b7565b60405180910390fd5b600081600001519050600060116000601254815260200190815260200160002060009054906101000a900473ffffffffffffffffffffffffffffffffffffffff1690503360116000601254815260200190815260200160002060006101000a81548173ffffffffffffffffffffffffffffffffffffffff021916908373ffffffffffffffffffffffffffffffffffffffff16021790555034601060006012548152602001908152602001600020600001819055508073ffffffffffffffffffffffffffffffffffffffff166108fc839081150290604051600060405180830381858888f19350505050158015610cfb573d6000803e3d6000fd5b50428360400151108015610d10575082606001515b15610d2157610d206012546119c2565b5b505050565b610d37610d31611901565b82611b10565b610d76576040517f08c379a0000000000000000000000000000000000000000000000000000000008152600401610d6d90613549565b60405180910390fd5b610d81838383611ba5565b505050565b600c60149054906101000a900460ff1681565b610da1611e9e565b610ce4811115610de6576040517f08c379a0000000000000000000000000000000000000000000000000000000008152600401610ddd906135b5565b60405180910390fd5b8060098190555050565b61271081565b600080610e016110e5565b61271060095485610e129190613604565b610e1c9190613675565b915091509250929050565b610e42838383604051806020016040528060008152506113bb565b505050565b60106020528060005260406000206000915090508060000154908060010154908060020154908060030160009054906101000a900460ff16905084565b600080610e9083611f1c565b9050600073ffffffffffffffffffffffffffffffffffffffff168173ffffffffffffffffffffffffffffffffffffffff1603610f01576040517f08c379a0000000000000000000000000000000000000000000000000000000008152600401610ef8906136f2565b60405180910390fd5b80915050919050565b610f12611e9e565b80601360006101000a81548173ffffffffffffffffffffffffffffffffffffffff021916908373ffffffffffffffffffffffffffffffffffffffff16021790555050565b60008073ffffffffffffffffffffffffffffffffffffffff168273ffffffffffffffffffffffffffffffffffffffff1603610fc6576040517f08c379a0000000000000000000000000000000000000000000000000000000008152600401610fbd90613784565b60405180910390fd5b600360008373ffffffffffffffffffffffffffffffffffffffff1673ffffffffffffffffffffffffffffffffffffffff168152602001908152602001600020549050919050565b611015611e9e565b61101f6000611f59565b565b60095481565b61102f612a9c565b601060008381526020019081526020016000206040518060800160405290816000820154815260200160018201548152602001600282015481526020016003820160009054906101000a900460ff1615151515815250509050919050565b600a6020528060005260406000206000915054906101000a900473ffffffffffffffffffffffffffffffffffffffff1681565b6110c8611e9e565b80600c60146101000a81548160ff02191690831515021790555050565b6000600860009054906101000a900473ffffffffffffffffffffffffffffffffffffffff16905090565b600e5481565b60606001805461112490613316565b80601f016020809104026020016040519081016040528092919081815260200182805461115090613316565b801561119d5780601f106111725761010080835404028352916020019161119d565b820191906000526020600020905b81548152906001019060200180831161118057829003601f168201915b5050505050905090565b600c60149054906101000a900460ff166111f6576040517f08c379a00000000000000000000000000000000000000000000000000000000081526004016111ed906137f0565b60405180910390fd5b600d5481111561123b576040517f08c379a00000000000000000000000000000000000000000000000000000000081526004016112329061385c565b60405180910390fd5b3373ffffffffffffffffffffffffffffffffffffffff16600a600083815260200190815260200160002060009054906101000a900473ffffffffffffffffffffffffffffffffffffffff1673ffffffffffffffffffffffffffffffffffffffff16146112dc576040517f08c379a00000000000000000000000000000000000000000000000000000000081526004016112d3906138ee565b60405180910390fd5b600b600082815260200190815260200160002060000160009054906101000a900460ff1615611340576040517f08c379a00000000000000000000000000000000000000000000000000000000081526004016113379061395a565b60405180910390fd5b61134a338261201f565b604051806040016040528060011515815260200142815250600b600083815260200190815260200160002060008201518160000160006101000a81548160ff0219169083151502179055506020820151816001015590505050565b6113b76113b0611901565b838361203d565b5050565b6113cc6113c6611901565b83611b10565b61140b576040517f08c379a000000000000000000000000000000000000000000000000000000000815260040161140290613549565b60405180910390fd5b611417848484846121a9565b50505050565b600b6020528060005260406000206000915090508060000160009054906101000a900460ff16908060010154905082565b611456611e9e565b600e54821161149a576040517f08c379a0000000000000000000000000000000000000000000000000000000008152600401611491906139c6565b60405180910390fd5b600d548211156114df576040517f08c379a00000000000000000000000000000000000000000000000000000000081526004016114d69061385c565b60405180910390fd5b80600a600084815260200190815260200160002060006101000a81548173ffffffffffffffffffffffffffffffffffffffff021916908373ffffffffffffffffffffffffffffffffffffffff160217905550604051806040016040528060011515815260200142815250600b600084815260200190815260200160002060008201518160000160006101000a81548160ff02191690831515021790555060208201518160010155905050611593338361201f565b600f60008154809291906115a6906139e6565b91905055505050565b601360009054906101000a900473ffffffffffffffffffffffffffffffffffffffff1681565b60606115e0826118b6565b6115e8612205565b6040516020016115f89190613a6a565b6040516020818303038152906040529050919050565b600d5481565b61161c612a9c565b6010600060125481526020019081526020016000206040518060800160405290816000820154815260200160018201548152602001600282015481526020016003820160009054906101000a900460ff161515151581525050905090565b611682611e9e565b80600c60006101000a81548173ffffffffffffffffffffffffffffffffffffffff021916908373ffffffffffffffffffffffffffffffffffffffff16021790555050565b600f5481565b6000600560008473ffffffffffffffffffffffffffffffffffffffff1673ffffffffffffffffffffffffffffffffffffffff16815260200190815260200160002060008373ffffffffffffffffffffffffffffffffffffffff1673ffffffffffffffffffffffffffffffffffffffff16815260200190815260200160002060009054906101000a900460ff16905092915050565b600c60009054906101000a900473ffffffffffffffffffffffffffffffffffffffff1681565b61178e611e9e565b600073ffffffffffffffffffffffffffffffffffffffff168173ffffffffffffffffffffffffffffffffffffffff16036117fd576040517f08c379a00000000000000000000000000000000000000000000000000000000081526004016117f490613af3565b60405180910390fd5b61180681611f59565b50565b60116020528060005260406000206000915054906101000a900473ffffffffffffffffffffffffffffffffffffffff1681565b60007f2a55205a000000000000000000000000000000000000000000000000000000007bffffffffffffffffffffffffffffffffffffffffffffffffffffffff1916827bffffffffffffffffffffffffffffffffffffffffffffffffffffffff191614806118af57506118ae82612225565b5b9050919050565b6118bf81612307565b6118fe576040517f08c379a00000000000000000000000000000000000000000000000000000000081526004016118f5906136f2565b60405180910390fd5b50565b600033905090565b816004600083815260200190815260200160002060006101000a81548173ffffffffffffffffffffffffffffffffffffffff021916908373ffffffffffffffffffffffffffffffffffffffff160217905550808273ffffffffffffffffffffffffffffffffffffffff1661197c83610e84565b73ffffffffffffffffffffffffffffffffffffffff167f8c5be1e5ebec7d5bd14f71427d1e84f3dd0314c0f7b2291e5b200ac8c7c3b92560405160405180910390a45050565b6000601060008381526020019081526020016000206040518060800160405290816000820154815260200160018201548152602001600282015481526020016003820160009054906101000a900460ff16151515158152505090506000816060019015159081151581525050600160106000600185611a419190613b13565b815260200190815260200160002060030160006101000a81548160ff021916908315150217905550611a7e600283611a799190613b13565b612348565b60126000815480929190611a91906139e6565b9190505550611a9f8261244e565b601360009054906101000a900473ffffffffffffffffffffffffffffffffffffffff1673ffffffffffffffffffffffffffffffffffffffff166108fc82600001519081150290604051600060405180830381858888f19350505050158015611b0b573d6000803e3d6000fd5b505050565b600080611b1c83610e84565b90508073ffffffffffffffffffffffffffffffffffffffff168473ffffffffffffffffffffffffffffffffffffffff161480611b5e5750611b5d81856116cc565b5b80611b9c57508373ffffffffffffffffffffffffffffffffffffffff16611b8484610a4c565b73ffffffffffffffffffffffffffffffffffffffff16145b91505092915050565b8273ffffffffffffffffffffffffffffffffffffffff16611bc582610e84565b73ffffffffffffffffffffffffffffffffffffffff1614611c1b576040517f08c379a0000000000000000000000000000000000000000000000000000000008152600401611c1290613bb9565b60405180910390fd5b600073ffffffffffffffffffffffffffffffffffffffff168273ffffffffffffffffffffffffffffffffffffffff1603611c8a576040517f08c379a0000000000000000000000000000000000000000000000000000000008152600401611c8190613c4b565b60405180910390fd5b611c97838383600161248e565b8273ffffffffffffffffffffffffffffffffffffffff16611cb782610e84565b73ffffffffffffffffffffffffffffffffffffffff1614611d0d576040517f08c379a0000000000000000000000000000000000000000000000000000000008152600401611d0490613bb9565b60405180910390fd5b6004600082815260200190815260200160002060006101000a81549073ffffffffffffffffffffffffffffffffffffffff02191690556001600360008573ffffffffffffffffffffffffffffffffffffffff1673ffffffffffffffffffffffffffffffffffffffff168152602001908152602001600020600082825403925050819055506001600360008473ffffffffffffffffffffffffffffffffffffffff1673ffffffffffffffffffffffffffffffffffffffff16815260200190815260200160002060008282540192505081905550816002600083815260200190815260200160002060006101000a81548173ffffffffffffffffffffffffffffffffffffffff021916908373ffffffffffffffffffffffffffffffffffffffff160217905550808273ffffffffffffffffffffffffffffffffffffffff168473ffffffffffffffffffffffffffffffffffffffff167fddf252ad1be2c89b69c2b068fc378daa952ba7f163c4a11628f55a4df523b3ef60405160405180910390a4611e9983838360016125b4565b505050565b611ea6611901565b73ffffffffffffffffffffffffffffffffffffffff16611ec46110e5565b73ffffffffffffffffffffffffffffffffffffffff1614611f1a576040517f08c379a0000000000000000000000000000000000000000000000000000000008152600401611f1190613cb7565b60405180910390fd5b565b60006002600083815260200190815260200160002060009054906101000a900473ffffffffffffffffffffffffffffffffffffffff169050919050565b6000600860009054906101000a900473ffffffffffffffffffffffffffffffffffffffff16905081600860006101000a81548173ffffffffffffffffffffffffffffffffffffffff021916908373ffffffffffffffffffffffffffffffffffffffff1602179055508173ffffffffffffffffffffffffffffffffffffffff168173ffffffffffffffffffffffffffffffffffffffff167f8be0079c531659141344cd1fd0a4f28419497f9722a3daafe3b4186f6b6457e060405160405180910390a35050565b6120398282604051806020016040528060008152506125ba565b5050565b8173ffffffffffffffffffffffffffffffffffffffff168373ffffffffffffffffffffffffffffffffffffffff16036120ab576040517f08c379a00000000000000000000000000000000000000000000000000000000081526004016120a290613d23565b60405180910390fd5b80600560008573ffffffffffffffffffffffffffffffffffffffff1673ffffffffffffffffffffffffffffffffffffffff16815260200190815260200160002060008473ffffffffffffffffffffffffffffffffffffffff1673ffffffffffffffffffffffffffffffffffffffff16815260200190815260200160002060006101000a81548160ff0219169083151502179055508173ffffffffffffffffffffffffffffffffffffffff168373ffffffffffffffffffffffffffffffffffffffff167f17307eab39ab6107e8899845ad3d59bd9653f200f220920489ca2b5937696c318360405161219c9190612b7a565b60405180910390a3505050565b6121b4848484611ba5565b6121c084848484612615565b6121ff576040517f08c379a00000000000000000000000000000000000000000000000000000000081526004016121f690613db5565b60405180910390fd5b50505050565b6060604051806060016040528060358152602001613fc560359139905090565b60007f80ac58cd000000000000000000000000000000000000000000000000000000007bffffffffffffffffffffffffffffffffffffffffffffffffffffffff1916827bffffffffffffffffffffffffffffffffffffffffffffffffffffffff191614806122f057507f5b5e139f000000000000000000000000000000000000000000000000000000007bffffffffffffffffffffffffffffffffffffffffffffffffffffffff1916827bffffffffffffffffffffffffffffffffffffffffffffffffffffffff1916145b8061230057506122ff8261279c565b5b9050919050565b60008073ffffffffffffffffffffffffffffffffffffffff1661232983611f1c565b73ffffffffffffffffffffffffffffffffffffffff1614159050919050565b60006010600060018461235b9190613dd5565b81526020019081526020016000206040518060800160405290816000820154815260200160018201548152602001600282015481526020016003820160009054906101000a900460ff1615151515815250509050604051806080016040528060008152602001600183604001516123d29190613b13565b81526020016201518083604001516123ea9190613b13565b8152602001600015158152506010600084815260200190815260200160002060008201518160000155602082015181600101556040820151816002015560608201518160030160006101000a81548160ff0219169083151502179055509050505050565b61248b816011600084815260200190815260200160002060009054906101000a900473ffffffffffffffffffffffffffffffffffffffff16612806565b50565b60018111156125ae57600073ffffffffffffffffffffffffffffffffffffffff168473ffffffffffffffffffffffffffffffffffffffff16146125225780600360008673ffffffffffffffffffffffffffffffffffffffff1673ffffffffffffffffffffffffffffffffffffffff168152602001908152602001600020600082825461251a9190613dd5565b925050819055505b600073ffffffffffffffffffffffffffffffffffffffff168373ffffffffffffffffffffffffffffffffffffffff16146125ad5780600360008573ffffffffffffffffffffffffffffffffffffffff1673ffffffffffffffffffffffffffffffffffffffff16815260200190815260200160002060008282546125a59190613b13565b925050819055505b5b50505050565b50505050565b6125c4838361285c565b6125d16000848484612615565b612610576040517f08c379a000000000000000000000000000000000000000000000000000000000815260040161260790613db5565b60405180910390fd5b505050565b60006126368473ffffffffffffffffffffffffffffffffffffffff16612a79565b1561278f578373ffffffffffffffffffffffffffffffffffffffff1663150b7a0261265f611901565b8786866040518563ffffffff1660e01b81526004016126819493929190613e5e565b6020604051808303816000875af19250505080156126bd57506040513d601f19601f820116820180604052508101906126ba9190613ebf565b60015b61273f573d80600081146126ed576040519150601f19603f3d011682016040523d82523d6000602084013e6126f2565b606091505b506000815103612737576040517f08c379a000000000000000000000000000000000000000000000000000000000815260040161272e90613db5565b60405180910390fd5b805181602001fd5b63150b7a0260e01b7bffffffffffffffffffffffffffffffffffffffffffffffffffffffff1916817bffffffffffffffffffffffffffffffffffffffffffffffffffffffff191614915050612794565b600190505b949350505050565b60007f01ffc9a7000000000000000000000000000000000000000000000000000000007bffffffffffffffffffffffffffffffffffffffffffffffffffffffff1916827bffffffffffffffffffffffffffffffffffffffffffffffffffffffff1916149050919050565b80600a600084815260200190815260200160002060006101000a81548173ffffffffffffffffffffffffffffffffffffffff021916908373ffffffffffffffffffffffffffffffffffffffff1602179055505050565b600073ffffffffffffffffffffffffffffffffffffffff168273ffffffffffffffffffffffffffffffffffffffff16036128cb576040517f08c379a00000000000000000000000000000000000000000000000000000000081526004016128c290613f38565b60405180910390fd5b6128d481612307565b15612914576040517f08c379a000000000000000000000000000000000000000000000000000000000815260040161290b90613fa4565b60405180910390fd5b61292260008383600161248e565b61292b81612307565b1561296b576040517f08c379a000000000000000000000000000000000000000000000000000000000815260040161296290613fa4565b60405180910390fd5b6001600360008473ffffffffffffffffffffffffffffffffffffffff1673ffffffffffffffffffffffffffffffffffffffff16815260200190815260200160002060008282540192505081905550816002600083815260200190815260200160002060006101000a81548173ffffffffffffffffffffffffffffffffffffffff021916908373ffffffffffffffffffffffffffffffffffffffff160217905550808273ffffffffffffffffffffffffffffffffffffffff16600073ffffffffffffffffffffffffffffffffffffffff167fddf252ad1be2c89b69c2b068fc378daa952ba7f163c4a11628f55a4df523b3ef60405160405180910390a4612a756000838360016125b4565b5050565b6000808273ffffffffffffffffffffffffffffffffffffffff163b119050919050565b60405180608001604052806000815260200160008152602001600081526020016000151581525090565b6000604051905090565b600080fd5b600080fd5b60007fffffffff0000000000000000000000000000000000000000000000000000000082169050919050565b612b0f81612ada565b8114612b1a57600080fd5b50565b600081359050612b2c81612b06565b92915050565b600060208284031215612b4857612b47612ad0565b5b6000612b5684828501612b1d565b91505092915050565b60008115159050919050565b612b7481612b5f565b82525050565b6000602082019050612b8f6000830184612b6b565b92915050565b600081519050919050565b600082825260208201905092915050565b60005b83811015612bcf578082015181840152602081019050612bb4565b60008484015250505050565b6000601f19601f8301169050919050565b6000612bf782612b95565b612c018185612ba0565b9350612c11818560208601612bb1565b612c1a81612bdb565b840191505092915050565b60006020820190508181036000830152612c3f8184612bec565b905092915050565b6000819050919050565b612c5a81612c47565b8114612c6557600080fd5b50565b600081359050612c7781612c51565b92915050565b600060208284031215612c9357612c92612ad0565b5b6000612ca184828501612c68565b91505092915050565b600073ffffffffffffffffffffffffffffffffffffffff82169050919050565b6000612cd582612caa565b9050919050565b612ce581612cca565b82525050565b6000602082019050612d006000830184612cdc565b92915050565b612d0f81612cca565b8114612d1a57600080fd5b50565b600081359050612d2c81612d06565b92915050565b60008060408385031215612d4957612d48612ad0565b5b6000612d5785828601612d1d565b9250506020612d6885828601612c68565b9150509250929050565b612d7b81612c47565b82525050565b6000602082019050612d966000830184612d72565b92915050565b600080600060608486031215612db557612db4612ad0565b5b6000612dc386828701612d1d565b9350506020612dd486828701612d1d565b9250506040612de586828701612c68565b9150509250925092565b60008060408385031215612e0657612e05612ad0565b5b6000612e1485828601612c68565b9250506020612e2585828601612c68565b9150509250929050565b6000604082019050612e446000830185612cdc565b612e516020830184612d72565b9392505050565b6000608082019050612e6d6000830187612d72565b612e7a6020830186612d72565b612e876040830185612d72565b612e946060830184612b6b565b95945050505050565b6000612ea882612caa565b9050919050565b612eb881612e9d565b8114612ec357600080fd5b50565b600081359050612ed581612eaf565b92915050565b600060208284031215612ef157612ef0612ad0565b5b6000612eff84828501612ec6565b91505092915050565b600060208284031215612f1e57612f1d612ad0565b5b6000612f2c84828501612d1d565b91505092915050565b612f3e81612c47565b82525050565b612f4d81612b5f565b82525050565b608082016000820151612f696000850182612f35565b506020820151612f7c6020850182612f35565b506040820151612f8f6040850182612f35565b506060820151612fa26060850182612f44565b50505050565b6000608082019050612fbd6000830184612f53565b92915050565b612fcc81612b5f565b8114612fd757600080fd5b50565b600081359050612fe981612fc3565b92915050565b60006020828403121561300557613004612ad0565b5b600061301384828501612fda565b91505092915050565b6000806040838503121561303357613032612ad0565b5b600061304185828601612d1d565b925050602061305285828601612fda565b9150509250929050565b600080fd5b600080fd5b7f4e487b7100000000000000000000000000000000000000000000000000000000600052604160045260246000fd5b61309e82612bdb565b810181811067ffffffffffffffff821117156130bd576130bc613066565b5b80604052505050565b60006130d0612ac6565b90506130dc8282613095565b919050565b600067ffffffffffffffff8211156130fc576130fb613066565b5b61310582612bdb565b9050602081019050919050565b82818337600083830152505050565b600061313461312f846130e1565b6130c6565b9050828152602081018484840111156131505761314f613061565b5b61315b848285613112565b509392505050565b600082601f8301126131785761317761305c565b5b8135613188848260208601613121565b91505092915050565b600080600080608085870312156131ab576131aa612ad0565b5b60006131b987828801612d1d565b94505060206131ca87828801612d1d565b93505060406131db87828801612c68565b925050606085013567ffffffffffffffff8111156131fc576131fb612ad5565b5b61320887828801613163565b91505092959194509250565b60006040820190506132296000830185612b6b565b6132366020830184612d72565b9392505050565b6000806040838503121561325457613253612ad0565b5b600061326285828601612c68565b925050602061327385828601612d1d565b9150509250929050565b61328681612e9d565b82525050565b60006020820190506132a1600083018461327d565b92915050565b600080604083850312156132be576132bd612ad0565b5b60006132cc85828601612d1d565b92505060206132dd85828601612d1d565b9150509250929050565b7f4e487b7100000000000000000000000000000000000000000000000000000000600052602260045260246000fd5b6000600282049050600182168061332e57607f821691505b602082108103613341576133406132e7565b5b50919050565b7f4552433732313a20617070726f76616c20746f2063757272656e74206f776e6560008201527f7200000000000000000000000000000000000000000000000000000000000000602082015250565b60006133a3602183612ba0565b91506133ae82613347565b604082019050919050565b600060208201905081810360008301526133d281613396565b9050919050565b7f4552433732313a20617070726f76652063616c6c6572206973206e6f7420746f60008201527f6b656e206f776e6572206f7220617070726f76656420666f7220616c6c000000602082015250565b6000613435603d83612ba0565b9150613440826133d9565b604082019050919050565b6000602082019050818103600083015261346481613428565b9050919050565b7f42696420697320746f6f206c6f77000000000000000000000000000000000000600082015250565b60006134a1600e83612ba0565b91506134ac8261346b565b602082019050919050565b600060208201905081810360008301526134d081613494565b9050919050565b7f4552433732313a2063616c6c6572206973206e6f7420746f6b656e206f776e6560008201527f72206f7220617070726f76656400000000000000000000000000000000000000602082015250565b6000613533602d83612ba0565b915061353e826134d7565b604082019050919050565b6000602082019050818103600083015261356281613526565b9050919050565b7f466565206d757374206265206c657373206f7220657175616c20746f20333325600082015250565b600061359f602083612ba0565b91506135aa82613569565b602082019050919050565b600060208201905081810360008301526135ce81613592565b9050919050565b7f4e487b7100000000000000000000000000000000000000000000000000000000600052601160045260246000fd5b600061360f82612c47565b915061361a83612c47565b925082820261362881612c47565b9150828204841483151761363f5761363e6135d5565b5b5092915050565b7f4e487b7100000000000000000000000000000000000000000000000000000000600052601260045260246000fd5b600061368082612c47565b915061368b83612c47565b92508261369b5761369a613646565b5b828204905092915050565b7f4552433732313a20696e76616c696420746f6b656e2049440000000000000000600082015250565b60006136dc601883612ba0565b91506136e7826136a6565b602082019050919050565b6000602082019050818103600083015261370b816136cf565b9050919050565b7f4552433732313a2061646472657373207a65726f206973206e6f74206120766160008201527f6c6964206f776e65720000000000000000000000000000000000000000000000602082015250565b600061376e602983612ba0565b915061377982613712565b604082019050919050565b6000602082019050818103600083015261379d81613761565b9050919050565b7f4d696e74696e67206973206e6f74206f70656e00000000000000000000000000600082015250565b60006137da601383612ba0565b91506137e5826137a4565b602082019050919050565b60006020820190508181036000830152613809816137cd565b9050919050565b7f546f6b656e20494420697320746f6f2068696768000000000000000000000000600082015250565b6000613846601483612ba0565b915061385182613810565b602082019050919050565b6000602082019050818103600083015261387581613839565b9050919050565b7f596f7520617265206e6f7420616c6c6f77656420746f206d696e74207468697360008201527f20746f6b656e0000000000000000000000000000000000000000000000000000602082015250565b60006138d8602683612ba0565b91506138e38261387c565b604082019050919050565b60006020820190508181036000830152613907816138cb565b9050919050565b7f546f6b656e2068617320616c7265616479206265656e206d696e746564000000600082015250565b6000613944601d83612ba0565b915061394f8261390e565b602082019050919050565b6000602082019050818103600083015261397381613937565b9050919050565b7f546f6b656e20494420746f6f206c6f7700000000000000000000000000000000600082015250565b60006139b0601083612ba0565b91506139bb8261397a565b602082019050919050565b600060208201905081810360008301526139df816139a3565b9050919050565b60006139f182612c47565b91507fffffffffffffffffffffffffffffffffffffffffffffffffffffffffffffffff8203613a2357613a226135d5565b5b600182019050919050565b600081905092915050565b6000613a4482612b95565b613a4e8185613a2e565b9350613a5e818560208601612bb1565b80840191505092915050565b6000613a768284613a39565b915081905092915050565b7f4f776e61626c653a206e6577206f776e657220697320746865207a65726f206160008201527f6464726573730000000000000000000000000000000000000000000000000000602082015250565b6000613add602683612ba0565b9150613ae882613a81565b604082019050919050565b60006020820190508181036000830152613b0c81613ad0565b9050919050565b6000613b1e82612c47565b9150613b2983612c47565b9250828201905080821115613b4157613b406135d5565b5b92915050565b7f4552433732313a207472616e736665722066726f6d20696e636f72726563742060008201527f6f776e6572000000000000000000000000000000000000000000000000000000602082015250565b6000613ba3602583612ba0565b9150613bae82613b47565b604082019050919050565b60006020820190508181036000830152613bd281613b96565b9050919050565b7f4552433732313a207472616e7366657220746f20746865207a65726f2061646460008201527f7265737300000000000000000000000000000000000000000000000000000000602082015250565b6000613c35602483612ba0565b9150613c4082613bd9565b604082019050919050565b60006020820190508181036000830152613c6481613c28565b9050919050565b7f4f776e61626c653a2063616c6c6572206973206e6f7420746865206f776e6572600082015250565b6000613ca1602083612ba0565b9150613cac82613c6b565b602082019050919050565b60006020820190508181036000830152613cd081613c94565b9050919050565b7f4552433732313a20617070726f766520746f2063616c6c657200000000000000600082015250565b6000613d0d601983612ba0565b9150613d1882613cd7565b602082019050919050565b60006020820190508181036000830152613d3c81613d00565b9050919050565b7f4552433732313a207472616e7366657220746f206e6f6e20455243373231526560008201527f63656976657220696d706c656d656e7465720000000000000000000000000000602082015250565b6000613d9f603283612ba0565b9150613daa82613d43565b604082019050919050565b60006020820190508181036000830152613dce81613d92565b9050919050565b6000613de082612c47565b9150613deb83612c47565b9250828203905081811115613e0357613e026135d5565b5b92915050565b600081519050919050565b600082825260208201905092915050565b6000613e3082613e09565b613e3a8185613e14565b9350613e4a818560208601612bb1565b613e5381612bdb565b840191505092915050565b6000608082019050613e736000830187612cdc565b613e806020830186612cdc565b613e8d6040830185612d72565b8181036060830152613e9f8184613e25565b905095945050505050565b600081519050613eb981612b06565b92915050565b600060208284031215613ed557613ed4612ad0565b5b6000613ee384828501613eaa565b91505092915050565b7f4552433732313a206d696e7420746f20746865207a65726f2061646472657373600082015250565b6000613f22602083612ba0565b9150613f2d82613eec565b602082019050919050565b60006020820190508181036000830152613f5181613f15565b9050919050565b7f4552433732313a20746f6b656e20616c7265616479206d696e74656400000000600082015250565b6000613f8e601c83612ba0565b9150613f9982613f58565b602082019050919050565b60006020820190508181036000830152613fbd81613f81565b905091905056fe697066733a2f2f516d59326150435a514e76735a55517655533267366343536d644c58756872486e525545636f4c66777939485734a2646970667358221220b35357b7042e9a2582e2e5a3c19d404243be21444f1c67e4ffadb52aed38435764736f6c63430008110033",
  "immutableReferences": {},
  "source": "// SPDX-License-Identifier: MIT\npragma solidity >=0.4.22 <0.9.0;\n\nimport \"@openzeppelin/contracts/access/Ownable.sol\";\nimport \"./Stacks.sol\";\n\ncontract StacksAuctionHouse is Ownable, Stacks {\n  mapping(uint => Auction) public auctions;\n  mapping(uint => address payable) public auctionWinner;\n  uint public totalAuctions = 0;\n  address payable public treasuryAddress;\n\n  struct Auction {\n    uint endPrice;\n    uint startTime;\n    uint endTime;\n    bool active;\n  }\n\n  constructor(address payable _treasuryAddress) {\n    treasuryAddress = _treasuryAddress;\n\n    uint startTime = 1677628800; // Wed Mar 01 2023 00:00:00 GMT+0000\n    // Create the first auction\n    auctions[0] = Auction({\n      endPrice: 0,\n      startTime: startTime,\n      endTime: startTime + 1 days,\n      active: true\n    });\n    // Create the second auction\n    startAuction(1);\n  }\n\n  function getCurrentAuction() public view returns (Auction memory) {\n    return auctions[totalAuctions];\n  }\n\n  function getAuction(uint _tokenId) public view returns (Auction memory) {\n    return auctions[_tokenId];\n  }\n\n  function bid() public payable {\n    Auction memory auction = getCurrentAuction();\n    require(msg.value > auction.endPrice, \"Bid is too low\");\n    uint lastBid = auction.endPrice;\n    address payable lastBidder = auctionWinner[totalAuctions];\n    // update the auction\n    auctionWinner[totalAuctions] = payable(msg.sender);\n    auctions[totalAuctions].endPrice = msg.value;\n    // refund last bidder\n    lastBidder.transfer(lastBid);\n    // after-bid callback\n    if (auction.endTime < block.timestamp && auction.active) {\n      closeAuction(totalAuctions);\n    }\n  }\n\n  function closeAuction(uint _tokenId) private {\n    Auction memory auction = auctions[_tokenId];\n    // close the auction and open the next one\n    auction.active = false;\n    auctions[_tokenId + 1].active = true;\n    // create new auction ahead of the current one\n    startAuction(_tokenId + 2);\n    // total auctions gets incremented when the auction is finished\n    totalAuctions++;\n    // then winner can mint\n    allowMint(_tokenId);\n    // move funds to the treasury\n    treasuryAddress.transfer(auction.endPrice);\n  }\n\n  function startAuction(uint _tokenId) private {\n    // this must run 1 in advance of the auction.\n    // [0, 1, 2 (current), 3] --> when current moves to 3, then the 4th is created\n    Auction memory lastAuction = auctions[_tokenId - 1];\n    auctions[_tokenId] = Auction({\n      endPrice: 0,\n      startTime: lastAuction.endTime + 1, // 1 second after the last auction ends\n      endTime: lastAuction.endTime + 1 days, // 1 day after the last auction ends\n      active: false\n    });\n  }\n\n  function allowMint(uint _tokenId) private {\n    // Allow the winner to mint the token on the Stacks contract\n    addAvailableForMint(_tokenId, auctionWinner[_tokenId]);\n  }\n\n  // Admin functions\n  function setTreasuryAddress(address payable _treasuryAddress) public onlyOwner {\n    treasuryAddress = _treasuryAddress;\n  }\n}\n",
  "sourcePath": "/Users/bruno/dev/crypto/stacks/contracts/StacksAuctionHouse.sol",
  "compiler": {
    "name": "solc",
    "version": "0.8.17+commit.8df45f5f.Emscripten.clang"
  },
  "schemaVersion": "3.4.10",
  "updatedAt": "2023-01-29T20:02:49.170Z",
  "devdoc": {
    "kind": "dev",
    "methods": {
      "approve(address,uint256)": {
        "details": "See {IERC721-approve}."
      },
      "balanceOf(address)": {
        "details": "See {IERC721-balanceOf}."
      },
      "getApproved(uint256)": {
        "details": "See {IERC721-getApproved}."
      },
      "isApprovedForAll(address,address)": {
        "details": "See {IERC721-isApprovedForAll}."
      },
      "name()": {
        "details": "See {IERC721Metadata-name}."
      },
      "owner()": {
        "details": "Returns the address of the current owner."
      },
      "ownerOf(uint256)": {
        "details": "See {IERC721-ownerOf}."
      },
      "renounceOwnership()": {
        "details": "Leaves the contract without owner. It will not be possible to call `onlyOwner` functions anymore. Can only be called by the current owner. NOTE: Renouncing ownership will leave the contract without an owner, thereby removing any functionality that is only available to the owner."
      },
      "safeTransferFrom(address,address,uint256)": {
        "details": "See {IERC721-safeTransferFrom}."
      },
      "safeTransferFrom(address,address,uint256,bytes)": {
        "details": "See {IERC721-safeTransferFrom}."
      },
      "setApprovalForAll(address,bool)": {
        "details": "See {IERC721-setApprovalForAll}."
      },
      "symbol()": {
        "details": "See {IERC721Metadata-symbol}."
      },
      "transferFrom(address,address,uint256)": {
        "details": "See {IERC721-transferFrom}."
      },
      "transferOwnership(address)": {
        "details": "Transfers ownership of the contract to a new account (`newOwner`). Can only be called by the current owner."
      }
    },
    "version": 1
  },
  "userdoc": {
    "kind": "user",
    "methods": {},
    "version": 1
  }
}