{
  "contractName": "StacksAuctionHouse",
  "abi": [
    {
      "inputs": [
        {
          "internalType": "address payable",
          "name": "_treasuryAddress",
          "type": "address"
        }
      ],
      "stateMutability": "nonpayable",
      "type": "constructor"
    },
    {
      "anonymous": false,
      "inputs": [
        {
          "indexed": true,
          "internalType": "address",
          "name": "previousOwner",
          "type": "address"
        },
        {
          "indexed": true,
          "internalType": "address",
          "name": "newOwner",
          "type": "address"
        }
      ],
      "name": "OwnershipTransferred",
      "type": "event"
    },
    {
      "inputs": [],
      "name": "auctionOpened",
      "outputs": [
        {
          "internalType": "bool",
          "name": "",
          "type": "bool"
        }
      ],
      "stateMutability": "view",
      "type": "function",
      "constant": true
    },
    {
      "inputs": [
        {
          "internalType": "uint256",
          "name": "",
          "type": "uint256"
        }
      ],
      "name": "auctions",
      "outputs": [
        {
          "internalType": "uint256",
          "name": "endPrice",
          "type": "uint256"
        },
        {
          "internalType": "address payable",
          "name": "topBidder",
          "type": "address"
        },
        {
          "internalType": "uint256",
          "name": "startTime",
          "type": "uint256"
        },
        {
          "internalType": "uint256",
          "name": "endTime",
          "type": "uint256"
        },
        {
          "internalType": "bool",
          "name": "closed",
          "type": "bool"
        }
      ],
      "stateMutability": "view",
      "type": "function",
      "constant": true
    },
    {
      "inputs": [],
      "name": "createdAuctions",
      "outputs": [
        {
          "internalType": "uint256",
          "name": "",
          "type": "uint256"
        }
      ],
      "stateMutability": "view",
      "type": "function",
      "constant": true
    },
    {
      "inputs": [],
      "name": "owner",
      "outputs": [
        {
          "internalType": "address",
          "name": "",
          "type": "address"
        }
      ],
      "stateMutability": "view",
      "type": "function",
      "constant": true
    },
    {
      "inputs": [],
      "name": "renounceOwnership",
      "outputs": [],
      "stateMutability": "nonpayable",
      "type": "function"
    },
    {
      "inputs": [
        {
          "internalType": "address",
          "name": "newOwner",
          "type": "address"
        }
      ],
      "name": "transferOwnership",
      "outputs": [],
      "stateMutability": "nonpayable",
      "type": "function"
    },
    {
      "inputs": [],
      "name": "treasuryAddress",
      "outputs": [
        {
          "internalType": "address payable",
          "name": "",
          "type": "address"
        }
      ],
      "stateMutability": "view",
      "type": "function",
      "constant": true
    },
    {
      "inputs": [
        {
          "internalType": "address",
          "name": "",
          "type": "address"
        },
        {
          "internalType": "uint256",
          "name": "",
          "type": "uint256"
        }
      ],
      "name": "userAuctionsWon",
      "outputs": [
        {
          "internalType": "uint256",
          "name": "",
          "type": "uint256"
        }
      ],
      "stateMutability": "view",
      "type": "function",
      "constant": true
    },
    {
      "inputs": [
        {
          "internalType": "address",
          "name": "_user",
          "type": "address"
        }
      ],
      "name": "getUserAuctionsWon",
      "outputs": [
        {
          "internalType": "uint256[]",
          "name": "",
          "type": "uint256[]"
        }
      ],
      "stateMutability": "view",
      "type": "function",
      "constant": true
    },
    {
      "inputs": [],
      "name": "getCurrentWinner",
      "outputs": [
        {
          "internalType": "address payable",
          "name": "",
          "type": "address"
        }
      ],
      "stateMutability": "view",
      "type": "function",
      "constant": true
    },
    {
      "inputs": [
        {
          "internalType": "uint256",
          "name": "_tokenId",
          "type": "uint256"
        }
      ],
      "name": "getAuctionWinner",
      "outputs": [
        {
          "internalType": "address payable",
          "name": "",
          "type": "address"
        }
      ],
      "stateMutability": "view",
      "type": "function",
      "constant": true
    },
    {
      "inputs": [],
      "name": "getCurrentAuction",
      "outputs": [
        {
          "components": [
            {
              "internalType": "uint256",
              "name": "endPrice",
              "type": "uint256"
            },
            {
              "internalType": "address payable",
              "name": "topBidder",
              "type": "address"
            },
            {
              "internalType": "uint256",
              "name": "startTime",
              "type": "uint256"
            },
            {
              "internalType": "uint256",
              "name": "endTime",
              "type": "uint256"
            },
            {
              "internalType": "bool",
              "name": "closed",
              "type": "bool"
            }
          ],
          "internalType": "struct StacksAuctionHouse.Auction",
          "name": "",
          "type": "tuple"
        }
      ],
      "stateMutability": "view",
      "type": "function",
      "constant": true
    },
    {
      "inputs": [],
      "name": "getLastCreatedAuction",
      "outputs": [
        {
          "components": [
            {
              "internalType": "uint256",
              "name": "endPrice",
              "type": "uint256"
            },
            {
              "internalType": "address payable",
              "name": "topBidder",
              "type": "address"
            },
            {
              "internalType": "uint256",
              "name": "startTime",
              "type": "uint256"
            },
            {
              "internalType": "uint256",
              "name": "endTime",
              "type": "uint256"
            },
            {
              "internalType": "bool",
              "name": "closed",
              "type": "bool"
            }
          ],
          "internalType": "struct StacksAuctionHouse.Auction",
          "name": "",
          "type": "tuple"
        }
      ],
      "stateMutability": "view",
      "type": "function",
      "constant": true
    },
    {
      "inputs": [
        {
          "internalType": "uint256",
          "name": "_tokenId",
          "type": "uint256"
        }
      ],
      "name": "getAuction",
      "outputs": [
        {
          "components": [
            {
              "internalType": "uint256",
              "name": "endPrice",
              "type": "uint256"
            },
            {
              "internalType": "address payable",
              "name": "topBidder",
              "type": "address"
            },
            {
              "internalType": "uint256",
              "name": "startTime",
              "type": "uint256"
            },
            {
              "internalType": "uint256",
              "name": "endTime",
              "type": "uint256"
            },
            {
              "internalType": "bool",
              "name": "closed",
              "type": "bool"
            }
          ],
          "internalType": "struct StacksAuctionHouse.Auction",
          "name": "",
          "type": "tuple"
        }
      ],
      "stateMutability": "view",
      "type": "function",
      "constant": true
    },
    {
      "inputs": [],
      "name": "bid",
      "outputs": [],
      "stateMutability": "payable",
      "type": "function",
      "payable": true
    },
    {
      "inputs": [
        {
          "internalType": "uint256",
          "name": "_tokenId",
          "type": "uint256"
        }
      ],
      "name": "closeAuction",
      "outputs": [],
      "stateMutability": "nonpayable",
      "type": "function"
    },
    {
      "inputs": [
        {
          "internalType": "address payable",
          "name": "_treasuryAddress",
          "type": "address"
        }
      ],
      "name": "setTreasuryAddress",
      "outputs": [],
      "stateMutability": "nonpayable",
      "type": "function"
    },
    {
      "inputs": [
        {
          "internalType": "bool",
          "name": "_open",
          "type": "bool"
        }
      ],
      "name": "setAuctionOpened",
      "outputs": [],
      "stateMutability": "nonpayable",
      "type": "function"
    },
    {
      "inputs": [
        {
          "internalType": "uint256",
          "name": "_amount",
          "type": "uint256"
        }
      ],
      "name": "createAuctions",
      "outputs": [],
      "stateMutability": "nonpayable",
      "type": "function"
    },
    {
      "inputs": [],
      "name": "daysSinceStart",
      "outputs": [
        {
          "internalType": "uint256",
          "name": "",
          "type": "uint256"
        }
      ],
      "stateMutability": "view",
      "type": "function",
      "constant": true
    }
  ],
  "bytecode": "0x608060405260006003556001600460146101000a81548160ff0219169083151502179055506363e6da806005553480156200003957600080fd5b506040516200231a3803806200231a83398181016040528101906200005f919062000625565b6200007f62000073620001f260201b60201c565b620001fa60201b60201c565b80600460006101000a81548173ffffffffffffffffffffffffffffffffffffffff021916908373ffffffffffffffffffffffffffffffffffffffff1602179055506040518060a0016040528060008152602001600073ffffffffffffffffffffffffffffffffffffffff16815260200160055481526020016001620151806005546200010c919062000690565b620001189190620006cb565b815260200160001515815250600160008081526020019081526020016000206000820151816000015560208201518160010160006101000a81548173ffffffffffffffffffffffffffffffffffffffff021916908373ffffffffffffffffffffffffffffffffffffffff160217905550604082015181600201556060820151816003015560808201518160040160006101000a81548160ff02191690831515021790555090505060036000815480929190620001d49062000706565b9190505550620001eb601e620002be60201b60201c565b50620007d6565b600033905090565b60008060009054906101000a900473ffffffffffffffffffffffffffffffffffffffff169050816000806101000a81548173ffffffffffffffffffffffffffffffffffffffff021916908373ffffffffffffffffffffffffffffffffffffffff1602179055508173ffffffffffffffffffffffffffffffffffffffff168173ffffffffffffffffffffffffffffffffffffffff167f8be0079c531659141344cd1fd0a4f28419497f9722a3daafe3b4186f6b6457e060405160405180910390a35050565b620002ce6200031e60201b60201c565b600081600354620002e0919062000690565b9050600060035490505b81811015620003195762000303620003af60201b60201c565b8080620003109062000706565b915050620002ea565b505050565b6200032e620001f260201b60201c565b73ffffffffffffffffffffffffffffffffffffffff16620003546200059260201b60201c565b73ffffffffffffffffffffffffffffffffffffffff1614620003ad576040517f08c379a0000000000000000000000000000000000000000000000000000000008152600401620003a490620007b4565b60405180910390fd5b565b6000600160006001600354620003c69190620006cb565b81526020019081526020016000206040518060a0016040529081600082015481526020016001820160009054906101000a900473ffffffffffffffffffffffffffffffffffffffff1673ffffffffffffffffffffffffffffffffffffffff1673ffffffffffffffffffffffffffffffffffffffff16815260200160028201548152602001600382015481526020016004820160009054906101000a900460ff16151515158152505090506040518060a0016040528060008152602001600073ffffffffffffffffffffffffffffffffffffffff16815260200160018360600151620004b2919062000690565b8152602001620151808360600151620004cc919062000690565b8152602001600015158152506001600060035481526020019081526020016000206000820151816000015560208201518160010160006101000a81548173ffffffffffffffffffffffffffffffffffffffff021916908373ffffffffffffffffffffffffffffffffffffffff160217905550604082015181600201556060820151816003015560808201518160040160006101000a81548160ff021916908315150217905550905050600360008154809291906200058a9062000706565b919050555050565b60008060009054906101000a900473ffffffffffffffffffffffffffffffffffffffff16905090565b600080fd5b600073ffffffffffffffffffffffffffffffffffffffff82169050919050565b6000620005ed82620005c0565b9050919050565b620005ff81620005e0565b81146200060b57600080fd5b50565b6000815190506200061f81620005f4565b92915050565b6000602082840312156200063e576200063d620005bb565b5b60006200064e848285016200060e565b91505092915050565b6000819050919050565b7f4e487b7100000000000000000000000000000000000000000000000000000000600052601160045260246000fd5b60006200069d8262000657565b9150620006aa8362000657565b9250828201905080821115620006c557620006c462000661565b5b92915050565b6000620006d88262000657565b9150620006e58362000657565b92508282039050818111156200070057620006ff62000661565b5b92915050565b6000620007138262000657565b91507fffffffffffffffffffffffffffffffffffffffffffffffffffffffffffffffff820362000748576200074762000661565b5b600182019050919050565b600082825260208201905092915050565b7f4f776e61626c653a2063616c6c6572206973206e6f7420746865206f776e6572600082015250565b60006200079c60208362000753565b9150620007a98262000764565b602082019050919050565b60006020820190508181036000830152620007cf816200078d565b9050919050565b611b3480620007e66000396000f3fe60806040526004361061011f5760003560e01c80638da5cb5b116100a0578063d72852e911610064578063d72852e9146103a6578063dcb66f12146103e3578063f22d98341461040e578063f2fde38b14610439578063fb678613146104625761011f565b80638da5cb5b146102d3578063932247cf146102fe578063985d27cc14610327578063acc49d8814610352578063c5f956af1461037b5761011f565b8063329bfc33116100e7578063329bfc33146101ea578063571a26a0146102155780636605bfda14610256578063715018a61461027f57806378bd7935146102965761011f565b8063083d353b1461012457806317cf813e146101615780631998aeef1461018c578063236ed8f3146101965780632b29bd0e146101bf575b600080fd5b34801561013057600080fd5b5061014b600480360381019061014691906112f9565b61049f565b6040516101589190611367565b60405180910390f35b34801561016d57600080fd5b506101766104df565b6040516101839190611391565b60405180910390f35b610194610502565b005b3480156101a257600080fd5b506101bd60048036038101906101b891906112f9565b610788565b005b3480156101cb57600080fd5b506101d4610893565b6040516101e191906113c7565b60405180910390f35b3480156101f657600080fd5b506101ff6108a6565b60405161020c9190611367565b60405180910390f35b34801561022157600080fd5b5061023c600480360381019061023791906112f9565b6108eb565b60405161024d9594939291906113e2565b60405180910390f35b34801561026257600080fd5b5061027d60048036038101906102789190611461565b61094e565b005b34801561028b57600080fd5b5061029461099a565b005b3480156102a257600080fd5b506102bd60048036038101906102b891906112f9565b6109ae565b6040516102ca9190611523565b60405180910390f35b3480156102df57600080fd5b506102e8610a6a565b6040516102f5919061155f565b60405180910390f35b34801561030a57600080fd5b50610325600480360381019061032091906115a6565b610a93565b005b34801561033357600080fd5b5061033c610ab8565b6040516103499190611523565b60405180910390f35b34801561035e57600080fd5b50610379600480360381019061037491906112f9565b610b80565b005b34801561038757600080fd5b50610390610bca565b60405161039d9190611367565b60405180910390f35b3480156103b257600080fd5b506103cd60048036038101906103c891906115ff565b610bf0565b6040516103da91906116db565b60405180910390f35b3480156103ef57600080fd5b506103f8610c87565b6040516104059190611523565b60405180910390f35b34801561041a57600080fd5b50610423610d48565b6040516104309190611391565b60405180910390f35b34801561044557600080fd5b50610460600480360381019061045b91906115ff565b610d4e565b005b34801561046e57600080fd5b50610489600480360381019061048491906116fd565b610dd1565b6040516104969190611391565b60405180910390f35b60006001600083815260200190815260200160002060010160009054906101000a900473ffffffffffffffffffffffffffffffffffffffff169050919050565b600062015180600554426104f3919061176c565b6104fd91906117cf565b905090565b600460149054906101000a900460ff16610551576040517f08c379a00000000000000000000000000000000000000000000000000000000081526004016105489061185d565b60405180910390fd5b600061055b610c87565b905060006105676104df565b90506000349050826000015181116105b4576040517f08c379a00000000000000000000000000000000000000000000000000000000081526004016105ab906118c9565b60405180910390fd5b600083600001519050600084602001519050336001600086815260200190815260200160002060010160006101000a81548173ffffffffffffffffffffffffffffffffffffffff021916908373ffffffffffffffffffffffffffffffffffffffff160217905550826001600086815260200190815260200160002060000181905550600260003373ffffffffffffffffffffffffffffffffffffffff1673ffffffffffffffffffffffffffffffffffffffff168152602001908152602001600020849080600181540180825580915050600190039060005260206000200160009091909190915055600260008273ffffffffffffffffffffffffffffffffffffffff1673ffffffffffffffffffffffffffffffffffffffff1681526020019081526020016000208054806106eb576106ea6118e9565b5b600190038181906000526020600020016000905590558073ffffffffffffffffffffffffffffffffffffffff166108fc839081150290604051600060405180830381858888f19350505050158015610747573d6000803e3d6000fd5b50600061075f60018661075a919061176c565b6109ae565b905080608001516107805761077f60018661077a919061176c565b610e02565b5b505050505050565b610790610f52565b6000600160008381526020019081526020016000206040518060a0016040529081600082015481526020016001820160009054906101000a900473ffffffffffffffffffffffffffffffffffffffff1673ffffffffffffffffffffffffffffffffffffffff1673ffffffffffffffffffffffffffffffffffffffff16815260200160028201548152602001600382015481526020016004820160009054906101000a900460ff1615151515815250509050806080015115610886576040517f08c379a000000000000000000000000000000000000000000000000000000000815260040161087d90611964565b60405180910390fd5b61088f82610e02565b5050565b600460149054906101000a900460ff1681565b6000600160006108b46104df565b815260200190815260200160002060010160009054906101000a900473ffffffffffffffffffffffffffffffffffffffff16905090565b60016020528060005260406000206000915090508060000154908060010160009054906101000a900473ffffffffffffffffffffffffffffffffffffffff16908060020154908060030154908060040160009054906101000a900460ff16905085565b610956610f52565b80600460006101000a81548173ffffffffffffffffffffffffffffffffffffffff021916908373ffffffffffffffffffffffffffffffffffffffff16021790555050565b6109a2610f52565b6109ac6000610fd0565b565b6109b6611277565b600160008381526020019081526020016000206040518060a0016040529081600082015481526020016001820160009054906101000a900473ffffffffffffffffffffffffffffffffffffffff1673ffffffffffffffffffffffffffffffffffffffff1673ffffffffffffffffffffffffffffffffffffffff16815260200160028201548152602001600382015481526020016004820160009054906101000a900460ff1615151515815250509050919050565b60008060009054906101000a900473ffffffffffffffffffffffffffffffffffffffff16905090565b610a9b610f52565b80600460146101000a81548160ff02191690831515021790555050565b610ac0611277565b600160006001600354610ad3919061176c565b81526020019081526020016000206040518060a0016040529081600082015481526020016001820160009054906101000a900473ffffffffffffffffffffffffffffffffffffffff1673ffffffffffffffffffffffffffffffffffffffff1673ffffffffffffffffffffffffffffffffffffffff16815260200160028201548152602001600382015481526020016004820160009054906101000a900460ff161515151581525050905090565b610b88610f52565b600081600354610b989190611984565b9050600060035490505b81811015610bc557610bb2611094565b8080610bbd906119b8565b915050610ba2565b505050565b600460009054906101000a900473ffffffffffffffffffffffffffffffffffffffff1681565b6060600260008373ffffffffffffffffffffffffffffffffffffffff1673ffffffffffffffffffffffffffffffffffffffff168152602001908152602001600020805480602002602001604051908101604052809291908181526020018280548015610c7b57602002820191906000526020600020905b815481526020019060010190808311610c67575b50505050509050919050565b610c8f611277565b60016000610c9b6104df565b81526020019081526020016000206040518060a0016040529081600082015481526020016001820160009054906101000a900473ffffffffffffffffffffffffffffffffffffffff1673ffffffffffffffffffffffffffffffffffffffff1673ffffffffffffffffffffffffffffffffffffffff16815260200160028201548152602001600382015481526020016004820160009054906101000a900460ff161515151581525050905090565b60035481565b610d56610f52565b600073ffffffffffffffffffffffffffffffffffffffff168173ffffffffffffffffffffffffffffffffffffffff1603610dc5576040517f08c379a0000000000000000000000000000000000000000000000000000000008152600401610dbc90611a72565b60405180910390fd5b610dce81610fd0565b50565b60026020528160005260406000208181548110610ded57600080fd5b90600052602060002001600091509150505481565b6000600160008381526020019081526020016000206040518060a0016040529081600082015481526020016001820160009054906101000a900473ffffffffffffffffffffffffffffffffffffffff1673ffffffffffffffffffffffffffffffffffffffff1673ffffffffffffffffffffffffffffffffffffffff16815260200160028201548152602001600382015481526020016004820160009054906101000a900460ff1615151515815250509050600180600084815260200190815260200160002060040160006101000a81548160ff021916908315150217905550600460009054906101000a900473ffffffffffffffffffffffffffffffffffffffff1673ffffffffffffffffffffffffffffffffffffffff166108fc82600001519081150290604051600060405180830381858888f19350505050158015610f4d573d6000803e3d6000fd5b505050565b610f5a61126f565b73ffffffffffffffffffffffffffffffffffffffff16610f78610a6a565b73ffffffffffffffffffffffffffffffffffffffff1614610fce576040517f08c379a0000000000000000000000000000000000000000000000000000000008152600401610fc590611ade565b60405180910390fd5b565b60008060009054906101000a900473ffffffffffffffffffffffffffffffffffffffff169050816000806101000a81548173ffffffffffffffffffffffffffffffffffffffff021916908373ffffffffffffffffffffffffffffffffffffffff1602179055508173ffffffffffffffffffffffffffffffffffffffff168173ffffffffffffffffffffffffffffffffffffffff167f8be0079c531659141344cd1fd0a4f28419497f9722a3daafe3b4186f6b6457e060405160405180910390a35050565b60006001600060016003546110a9919061176c565b81526020019081526020016000206040518060a0016040529081600082015481526020016001820160009054906101000a900473ffffffffffffffffffffffffffffffffffffffff1673ffffffffffffffffffffffffffffffffffffffff1673ffffffffffffffffffffffffffffffffffffffff16815260200160028201548152602001600382015481526020016004820160009054906101000a900460ff16151515158152505090506040518060a0016040528060008152602001600073ffffffffffffffffffffffffffffffffffffffff168152602001600183606001516111939190611984565b81526020016201518083606001516111ab9190611984565b8152602001600015158152506001600060035481526020019081526020016000206000820151816000015560208201518160010160006101000a81548173ffffffffffffffffffffffffffffffffffffffff021916908373ffffffffffffffffffffffffffffffffffffffff160217905550604082015181600201556060820151816003015560808201518160040160006101000a81548160ff02191690831515021790555090505060036000815480929190611267906119b8565b919050555050565b600033905090565b6040518060a0016040528060008152602001600073ffffffffffffffffffffffffffffffffffffffff16815260200160008152602001600081526020016000151581525090565b600080fd5b6000819050919050565b6112d6816112c3565b81146112e157600080fd5b50565b6000813590506112f3816112cd565b92915050565b60006020828403121561130f5761130e6112be565b5b600061131d848285016112e4565b91505092915050565b600073ffffffffffffffffffffffffffffffffffffffff82169050919050565b600061135182611326565b9050919050565b61136181611346565b82525050565b600060208201905061137c6000830184611358565b92915050565b61138b816112c3565b82525050565b60006020820190506113a66000830184611382565b92915050565b60008115159050919050565b6113c1816113ac565b82525050565b60006020820190506113dc60008301846113b8565b92915050565b600060a0820190506113f76000830188611382565b6114046020830187611358565b6114116040830186611382565b61141e6060830185611382565b61142b60808301846113b8565b9695505050505050565b61143e81611346565b811461144957600080fd5b50565b60008135905061145b81611435565b92915050565b600060208284031215611477576114766112be565b5b60006114858482850161144c565b91505092915050565b611497816112c3565b82525050565b6114a681611346565b82525050565b6114b5816113ac565b82525050565b60a0820160008201516114d1600085018261148e565b5060208201516114e4602085018261149d565b5060408201516114f7604085018261148e565b50606082015161150a606085018261148e565b50608082015161151d60808501826114ac565b50505050565b600060a08201905061153860008301846114bb565b92915050565b600061154982611326565b9050919050565b6115598161153e565b82525050565b60006020820190506115746000830184611550565b92915050565b611583816113ac565b811461158e57600080fd5b50565b6000813590506115a08161157a565b92915050565b6000602082840312156115bc576115bb6112be565b5b60006115ca84828501611591565b91505092915050565b6115dc8161153e565b81146115e757600080fd5b50565b6000813590506115f9816115d3565b92915050565b600060208284031215611615576116146112be565b5b6000611623848285016115ea565b91505092915050565b600081519050919050565b600082825260208201905092915050565b6000819050602082019050919050565b6000611664838361148e565b60208301905092915050565b6000602082019050919050565b60006116888261162c565b6116928185611637565b935061169d83611648565b8060005b838110156116ce5781516116b58882611658565b97506116c083611670565b9250506001810190506116a1565b5085935050505092915050565b600060208201905081810360008301526116f5818461167d565b905092915050565b60008060408385031215611714576117136112be565b5b6000611722858286016115ea565b9250506020611733858286016112e4565b9150509250929050565b7f4e487b7100000000000000000000000000000000000000000000000000000000600052601160045260246000fd5b6000611777826112c3565b9150611782836112c3565b925082820390508181111561179a5761179961173d565b5b92915050565b7f4e487b7100000000000000000000000000000000000000000000000000000000600052601260045260246000fd5b60006117da826112c3565b91506117e5836112c3565b9250826117f5576117f46117a0565b5b828204905092915050565b600082825260208201905092915050565b7f41756374696f6e20697320636c6f736564000000000000000000000000000000600082015250565b6000611847601183611800565b915061185282611811565b602082019050919050565b600060208201905081810360008301526118768161183a565b9050919050565b7f42696420697320746f6f206c6f77000000000000000000000000000000000000600082015250565b60006118b3600e83611800565b91506118be8261187d565b602082019050919050565b600060208201905081810360008301526118e2816118a6565b9050919050565b7f4e487b7100000000000000000000000000000000000000000000000000000000600052603160045260246000fd5b7f41756374696f6e20616c726561647920636c6f73656400000000000000000000600082015250565b600061194e601683611800565b915061195982611918565b602082019050919050565b6000602082019050818103600083015261197d81611941565b9050919050565b600061198f826112c3565b915061199a836112c3565b92508282019050808211156119b2576119b161173d565b5b92915050565b60006119c3826112c3565b91507fffffffffffffffffffffffffffffffffffffffffffffffffffffffffffffffff82036119f5576119f461173d565b5b600182019050919050565b7f4f776e61626c653a206e6577206f776e657220697320746865207a65726f206160008201527f6464726573730000000000000000000000000000000000000000000000000000602082015250565b6000611a5c602683611800565b9150611a6782611a00565b604082019050919050565b60006020820190508181036000830152611a8b81611a4f565b9050919050565b7f4f776e61626c653a2063616c6c6572206973206e6f7420746865206f776e6572600082015250565b6000611ac8602083611800565b9150611ad382611a92565b602082019050919050565b60006020820190508181036000830152611af781611abb565b905091905056fea264697066735822122000d7124955e4203d66d962f01222da49120f9abfa254bec66f9cc4428a9b03f164736f6c63430008110033",
  "immutableReferences": {},
  "source": "// SPDX-License-Identifier: MIT\npragma solidity >=0.4.22 <0.9.0;\n\nimport \"@openzeppelin/contracts/access/Ownable.sol\";\n\ncontract StacksAuctionHouse is Ownable {\n  mapping(uint => Auction) public auctions;\n  mapping(address => uint[]) public userAuctionsWon;\n\n  uint public createdAuctions = 0;\n  address payable public treasuryAddress;\n  bool public auctionOpened = true;\n  // uint startTimeOfFirstAuction = 1677628800; // Wed Mar 01 2023 00:00:00 GMT+0000\n  uint startTimeOfFirstAuction = 1676073600;  // Test start: Sat Feb 11 2023 00:00:00 GMT+0000\n\n  struct Auction {\n    uint endPrice;\n    address payable topBidder;\n    uint startTime;\n    uint endTime;\n    bool closed;\n  }\n\n  constructor(address payable _treasuryAddress) {\n    treasuryAddress = _treasuryAddress;\n    // Create the first auction\n    auctions[0] = Auction({\n      endPrice: 0,\n      topBidder: payable(address(0)),\n      startTime: startTimeOfFirstAuction,\n      endTime: (startTimeOfFirstAuction + 1 days) - 1,\n      closed: false\n    });\n    createdAuctions++;\n    // Create next 30 auctions\n    createAuctions(30);\n  }\n\n  function getUserAuctionsWon(address _user) public view returns (uint[] memory) {\n    return userAuctionsWon[_user];\n  }\n\n  function getCurrentWinner() public view returns (address payable) {\n    return auctions[daysSinceStart()].topBidder;\n  }\n\n  function getAuctionWinner(uint _tokenId) public view returns (address payable) {\n    return auctions[_tokenId].topBidder;\n  }\n\n  function getCurrentAuction() public view returns (Auction memory) {\n    return auctions[daysSinceStart()];\n  }\n\n  function getLastCreatedAuction() public view returns (Auction memory) {\n    return auctions[createdAuctions - 1];\n  }\n\n  function getAuction(uint _tokenId) public view returns (Auction memory) {\n    return auctions[_tokenId];\n  }\n\n  function bid() public payable {\n    require(auctionOpened, \"Auction is closed\");\n    Auction memory auction = getCurrentAuction();\n    uint auctionId = daysSinceStart();\n    uint paidVal = msg.value;\n\n    require(paidVal > auction.endPrice, \"Bid is too low\");\n    uint lastBid = auction.endPrice;\n    address payable lastBidder = auction.topBidder;\n    // update the auction\n    auctions[auctionId].topBidder = payable(msg.sender);\n    auctions[auctionId].endPrice = paidVal;\n    userAuctionsWon[msg.sender].push(auctionId);\n\n    // refund last bidder\n    userAuctionsWon[lastBidder].pop();\n    lastBidder.transfer(lastBid);\n\n    Auction memory lastAuction = getAuction(auctionId - 1);\n    if(!lastAuction.closed) {\n      _closeAuction(auctionId - 1);\n    }\n  }\n\n  function closeAuction(uint _tokenId) public onlyOwner {\n    Auction memory auction = auctions[_tokenId];\n    require(!auction.closed, \"Auction already closed\");\n    _closeAuction(_tokenId);\n  }\n\n  function _closeAuction(uint _tokenId) private {\n    Auction memory auction = auctions[_tokenId];\n    // close the auction\n    auctions[_tokenId].closed = true;\n    // move funds to the treasury\n    treasuryAddress.transfer(auction.endPrice);\n  }\n\n  // Admin functions\n  function setTreasuryAddress(address payable _treasuryAddress) public onlyOwner {\n    treasuryAddress = _treasuryAddress;\n  }\n\n  function setAuctionOpened(bool _open) public onlyOwner {\n    auctionOpened = _open;\n  }\n\n  // run to create auctions in bulk for the next _amount days\n  function createAuctions(uint _amount) public onlyOwner {\n    uint finalCreatedAuctions = createdAuctions + _amount;\n    for (uint i = createdAuctions; i < finalCreatedAuctions; i++) {\n      createNextAuction();\n    }\n  }\n\n  function createNextAuction() private {\n    Auction memory lastAuction = auctions[createdAuctions - 1];\n    auctions[createdAuctions] = Auction({\n      endPrice: 0,\n      topBidder: payable(address(0)),\n      startTime: lastAuction.endTime + 1, // 1 second after the last auction ends\n      endTime: lastAuction.endTime + 1 days, // 1 day after the last auction ends\n      closed: false\n    });\n    createdAuctions++;\n  }\n\n  // daysSinceStart() same as currentAuctionId()\n  function daysSinceStart() public view returns (uint) {\n    return (block.timestamp - startTimeOfFirstAuction) / 1 days;\n  }\n}\n",
  "sourcePath": "/Users/bruno/dev/crypto/stacks/contracts/StacksAuctionHouse.sol",
  "compiler": {
    "name": "solc",
    "version": "0.8.17+commit.8df45f5f.Emscripten.clang"
  },
  "schemaVersion": "3.4.10",
  "updatedAt": "2023-02-17T13:36:05.662Z",
  "networkType": "ethereum",
  "devdoc": {
    "kind": "dev",
    "methods": {
      "owner()": {
        "details": "Returns the address of the current owner."
      },
      "renounceOwnership()": {
        "details": "Leaves the contract without owner. It will not be possible to call `onlyOwner` functions anymore. Can only be called by the current owner. NOTE: Renouncing ownership will leave the contract without an owner, thereby removing any functionality that is only available to the owner."
      },
      "transferOwnership(address)": {
        "details": "Transfers ownership of the contract to a new account (`newOwner`). Can only be called by the current owner."
      }
    },
    "version": 1
  },
  "userdoc": {
    "kind": "user",
    "methods": {},
    "version": 1
  }
}