{
  "contractName": "StacksAuctionHouse",
  "abi": [
    {
      "inputs": [
        {
          "internalType": "address payable",
          "name": "_treasuryAddress",
          "type": "address"
        }
      ],
      "stateMutability": "nonpayable",
      "type": "constructor"
    },
    {
      "anonymous": false,
      "inputs": [
        {
          "indexed": true,
          "internalType": "address",
          "name": "owner",
          "type": "address"
        },
        {
          "indexed": true,
          "internalType": "address",
          "name": "approved",
          "type": "address"
        },
        {
          "indexed": true,
          "internalType": "uint256",
          "name": "tokenId",
          "type": "uint256"
        }
      ],
      "name": "Approval",
      "type": "event"
    },
    {
      "anonymous": false,
      "inputs": [
        {
          "indexed": true,
          "internalType": "address",
          "name": "owner",
          "type": "address"
        },
        {
          "indexed": true,
          "internalType": "address",
          "name": "operator",
          "type": "address"
        },
        {
          "indexed": false,
          "internalType": "bool",
          "name": "approved",
          "type": "bool"
        }
      ],
      "name": "ApprovalForAll",
      "type": "event"
    },
    {
      "anonymous": false,
      "inputs": [
        {
          "indexed": true,
          "internalType": "address",
          "name": "previousOwner",
          "type": "address"
        },
        {
          "indexed": true,
          "internalType": "address",
          "name": "newOwner",
          "type": "address"
        }
      ],
      "name": "OwnershipTransferred",
      "type": "event"
    },
    {
      "anonymous": false,
      "inputs": [
        {
          "indexed": true,
          "internalType": "address",
          "name": "from",
          "type": "address"
        },
        {
          "indexed": true,
          "internalType": "address",
          "name": "to",
          "type": "address"
        },
        {
          "indexed": true,
          "internalType": "uint256",
          "name": "tokenId",
          "type": "uint256"
        }
      ],
      "name": "Transfer",
      "type": "event"
    },
    {
      "inputs": [],
      "name": "PERCENT_DIVIDER",
      "outputs": [
        {
          "internalType": "uint256",
          "name": "",
          "type": "uint256"
        }
      ],
      "stateMutability": "view",
      "type": "function"
    },
    {
      "inputs": [],
      "name": "SALE_FEE",
      "outputs": [
        {
          "internalType": "uint256",
          "name": "",
          "type": "uint256"
        }
      ],
      "stateMutability": "view",
      "type": "function"
    },
    {
      "inputs": [
        {
          "internalType": "address",
          "name": "to",
          "type": "address"
        },
        {
          "internalType": "uint256",
          "name": "tokenId",
          "type": "uint256"
        }
      ],
      "name": "approve",
      "outputs": [],
      "stateMutability": "nonpayable",
      "type": "function"
    },
    {
      "inputs": [],
      "name": "auctionHouse",
      "outputs": [
        {
          "internalType": "address",
          "name": "",
          "type": "address"
        }
      ],
      "stateMutability": "view",
      "type": "function"
    },
    {
      "inputs": [
        {
          "internalType": "uint256",
          "name": "",
          "type": "uint256"
        }
      ],
      "name": "auctionWinner",
      "outputs": [
        {
          "internalType": "address payable",
          "name": "",
          "type": "address"
        }
      ],
      "stateMutability": "view",
      "type": "function"
    },
    {
      "inputs": [
        {
          "internalType": "uint256",
          "name": "",
          "type": "uint256"
        }
      ],
      "name": "auctions",
      "outputs": [
        {
          "internalType": "uint256",
          "name": "endPrice",
          "type": "uint256"
        },
        {
          "internalType": "uint256",
          "name": "startTime",
          "type": "uint256"
        },
        {
          "internalType": "uint256",
          "name": "endTime",
          "type": "uint256"
        },
        {
          "internalType": "bool",
          "name": "active",
          "type": "bool"
        }
      ],
      "stateMutability": "view",
      "type": "function"
    },
    {
      "inputs": [
        {
          "internalType": "address",
          "name": "owner",
          "type": "address"
        }
      ],
      "name": "balanceOf",
      "outputs": [
        {
          "internalType": "uint256",
          "name": "",
          "type": "uint256"
        }
      ],
      "stateMutability": "view",
      "type": "function"
    },
    {
      "inputs": [
        {
          "internalType": "uint256",
          "name": "tokenId",
          "type": "uint256"
        }
      ],
      "name": "getApproved",
      "outputs": [
        {
          "internalType": "address",
          "name": "",
          "type": "address"
        }
      ],
      "stateMutability": "view",
      "type": "function"
    },
    {
      "inputs": [
        {
          "internalType": "address",
          "name": "owner",
          "type": "address"
        },
        {
          "internalType": "address",
          "name": "operator",
          "type": "address"
        }
      ],
      "name": "isApprovedForAll",
      "outputs": [
        {
          "internalType": "bool",
          "name": "",
          "type": "bool"
        }
      ],
      "stateMutability": "view",
      "type": "function"
    },
    {
      "inputs": [],
      "name": "maxSupply",
      "outputs": [
        {
          "internalType": "uint256",
          "name": "",
          "type": "uint256"
        }
      ],
      "stateMutability": "view",
      "type": "function"
    },
    {
      "inputs": [
        {
          "internalType": "uint256",
          "name": "_tokenId",
          "type": "uint256"
        }
      ],
      "name": "mint",
      "outputs": [],
      "stateMutability": "nonpayable",
      "type": "function"
    },
    {
      "inputs": [],
      "name": "mintOpen",
      "outputs": [
        {
          "internalType": "bool",
          "name": "",
          "type": "bool"
        }
      ],
      "stateMutability": "view",
      "type": "function"
    },
    {
      "inputs": [],
      "name": "name",
      "outputs": [
        {
          "internalType": "string",
          "name": "",
          "type": "string"
        }
      ],
      "stateMutability": "view",
      "type": "function"
    },
    {
      "inputs": [],
      "name": "owner",
      "outputs": [
        {
          "internalType": "address",
          "name": "",
          "type": "address"
        }
      ],
      "stateMutability": "view",
      "type": "function"
    },
    {
      "inputs": [
        {
          "internalType": "uint256",
          "name": "tokenId",
          "type": "uint256"
        }
      ],
      "name": "ownerOf",
      "outputs": [
        {
          "internalType": "address",
          "name": "",
          "type": "address"
        }
      ],
      "stateMutability": "view",
      "type": "function"
    },
    {
      "inputs": [],
      "name": "renounceOwnership",
      "outputs": [],
      "stateMutability": "nonpayable",
      "type": "function"
    },
    {
      "inputs": [
        {
          "internalType": "uint256",
          "name": "",
          "type": "uint256"
        },
        {
          "internalType": "uint256",
          "name": "_salePrice",
          "type": "uint256"
        }
      ],
      "name": "royaltyInfo",
      "outputs": [
        {
          "internalType": "address",
          "name": "receiver",
          "type": "address"
        },
        {
          "internalType": "uint256",
          "name": "royaltyAmount",
          "type": "uint256"
        }
      ],
      "stateMutability": "view",
      "type": "function"
    },
    {
      "inputs": [
        {
          "internalType": "address",
          "name": "from",
          "type": "address"
        },
        {
          "internalType": "address",
          "name": "to",
          "type": "address"
        },
        {
          "internalType": "uint256",
          "name": "tokenId",
          "type": "uint256"
        }
      ],
      "name": "safeTransferFrom",
      "outputs": [],
      "stateMutability": "nonpayable",
      "type": "function"
    },
    {
      "inputs": [
        {
          "internalType": "address",
          "name": "from",
          "type": "address"
        },
        {
          "internalType": "address",
          "name": "to",
          "type": "address"
        },
        {
          "internalType": "uint256",
          "name": "tokenId",
          "type": "uint256"
        },
        {
          "internalType": "bytes",
          "name": "data",
          "type": "bytes"
        }
      ],
      "name": "safeTransferFrom",
      "outputs": [],
      "stateMutability": "nonpayable",
      "type": "function"
    },
    {
      "inputs": [
        {
          "internalType": "address",
          "name": "operator",
          "type": "address"
        },
        {
          "internalType": "bool",
          "name": "approved",
          "type": "bool"
        }
      ],
      "name": "setApprovalForAll",
      "outputs": [],
      "stateMutability": "nonpayable",
      "type": "function"
    },
    {
      "inputs": [
        {
          "internalType": "address",
          "name": "_auctionHouse",
          "type": "address"
        }
      ],
      "name": "setAuctionHouse",
      "outputs": [],
      "stateMutability": "nonpayable",
      "type": "function"
    },
    {
      "inputs": [
        {
          "internalType": "uint256",
          "name": "_SALE_FEE",
          "type": "uint256"
        }
      ],
      "name": "setRegularFee",
      "outputs": [],
      "stateMutability": "nonpayable",
      "type": "function"
    },
    {
      "inputs": [],
      "name": "softCap",
      "outputs": [
        {
          "internalType": "uint256",
          "name": "",
          "type": "uint256"
        }
      ],
      "stateMutability": "view",
      "type": "function"
    },
    {
      "inputs": [
        {
          "internalType": "bytes4",
          "name": "_interfaceId",
          "type": "bytes4"
        }
      ],
      "name": "supportsInterface",
      "outputs": [
        {
          "internalType": "bool",
          "name": "",
          "type": "bool"
        }
      ],
      "stateMutability": "view",
      "type": "function"
    },
    {
      "inputs": [],
      "name": "symbol",
      "outputs": [
        {
          "internalType": "string",
          "name": "",
          "type": "string"
        }
      ],
      "stateMutability": "view",
      "type": "function"
    },
    {
      "inputs": [
        {
          "internalType": "address",
          "name": "_teamMember",
          "type": "address"
        }
      ],
      "name": "teamMint",
      "outputs": [],
      "stateMutability": "nonpayable",
      "type": "function"
    },
    {
      "inputs": [],
      "name": "teamMinted",
      "outputs": [
        {
          "internalType": "uint256",
          "name": "",
          "type": "uint256"
        }
      ],
      "stateMutability": "view",
      "type": "function"
    },
    {
      "inputs": [
        {
          "internalType": "bool",
          "name": "_open",
          "type": "bool"
        }
      ],
      "name": "toggleMint",
      "outputs": [],
      "stateMutability": "nonpayable",
      "type": "function"
    },
    {
      "inputs": [
        {
          "internalType": "uint256",
          "name": "",
          "type": "uint256"
        }
      ],
      "name": "tokenMetaDataRecord",
      "outputs": [
        {
          "internalType": "bool",
          "name": "minted",
          "type": "bool"
        },
        {
          "internalType": "uint256",
          "name": "timestamp",
          "type": "uint256"
        }
      ],
      "stateMutability": "view",
      "type": "function"
    },
    {
      "inputs": [
        {
          "internalType": "uint256",
          "name": "",
          "type": "uint256"
        }
      ],
      "name": "tokenMinter",
      "outputs": [
        {
          "internalType": "address",
          "name": "",
          "type": "address"
        }
      ],
      "stateMutability": "view",
      "type": "function"
    },
    {
      "inputs": [
        {
          "internalType": "uint256",
          "name": "_tokenId",
          "type": "uint256"
        }
      ],
      "name": "tokenURI",
      "outputs": [
        {
          "internalType": "string",
          "name": "",
          "type": "string"
        }
      ],
      "stateMutability": "view",
      "type": "function"
    },
    {
      "inputs": [],
      "name": "totalAuctions",
      "outputs": [
        {
          "internalType": "uint256",
          "name": "",
          "type": "uint256"
        }
      ],
      "stateMutability": "view",
      "type": "function"
    },
    {
      "inputs": [
        {
          "internalType": "address",
          "name": "from",
          "type": "address"
        },
        {
          "internalType": "address",
          "name": "to",
          "type": "address"
        },
        {
          "internalType": "uint256",
          "name": "tokenId",
          "type": "uint256"
        }
      ],
      "name": "transferFrom",
      "outputs": [],
      "stateMutability": "nonpayable",
      "type": "function"
    },
    {
      "inputs": [
        {
          "internalType": "address",
          "name": "newOwner",
          "type": "address"
        }
      ],
      "name": "transferOwnership",
      "outputs": [],
      "stateMutability": "nonpayable",
      "type": "function"
    },
    {
      "inputs": [],
      "name": "treasuryAddress",
      "outputs": [
        {
          "internalType": "address payable",
          "name": "",
          "type": "address"
        }
      ],
      "stateMutability": "view",
      "type": "function"
    },
    {
      "inputs": [],
      "name": "getCurrentAuction",
      "outputs": [
        {
          "components": [
            {
              "internalType": "uint256",
              "name": "endPrice",
              "type": "uint256"
            },
            {
              "internalType": "uint256",
              "name": "startTime",
              "type": "uint256"
            },
            {
              "internalType": "uint256",
              "name": "endTime",
              "type": "uint256"
            },
            {
              "internalType": "bool",
              "name": "active",
              "type": "bool"
            }
          ],
          "internalType": "struct StacksAuctionHouse.Auction",
          "name": "",
          "type": "tuple"
        }
      ],
      "stateMutability": "view",
      "type": "function"
    },
    {
      "inputs": [
        {
          "internalType": "uint256",
          "name": "_tokenId",
          "type": "uint256"
        }
      ],
      "name": "getAuction",
      "outputs": [
        {
          "components": [
            {
              "internalType": "uint256",
              "name": "endPrice",
              "type": "uint256"
            },
            {
              "internalType": "uint256",
              "name": "startTime",
              "type": "uint256"
            },
            {
              "internalType": "uint256",
              "name": "endTime",
              "type": "uint256"
            },
            {
              "internalType": "bool",
              "name": "active",
              "type": "bool"
            }
          ],
          "internalType": "struct StacksAuctionHouse.Auction",
          "name": "",
          "type": "tuple"
        }
      ],
      "stateMutability": "view",
      "type": "function"
    },
    {
      "inputs": [],
      "name": "bid",
      "outputs": [],
      "stateMutability": "payable",
      "type": "function"
    },
    {
      "inputs": [
        {
          "internalType": "address payable",
          "name": "_treasuryAddress",
          "type": "address"
        }
      ],
      "name": "setTreasuryAddress",
      "outputs": [],
      "stateMutability": "nonpayable",
      "type": "function"
    }
  ],
  "bytecode": "0x60806040526103e8600955611388600d55610fa9600e556000600f5560006012553480156200002d57600080fd5b5060405162004a4238038062004a42833981810160405281019062000053919062000436565b6040518060400160405280601181526020017f537461636b7320416c70686120436172640000000000000000000000000000008152506040518060400160405280600681526020017f535441434b5300000000000000000000000000000000000000000000000000008152508160009081620000d09190620006e2565b508060019081620000e29190620006e2565b50505062000105620000f9620001f260201b60201c565b620001fa60201b60201c565b80601360006101000a81548173ffffffffffffffffffffffffffffffffffffffff021916908373ffffffffffffffffffffffffffffffffffffffff16021790555060006363fe958090506040518060800160405280600081526020018281526020016201518083620001789190620007f8565b8152602001600115158152506010600080815260200190815260200160002060008201518160000155602082015181600101556040820151816002015560608201518160030160006101000a81548160ff021916908315150217905550905050620001ea6001620002c060201b60201c565b50506200086e565b600033905090565b6000600860009054906101000a900473ffffffffffffffffffffffffffffffffffffffff16905081600860006101000a81548173ffffffffffffffffffffffffffffffffffffffff021916908373ffffffffffffffffffffffffffffffffffffffff1602179055508173ffffffffffffffffffffffffffffffffffffffff168173ffffffffffffffffffffffffffffffffffffffff167f8be0079c531659141344cd1fd0a4f28419497f9722a3daafe3b4186f6b6457e060405160405180910390a35050565b600060106000600184620002d5919062000833565b81526020019081526020016000206040518060800160405290816000820154815260200160018201548152602001600282015481526020016003820160009054906101000a900460ff1615151515815250509050604051806080016040528060008152602001600183604001516200034e9190620007f8565b8152602001620151808360400151620003689190620007f8565b8152602001600015158152506010600084815260200190815260200160002060008201518160000155602082015181600101556040820151816002015560608201518160030160006101000a81548160ff0219169083151502179055509050505050565b600080fd5b600073ffffffffffffffffffffffffffffffffffffffff82169050919050565b6000620003fe82620003d1565b9050919050565b6200041081620003f1565b81146200041c57600080fd5b50565b600081519050620004308162000405565b92915050565b6000602082840312156200044f576200044e620003cc565b5b60006200045f848285016200041f565b91505092915050565b600081519050919050565b7f4e487b7100000000000000000000000000000000000000000000000000000000600052604160045260246000fd5b7f4e487b7100000000000000000000000000000000000000000000000000000000600052602260045260246000fd5b60006002820490506001821680620004ea57607f821691505b6020821081036200050057620004ff620004a2565b5b50919050565b60008190508160005260206000209050919050565b60006020601f8301049050919050565b600082821b905092915050565b6000600883026200056a7fffffffffffffffffffffffffffffffffffffffffffffffffffffffffffffffff826200052b565b6200057686836200052b565b95508019841693508086168417925050509392505050565b6000819050919050565b6000819050919050565b6000620005c3620005bd620005b7846200058e565b62000598565b6200058e565b9050919050565b6000819050919050565b620005df83620005a2565b620005f7620005ee82620005ca565b84845462000538565b825550505050565b600090565b6200060e620005ff565b6200061b818484620005d4565b505050565b5b8181101562000643576200063760008262000604565b60018101905062000621565b5050565b601f82111562000692576200065c8162000506565b62000667846200051b565b8101602085101562000677578190505b6200068f62000686856200051b565b83018262000620565b50505b505050565b600082821c905092915050565b6000620006b76000198460080262000697565b1980831691505092915050565b6000620006d28383620006a4565b9150826002028217905092915050565b620006ed8262000468565b67ffffffffffffffff81111562000709576200070862000473565b5b620007158254620004d1565b6200072282828562000647565b600060209050601f8311600181146200075a576000841562000745578287015190505b620007518582620006c4565b865550620007c1565b601f1984166200076a8662000506565b60005b8281101562000794578489015182556001820191506020850194506020810190506200076d565b86831015620007b45784890151620007b0601f891682620006a4565b8355505b6001600288020188555050505b505050505050565b7f4e487b7100000000000000000000000000000000000000000000000000000000600052601160045260246000fd5b600062000805826200058e565b915062000812836200058e565b92508282019050808211156200082d576200082c620007c9565b5b92915050565b600062000840826200058e565b91506200084d836200058e565b9250828203905081811115620008685762000867620007c9565b5b92915050565b6141c4806200087e6000396000f3fe6080604052600436106102305760003560e01c80637c57d9471161012e578063c5f956af116100ab578063e8b5498d1161006f578063e8b5498d14610859578063e985e9c514610884578063ed9152c8146108c1578063f2fde38b146108ec578063fe0dad251461091557610230565b8063c5f956af14610772578063c87b56dd1461079d578063d5abeb01146107da578063dcb66f1214610805578063e76d89521461083057610230565b8063a0712d68116100f2578063a0712d6814610690578063a22cb465146106b9578063b6a1dba1146106e2578063b88d4fde1461070b578063bdce6c441461073457610230565b80637c57d947146105a95780638a4dcd85146105e65780638da5cb5b1461060f578063906a26e01461063a57806395d89b411461066557610230565b806329fc7bd8116101bc5780636605bfda116101805780636605bfda146104c457806370a08231146104ed578063715018a61461052a578063729eaa661461054157806378bd79351461056c57610230565b806329fc7bd8146103b55780632a55205a146103e057806342842e0e1461041e578063571a26a0146104475780636352211e1461048757610230565b806316002f4a1161020357806316002f4a146103035780631998aeef1461032e57806323b872dd1461033857806324bbd0491461036157806329c4ba091461038c57610230565b806301ffc9a71461023557806306fdde0314610272578063081812fc1461029d578063095ea7b3146102da575b600080fd5b34801561024157600080fd5b5061025c60048036038101906102579190612bb6565b610952565b6040516102699190612bfe565b60405180910390f35b34801561027e57600080fd5b506102876109ba565b6040516102949190612ca9565b60405180910390f35b3480156102a957600080fd5b506102c460048036038101906102bf9190612d01565b610a4c565b6040516102d19190612d6f565b60405180910390f35b3480156102e657600080fd5b5061030160048036038101906102fc9190612db6565b610a92565b005b34801561030f57600080fd5b50610318610ba9565b6040516103259190612e05565b60405180910390f35b610336610baf565b005b34801561034457600080fd5b5061035f600480360381019061035a9190612e20565b610d26565b005b34801561036d57600080fd5b50610376610d86565b6040516103839190612bfe565b60405180910390f35b34801561039857600080fd5b506103b360048036038101906103ae9190612d01565b610d99565b005b3480156103c157600080fd5b506103ca610df0565b6040516103d79190612e05565b60405180910390f35b3480156103ec57600080fd5b5061040760048036038101906104029190612e73565b610df6565b604051610415929190612eb3565b60405180910390f35b34801561042a57600080fd5b5061044560048036038101906104409190612e20565b610e27565b005b34801561045357600080fd5b5061046e60048036038101906104699190612d01565b610e47565b60405161047e9493929190612edc565b60405180910390f35b34801561049357600080fd5b506104ae60048036038101906104a99190612d01565b610e84565b6040516104bb9190612d6f565b60405180910390f35b3480156104d057600080fd5b506104eb60048036038101906104e69190612f5f565b610f0a565b005b3480156104f957600080fd5b50610514600480360381019061050f9190612f8c565b610f56565b6040516105219190612e05565b60405180910390f35b34801561053657600080fd5b5061053f61100d565b005b34801561054d57600080fd5b50610556611021565b6040516105639190612e05565b60405180910390f35b34801561057857600080fd5b50610593600480360381019061058e9190612d01565b611027565b6040516105a0919061302c565b60405180910390f35b3480156105b557600080fd5b506105d060048036038101906105cb9190612d01565b61108d565b6040516105dd9190612d6f565b60405180910390f35b3480156105f257600080fd5b5061060d60048036038101906106089190613073565b6110c0565b005b34801561061b57600080fd5b506106246110e5565b6040516106319190612d6f565b60405180910390f35b34801561064657600080fd5b5061064f61110f565b60405161065c9190612e05565b60405180910390f35b34801561067157600080fd5b5061067a611115565b6040516106879190612ca9565b60405180910390f35b34801561069c57600080fd5b506106b760048036038101906106b29190612d01565b6111a7565b005b3480156106c557600080fd5b506106e060048036038101906106db91906130a0565b6113a5565b005b3480156106ee57600080fd5b5061070960048036038101906107049190612f8c565b6113bb565b005b34801561071757600080fd5b50610732600480360381019061072d9190613215565b6115a0565b005b34801561074057600080fd5b5061075b60048036038101906107569190612d01565b611602565b604051610769929190613298565b60405180910390f35b34801561077e57600080fd5b50610787611633565b60405161079491906132d0565b60405180910390f35b3480156107a957600080fd5b506107c460048036038101906107bf9190612d01565b611659565b6040516107d19190612ca9565b60405180910390f35b3480156107e657600080fd5b506107ef611692565b6040516107fc9190612e05565b60405180910390f35b34801561081157600080fd5b5061081a611698565b604051610827919061302c565b60405180910390f35b34801561083c57600080fd5b5061085760048036038101906108529190612f8c565b6116fe565b005b34801561086557600080fd5b5061086e61174a565b60405161087b9190612e05565b60405180910390f35b34801561089057600080fd5b506108ab60048036038101906108a691906132eb565b611750565b6040516108b89190612bfe565b60405180910390f35b3480156108cd57600080fd5b506108d66117e4565b6040516108e39190612d6f565b60405180910390f35b3480156108f857600080fd5b50610913600480360381019061090e9190612f8c565b61180a565b005b34801561092157600080fd5b5061093c60048036038101906109379190612d01565b61188d565b60405161094991906132d0565b60405180910390f35b6000632a55205a60e01b7bffffffffffffffffffffffffffffffffffffffffffffffffffffffff1916827bffffffffffffffffffffffffffffffffffffffffffffffffffffffff1916036109a957600190506109b5565b6109b2826118c0565b90505b919050565b6060600080546109c99061335a565b80601f01602080910402602001604051908101604052809291908181526020018280546109f59061335a565b8015610a425780601f10610a1757610100808354040283529160200191610a42565b820191906000526020600020905b815481529060010190602001808311610a2557829003601f168201915b5050505050905090565b6000610a578261193a565b6004600083815260200190815260200160002060009054906101000a900473ffffffffffffffffffffffffffffffffffffffff169050919050565b6000610a9d82610e84565b90508073ffffffffffffffffffffffffffffffffffffffff168373ffffffffffffffffffffffffffffffffffffffff1603610b0d576040517f08c379a0000000000000000000000000000000000000000000000000000000008152600401610b04906133fd565b60405180910390fd5b8073ffffffffffffffffffffffffffffffffffffffff16610b2c611985565b73ffffffffffffffffffffffffffffffffffffffff161480610b5b5750610b5a81610b55611985565b611750565b5b610b9a576040517f08c379a0000000000000000000000000000000000000000000000000000000008152600401610b919061348f565b60405180910390fd5b610ba4838361198d565b505050565b60125481565b6000610bb9611698565b905080600001513411610c01576040517f08c379a0000000000000000000000000000000000000000000000000000000008152600401610bf8906134fb565b60405180910390fd5b600081600001519050600060116000601254815260200190815260200160002060009054906101000a900473ffffffffffffffffffffffffffffffffffffffff1690503360116000601254815260200190815260200160002060006101000a81548173ffffffffffffffffffffffffffffffffffffffff021916908373ffffffffffffffffffffffffffffffffffffffff16021790555034601060006012548152602001908152602001600020600001819055508073ffffffffffffffffffffffffffffffffffffffff166108fc839081150290604051600060405180830381858888f19350505050158015610cfb573d6000803e3d6000fd5b50428360400151108015610d10575082606001515b15610d2157610d20601254611a46565b5b505050565b610d37610d31611985565b82611b94565b610d76576040517f08c379a0000000000000000000000000000000000000000000000000000000008152600401610d6d9061358d565b60405180910390fd5b610d81838383611c29565b505050565b600c60149054906101000a900460ff1681565b610da1611f22565b610ce4811115610de6576040517f08c379a0000000000000000000000000000000000000000000000000000000008152600401610ddd906135f9565b60405180910390fd5b8060098190555050565b61271081565b600080610e016110e5565b61271060095485610e129190613648565b610e1c91906136b9565b915091509250929050565b610e42838383604051806020016040528060008152506115a0565b505050565b60106020528060005260406000206000915090508060000154908060010154908060020154908060030160009054906101000a900460ff16905084565b600080610e9083611fa0565b9050600073ffffffffffffffffffffffffffffffffffffffff168173ffffffffffffffffffffffffffffffffffffffff1603610f01576040517f08c379a0000000000000000000000000000000000000000000000000000000008152600401610ef890613736565b60405180910390fd5b80915050919050565b610f12611f22565b80601360006101000a81548173ffffffffffffffffffffffffffffffffffffffff021916908373ffffffffffffffffffffffffffffffffffffffff16021790555050565b60008073ffffffffffffffffffffffffffffffffffffffff168273ffffffffffffffffffffffffffffffffffffffff1603610fc6576040517f08c379a0000000000000000000000000000000000000000000000000000000008152600401610fbd906137c8565b60405180910390fd5b600360008373ffffffffffffffffffffffffffffffffffffffff1673ffffffffffffffffffffffffffffffffffffffff168152602001908152602001600020549050919050565b611015611f22565b61101f6000611fdd565b565b60095481565b61102f612b20565b601060008381526020019081526020016000206040518060800160405290816000820154815260200160018201548152602001600282015481526020016003820160009054906101000a900460ff1615151515815250509050919050565b600a6020528060005260406000206000915054906101000a900473ffffffffffffffffffffffffffffffffffffffff1681565b6110c8611f22565b80600c60146101000a81548160ff02191690831515021790555050565b6000600860009054906101000a900473ffffffffffffffffffffffffffffffffffffffff16905090565b600e5481565b6060600180546111249061335a565b80601f01602080910402602001604051908101604052809291908181526020018280546111509061335a565b801561119d5780601f106111725761010080835404028352916020019161119d565b820191906000526020600020905b81548152906001019060200180831161118057829003601f168201915b5050505050905090565b600c60149054906101000a900460ff166111f6576040517f08c379a00000000000000000000000000000000000000000000000000000000081526004016111ed90613834565b60405180910390fd5b600d5481111561123b576040517f08c379a0000000000000000000000000000000000000000000000000000000008152600401611232906138a0565b60405180910390fd5b3373ffffffffffffffffffffffffffffffffffffffff16600a600083815260200190815260200160002060009054906101000a900473ffffffffffffffffffffffffffffffffffffffff1673ffffffffffffffffffffffffffffffffffffffff16146112dc576040517f08c379a00000000000000000000000000000000000000000000000000000000081526004016112d390613932565b60405180910390fd5b600b600082815260200190815260200160002060000160009054906101000a900460ff1615611340576040517f08c379a00000000000000000000000000000000000000000000000000000000081526004016113379061399e565b60405180910390fd5b61134a33826120a3565b604051806040016040528060011515815260200142815250600b600083815260200190815260200160002060008201518160000160006101000a81548160ff0219169083151502179055506020820151816001015590505050565b6113b76113b0611985565b83836120c1565b5050565b6113c3611f22565b60006001600f54600e546113d791906139be565b6113e191906139be565b9050600d54811115611428576040517f08c379a000000000000000000000000000000000000000000000000000000000815260040161141f906138a0565b60405180910390fd5b6110d6811061147857636592007f4211611477576040517f08c379a000000000000000000000000000000000000000000000000000000000815260040161146e90613a64565b60405180910390fd5b5b61120281106114c857636774857f42116114c7576040517f08c379a00000000000000000000000000000000000000000000000000000000081526004016114be90613af6565b60405180910390fd5b5b61132e811061151857636955b8ff4211611517576040517f08c379a000000000000000000000000000000000000000000000000000000000815260040161150e90613b88565b60405180910390fd5b5b611522818361222d565b604051806040016040528060011515815260200142815250600b600083815260200190815260200160002060008201518160000160006101000a81548160ff0219169083151502179055506020820151816001015590505061158433826120a3565b600f600081548092919061159790613ba8565b91905055505050565b6115b16115ab611985565b83611b94565b6115f0576040517f08c379a00000000000000000000000000000000000000000000000000000000081526004016115e79061358d565b60405180910390fd5b6115fc84848484612283565b50505050565b600b6020528060005260406000206000915090508060000160009054906101000a900460ff16908060010154905082565b601360009054906101000a900473ffffffffffffffffffffffffffffffffffffffff1681565b60606116648261193a565b61166c6122df565b60405160200161167c9190613c2c565b6040516020818303038152906040529050919050565b600d5481565b6116a0612b20565b6010600060125481526020019081526020016000206040518060800160405290816000820154815260200160018201548152602001600282015481526020016003820160009054906101000a900460ff161515151581525050905090565b611706611f22565b80600c60006101000a81548173ffffffffffffffffffffffffffffffffffffffff021916908373ffffffffffffffffffffffffffffffffffffffff16021790555050565b600f5481565b6000600560008473ffffffffffffffffffffffffffffffffffffffff1673ffffffffffffffffffffffffffffffffffffffff16815260200190815260200160002060008373ffffffffffffffffffffffffffffffffffffffff1673ffffffffffffffffffffffffffffffffffffffff16815260200190815260200160002060009054906101000a900460ff16905092915050565b600c60009054906101000a900473ffffffffffffffffffffffffffffffffffffffff1681565b611812611f22565b600073ffffffffffffffffffffffffffffffffffffffff168173ffffffffffffffffffffffffffffffffffffffff1603611881576040517f08c379a000000000000000000000000000000000000000000000000000000000815260040161187890613cb5565b60405180910390fd5b61188a81611fdd565b50565b60116020528060005260406000206000915054906101000a900473ffffffffffffffffffffffffffffffffffffffff1681565b60007f2a55205a000000000000000000000000000000000000000000000000000000007bffffffffffffffffffffffffffffffffffffffffffffffffffffffff1916827bffffffffffffffffffffffffffffffffffffffffffffffffffffffff191614806119335750611932826122ff565b5b9050919050565b611943816123e1565b611982576040517f08c379a000000000000000000000000000000000000000000000000000000000815260040161197990613736565b60405180910390fd5b50565b600033905090565b816004600083815260200190815260200160002060006101000a81548173ffffffffffffffffffffffffffffffffffffffff021916908373ffffffffffffffffffffffffffffffffffffffff160217905550808273ffffffffffffffffffffffffffffffffffffffff16611a0083610e84565b73ffffffffffffffffffffffffffffffffffffffff167f8c5be1e5ebec7d5bd14f71427d1e84f3dd0314c0f7b2291e5b200ac8c7c3b92560405160405180910390a45050565b6000601060008381526020019081526020016000206040518060800160405290816000820154815260200160018201548152602001600282015481526020016003820160009054906101000a900460ff16151515158152505090506000816060019015159081151581525050600160106000600185611ac591906139be565b815260200190815260200160002060030160006101000a81548160ff021916908315150217905550611b02600283611afd91906139be565b612422565b60126000815480929190611b1590613ba8565b9190505550611b2382612528565b601360009054906101000a900473ffffffffffffffffffffffffffffffffffffffff1673ffffffffffffffffffffffffffffffffffffffff166108fc82600001519081150290604051600060405180830381858888f19350505050158015611b8f573d6000803e3d6000fd5b505050565b600080611ba083610e84565b90508073ffffffffffffffffffffffffffffffffffffffff168473ffffffffffffffffffffffffffffffffffffffff161480611be25750611be18185611750565b5b80611c2057508373ffffffffffffffffffffffffffffffffffffffff16611c0884610a4c565b73ffffffffffffffffffffffffffffffffffffffff16145b91505092915050565b8273ffffffffffffffffffffffffffffffffffffffff16611c4982610e84565b73ffffffffffffffffffffffffffffffffffffffff1614611c9f576040517f08c379a0000000000000000000000000000000000000000000000000000000008152600401611c9690613d47565b60405180910390fd5b600073ffffffffffffffffffffffffffffffffffffffff168273ffffffffffffffffffffffffffffffffffffffff1603611d0e576040517f08c379a0000000000000000000000000000000000000000000000000000000008152600401611d0590613dd9565b60405180910390fd5b611d1b8383836001612568565b8273ffffffffffffffffffffffffffffffffffffffff16611d3b82610e84565b73ffffffffffffffffffffffffffffffffffffffff1614611d91576040517f08c379a0000000000000000000000000000000000000000000000000000000008152600401611d8890613d47565b60405180910390fd5b6004600082815260200190815260200160002060006101000a81549073ffffffffffffffffffffffffffffffffffffffff02191690556001600360008573ffffffffffffffffffffffffffffffffffffffff1673ffffffffffffffffffffffffffffffffffffffff168152602001908152602001600020600082825403925050819055506001600360008473ffffffffffffffffffffffffffffffffffffffff1673ffffffffffffffffffffffffffffffffffffffff16815260200190815260200160002060008282540192505081905550816002600083815260200190815260200160002060006101000a81548173ffffffffffffffffffffffffffffffffffffffff021916908373ffffffffffffffffffffffffffffffffffffffff160217905550808273ffffffffffffffffffffffffffffffffffffffff168473ffffffffffffffffffffffffffffffffffffffff167fddf252ad1be2c89b69c2b068fc378daa952ba7f163c4a11628f55a4df523b3ef60405160405180910390a4611f1d838383600161268e565b505050565b611f2a611985565b73ffffffffffffffffffffffffffffffffffffffff16611f486110e5565b73ffffffffffffffffffffffffffffffffffffffff1614611f9e576040517f08c379a0000000000000000000000000000000000000000000000000000000008152600401611f9590613e45565b60405180910390fd5b565b60006002600083815260200190815260200160002060009054906101000a900473ffffffffffffffffffffffffffffffffffffffff169050919050565b6000600860009054906101000a900473ffffffffffffffffffffffffffffffffffffffff16905081600860006101000a81548173ffffffffffffffffffffffffffffffffffffffff021916908373ffffffffffffffffffffffffffffffffffffffff1602179055508173ffffffffffffffffffffffffffffffffffffffff168173ffffffffffffffffffffffffffffffffffffffff167f8be0079c531659141344cd1fd0a4f28419497f9722a3daafe3b4186f6b6457e060405160405180910390a35050565b6120bd828260405180602001604052806000815250612694565b5050565b8173ffffffffffffffffffffffffffffffffffffffff168373ffffffffffffffffffffffffffffffffffffffff160361212f576040517f08c379a000000000000000000000000000000000000000000000000000000000815260040161212690613eb1565b60405180910390fd5b80600560008573ffffffffffffffffffffffffffffffffffffffff1673ffffffffffffffffffffffffffffffffffffffff16815260200190815260200160002060008473ffffffffffffffffffffffffffffffffffffffff1673ffffffffffffffffffffffffffffffffffffffff16815260200190815260200160002060006101000a81548160ff0219169083151502179055508173ffffffffffffffffffffffffffffffffffffffff168373ffffffffffffffffffffffffffffffffffffffff167f17307eab39ab6107e8899845ad3d59bd9653f200f220920489ca2b5937696c31836040516122209190612bfe565b60405180910390a3505050565b80600a600084815260200190815260200160002060006101000a81548173ffffffffffffffffffffffffffffffffffffffff021916908373ffffffffffffffffffffffffffffffffffffffff1602179055505050565b61228e848484611c29565b61229a848484846126ef565b6122d9576040517f08c379a00000000000000000000000000000000000000000000000000000000081526004016122d090613f43565b60405180910390fd5b50505050565b60606040518060600160405280603c8152602001614153603c9139905090565b60007f80ac58cd000000000000000000000000000000000000000000000000000000007bffffffffffffffffffffffffffffffffffffffffffffffffffffffff1916827bffffffffffffffffffffffffffffffffffffffffffffffffffffffff191614806123ca57507f5b5e139f000000000000000000000000000000000000000000000000000000007bffffffffffffffffffffffffffffffffffffffffffffffffffffffff1916827bffffffffffffffffffffffffffffffffffffffffffffffffffffffff1916145b806123da57506123d982612876565b5b9050919050565b60008073ffffffffffffffffffffffffffffffffffffffff1661240383611fa0565b73ffffffffffffffffffffffffffffffffffffffff1614159050919050565b6000601060006001846124359190613f63565b81526020019081526020016000206040518060800160405290816000820154815260200160018201548152602001600282015481526020016003820160009054906101000a900460ff1615151515815250509050604051806080016040528060008152602001600183604001516124ac91906139be565b81526020016201518083604001516124c491906139be565b8152602001600015158152506010600084815260200190815260200160002060008201518160000155602082015181600101556040820151816002015560608201518160030160006101000a81548160ff0219169083151502179055509050505050565b612565816011600084815260200190815260200160002060009054906101000a900473ffffffffffffffffffffffffffffffffffffffff1661222d565b50565b600181111561268857600073ffffffffffffffffffffffffffffffffffffffff168473ffffffffffffffffffffffffffffffffffffffff16146125fc5780600360008673ffffffffffffffffffffffffffffffffffffffff1673ffffffffffffffffffffffffffffffffffffffff16815260200190815260200160002060008282546125f49190613f63565b925050819055505b600073ffffffffffffffffffffffffffffffffffffffff168373ffffffffffffffffffffffffffffffffffffffff16146126875780600360008573ffffffffffffffffffffffffffffffffffffffff1673ffffffffffffffffffffffffffffffffffffffff168152602001908152602001600020600082825461267f91906139be565b925050819055505b5b50505050565b50505050565b61269e83836128e0565b6126ab60008484846126ef565b6126ea576040517f08c379a00000000000000000000000000000000000000000000000000000000081526004016126e190613f43565b60405180910390fd5b505050565b60006127108473ffffffffffffffffffffffffffffffffffffffff16612afd565b15612869578373ffffffffffffffffffffffffffffffffffffffff1663150b7a02612739611985565b8786866040518563ffffffff1660e01b815260040161275b9493929190613fec565b6020604051808303816000875af192505050801561279757506040513d601f19601f82011682018060405250810190612794919061404d565b60015b612819573d80600081146127c7576040519150601f19603f3d011682016040523d82523d6000602084013e6127cc565b606091505b506000815103612811576040517f08c379a000000000000000000000000000000000000000000000000000000000815260040161280890613f43565b60405180910390fd5b805181602001fd5b63150b7a0260e01b7bffffffffffffffffffffffffffffffffffffffffffffffffffffffff1916817bffffffffffffffffffffffffffffffffffffffffffffffffffffffff19161491505061286e565b600190505b949350505050565b60007f01ffc9a7000000000000000000000000000000000000000000000000000000007bffffffffffffffffffffffffffffffffffffffffffffffffffffffff1916827bffffffffffffffffffffffffffffffffffffffffffffffffffffffff1916149050919050565b600073ffffffffffffffffffffffffffffffffffffffff168273ffffffffffffffffffffffffffffffffffffffff160361294f576040517f08c379a0000000000000000000000000000000000000000000000000000000008152600401612946906140c6565b60405180910390fd5b612958816123e1565b15612998576040517f08c379a000000000000000000000000000000000000000000000000000000000815260040161298f90614132565b60405180910390fd5b6129a6600083836001612568565b6129af816123e1565b156129ef576040517f08c379a00000000000000000000000000000000000000000000000000000000081526004016129e690614132565b60405180910390fd5b6001600360008473ffffffffffffffffffffffffffffffffffffffff1673ffffffffffffffffffffffffffffffffffffffff16815260200190815260200160002060008282540192505081905550816002600083815260200190815260200160002060006101000a81548173ffffffffffffffffffffffffffffffffffffffff021916908373ffffffffffffffffffffffffffffffffffffffff160217905550808273ffffffffffffffffffffffffffffffffffffffff16600073ffffffffffffffffffffffffffffffffffffffff167fddf252ad1be2c89b69c2b068fc378daa952ba7f163c4a11628f55a4df523b3ef60405160405180910390a4612af960008383600161268e565b5050565b6000808273ffffffffffffffffffffffffffffffffffffffff163b119050919050565b60405180608001604052806000815260200160008152602001600081526020016000151581525090565b6000604051905090565b600080fd5b600080fd5b60007fffffffff0000000000000000000000000000000000000000000000000000000082169050919050565b612b9381612b5e565b8114612b9e57600080fd5b50565b600081359050612bb081612b8a565b92915050565b600060208284031215612bcc57612bcb612b54565b5b6000612bda84828501612ba1565b91505092915050565b60008115159050919050565b612bf881612be3565b82525050565b6000602082019050612c136000830184612bef565b92915050565b600081519050919050565b600082825260208201905092915050565b60005b83811015612c53578082015181840152602081019050612c38565b60008484015250505050565b6000601f19601f8301169050919050565b6000612c7b82612c19565b612c858185612c24565b9350612c95818560208601612c35565b612c9e81612c5f565b840191505092915050565b60006020820190508181036000830152612cc38184612c70565b905092915050565b6000819050919050565b612cde81612ccb565b8114612ce957600080fd5b50565b600081359050612cfb81612cd5565b92915050565b600060208284031215612d1757612d16612b54565b5b6000612d2584828501612cec565b91505092915050565b600073ffffffffffffffffffffffffffffffffffffffff82169050919050565b6000612d5982612d2e565b9050919050565b612d6981612d4e565b82525050565b6000602082019050612d846000830184612d60565b92915050565b612d9381612d4e565b8114612d9e57600080fd5b50565b600081359050612db081612d8a565b92915050565b60008060408385031215612dcd57612dcc612b54565b5b6000612ddb85828601612da1565b9250506020612dec85828601612cec565b9150509250929050565b612dff81612ccb565b82525050565b6000602082019050612e1a6000830184612df6565b92915050565b600080600060608486031215612e3957612e38612b54565b5b6000612e4786828701612da1565b9350506020612e5886828701612da1565b9250506040612e6986828701612cec565b9150509250925092565b60008060408385031215612e8a57612e89612b54565b5b6000612e9885828601612cec565b9250506020612ea985828601612cec565b9150509250929050565b6000604082019050612ec86000830185612d60565b612ed56020830184612df6565b9392505050565b6000608082019050612ef16000830187612df6565b612efe6020830186612df6565b612f0b6040830185612df6565b612f186060830184612bef565b95945050505050565b6000612f2c82612d2e565b9050919050565b612f3c81612f21565b8114612f4757600080fd5b50565b600081359050612f5981612f33565b92915050565b600060208284031215612f7557612f74612b54565b5b6000612f8384828501612f4a565b91505092915050565b600060208284031215612fa257612fa1612b54565b5b6000612fb084828501612da1565b91505092915050565b612fc281612ccb565b82525050565b612fd181612be3565b82525050565b608082016000820151612fed6000850182612fb9565b5060208201516130006020850182612fb9565b5060408201516130136040850182612fb9565b5060608201516130266060850182612fc8565b50505050565b60006080820190506130416000830184612fd7565b92915050565b61305081612be3565b811461305b57600080fd5b50565b60008135905061306d81613047565b92915050565b60006020828403121561308957613088612b54565b5b60006130978482850161305e565b91505092915050565b600080604083850312156130b7576130b6612b54565b5b60006130c585828601612da1565b92505060206130d68582860161305e565b9150509250929050565b600080fd5b600080fd5b7f4e487b7100000000000000000000000000000000000000000000000000000000600052604160045260246000fd5b61312282612c5f565b810181811067ffffffffffffffff82111715613141576131406130ea565b5b80604052505050565b6000613154612b4a565b90506131608282613119565b919050565b600067ffffffffffffffff8211156131805761317f6130ea565b5b61318982612c5f565b9050602081019050919050565b82818337600083830152505050565b60006131b86131b384613165565b61314a565b9050828152602081018484840111156131d4576131d36130e5565b5b6131df848285613196565b509392505050565b600082601f8301126131fc576131fb6130e0565b5b813561320c8482602086016131a5565b91505092915050565b6000806000806080858703121561322f5761322e612b54565b5b600061323d87828801612da1565b945050602061324e87828801612da1565b935050604061325f87828801612cec565b925050606085013567ffffffffffffffff8111156132805761327f612b59565b5b61328c878288016131e7565b91505092959194509250565b60006040820190506132ad6000830185612bef565b6132ba6020830184612df6565b9392505050565b6132ca81612f21565b82525050565b60006020820190506132e560008301846132c1565b92915050565b6000806040838503121561330257613301612b54565b5b600061331085828601612da1565b925050602061332185828601612da1565b9150509250929050565b7f4e487b7100000000000000000000000000000000000000000000000000000000600052602260045260246000fd5b6000600282049050600182168061337257607f821691505b6020821081036133855761338461332b565b5b50919050565b7f4552433732313a20617070726f76616c20746f2063757272656e74206f776e6560008201527f7200000000000000000000000000000000000000000000000000000000000000602082015250565b60006133e7602183612c24565b91506133f28261338b565b604082019050919050565b60006020820190508181036000830152613416816133da565b9050919050565b7f4552433732313a20617070726f76652063616c6c6572206973206e6f7420746f60008201527f6b656e206f776e6572206f7220617070726f76656420666f7220616c6c000000602082015250565b6000613479603d83612c24565b91506134848261341d565b604082019050919050565b600060208201905081810360008301526134a88161346c565b9050919050565b7f42696420697320746f6f206c6f77000000000000000000000000000000000000600082015250565b60006134e5600e83612c24565b91506134f0826134af565b602082019050919050565b60006020820190508181036000830152613514816134d8565b9050919050565b7f4552433732313a2063616c6c6572206973206e6f7420746f6b656e206f776e6560008201527f72206f7220617070726f76656400000000000000000000000000000000000000602082015250565b6000613577602d83612c24565b91506135828261351b565b604082019050919050565b600060208201905081810360008301526135a68161356a565b9050919050565b7f466565206d757374206265206c657373206f7220657175616c20746f20333325600082015250565b60006135e3602083612c24565b91506135ee826135ad565b602082019050919050565b60006020820190508181036000830152613612816135d6565b9050919050565b7f4e487b7100000000000000000000000000000000000000000000000000000000600052601160045260246000fd5b600061365382612ccb565b915061365e83612ccb565b925082820261366c81612ccb565b9150828204841483151761368357613682613619565b5b5092915050565b7f4e487b7100000000000000000000000000000000000000000000000000000000600052601260045260246000fd5b60006136c482612ccb565b91506136cf83612ccb565b9250826136df576136de61368a565b5b828204905092915050565b7f4552433732313a20696e76616c696420746f6b656e2049440000000000000000600082015250565b6000613720601883612c24565b915061372b826136ea565b602082019050919050565b6000602082019050818103600083015261374f81613713565b9050919050565b7f4552433732313a2061646472657373207a65726f206973206e6f74206120766160008201527f6c6964206f776e65720000000000000000000000000000000000000000000000602082015250565b60006137b2602983612c24565b91506137bd82613756565b604082019050919050565b600060208201905081810360008301526137e1816137a5565b9050919050565b7f4d696e74696e67206973206e6f74206f70656e00000000000000000000000000600082015250565b600061381e601383612c24565b9150613829826137e8565b602082019050919050565b6000602082019050818103600083015261384d81613811565b9050919050565b7f546f6b656e20494420697320746f6f2068696768000000000000000000000000600082015250565b600061388a601483612c24565b915061389582613854565b602082019050919050565b600060208201905081810360008301526138b98161387d565b9050919050565b7f596f7520617265206e6f7420616c6c6f77656420746f206d696e74207468697360008201527f20746f6b656e0000000000000000000000000000000000000000000000000000602082015250565b600061391c602683612c24565b9150613927826138c0565b604082019050919050565b6000602082019050818103600083015261394b8161390f565b9050919050565b7f546f6b656e2068617320616c7265616479206265656e206d696e746564000000600082015250565b6000613988601d83612c24565b915061399382613952565b602082019050919050565b600060208201905081810360008301526139b78161397b565b9050919050565b60006139c982612ccb565b91506139d483612ccb565b92508282019050808211156139ec576139eb613619565b5b92915050565b7f5465616d2063616e206f6e6c79206d696e742033303020746f6b656e7320696e60008201527f2032303233000000000000000000000000000000000000000000000000000000602082015250565b6000613a4e602583612c24565b9150613a59826139f2565b604082019050919050565b60006020820190508181036000830152613a7d81613a41565b9050919050565b7f5465616d2063616e206f6e6c79206d696e742033303020746f6b656e7320696e60008201527f2032303234000000000000000000000000000000000000000000000000000000602082015250565b6000613ae0602583612c24565b9150613aeb82613a84565b604082019050919050565b60006020820190508181036000830152613b0f81613ad3565b9050919050565b7f5465616d2063616e206f6e6c79206d696e74207468652072656d61696e696e6760008201527f20746f6b656e7320696e20323032350000000000000000000000000000000000602082015250565b6000613b72602f83612c24565b9150613b7d82613b16565b604082019050919050565b60006020820190508181036000830152613ba181613b65565b9050919050565b6000613bb382612ccb565b91507fffffffffffffffffffffffffffffffffffffffffffffffffffffffffffffffff8203613be557613be4613619565b5b600182019050919050565b600081905092915050565b6000613c0682612c19565b613c108185613bf0565b9350613c20818560208601612c35565b80840191505092915050565b6000613c388284613bfb565b915081905092915050565b7f4f776e61626c653a206e6577206f776e657220697320746865207a65726f206160008201527f6464726573730000000000000000000000000000000000000000000000000000602082015250565b6000613c9f602683612c24565b9150613caa82613c43565b604082019050919050565b60006020820190508181036000830152613cce81613c92565b9050919050565b7f4552433732313a207472616e736665722066726f6d20696e636f72726563742060008201527f6f776e6572000000000000000000000000000000000000000000000000000000602082015250565b6000613d31602583612c24565b9150613d3c82613cd5565b604082019050919050565b60006020820190508181036000830152613d6081613d24565b9050919050565b7f4552433732313a207472616e7366657220746f20746865207a65726f2061646460008201527f7265737300000000000000000000000000000000000000000000000000000000602082015250565b6000613dc3602483612c24565b9150613dce82613d67565b604082019050919050565b60006020820190508181036000830152613df281613db6565b9050919050565b7f4f776e61626c653a2063616c6c6572206973206e6f7420746865206f776e6572600082015250565b6000613e2f602083612c24565b9150613e3a82613df9565b602082019050919050565b60006020820190508181036000830152613e5e81613e22565b9050919050565b7f4552433732313a20617070726f766520746f2063616c6c657200000000000000600082015250565b6000613e9b601983612c24565b9150613ea682613e65565b602082019050919050565b60006020820190508181036000830152613eca81613e8e565b9050919050565b7f4552433732313a207472616e7366657220746f206e6f6e20455243373231526560008201527f63656976657220696d706c656d656e7465720000000000000000000000000000602082015250565b6000613f2d603283612c24565b9150613f3882613ed1565b604082019050919050565b60006020820190508181036000830152613f5c81613f20565b9050919050565b6000613f6e82612ccb565b9150613f7983612ccb565b9250828203905081811115613f9157613f90613619565b5b92915050565b600081519050919050565b600082825260208201905092915050565b6000613fbe82613f97565b613fc88185613fa2565b9350613fd8818560208601612c35565b613fe181612c5f565b840191505092915050565b60006080820190506140016000830187612d60565b61400e6020830186612d60565b61401b6040830185612df6565b818103606083015261402d8184613fb3565b905095945050505050565b60008151905061404781612b8a565b92915050565b60006020828403121561406357614062612b54565b5b600061407184828501614038565b91505092915050565b7f4552433732313a206d696e7420746f20746865207a65726f2061646472657373600082015250565b60006140b0602083612c24565b91506140bb8261407a565b602082019050919050565b600060208201905081810360008301526140df816140a3565b9050919050565b7f4552433732313a20746f6b656e20616c7265616479206d696e74656400000000600082015250565b600061411c601c83612c24565b9150614127826140e6565b602082019050919050565b6000602082019050818103600083015261414b8161410f565b905091905056fe697066733a2f2f516d5837527a644355487a506e67386d7373547058414257547856465651774e58313234746d70515551694639702f737461636b73a264697066735822122059bb8fd4edd4c0feaeef99be9a3f1c0273b83d342dffe13d04ccae5f24f228aa64736f6c63430008110033",
  "immutableReferences": {},
  "source": "// SPDX-License-Identifier: MIT\npragma solidity >=0.4.22 <0.9.0;\n\nimport \"@openzeppelin/contracts/access/Ownable.sol\";\nimport \"./Stacks.sol\";\n\ncontract StacksAuctionHouse is Ownable, Stacks {\n  mapping(uint => Auction) public auctions;\n  mapping(uint => address payable) public auctionWinner;\n  uint public totalAuctions = 0;\n  address payable public treasuryAddress;\n\n  struct Auction {\n    uint endPrice;\n    uint startTime;\n    uint endTime;\n    bool active;\n  }\n\n  constructor(address payable _treasuryAddress) {\n    treasuryAddress = _treasuryAddress;\n\n    uint startTime = 1677628800; // Wed Mar 01 2023 00:00:00 GMT+0000\n    // Create the first auction\n    auctions[0] = Auction({\n      endPrice: 0,\n      startTime: startTime,\n      endTime: startTime + 1 days,\n      active: true\n    });\n    // Create the second auction\n    startAuction(1);\n  }\n\n  function getCurrentAuction() public view returns (Auction memory) {\n    return auctions[totalAuctions];\n  }\n\n  function getAuction(uint _tokenId) public view returns (Auction memory) {\n    return auctions[_tokenId];\n  }\n\n  function bid() public payable {\n    Auction memory auction = getCurrentAuction();\n    require(msg.value > auction.endPrice, \"Bid is too low\");\n    uint lastBid = auction.endPrice;\n    address payable lastBidder = auctionWinner[totalAuctions];\n    // update the auction\n    auctionWinner[totalAuctions] = payable(msg.sender);\n    auctions[totalAuctions].endPrice = msg.value;\n    // refund last bidder\n    lastBidder.transfer(lastBid);\n    // after-bid callback\n    if (auction.endTime < block.timestamp && auction.active) {\n      closeAuction(totalAuctions);\n    }\n  }\n\n  function closeAuction(uint _tokenId) private {\n    Auction memory auction = auctions[_tokenId];\n    // close the auction and open the next one\n    auction.active = false;\n    auctions[_tokenId + 1].active = true;\n    // create new auction ahead of the current one\n    startAuction(_tokenId + 2);\n    // total auctions gets incremented when the auction is finished\n    totalAuctions++;\n    // then winner can mint\n    allowMint(_tokenId);\n    // move funds to the treasury\n    treasuryAddress.transfer(auction.endPrice);\n  }\n\n  function startAuction(uint _tokenId) private {\n    // this must run 1 in advance of the auction.\n    // [0, 1, 2 (current), 3] --> when current moves to 3, then the 4th is created\n    Auction memory lastAuction = auctions[_tokenId - 1];\n    auctions[_tokenId] = Auction({\n      endPrice: 0,\n      startTime: lastAuction.endTime + 1, // 1 second after the last auction ends\n      endTime: lastAuction.endTime + 1 days, // 1 day after the last auction ends\n      active: false\n    });\n  }\n\n  function allowMint(uint _tokenId) private {\n    // Allow the winner to mint the token on the Stacks contract\n    addAvailableForMint(_tokenId, auctionWinner[_tokenId]);\n  }\n\n  // Admin functions\n  function setTreasuryAddress(address payable _treasuryAddress) public onlyOwner {\n    treasuryAddress = _treasuryAddress;\n  }\n}\n",
  "sourcePath": "/Users/bruno/dev/crypto/stacks/contracts/StacksAuctionHouse.sol",
  "compiler": {
    "name": "solc",
    "version": "0.8.17+commit.8df45f5f.Emscripten.clang"
  },
  "schemaVersion": "3.4.10",
  "updatedAt": "2023-02-04T18:43:57.000Z",
  "devdoc": {
    "kind": "dev",
    "methods": {
      "approve(address,uint256)": {
        "details": "See {IERC721-approve}."
      },
      "balanceOf(address)": {
        "details": "See {IERC721-balanceOf}."
      },
      "getApproved(uint256)": {
        "details": "See {IERC721-getApproved}."
      },
      "isApprovedForAll(address,address)": {
        "details": "See {IERC721-isApprovedForAll}."
      },
      "name()": {
        "details": "See {IERC721Metadata-name}."
      },
      "owner()": {
        "details": "Returns the address of the current owner."
      },
      "ownerOf(uint256)": {
        "details": "See {IERC721-ownerOf}."
      },
      "renounceOwnership()": {
        "details": "Leaves the contract without owner. It will not be possible to call `onlyOwner` functions anymore. Can only be called by the current owner. NOTE: Renouncing ownership will leave the contract without an owner, thereby removing any functionality that is only available to the owner."
      },
      "safeTransferFrom(address,address,uint256)": {
        "details": "See {IERC721-safeTransferFrom}."
      },
      "safeTransferFrom(address,address,uint256,bytes)": {
        "details": "See {IERC721-safeTransferFrom}."
      },
      "setApprovalForAll(address,bool)": {
        "details": "See {IERC721-setApprovalForAll}."
      },
      "symbol()": {
        "details": "See {IERC721Metadata-symbol}."
      },
      "transferFrom(address,address,uint256)": {
        "details": "See {IERC721-transferFrom}."
      },
      "transferOwnership(address)": {
        "details": "Transfers ownership of the contract to a new account (`newOwner`). Can only be called by the current owner."
      }
    },
    "version": 1
  },
  "userdoc": {
    "kind": "user",
    "methods": {},
    "version": 1
  }
}