{
  "contractName": "StacksAuctionHouse",
  "abi": [
    {
      "inputs": [
        {
          "internalType": "address payable",
          "name": "_treasuryAddress",
          "type": "address"
        }
      ],
      "stateMutability": "nonpayable",
      "type": "constructor"
    },
    {
      "anonymous": false,
      "inputs": [
        {
          "indexed": true,
          "internalType": "address",
          "name": "previousOwner",
          "type": "address"
        },
        {
          "indexed": true,
          "internalType": "address",
          "name": "newOwner",
          "type": "address"
        }
      ],
      "name": "OwnershipTransferred",
      "type": "event"
    },
    {
      "inputs": [],
      "name": "auctionOpened",
      "outputs": [
        {
          "internalType": "bool",
          "name": "",
          "type": "bool"
        }
      ],
      "stateMutability": "view",
      "type": "function",
      "constant": true
    },
    {
      "inputs": [
        {
          "internalType": "uint256",
          "name": "",
          "type": "uint256"
        }
      ],
      "name": "auctions",
      "outputs": [
        {
          "internalType": "uint256",
          "name": "endPrice",
          "type": "uint256"
        },
        {
          "internalType": "address payable",
          "name": "topBidder",
          "type": "address"
        },
        {
          "internalType": "uint256",
          "name": "startTime",
          "type": "uint256"
        },
        {
          "internalType": "uint256",
          "name": "endTime",
          "type": "uint256"
        },
        {
          "internalType": "bool",
          "name": "closed",
          "type": "bool"
        }
      ],
      "stateMutability": "view",
      "type": "function",
      "constant": true
    },
    {
      "inputs": [],
      "name": "createdAuctions",
      "outputs": [
        {
          "internalType": "uint256",
          "name": "",
          "type": "uint256"
        }
      ],
      "stateMutability": "view",
      "type": "function",
      "constant": true
    },
    {
      "inputs": [],
      "name": "owner",
      "outputs": [
        {
          "internalType": "address",
          "name": "",
          "type": "address"
        }
      ],
      "stateMutability": "view",
      "type": "function",
      "constant": true
    },
    {
      "inputs": [],
      "name": "renounceOwnership",
      "outputs": [],
      "stateMutability": "nonpayable",
      "type": "function"
    },
    {
      "inputs": [],
      "name": "totalAuctions",
      "outputs": [
        {
          "internalType": "uint256",
          "name": "",
          "type": "uint256"
        }
      ],
      "stateMutability": "view",
      "type": "function",
      "constant": true
    },
    {
      "inputs": [
        {
          "internalType": "address",
          "name": "newOwner",
          "type": "address"
        }
      ],
      "name": "transferOwnership",
      "outputs": [],
      "stateMutability": "nonpayable",
      "type": "function"
    },
    {
      "inputs": [],
      "name": "treasuryAddress",
      "outputs": [
        {
          "internalType": "address payable",
          "name": "",
          "type": "address"
        }
      ],
      "stateMutability": "view",
      "type": "function",
      "constant": true
    },
    {
      "inputs": [],
      "name": "getCurrentWinner",
      "outputs": [
        {
          "internalType": "address payable",
          "name": "",
          "type": "address"
        }
      ],
      "stateMutability": "view",
      "type": "function",
      "constant": true
    },
    {
      "inputs": [
        {
          "internalType": "uint256",
          "name": "_tokenId",
          "type": "uint256"
        }
      ],
      "name": "getAuctionWinner",
      "outputs": [
        {
          "internalType": "address payable",
          "name": "",
          "type": "address"
        }
      ],
      "stateMutability": "view",
      "type": "function",
      "constant": true
    },
    {
      "inputs": [],
      "name": "getCurrentAuction",
      "outputs": [
        {
          "components": [
            {
              "internalType": "uint256",
              "name": "endPrice",
              "type": "uint256"
            },
            {
              "internalType": "address payable",
              "name": "topBidder",
              "type": "address"
            },
            {
              "internalType": "uint256",
              "name": "startTime",
              "type": "uint256"
            },
            {
              "internalType": "uint256",
              "name": "endTime",
              "type": "uint256"
            },
            {
              "internalType": "bool",
              "name": "closed",
              "type": "bool"
            }
          ],
          "internalType": "struct StacksAuctionHouse.Auction",
          "name": "",
          "type": "tuple"
        }
      ],
      "stateMutability": "view",
      "type": "function",
      "constant": true
    },
    {
      "inputs": [],
      "name": "getLastCreatedAuction",
      "outputs": [
        {
          "components": [
            {
              "internalType": "uint256",
              "name": "endPrice",
              "type": "uint256"
            },
            {
              "internalType": "address payable",
              "name": "topBidder",
              "type": "address"
            },
            {
              "internalType": "uint256",
              "name": "startTime",
              "type": "uint256"
            },
            {
              "internalType": "uint256",
              "name": "endTime",
              "type": "uint256"
            },
            {
              "internalType": "bool",
              "name": "closed",
              "type": "bool"
            }
          ],
          "internalType": "struct StacksAuctionHouse.Auction",
          "name": "",
          "type": "tuple"
        }
      ],
      "stateMutability": "view",
      "type": "function",
      "constant": true
    },
    {
      "inputs": [
        {
          "internalType": "uint256",
          "name": "_tokenId",
          "type": "uint256"
        }
      ],
      "name": "getAuction",
      "outputs": [
        {
          "components": [
            {
              "internalType": "uint256",
              "name": "endPrice",
              "type": "uint256"
            },
            {
              "internalType": "address payable",
              "name": "topBidder",
              "type": "address"
            },
            {
              "internalType": "uint256",
              "name": "startTime",
              "type": "uint256"
            },
            {
              "internalType": "uint256",
              "name": "endTime",
              "type": "uint256"
            },
            {
              "internalType": "bool",
              "name": "closed",
              "type": "bool"
            }
          ],
          "internalType": "struct StacksAuctionHouse.Auction",
          "name": "",
          "type": "tuple"
        }
      ],
      "stateMutability": "view",
      "type": "function",
      "constant": true
    },
    {
      "inputs": [],
      "name": "bid",
      "outputs": [],
      "stateMutability": "payable",
      "type": "function",
      "payable": true
    },
    {
      "inputs": [
        {
          "internalType": "uint256",
          "name": "_tokenId",
          "type": "uint256"
        }
      ],
      "name": "closeAuction",
      "outputs": [],
      "stateMutability": "nonpayable",
      "type": "function"
    },
    {
      "inputs": [
        {
          "internalType": "address payable",
          "name": "_treasuryAddress",
          "type": "address"
        }
      ],
      "name": "setTreasuryAddress",
      "outputs": [],
      "stateMutability": "nonpayable",
      "type": "function"
    },
    {
      "inputs": [
        {
          "internalType": "bool",
          "name": "_open",
          "type": "bool"
        }
      ],
      "name": "setAuctionOpened",
      "outputs": [],
      "stateMutability": "nonpayable",
      "type": "function"
    },
    {
      "inputs": [
        {
          "internalType": "uint256",
          "name": "_amount",
          "type": "uint256"
        }
      ],
      "name": "createAuctions",
      "outputs": [],
      "stateMutability": "nonpayable",
      "type": "function"
    },
    {
      "inputs": [],
      "name": "daysSinceStart",
      "outputs": [
        {
          "internalType": "uint256",
          "name": "",
          "type": "uint256"
        }
      ],
      "stateMutability": "view",
      "type": "function",
      "constant": true
    }
  ],
  "bytecode": "0x6080604052600060025560006003556001600460146101000a81548160ff0219169083151502179055506363e6da806005553480156200003e57600080fd5b5060405162001ff838038062001ff883398181016040528101906200006491906200062a565b6200008462000078620001f760201b60201c565b620001ff60201b60201c565b80600460006101000a81548173ffffffffffffffffffffffffffffffffffffffff021916908373ffffffffffffffffffffffffffffffffffffffff1602179055506040518060a0016040528060008152602001600073ffffffffffffffffffffffffffffffffffffffff168152602001600554815260200160016201518060055462000111919062000695565b6200011d9190620006d0565b815260200160001515815250600160008081526020019081526020016000206000820151816000015560208201518160010160006101000a81548173ffffffffffffffffffffffffffffffffffffffff021916908373ffffffffffffffffffffffffffffffffffffffff160217905550604082015181600201556060820151816003015560808201518160040160006101000a81548160ff02191690831515021790555090505060036000815480929190620001d9906200070b565b9190505550620001f0601e620002c360201b60201c565b50620007db565b600033905090565b60008060009054906101000a900473ffffffffffffffffffffffffffffffffffffffff169050816000806101000a81548173ffffffffffffffffffffffffffffffffffffffff021916908373ffffffffffffffffffffffffffffffffffffffff1602179055508173ffffffffffffffffffffffffffffffffffffffff168173ffffffffffffffffffffffffffffffffffffffff167f8be0079c531659141344cd1fd0a4f28419497f9722a3daafe3b4186f6b6457e060405160405180910390a35050565b620002d36200032360201b60201c565b600081600354620002e5919062000695565b9050600060035490505b818110156200031e5762000308620003b460201b60201c565b808062000315906200070b565b915050620002ef565b505050565b62000333620001f760201b60201c565b73ffffffffffffffffffffffffffffffffffffffff16620003596200059760201b60201c565b73ffffffffffffffffffffffffffffffffffffffff1614620003b2576040517f08c379a0000000000000000000000000000000000000000000000000000000008152600401620003a990620007b9565b60405180910390fd5b565b6000600160006001600354620003cb9190620006d0565b81526020019081526020016000206040518060a0016040529081600082015481526020016001820160009054906101000a900473ffffffffffffffffffffffffffffffffffffffff1673ffffffffffffffffffffffffffffffffffffffff1673ffffffffffffffffffffffffffffffffffffffff16815260200160028201548152602001600382015481526020016004820160009054906101000a900460ff16151515158152505090506040518060a0016040528060008152602001600073ffffffffffffffffffffffffffffffffffffffff16815260200160018360600151620004b7919062000695565b8152602001620151808360600151620004d1919062000695565b8152602001600015158152506001600060035481526020019081526020016000206000820151816000015560208201518160010160006101000a81548173ffffffffffffffffffffffffffffffffffffffff021916908373ffffffffffffffffffffffffffffffffffffffff160217905550604082015181600201556060820151816003015560808201518160040160006101000a81548160ff021916908315150217905550905050600360008154809291906200058f906200070b565b919050555050565b60008060009054906101000a900473ffffffffffffffffffffffffffffffffffffffff16905090565b600080fd5b600073ffffffffffffffffffffffffffffffffffffffff82169050919050565b6000620005f282620005c5565b9050919050565b6200060481620005e5565b81146200061057600080fd5b50565b6000815190506200062481620005f9565b92915050565b600060208284031215620006435762000642620005c0565b5b6000620006538482850162000613565b91505092915050565b6000819050919050565b7f4e487b7100000000000000000000000000000000000000000000000000000000600052601160045260246000fd5b6000620006a2826200065c565b9150620006af836200065c565b9250828201905080821115620006ca57620006c962000666565b5b92915050565b6000620006dd826200065c565b9150620006ea836200065c565b925082820390508181111562000705576200070462000666565b5b92915050565b600062000718826200065c565b91507fffffffffffffffffffffffffffffffffffffffffffffffffffffffffffffffff82036200074d576200074c62000666565b5b600182019050919050565b600082825260208201905092915050565b7f4f776e61626c653a2063616c6c6572206973206e6f7420746865206f776e6572600082015250565b6000620007a160208362000758565b9150620007ae8262000769565b602082019050919050565b60006020820190508181036000830152620007d48162000792565b9050919050565b61180d80620007eb6000396000f3fe6080604052600436106101145760003560e01c8063715018a6116100a0578063acc49d8811610064578063acc49d8814610372578063c5f956af1461039b578063dcb66f12146103c6578063f22d9834146103f1578063f2fde38b1461041c57610114565b8063715018a61461029f57806378bd7935146102b65780638da5cb5b146102f3578063932247cf1461031e578063985d27cc1461034757610114565b8063236ed8f3116100e7578063236ed8f3146101b65780632b29bd0e146101df578063329bfc331461020a578063571a26a0146102355780636605bfda1461027657610114565b8063083d353b1461011957806316002f4a1461015657806317cf813e146101815780631998aeef146101ac575b600080fd5b34801561012557600080fd5b50610140600480360381019061013b9190611112565b610445565b60405161014d9190611180565b60405180910390f35b34801561016257600080fd5b5061016b610485565b60405161017891906111aa565b60405180910390f35b34801561018d57600080fd5b5061019661048b565b6040516101a391906111aa565b60405180910390f35b6101b46104ae565b005b3480156101c257600080fd5b506101dd60048036038101906101d89190611112565b610669565b005b3480156101eb57600080fd5b506101f4610774565b60405161020191906111e0565b60405180910390f35b34801561021657600080fd5b5061021f610787565b60405161022c9190611180565b60405180910390f35b34801561024157600080fd5b5061025c60048036038101906102579190611112565b6107cc565b60405161026d9594939291906111fb565b60405180910390f35b34801561028257600080fd5b5061029d6004803603810190610298919061127a565b61082f565b005b3480156102ab57600080fd5b506102b461087b565b005b3480156102c257600080fd5b506102dd60048036038101906102d89190611112565b61088f565b6040516102ea919061133c565b60405180910390f35b3480156102ff57600080fd5b5061030861094b565b6040516103159190611378565b60405180910390f35b34801561032a57600080fd5b50610345600480360381019061034091906113bf565b610974565b005b34801561035357600080fd5b5061035c610999565b604051610369919061133c565b60405180910390f35b34801561037e57600080fd5b5061039960048036038101906103949190611112565b610a61565b005b3480156103a757600080fd5b506103b0610aab565b6040516103bd9190611180565b60405180910390f35b3480156103d257600080fd5b506103db610ad1565b6040516103e8919061133c565b60405180910390f35b3480156103fd57600080fd5b50610406610b92565b60405161041391906111aa565b60405180910390f35b34801561042857600080fd5b50610443600480360381019061043e9190611418565b610b98565b005b60006001600083815260200190815260200160002060010160009054906101000a900473ffffffffffffffffffffffffffffffffffffffff169050919050565b60025481565b6000620151806005544261049f9190611474565b6104a991906114d7565b905090565b600460149054906101000a900460ff166104fd576040517f08c379a00000000000000000000000000000000000000000000000000000000081526004016104f490611565565b60405180910390fd5b6000610507610ad1565b9050600061051361048b565b9050600034905082600001518111610560576040517f08c379a0000000000000000000000000000000000000000000000000000000008152600401610557906115d1565b60405180910390fd5b600083600001519050600084602001519050336001600086815260200190815260200160002060010160006101000a81548173ffffffffffffffffffffffffffffffffffffffff021916908373ffffffffffffffffffffffffffffffffffffffff1602179055508260016000868152602001908152602001600020600001819055508073ffffffffffffffffffffffffffffffffffffffff166108fc839081150290604051600060405180830381858888f19350505050158015610628573d6000803e3d6000fd5b50600061064060018661063b9190611474565b61088f565b905080608001516106615761066060018661065b9190611474565b610c1b565b5b505050505050565b610671610d6b565b6000600160008381526020019081526020016000206040518060a0016040529081600082015481526020016001820160009054906101000a900473ffffffffffffffffffffffffffffffffffffffff1673ffffffffffffffffffffffffffffffffffffffff1673ffffffffffffffffffffffffffffffffffffffff16815260200160028201548152602001600382015481526020016004820160009054906101000a900460ff1615151515815250509050806080015115610767576040517f08c379a000000000000000000000000000000000000000000000000000000000815260040161075e9061163d565b60405180910390fd5b61077082610c1b565b5050565b600460149054906101000a900460ff1681565b60006001600061079561048b565b815260200190815260200160002060010160009054906101000a900473ffffffffffffffffffffffffffffffffffffffff16905090565b60016020528060005260406000206000915090508060000154908060010160009054906101000a900473ffffffffffffffffffffffffffffffffffffffff16908060020154908060030154908060040160009054906101000a900460ff16905085565b610837610d6b565b80600460006101000a81548173ffffffffffffffffffffffffffffffffffffffff021916908373ffffffffffffffffffffffffffffffffffffffff16021790555050565b610883610d6b565b61088d6000610de9565b565b610897611090565b600160008381526020019081526020016000206040518060a0016040529081600082015481526020016001820160009054906101000a900473ffffffffffffffffffffffffffffffffffffffff1673ffffffffffffffffffffffffffffffffffffffff1673ffffffffffffffffffffffffffffffffffffffff16815260200160028201548152602001600382015481526020016004820160009054906101000a900460ff1615151515815250509050919050565b60008060009054906101000a900473ffffffffffffffffffffffffffffffffffffffff16905090565b61097c610d6b565b80600460146101000a81548160ff02191690831515021790555050565b6109a1611090565b6001600060016003546109b49190611474565b81526020019081526020016000206040518060a0016040529081600082015481526020016001820160009054906101000a900473ffffffffffffffffffffffffffffffffffffffff1673ffffffffffffffffffffffffffffffffffffffff1673ffffffffffffffffffffffffffffffffffffffff16815260200160028201548152602001600382015481526020016004820160009054906101000a900460ff161515151581525050905090565b610a69610d6b565b600081600354610a79919061165d565b9050600060035490505b81811015610aa657610a93610ead565b8080610a9e90611691565b915050610a83565b505050565b600460009054906101000a900473ffffffffffffffffffffffffffffffffffffffff1681565b610ad9611090565b60016000610ae561048b565b81526020019081526020016000206040518060a0016040529081600082015481526020016001820160009054906101000a900473ffffffffffffffffffffffffffffffffffffffff1673ffffffffffffffffffffffffffffffffffffffff1673ffffffffffffffffffffffffffffffffffffffff16815260200160028201548152602001600382015481526020016004820160009054906101000a900460ff161515151581525050905090565b60035481565b610ba0610d6b565b600073ffffffffffffffffffffffffffffffffffffffff168173ffffffffffffffffffffffffffffffffffffffff1603610c0f576040517f08c379a0000000000000000000000000000000000000000000000000000000008152600401610c069061174b565b60405180910390fd5b610c1881610de9565b50565b6000600160008381526020019081526020016000206040518060a0016040529081600082015481526020016001820160009054906101000a900473ffffffffffffffffffffffffffffffffffffffff1673ffffffffffffffffffffffffffffffffffffffff1673ffffffffffffffffffffffffffffffffffffffff16815260200160028201548152602001600382015481526020016004820160009054906101000a900460ff1615151515815250509050600180600084815260200190815260200160002060040160006101000a81548160ff021916908315150217905550600460009054906101000a900473ffffffffffffffffffffffffffffffffffffffff1673ffffffffffffffffffffffffffffffffffffffff166108fc82600001519081150290604051600060405180830381858888f19350505050158015610d66573d6000803e3d6000fd5b505050565b610d73611088565b73ffffffffffffffffffffffffffffffffffffffff16610d9161094b565b73ffffffffffffffffffffffffffffffffffffffff1614610de7576040517f08c379a0000000000000000000000000000000000000000000000000000000008152600401610dde906117b7565b60405180910390fd5b565b60008060009054906101000a900473ffffffffffffffffffffffffffffffffffffffff169050816000806101000a81548173ffffffffffffffffffffffffffffffffffffffff021916908373ffffffffffffffffffffffffffffffffffffffff1602179055508173ffffffffffffffffffffffffffffffffffffffff168173ffffffffffffffffffffffffffffffffffffffff167f8be0079c531659141344cd1fd0a4f28419497f9722a3daafe3b4186f6b6457e060405160405180910390a35050565b6000600160006001600354610ec29190611474565b81526020019081526020016000206040518060a0016040529081600082015481526020016001820160009054906101000a900473ffffffffffffffffffffffffffffffffffffffff1673ffffffffffffffffffffffffffffffffffffffff1673ffffffffffffffffffffffffffffffffffffffff16815260200160028201548152602001600382015481526020016004820160009054906101000a900460ff16151515158152505090506040518060a0016040528060008152602001600073ffffffffffffffffffffffffffffffffffffffff16815260200160018360600151610fac919061165d565b8152602001620151808360600151610fc4919061165d565b8152602001600015158152506001600060035481526020019081526020016000206000820151816000015560208201518160010160006101000a81548173ffffffffffffffffffffffffffffffffffffffff021916908373ffffffffffffffffffffffffffffffffffffffff160217905550604082015181600201556060820151816003015560808201518160040160006101000a81548160ff0219169083151502179055509050506003600081548092919061108090611691565b919050555050565b600033905090565b6040518060a0016040528060008152602001600073ffffffffffffffffffffffffffffffffffffffff16815260200160008152602001600081526020016000151581525090565b600080fd5b6000819050919050565b6110ef816110dc565b81146110fa57600080fd5b50565b60008135905061110c816110e6565b92915050565b600060208284031215611128576111276110d7565b5b6000611136848285016110fd565b91505092915050565b600073ffffffffffffffffffffffffffffffffffffffff82169050919050565b600061116a8261113f565b9050919050565b61117a8161115f565b82525050565b60006020820190506111956000830184611171565b92915050565b6111a4816110dc565b82525050565b60006020820190506111bf600083018461119b565b92915050565b60008115159050919050565b6111da816111c5565b82525050565b60006020820190506111f560008301846111d1565b92915050565b600060a082019050611210600083018861119b565b61121d6020830187611171565b61122a604083018661119b565b611237606083018561119b565b61124460808301846111d1565b9695505050505050565b6112578161115f565b811461126257600080fd5b50565b6000813590506112748161124e565b92915050565b6000602082840312156112905761128f6110d7565b5b600061129e84828501611265565b91505092915050565b6112b0816110dc565b82525050565b6112bf8161115f565b82525050565b6112ce816111c5565b82525050565b60a0820160008201516112ea60008501826112a7565b5060208201516112fd60208501826112b6565b50604082015161131060408501826112a7565b50606082015161132360608501826112a7565b50608082015161133660808501826112c5565b50505050565b600060a08201905061135160008301846112d4565b92915050565b60006113628261113f565b9050919050565b61137281611357565b82525050565b600060208201905061138d6000830184611369565b92915050565b61139c816111c5565b81146113a757600080fd5b50565b6000813590506113b981611393565b92915050565b6000602082840312156113d5576113d46110d7565b5b60006113e3848285016113aa565b91505092915050565b6113f581611357565b811461140057600080fd5b50565b600081359050611412816113ec565b92915050565b60006020828403121561142e5761142d6110d7565b5b600061143c84828501611403565b91505092915050565b7f4e487b7100000000000000000000000000000000000000000000000000000000600052601160045260246000fd5b600061147f826110dc565b915061148a836110dc565b92508282039050818111156114a2576114a1611445565b5b92915050565b7f4e487b7100000000000000000000000000000000000000000000000000000000600052601260045260246000fd5b60006114e2826110dc565b91506114ed836110dc565b9250826114fd576114fc6114a8565b5b828204905092915050565b600082825260208201905092915050565b7f41756374696f6e20697320636c6f736564000000000000000000000000000000600082015250565b600061154f601183611508565b915061155a82611519565b602082019050919050565b6000602082019050818103600083015261157e81611542565b9050919050565b7f42696420697320746f6f206c6f77000000000000000000000000000000000000600082015250565b60006115bb600e83611508565b91506115c682611585565b602082019050919050565b600060208201905081810360008301526115ea816115ae565b9050919050565b7f41756374696f6e20616c726561647920636c6f73656400000000000000000000600082015250565b6000611627601683611508565b9150611632826115f1565b602082019050919050565b600060208201905081810360008301526116568161161a565b9050919050565b6000611668826110dc565b9150611673836110dc565b925082820190508082111561168b5761168a611445565b5b92915050565b600061169c826110dc565b91507fffffffffffffffffffffffffffffffffffffffffffffffffffffffffffffffff82036116ce576116cd611445565b5b600182019050919050565b7f4f776e61626c653a206e6577206f776e657220697320746865207a65726f206160008201527f6464726573730000000000000000000000000000000000000000000000000000602082015250565b6000611735602683611508565b9150611740826116d9565b604082019050919050565b6000602082019050818103600083015261176481611728565b9050919050565b7f4f776e61626c653a2063616c6c6572206973206e6f7420746865206f776e6572600082015250565b60006117a1602083611508565b91506117ac8261176b565b602082019050919050565b600060208201905081810360008301526117d081611794565b905091905056fea2646970667358221220583611d7789cbf8a34f4efaeb8542ec3da7d4665dbdfa2a54a3a741df76986c564736f6c63430008110033",
  "immutableReferences": {},
  "source": "// SPDX-License-Identifier: MIT\npragma solidity >=0.4.22 <0.9.0;\n\nimport \"@openzeppelin/contracts/access/Ownable.sol\";\n\ncontract StacksAuctionHouse is Ownable {\n  mapping(uint => Auction) public auctions;\n  uint public totalAuctions = 0;\n  uint public createdAuctions = 0;\n  address payable public treasuryAddress;\n  bool public auctionOpened = true;\n  // uint startTimeOfFirstAuction = 1677628800; // Wed Mar 01 2023 00:00:00 GMT+0000\n  uint startTimeOfFirstAuction = 1676073600;  // Test start: Sat Feb 11 2023 00:00:00 GMT+0000\n\n  struct Auction {\n    uint endPrice;\n    address payable topBidder;\n    uint startTime;\n    uint endTime;\n    bool closed;\n  }\n\n  constructor(address payable _treasuryAddress) {\n    treasuryAddress = _treasuryAddress;\n    // Create the first auction\n    auctions[0] = Auction({\n      endPrice: 0,\n      topBidder: payable(address(0)),\n      startTime: startTimeOfFirstAuction,\n      endTime: (startTimeOfFirstAuction + 1 days) - 1,\n      closed: false\n    });\n    createdAuctions++;\n    // Create next 30 auctions\n    createAuctions(30);\n  }\n\n  function getCurrentWinner() public view returns (address payable) {\n    return auctions[daysSinceStart()].topBidder;\n  }\n\n  function getAuctionWinner(uint _tokenId) public view returns (address payable) {\n    return auctions[_tokenId].topBidder;\n  }\n\n  function getCurrentAuction() public view returns (Auction memory) {\n    return auctions[daysSinceStart()];\n  }\n\n  function getLastCreatedAuction() public view returns (Auction memory) {\n    return auctions[createdAuctions - 1];\n  }\n\n  function getAuction(uint _tokenId) public view returns (Auction memory) {\n    return auctions[_tokenId];\n  }\n\n  function bid() public payable {\n    require(auctionOpened, \"Auction is closed\");\n    Auction memory auction = getCurrentAuction();\n    uint auctionId = daysSinceStart();\n    uint paidVal = msg.value;\n\n    require(paidVal > auction.endPrice, \"Bid is too low\");\n    uint lastBid = auction.endPrice;\n    address payable lastBidder = auction.topBidder;\n    // update the auction\n    auctions[auctionId].topBidder = payable(msg.sender);\n    auctions[auctionId].endPrice = paidVal;\n\n    // refund last bidder\n    lastBidder.transfer(lastBid);\n\n    Auction memory lastAuction = getAuction(auctionId - 1);\n    if(!lastAuction.closed) {\n      _closeAuction(auctionId - 1);\n    }\n  }\n\n  function closeAuction(uint _tokenId) public onlyOwner {\n    Auction memory auction = auctions[_tokenId];\n    require(!auction.closed, \"Auction already closed\");\n    _closeAuction(_tokenId);\n  }\n\n  function _closeAuction(uint _tokenId) private {\n    Auction memory auction = auctions[_tokenId];\n    // close the auction\n    auctions[_tokenId].closed = true;\n    // move funds to the treasury\n    treasuryAddress.transfer(auction.endPrice);\n  }\n\n  // Admin functions\n  function setTreasuryAddress(address payable _treasuryAddress) public onlyOwner {\n    treasuryAddress = _treasuryAddress;\n  }\n\n  function setAuctionOpened(bool _open) public onlyOwner {\n    auctionOpened = _open;\n  }\n\n  // run to create auctions in bulk for the next _amount days\n  function createAuctions(uint _amount) public onlyOwner {\n    uint finalCreatedAuctions = createdAuctions + _amount;\n    for (uint i = createdAuctions; i < finalCreatedAuctions; i++) {\n      createNextAuction();\n    }\n  }\n\n  function createNextAuction() private {\n    Auction memory lastAuction = auctions[createdAuctions - 1];\n    auctions[createdAuctions] = Auction({\n      endPrice: 0,\n      topBidder: payable(address(0)),\n      startTime: lastAuction.endTime + 1, // 1 second after the last auction ends\n      endTime: lastAuction.endTime + 1 days, // 1 day after the last auction ends\n      closed: false\n    });\n    createdAuctions++;\n  }\n\n  // daysSinceStart() same as currentAuctionId()\n  function daysSinceStart() public view returns (uint) {\n    return (block.timestamp - startTimeOfFirstAuction) / 1 days;\n  }\n}\n",
  "sourcePath": "/Users/bruno/dev/crypto/stacks/contracts/StacksAuctionHouse.sol",
  "compiler": {
    "name": "solc",
    "version": "0.8.17+commit.8df45f5f.Emscripten.clang"
  },
  "schemaVersion": "3.4.10",
  "updatedAt": "2023-02-17T11:15:28.053Z",
  "networkType": "ethereum",
  "devdoc": {
    "kind": "dev",
    "methods": {
      "owner()": {
        "details": "Returns the address of the current owner."
      },
      "renounceOwnership()": {
        "details": "Leaves the contract without owner. It will not be possible to call `onlyOwner` functions anymore. Can only be called by the current owner. NOTE: Renouncing ownership will leave the contract without an owner, thereby removing any functionality that is only available to the owner."
      },
      "transferOwnership(address)": {
        "details": "Transfers ownership of the contract to a new account (`newOwner`). Can only be called by the current owner."
      }
    },
    "version": 1
  },
  "userdoc": {
    "kind": "user",
    "methods": {},
    "version": 1
  }
}