{
  "contractName": "StacksAuctionHouse",
  "abi": [
    {
      "inputs": [
        {
          "internalType": "address payable",
          "name": "_treasuryAddress",
          "type": "address"
        }
      ],
      "stateMutability": "nonpayable",
      "type": "constructor"
    },
    {
      "anonymous": false,
      "inputs": [
        {
          "indexed": true,
          "internalType": "address",
          "name": "owner",
          "type": "address"
        },
        {
          "indexed": true,
          "internalType": "address",
          "name": "approved",
          "type": "address"
        },
        {
          "indexed": true,
          "internalType": "uint256",
          "name": "tokenId",
          "type": "uint256"
        }
      ],
      "name": "Approval",
      "type": "event"
    },
    {
      "anonymous": false,
      "inputs": [
        {
          "indexed": true,
          "internalType": "address",
          "name": "owner",
          "type": "address"
        },
        {
          "indexed": true,
          "internalType": "address",
          "name": "operator",
          "type": "address"
        },
        {
          "indexed": false,
          "internalType": "bool",
          "name": "approved",
          "type": "bool"
        }
      ],
      "name": "ApprovalForAll",
      "type": "event"
    },
    {
      "anonymous": false,
      "inputs": [
        {
          "indexed": true,
          "internalType": "address",
          "name": "previousOwner",
          "type": "address"
        },
        {
          "indexed": true,
          "internalType": "address",
          "name": "newOwner",
          "type": "address"
        }
      ],
      "name": "OwnershipTransferred",
      "type": "event"
    },
    {
      "anonymous": false,
      "inputs": [
        {
          "indexed": true,
          "internalType": "address",
          "name": "from",
          "type": "address"
        },
        {
          "indexed": true,
          "internalType": "address",
          "name": "to",
          "type": "address"
        },
        {
          "indexed": true,
          "internalType": "uint256",
          "name": "tokenId",
          "type": "uint256"
        }
      ],
      "name": "Transfer",
      "type": "event"
    },
    {
      "inputs": [],
      "name": "PERCENT_DIVIDER",
      "outputs": [
        {
          "internalType": "uint256",
          "name": "",
          "type": "uint256"
        }
      ],
      "stateMutability": "view",
      "type": "function",
      "constant": true
    },
    {
      "inputs": [],
      "name": "SALE_FEE",
      "outputs": [
        {
          "internalType": "uint256",
          "name": "",
          "type": "uint256"
        }
      ],
      "stateMutability": "view",
      "type": "function",
      "constant": true
    },
    {
      "inputs": [
        {
          "internalType": "address",
          "name": "to",
          "type": "address"
        },
        {
          "internalType": "uint256",
          "name": "tokenId",
          "type": "uint256"
        }
      ],
      "name": "approve",
      "outputs": [],
      "stateMutability": "nonpayable",
      "type": "function"
    },
    {
      "inputs": [],
      "name": "auctionHouse",
      "outputs": [
        {
          "internalType": "address",
          "name": "",
          "type": "address"
        }
      ],
      "stateMutability": "view",
      "type": "function",
      "constant": true
    },
    {
      "inputs": [
        {
          "internalType": "uint256",
          "name": "",
          "type": "uint256"
        }
      ],
      "name": "auctionWinner",
      "outputs": [
        {
          "internalType": "address payable",
          "name": "",
          "type": "address"
        }
      ],
      "stateMutability": "view",
      "type": "function",
      "constant": true
    },
    {
      "inputs": [
        {
          "internalType": "uint256",
          "name": "",
          "type": "uint256"
        }
      ],
      "name": "auctions",
      "outputs": [
        {
          "internalType": "uint256",
          "name": "endPrice",
          "type": "uint256"
        },
        {
          "internalType": "uint256",
          "name": "startTime",
          "type": "uint256"
        },
        {
          "internalType": "uint256",
          "name": "endTime",
          "type": "uint256"
        },
        {
          "internalType": "bool",
          "name": "active",
          "type": "bool"
        }
      ],
      "stateMutability": "view",
      "type": "function",
      "constant": true
    },
    {
      "inputs": [
        {
          "internalType": "address",
          "name": "owner",
          "type": "address"
        }
      ],
      "name": "balanceOf",
      "outputs": [
        {
          "internalType": "uint256",
          "name": "",
          "type": "uint256"
        }
      ],
      "stateMutability": "view",
      "type": "function",
      "constant": true
    },
    {
      "inputs": [
        {
          "internalType": "uint256",
          "name": "tokenId",
          "type": "uint256"
        }
      ],
      "name": "getApproved",
      "outputs": [
        {
          "internalType": "address",
          "name": "",
          "type": "address"
        }
      ],
      "stateMutability": "view",
      "type": "function",
      "constant": true
    },
    {
      "inputs": [
        {
          "internalType": "address",
          "name": "owner",
          "type": "address"
        },
        {
          "internalType": "address",
          "name": "operator",
          "type": "address"
        }
      ],
      "name": "isApprovedForAll",
      "outputs": [
        {
          "internalType": "bool",
          "name": "",
          "type": "bool"
        }
      ],
      "stateMutability": "view",
      "type": "function",
      "constant": true
    },
    {
      "inputs": [],
      "name": "maxSupply",
      "outputs": [
        {
          "internalType": "uint256",
          "name": "",
          "type": "uint256"
        }
      ],
      "stateMutability": "view",
      "type": "function",
      "constant": true
    },
    {
      "inputs": [
        {
          "internalType": "uint256",
          "name": "_tokenId",
          "type": "uint256"
        }
      ],
      "name": "mint",
      "outputs": [],
      "stateMutability": "nonpayable",
      "type": "function"
    },
    {
      "inputs": [],
      "name": "mintOpen",
      "outputs": [
        {
          "internalType": "bool",
          "name": "",
          "type": "bool"
        }
      ],
      "stateMutability": "view",
      "type": "function",
      "constant": true
    },
    {
      "inputs": [],
      "name": "name",
      "outputs": [
        {
          "internalType": "string",
          "name": "",
          "type": "string"
        }
      ],
      "stateMutability": "view",
      "type": "function",
      "constant": true
    },
    {
      "inputs": [],
      "name": "owner",
      "outputs": [
        {
          "internalType": "address",
          "name": "",
          "type": "address"
        }
      ],
      "stateMutability": "view",
      "type": "function",
      "constant": true
    },
    {
      "inputs": [
        {
          "internalType": "uint256",
          "name": "tokenId",
          "type": "uint256"
        }
      ],
      "name": "ownerOf",
      "outputs": [
        {
          "internalType": "address",
          "name": "",
          "type": "address"
        }
      ],
      "stateMutability": "view",
      "type": "function",
      "constant": true
    },
    {
      "inputs": [],
      "name": "renounceOwnership",
      "outputs": [],
      "stateMutability": "nonpayable",
      "type": "function"
    },
    {
      "inputs": [
        {
          "internalType": "uint256",
          "name": "",
          "type": "uint256"
        },
        {
          "internalType": "uint256",
          "name": "_salePrice",
          "type": "uint256"
        }
      ],
      "name": "royaltyInfo",
      "outputs": [
        {
          "internalType": "address",
          "name": "receiver",
          "type": "address"
        },
        {
          "internalType": "uint256",
          "name": "royaltyAmount",
          "type": "uint256"
        }
      ],
      "stateMutability": "view",
      "type": "function",
      "constant": true
    },
    {
      "inputs": [
        {
          "internalType": "address",
          "name": "from",
          "type": "address"
        },
        {
          "internalType": "address",
          "name": "to",
          "type": "address"
        },
        {
          "internalType": "uint256",
          "name": "tokenId",
          "type": "uint256"
        }
      ],
      "name": "safeTransferFrom",
      "outputs": [],
      "stateMutability": "nonpayable",
      "type": "function"
    },
    {
      "inputs": [
        {
          "internalType": "address",
          "name": "from",
          "type": "address"
        },
        {
          "internalType": "address",
          "name": "to",
          "type": "address"
        },
        {
          "internalType": "uint256",
          "name": "tokenId",
          "type": "uint256"
        },
        {
          "internalType": "bytes",
          "name": "data",
          "type": "bytes"
        }
      ],
      "name": "safeTransferFrom",
      "outputs": [],
      "stateMutability": "nonpayable",
      "type": "function"
    },
    {
      "inputs": [
        {
          "internalType": "address",
          "name": "operator",
          "type": "address"
        },
        {
          "internalType": "bool",
          "name": "approved",
          "type": "bool"
        }
      ],
      "name": "setApprovalForAll",
      "outputs": [],
      "stateMutability": "nonpayable",
      "type": "function"
    },
    {
      "inputs": [
        {
          "internalType": "address",
          "name": "_auctionHouse",
          "type": "address"
        }
      ],
      "name": "setAuctionHouse",
      "outputs": [],
      "stateMutability": "nonpayable",
      "type": "function"
    },
    {
      "inputs": [
        {
          "internalType": "uint256",
          "name": "_SALE_FEE",
          "type": "uint256"
        }
      ],
      "name": "setRegularFee",
      "outputs": [],
      "stateMutability": "nonpayable",
      "type": "function"
    },
    {
      "inputs": [],
      "name": "softCap",
      "outputs": [
        {
          "internalType": "uint256",
          "name": "",
          "type": "uint256"
        }
      ],
      "stateMutability": "view",
      "type": "function",
      "constant": true
    },
    {
      "inputs": [
        {
          "internalType": "bytes4",
          "name": "_interfaceId",
          "type": "bytes4"
        }
      ],
      "name": "supportsInterface",
      "outputs": [
        {
          "internalType": "bool",
          "name": "",
          "type": "bool"
        }
      ],
      "stateMutability": "view",
      "type": "function",
      "constant": true
    },
    {
      "inputs": [],
      "name": "symbol",
      "outputs": [
        {
          "internalType": "string",
          "name": "",
          "type": "string"
        }
      ],
      "stateMutability": "view",
      "type": "function",
      "constant": true
    },
    {
      "inputs": [
        {
          "internalType": "address",
          "name": "_teamMember",
          "type": "address"
        }
      ],
      "name": "teamMint",
      "outputs": [],
      "stateMutability": "nonpayable",
      "type": "function"
    },
    {
      "inputs": [],
      "name": "teamMinted",
      "outputs": [
        {
          "internalType": "uint256",
          "name": "",
          "type": "uint256"
        }
      ],
      "stateMutability": "view",
      "type": "function",
      "constant": true
    },
    {
      "inputs": [
        {
          "internalType": "bool",
          "name": "_open",
          "type": "bool"
        }
      ],
      "name": "toggleMint",
      "outputs": [],
      "stateMutability": "nonpayable",
      "type": "function"
    },
    {
      "inputs": [
        {
          "internalType": "bool",
          "name": "_open",
          "type": "bool"
        }
      ],
      "name": "toggleWlMint",
      "outputs": [],
      "stateMutability": "nonpayable",
      "type": "function"
    },
    {
      "inputs": [
        {
          "internalType": "uint256",
          "name": "",
          "type": "uint256"
        }
      ],
      "name": "tokenMetaDataRecord",
      "outputs": [
        {
          "internalType": "bool",
          "name": "minted",
          "type": "bool"
        },
        {
          "internalType": "uint256",
          "name": "timestamp",
          "type": "uint256"
        }
      ],
      "stateMutability": "view",
      "type": "function",
      "constant": true
    },
    {
      "inputs": [
        {
          "internalType": "uint256",
          "name": "",
          "type": "uint256"
        }
      ],
      "name": "tokenMinter",
      "outputs": [
        {
          "internalType": "address",
          "name": "",
          "type": "address"
        }
      ],
      "stateMutability": "view",
      "type": "function",
      "constant": true
    },
    {
      "inputs": [
        {
          "internalType": "uint256",
          "name": "_tokenId",
          "type": "uint256"
        }
      ],
      "name": "tokenURI",
      "outputs": [
        {
          "internalType": "string",
          "name": "",
          "type": "string"
        }
      ],
      "stateMutability": "view",
      "type": "function",
      "constant": true
    },
    {
      "inputs": [],
      "name": "totalAuctions",
      "outputs": [
        {
          "internalType": "uint256",
          "name": "",
          "type": "uint256"
        }
      ],
      "stateMutability": "view",
      "type": "function",
      "constant": true
    },
    {
      "inputs": [
        {
          "internalType": "address",
          "name": "from",
          "type": "address"
        },
        {
          "internalType": "address",
          "name": "to",
          "type": "address"
        },
        {
          "internalType": "uint256",
          "name": "tokenId",
          "type": "uint256"
        }
      ],
      "name": "transferFrom",
      "outputs": [],
      "stateMutability": "nonpayable",
      "type": "function"
    },
    {
      "inputs": [
        {
          "internalType": "address",
          "name": "newOwner",
          "type": "address"
        }
      ],
      "name": "transferOwnership",
      "outputs": [],
      "stateMutability": "nonpayable",
      "type": "function"
    },
    {
      "inputs": [],
      "name": "treasuryAddress",
      "outputs": [
        {
          "internalType": "address payable",
          "name": "",
          "type": "address"
        }
      ],
      "stateMutability": "view",
      "type": "function",
      "constant": true
    },
    {
      "inputs": [],
      "name": "wlMint",
      "outputs": [],
      "stateMutability": "nonpayable",
      "type": "function"
    },
    {
      "inputs": [],
      "name": "wlMintOpen",
      "outputs": [
        {
          "internalType": "bool",
          "name": "",
          "type": "bool"
        }
      ],
      "stateMutability": "view",
      "type": "function",
      "constant": true
    },
    {
      "inputs": [],
      "name": "getCurrentWinner",
      "outputs": [
        {
          "internalType": "address payable",
          "name": "",
          "type": "address"
        }
      ],
      "stateMutability": "view",
      "type": "function",
      "constant": true
    },
    {
      "inputs": [],
      "name": "getCurrentAuction",
      "outputs": [
        {
          "components": [
            {
              "internalType": "uint256",
              "name": "endPrice",
              "type": "uint256"
            },
            {
              "internalType": "uint256",
              "name": "startTime",
              "type": "uint256"
            },
            {
              "internalType": "uint256",
              "name": "endTime",
              "type": "uint256"
            },
            {
              "internalType": "bool",
              "name": "active",
              "type": "bool"
            }
          ],
          "internalType": "struct StacksAuctionHouse.Auction",
          "name": "",
          "type": "tuple"
        }
      ],
      "stateMutability": "view",
      "type": "function",
      "constant": true
    },
    {
      "inputs": [
        {
          "internalType": "uint256",
          "name": "_tokenId",
          "type": "uint256"
        }
      ],
      "name": "getAuction",
      "outputs": [
        {
          "components": [
            {
              "internalType": "uint256",
              "name": "endPrice",
              "type": "uint256"
            },
            {
              "internalType": "uint256",
              "name": "startTime",
              "type": "uint256"
            },
            {
              "internalType": "uint256",
              "name": "endTime",
              "type": "uint256"
            },
            {
              "internalType": "bool",
              "name": "active",
              "type": "bool"
            }
          ],
          "internalType": "struct StacksAuctionHouse.Auction",
          "name": "",
          "type": "tuple"
        }
      ],
      "stateMutability": "view",
      "type": "function",
      "constant": true
    },
    {
      "inputs": [],
      "name": "bid",
      "outputs": [],
      "stateMutability": "payable",
      "type": "function",
      "payable": true
    },
    {
      "inputs": [
        {
          "internalType": "address payable",
          "name": "_treasuryAddress",
          "type": "address"
        }
      ],
      "name": "setTreasuryAddress",
      "outputs": [],
      "stateMutability": "nonpayable",
      "type": "function"
    }
  ],
  "bytecode": "0x60806040526103e8600955611388600e55610fa9600f55600060105560006013553480156200002d57600080fd5b506040516200601a3803806200601a833981810160405281019062000053919062000436565b6040518060400160405280601681526020017f537461636b7320496e766573746d656e742043617264000000000000000000008152506040518060400160405280600681526020017f535441434b5300000000000000000000000000000000000000000000000000008152508160009081620000d09190620006e2565b508060019081620000e29190620006e2565b50505062000105620000f9620001f260201b60201c565b620001fa60201b60201c565b80601460006101000a81548173ffffffffffffffffffffffffffffffffffffffff021916908373ffffffffffffffffffffffffffffffffffffffff16021790555060006363e6da8090506040518060800160405280600081526020018281526020016201518083620001789190620007f8565b8152602001600115158152506011600080815260200190815260200160002060008201518160000155602082015181600101556040820151816002015560608201518160030160006101000a81548160ff021916908315150217905550905050620001ea6001620002c060201b60201c565b50506200086e565b600033905090565b6000600860009054906101000a900473ffffffffffffffffffffffffffffffffffffffff16905081600860006101000a81548173ffffffffffffffffffffffffffffffffffffffff021916908373ffffffffffffffffffffffffffffffffffffffff1602179055508173ffffffffffffffffffffffffffffffffffffffff168173ffffffffffffffffffffffffffffffffffffffff167f8be0079c531659141344cd1fd0a4f28419497f9722a3daafe3b4186f6b6457e060405160405180910390a35050565b600060116000600184620002d5919062000833565b81526020019081526020016000206040518060800160405290816000820154815260200160018201548152602001600282015481526020016003820160009054906101000a900460ff1615151515815250509050604051806080016040528060008152602001600183604001516200034e9190620007f8565b8152602001620151808360400151620003689190620007f8565b8152602001600015158152506011600084815260200190815260200160002060008201518160000155602082015181600101556040820151816002015560608201518160030160006101000a81548160ff0219169083151502179055509050505050565b600080fd5b600073ffffffffffffffffffffffffffffffffffffffff82169050919050565b6000620003fe82620003d1565b9050919050565b6200041081620003f1565b81146200041c57600080fd5b50565b600081519050620004308162000405565b92915050565b6000602082840312156200044f576200044e620003cc565b5b60006200045f848285016200041f565b91505092915050565b600081519050919050565b7f4e487b7100000000000000000000000000000000000000000000000000000000600052604160045260246000fd5b7f4e487b7100000000000000000000000000000000000000000000000000000000600052602260045260246000fd5b60006002820490506001821680620004ea57607f821691505b6020821081036200050057620004ff620004a2565b5b50919050565b60008190508160005260206000209050919050565b60006020601f8301049050919050565b600082821b905092915050565b6000600883026200056a7fffffffffffffffffffffffffffffffffffffffffffffffffffffffffffffffff826200052b565b6200057686836200052b565b95508019841693508086168417925050509392505050565b6000819050919050565b6000819050919050565b6000620005c3620005bd620005b7846200058e565b62000598565b6200058e565b9050919050565b6000819050919050565b620005df83620005a2565b620005f7620005ee82620005ca565b84845462000538565b825550505050565b600090565b6200060e620005ff565b6200061b818484620005d4565b505050565b5b8181101562000643576200063760008262000604565b60018101905062000621565b5050565b601f82111562000692576200065c8162000506565b62000667846200051b565b8101602085101562000677578190505b6200068f62000686856200051b565b83018262000620565b50505b505050565b600082821c905092915050565b6000620006b76000198460080262000697565b1980831691505092915050565b6000620006d28383620006a4565b9150826002028217905092915050565b620006ed8262000468565b67ffffffffffffffff81111562000709576200070862000473565b5b620007158254620004d1565b6200072282828562000647565b600060209050601f8311600181146200075a576000841562000745578287015190505b620007518582620006c4565b865550620007c1565b601f1984166200076a8662000506565b60005b8281101562000794578489015182556001820191506020850194506020810190506200076d565b86831015620007b45784890151620007b0601f891682620006a4565b8355505b6001600288020188555050505b505050505050565b7f4e487b7100000000000000000000000000000000000000000000000000000000600052601160045260246000fd5b600062000805826200058e565b915062000812836200058e565b92508282019050808211156200082d576200082c620007c9565b5b92915050565b600062000840826200058e565b91506200084d836200058e565b9250828203905081811115620008685762000867620007c9565b5b92915050565b61579c806200087e6000396000f3fe608060405260043610620002955760003560e01c80637c57d9471162000163578063bdce6c4411620000c7578063e76d89521162000085578063e76d895214620009f1578063e8b5498d1462000a1f578063e985e9c51462000a4f578063ed9152c81462000a93578063f2fde38b1462000ac3578063fe0dad251462000af15762000295565b8063bdce6c4414620008d8578063c5f956af146200091d578063c87b56dd146200094d578063d5abeb011462000991578063dcb66f1214620009c15762000295565b806395d89b41116200012157806395d89b4114620007c2578063a0712d6814620007f2578063a22cb4651462000820578063ac813088146200084e578063b6a1dba1146200087c578063b88d4fde14620008aa5762000295565b80637c57d94714620006d65780637f9fa411146200071a5780638a4dcd8514620007345780638da5cb5b1462000762578063906a26e014620007925762000295565b806329fc7bd8116200020b5780636352211e11620001c95780636352211e14620005925780636605bfda14620005d657806370a082311462000604578063715018a61462000648578063729eaa66146200066257806378bd793514620006925762000295565b806329fc7bd814620004785780632a55205a14620004a8578063329bfc3314620004ed57806342842e0e146200051d578063571a26a0146200054b5762000295565b806316002f4a116200025957806316002f4a14620003b05780631998aeef14620003e057806323b872dd14620003ec57806324bbd049146200041a57806329c4ba09146200044a5762000295565b8062725dca146200029a57806301ffc9a714620002ca57806306fdde03146200030e578063081812fc146200033e578063095ea7b31462000382575b600080fd5b348015620002a757600080fd5b50620002b262000b35565b604051620002c19190620031f3565b60405180910390f35b348015620002d757600080fd5b50620002f66004803603810190620002f0919062003281565b62000b48565b604051620003059190620031f3565b60405180910390f35b3480156200031b57600080fd5b506200032662000bb4565b6040516200033591906200334d565b60405180910390f35b3480156200034b57600080fd5b506200036a6004803603810190620003649190620033ac565b62000c4e565b60405162000379919062003423565b60405180910390f35b3480156200038f57600080fd5b50620003ae6004803603810190620003a8919062003471565b62000c96565b005b348015620003bd57600080fd5b50620003c862000dbe565b604051620003d79190620034c9565b60405180910390f35b620003ea62000dc4565b005b348015620003f957600080fd5b50620004186004803603810190620004129190620034e6565b62000f8f565b005b3480156200042757600080fd5b506200043262000ff8565b604051620004419190620031f3565b60405180910390f35b3480156200045757600080fd5b50620004766004803603810190620004709190620033ac565b6200100b565b005b3480156200048557600080fd5b506200049062001067565b6040516200049f9190620034c9565b60405180910390f35b348015620004b557600080fd5b50620004d46004803603810190620004ce919062003542565b6200106d565b604051620004e492919062003589565b60405180910390f35b348015620004fa57600080fd5b5062000505620010a4565b604051620005149190620035db565b60405180910390f35b3480156200052a57600080fd5b50620005496004803603810190620005439190620034e6565b620010e1565b005b3480156200055857600080fd5b50620005776004803603810190620005719190620033ac565b62001103565b604051620005899493929190620035f8565b60405180910390f35b3480156200059f57600080fd5b50620005be6004803603810190620005b89190620033ac565b62001140565b604051620005cd919062003423565b60405180910390f35b348015620005e357600080fd5b50620006026004803603810190620005fc919062003676565b620011cb565b005b3480156200061157600080fd5b506200063060048036038101906200062a9190620036a8565b62001219565b6040516200063f9190620034c9565b60405180910390f35b3480156200065557600080fd5b5062000660620012d3565b005b3480156200066f57600080fd5b506200067a620012eb565b604051620006899190620034c9565b60405180910390f35b3480156200069f57600080fd5b50620006be6004803603810190620006b89190620033ac565b620012f1565b604051620006cd919062003759565b60405180910390f35b348015620006e357600080fd5b50620007026004803603810190620006fc9190620033ac565b62001359565b60405162000711919062003423565b60405180910390f35b3480156200072757600080fd5b50620007326200138c565b005b3480156200074157600080fd5b506200076060048036038101906200075a9190620037a7565b62001644565b005b3480156200076f57600080fd5b506200077a6200166b565b60405162000789919062003423565b60405180910390f35b3480156200079f57600080fd5b50620007aa62001695565b604051620007b99190620034c9565b60405180910390f35b348015620007cf57600080fd5b50620007da6200169b565b604051620007e991906200334d565b60405180910390f35b348015620007ff57600080fd5b506200081e6004803603810190620008189190620033ac565b62001735565b005b3480156200082d57600080fd5b506200084c6004803603810190620008469190620037d9565b62001941565b005b3480156200085b57600080fd5b506200087a6004803603810190620008749190620037a7565b6200195b565b005b3480156200088957600080fd5b50620008a86004803603810190620008a29190620036a8565b62001982565b005b348015620008b757600080fd5b50620008d66004803603810190620008d0919062003971565b62001b82565b005b348015620008e557600080fd5b50620009046004803603810190620008fe9190620033ac565b62001bed565b6040516200091492919062003a02565b60405180910390f35b3480156200092a57600080fd5b506200093562001c1e565b604051620009449190620035db565b60405180910390f35b3480156200095a57600080fd5b50620009796004803603810190620009739190620033ac565b62001c44565b6040516200098891906200334d565b60405180910390f35b3480156200099e57600080fd5b50620009a962001c83565b604051620009b89190620034c9565b60405180910390f35b348015620009ce57600080fd5b50620009d962001c89565b604051620009e8919062003759565b60405180910390f35b348015620009fe57600080fd5b5062000a1d600480360381019062000a179190620036a8565b62001cf1565b005b34801562000a2c57600080fd5b5062000a3762001d3f565b60405162000a469190620034c9565b60405180910390f35b34801562000a5c57600080fd5b5062000a7b600480360381019062000a75919062003a2f565b62001d45565b60405162000a8a9190620031f3565b60405180910390f35b34801562000aa057600080fd5b5062000aab62001dd9565b60405162000aba919062003423565b60405180910390f35b34801562000ad057600080fd5b5062000aef600480360381019062000ae99190620036a8565b62001dff565b005b34801562000afe57600080fd5b5062000b1d600480360381019062000b179190620033ac565b62001e89565b60405162000b2c9190620035db565b60405180910390f35b600a60009054906101000a900460ff1681565b6000632a55205a60e01b7bffffffffffffffffffffffffffffffffffffffffffffffffffffffff1916827bffffffffffffffffffffffffffffffffffffffffffffffffffffffff19160362000ba1576001905062000baf565b62000bac8262001ebc565b90505b919050565b60606000805462000bc59062003aa5565b80601f016020809104026020016040519081016040528092919081815260200182805462000bf39062003aa5565b801562000c445780601f1062000c185761010080835404028352916020019162000c44565b820191906000526020600020905b81548152906001019060200180831162000c2657829003601f168201915b5050505050905090565b600062000c5b8262001f39565b6004600083815260200190815260200160002060009054906101000a900473ffffffffffffffffffffffffffffffffffffffff169050919050565b600062000ca38262001140565b90508073ffffffffffffffffffffffffffffffffffffffff168373ffffffffffffffffffffffffffffffffffffffff160362000d16576040517f08c379a000000000000000000000000000000000000000000000000000000000815260040162000d0d9062003b50565b60405180910390fd5b8073ffffffffffffffffffffffffffffffffffffffff1662000d3762001f89565b73ffffffffffffffffffffffffffffffffffffffff16148062000d6b575062000d6a8162000d6462001f89565b62001d45565b5b62000dad576040517f08c379a000000000000000000000000000000000000000000000000000000000815260040162000da49062003be8565b60405180910390fd5b62000db9838362001f91565b505050565b60135481565b600062000dd062001c89565b9050428160200151111562000e1c576040517f08c379a000000000000000000000000000000000000000000000000000000000815260040162000e139062003c5a565b60405180910390fd5b8060000151341162000e65576040517f08c379a000000000000000000000000000000000000000000000000000000000815260040162000e5c9062003ccc565b60405180910390fd5b600081600001519050600060126000601354815260200190815260200160002060009054906101000a900473ffffffffffffffffffffffffffffffffffffffff1690503360126000601354815260200190815260200160002060006101000a81548173ffffffffffffffffffffffffffffffffffffffff021916908373ffffffffffffffffffffffffffffffffffffffff16021790555034601160006013548152602001908152602001600020600001819055508073ffffffffffffffffffffffffffffffffffffffff166108fc839081150290604051600060405180830381858888f1935050505015801562000f60573d6000803e3d6000fd5b5042836040015110801562000f76575082606001515b1562000f8a5762000f896013546200204c565b5b505050565b62000fa462000f9d62001f89565b82620021a5565b62000fe6576040517f08c379a000000000000000000000000000000000000000000000000000000000815260040162000fdd9062003d64565b60405180910390fd5b62000ff383838362002242565b505050565b600d60149054906101000a900460ff1681565b620010156200254c565b610ce48111156200105d576040517f08c379a0000000000000000000000000000000000000000000000000000000008152600401620010549062003dd6565b60405180910390fd5b8060098190555050565b61271081565b6000806200107a6200166b565b612710600954856200108d919062003e27565b62001099919062003ea1565b915091509250929050565b600060126000601354815260200190815260200160002060009054906101000a900473ffffffffffffffffffffffffffffffffffffffff16905090565b620010fe8383836040518060200160405280600081525062001b82565b505050565b60116020528060005260406000206000915090508060000154908060010154908060020154908060030160009054906101000a900460ff16905084565b6000806200114e83620025d1565b9050600073ffffffffffffffffffffffffffffffffffffffff168173ffffffffffffffffffffffffffffffffffffffff1603620011c2576040517f08c379a0000000000000000000000000000000000000000000000000000000008152600401620011b99062003f29565b60405180910390fd5b80915050919050565b620011d56200254c565b80601460006101000a81548173ffffffffffffffffffffffffffffffffffffffff021916908373ffffffffffffffffffffffffffffffffffffffff16021790555050565b60008073ffffffffffffffffffffffffffffffffffffffff168273ffffffffffffffffffffffffffffffffffffffff16036200128c576040517f08c379a0000000000000000000000000000000000000000000000000000000008152600401620012839062003fc1565b60405180910390fd5b600360008373ffffffffffffffffffffffffffffffffffffffff1673ffffffffffffffffffffffffffffffffffffffff168152602001908152602001600020549050919050565b620012dd6200254c565b620012e960006200260e565b565b60095481565b620012fb6200319e565b601160008381526020019081526020016000206040518060800160405290816000820154815260200160018201548152602001600282015481526020016003820160009054906101000a900460ff1615151515815250509050919050565b600b6020528060005260406000206000915054906101000a900473ffffffffffffffffffffffffffffffffffffffff1681565b600a60009054906101000a900460ff16620013de576040517f08c379a0000000000000000000000000000000000000000000000000000000008152600401620013d59062004033565b60405180910390fd5b6000604051620013ee90620031c8565b604051809103906000f0801580156200140b573d6000803e3d6000fd5b5073ffffffffffffffffffffffffffffffffffffffff16637553e639336040518263ffffffff1660e01b815260040162001446919062003423565b6040805180830381865afa15801562001463573d6000803e3d6000fd5b505050506040513d601f19601f82011682018060405250810190620014899190620040e1565b90508060200151620014d2576040517f08c379a0000000000000000000000000000000000000000000000000000000008152600401620014c99062004163565b60405180910390fd5b600081600001519050600e5481111562001523576040517f08c379a00000000000000000000000000000000000000000000000000000000081526004016200151a90620041d5565b60405180910390fd5b600c600082815260200190815260200160002060000160009054906101000a900460ff16156200158a576040517f08c379a0000000000000000000000000000000000000000000000000000000008152600401620015819062004247565b60405180910390fd5b33600b600083815260200190815260200160002060006101000a81548173ffffffffffffffffffffffffffffffffffffffff021916908373ffffffffffffffffffffffffffffffffffffffff160217905550604051806040016040528060011515815260200142815250600c600083815260200190815260200160002060008201518160000160006101000a81548160ff02191690831515021790555060208201518160010155905050620016403382620026d4565b5050565b6200164e6200254c565b80600d60146101000a81548160ff02191690831515021790555050565b6000600860009054906101000a900473ffffffffffffffffffffffffffffffffffffffff16905090565b600f5481565b606060018054620016ac9062003aa5565b80601f0160208091040260200160405190810160405280929190818152602001828054620016da9062003aa5565b80156200172b5780601f10620016ff576101008083540402835291602001916200172b565b820191906000526020600020905b8154815290600101906020018083116200170d57829003601f168201915b5050505050905090565b600d60149054906101000a900460ff1662001787576040517f08c379a00000000000000000000000000000000000000000000000000000000081526004016200177e9062004033565b60405180910390fd5b600e54811115620017cf576040517f08c379a0000000000000000000000000000000000000000000000000000000008152600401620017c690620041d5565b60405180910390fd5b3373ffffffffffffffffffffffffffffffffffffffff16600b600083815260200190815260200160002060009054906101000a900473ffffffffffffffffffffffffffffffffffffffff1673ffffffffffffffffffffffffffffffffffffffff161462001873576040517f08c379a00000000000000000000000000000000000000000000000000000000081526004016200186a90620042df565b60405180910390fd5b600c600082815260200190815260200160002060000160009054906101000a900460ff1615620018da576040517f08c379a0000000000000000000000000000000000000000000000000000000008152600401620018d19062004247565b60405180910390fd5b604051806040016040528060011515815260200142815250600c600083815260200190815260200160002060008201518160000160006101000a81548160ff021916908315150217905550602082015181600101559050506200193e3382620026d4565b50565b620019576200194f62001f89565b8383620026f4565b5050565b620019656200254c565b80600a60006101000a81548160ff02191690831515021790555050565b6200198c6200254c565b60006001601054600f54620019a2919062004301565b620019ae919062004301565b9050600e54811115620019f8576040517f08c379a0000000000000000000000000000000000000000000000000000000008152600401620019ef90620041d5565b60405180910390fd5b6110d6811062001a4c57636592007f421162001a4b576040517f08c379a000000000000000000000000000000000000000000000000000000000815260040162001a4290620043b2565b60405180910390fd5b5b611202811062001aa057636774857f421162001a9f576040517f08c379a000000000000000000000000000000000000000000000000000000000815260040162001a96906200444a565b60405180910390fd5b5b61132e811062001af457636955b8ff421162001af3576040517f08c379a000000000000000000000000000000000000000000000000000000000815260040162001aea90620044e2565b60405180910390fd5b5b62001b00818362002865565b604051806040016040528060011515815260200142815250600c600083815260200190815260200160002060008201518160000160006101000a81548160ff0219169083151502179055506020820151816001015590505062001b643382620026d4565b6010600081548092919062001b799062004504565b91905055505050565b62001b9762001b9062001f89565b83620021a5565b62001bd9576040517f08c379a000000000000000000000000000000000000000000000000000000000815260040162001bd09062003d64565b60405180910390fd5b62001be784848484620028bb565b50505050565b600c6020528060005260406000206000915090508060000160009054906101000a900460ff16908060010154905082565b601460009054906101000a900473ffffffffffffffffffffffffffffffffffffffff1681565b606062001c518262001f39565b62001c5b6200291e565b60405160200162001c6d919062004593565b6040516020818303038152906040529050919050565b600e5481565b62001c936200319e565b6011600060135481526020019081526020016000206040518060800160405290816000820154815260200160018201548152602001600282015481526020016003820160009054906101000a900460ff161515151581525050905090565b62001cfb6200254c565b80600d60006101000a81548173ffffffffffffffffffffffffffffffffffffffff021916908373ffffffffffffffffffffffffffffffffffffffff16021790555050565b60105481565b6000600560008473ffffffffffffffffffffffffffffffffffffffff1673ffffffffffffffffffffffffffffffffffffffff16815260200190815260200160002060008373ffffffffffffffffffffffffffffffffffffffff1673ffffffffffffffffffffffffffffffffffffffff16815260200190815260200160002060009054906101000a900460ff16905092915050565b600d60009054906101000a900473ffffffffffffffffffffffffffffffffffffffff1681565b62001e096200254c565b600073ffffffffffffffffffffffffffffffffffffffff168173ffffffffffffffffffffffffffffffffffffffff160362001e7b576040517f08c379a000000000000000000000000000000000000000000000000000000000815260040162001e729062004622565b60405180910390fd5b62001e86816200260e565b50565b60126020528060005260406000206000915054906101000a900473ffffffffffffffffffffffffffffffffffffffff1681565b60007f2a55205a000000000000000000000000000000000000000000000000000000007bffffffffffffffffffffffffffffffffffffffffffffffffffffffff1916827bffffffffffffffffffffffffffffffffffffffffffffffffffffffff1916148062001f32575062001f31826200293f565b5b9050919050565b62001f448162002a25565b62001f86576040517f08c379a000000000000000000000000000000000000000000000000000000000815260040162001f7d9062003f29565b60405180910390fd5b50565b600033905090565b816004600083815260200190815260200160002060006101000a81548173ffffffffffffffffffffffffffffffffffffffff021916908373ffffffffffffffffffffffffffffffffffffffff160217905550808273ffffffffffffffffffffffffffffffffffffffff16620020068362001140565b73ffffffffffffffffffffffffffffffffffffffff167f8c5be1e5ebec7d5bd14f71427d1e84f3dd0314c0f7b2291e5b200ac8c7c3b92560405160405180910390a45050565b6000601160008381526020019081526020016000206040518060800160405290816000820154815260200160018201548152602001600282015481526020016003820160009054906101000a900460ff16151515158152505090506000816060019015159081151581525050600160116000600185620020cd919062004301565b815260200190815260200160002060030160006101000a81548160ff0219169083151502179055506200210e60028362002108919062004301565b62002a68565b60136000815480929190620021239062004504565b9190505550620021338262002b74565b601460009054906101000a900473ffffffffffffffffffffffffffffffffffffffff1673ffffffffffffffffffffffffffffffffffffffff166108fc82600001519081150290604051600060405180830381858888f19350505050158015620021a0573d6000803e3d6000fd5b505050565b600080620021b38362001140565b90508073ffffffffffffffffffffffffffffffffffffffff168473ffffffffffffffffffffffffffffffffffffffff161480620021f85750620021f7818562001d45565b5b806200223957508373ffffffffffffffffffffffffffffffffffffffff16620022218462000c4e565b73ffffffffffffffffffffffffffffffffffffffff16145b91505092915050565b8273ffffffffffffffffffffffffffffffffffffffff16620022648262001140565b73ffffffffffffffffffffffffffffffffffffffff1614620022bd576040517f08c379a0000000000000000000000000000000000000000000000000000000008152600401620022b490620046ba565b60405180910390fd5b600073ffffffffffffffffffffffffffffffffffffffff168273ffffffffffffffffffffffffffffffffffffffff16036200232f576040517f08c379a0000000000000000000000000000000000000000000000000000000008152600401620023269062004752565b60405180910390fd5b6200233e838383600162002bb6565b8273ffffffffffffffffffffffffffffffffffffffff16620023608262001140565b73ffffffffffffffffffffffffffffffffffffffff1614620023b9576040517f08c379a0000000000000000000000000000000000000000000000000000000008152600401620023b090620046ba565b60405180910390fd5b6004600082815260200190815260200160002060006101000a81549073ffffffffffffffffffffffffffffffffffffffff02191690556001600360008573ffffffffffffffffffffffffffffffffffffffff1673ffffffffffffffffffffffffffffffffffffffff168152602001908152602001600020600082825403925050819055506001600360008473ffffffffffffffffffffffffffffffffffffffff1673ffffffffffffffffffffffffffffffffffffffff16815260200190815260200160002060008282540192505081905550816002600083815260200190815260200160002060006101000a81548173ffffffffffffffffffffffffffffffffffffffff021916908373ffffffffffffffffffffffffffffffffffffffff160217905550808273ffffffffffffffffffffffffffffffffffffffff168473ffffffffffffffffffffffffffffffffffffffff167fddf252ad1be2c89b69c2b068fc378daa952ba7f163c4a11628f55a4df523b3ef60405160405180910390a462002547838383600162002ce3565b505050565b6200255662001f89565b73ffffffffffffffffffffffffffffffffffffffff16620025766200166b565b73ffffffffffffffffffffffffffffffffffffffff1614620025cf576040517f08c379a0000000000000000000000000000000000000000000000000000000008152600401620025c690620047c4565b60405180910390fd5b565b60006002600083815260200190815260200160002060009054906101000a900473ffffffffffffffffffffffffffffffffffffffff169050919050565b6000600860009054906101000a900473ffffffffffffffffffffffffffffffffffffffff16905081600860006101000a81548173ffffffffffffffffffffffffffffffffffffffff021916908373ffffffffffffffffffffffffffffffffffffffff1602179055508173ffffffffffffffffffffffffffffffffffffffff168173ffffffffffffffffffffffffffffffffffffffff167f8be0079c531659141344cd1fd0a4f28419497f9722a3daafe3b4186f6b6457e060405160405180910390a35050565b620026f082826040518060200160405280600081525062002ce9565b5050565b8173ffffffffffffffffffffffffffffffffffffffff168373ffffffffffffffffffffffffffffffffffffffff160362002765576040517f08c379a00000000000000000000000000000000000000000000000000000000081526004016200275c9062004836565b60405180910390fd5b80600560008573ffffffffffffffffffffffffffffffffffffffff1673ffffffffffffffffffffffffffffffffffffffff16815260200190815260200160002060008473ffffffffffffffffffffffffffffffffffffffff1673ffffffffffffffffffffffffffffffffffffffff16815260200190815260200160002060006101000a81548160ff0219169083151502179055508173ffffffffffffffffffffffffffffffffffffffff168373ffffffffffffffffffffffffffffffffffffffff167f17307eab39ab6107e8899845ad3d59bd9653f200f220920489ca2b5937696c3183604051620028589190620031f3565b60405180910390a3505050565b80600b600084815260200190815260200160002060006101000a81548173ffffffffffffffffffffffffffffffffffffffff021916908373ffffffffffffffffffffffffffffffffffffffff1602179055505050565b620028c884848462002242565b620028d68484848462002d4b565b62002918576040517f08c379a00000000000000000000000000000000000000000000000000000000081526004016200290f90620048ce565b60405180910390fd5b50505050565b60606040518060600160405280603c81526020016200572b603c9139905090565b60007f80ac58cd000000000000000000000000000000000000000000000000000000007bffffffffffffffffffffffffffffffffffffffffffffffffffffffff1916827bffffffffffffffffffffffffffffffffffffffffffffffffffffffff1916148062002a0b57507f5b5e139f000000000000000000000000000000000000000000000000000000007bffffffffffffffffffffffffffffffffffffffffffffffffffffffff1916827bffffffffffffffffffffffffffffffffffffffffffffffffffffffff1916145b8062002a1e575062002a1d8262002ee3565b5b9050919050565b60008073ffffffffffffffffffffffffffffffffffffffff1662002a4983620025d1565b73ffffffffffffffffffffffffffffffffffffffff1614159050919050565b60006011600060018462002a7d9190620048f0565b81526020019081526020016000206040518060800160405290816000820154815260200160018201548152602001600282015481526020016003820160009054906101000a900460ff16151515158152505090506040518060800160405280600081526020016001836040015162002af6919062004301565b815260200162015180836040015162002b10919062004301565b8152602001600015158152506011600084815260200190815260200160002060008201518160000155602082015181600101556040820151816002015560608201518160030160006101000a81548160ff0219169083151502179055509050505050565b62002bb3816012600084815260200190815260200160002060009054906101000a900473ffffffffffffffffffffffffffffffffffffffff1662002865565b50565b600181111562002cdd57600073ffffffffffffffffffffffffffffffffffffffff168473ffffffffffffffffffffffffffffffffffffffff161462002c4e5780600360008673ffffffffffffffffffffffffffffffffffffffff1673ffffffffffffffffffffffffffffffffffffffff168152602001908152602001600020600082825462002c469190620048f0565b925050819055505b600073ffffffffffffffffffffffffffffffffffffffff168373ffffffffffffffffffffffffffffffffffffffff161462002cdc5780600360008573ffffffffffffffffffffffffffffffffffffffff1673ffffffffffffffffffffffffffffffffffffffff168152602001908152602001600020600082825462002cd4919062004301565b925050819055505b5b50505050565b50505050565b62002cf5838362002f4d565b62002d04600084848462002d4b565b62002d46576040517f08c379a000000000000000000000000000000000000000000000000000000000815260040162002d3d90620048ce565b60405180910390fd5b505050565b600062002d6e8473ffffffffffffffffffffffffffffffffffffffff166200317b565b1562002ed6578373ffffffffffffffffffffffffffffffffffffffff1663150b7a0262002d9a62001f89565b8786866040518563ffffffff1660e01b815260040162002dbe949392919062004988565b6020604051808303816000875af192505050801562002dfd57506040513d601f19601f8201168201806040525081019062002dfa9190620049f3565b60015b62002e85573d806000811462002e30576040519150601f19603f3d011682016040523d82523d6000602084013e62002e35565b606091505b50600081510362002e7d576040517f08c379a000000000000000000000000000000000000000000000000000000000815260040162002e7490620048ce565b60405180910390fd5b805181602001fd5b63150b7a0260e01b7bffffffffffffffffffffffffffffffffffffffffffffffffffffffff1916817bffffffffffffffffffffffffffffffffffffffffffffffffffffffff19161491505062002edb565b600190505b949350505050565b60007f01ffc9a7000000000000000000000000000000000000000000000000000000007bffffffffffffffffffffffffffffffffffffffffffffffffffffffff1916827bffffffffffffffffffffffffffffffffffffffffffffffffffffffff1916149050919050565b600073ffffffffffffffffffffffffffffffffffffffff168273ffffffffffffffffffffffffffffffffffffffff160362002fbf576040517f08c379a000000000000000000000000000000000000000000000000000000000815260040162002fb69062004a75565b60405180910390fd5b62002fca8162002a25565b156200300d576040517f08c379a0000000000000000000000000000000000000000000000000000000008152600401620030049062004ae7565b60405180910390fd5b6200301d60008383600162002bb6565b620030288162002a25565b156200306b576040517f08c379a0000000000000000000000000000000000000000000000000000000008152600401620030629062004ae7565b60405180910390fd5b6001600360008473ffffffffffffffffffffffffffffffffffffffff1673ffffffffffffffffffffffffffffffffffffffff16815260200190815260200160002060008282540192505081905550816002600083815260200190815260200160002060006101000a81548173ffffffffffffffffffffffffffffffffffffffff021916908373ffffffffffffffffffffffffffffffffffffffff160217905550808273ffffffffffffffffffffffffffffffffffffffff16600073ffffffffffffffffffffffffffffffffffffffff167fddf252ad1be2c89b69c2b068fc378daa952ba7f163c4a11628f55a4df523b3ef60405160405180910390a46200317760008383600162002ce3565b5050565b6000808273ffffffffffffffffffffffffffffffffffffffff163b119050919050565b60405180608001604052806000815260200160008152602001600081526020016000151581525090565b610c218062004b0a83390190565b60008115159050919050565b620031ed81620031d6565b82525050565b60006020820190506200320a6000830184620031e2565b92915050565b6000604051905090565b600080fd5b600080fd5b60007fffffffff0000000000000000000000000000000000000000000000000000000082169050919050565b6200325b8162003224565b81146200326757600080fd5b50565b6000813590506200327b8162003250565b92915050565b6000602082840312156200329a57620032996200321a565b5b6000620032aa848285016200326a565b91505092915050565b600081519050919050565b600082825260208201905092915050565b60005b83811015620032ef578082015181840152602081019050620032d2565b60008484015250505050565b6000601f19601f8301169050919050565b60006200331982620032b3565b620033258185620032be565b935062003337818560208601620032cf565b6200334281620032fb565b840191505092915050565b600060208201905081810360008301526200336981846200330c565b905092915050565b6000819050919050565b620033868162003371565b81146200339257600080fd5b50565b600081359050620033a6816200337b565b92915050565b600060208284031215620033c557620033c46200321a565b5b6000620033d58482850162003395565b91505092915050565b600073ffffffffffffffffffffffffffffffffffffffff82169050919050565b60006200340b82620033de565b9050919050565b6200341d81620033fe565b82525050565b60006020820190506200343a600083018462003412565b92915050565b6200344b81620033fe565b81146200345757600080fd5b50565b6000813590506200346b8162003440565b92915050565b600080604083850312156200348b576200348a6200321a565b5b60006200349b858286016200345a565b9250506020620034ae8582860162003395565b9150509250929050565b620034c38162003371565b82525050565b6000602082019050620034e06000830184620034b8565b92915050565b6000806000606084860312156200350257620035016200321a565b5b600062003512868287016200345a565b935050602062003525868287016200345a565b9250506040620035388682870162003395565b9150509250925092565b600080604083850312156200355c576200355b6200321a565b5b60006200356c8582860162003395565b92505060206200357f8582860162003395565b9150509250929050565b6000604082019050620035a0600083018562003412565b620035af6020830184620034b8565b9392505050565b6000620035c382620033de565b9050919050565b620035d581620035b6565b82525050565b6000602082019050620035f26000830184620035ca565b92915050565b60006080820190506200360f6000830187620034b8565b6200361e6020830186620034b8565b6200362d6040830185620034b8565b6200363c6060830184620031e2565b95945050505050565b6200365081620035b6565b81146200365c57600080fd5b50565b600081359050620036708162003645565b92915050565b6000602082840312156200368f576200368e6200321a565b5b60006200369f848285016200365f565b91505092915050565b600060208284031215620036c157620036c06200321a565b5b6000620036d1848285016200345a565b91505092915050565b620036e58162003371565b82525050565b620036f681620031d6565b82525050565b608082016000820151620037146000850182620036da565b506020820151620037296020850182620036da565b5060408201516200373e6040850182620036da565b506060820151620037536060850182620036eb565b50505050565b6000608082019050620037706000830184620036fc565b92915050565b6200378181620031d6565b81146200378d57600080fd5b50565b600081359050620037a18162003776565b92915050565b600060208284031215620037c057620037bf6200321a565b5b6000620037d08482850162003790565b91505092915050565b60008060408385031215620037f357620037f26200321a565b5b600062003803858286016200345a565b9250506020620038168582860162003790565b9150509250929050565b600080fd5b600080fd5b7f4e487b7100000000000000000000000000000000000000000000000000000000600052604160045260246000fd5b6200386482620032fb565b810181811067ffffffffffffffff821117156200388657620038856200382a565b5b80604052505050565b60006200389b62003210565b9050620038a9828262003859565b919050565b600067ffffffffffffffff821115620038cc57620038cb6200382a565b5b620038d782620032fb565b9050602081019050919050565b82818337600083830152505050565b60006200390a6200390484620038ae565b6200388f565b90508281526020810184848401111562003929576200392862003825565b5b62003936848285620038e4565b509392505050565b600082601f83011262003956576200395562003820565b5b813562003968848260208601620038f3565b91505092915050565b600080600080608085870312156200398e576200398d6200321a565b5b60006200399e878288016200345a565b9450506020620039b1878288016200345a565b9350506040620039c48782880162003395565b925050606085013567ffffffffffffffff811115620039e857620039e76200321f565b5b620039f6878288016200393e565b91505092959194509250565b600060408201905062003a196000830185620031e2565b62003a286020830184620034b8565b9392505050565b6000806040838503121562003a495762003a486200321a565b5b600062003a59858286016200345a565b925050602062003a6c858286016200345a565b9150509250929050565b7f4e487b7100000000000000000000000000000000000000000000000000000000600052602260045260246000fd5b6000600282049050600182168062003abe57607f821691505b60208210810362003ad45762003ad362003a76565b5b50919050565b7f4552433732313a20617070726f76616c20746f2063757272656e74206f776e6560008201527f7200000000000000000000000000000000000000000000000000000000000000602082015250565b600062003b38602183620032be565b915062003b458262003ada565b604082019050919050565b6000602082019050818103600083015262003b6b8162003b29565b9050919050565b7f4552433732313a20617070726f76652063616c6c6572206973206e6f7420746f60008201527f6b656e206f776e6572206f7220617070726f76656420666f7220616c6c000000602082015250565b600062003bd0603d83620032be565b915062003bdd8262003b72565b604082019050919050565b6000602082019050818103600083015262003c038162003bc1565b9050919050565b7f41756374696f6e206861736e27742073746172746564207965742e0000000000600082015250565b600062003c42601b83620032be565b915062003c4f8262003c0a565b602082019050919050565b6000602082019050818103600083015262003c758162003c33565b9050919050565b7f42696420697320746f6f206c6f77000000000000000000000000000000000000600082015250565b600062003cb4600e83620032be565b915062003cc18262003c7c565b602082019050919050565b6000602082019050818103600083015262003ce78162003ca5565b9050919050565b7f4552433732313a2063616c6c6572206973206e6f7420746f6b656e206f776e6560008201527f72206f7220617070726f76656400000000000000000000000000000000000000602082015250565b600062003d4c602d83620032be565b915062003d598262003cee565b604082019050919050565b6000602082019050818103600083015262003d7f8162003d3d565b9050919050565b7f466565206d757374206265206c657373206f7220657175616c20746f20333325600082015250565b600062003dbe602083620032be565b915062003dcb8262003d86565b602082019050919050565b6000602082019050818103600083015262003df18162003daf565b9050919050565b7f4e487b7100000000000000000000000000000000000000000000000000000000600052601160045260246000fd5b600062003e348262003371565b915062003e418362003371565b925082820262003e518162003371565b9150828204841483151762003e6b5762003e6a62003df8565b5b5092915050565b7f4e487b7100000000000000000000000000000000000000000000000000000000600052601260045260246000fd5b600062003eae8262003371565b915062003ebb8362003371565b92508262003ece5762003ecd62003e72565b5b828204905092915050565b7f4552433732313a20696e76616c696420746f6b656e2049440000000000000000600082015250565b600062003f11601883620032be565b915062003f1e8262003ed9565b602082019050919050565b6000602082019050818103600083015262003f448162003f02565b9050919050565b7f4552433732313a2061646472657373207a65726f206973206e6f74206120766160008201527f6c6964206f776e65720000000000000000000000000000000000000000000000602082015250565b600062003fa9602983620032be565b915062003fb68262003f4b565b604082019050919050565b6000602082019050818103600083015262003fdc8162003f9a565b9050919050565b7f4d696e74696e67206973206e6f74206f70656e00000000000000000000000000600082015250565b60006200401b601383620032be565b9150620040288262003fe3565b602082019050919050565b600060208201905081810360008301526200404e816200400c565b9050919050565b600080fd5b6000815190506200406b816200337b565b92915050565b600081519050620040828162003776565b92915050565b600060408284031215620040a157620040a062004055565b5b620040ad60406200388f565b90506000620040bf848285016200405a565b6000830152506020620040d58482850162004071565b60208301525092915050565b600060408284031215620040fa57620040f96200321a565b5b60006200410a8482850162004088565b91505092915050565b7f41646472657373206e6f742077686974656c6973746564000000000000000000600082015250565b60006200414b601783620032be565b9150620041588262004113565b602082019050919050565b600060208201905081810360008301526200417e816200413c565b9050919050565b7f546f6b656e20494420697320746f6f2068696768000000000000000000000000600082015250565b6000620041bd601483620032be565b9150620041ca8262004185565b602082019050919050565b60006020820190508181036000830152620041f081620041ae565b9050919050565b7f546f6b656e2068617320616c7265616479206265656e206d696e746564000000600082015250565b60006200422f601d83620032be565b91506200423c82620041f7565b602082019050919050565b60006020820190508181036000830152620042628162004220565b9050919050565b7f596f7520617265206e6f7420616c6c6f77656420746f206d696e74207468697360008201527f20746f6b656e0000000000000000000000000000000000000000000000000000602082015250565b6000620042c7602683620032be565b9150620042d48262004269565b604082019050919050565b60006020820190508181036000830152620042fa81620042b8565b9050919050565b60006200430e8262003371565b91506200431b8362003371565b925082820190508082111562004336576200433562003df8565b5b92915050565b7f5465616d2063616e206f6e6c79206d696e742033303020746f6b656e7320696e60008201527f2032303233000000000000000000000000000000000000000000000000000000602082015250565b60006200439a602583620032be565b9150620043a7826200433c565b604082019050919050565b60006020820190508181036000830152620043cd816200438b565b9050919050565b7f5465616d2063616e206f6e6c79206d696e742033303020746f6b656e7320696e60008201527f2032303234000000000000000000000000000000000000000000000000000000602082015250565b600062004432602583620032be565b91506200443f82620043d4565b604082019050919050565b60006020820190508181036000830152620044658162004423565b9050919050565b7f5465616d2063616e206f6e6c79206d696e74207468652072656d61696e696e6760008201527f20746f6b656e7320696e20323032350000000000000000000000000000000000602082015250565b6000620044ca602f83620032be565b9150620044d7826200446c565b604082019050919050565b60006020820190508181036000830152620044fd81620044bb565b9050919050565b6000620045118262003371565b91507fffffffffffffffffffffffffffffffffffffffffffffffffffffffffffffffff820362004546576200454562003df8565b5b600182019050919050565b600081905092915050565b60006200456982620032b3565b62004575818562004551565b935062004587818560208601620032cf565b80840191505092915050565b6000620045a182846200455c565b915081905092915050565b7f4f776e61626c653a206e6577206f776e657220697320746865207a65726f206160008201527f6464726573730000000000000000000000000000000000000000000000000000602082015250565b60006200460a602683620032be565b91506200461782620045ac565b604082019050919050565b600060208201905081810360008301526200463d81620045fb565b9050919050565b7f4552433732313a207472616e736665722066726f6d20696e636f72726563742060008201527f6f776e6572000000000000000000000000000000000000000000000000000000602082015250565b6000620046a2602583620032be565b9150620046af8262004644565b604082019050919050565b60006020820190508181036000830152620046d58162004693565b9050919050565b7f4552433732313a207472616e7366657220746f20746865207a65726f2061646460008201527f7265737300000000000000000000000000000000000000000000000000000000602082015250565b60006200473a602483620032be565b91506200474782620046dc565b604082019050919050565b600060208201905081810360008301526200476d816200472b565b9050919050565b7f4f776e61626c653a2063616c6c6572206973206e6f7420746865206f776e6572600082015250565b6000620047ac602083620032be565b9150620047b98262004774565b602082019050919050565b60006020820190508181036000830152620047df816200479d565b9050919050565b7f4552433732313a20617070726f766520746f2063616c6c657200000000000000600082015250565b60006200481e601983620032be565b91506200482b82620047e6565b602082019050919050565b6000602082019050818103600083015262004851816200480f565b9050919050565b7f4552433732313a207472616e7366657220746f206e6f6e20455243373231526560008201527f63656976657220696d706c656d656e7465720000000000000000000000000000602082015250565b6000620048b6603283620032be565b9150620048c38262004858565b604082019050919050565b60006020820190508181036000830152620048e981620048a7565b9050919050565b6000620048fd8262003371565b91506200490a8362003371565b925082820390508181111562004925576200492462003df8565b5b92915050565b600081519050919050565b600082825260208201905092915050565b600062004954826200492b565b62004960818562004936565b935062004972818560208601620032cf565b6200497d81620032fb565b840191505092915050565b60006080820190506200499f600083018762003412565b620049ae602083018662003412565b620049bd6040830185620034b8565b8181036060830152620049d1818462004947565b905095945050505050565b600081519050620049ed8162003250565b92915050565b60006020828403121562004a0c5762004a0b6200321a565b5b600062004a1c84828501620049dc565b91505092915050565b7f4552433732313a206d696e7420746f20746865207a65726f2061646472657373600082015250565b600062004a5d602083620032be565b915062004a6a8262004a25565b602082019050919050565b6000602082019050818103600083015262004a908162004a4e565b9050919050565b7f4552433732313a20746f6b656e20616c7265616479206d696e74656400000000600082015250565b600062004acf601c83620032be565b915062004adc8262004a97565b602082019050919050565b6000602082019050818103600083015262004b028162004ac0565b905091905056fe608060405234801561001057600080fd5b5061002d61002261003260201b60201c565b61003a60201b60201c565b6100fe565b600033905090565b60008060009054906101000a900473ffffffffffffffffffffffffffffffffffffffff169050816000806101000a81548173ffffffffffffffffffffffffffffffffffffffff021916908373ffffffffffffffffffffffffffffffffffffffff1602179055508173ffffffffffffffffffffffffffffffffffffffff168173ffffffffffffffffffffffffffffffffffffffff167f8be0079c531659141344cd1fd0a4f28419497f9722a3daafe3b4186f6b6457e060405160405180910390a35050565b610b148061010d6000396000f3fe608060405234801561001057600080fd5b506004361061007d5760003560e01c8063715018a61161005b578063715018a6146100eb5780637553e639146100f55780638da5cb5b14610125578063f2fde38b146101435761007d565b8063341cd3ab146100825780635e5c06e21461009e57806360b0d313146100cf575b600080fd5b61009c60048036038101906100979190610758565b61015f565b005b6100b860048036038101906100b391906107a1565b610228565b6040516100c6929190610802565b60405180910390f35b6100e960048036038101906100e49190610857565b610259565b005b6100f36102e9565b005b61010f600480360381019061010a91906107a1565b6102fd565b60405161011c91906108e4565b60405180910390f35b61012d61037b565b60405161013a919061090e565b60405180910390f35b61015d600480360381019061015891906107a1565b6103a4565b005b610167610427565b60005b815181101561022457604051806040016040528082815260200160011515815250600160008484815181106101a2576101a1610929565b5b602002602001015173ffffffffffffffffffffffffffffffffffffffff1673ffffffffffffffffffffffffffffffffffffffff1681526020019081526020016000206000820151816000015560208201518160010160006101000a81548160ff021916908315150217905550905050808061021c90610987565b91505061016a565b5050565b60016020528060005260406000206000915090508060000154908060010160009054906101000a900460ff16905082565b610261610427565b604051806040016040528082815260200160011515815250600160008473ffffffffffffffffffffffffffffffffffffffff1673ffffffffffffffffffffffffffffffffffffffff1681526020019081526020016000206000820151816000015560208201518160010160006101000a81548160ff0219169083151502179055509050505050565b6102f1610427565b6102fb60006104a5565b565b610305610571565b600160008373ffffffffffffffffffffffffffffffffffffffff1673ffffffffffffffffffffffffffffffffffffffff168152602001908152602001600020604051806040016040529081600082015481526020016001820160009054906101000a900460ff1615151515815250509050919050565b60008060009054906101000a900473ffffffffffffffffffffffffffffffffffffffff16905090565b6103ac610427565b600073ffffffffffffffffffffffffffffffffffffffff168173ffffffffffffffffffffffffffffffffffffffff160361041b576040517f08c379a000000000000000000000000000000000000000000000000000000000815260040161041290610a52565b60405180910390fd5b610424816104a5565b50565b61042f610569565b73ffffffffffffffffffffffffffffffffffffffff1661044d61037b565b73ffffffffffffffffffffffffffffffffffffffff16146104a3576040517f08c379a000000000000000000000000000000000000000000000000000000000815260040161049a90610abe565b60405180910390fd5b565b60008060009054906101000a900473ffffffffffffffffffffffffffffffffffffffff169050816000806101000a81548173ffffffffffffffffffffffffffffffffffffffff021916908373ffffffffffffffffffffffffffffffffffffffff1602179055508173ffffffffffffffffffffffffffffffffffffffff168173ffffffffffffffffffffffffffffffffffffffff167f8be0079c531659141344cd1fd0a4f28419497f9722a3daafe3b4186f6b6457e060405160405180910390a35050565b600033905090565b6040518060400160405280600081526020016000151581525090565b6000604051905090565b600080fd5b600080fd5b600080fd5b6000601f19601f8301169050919050565b7f4e487b7100000000000000000000000000000000000000000000000000000000600052604160045260246000fd5b6105ef826105a6565b810181811067ffffffffffffffff8211171561060e5761060d6105b7565b5b80604052505050565b600061062161058d565b905061062d82826105e6565b919050565b600067ffffffffffffffff82111561064d5761064c6105b7565b5b602082029050602081019050919050565b600080fd5b600073ffffffffffffffffffffffffffffffffffffffff82169050919050565b600061068e82610663565b9050919050565b61069e81610683565b81146106a957600080fd5b50565b6000813590506106bb81610695565b92915050565b60006106d46106cf84610632565b610617565b905080838252602082019050602084028301858111156106f7576106f661065e565b5b835b81811015610720578061070c88826106ac565b8452602084019350506020810190506106f9565b5050509392505050565b600082601f83011261073f5761073e6105a1565b5b813561074f8482602086016106c1565b91505092915050565b60006020828403121561076e5761076d610597565b5b600082013567ffffffffffffffff81111561078c5761078b61059c565b5b6107988482850161072a565b91505092915050565b6000602082840312156107b7576107b6610597565b5b60006107c5848285016106ac565b91505092915050565b6000819050919050565b6107e1816107ce565b82525050565b60008115159050919050565b6107fc816107e7565b82525050565b600060408201905061081760008301856107d8565b61082460208301846107f3565b9392505050565b610834816107ce565b811461083f57600080fd5b50565b6000813590506108518161082b565b92915050565b6000806040838503121561086e5761086d610597565b5b600061087c858286016106ac565b925050602061088d85828601610842565b9150509250929050565b6108a0816107ce565b82525050565b6108af816107e7565b82525050565b6040820160008201516108cb6000850182610897565b5060208201516108de60208501826108a6565b50505050565b60006040820190506108f960008301846108b5565b92915050565b61090881610683565b82525050565b600060208201905061092360008301846108ff565b92915050565b7f4e487b7100000000000000000000000000000000000000000000000000000000600052603260045260246000fd5b7f4e487b7100000000000000000000000000000000000000000000000000000000600052601160045260246000fd5b6000610992826107ce565b91507fffffffffffffffffffffffffffffffffffffffffffffffffffffffffffffffff82036109c4576109c3610958565b5b600182019050919050565b600082825260208201905092915050565b7f4f776e61626c653a206e6577206f776e657220697320746865207a65726f206160008201527f6464726573730000000000000000000000000000000000000000000000000000602082015250565b6000610a3c6026836109cf565b9150610a47826109e0565b604082019050919050565b60006020820190508181036000830152610a6b81610a2f565b9050919050565b7f4f776e61626c653a2063616c6c6572206973206e6f7420746865206f776e6572600082015250565b6000610aa86020836109cf565b9150610ab382610a72565b602082019050919050565b60006020820190508181036000830152610ad781610a9b565b905091905056fea26469706673582212203b824e0e98929b8687a0e9d92b226b2fa0f00fae76719160755575c91a3531ad64736f6c63430008110033697066733a2f2f516d5837527a644355487a506e67386d7373547058414257547856465651774e58313234746d70515551694639702f737461636b73a26469706673582212203f796a90a06995f9f13462d3bfa4a75e73301916e08743b553fecfd4f2e95eac64736f6c63430008110033",
  "immutableReferences": {},
  "source": "// SPDX-License-Identifier: MIT\npragma solidity >=0.4.22 <0.9.0;\n\nimport \"@openzeppelin/contracts/access/Ownable.sol\";\nimport \"./Stacks.sol\";\n\ncontract StacksAuctionHouse is Ownable, Stacks {\n  mapping(uint => Auction) public auctions;\n  mapping(uint => address payable) public auctionWinner;\n  uint public totalAuctions = 0;\n  address payable public treasuryAddress;\n\n  struct Auction {\n    uint endPrice;\n    uint startTime;\n    uint endTime;\n    bool active;\n  }\n\n  constructor(address payable _treasuryAddress) {\n    treasuryAddress = _treasuryAddress;\n\n    // uint startTime = 1677628800; // Wed Mar 01 2023 00:00:00 GMT+0000\n    uint startTime = 1676073600; // Test start: Sat Feb 11 2023 00:00:00 GMT+0000\n    // Create the first auction\n    auctions[0] = Auction({\n      endPrice: 0,\n      startTime: startTime,\n      endTime: startTime + 1 days,\n      active: true\n    });\n    // Create the second auction\n    startAuction(1);\n  }\n\n  function getCurrentWinner() public view returns (address payable) {\n    return auctionWinner[totalAuctions];\n  }\n\n  function getCurrentAuction() public view returns (Auction memory) {\n    return auctions[totalAuctions];\n  }\n\n  function getAuction(uint _tokenId) public view returns (Auction memory) {\n    return auctions[_tokenId];\n  }\n\n  function bid() public payable {\n    Auction memory auction = getCurrentAuction();\n    // does this work? Make sure it works!\n    require(auction.startTime <= block.timestamp, \"Auction hasn't started yet.\");\n\n    require(msg.value > auction.endPrice, \"Bid is too low\");\n    uint lastBid = auction.endPrice;\n    address payable lastBidder = auctionWinner[totalAuctions];\n    // update the auction\n    auctionWinner[totalAuctions] = payable(msg.sender);\n    auctions[totalAuctions].endPrice = msg.value;\n    // refund last bidder\n    lastBidder.transfer(lastBid);\n    // after-bid callback\n    if (auction.endTime < block.timestamp && auction.active) {\n      closeAuction(totalAuctions);\n    }\n  }\n\n  function closeAuction(uint _tokenId) private {\n    Auction memory auction = auctions[_tokenId];\n    // close the auction and open the next one\n    auction.active = false;\n    auctions[_tokenId + 1].active = true;\n    // create new auction ahead of the current one\n    startAuction(_tokenId + 2);\n    // total auctions gets incremented when the auction is finished\n    totalAuctions++;\n    // then winner can mint\n    allowMint(_tokenId);\n    // move funds to the treasury\n    treasuryAddress.transfer(auction.endPrice);\n  }\n\n  function startAuction(uint _tokenId) private {\n    // this must run 1 in advance of the auction.\n    // [0, 1, 2 (current), 3] --> when current moves to 3, then the 4th is created\n    Auction memory lastAuction = auctions[_tokenId - 1];\n    auctions[_tokenId] = Auction({\n      endPrice: 0,\n      startTime: lastAuction.endTime + 1, // 1 second after the last auction ends\n      endTime: lastAuction.endTime + 1 days, // 1 day after the last auction ends\n      active: false\n    });\n  }\n\n  function allowMint(uint _tokenId) private {\n    // Allow the winner to mint the token on the Stacks contract\n    addAvailableForMint(_tokenId, auctionWinner[_tokenId]);\n  }\n\n  // Admin functions\n  function setTreasuryAddress(address payable _treasuryAddress) public onlyOwner {\n    treasuryAddress = _treasuryAddress;\n  }\n}\n",
  "sourcePath": "/Users/bruno/dev/crypto/stacks/contracts/StacksAuctionHouse.sol",
  "compiler": {
    "name": "solc",
    "version": "0.8.17+commit.8df45f5f.Emscripten.clang"
  },
  "schemaVersion": "3.4.10",
  "updatedAt": "2023-02-10T10:10:35.810Z",
  "networkType": "ethereum",
  "devdoc": {
    "kind": "dev",
    "methods": {
      "approve(address,uint256)": {
        "details": "See {IERC721-approve}."
      },
      "balanceOf(address)": {
        "details": "See {IERC721-balanceOf}."
      },
      "getApproved(uint256)": {
        "details": "See {IERC721-getApproved}."
      },
      "isApprovedForAll(address,address)": {
        "details": "See {IERC721-isApprovedForAll}."
      },
      "name()": {
        "details": "See {IERC721Metadata-name}."
      },
      "owner()": {
        "details": "Returns the address of the current owner."
      },
      "ownerOf(uint256)": {
        "details": "See {IERC721-ownerOf}."
      },
      "renounceOwnership()": {
        "details": "Leaves the contract without owner. It will not be possible to call `onlyOwner` functions anymore. Can only be called by the current owner. NOTE: Renouncing ownership will leave the contract without an owner, thereby removing any functionality that is only available to the owner."
      },
      "safeTransferFrom(address,address,uint256)": {
        "details": "See {IERC721-safeTransferFrom}."
      },
      "safeTransferFrom(address,address,uint256,bytes)": {
        "details": "See {IERC721-safeTransferFrom}."
      },
      "setApprovalForAll(address,bool)": {
        "details": "See {IERC721-setApprovalForAll}."
      },
      "symbol()": {
        "details": "See {IERC721Metadata-symbol}."
      },
      "transferFrom(address,address,uint256)": {
        "details": "See {IERC721-transferFrom}."
      },
      "transferOwnership(address)": {
        "details": "Transfers ownership of the contract to a new account (`newOwner`). Can only be called by the current owner."
      }
    },
    "version": 1
  },
  "userdoc": {
    "kind": "user",
    "methods": {},
    "version": 1
  }
}