{
  "contractName": "Stacks",
  "abi": [
    {
      "inputs": [],
      "stateMutability": "nonpayable",
      "type": "constructor"
    },
    {
      "anonymous": false,
      "inputs": [
        {
          "indexed": true,
          "internalType": "address",
          "name": "owner",
          "type": "address"
        },
        {
          "indexed": true,
          "internalType": "address",
          "name": "approved",
          "type": "address"
        },
        {
          "indexed": true,
          "internalType": "uint256",
          "name": "tokenId",
          "type": "uint256"
        }
      ],
      "name": "Approval",
      "type": "event"
    },
    {
      "anonymous": false,
      "inputs": [
        {
          "indexed": true,
          "internalType": "address",
          "name": "owner",
          "type": "address"
        },
        {
          "indexed": true,
          "internalType": "address",
          "name": "operator",
          "type": "address"
        },
        {
          "indexed": false,
          "internalType": "bool",
          "name": "approved",
          "type": "bool"
        }
      ],
      "name": "ApprovalForAll",
      "type": "event"
    },
    {
      "anonymous": false,
      "inputs": [
        {
          "indexed": true,
          "internalType": "address",
          "name": "previousOwner",
          "type": "address"
        },
        {
          "indexed": true,
          "internalType": "address",
          "name": "newOwner",
          "type": "address"
        }
      ],
      "name": "OwnershipTransferred",
      "type": "event"
    },
    {
      "anonymous": false,
      "inputs": [
        {
          "indexed": true,
          "internalType": "address",
          "name": "from",
          "type": "address"
        },
        {
          "indexed": true,
          "internalType": "address",
          "name": "to",
          "type": "address"
        },
        {
          "indexed": true,
          "internalType": "uint256",
          "name": "tokenId",
          "type": "uint256"
        }
      ],
      "name": "Transfer",
      "type": "event"
    },
    {
      "inputs": [],
      "name": "PERCENT_DIVIDER",
      "outputs": [
        {
          "internalType": "uint256",
          "name": "",
          "type": "uint256"
        }
      ],
      "stateMutability": "view",
      "type": "function"
    },
    {
      "inputs": [],
      "name": "SALE_FEE",
      "outputs": [
        {
          "internalType": "uint256",
          "name": "",
          "type": "uint256"
        }
      ],
      "stateMutability": "view",
      "type": "function"
    },
    {
      "inputs": [
        {
          "internalType": "address",
          "name": "to",
          "type": "address"
        },
        {
          "internalType": "uint256",
          "name": "tokenId",
          "type": "uint256"
        }
      ],
      "name": "approve",
      "outputs": [],
      "stateMutability": "nonpayable",
      "type": "function"
    },
    {
      "inputs": [],
      "name": "auctionHouse",
      "outputs": [
        {
          "internalType": "address",
          "name": "",
          "type": "address"
        }
      ],
      "stateMutability": "view",
      "type": "function"
    },
    {
      "inputs": [
        {
          "internalType": "address",
          "name": "owner",
          "type": "address"
        }
      ],
      "name": "balanceOf",
      "outputs": [
        {
          "internalType": "uint256",
          "name": "",
          "type": "uint256"
        }
      ],
      "stateMutability": "view",
      "type": "function"
    },
    {
      "inputs": [
        {
          "internalType": "uint256",
          "name": "tokenId",
          "type": "uint256"
        }
      ],
      "name": "getApproved",
      "outputs": [
        {
          "internalType": "address",
          "name": "",
          "type": "address"
        }
      ],
      "stateMutability": "view",
      "type": "function"
    },
    {
      "inputs": [
        {
          "internalType": "address",
          "name": "owner",
          "type": "address"
        },
        {
          "internalType": "address",
          "name": "operator",
          "type": "address"
        }
      ],
      "name": "isApprovedForAll",
      "outputs": [
        {
          "internalType": "bool",
          "name": "",
          "type": "bool"
        }
      ],
      "stateMutability": "view",
      "type": "function"
    },
    {
      "inputs": [],
      "name": "maxSupply",
      "outputs": [
        {
          "internalType": "uint256",
          "name": "",
          "type": "uint256"
        }
      ],
      "stateMutability": "view",
      "type": "function"
    },
    {
      "inputs": [],
      "name": "mintOpen",
      "outputs": [
        {
          "internalType": "bool",
          "name": "",
          "type": "bool"
        }
      ],
      "stateMutability": "view",
      "type": "function"
    },
    {
      "inputs": [],
      "name": "name",
      "outputs": [
        {
          "internalType": "string",
          "name": "",
          "type": "string"
        }
      ],
      "stateMutability": "view",
      "type": "function"
    },
    {
      "inputs": [],
      "name": "owner",
      "outputs": [
        {
          "internalType": "address",
          "name": "",
          "type": "address"
        }
      ],
      "stateMutability": "view",
      "type": "function"
    },
    {
      "inputs": [
        {
          "internalType": "uint256",
          "name": "tokenId",
          "type": "uint256"
        }
      ],
      "name": "ownerOf",
      "outputs": [
        {
          "internalType": "address",
          "name": "",
          "type": "address"
        }
      ],
      "stateMutability": "view",
      "type": "function"
    },
    {
      "inputs": [],
      "name": "renounceOwnership",
      "outputs": [],
      "stateMutability": "nonpayable",
      "type": "function"
    },
    {
      "inputs": [
        {
          "internalType": "address",
          "name": "from",
          "type": "address"
        },
        {
          "internalType": "address",
          "name": "to",
          "type": "address"
        },
        {
          "internalType": "uint256",
          "name": "tokenId",
          "type": "uint256"
        }
      ],
      "name": "safeTransferFrom",
      "outputs": [],
      "stateMutability": "nonpayable",
      "type": "function"
    },
    {
      "inputs": [
        {
          "internalType": "address",
          "name": "from",
          "type": "address"
        },
        {
          "internalType": "address",
          "name": "to",
          "type": "address"
        },
        {
          "internalType": "uint256",
          "name": "tokenId",
          "type": "uint256"
        },
        {
          "internalType": "bytes",
          "name": "data",
          "type": "bytes"
        }
      ],
      "name": "safeTransferFrom",
      "outputs": [],
      "stateMutability": "nonpayable",
      "type": "function"
    },
    {
      "inputs": [
        {
          "internalType": "address",
          "name": "operator",
          "type": "address"
        },
        {
          "internalType": "bool",
          "name": "approved",
          "type": "bool"
        }
      ],
      "name": "setApprovalForAll",
      "outputs": [],
      "stateMutability": "nonpayable",
      "type": "function"
    },
    {
      "inputs": [],
      "name": "softCap",
      "outputs": [
        {
          "internalType": "uint256",
          "name": "",
          "type": "uint256"
        }
      ],
      "stateMutability": "view",
      "type": "function"
    },
    {
      "inputs": [],
      "name": "symbol",
      "outputs": [
        {
          "internalType": "string",
          "name": "",
          "type": "string"
        }
      ],
      "stateMutability": "view",
      "type": "function"
    },
    {
      "inputs": [],
      "name": "teamMinted",
      "outputs": [
        {
          "internalType": "uint256",
          "name": "",
          "type": "uint256"
        }
      ],
      "stateMutability": "view",
      "type": "function"
    },
    {
      "inputs": [
        {
          "internalType": "uint256",
          "name": "",
          "type": "uint256"
        }
      ],
      "name": "tokenMetaDataRecord",
      "outputs": [
        {
          "internalType": "bool",
          "name": "minted",
          "type": "bool"
        },
        {
          "internalType": "uint256",
          "name": "timestamp",
          "type": "uint256"
        }
      ],
      "stateMutability": "view",
      "type": "function"
    },
    {
      "inputs": [
        {
          "internalType": "uint256",
          "name": "",
          "type": "uint256"
        }
      ],
      "name": "tokenMinter",
      "outputs": [
        {
          "internalType": "address",
          "name": "",
          "type": "address"
        }
      ],
      "stateMutability": "view",
      "type": "function"
    },
    {
      "inputs": [
        {
          "internalType": "address",
          "name": "from",
          "type": "address"
        },
        {
          "internalType": "address",
          "name": "to",
          "type": "address"
        },
        {
          "internalType": "uint256",
          "name": "tokenId",
          "type": "uint256"
        }
      ],
      "name": "transferFrom",
      "outputs": [],
      "stateMutability": "nonpayable",
      "type": "function"
    },
    {
      "inputs": [
        {
          "internalType": "address",
          "name": "newOwner",
          "type": "address"
        }
      ],
      "name": "transferOwnership",
      "outputs": [],
      "stateMutability": "nonpayable",
      "type": "function"
    },
    {
      "inputs": [
        {
          "internalType": "uint256",
          "name": "_tokenId",
          "type": "uint256"
        }
      ],
      "name": "mint",
      "outputs": [],
      "stateMutability": "nonpayable",
      "type": "function"
    },
    {
      "inputs": [
        {
          "internalType": "address",
          "name": "_auctionHouse",
          "type": "address"
        }
      ],
      "name": "setAuctionHouse",
      "outputs": [],
      "stateMutability": "nonpayable",
      "type": "function"
    },
    {
      "inputs": [
        {
          "internalType": "bool",
          "name": "_open",
          "type": "bool"
        }
      ],
      "name": "toggleMint",
      "outputs": [],
      "stateMutability": "nonpayable",
      "type": "function"
    },
    {
      "inputs": [
        {
          "internalType": "uint256",
          "name": "_tokenId",
          "type": "uint256"
        },
        {
          "internalType": "address",
          "name": "_teamMember",
          "type": "address"
        }
      ],
      "name": "teamMint",
      "outputs": [],
      "stateMutability": "nonpayable",
      "type": "function"
    },
    {
      "inputs": [
        {
          "internalType": "uint256",
          "name": "_SALE_FEE",
          "type": "uint256"
        }
      ],
      "name": "setRegularFee",
      "outputs": [],
      "stateMutability": "nonpayable",
      "type": "function"
    },
    {
      "inputs": [
        {
          "internalType": "bytes4",
          "name": "_interfaceId",
          "type": "bytes4"
        }
      ],
      "name": "supportsInterface",
      "outputs": [
        {
          "internalType": "bool",
          "name": "",
          "type": "bool"
        }
      ],
      "stateMutability": "view",
      "type": "function"
    },
    {
      "inputs": [
        {
          "internalType": "uint256",
          "name": "",
          "type": "uint256"
        },
        {
          "internalType": "uint256",
          "name": "_salePrice",
          "type": "uint256"
        }
      ],
      "name": "royaltyInfo",
      "outputs": [
        {
          "internalType": "address",
          "name": "receiver",
          "type": "address"
        },
        {
          "internalType": "uint256",
          "name": "royaltyAmount",
          "type": "uint256"
        }
      ],
      "stateMutability": "view",
      "type": "function"
    },
    {
      "inputs": [
        {
          "internalType": "uint256",
          "name": "_tokenId",
          "type": "uint256"
        }
      ],
      "name": "tokenURI",
      "outputs": [
        {
          "internalType": "string",
          "name": "",
          "type": "string"
        }
      ],
      "stateMutability": "view",
      "type": "function"
    }
  ],
  "bytecode": "0x60806040526103e8600955611388600d55610fa9600e556000600f553480156200002857600080fd5b506040518060400160405280600681526020017f537461636b7300000000000000000000000000000000000000000000000000008152506040518060400160405280600681526020017f535441434b5300000000000000000000000000000000000000000000000000008152508160009081620000a6919062000429565b508060019081620000b8919062000429565b505050620000db620000cf620000e160201b60201c565b620000e960201b60201c565b62000510565b600033905090565b6000600860009054906101000a900473ffffffffffffffffffffffffffffffffffffffff16905081600860006101000a81548173ffffffffffffffffffffffffffffffffffffffff021916908373ffffffffffffffffffffffffffffffffffffffff1602179055508173ffffffffffffffffffffffffffffffffffffffff168173ffffffffffffffffffffffffffffffffffffffff167f8be0079c531659141344cd1fd0a4f28419497f9722a3daafe3b4186f6b6457e060405160405180910390a35050565b600081519050919050565b7f4e487b7100000000000000000000000000000000000000000000000000000000600052604160045260246000fd5b7f4e487b7100000000000000000000000000000000000000000000000000000000600052602260045260246000fd5b600060028204905060018216806200023157607f821691505b602082108103620002475762000246620001e9565b5b50919050565b60008190508160005260206000209050919050565b60006020601f8301049050919050565b600082821b905092915050565b600060088302620002b17fffffffffffffffffffffffffffffffffffffffffffffffffffffffffffffffff8262000272565b620002bd868362000272565b95508019841693508086168417925050509392505050565b6000819050919050565b6000819050919050565b60006200030a62000304620002fe84620002d5565b620002df565b620002d5565b9050919050565b6000819050919050565b6200032683620002e9565b6200033e620003358262000311565b8484546200027f565b825550505050565b600090565b6200035562000346565b620003628184846200031b565b505050565b5b818110156200038a576200037e6000826200034b565b60018101905062000368565b5050565b601f821115620003d957620003a3816200024d565b620003ae8462000262565b81016020851015620003be578190505b620003d6620003cd8562000262565b83018262000367565b50505b505050565b600082821c905092915050565b6000620003fe60001984600802620003de565b1980831691505092915050565b6000620004198383620003eb565b9150826002028217905092915050565b6200043482620001af565b67ffffffffffffffff81111562000450576200044f620001ba565b5b6200045c825462000218565b620004698282856200038e565b600060209050601f831160018114620004a157600084156200048c578287015190505b6200049885826200040b565b86555062000508565b601f198416620004b1866200024d565b60005b82811015620004db57848901518255600182019150602085019450602081019050620004b4565b86831015620004fb5784890151620004f7601f891682620003eb565b8355505b6001600288020188555050505b505050505050565b6134d080620005206000396000f3fe608060405234801561001057600080fd5b50600436106101e55760003560e01c80638a4dcd851161010f578063bfa457bc116100a2578063e8b5498d11610071578063e8b5498d1461057e578063e985e9c51461059c578063ed9152c8146105cc578063f2fde38b146105ea576101e5565b8063bfa457bc146104f8578063c87b56dd14610514578063d5abeb0114610544578063e76d895214610562576101e5565b8063a0712d68116100de578063a0712d6814610473578063a22cb4651461048f578063b88d4fde146104ab578063bdce6c44146104c7576101e5565b80638a4dcd85146103fd5780638da5cb5b14610419578063906a26e01461043757806395d89b4114610455576101e5565b806329fc7bd81161018757806370a082311161015657806370a0823114610375578063715018a6146103a5578063729eaa66146103af5780637c57d947146103cd576101e5565b806329fc7bd8146102da5780632a55205a146102f857806342842e0e146103295780636352211e14610345576101e5565b8063095ea7b3116101c3578063095ea7b31461026857806323b872dd1461028457806324bbd049146102a057806329c4ba09146102be576101e5565b806301ffc9a7146101ea57806306fdde031461021a578063081812fc14610238575b600080fd5b61020460048036038101906101ff91906121a7565b610606565b60405161021191906121ef565b60405180910390f35b61022261066e565b60405161022f919061229a565b60405180910390f35b610252600480360381019061024d91906122f2565b610700565b60405161025f9190612360565b60405180910390f35b610282600480360381019061027d91906123a7565b610746565b005b61029e600480360381019061029991906123e7565b61085d565b005b6102a86108bd565b6040516102b591906121ef565b60405180910390f35b6102d860048036038101906102d391906122f2565b6108d0565b005b6102e2610927565b6040516102ef9190612449565b60405180910390f35b610312600480360381019061030d9190612464565b61092d565b6040516103209291906124a4565b60405180910390f35b610343600480360381019061033e91906123e7565b61095e565b005b61035f600480360381019061035a91906122f2565b61097e565b60405161036c9190612360565b60405180910390f35b61038f600480360381019061038a91906124cd565b610a04565b60405161039c9190612449565b60405180910390f35b6103ad610abb565b005b6103b7610acf565b6040516103c49190612449565b60405180910390f35b6103e760048036038101906103e291906122f2565b610ad5565b6040516103f49190612360565b60405180910390f35b61041760048036038101906104129190612526565b610b08565b005b610421610b2d565b60405161042e9190612360565b60405180910390f35b61043f610b57565b60405161044c9190612449565b60405180910390f35b61045d610b5d565b60405161046a919061229a565b60405180910390f35b61048d600480360381019061048891906122f2565b610bef565b005b6104a960048036038101906104a49190612553565b610ded565b005b6104c560048036038101906104c091906126c8565b610e03565b005b6104e160048036038101906104dc91906122f2565b610e65565b6040516104ef92919061274b565b60405180910390f35b610512600480360381019061050d9190612774565b610e96565b005b61052e600480360381019061052991906122f2565b610ff7565b60405161053b919061229a565b60405180910390f35b61054c611030565b6040516105599190612449565b60405180910390f35b61057c600480360381019061057791906124cd565b611036565b005b610586611082565b6040516105939190612449565b60405180910390f35b6105b660048036038101906105b191906127b4565b611088565b6040516105c391906121ef565b60405180910390f35b6105d461111c565b6040516105e19190612360565b60405180910390f35b61060460048036038101906105ff91906124cd565b611142565b005b6000632a55205a60e01b7bffffffffffffffffffffffffffffffffffffffffffffffffffffffff1916827bffffffffffffffffffffffffffffffffffffffffffffffffffffffff19160361065d5760019050610669565b610666826111c5565b90505b919050565b60606000805461067d90612823565b80601f01602080910402602001604051908101604052809291908181526020018280546106a990612823565b80156106f65780601f106106cb576101008083540402835291602001916106f6565b820191906000526020600020905b8154815290600101906020018083116106d957829003601f168201915b5050505050905090565b600061070b8261123f565b6004600083815260200190815260200160002060009054906101000a900473ffffffffffffffffffffffffffffffffffffffff169050919050565b60006107518261097e565b90508073ffffffffffffffffffffffffffffffffffffffff168373ffffffffffffffffffffffffffffffffffffffff16036107c1576040517f08c379a00000000000000000000000000000000000000000000000000000000081526004016107b8906128c6565b60405180910390fd5b8073ffffffffffffffffffffffffffffffffffffffff166107e061128a565b73ffffffffffffffffffffffffffffffffffffffff16148061080f575061080e8161080961128a565b611088565b5b61084e576040517f08c379a000000000000000000000000000000000000000000000000000000000815260040161084590612958565b60405180910390fd5b6108588383611292565b505050565b61086e61086861128a565b8261134b565b6108ad576040517f08c379a00000000000000000000000000000000000000000000000000000000081526004016108a4906129ea565b60405180910390fd5b6108b88383836113e0565b505050565b600c60149054906101000a900460ff1681565b6108d86116d9565b610ce481111561091d576040517f08c379a000000000000000000000000000000000000000000000000000000000815260040161091490612a56565b60405180910390fd5b8060098190555050565b61271081565b600080610938610b2d565b612710600954856109499190612aa5565b6109539190612b16565b915091509250929050565b61097983838360405180602001604052806000815250610e03565b505050565b60008061098a83611757565b9050600073ffffffffffffffffffffffffffffffffffffffff168173ffffffffffffffffffffffffffffffffffffffff16036109fb576040517f08c379a00000000000000000000000000000000000000000000000000000000081526004016109f290612b93565b60405180910390fd5b80915050919050565b60008073ffffffffffffffffffffffffffffffffffffffff168273ffffffffffffffffffffffffffffffffffffffff1603610a74576040517f08c379a0000000000000000000000000000000000000000000000000000000008152600401610a6b90612c25565b60405180910390fd5b600360008373ffffffffffffffffffffffffffffffffffffffff1673ffffffffffffffffffffffffffffffffffffffff168152602001908152602001600020549050919050565b610ac36116d9565b610acd6000611794565b565b60095481565b600a6020528060005260406000206000915054906101000a900473ffffffffffffffffffffffffffffffffffffffff1681565b610b106116d9565b80600c60146101000a81548160ff02191690831515021790555050565b6000600860009054906101000a900473ffffffffffffffffffffffffffffffffffffffff16905090565b600e5481565b606060018054610b6c90612823565b80601f0160208091040260200160405190810160405280929190818152602001828054610b9890612823565b8015610be55780601f10610bba57610100808354040283529160200191610be5565b820191906000526020600020905b815481529060010190602001808311610bc857829003601f168201915b5050505050905090565b600c60149054906101000a900460ff16610c3e576040517f08c379a0000000000000000000000000000000000000000000000000000000008152600401610c3590612c91565b60405180910390fd5b600d54811115610c83576040517f08c379a0000000000000000000000000000000000000000000000000000000008152600401610c7a90612cfd565b60405180910390fd5b3373ffffffffffffffffffffffffffffffffffffffff16600a600083815260200190815260200160002060009054906101000a900473ffffffffffffffffffffffffffffffffffffffff1673ffffffffffffffffffffffffffffffffffffffff1614610d24576040517f08c379a0000000000000000000000000000000000000000000000000000000008152600401610d1b90612d8f565b60405180910390fd5b600b600082815260200190815260200160002060000160009054906101000a900460ff1615610d88576040517f08c379a0000000000000000000000000000000000000000000000000000000008152600401610d7f90612dfb565b60405180910390fd5b610d92338261185a565b604051806040016040528060011515815260200142815250600b600083815260200190815260200160002060008201518160000160006101000a81548160ff0219169083151502179055506020820151816001015590505050565b610dff610df861128a565b8383611878565b5050565b610e14610e0e61128a565b8361134b565b610e53576040517f08c379a0000000000000000000000000000000000000000000000000000000008152600401610e4a906129ea565b60405180910390fd5b610e5f848484846119e4565b50505050565b600b6020528060005260406000206000915090508060000160009054906101000a900460ff16908060010154905082565b610e9e6116d9565b600e548211610ee2576040517f08c379a0000000000000000000000000000000000000000000000000000000008152600401610ed990612e67565b60405180910390fd5b600d54821115610f27576040517f08c379a0000000000000000000000000000000000000000000000000000000008152600401610f1e90612cfd565b60405180910390fd5b80600a600084815260200190815260200160002060006101000a81548173ffffffffffffffffffffffffffffffffffffffff021916908373ffffffffffffffffffffffffffffffffffffffff160217905550604051806040016040528060011515815260200142815250600b600084815260200190815260200160002060008201518160000160006101000a81548160ff02191690831515021790555060208201518160010155905050610fdb338361185a565b600f6000815480929190610fee90612e87565b91905055505050565b60606110028261123f565b61100a611a40565b60405160200161101a9190612f0b565b6040516020818303038152906040529050919050565b600d5481565b61103e6116d9565b80600c60006101000a81548173ffffffffffffffffffffffffffffffffffffffff021916908373ffffffffffffffffffffffffffffffffffffffff16021790555050565b600f5481565b6000600560008473ffffffffffffffffffffffffffffffffffffffff1673ffffffffffffffffffffffffffffffffffffffff16815260200190815260200160002060008373ffffffffffffffffffffffffffffffffffffffff1673ffffffffffffffffffffffffffffffffffffffff16815260200190815260200160002060009054906101000a900460ff16905092915050565b600c60009054906101000a900473ffffffffffffffffffffffffffffffffffffffff1681565b61114a6116d9565b600073ffffffffffffffffffffffffffffffffffffffff168173ffffffffffffffffffffffffffffffffffffffff16036111b9576040517f08c379a00000000000000000000000000000000000000000000000000000000081526004016111b090612f94565b60405180910390fd5b6111c281611794565b50565b60007f2a55205a000000000000000000000000000000000000000000000000000000007bffffffffffffffffffffffffffffffffffffffffffffffffffffffff1916827bffffffffffffffffffffffffffffffffffffffffffffffffffffffff19161480611238575061123782611a60565b5b9050919050565b61124881611b42565b611287576040517f08c379a000000000000000000000000000000000000000000000000000000000815260040161127e90612b93565b60405180910390fd5b50565b600033905090565b816004600083815260200190815260200160002060006101000a81548173ffffffffffffffffffffffffffffffffffffffff021916908373ffffffffffffffffffffffffffffffffffffffff160217905550808273ffffffffffffffffffffffffffffffffffffffff166113058361097e565b73ffffffffffffffffffffffffffffffffffffffff167f8c5be1e5ebec7d5bd14f71427d1e84f3dd0314c0f7b2291e5b200ac8c7c3b92560405160405180910390a45050565b6000806113578361097e565b90508073ffffffffffffffffffffffffffffffffffffffff168473ffffffffffffffffffffffffffffffffffffffff16148061139957506113988185611088565b5b806113d757508373ffffffffffffffffffffffffffffffffffffffff166113bf84610700565b73ffffffffffffffffffffffffffffffffffffffff16145b91505092915050565b8273ffffffffffffffffffffffffffffffffffffffff166114008261097e565b73ffffffffffffffffffffffffffffffffffffffff1614611456576040517f08c379a000000000000000000000000000000000000000000000000000000000815260040161144d90613026565b60405180910390fd5b600073ffffffffffffffffffffffffffffffffffffffff168273ffffffffffffffffffffffffffffffffffffffff16036114c5576040517f08c379a00000000000000000000000000000000000000000000000000000000081526004016114bc906130b8565b60405180910390fd5b6114d28383836001611b83565b8273ffffffffffffffffffffffffffffffffffffffff166114f28261097e565b73ffffffffffffffffffffffffffffffffffffffff1614611548576040517f08c379a000000000000000000000000000000000000000000000000000000000815260040161153f90613026565b60405180910390fd5b6004600082815260200190815260200160002060006101000a81549073ffffffffffffffffffffffffffffffffffffffff02191690556001600360008573ffffffffffffffffffffffffffffffffffffffff1673ffffffffffffffffffffffffffffffffffffffff168152602001908152602001600020600082825403925050819055506001600360008473ffffffffffffffffffffffffffffffffffffffff1673ffffffffffffffffffffffffffffffffffffffff16815260200190815260200160002060008282540192505081905550816002600083815260200190815260200160002060006101000a81548173ffffffffffffffffffffffffffffffffffffffff021916908373ffffffffffffffffffffffffffffffffffffffff160217905550808273ffffffffffffffffffffffffffffffffffffffff168473ffffffffffffffffffffffffffffffffffffffff167fddf252ad1be2c89b69c2b068fc378daa952ba7f163c4a11628f55a4df523b3ef60405160405180910390a46116d48383836001611ca9565b505050565b6116e161128a565b73ffffffffffffffffffffffffffffffffffffffff166116ff610b2d565b73ffffffffffffffffffffffffffffffffffffffff1614611755576040517f08c379a000000000000000000000000000000000000000000000000000000000815260040161174c90613124565b60405180910390fd5b565b60006002600083815260200190815260200160002060009054906101000a900473ffffffffffffffffffffffffffffffffffffffff169050919050565b6000600860009054906101000a900473ffffffffffffffffffffffffffffffffffffffff16905081600860006101000a81548173ffffffffffffffffffffffffffffffffffffffff021916908373ffffffffffffffffffffffffffffffffffffffff1602179055508173ffffffffffffffffffffffffffffffffffffffff168173ffffffffffffffffffffffffffffffffffffffff167f8be0079c531659141344cd1fd0a4f28419497f9722a3daafe3b4186f6b6457e060405160405180910390a35050565b611874828260405180602001604052806000815250611caf565b5050565b8173ffffffffffffffffffffffffffffffffffffffff168373ffffffffffffffffffffffffffffffffffffffff16036118e6576040517f08c379a00000000000000000000000000000000000000000000000000000000081526004016118dd90613190565b60405180910390fd5b80600560008573ffffffffffffffffffffffffffffffffffffffff1673ffffffffffffffffffffffffffffffffffffffff16815260200190815260200160002060008473ffffffffffffffffffffffffffffffffffffffff1673ffffffffffffffffffffffffffffffffffffffff16815260200190815260200160002060006101000a81548160ff0219169083151502179055508173ffffffffffffffffffffffffffffffffffffffff168373ffffffffffffffffffffffffffffffffffffffff167f17307eab39ab6107e8899845ad3d59bd9653f200f220920489ca2b5937696c31836040516119d791906121ef565b60405180910390a3505050565b6119ef8484846113e0565b6119fb84848484611d0a565b611a3a576040517f08c379a0000000000000000000000000000000000000000000000000000000008152600401611a3190613222565b60405180910390fd5b50505050565b606060405180606001604052806035815260200161346660359139905090565b60007f80ac58cd000000000000000000000000000000000000000000000000000000007bffffffffffffffffffffffffffffffffffffffffffffffffffffffff1916827bffffffffffffffffffffffffffffffffffffffffffffffffffffffff19161480611b2b57507f5b5e139f000000000000000000000000000000000000000000000000000000007bffffffffffffffffffffffffffffffffffffffffffffffffffffffff1916827bffffffffffffffffffffffffffffffffffffffffffffffffffffffff1916145b80611b3b5750611b3a82611e91565b5b9050919050565b60008073ffffffffffffffffffffffffffffffffffffffff16611b6483611757565b73ffffffffffffffffffffffffffffffffffffffff1614159050919050565b6001811115611ca357600073ffffffffffffffffffffffffffffffffffffffff168473ffffffffffffffffffffffffffffffffffffffff1614611c175780600360008673ffffffffffffffffffffffffffffffffffffffff1673ffffffffffffffffffffffffffffffffffffffff1681526020019081526020016000206000828254611c0f9190613242565b925050819055505b600073ffffffffffffffffffffffffffffffffffffffff168373ffffffffffffffffffffffffffffffffffffffff1614611ca25780600360008573ffffffffffffffffffffffffffffffffffffffff1673ffffffffffffffffffffffffffffffffffffffff1681526020019081526020016000206000828254611c9a9190613276565b925050819055505b5b50505050565b50505050565b611cb98383611efb565b611cc66000848484611d0a565b611d05576040517f08c379a0000000000000000000000000000000000000000000000000000000008152600401611cfc90613222565b60405180910390fd5b505050565b6000611d2b8473ffffffffffffffffffffffffffffffffffffffff16612118565b15611e84578373ffffffffffffffffffffffffffffffffffffffff1663150b7a02611d5461128a565b8786866040518563ffffffff1660e01b8152600401611d7694939291906132ff565b6020604051808303816000875af1925050508015611db257506040513d601f19601f82011682018060405250810190611daf9190613360565b60015b611e34573d8060008114611de2576040519150601f19603f3d011682016040523d82523d6000602084013e611de7565b606091505b506000815103611e2c576040517f08c379a0000000000000000000000000000000000000000000000000000000008152600401611e2390613222565b60405180910390fd5b805181602001fd5b63150b7a0260e01b7bffffffffffffffffffffffffffffffffffffffffffffffffffffffff1916817bffffffffffffffffffffffffffffffffffffffffffffffffffffffff191614915050611e89565b600190505b949350505050565b60007f01ffc9a7000000000000000000000000000000000000000000000000000000007bffffffffffffffffffffffffffffffffffffffffffffffffffffffff1916827bffffffffffffffffffffffffffffffffffffffffffffffffffffffff1916149050919050565b600073ffffffffffffffffffffffffffffffffffffffff168273ffffffffffffffffffffffffffffffffffffffff1603611f6a576040517f08c379a0000000000000000000000000000000000000000000000000000000008152600401611f61906133d9565b60405180910390fd5b611f7381611b42565b15611fb3576040517f08c379a0000000000000000000000000000000000000000000000000000000008152600401611faa90613445565b60405180910390fd5b611fc1600083836001611b83565b611fca81611b42565b1561200a576040517f08c379a000000000000000000000000000000000000000000000000000000000815260040161200190613445565b60405180910390fd5b6001600360008473ffffffffffffffffffffffffffffffffffffffff1673ffffffffffffffffffffffffffffffffffffffff16815260200190815260200160002060008282540192505081905550816002600083815260200190815260200160002060006101000a81548173ffffffffffffffffffffffffffffffffffffffff021916908373ffffffffffffffffffffffffffffffffffffffff160217905550808273ffffffffffffffffffffffffffffffffffffffff16600073ffffffffffffffffffffffffffffffffffffffff167fddf252ad1be2c89b69c2b068fc378daa952ba7f163c4a11628f55a4df523b3ef60405160405180910390a4612114600083836001611ca9565b5050565b6000808273ffffffffffffffffffffffffffffffffffffffff163b119050919050565b6000604051905090565b600080fd5b600080fd5b60007fffffffff0000000000000000000000000000000000000000000000000000000082169050919050565b6121848161214f565b811461218f57600080fd5b50565b6000813590506121a18161217b565b92915050565b6000602082840312156121bd576121bc612145565b5b60006121cb84828501612192565b91505092915050565b60008115159050919050565b6121e9816121d4565b82525050565b600060208201905061220460008301846121e0565b92915050565b600081519050919050565b600082825260208201905092915050565b60005b83811015612244578082015181840152602081019050612229565b60008484015250505050565b6000601f19601f8301169050919050565b600061226c8261220a565b6122768185612215565b9350612286818560208601612226565b61228f81612250565b840191505092915050565b600060208201905081810360008301526122b48184612261565b905092915050565b6000819050919050565b6122cf816122bc565b81146122da57600080fd5b50565b6000813590506122ec816122c6565b92915050565b60006020828403121561230857612307612145565b5b6000612316848285016122dd565b91505092915050565b600073ffffffffffffffffffffffffffffffffffffffff82169050919050565b600061234a8261231f565b9050919050565b61235a8161233f565b82525050565b60006020820190506123756000830184612351565b92915050565b6123848161233f565b811461238f57600080fd5b50565b6000813590506123a18161237b565b92915050565b600080604083850312156123be576123bd612145565b5b60006123cc85828601612392565b92505060206123dd858286016122dd565b9150509250929050565b600080600060608486031215612400576123ff612145565b5b600061240e86828701612392565b935050602061241f86828701612392565b9250506040612430868287016122dd565b9150509250925092565b612443816122bc565b82525050565b600060208201905061245e600083018461243a565b92915050565b6000806040838503121561247b5761247a612145565b5b6000612489858286016122dd565b925050602061249a858286016122dd565b9150509250929050565b60006040820190506124b96000830185612351565b6124c6602083018461243a565b9392505050565b6000602082840312156124e3576124e2612145565b5b60006124f184828501612392565b91505092915050565b612503816121d4565b811461250e57600080fd5b50565b600081359050612520816124fa565b92915050565b60006020828403121561253c5761253b612145565b5b600061254a84828501612511565b91505092915050565b6000806040838503121561256a57612569612145565b5b600061257885828601612392565b925050602061258985828601612511565b9150509250929050565b600080fd5b600080fd5b7f4e487b7100000000000000000000000000000000000000000000000000000000600052604160045260246000fd5b6125d582612250565b810181811067ffffffffffffffff821117156125f4576125f361259d565b5b80604052505050565b600061260761213b565b905061261382826125cc565b919050565b600067ffffffffffffffff8211156126335761263261259d565b5b61263c82612250565b9050602081019050919050565b82818337600083830152505050565b600061266b61266684612618565b6125fd565b90508281526020810184848401111561268757612686612598565b5b612692848285612649565b509392505050565b600082601f8301126126af576126ae612593565b5b81356126bf848260208601612658565b91505092915050565b600080600080608085870312156126e2576126e1612145565b5b60006126f087828801612392565b945050602061270187828801612392565b9350506040612712878288016122dd565b925050606085013567ffffffffffffffff8111156127335761273261214a565b5b61273f8782880161269a565b91505092959194509250565b600060408201905061276060008301856121e0565b61276d602083018461243a565b9392505050565b6000806040838503121561278b5761278a612145565b5b6000612799858286016122dd565b92505060206127aa85828601612392565b9150509250929050565b600080604083850312156127cb576127ca612145565b5b60006127d985828601612392565b92505060206127ea85828601612392565b9150509250929050565b7f4e487b7100000000000000000000000000000000000000000000000000000000600052602260045260246000fd5b6000600282049050600182168061283b57607f821691505b60208210810361284e5761284d6127f4565b5b50919050565b7f4552433732313a20617070726f76616c20746f2063757272656e74206f776e6560008201527f7200000000000000000000000000000000000000000000000000000000000000602082015250565b60006128b0602183612215565b91506128bb82612854565b604082019050919050565b600060208201905081810360008301526128df816128a3565b9050919050565b7f4552433732313a20617070726f76652063616c6c6572206973206e6f7420746f60008201527f6b656e206f776e6572206f7220617070726f76656420666f7220616c6c000000602082015250565b6000612942603d83612215565b915061294d826128e6565b604082019050919050565b6000602082019050818103600083015261297181612935565b9050919050565b7f4552433732313a2063616c6c6572206973206e6f7420746f6b656e206f776e6560008201527f72206f7220617070726f76656400000000000000000000000000000000000000602082015250565b60006129d4602d83612215565b91506129df82612978565b604082019050919050565b60006020820190508181036000830152612a03816129c7565b9050919050565b7f466565206d757374206265206c657373206f7220657175616c20746f20333325600082015250565b6000612a40602083612215565b9150612a4b82612a0a565b602082019050919050565b60006020820190508181036000830152612a6f81612a33565b9050919050565b7f4e487b7100000000000000000000000000000000000000000000000000000000600052601160045260246000fd5b6000612ab0826122bc565b9150612abb836122bc565b9250828202612ac9816122bc565b91508282048414831517612ae057612adf612a76565b5b5092915050565b7f4e487b7100000000000000000000000000000000000000000000000000000000600052601260045260246000fd5b6000612b21826122bc565b9150612b2c836122bc565b925082612b3c57612b3b612ae7565b5b828204905092915050565b7f4552433732313a20696e76616c696420746f6b656e2049440000000000000000600082015250565b6000612b7d601883612215565b9150612b8882612b47565b602082019050919050565b60006020820190508181036000830152612bac81612b70565b9050919050565b7f4552433732313a2061646472657373207a65726f206973206e6f74206120766160008201527f6c6964206f776e65720000000000000000000000000000000000000000000000602082015250565b6000612c0f602983612215565b9150612c1a82612bb3565b604082019050919050565b60006020820190508181036000830152612c3e81612c02565b9050919050565b7f4d696e74696e67206973206e6f74206f70656e00000000000000000000000000600082015250565b6000612c7b601383612215565b9150612c8682612c45565b602082019050919050565b60006020820190508181036000830152612caa81612c6e565b9050919050565b7f546f6b656e20494420697320746f6f2068696768000000000000000000000000600082015250565b6000612ce7601483612215565b9150612cf282612cb1565b602082019050919050565b60006020820190508181036000830152612d1681612cda565b9050919050565b7f596f7520617265206e6f7420616c6c6f77656420746f206d696e74207468697360008201527f20746f6b656e0000000000000000000000000000000000000000000000000000602082015250565b6000612d79602683612215565b9150612d8482612d1d565b604082019050919050565b60006020820190508181036000830152612da881612d6c565b9050919050565b7f546f6b656e2068617320616c7265616479206265656e206d696e746564000000600082015250565b6000612de5601d83612215565b9150612df082612daf565b602082019050919050565b60006020820190508181036000830152612e1481612dd8565b9050919050565b7f546f6b656e20494420746f6f206c6f7700000000000000000000000000000000600082015250565b6000612e51601083612215565b9150612e5c82612e1b565b602082019050919050565b60006020820190508181036000830152612e8081612e44565b9050919050565b6000612e92826122bc565b91507fffffffffffffffffffffffffffffffffffffffffffffffffffffffffffffffff8203612ec457612ec3612a76565b5b600182019050919050565b600081905092915050565b6000612ee58261220a565b612eef8185612ecf565b9350612eff818560208601612226565b80840191505092915050565b6000612f178284612eda565b915081905092915050565b7f4f776e61626c653a206e6577206f776e657220697320746865207a65726f206160008201527f6464726573730000000000000000000000000000000000000000000000000000602082015250565b6000612f7e602683612215565b9150612f8982612f22565b604082019050919050565b60006020820190508181036000830152612fad81612f71565b9050919050565b7f4552433732313a207472616e736665722066726f6d20696e636f72726563742060008201527f6f776e6572000000000000000000000000000000000000000000000000000000602082015250565b6000613010602583612215565b915061301b82612fb4565b604082019050919050565b6000602082019050818103600083015261303f81613003565b9050919050565b7f4552433732313a207472616e7366657220746f20746865207a65726f2061646460008201527f7265737300000000000000000000000000000000000000000000000000000000602082015250565b60006130a2602483612215565b91506130ad82613046565b604082019050919050565b600060208201905081810360008301526130d181613095565b9050919050565b7f4f776e61626c653a2063616c6c6572206973206e6f7420746865206f776e6572600082015250565b600061310e602083612215565b9150613119826130d8565b602082019050919050565b6000602082019050818103600083015261313d81613101565b9050919050565b7f4552433732313a20617070726f766520746f2063616c6c657200000000000000600082015250565b600061317a601983612215565b915061318582613144565b602082019050919050565b600060208201905081810360008301526131a98161316d565b9050919050565b7f4552433732313a207472616e7366657220746f206e6f6e20455243373231526560008201527f63656976657220696d706c656d656e7465720000000000000000000000000000602082015250565b600061320c603283612215565b9150613217826131b0565b604082019050919050565b6000602082019050818103600083015261323b816131ff565b9050919050565b600061324d826122bc565b9150613258836122bc565b92508282039050818111156132705761326f612a76565b5b92915050565b6000613281826122bc565b915061328c836122bc565b92508282019050808211156132a4576132a3612a76565b5b92915050565b600081519050919050565b600082825260208201905092915050565b60006132d1826132aa565b6132db81856132b5565b93506132eb818560208601612226565b6132f481612250565b840191505092915050565b60006080820190506133146000830187612351565b6133216020830186612351565b61332e604083018561243a565b818103606083015261334081846132c6565b905095945050505050565b60008151905061335a8161217b565b92915050565b60006020828403121561337657613375612145565b5b60006133848482850161334b565b91505092915050565b7f4552433732313a206d696e7420746f20746865207a65726f2061646472657373600082015250565b60006133c3602083612215565b91506133ce8261338d565b602082019050919050565b600060208201905081810360008301526133f2816133b6565b9050919050565b7f4552433732313a20746f6b656e20616c7265616479206d696e74656400000000600082015250565b600061342f601c83612215565b915061343a826133f9565b602082019050919050565b6000602082019050818103600083015261345e81613422565b905091905056fe697066733a2f2f516d59326150435a514e76735a55517655533267366343536d644c58756872486e525545636f4c66777939485734a26469706673582212206f031d073fadfd8e3cbe66f7bb2712e7ddfd8ed21aeb2343106b69932616c62a64736f6c63430008110033",
  "immutableReferences": {},
  "source": "// SPDX-License-Identifier: MIT\npragma solidity >=0.4.22 <0.9.0;\n\nimport \"@openzeppelin/contracts/access/Ownable.sol\";\nimport \"@openzeppelin/contracts/token/ERC721/ERC721.sol\";\nimport \"@openzeppelin/contracts/token/common/ERC2981.sol\";\n\ncontract Stacks is ERC721, ERC2981, Ownable {\n  bytes4 private constant _INTERFACE_ID_ERC2981 = 0x2a55205a;\n\n  uint public constant PERCENT_DIVIDER = 10000;\n  uint public SALE_FEE = 1000; // 10%\n\n  mapping(uint => address) public tokenMinter;\n  mapping(uint => TokenMetaData) public tokenMetaDataRecord;\n\n  address public auctionHouse;\n  bool public mintOpen;\n  uint public maxSupply = 5000; // Immutable\n  uint public softCap = 4009;\n  uint public teamMinted = 0;\n\n  struct TokenMetaData {\n    bool minted;\n    uint timestamp;\n  }\n\n  constructor() ERC721(\"Stacks\", \"STACKS\") {}\n\n  function mint(uint _tokenId) public {\n    require(mintOpen, \"Minting is not open\");\n    require(_tokenId <= maxSupply, \"Token ID is too high\");\n    require(tokenMinter[_tokenId] == msg.sender, \"You are not allowed to mint this token\");\n    require(!tokenMetaDataRecord[_tokenId].minted, \"Token has already been minted\");\n\n    _safeMint(msg.sender, _tokenId);\n    // tokenMetaDataRecord[_tokenId].minted = true;\n    tokenMetaDataRecord[_tokenId] = TokenMetaData(true, block.timestamp);\n  }\n\n  // Set who can mint the token with tokenId\n  function addAvailableForMint(uint _tokenId, address _auctionWinner) internal {\n    tokenMinter[_tokenId] = _auctionWinner;\n  }\n\n  // Admin functions\n  function setAuctionHouse(address _auctionHouse) public onlyOwner {\n    auctionHouse = _auctionHouse;\n  }\n\n  function toggleMint(bool _open) public onlyOwner {\n    mintOpen = _open;\n  }\n\n  // Mint token to offer new team members\n  function teamMint(uint _tokenId, address _teamMember) public onlyOwner {\n    // _tokenId for team must be between 4010 and 5000\n    require(_tokenId > softCap, \"Token ID too low\");\n    require(_tokenId <= maxSupply, \"Token ID is too high\");\n    // addAvailableForMint\n    tokenMinter[_tokenId] = _teamMember;\n    // prepTokenMetadata\n    tokenMetaDataRecord[_tokenId] = TokenMetaData(true, block.timestamp);\n    // mint\n    _safeMint(msg.sender, _tokenId);\n    teamMinted++;\n  }\n\n  function setRegularFee(uint _SALE_FEE) public onlyOwner {\n    require(_SALE_FEE <= 3300, \"Fee must be less or equal to 33%\");\n    SALE_FEE = _SALE_FEE;\n  }\n\n  function supportsInterface(bytes4 _interfaceId) public view virtual override(ERC721, ERC2981) returns (bool) {\n    if (_interfaceId == _INTERFACE_ID_ERC2981) { return true; }\n    return super.supportsInterface(_interfaceId);\n  }\n\n  function royaltyInfo(uint256, uint256 _salePrice) override view public returns (address receiver, uint256 royaltyAmount){\n    return (owner(), _salePrice * SALE_FEE / PERCENT_DIVIDER);\n  }\n\n  // Overwrite tokenURI\n  // ignore tokenId as all the tokens have the same image\n  function tokenURI(uint256 _tokenId) public view virtual override returns (string memory) {\n    _requireMinted(_tokenId);\n    return string(abi.encodePacked(_baseURI()));\n  }\n\n  // Overwrite _baseURI\n  function _baseURI() override pure internal returns (string memory) {\n    return \"ipfs://QmY2aPCZQNvsZUQvUS2g6cCSmdLXuhrHnRUEcoLfwy9HW4\";\n  }\n}\n",
  "sourcePath": "/Users/bruno/dev/crypto/stacks/contracts/Stacks.sol",
  "compiler": {
    "name": "solc",
    "version": "0.8.17+commit.8df45f5f.Emscripten.clang"
  },
  "schemaVersion": "3.4.10",
  "updatedAt": "2023-01-29T20:02:49.160Z",
  "devdoc": {
    "kind": "dev",
    "methods": {
      "approve(address,uint256)": {
        "details": "See {IERC721-approve}."
      },
      "balanceOf(address)": {
        "details": "See {IERC721-balanceOf}."
      },
      "getApproved(uint256)": {
        "details": "See {IERC721-getApproved}."
      },
      "isApprovedForAll(address,address)": {
        "details": "See {IERC721-isApprovedForAll}."
      },
      "name()": {
        "details": "See {IERC721Metadata-name}."
      },
      "owner()": {
        "details": "Returns the address of the current owner."
      },
      "ownerOf(uint256)": {
        "details": "See {IERC721-ownerOf}."
      },
      "renounceOwnership()": {
        "details": "Leaves the contract without owner. It will not be possible to call `onlyOwner` functions anymore. Can only be called by the current owner. NOTE: Renouncing ownership will leave the contract without an owner, thereby removing any functionality that is only available to the owner."
      },
      "safeTransferFrom(address,address,uint256)": {
        "details": "See {IERC721-safeTransferFrom}."
      },
      "safeTransferFrom(address,address,uint256,bytes)": {
        "details": "See {IERC721-safeTransferFrom}."
      },
      "setApprovalForAll(address,bool)": {
        "details": "See {IERC721-setApprovalForAll}."
      },
      "symbol()": {
        "details": "See {IERC721Metadata-symbol}."
      },
      "transferFrom(address,address,uint256)": {
        "details": "See {IERC721-transferFrom}."
      },
      "transferOwnership(address)": {
        "details": "Transfers ownership of the contract to a new account (`newOwner`). Can only be called by the current owner."
      }
    },
    "version": 1
  },
  "userdoc": {
    "kind": "user",
    "methods": {},
    "version": 1
  }
}