{
  "contractName": "StacksAuctionHouse",
  "abi": [
    {
      "inputs": [
        {
          "internalType": "address payable",
          "name": "_treasuryAddress",
          "type": "address"
        }
      ],
      "stateMutability": "nonpayable",
      "type": "constructor"
    },
    {
      "anonymous": false,
      "inputs": [
        {
          "indexed": true,
          "internalType": "address",
          "name": "previousOwner",
          "type": "address"
        },
        {
          "indexed": true,
          "internalType": "address",
          "name": "newOwner",
          "type": "address"
        }
      ],
      "name": "OwnershipTransferred",
      "type": "event"
    },
    {
      "inputs": [
        {
          "internalType": "uint256",
          "name": "",
          "type": "uint256"
        }
      ],
      "name": "auctionWinner",
      "outputs": [
        {
          "internalType": "address payable",
          "name": "",
          "type": "address"
        }
      ],
      "stateMutability": "view",
      "type": "function",
      "constant": true
    },
    {
      "inputs": [
        {
          "internalType": "uint256",
          "name": "",
          "type": "uint256"
        }
      ],
      "name": "auctions",
      "outputs": [
        {
          "internalType": "uint256",
          "name": "endPrice",
          "type": "uint256"
        },
        {
          "internalType": "uint256",
          "name": "startTime",
          "type": "uint256"
        },
        {
          "internalType": "uint256",
          "name": "endTime",
          "type": "uint256"
        },
        {
          "internalType": "bool",
          "name": "closed",
          "type": "bool"
        }
      ],
      "stateMutability": "view",
      "type": "function",
      "constant": true
    },
    {
      "inputs": [],
      "name": "createdAuctions",
      "outputs": [
        {
          "internalType": "uint256",
          "name": "",
          "type": "uint256"
        }
      ],
      "stateMutability": "view",
      "type": "function",
      "constant": true
    },
    {
      "inputs": [],
      "name": "owner",
      "outputs": [
        {
          "internalType": "address",
          "name": "",
          "type": "address"
        }
      ],
      "stateMutability": "view",
      "type": "function",
      "constant": true
    },
    {
      "inputs": [],
      "name": "renounceOwnership",
      "outputs": [],
      "stateMutability": "nonpayable",
      "type": "function"
    },
    {
      "inputs": [],
      "name": "totalAuctions",
      "outputs": [
        {
          "internalType": "uint256",
          "name": "",
          "type": "uint256"
        }
      ],
      "stateMutability": "view",
      "type": "function",
      "constant": true
    },
    {
      "inputs": [
        {
          "internalType": "address",
          "name": "newOwner",
          "type": "address"
        }
      ],
      "name": "transferOwnership",
      "outputs": [],
      "stateMutability": "nonpayable",
      "type": "function"
    },
    {
      "inputs": [],
      "name": "treasuryAddress",
      "outputs": [
        {
          "internalType": "address payable",
          "name": "",
          "type": "address"
        }
      ],
      "stateMutability": "view",
      "type": "function",
      "constant": true
    },
    {
      "inputs": [],
      "name": "getCurrentWinner",
      "outputs": [
        {
          "internalType": "address payable",
          "name": "",
          "type": "address"
        }
      ],
      "stateMutability": "view",
      "type": "function",
      "constant": true
    },
    {
      "inputs": [
        {
          "internalType": "uint256",
          "name": "_tokenId",
          "type": "uint256"
        }
      ],
      "name": "getAuctionWinner",
      "outputs": [
        {
          "internalType": "address payable",
          "name": "",
          "type": "address"
        }
      ],
      "stateMutability": "view",
      "type": "function",
      "constant": true
    },
    {
      "inputs": [],
      "name": "getCurrentAuction",
      "outputs": [
        {
          "components": [
            {
              "internalType": "uint256",
              "name": "endPrice",
              "type": "uint256"
            },
            {
              "internalType": "uint256",
              "name": "startTime",
              "type": "uint256"
            },
            {
              "internalType": "uint256",
              "name": "endTime",
              "type": "uint256"
            },
            {
              "internalType": "bool",
              "name": "closed",
              "type": "bool"
            }
          ],
          "internalType": "struct StacksAuctionHouse.Auction",
          "name": "",
          "type": "tuple"
        }
      ],
      "stateMutability": "view",
      "type": "function",
      "constant": true
    },
    {
      "inputs": [],
      "name": "getLastCreatedAuction",
      "outputs": [
        {
          "components": [
            {
              "internalType": "uint256",
              "name": "endPrice",
              "type": "uint256"
            },
            {
              "internalType": "uint256",
              "name": "startTime",
              "type": "uint256"
            },
            {
              "internalType": "uint256",
              "name": "endTime",
              "type": "uint256"
            },
            {
              "internalType": "bool",
              "name": "closed",
              "type": "bool"
            }
          ],
          "internalType": "struct StacksAuctionHouse.Auction",
          "name": "",
          "type": "tuple"
        }
      ],
      "stateMutability": "view",
      "type": "function",
      "constant": true
    },
    {
      "inputs": [
        {
          "internalType": "uint256",
          "name": "_tokenId",
          "type": "uint256"
        }
      ],
      "name": "getAuction",
      "outputs": [
        {
          "components": [
            {
              "internalType": "uint256",
              "name": "endPrice",
              "type": "uint256"
            },
            {
              "internalType": "uint256",
              "name": "startTime",
              "type": "uint256"
            },
            {
              "internalType": "uint256",
              "name": "endTime",
              "type": "uint256"
            },
            {
              "internalType": "bool",
              "name": "closed",
              "type": "bool"
            }
          ],
          "internalType": "struct StacksAuctionHouse.Auction",
          "name": "",
          "type": "tuple"
        }
      ],
      "stateMutability": "view",
      "type": "function",
      "constant": true
    },
    {
      "inputs": [],
      "name": "bid",
      "outputs": [],
      "stateMutability": "payable",
      "type": "function",
      "payable": true
    },
    {
      "inputs": [
        {
          "internalType": "address payable",
          "name": "_treasuryAddress",
          "type": "address"
        }
      ],
      "name": "setTreasuryAddress",
      "outputs": [],
      "stateMutability": "nonpayable",
      "type": "function"
    },
    {
      "inputs": [
        {
          "internalType": "uint256",
          "name": "_amount",
          "type": "uint256"
        }
      ],
      "name": "createAuctions",
      "outputs": [],
      "stateMutability": "nonpayable",
      "type": "function"
    },
    {
      "inputs": [],
      "name": "daysSinceStart",
      "outputs": [
        {
          "internalType": "uint256",
          "name": "",
          "type": "uint256"
        }
      ],
      "stateMutability": "view",
      "type": "function",
      "constant": true
    }
  ],
  "bytecode": "0x6080604052600060035560006004556363e6da806006553480156200002357600080fd5b506040516200195e3803806200195e8339818101604052810190620000499190620004f1565b620000696200005d6200017860201b60201c565b6200018060201b60201c565b80600560006101000a81548173ffffffffffffffffffffffffffffffffffffffff021916908373ffffffffffffffffffffffffffffffffffffffff1602179055506040518060800160405280600081526020016006548152602001600162015180600654620000d991906200055c565b620000e5919062000597565b8152602001600015158152506001600080815260200190815260200160002060008201518160000155602082015181600101556040820151816002015560608201518160030160006101000a81548160ff021916908315150217905550905050600460008154809291906200015a90620005d2565b919050555062000171601e6200024460201b60201c565b50620006a2565b600033905090565b60008060009054906101000a900473ffffffffffffffffffffffffffffffffffffffff169050816000806101000a81548173ffffffffffffffffffffffffffffffffffffffff021916908373ffffffffffffffffffffffffffffffffffffffff1602179055508173ffffffffffffffffffffffffffffffffffffffff168173ffffffffffffffffffffffffffffffffffffffff167f8be0079c531659141344cd1fd0a4f28419497f9722a3daafe3b4186f6b6457e060405160405180910390a35050565b62000254620002a460201b60201c565b6000816004546200026691906200055c565b9050600060045490505b818110156200029f57620002896200033560201b60201c565b80806200029690620005d2565b91505062000270565b505050565b620002b46200017860201b60201c565b73ffffffffffffffffffffffffffffffffffffffff16620002da6200045e60201b60201c565b73ffffffffffffffffffffffffffffffffffffffff161462000333576040517f08c379a00000000000000000000000000000000000000000000000000000000081526004016200032a9062000680565b60405180910390fd5b565b60006001600060016004546200034c919062000597565b81526020019081526020016000206040518060800160405290816000820154815260200160018201548152602001600282015481526020016003820160009054906101000a900460ff161515151581525050905060405180608001604052806000815260200160018360400151620003c591906200055c565b8152602001620151808360400151620003df91906200055c565b81526020016000151581525060016000600454815260200190815260200160002060008201518160000155602082015181600101556040820151816002015560608201518160030160006101000a81548160ff021916908315150217905550905050600460008154809291906200045690620005d2565b919050555050565b60008060009054906101000a900473ffffffffffffffffffffffffffffffffffffffff16905090565b600080fd5b600073ffffffffffffffffffffffffffffffffffffffff82169050919050565b6000620004b9826200048c565b9050919050565b620004cb81620004ac565b8114620004d757600080fd5b50565b600081519050620004eb81620004c0565b92915050565b6000602082840312156200050a576200050962000487565b5b60006200051a84828501620004da565b91505092915050565b6000819050919050565b7f4e487b7100000000000000000000000000000000000000000000000000000000600052601160045260246000fd5b6000620005698262000523565b9150620005768362000523565b92508282019050808211156200059157620005906200052d565b5b92915050565b6000620005a48262000523565b9150620005b18362000523565b9250828203905081811115620005cc57620005cb6200052d565b5b92915050565b6000620005df8262000523565b91507fffffffffffffffffffffffffffffffffffffffffffffffffffffffffffffffff82036200061457620006136200052d565b5b600182019050919050565b600082825260208201905092915050565b7f4f776e61626c653a2063616c6c6572206973206e6f7420746865206f776e6572600082015250565b6000620006686020836200061f565b9150620006758262000630565b602082019050919050565b600060208201905081810360008301526200069b8162000659565b9050919050565b6112ac80620006b26000396000f3fe6080604052600436106100fe5760003560e01c806378bd793511610095578063c5f956af11610064578063c5f956af14610307578063dcb66f1214610332578063f22d98341461035d578063f2fde38b14610388578063fe0dad25146103b1576100fe565b806378bd79351461024b5780638da5cb5b14610288578063985d27cc146102b3578063acc49d88146102de576100fe565b8063329bfc33116100d1578063329bfc33146101a0578063571a26a0146101cb5780636605bfda1461020b578063715018a614610234576100fe565b8063083d353b1461010357806316002f4a1461014057806317cf813e1461016b5780631998aeef14610196575b600080fd5b34801561010f57600080fd5b5061012a60048036038101906101259190610d2d565b6103ee565b6040516101379190610d9b565b60405180910390f35b34801561014c57600080fd5b5061015561042b565b6040516101629190610dc5565b60405180910390f35b34801561017757600080fd5b50610180610431565b60405161018d9190610dc5565b60405180910390f35b61019e610454565b005b3480156101ac57600080fd5b506101b56105ec565b6040516101c29190610d9b565b60405180910390f35b3480156101d757600080fd5b506101f260048036038101906101ed9190610d2d565b61062e565b6040516102029493929190610dfb565b60405180910390f35b34801561021757600080fd5b50610232600480360381019061022d9190610e6c565b61066b565b005b34801561024057600080fd5b506102496106b7565b005b34801561025757600080fd5b50610272600480360381019061026d9190610d2d565b6106cb565b60405161027f9190610f0c565b60405180910390f35b34801561029457600080fd5b5061029d610731565b6040516102aa9190610f48565b60405180910390f35b3480156102bf57600080fd5b506102c861075a565b6040516102d59190610f0c565b60405180910390f35b3480156102ea57600080fd5b5061030560048036038101906103009190610d2d565b6107cc565b005b34801561031357600080fd5b5061031c610816565b6040516103299190610d9b565b60405180910390f35b34801561033e57600080fd5b5061034761083c565b6040516103549190610f0c565b60405180910390f35b34801561036957600080fd5b506103726108a7565b60405161037f9190610dc5565b60405180910390f35b34801561039457600080fd5b506103af60048036038101906103aa9190610f8f565b6108ad565b005b3480156103bd57600080fd5b506103d860048036038101906103d39190610d2d565b610930565b6040516103e59190610d9b565b60405180910390f35b60006002600083815260200190815260200160002060009054906101000a900473ffffffffffffffffffffffffffffffffffffffff169050919050565b60035481565b600062015180600654426104459190610feb565b61044f919061104e565b905090565b600061045e61083c565b9050600061046a610431565b90506000349050826000015181116104b7576040517f08c379a00000000000000000000000000000000000000000000000000000000081526004016104ae906110dc565b60405180910390fd5b60008360000151905060006002600085815260200190815260200160002060009054906101000a900473ffffffffffffffffffffffffffffffffffffffff169050336002600086815260200190815260200160002060006101000a81548173ffffffffffffffffffffffffffffffffffffffff021916908373ffffffffffffffffffffffffffffffffffffffff1602179055508260016000868152602001908152602001600020600001819055508073ffffffffffffffffffffffffffffffffffffffff166108fc839081150290604051600060405180830381858888f193505050501580156105ab573d6000803e3d6000fd5b5060006105c36001866105be9190610feb565b6106cb565b905080606001516105e4576105e36001866105de9190610feb565b610963565b5b505050505050565b6000600260006105fa610431565b815260200190815260200160002060009054906101000a900473ffffffffffffffffffffffffffffffffffffffff16905090565b60016020528060005260406000206000915090508060000154908060010154908060020154908060030160009054906101000a900460ff16905084565b610673610a5d565b80600560006101000a81548173ffffffffffffffffffffffffffffffffffffffff021916908373ffffffffffffffffffffffffffffffffffffffff16021790555050565b6106bf610a5d565b6106c96000610adb565b565b6106d3610cc8565b600160008381526020019081526020016000206040518060800160405290816000820154815260200160018201548152602001600282015481526020016003820160009054906101000a900460ff1615151515815250509050919050565b60008060009054906101000a900473ffffffffffffffffffffffffffffffffffffffff16905090565b610762610cc8565b6001600060016004546107759190610feb565b81526020019081526020016000206040518060800160405290816000820154815260200160018201548152602001600282015481526020016003820160009054906101000a900460ff161515151581525050905090565b6107d4610a5d565b6000816004546107e491906110fc565b9050600060045490505b81811015610811576107fe610b9f565b808061080990611130565b9150506107ee565b505050565b600560009054906101000a900473ffffffffffffffffffffffffffffffffffffffff1681565b610844610cc8565b60016000610850610431565b81526020019081526020016000206040518060800160405290816000820154815260200160018201548152602001600282015481526020016003820160009054906101000a900460ff161515151581525050905090565b60045481565b6108b5610a5d565b600073ffffffffffffffffffffffffffffffffffffffff168173ffffffffffffffffffffffffffffffffffffffff1603610924576040517f08c379a000000000000000000000000000000000000000000000000000000000815260040161091b906111ea565b60405180910390fd5b61092d81610adb565b50565b60026020528060005260406000206000915054906101000a900473ffffffffffffffffffffffffffffffffffffffff1681565b6000600160008381526020019081526020016000206040518060800160405290816000820154815260200160018201548152602001600282015481526020016003820160009054906101000a900460ff1615151515815250509050600180600084815260200190815260200160002060030160006101000a81548160ff021916908315150217905550600560009054906101000a900473ffffffffffffffffffffffffffffffffffffffff1673ffffffffffffffffffffffffffffffffffffffff166108fc82600001519081150290604051600060405180830381858888f19350505050158015610a58573d6000803e3d6000fd5b505050565b610a65610cc0565b73ffffffffffffffffffffffffffffffffffffffff16610a83610731565b73ffffffffffffffffffffffffffffffffffffffff1614610ad9576040517f08c379a0000000000000000000000000000000000000000000000000000000008152600401610ad090611256565b60405180910390fd5b565b60008060009054906101000a900473ffffffffffffffffffffffffffffffffffffffff169050816000806101000a81548173ffffffffffffffffffffffffffffffffffffffff021916908373ffffffffffffffffffffffffffffffffffffffff1602179055508173ffffffffffffffffffffffffffffffffffffffff168173ffffffffffffffffffffffffffffffffffffffff167f8be0079c531659141344cd1fd0a4f28419497f9722a3daafe3b4186f6b6457e060405160405180910390a35050565b6000600160006001600454610bb49190610feb565b81526020019081526020016000206040518060800160405290816000820154815260200160018201548152602001600282015481526020016003820160009054906101000a900460ff161515151581525050905060405180608001604052806000815260200160018360400151610c2b91906110fc565b8152602001620151808360400151610c4391906110fc565b81526020016000151581525060016000600454815260200190815260200160002060008201518160000155602082015181600101556040820151816002015560608201518160030160006101000a81548160ff02191690831515021790555090505060046000815480929190610cb890611130565b919050555050565b600033905090565b60405180608001604052806000815260200160008152602001600081526020016000151581525090565b600080fd5b6000819050919050565b610d0a81610cf7565b8114610d1557600080fd5b50565b600081359050610d2781610d01565b92915050565b600060208284031215610d4357610d42610cf2565b5b6000610d5184828501610d18565b91505092915050565b600073ffffffffffffffffffffffffffffffffffffffff82169050919050565b6000610d8582610d5a565b9050919050565b610d9581610d7a565b82525050565b6000602082019050610db06000830184610d8c565b92915050565b610dbf81610cf7565b82525050565b6000602082019050610dda6000830184610db6565b92915050565b60008115159050919050565b610df581610de0565b82525050565b6000608082019050610e106000830187610db6565b610e1d6020830186610db6565b610e2a6040830185610db6565b610e376060830184610dec565b95945050505050565b610e4981610d7a565b8114610e5457600080fd5b50565b600081359050610e6681610e40565b92915050565b600060208284031215610e8257610e81610cf2565b5b6000610e9084828501610e57565b91505092915050565b610ea281610cf7565b82525050565b610eb181610de0565b82525050565b608082016000820151610ecd6000850182610e99565b506020820151610ee06020850182610e99565b506040820151610ef36040850182610e99565b506060820151610f066060850182610ea8565b50505050565b6000608082019050610f216000830184610eb7565b92915050565b6000610f3282610d5a565b9050919050565b610f4281610f27565b82525050565b6000602082019050610f5d6000830184610f39565b92915050565b610f6c81610f27565b8114610f7757600080fd5b50565b600081359050610f8981610f63565b92915050565b600060208284031215610fa557610fa4610cf2565b5b6000610fb384828501610f7a565b91505092915050565b7f4e487b7100000000000000000000000000000000000000000000000000000000600052601160045260246000fd5b6000610ff682610cf7565b915061100183610cf7565b925082820390508181111561101957611018610fbc565b5b92915050565b7f4e487b7100000000000000000000000000000000000000000000000000000000600052601260045260246000fd5b600061105982610cf7565b915061106483610cf7565b9250826110745761107361101f565b5b828204905092915050565b600082825260208201905092915050565b7f42696420697320746f6f206c6f77000000000000000000000000000000000000600082015250565b60006110c6600e8361107f565b91506110d182611090565b602082019050919050565b600060208201905081810360008301526110f5816110b9565b9050919050565b600061110782610cf7565b915061111283610cf7565b925082820190508082111561112a57611129610fbc565b5b92915050565b600061113b82610cf7565b91507fffffffffffffffffffffffffffffffffffffffffffffffffffffffffffffffff820361116d5761116c610fbc565b5b600182019050919050565b7f4f776e61626c653a206e6577206f776e657220697320746865207a65726f206160008201527f6464726573730000000000000000000000000000000000000000000000000000602082015250565b60006111d460268361107f565b91506111df82611178565b604082019050919050565b60006020820190508181036000830152611203816111c7565b9050919050565b7f4f776e61626c653a2063616c6c6572206973206e6f7420746865206f776e6572600082015250565b600061124060208361107f565b915061124b8261120a565b602082019050919050565b6000602082019050818103600083015261126f81611233565b905091905056fea2646970667358221220fc9c59d47f621f79e4d06749a82a7b710b84067842f4a0355a33e3d33525473964736f6c63430008110033",
  "immutableReferences": {},
  "source": "// SPDX-License-Identifier: MIT\npragma solidity >=0.4.22 <0.9.0;\n\nimport \"@openzeppelin/contracts/access/Ownable.sol\";\n\ncontract StacksAuctionHouse is Ownable {\n  mapping(uint => Auction) public auctions;\n  mapping(uint => address payable) public auctionWinner;\n  uint public totalAuctions = 0;\n  uint public createdAuctions = 0;\n  address payable public treasuryAddress;\n  // uint startTimeOfFirstAuction = 1677628800; // Wed Mar 01 2023 00:00:00 GMT+0000\n  uint startTimeOfFirstAuction = 1676073600;  // Test start: Sat Feb 11 2023 00:00:00 GMT+0000\n\n  struct Auction {\n    uint endPrice;\n    uint startTime;\n    uint endTime;\n    bool closed;\n  }\n\n  constructor(address payable _treasuryAddress) {\n    treasuryAddress = _treasuryAddress;\n    // Create the first auction\n    auctions[0] = Auction({\n      endPrice: 0,\n      startTime: startTimeOfFirstAuction,\n      endTime: (startTimeOfFirstAuction + 1 days) - 1,\n      closed: false\n    });\n    createdAuctions++;\n    // Create next 30 auctions\n    createAuctions(30);\n  }\n\n  function getCurrentWinner() public view returns (address payable) {\n    return auctionWinner[daysSinceStart()];\n  }\n\n  function getAuctionWinner(uint _tokenId) public view returns (address payable) {\n    return auctionWinner[_tokenId];\n  }\n\n  function getCurrentAuction() public view returns (Auction memory) {\n    return auctions[daysSinceStart()];\n  }\n\n  function getLastCreatedAuction() public view returns (Auction memory) {\n    return auctions[createdAuctions - 1];\n  }\n\n  function getAuction(uint _tokenId) public view returns (Auction memory) {\n    return auctions[_tokenId];\n  }\n\n  function bid() public payable {\n    Auction memory auction = getCurrentAuction();\n    uint auctionId = daysSinceStart();\n    uint paidVal = msg.value;\n\n    require(paidVal > auction.endPrice, \"Bid is too low\");\n    uint lastBid = auction.endPrice;\n    address payable lastBidder = auctionWinner[auctionId];\n    // update the auction\n    auctionWinner[auctionId] = payable(msg.sender);\n    auctions[auctionId].endPrice = paidVal;\n\n    // refund last bidder\n    lastBidder.transfer(lastBid);\n\n    Auction memory lastAuction = getAuction(auctionId - 1);\n    if(!lastAuction.closed) {\n      closeAuction(auctionId - 1);\n    }\n  }\n\n  // closeAuction isn't needed, but we need to transfer funds to the treasury\n  function closeAuction(uint _tokenId) private {\n    Auction memory auction = auctions[_tokenId];\n    // close the auction\n    auctions[_tokenId].closed = true;\n    // move funds to the treasury\n    treasuryAddress.transfer(auction.endPrice);\n  }\n\n  // Admin functions\n  function setTreasuryAddress(address payable _treasuryAddress) public onlyOwner {\n    treasuryAddress = _treasuryAddress;\n  }\n\n  // run to create auctions in bulk for the next _amount days\n  function createAuctions(uint _amount) public onlyOwner {\n    uint finalCreatedAuctions = createdAuctions + _amount;\n    for (uint i = createdAuctions; i < finalCreatedAuctions; i++) {\n      createNextAuction();\n    }\n  }\n\n  function createNextAuction() private {\n    Auction memory lastAuction = auctions[createdAuctions - 1];\n    auctions[createdAuctions] = Auction({\n      endPrice: 0,\n      startTime: lastAuction.endTime + 1, // 1 second after the last auction ends\n      endTime: lastAuction.endTime + 1 days, // 1 day after the last auction ends\n      // active: false,\n      closed: false\n    });\n    createdAuctions++;\n  }\n\n  // daysSinceStart() same as currentAuctionId()\n  function daysSinceStart() public view returns (uint) {\n    return (block.timestamp - startTimeOfFirstAuction) / 1 days;\n  }\n}\n",
  "sourcePath": "/Users/bruno/dev/crypto/stacks/contracts/StacksAuctionHouse.sol",
  "compiler": {
    "name": "solc",
    "version": "0.8.17+commit.8df45f5f.Emscripten.clang"
  },
  "schemaVersion": "3.4.10",
  "updatedAt": "2023-02-16T15:25:02.039Z",
  "networkType": "ethereum",
  "devdoc": {
    "kind": "dev",
    "methods": {
      "owner()": {
        "details": "Returns the address of the current owner."
      },
      "renounceOwnership()": {
        "details": "Leaves the contract without owner. It will not be possible to call `onlyOwner` functions anymore. Can only be called by the current owner. NOTE: Renouncing ownership will leave the contract without an owner, thereby removing any functionality that is only available to the owner."
      },
      "transferOwnership(address)": {
        "details": "Transfers ownership of the contract to a new account (`newOwner`). Can only be called by the current owner."
      }
    },
    "version": 1
  },
  "userdoc": {
    "kind": "user",
    "methods": {},
    "version": 1
  }
}