{
  "contractName": "Stacks",
  "abi": [
    {
      "inputs": [],
      "stateMutability": "nonpayable",
      "type": "constructor"
    },
    {
      "anonymous": false,
      "inputs": [
        {
          "indexed": true,
          "internalType": "address",
          "name": "owner",
          "type": "address"
        },
        {
          "indexed": true,
          "internalType": "address",
          "name": "approved",
          "type": "address"
        },
        {
          "indexed": true,
          "internalType": "uint256",
          "name": "tokenId",
          "type": "uint256"
        }
      ],
      "name": "Approval",
      "type": "event"
    },
    {
      "anonymous": false,
      "inputs": [
        {
          "indexed": true,
          "internalType": "address",
          "name": "owner",
          "type": "address"
        },
        {
          "indexed": true,
          "internalType": "address",
          "name": "operator",
          "type": "address"
        },
        {
          "indexed": false,
          "internalType": "bool",
          "name": "approved",
          "type": "bool"
        }
      ],
      "name": "ApprovalForAll",
      "type": "event"
    },
    {
      "anonymous": false,
      "inputs": [
        {
          "indexed": true,
          "internalType": "address",
          "name": "previousOwner",
          "type": "address"
        },
        {
          "indexed": true,
          "internalType": "address",
          "name": "newOwner",
          "type": "address"
        }
      ],
      "name": "OwnershipTransferred",
      "type": "event"
    },
    {
      "anonymous": false,
      "inputs": [
        {
          "indexed": true,
          "internalType": "address",
          "name": "from",
          "type": "address"
        },
        {
          "indexed": true,
          "internalType": "address",
          "name": "to",
          "type": "address"
        },
        {
          "indexed": true,
          "internalType": "uint256",
          "name": "tokenId",
          "type": "uint256"
        }
      ],
      "name": "Transfer",
      "type": "event"
    },
    {
      "inputs": [],
      "name": "PERCENT_DIVIDER",
      "outputs": [
        {
          "internalType": "uint256",
          "name": "",
          "type": "uint256"
        }
      ],
      "stateMutability": "view",
      "type": "function"
    },
    {
      "inputs": [],
      "name": "SALE_FEE",
      "outputs": [
        {
          "internalType": "uint256",
          "name": "",
          "type": "uint256"
        }
      ],
      "stateMutability": "view",
      "type": "function"
    },
    {
      "inputs": [
        {
          "internalType": "address",
          "name": "to",
          "type": "address"
        },
        {
          "internalType": "uint256",
          "name": "tokenId",
          "type": "uint256"
        }
      ],
      "name": "approve",
      "outputs": [],
      "stateMutability": "nonpayable",
      "type": "function"
    },
    {
      "inputs": [],
      "name": "auctionHouse",
      "outputs": [
        {
          "internalType": "address",
          "name": "",
          "type": "address"
        }
      ],
      "stateMutability": "view",
      "type": "function"
    },
    {
      "inputs": [
        {
          "internalType": "address",
          "name": "owner",
          "type": "address"
        }
      ],
      "name": "balanceOf",
      "outputs": [
        {
          "internalType": "uint256",
          "name": "",
          "type": "uint256"
        }
      ],
      "stateMutability": "view",
      "type": "function"
    },
    {
      "inputs": [
        {
          "internalType": "uint256",
          "name": "tokenId",
          "type": "uint256"
        }
      ],
      "name": "getApproved",
      "outputs": [
        {
          "internalType": "address",
          "name": "",
          "type": "address"
        }
      ],
      "stateMutability": "view",
      "type": "function"
    },
    {
      "inputs": [
        {
          "internalType": "address",
          "name": "owner",
          "type": "address"
        },
        {
          "internalType": "address",
          "name": "operator",
          "type": "address"
        }
      ],
      "name": "isApprovedForAll",
      "outputs": [
        {
          "internalType": "bool",
          "name": "",
          "type": "bool"
        }
      ],
      "stateMutability": "view",
      "type": "function"
    },
    {
      "inputs": [],
      "name": "maxSupply",
      "outputs": [
        {
          "internalType": "uint256",
          "name": "",
          "type": "uint256"
        }
      ],
      "stateMutability": "view",
      "type": "function"
    },
    {
      "inputs": [],
      "name": "mintOpen",
      "outputs": [
        {
          "internalType": "bool",
          "name": "",
          "type": "bool"
        }
      ],
      "stateMutability": "view",
      "type": "function"
    },
    {
      "inputs": [],
      "name": "name",
      "outputs": [
        {
          "internalType": "string",
          "name": "",
          "type": "string"
        }
      ],
      "stateMutability": "view",
      "type": "function"
    },
    {
      "inputs": [],
      "name": "owner",
      "outputs": [
        {
          "internalType": "address",
          "name": "",
          "type": "address"
        }
      ],
      "stateMutability": "view",
      "type": "function"
    },
    {
      "inputs": [
        {
          "internalType": "uint256",
          "name": "tokenId",
          "type": "uint256"
        }
      ],
      "name": "ownerOf",
      "outputs": [
        {
          "internalType": "address",
          "name": "",
          "type": "address"
        }
      ],
      "stateMutability": "view",
      "type": "function"
    },
    {
      "inputs": [],
      "name": "renounceOwnership",
      "outputs": [],
      "stateMutability": "nonpayable",
      "type": "function"
    },
    {
      "inputs": [
        {
          "internalType": "address",
          "name": "from",
          "type": "address"
        },
        {
          "internalType": "address",
          "name": "to",
          "type": "address"
        },
        {
          "internalType": "uint256",
          "name": "tokenId",
          "type": "uint256"
        }
      ],
      "name": "safeTransferFrom",
      "outputs": [],
      "stateMutability": "nonpayable",
      "type": "function"
    },
    {
      "inputs": [
        {
          "internalType": "address",
          "name": "from",
          "type": "address"
        },
        {
          "internalType": "address",
          "name": "to",
          "type": "address"
        },
        {
          "internalType": "uint256",
          "name": "tokenId",
          "type": "uint256"
        },
        {
          "internalType": "bytes",
          "name": "data",
          "type": "bytes"
        }
      ],
      "name": "safeTransferFrom",
      "outputs": [],
      "stateMutability": "nonpayable",
      "type": "function"
    },
    {
      "inputs": [
        {
          "internalType": "address",
          "name": "operator",
          "type": "address"
        },
        {
          "internalType": "bool",
          "name": "approved",
          "type": "bool"
        }
      ],
      "name": "setApprovalForAll",
      "outputs": [],
      "stateMutability": "nonpayable",
      "type": "function"
    },
    {
      "inputs": [],
      "name": "softCap",
      "outputs": [
        {
          "internalType": "uint256",
          "name": "",
          "type": "uint256"
        }
      ],
      "stateMutability": "view",
      "type": "function"
    },
    {
      "inputs": [],
      "name": "symbol",
      "outputs": [
        {
          "internalType": "string",
          "name": "",
          "type": "string"
        }
      ],
      "stateMutability": "view",
      "type": "function"
    },
    {
      "inputs": [],
      "name": "teamMinted",
      "outputs": [
        {
          "internalType": "uint256",
          "name": "",
          "type": "uint256"
        }
      ],
      "stateMutability": "view",
      "type": "function"
    },
    {
      "inputs": [
        {
          "internalType": "uint256",
          "name": "",
          "type": "uint256"
        }
      ],
      "name": "tokenMetaDataRecord",
      "outputs": [
        {
          "internalType": "bool",
          "name": "minted",
          "type": "bool"
        },
        {
          "internalType": "uint256",
          "name": "timestamp",
          "type": "uint256"
        }
      ],
      "stateMutability": "view",
      "type": "function"
    },
    {
      "inputs": [
        {
          "internalType": "uint256",
          "name": "",
          "type": "uint256"
        }
      ],
      "name": "tokenMinter",
      "outputs": [
        {
          "internalType": "address",
          "name": "",
          "type": "address"
        }
      ],
      "stateMutability": "view",
      "type": "function"
    },
    {
      "inputs": [
        {
          "internalType": "address",
          "name": "from",
          "type": "address"
        },
        {
          "internalType": "address",
          "name": "to",
          "type": "address"
        },
        {
          "internalType": "uint256",
          "name": "tokenId",
          "type": "uint256"
        }
      ],
      "name": "transferFrom",
      "outputs": [],
      "stateMutability": "nonpayable",
      "type": "function"
    },
    {
      "inputs": [
        {
          "internalType": "address",
          "name": "newOwner",
          "type": "address"
        }
      ],
      "name": "transferOwnership",
      "outputs": [],
      "stateMutability": "nonpayable",
      "type": "function"
    },
    {
      "inputs": [
        {
          "internalType": "uint256",
          "name": "_tokenId",
          "type": "uint256"
        }
      ],
      "name": "mint",
      "outputs": [],
      "stateMutability": "nonpayable",
      "type": "function"
    },
    {
      "inputs": [
        {
          "internalType": "address",
          "name": "_auctionHouse",
          "type": "address"
        }
      ],
      "name": "setAuctionHouse",
      "outputs": [],
      "stateMutability": "nonpayable",
      "type": "function"
    },
    {
      "inputs": [
        {
          "internalType": "bool",
          "name": "_open",
          "type": "bool"
        }
      ],
      "name": "toggleMint",
      "outputs": [],
      "stateMutability": "nonpayable",
      "type": "function"
    },
    {
      "inputs": [
        {
          "internalType": "address",
          "name": "_teamMember",
          "type": "address"
        }
      ],
      "name": "teamMint",
      "outputs": [],
      "stateMutability": "nonpayable",
      "type": "function"
    },
    {
      "inputs": [
        {
          "internalType": "uint256",
          "name": "_SALE_FEE",
          "type": "uint256"
        }
      ],
      "name": "setRegularFee",
      "outputs": [],
      "stateMutability": "nonpayable",
      "type": "function"
    },
    {
      "inputs": [
        {
          "internalType": "bytes4",
          "name": "_interfaceId",
          "type": "bytes4"
        }
      ],
      "name": "supportsInterface",
      "outputs": [
        {
          "internalType": "bool",
          "name": "",
          "type": "bool"
        }
      ],
      "stateMutability": "view",
      "type": "function"
    },
    {
      "inputs": [
        {
          "internalType": "uint256",
          "name": "",
          "type": "uint256"
        },
        {
          "internalType": "uint256",
          "name": "_salePrice",
          "type": "uint256"
        }
      ],
      "name": "royaltyInfo",
      "outputs": [
        {
          "internalType": "address",
          "name": "receiver",
          "type": "address"
        },
        {
          "internalType": "uint256",
          "name": "royaltyAmount",
          "type": "uint256"
        }
      ],
      "stateMutability": "view",
      "type": "function"
    },
    {
      "inputs": [
        {
          "internalType": "uint256",
          "name": "_tokenId",
          "type": "uint256"
        }
      ],
      "name": "tokenURI",
      "outputs": [
        {
          "internalType": "string",
          "name": "",
          "type": "string"
        }
      ],
      "stateMutability": "view",
      "type": "function"
    }
  ],
  "bytecode": "0x60806040526103e8600955611388600d55610fa9600e556000600f553480156200002857600080fd5b506040518060400160405280601181526020017f537461636b7320416c70686120436172640000000000000000000000000000008152506040518060400160405280600681526020017f535441434b5300000000000000000000000000000000000000000000000000008152508160009081620000a6919062000429565b508060019081620000b8919062000429565b505050620000db620000cf620000e160201b60201c565b620000e960201b60201c565b62000510565b600033905090565b6000600860009054906101000a900473ffffffffffffffffffffffffffffffffffffffff16905081600860006101000a81548173ffffffffffffffffffffffffffffffffffffffff021916908373ffffffffffffffffffffffffffffffffffffffff1602179055508173ffffffffffffffffffffffffffffffffffffffff168173ffffffffffffffffffffffffffffffffffffffff167f8be0079c531659141344cd1fd0a4f28419497f9722a3daafe3b4186f6b6457e060405160405180910390a35050565b600081519050919050565b7f4e487b7100000000000000000000000000000000000000000000000000000000600052604160045260246000fd5b7f4e487b7100000000000000000000000000000000000000000000000000000000600052602260045260246000fd5b600060028204905060018216806200023157607f821691505b602082108103620002475762000246620001e9565b5b50919050565b60008190508160005260206000209050919050565b60006020601f8301049050919050565b600082821b905092915050565b600060088302620002b17fffffffffffffffffffffffffffffffffffffffffffffffffffffffffffffffff8262000272565b620002bd868362000272565b95508019841693508086168417925050509392505050565b6000819050919050565b6000819050919050565b60006200030a62000304620002fe84620002d5565b620002df565b620002d5565b9050919050565b6000819050919050565b6200032683620002e9565b6200033e620003358262000311565b8484546200027f565b825550505050565b600090565b6200035562000346565b620003628184846200031b565b505050565b5b818110156200038a576200037e6000826200034b565b60018101905062000368565b5050565b601f821115620003d957620003a3816200024d565b620003ae8462000262565b81016020851015620003be578190505b620003d6620003cd8562000262565b83018262000367565b50505b505050565b600082821c905092915050565b6000620003fe60001984600802620003de565b1980831691505092915050565b6000620004198383620003eb565b9150826002028217905092915050565b6200043482620001af565b67ffffffffffffffff81111562000450576200044f620001ba565b5b6200045c825462000218565b620004698282856200038e565b600060209050601f831160018114620004a157600084156200048c578287015190505b6200049885826200040b565b86555062000508565b601f198416620004b1866200024d565b60005b82811015620004db57848901518255600182019150602085019450602081019050620004b4565b86831015620004fb5784890151620004f7601f891682620003eb565b8355505b6001600288020188555050505b505050505050565b6136bb80620005206000396000f3fe608060405234801561001057600080fd5b50600436106101e55760003560e01c80638a4dcd851161010f578063bdce6c44116100a2578063e8b5498d11610071578063e8b5498d1461057e578063e985e9c51461059c578063ed9152c8146105cc578063f2fde38b146105ea576101e5565b8063bdce6c44146104e3578063c87b56dd14610514578063d5abeb0114610544578063e76d895214610562576101e5565b8063a0712d68116100de578063a0712d6814610473578063a22cb4651461048f578063b6a1dba1146104ab578063b88d4fde146104c7576101e5565b80638a4dcd85146103fd5780638da5cb5b14610419578063906a26e01461043757806395d89b4114610455576101e5565b806329fc7bd81161018757806370a082311161015657806370a0823114610375578063715018a6146103a5578063729eaa66146103af5780637c57d947146103cd576101e5565b806329fc7bd8146102da5780632a55205a146102f857806342842e0e146103295780636352211e14610345576101e5565b8063095ea7b3116101c3578063095ea7b31461026857806323b872dd1461028457806324bbd049146102a057806329c4ba09146102be576101e5565b806301ffc9a7146101ea57806306fdde031461021a578063081812fc14610238575b600080fd5b61020460048036038101906101ff9190612281565b610606565b60405161021191906122c9565b60405180910390f35b61022261066e565b60405161022f9190612374565b60405180910390f35b610252600480360381019061024d91906123cc565b610700565b60405161025f919061243a565b60405180910390f35b610282600480360381019061027d9190612481565b610746565b005b61029e600480360381019061029991906124c1565b61085d565b005b6102a86108bd565b6040516102b591906122c9565b60405180910390f35b6102d860048036038101906102d391906123cc565b6108d0565b005b6102e2610927565b6040516102ef9190612523565b60405180910390f35b610312600480360381019061030d919061253e565b61092d565b60405161032092919061257e565b60405180910390f35b610343600480360381019061033e91906124c1565b61095e565b005b61035f600480360381019061035a91906123cc565b61097e565b60405161036c919061243a565b60405180910390f35b61038f600480360381019061038a91906125a7565b610a04565b60405161039c9190612523565b60405180910390f35b6103ad610abb565b005b6103b7610acf565b6040516103c49190612523565b60405180910390f35b6103e760048036038101906103e291906123cc565b610ad5565b6040516103f4919061243a565b60405180910390f35b61041760048036038101906104129190612600565b610b08565b005b610421610b2d565b60405161042e919061243a565b60405180910390f35b61043f610b57565b60405161044c9190612523565b60405180910390f35b61045d610b5d565b60405161046a9190612374565b60405180910390f35b61048d600480360381019061048891906123cc565b610bef565b005b6104a960048036038101906104a4919061262d565b610ded565b005b6104c560048036038101906104c091906125a7565b610e03565b005b6104e160048036038101906104dc91906127a2565b610fe8565b005b6104fd60048036038101906104f891906123cc565b61104a565b60405161050b929190612825565b60405180910390f35b61052e600480360381019061052991906123cc565b61107b565b60405161053b9190612374565b60405180910390f35b61054c6110b4565b6040516105599190612523565b60405180910390f35b61057c600480360381019061057791906125a7565b6110ba565b005b610586611106565b6040516105939190612523565b60405180910390f35b6105b660048036038101906105b1919061284e565b61110c565b6040516105c391906122c9565b60405180910390f35b6105d46111a0565b6040516105e1919061243a565b60405180910390f35b61060460048036038101906105ff91906125a7565b6111c6565b005b6000632a55205a60e01b7bffffffffffffffffffffffffffffffffffffffffffffffffffffffff1916827bffffffffffffffffffffffffffffffffffffffffffffffffffffffff19160361065d5760019050610669565b61066682611249565b90505b919050565b60606000805461067d906128bd565b80601f01602080910402602001604051908101604052809291908181526020018280546106a9906128bd565b80156106f65780601f106106cb576101008083540402835291602001916106f6565b820191906000526020600020905b8154815290600101906020018083116106d957829003601f168201915b5050505050905090565b600061070b826112c3565b6004600083815260200190815260200160002060009054906101000a900473ffffffffffffffffffffffffffffffffffffffff169050919050565b60006107518261097e565b90508073ffffffffffffffffffffffffffffffffffffffff168373ffffffffffffffffffffffffffffffffffffffff16036107c1576040517f08c379a00000000000000000000000000000000000000000000000000000000081526004016107b890612960565b60405180910390fd5b8073ffffffffffffffffffffffffffffffffffffffff166107e061130e565b73ffffffffffffffffffffffffffffffffffffffff16148061080f575061080e8161080961130e565b61110c565b5b61084e576040517f08c379a0000000000000000000000000000000000000000000000000000000008152600401610845906129f2565b60405180910390fd5b6108588383611316565b505050565b61086e61086861130e565b826113cf565b6108ad576040517f08c379a00000000000000000000000000000000000000000000000000000000081526004016108a490612a84565b60405180910390fd5b6108b8838383611464565b505050565b600c60149054906101000a900460ff1681565b6108d861175d565b610ce481111561091d576040517f08c379a000000000000000000000000000000000000000000000000000000000815260040161091490612af0565b60405180910390fd5b8060098190555050565b61271081565b600080610938610b2d565b612710600954856109499190612b3f565b6109539190612bb0565b915091509250929050565b61097983838360405180602001604052806000815250610fe8565b505050565b60008061098a836117db565b9050600073ffffffffffffffffffffffffffffffffffffffff168173ffffffffffffffffffffffffffffffffffffffff16036109fb576040517f08c379a00000000000000000000000000000000000000000000000000000000081526004016109f290612c2d565b60405180910390fd5b80915050919050565b60008073ffffffffffffffffffffffffffffffffffffffff168273ffffffffffffffffffffffffffffffffffffffff1603610a74576040517f08c379a0000000000000000000000000000000000000000000000000000000008152600401610a6b90612cbf565b60405180910390fd5b600360008373ffffffffffffffffffffffffffffffffffffffff1673ffffffffffffffffffffffffffffffffffffffff168152602001908152602001600020549050919050565b610ac361175d565b610acd6000611818565b565b60095481565b600a6020528060005260406000206000915054906101000a900473ffffffffffffffffffffffffffffffffffffffff1681565b610b1061175d565b80600c60146101000a81548160ff02191690831515021790555050565b6000600860009054906101000a900473ffffffffffffffffffffffffffffffffffffffff16905090565b600e5481565b606060018054610b6c906128bd565b80601f0160208091040260200160405190810160405280929190818152602001828054610b98906128bd565b8015610be55780601f10610bba57610100808354040283529160200191610be5565b820191906000526020600020905b815481529060010190602001808311610bc857829003601f168201915b5050505050905090565b600c60149054906101000a900460ff16610c3e576040517f08c379a0000000000000000000000000000000000000000000000000000000008152600401610c3590612d2b565b60405180910390fd5b600d54811115610c83576040517f08c379a0000000000000000000000000000000000000000000000000000000008152600401610c7a90612d97565b60405180910390fd5b3373ffffffffffffffffffffffffffffffffffffffff16600a600083815260200190815260200160002060009054906101000a900473ffffffffffffffffffffffffffffffffffffffff1673ffffffffffffffffffffffffffffffffffffffff1614610d24576040517f08c379a0000000000000000000000000000000000000000000000000000000008152600401610d1b90612e29565b60405180910390fd5b600b600082815260200190815260200160002060000160009054906101000a900460ff1615610d88576040517f08c379a0000000000000000000000000000000000000000000000000000000008152600401610d7f90612e95565b60405180910390fd5b610d9233826118de565b604051806040016040528060011515815260200142815250600b600083815260200190815260200160002060008201518160000160006101000a81548160ff0219169083151502179055506020820151816001015590505050565b610dff610df861130e565b83836118fc565b5050565b610e0b61175d565b60006001600f54600e54610e1f9190612eb5565b610e299190612eb5565b9050600d54811115610e70576040517f08c379a0000000000000000000000000000000000000000000000000000000008152600401610e6790612d97565b60405180910390fd5b6110d68110610ec057636592007f4211610ebf576040517f08c379a0000000000000000000000000000000000000000000000000000000008152600401610eb690612f5b565b60405180910390fd5b5b6112028110610f1057636774857f4211610f0f576040517f08c379a0000000000000000000000000000000000000000000000000000000008152600401610f0690612fed565b60405180910390fd5b5b61132e8110610f6057636955b8ff4211610f5f576040517f08c379a0000000000000000000000000000000000000000000000000000000008152600401610f569061307f565b60405180910390fd5b5b610f6a8183611a68565b604051806040016040528060011515815260200142815250600b600083815260200190815260200160002060008201518160000160006101000a81548160ff02191690831515021790555060208201518160010155905050610fcc33826118de565b600f6000815480929190610fdf9061309f565b91905055505050565b610ff9610ff361130e565b836113cf565b611038576040517f08c379a000000000000000000000000000000000000000000000000000000000815260040161102f90612a84565b60405180910390fd5b61104484848484611abe565b50505050565b600b6020528060005260406000206000915090508060000160009054906101000a900460ff16908060010154905082565b6060611086826112c3565b61108e611b1a565b60405160200161109e9190613123565b6040516020818303038152906040529050919050565b600d5481565b6110c261175d565b80600c60006101000a81548173ffffffffffffffffffffffffffffffffffffffff021916908373ffffffffffffffffffffffffffffffffffffffff16021790555050565b600f5481565b6000600560008473ffffffffffffffffffffffffffffffffffffffff1673ffffffffffffffffffffffffffffffffffffffff16815260200190815260200160002060008373ffffffffffffffffffffffffffffffffffffffff1673ffffffffffffffffffffffffffffffffffffffff16815260200190815260200160002060009054906101000a900460ff16905092915050565b600c60009054906101000a900473ffffffffffffffffffffffffffffffffffffffff1681565b6111ce61175d565b600073ffffffffffffffffffffffffffffffffffffffff168173ffffffffffffffffffffffffffffffffffffffff160361123d576040517f08c379a0000000000000000000000000000000000000000000000000000000008152600401611234906131ac565b60405180910390fd5b61124681611818565b50565b60007f2a55205a000000000000000000000000000000000000000000000000000000007bffffffffffffffffffffffffffffffffffffffffffffffffffffffff1916827bffffffffffffffffffffffffffffffffffffffffffffffffffffffff191614806112bc57506112bb82611b3a565b5b9050919050565b6112cc81611c1c565b61130b576040517f08c379a000000000000000000000000000000000000000000000000000000000815260040161130290612c2d565b60405180910390fd5b50565b600033905090565b816004600083815260200190815260200160002060006101000a81548173ffffffffffffffffffffffffffffffffffffffff021916908373ffffffffffffffffffffffffffffffffffffffff160217905550808273ffffffffffffffffffffffffffffffffffffffff166113898361097e565b73ffffffffffffffffffffffffffffffffffffffff167f8c5be1e5ebec7d5bd14f71427d1e84f3dd0314c0f7b2291e5b200ac8c7c3b92560405160405180910390a45050565b6000806113db8361097e565b90508073ffffffffffffffffffffffffffffffffffffffff168473ffffffffffffffffffffffffffffffffffffffff16148061141d575061141c818561110c565b5b8061145b57508373ffffffffffffffffffffffffffffffffffffffff1661144384610700565b73ffffffffffffffffffffffffffffffffffffffff16145b91505092915050565b8273ffffffffffffffffffffffffffffffffffffffff166114848261097e565b73ffffffffffffffffffffffffffffffffffffffff16146114da576040517f08c379a00000000000000000000000000000000000000000000000000000000081526004016114d19061323e565b60405180910390fd5b600073ffffffffffffffffffffffffffffffffffffffff168273ffffffffffffffffffffffffffffffffffffffff1603611549576040517f08c379a0000000000000000000000000000000000000000000000000000000008152600401611540906132d0565b60405180910390fd5b6115568383836001611c5d565b8273ffffffffffffffffffffffffffffffffffffffff166115768261097e565b73ffffffffffffffffffffffffffffffffffffffff16146115cc576040517f08c379a00000000000000000000000000000000000000000000000000000000081526004016115c39061323e565b60405180910390fd5b6004600082815260200190815260200160002060006101000a81549073ffffffffffffffffffffffffffffffffffffffff02191690556001600360008573ffffffffffffffffffffffffffffffffffffffff1673ffffffffffffffffffffffffffffffffffffffff168152602001908152602001600020600082825403925050819055506001600360008473ffffffffffffffffffffffffffffffffffffffff1673ffffffffffffffffffffffffffffffffffffffff16815260200190815260200160002060008282540192505081905550816002600083815260200190815260200160002060006101000a81548173ffffffffffffffffffffffffffffffffffffffff021916908373ffffffffffffffffffffffffffffffffffffffff160217905550808273ffffffffffffffffffffffffffffffffffffffff168473ffffffffffffffffffffffffffffffffffffffff167fddf252ad1be2c89b69c2b068fc378daa952ba7f163c4a11628f55a4df523b3ef60405160405180910390a46117588383836001611d83565b505050565b61176561130e565b73ffffffffffffffffffffffffffffffffffffffff16611783610b2d565b73ffffffffffffffffffffffffffffffffffffffff16146117d9576040517f08c379a00000000000000000000000000000000000000000000000000000000081526004016117d09061333c565b60405180910390fd5b565b60006002600083815260200190815260200160002060009054906101000a900473ffffffffffffffffffffffffffffffffffffffff169050919050565b6000600860009054906101000a900473ffffffffffffffffffffffffffffffffffffffff16905081600860006101000a81548173ffffffffffffffffffffffffffffffffffffffff021916908373ffffffffffffffffffffffffffffffffffffffff1602179055508173ffffffffffffffffffffffffffffffffffffffff168173ffffffffffffffffffffffffffffffffffffffff167f8be0079c531659141344cd1fd0a4f28419497f9722a3daafe3b4186f6b6457e060405160405180910390a35050565b6118f8828260405180602001604052806000815250611d89565b5050565b8173ffffffffffffffffffffffffffffffffffffffff168373ffffffffffffffffffffffffffffffffffffffff160361196a576040517f08c379a0000000000000000000000000000000000000000000000000000000008152600401611961906133a8565b60405180910390fd5b80600560008573ffffffffffffffffffffffffffffffffffffffff1673ffffffffffffffffffffffffffffffffffffffff16815260200190815260200160002060008473ffffffffffffffffffffffffffffffffffffffff1673ffffffffffffffffffffffffffffffffffffffff16815260200190815260200160002060006101000a81548160ff0219169083151502179055508173ffffffffffffffffffffffffffffffffffffffff168373ffffffffffffffffffffffffffffffffffffffff167f17307eab39ab6107e8899845ad3d59bd9653f200f220920489ca2b5937696c3183604051611a5b91906122c9565b60405180910390a3505050565b80600a600084815260200190815260200160002060006101000a81548173ffffffffffffffffffffffffffffffffffffffff021916908373ffffffffffffffffffffffffffffffffffffffff1602179055505050565b611ac9848484611464565b611ad584848484611de4565b611b14576040517f08c379a0000000000000000000000000000000000000000000000000000000008152600401611b0b9061343a565b60405180910390fd5b50505050565b60606040518060600160405280603c815260200161364a603c9139905090565b60007f80ac58cd000000000000000000000000000000000000000000000000000000007bffffffffffffffffffffffffffffffffffffffffffffffffffffffff1916827bffffffffffffffffffffffffffffffffffffffffffffffffffffffff19161480611c0557507f5b5e139f000000000000000000000000000000000000000000000000000000007bffffffffffffffffffffffffffffffffffffffffffffffffffffffff1916827bffffffffffffffffffffffffffffffffffffffffffffffffffffffff1916145b80611c155750611c1482611f6b565b5b9050919050565b60008073ffffffffffffffffffffffffffffffffffffffff16611c3e836117db565b73ffffffffffffffffffffffffffffffffffffffff1614159050919050565b6001811115611d7d57600073ffffffffffffffffffffffffffffffffffffffff168473ffffffffffffffffffffffffffffffffffffffff1614611cf15780600360008673ffffffffffffffffffffffffffffffffffffffff1673ffffffffffffffffffffffffffffffffffffffff1681526020019081526020016000206000828254611ce9919061345a565b925050819055505b600073ffffffffffffffffffffffffffffffffffffffff168373ffffffffffffffffffffffffffffffffffffffff1614611d7c5780600360008573ffffffffffffffffffffffffffffffffffffffff1673ffffffffffffffffffffffffffffffffffffffff1681526020019081526020016000206000828254611d749190612eb5565b925050819055505b5b50505050565b50505050565b611d938383611fd5565b611da06000848484611de4565b611ddf576040517f08c379a0000000000000000000000000000000000000000000000000000000008152600401611dd69061343a565b60405180910390fd5b505050565b6000611e058473ffffffffffffffffffffffffffffffffffffffff166121f2565b15611f5e578373ffffffffffffffffffffffffffffffffffffffff1663150b7a02611e2e61130e565b8786866040518563ffffffff1660e01b8152600401611e5094939291906134e3565b6020604051808303816000875af1925050508015611e8c57506040513d601f19601f82011682018060405250810190611e899190613544565b60015b611f0e573d8060008114611ebc576040519150601f19603f3d011682016040523d82523d6000602084013e611ec1565b606091505b506000815103611f06576040517f08c379a0000000000000000000000000000000000000000000000000000000008152600401611efd9061343a565b60405180910390fd5b805181602001fd5b63150b7a0260e01b7bffffffffffffffffffffffffffffffffffffffffffffffffffffffff1916817bffffffffffffffffffffffffffffffffffffffffffffffffffffffff191614915050611f63565b600190505b949350505050565b60007f01ffc9a7000000000000000000000000000000000000000000000000000000007bffffffffffffffffffffffffffffffffffffffffffffffffffffffff1916827bffffffffffffffffffffffffffffffffffffffffffffffffffffffff1916149050919050565b600073ffffffffffffffffffffffffffffffffffffffff168273ffffffffffffffffffffffffffffffffffffffff1603612044576040517f08c379a000000000000000000000000000000000000000000000000000000000815260040161203b906135bd565b60405180910390fd5b61204d81611c1c565b1561208d576040517f08c379a000000000000000000000000000000000000000000000000000000000815260040161208490613629565b60405180910390fd5b61209b600083836001611c5d565b6120a481611c1c565b156120e4576040517f08c379a00000000000000000000000000000000000000000000000000000000081526004016120db90613629565b60405180910390fd5b6001600360008473ffffffffffffffffffffffffffffffffffffffff1673ffffffffffffffffffffffffffffffffffffffff16815260200190815260200160002060008282540192505081905550816002600083815260200190815260200160002060006101000a81548173ffffffffffffffffffffffffffffffffffffffff021916908373ffffffffffffffffffffffffffffffffffffffff160217905550808273ffffffffffffffffffffffffffffffffffffffff16600073ffffffffffffffffffffffffffffffffffffffff167fddf252ad1be2c89b69c2b068fc378daa952ba7f163c4a11628f55a4df523b3ef60405160405180910390a46121ee600083836001611d83565b5050565b6000808273ffffffffffffffffffffffffffffffffffffffff163b119050919050565b6000604051905090565b600080fd5b600080fd5b60007fffffffff0000000000000000000000000000000000000000000000000000000082169050919050565b61225e81612229565b811461226957600080fd5b50565b60008135905061227b81612255565b92915050565b6000602082840312156122975761229661221f565b5b60006122a58482850161226c565b91505092915050565b60008115159050919050565b6122c3816122ae565b82525050565b60006020820190506122de60008301846122ba565b92915050565b600081519050919050565b600082825260208201905092915050565b60005b8381101561231e578082015181840152602081019050612303565b60008484015250505050565b6000601f19601f8301169050919050565b6000612346826122e4565b61235081856122ef565b9350612360818560208601612300565b6123698161232a565b840191505092915050565b6000602082019050818103600083015261238e818461233b565b905092915050565b6000819050919050565b6123a981612396565b81146123b457600080fd5b50565b6000813590506123c6816123a0565b92915050565b6000602082840312156123e2576123e161221f565b5b60006123f0848285016123b7565b91505092915050565b600073ffffffffffffffffffffffffffffffffffffffff82169050919050565b6000612424826123f9565b9050919050565b61243481612419565b82525050565b600060208201905061244f600083018461242b565b92915050565b61245e81612419565b811461246957600080fd5b50565b60008135905061247b81612455565b92915050565b600080604083850312156124985761249761221f565b5b60006124a68582860161246c565b92505060206124b7858286016123b7565b9150509250929050565b6000806000606084860312156124da576124d961221f565b5b60006124e88682870161246c565b93505060206124f98682870161246c565b925050604061250a868287016123b7565b9150509250925092565b61251d81612396565b82525050565b60006020820190506125386000830184612514565b92915050565b600080604083850312156125555761255461221f565b5b6000612563858286016123b7565b9250506020612574858286016123b7565b9150509250929050565b6000604082019050612593600083018561242b565b6125a06020830184612514565b9392505050565b6000602082840312156125bd576125bc61221f565b5b60006125cb8482850161246c565b91505092915050565b6125dd816122ae565b81146125e857600080fd5b50565b6000813590506125fa816125d4565b92915050565b6000602082840312156126165761261561221f565b5b6000612624848285016125eb565b91505092915050565b600080604083850312156126445761264361221f565b5b60006126528582860161246c565b9250506020612663858286016125eb565b9150509250929050565b600080fd5b600080fd5b7f4e487b7100000000000000000000000000000000000000000000000000000000600052604160045260246000fd5b6126af8261232a565b810181811067ffffffffffffffff821117156126ce576126cd612677565b5b80604052505050565b60006126e1612215565b90506126ed82826126a6565b919050565b600067ffffffffffffffff82111561270d5761270c612677565b5b6127168261232a565b9050602081019050919050565b82818337600083830152505050565b6000612745612740846126f2565b6126d7565b90508281526020810184848401111561276157612760612672565b5b61276c848285612723565b509392505050565b600082601f8301126127895761278861266d565b5b8135612799848260208601612732565b91505092915050565b600080600080608085870312156127bc576127bb61221f565b5b60006127ca8782880161246c565b94505060206127db8782880161246c565b93505060406127ec878288016123b7565b925050606085013567ffffffffffffffff81111561280d5761280c612224565b5b61281987828801612774565b91505092959194509250565b600060408201905061283a60008301856122ba565b6128476020830184612514565b9392505050565b600080604083850312156128655761286461221f565b5b60006128738582860161246c565b92505060206128848582860161246c565b9150509250929050565b7f4e487b7100000000000000000000000000000000000000000000000000000000600052602260045260246000fd5b600060028204905060018216806128d557607f821691505b6020821081036128e8576128e761288e565b5b50919050565b7f4552433732313a20617070726f76616c20746f2063757272656e74206f776e6560008201527f7200000000000000000000000000000000000000000000000000000000000000602082015250565b600061294a6021836122ef565b9150612955826128ee565b604082019050919050565b600060208201905081810360008301526129798161293d565b9050919050565b7f4552433732313a20617070726f76652063616c6c6572206973206e6f7420746f60008201527f6b656e206f776e6572206f7220617070726f76656420666f7220616c6c000000602082015250565b60006129dc603d836122ef565b91506129e782612980565b604082019050919050565b60006020820190508181036000830152612a0b816129cf565b9050919050565b7f4552433732313a2063616c6c6572206973206e6f7420746f6b656e206f776e6560008201527f72206f7220617070726f76656400000000000000000000000000000000000000602082015250565b6000612a6e602d836122ef565b9150612a7982612a12565b604082019050919050565b60006020820190508181036000830152612a9d81612a61565b9050919050565b7f466565206d757374206265206c657373206f7220657175616c20746f20333325600082015250565b6000612ada6020836122ef565b9150612ae582612aa4565b602082019050919050565b60006020820190508181036000830152612b0981612acd565b9050919050565b7f4e487b7100000000000000000000000000000000000000000000000000000000600052601160045260246000fd5b6000612b4a82612396565b9150612b5583612396565b9250828202612b6381612396565b91508282048414831517612b7a57612b79612b10565b5b5092915050565b7f4e487b7100000000000000000000000000000000000000000000000000000000600052601260045260246000fd5b6000612bbb82612396565b9150612bc683612396565b925082612bd657612bd5612b81565b5b828204905092915050565b7f4552433732313a20696e76616c696420746f6b656e2049440000000000000000600082015250565b6000612c176018836122ef565b9150612c2282612be1565b602082019050919050565b60006020820190508181036000830152612c4681612c0a565b9050919050565b7f4552433732313a2061646472657373207a65726f206973206e6f74206120766160008201527f6c6964206f776e65720000000000000000000000000000000000000000000000602082015250565b6000612ca96029836122ef565b9150612cb482612c4d565b604082019050919050565b60006020820190508181036000830152612cd881612c9c565b9050919050565b7f4d696e74696e67206973206e6f74206f70656e00000000000000000000000000600082015250565b6000612d156013836122ef565b9150612d2082612cdf565b602082019050919050565b60006020820190508181036000830152612d4481612d08565b9050919050565b7f546f6b656e20494420697320746f6f2068696768000000000000000000000000600082015250565b6000612d816014836122ef565b9150612d8c82612d4b565b602082019050919050565b60006020820190508181036000830152612db081612d74565b9050919050565b7f596f7520617265206e6f7420616c6c6f77656420746f206d696e74207468697360008201527f20746f6b656e0000000000000000000000000000000000000000000000000000602082015250565b6000612e136026836122ef565b9150612e1e82612db7565b604082019050919050565b60006020820190508181036000830152612e4281612e06565b9050919050565b7f546f6b656e2068617320616c7265616479206265656e206d696e746564000000600082015250565b6000612e7f601d836122ef565b9150612e8a82612e49565b602082019050919050565b60006020820190508181036000830152612eae81612e72565b9050919050565b6000612ec082612396565b9150612ecb83612396565b9250828201905080821115612ee357612ee2612b10565b5b92915050565b7f5465616d2063616e206f6e6c79206d696e742033303020746f6b656e7320696e60008201527f2032303233000000000000000000000000000000000000000000000000000000602082015250565b6000612f456025836122ef565b9150612f5082612ee9565b604082019050919050565b60006020820190508181036000830152612f7481612f38565b9050919050565b7f5465616d2063616e206f6e6c79206d696e742033303020746f6b656e7320696e60008201527f2032303234000000000000000000000000000000000000000000000000000000602082015250565b6000612fd76025836122ef565b9150612fe282612f7b565b604082019050919050565b6000602082019050818103600083015261300681612fca565b9050919050565b7f5465616d2063616e206f6e6c79206d696e74207468652072656d61696e696e6760008201527f20746f6b656e7320696e20323032350000000000000000000000000000000000602082015250565b6000613069602f836122ef565b91506130748261300d565b604082019050919050565b600060208201905081810360008301526130988161305c565b9050919050565b60006130aa82612396565b91507fffffffffffffffffffffffffffffffffffffffffffffffffffffffffffffffff82036130dc576130db612b10565b5b600182019050919050565b600081905092915050565b60006130fd826122e4565b61310781856130e7565b9350613117818560208601612300565b80840191505092915050565b600061312f82846130f2565b915081905092915050565b7f4f776e61626c653a206e6577206f776e657220697320746865207a65726f206160008201527f6464726573730000000000000000000000000000000000000000000000000000602082015250565b60006131966026836122ef565b91506131a18261313a565b604082019050919050565b600060208201905081810360008301526131c581613189565b9050919050565b7f4552433732313a207472616e736665722066726f6d20696e636f72726563742060008201527f6f776e6572000000000000000000000000000000000000000000000000000000602082015250565b60006132286025836122ef565b9150613233826131cc565b604082019050919050565b600060208201905081810360008301526132578161321b565b9050919050565b7f4552433732313a207472616e7366657220746f20746865207a65726f2061646460008201527f7265737300000000000000000000000000000000000000000000000000000000602082015250565b60006132ba6024836122ef565b91506132c58261325e565b604082019050919050565b600060208201905081810360008301526132e9816132ad565b9050919050565b7f4f776e61626c653a2063616c6c6572206973206e6f7420746865206f776e6572600082015250565b60006133266020836122ef565b9150613331826132f0565b602082019050919050565b6000602082019050818103600083015261335581613319565b9050919050565b7f4552433732313a20617070726f766520746f2063616c6c657200000000000000600082015250565b60006133926019836122ef565b915061339d8261335c565b602082019050919050565b600060208201905081810360008301526133c181613385565b9050919050565b7f4552433732313a207472616e7366657220746f206e6f6e20455243373231526560008201527f63656976657220696d706c656d656e7465720000000000000000000000000000602082015250565b60006134246032836122ef565b915061342f826133c8565b604082019050919050565b6000602082019050818103600083015261345381613417565b9050919050565b600061346582612396565b915061347083612396565b925082820390508181111561348857613487612b10565b5b92915050565b600081519050919050565b600082825260208201905092915050565b60006134b58261348e565b6134bf8185613499565b93506134cf818560208601612300565b6134d88161232a565b840191505092915050565b60006080820190506134f8600083018761242b565b613505602083018661242b565b6135126040830185612514565b818103606083015261352481846134aa565b905095945050505050565b60008151905061353e81612255565b92915050565b60006020828403121561355a5761355961221f565b5b60006135688482850161352f565b91505092915050565b7f4552433732313a206d696e7420746f20746865207a65726f2061646472657373600082015250565b60006135a76020836122ef565b91506135b282613571565b602082019050919050565b600060208201905081810360008301526135d68161359a565b9050919050565b7f4552433732313a20746f6b656e20616c7265616479206d696e74656400000000600082015250565b6000613613601c836122ef565b915061361e826135dd565b602082019050919050565b6000602082019050818103600083015261364281613606565b905091905056fe697066733a2f2f516d5837527a644355487a506e67386d7373547058414257547856465651774e58313234746d70515551694639702f737461636b73a264697066735822122012601c9c5b8f51f42c4db15429dad108c5ce037d715daaa28d80d509bbf1427764736f6c63430008110033",
  "immutableReferences": {},
  "source": "// SPDX-License-Identifier: MIT\npragma solidity >=0.4.22 <0.9.0;\n\nimport \"@openzeppelin/contracts/access/Ownable.sol\";\nimport \"@openzeppelin/contracts/token/ERC721/ERC721.sol\";\nimport \"@openzeppelin/contracts/token/common/ERC2981.sol\";\n\ncontract Stacks is ERC721, ERC2981, Ownable {\n  bytes4 private constant _INTERFACE_ID_ERC2981 = 0x2a55205a;\n\n  uint public constant PERCENT_DIVIDER = 10000;\n  uint public SALE_FEE = 1000; // 10%\n\n  mapping(uint => address) public tokenMinter;\n  mapping(uint => TokenMetaData) public tokenMetaDataRecord;\n\n  address public auctionHouse;\n  bool public mintOpen;\n  uint public maxSupply = 5000; // Immutable\n  uint public softCap = 4009;\n  uint public teamMinted = 0;\n\n  struct TokenMetaData {\n    bool minted;\n    uint timestamp;\n  }\n\n  constructor() ERC721(\"Stacks Alpha Card\", \"STACKS\") {}\n\n  function mint(uint _tokenId) public {\n    require(mintOpen, \"Minting is not open\");\n    require(_tokenId <= maxSupply, \"Token ID is too high\");\n    require(tokenMinter[_tokenId] == msg.sender, \"You are not allowed to mint this token\");\n    require(!tokenMetaDataRecord[_tokenId].minted, \"Token has already been minted\");\n\n    _safeMint(msg.sender, _tokenId);\n    tokenMetaDataRecord[_tokenId] = TokenMetaData(true, block.timestamp);\n  }\n\n  // Set who can mint the token with tokenId\n  function addAvailableForMint(uint _tokenId, address _auctionWinner) internal {\n    tokenMinter[_tokenId] = _auctionWinner;\n  }\n\n  // Admin functions\n  function setAuctionHouse(address _auctionHouse) public onlyOwner {\n    auctionHouse = _auctionHouse;\n  }\n\n  function toggleMint(bool _open) public onlyOwner {\n    mintOpen = _open;\n  }\n\n  // Mint token for team members\n  function teamMint(address _teamMember) public onlyOwner {\n    // _tokenId for team is between 4010 and 5000\n    uint _tokenId = softCap + teamMinted + 1;\n    require(_tokenId <= maxSupply, \"Token ID is too high\");\n\n    // make it so team can only mint 300 tokens per year\n    // 2023: 4010 - 4309\n    if(_tokenId >= 4310) {\n      // 2024: 4310 - 4609\n      require(block.timestamp > 1704067199, \"Team can only mint 300 tokens in 2023\"); // 31/12/2023\n    }\n    if(_tokenId >= 4610) {\n      // 2025: 4610 - 4909\n      require(block.timestamp > 1735689599, \"Team can only mint 300 tokens in 2024\"); // 31/12/2024\n    }\n    if(_tokenId >= 4910) {\n      // 2026: 4910 - 5000\n      require(block.timestamp > 1767225599, \"Team can only mint the remaining tokens in 2025\"); // 31/12/2025\n    }\n\n    // set minter\n    addAvailableForMint(_tokenId, _teamMember);\n    // set mint timestamp\n    tokenMetaDataRecord[_tokenId] = TokenMetaData(true, block.timestamp);\n    // mint token\n    _safeMint(msg.sender, _tokenId);\n    teamMinted++;\n  }\n\n  function setRegularFee(uint _SALE_FEE) public onlyOwner {\n    require(_SALE_FEE <= 3300, \"Fee must be less or equal to 33%\");\n    SALE_FEE = _SALE_FEE;\n  }\n\n  function supportsInterface(bytes4 _interfaceId) public view virtual override(ERC721, ERC2981) returns (bool) {\n    if (_interfaceId == _INTERFACE_ID_ERC2981) { return true; }\n    return super.supportsInterface(_interfaceId);\n  }\n\n  function royaltyInfo(uint256, uint256 _salePrice) override view public returns (address receiver, uint256 royaltyAmount){\n    return (owner(), _salePrice * SALE_FEE / PERCENT_DIVIDER);\n  }\n\n  // Overwrite tokenURI\n  // ignore tokenId as all the tokens have the same image\n  function tokenURI(uint256 _tokenId) public view virtual override returns (string memory) {\n    _requireMinted(_tokenId);\n    return string(abi.encodePacked(_baseURI()));\n  }\n\n  // Overwrite _baseURI\n  function _baseURI() override pure internal returns (string memory) {\n    return \"ipfs://QmX7RzdCUHzPng8mssTpXABWTxVFVQwNX124tmpQUQiF9p/stacks\";\n  }\n}\n",
  "sourcePath": "/Users/bruno/dev/crypto/stacks/contracts/Stacks.sol",
  "compiler": {
    "name": "solc",
    "version": "0.8.17+commit.8df45f5f.Emscripten.clang"
  },
  "schemaVersion": "3.4.10",
  "updatedAt": "2023-02-04T18:43:56.990Z",
  "devdoc": {
    "kind": "dev",
    "methods": {
      "approve(address,uint256)": {
        "details": "See {IERC721-approve}."
      },
      "balanceOf(address)": {
        "details": "See {IERC721-balanceOf}."
      },
      "getApproved(uint256)": {
        "details": "See {IERC721-getApproved}."
      },
      "isApprovedForAll(address,address)": {
        "details": "See {IERC721-isApprovedForAll}."
      },
      "name()": {
        "details": "See {IERC721Metadata-name}."
      },
      "owner()": {
        "details": "Returns the address of the current owner."
      },
      "ownerOf(uint256)": {
        "details": "See {IERC721-ownerOf}."
      },
      "renounceOwnership()": {
        "details": "Leaves the contract without owner. It will not be possible to call `onlyOwner` functions anymore. Can only be called by the current owner. NOTE: Renouncing ownership will leave the contract without an owner, thereby removing any functionality that is only available to the owner."
      },
      "safeTransferFrom(address,address,uint256)": {
        "details": "See {IERC721-safeTransferFrom}."
      },
      "safeTransferFrom(address,address,uint256,bytes)": {
        "details": "See {IERC721-safeTransferFrom}."
      },
      "setApprovalForAll(address,bool)": {
        "details": "See {IERC721-setApprovalForAll}."
      },
      "symbol()": {
        "details": "See {IERC721Metadata-symbol}."
      },
      "transferFrom(address,address,uint256)": {
        "details": "See {IERC721-transferFrom}."
      },
      "transferOwnership(address)": {
        "details": "Transfers ownership of the contract to a new account (`newOwner`). Can only be called by the current owner."
      }
    },
    "version": 1
  },
  "userdoc": {
    "kind": "user",
    "methods": {},
    "version": 1
  }
}