{
  "contractName": "Stacks",
  "abi": [
    {
      "inputs": [
        {
          "internalType": "address",
          "name": "_treasuryAddress",
          "type": "address"
        },
        {
          "internalType": "address",
          "name": "_wlDataAddress",
          "type": "address"
        }
      ],
      "stateMutability": "nonpayable",
      "type": "constructor"
    },
    {
      "anonymous": false,
      "inputs": [
        {
          "indexed": true,
          "internalType": "address",
          "name": "owner",
          "type": "address"
        },
        {
          "indexed": true,
          "internalType": "address",
          "name": "approved",
          "type": "address"
        },
        {
          "indexed": true,
          "internalType": "uint256",
          "name": "tokenId",
          "type": "uint256"
        }
      ],
      "name": "Approval",
      "type": "event"
    },
    {
      "anonymous": false,
      "inputs": [
        {
          "indexed": true,
          "internalType": "address",
          "name": "owner",
          "type": "address"
        },
        {
          "indexed": true,
          "internalType": "address",
          "name": "operator",
          "type": "address"
        },
        {
          "indexed": false,
          "internalType": "bool",
          "name": "approved",
          "type": "bool"
        }
      ],
      "name": "ApprovalForAll",
      "type": "event"
    },
    {
      "anonymous": false,
      "inputs": [
        {
          "indexed": true,
          "internalType": "address",
          "name": "previousOwner",
          "type": "address"
        },
        {
          "indexed": true,
          "internalType": "address",
          "name": "newOwner",
          "type": "address"
        }
      ],
      "name": "OwnershipTransferred",
      "type": "event"
    },
    {
      "anonymous": false,
      "inputs": [
        {
          "indexed": true,
          "internalType": "address",
          "name": "from",
          "type": "address"
        },
        {
          "indexed": true,
          "internalType": "address",
          "name": "to",
          "type": "address"
        },
        {
          "indexed": true,
          "internalType": "uint256",
          "name": "tokenId",
          "type": "uint256"
        }
      ],
      "name": "Transfer",
      "type": "event"
    },
    {
      "inputs": [],
      "name": "PERCENT_DIVIDER",
      "outputs": [
        {
          "internalType": "uint256",
          "name": "",
          "type": "uint256"
        }
      ],
      "stateMutability": "view",
      "type": "function",
      "constant": true
    },
    {
      "inputs": [],
      "name": "SALE_FEE",
      "outputs": [
        {
          "internalType": "uint256",
          "name": "",
          "type": "uint256"
        }
      ],
      "stateMutability": "view",
      "type": "function",
      "constant": true
    },
    {
      "inputs": [
        {
          "internalType": "address",
          "name": "to",
          "type": "address"
        },
        {
          "internalType": "uint256",
          "name": "tokenId",
          "type": "uint256"
        }
      ],
      "name": "approve",
      "outputs": [],
      "stateMutability": "nonpayable",
      "type": "function"
    },
    {
      "inputs": [],
      "name": "auctionHouse",
      "outputs": [
        {
          "internalType": "address",
          "name": "",
          "type": "address"
        }
      ],
      "stateMutability": "view",
      "type": "function",
      "constant": true
    },
    {
      "inputs": [
        {
          "internalType": "address",
          "name": "owner",
          "type": "address"
        }
      ],
      "name": "balanceOf",
      "outputs": [
        {
          "internalType": "uint256",
          "name": "",
          "type": "uint256"
        }
      ],
      "stateMutability": "view",
      "type": "function",
      "constant": true
    },
    {
      "inputs": [
        {
          "internalType": "uint256",
          "name": "tokenId",
          "type": "uint256"
        }
      ],
      "name": "getApproved",
      "outputs": [
        {
          "internalType": "address",
          "name": "",
          "type": "address"
        }
      ],
      "stateMutability": "view",
      "type": "function",
      "constant": true
    },
    {
      "inputs": [
        {
          "internalType": "address",
          "name": "owner",
          "type": "address"
        },
        {
          "internalType": "address",
          "name": "operator",
          "type": "address"
        }
      ],
      "name": "isApprovedForAll",
      "outputs": [
        {
          "internalType": "bool",
          "name": "",
          "type": "bool"
        }
      ],
      "stateMutability": "view",
      "type": "function",
      "constant": true
    },
    {
      "inputs": [],
      "name": "maxSupply",
      "outputs": [
        {
          "internalType": "uint256",
          "name": "",
          "type": "uint256"
        }
      ],
      "stateMutability": "view",
      "type": "function",
      "constant": true
    },
    {
      "inputs": [],
      "name": "mintOpen",
      "outputs": [
        {
          "internalType": "bool",
          "name": "",
          "type": "bool"
        }
      ],
      "stateMutability": "view",
      "type": "function",
      "constant": true
    },
    {
      "inputs": [],
      "name": "name",
      "outputs": [
        {
          "internalType": "string",
          "name": "",
          "type": "string"
        }
      ],
      "stateMutability": "view",
      "type": "function",
      "constant": true
    },
    {
      "inputs": [],
      "name": "owner",
      "outputs": [
        {
          "internalType": "address",
          "name": "",
          "type": "address"
        }
      ],
      "stateMutability": "view",
      "type": "function",
      "constant": true
    },
    {
      "inputs": [
        {
          "internalType": "uint256",
          "name": "tokenId",
          "type": "uint256"
        }
      ],
      "name": "ownerOf",
      "outputs": [
        {
          "internalType": "address",
          "name": "",
          "type": "address"
        }
      ],
      "stateMutability": "view",
      "type": "function",
      "constant": true
    },
    {
      "inputs": [],
      "name": "renounceOwnership",
      "outputs": [],
      "stateMutability": "nonpayable",
      "type": "function"
    },
    {
      "inputs": [
        {
          "internalType": "address",
          "name": "from",
          "type": "address"
        },
        {
          "internalType": "address",
          "name": "to",
          "type": "address"
        },
        {
          "internalType": "uint256",
          "name": "tokenId",
          "type": "uint256"
        }
      ],
      "name": "safeTransferFrom",
      "outputs": [],
      "stateMutability": "nonpayable",
      "type": "function"
    },
    {
      "inputs": [
        {
          "internalType": "address",
          "name": "from",
          "type": "address"
        },
        {
          "internalType": "address",
          "name": "to",
          "type": "address"
        },
        {
          "internalType": "uint256",
          "name": "tokenId",
          "type": "uint256"
        },
        {
          "internalType": "bytes",
          "name": "data",
          "type": "bytes"
        }
      ],
      "name": "safeTransferFrom",
      "outputs": [],
      "stateMutability": "nonpayable",
      "type": "function"
    },
    {
      "inputs": [
        {
          "internalType": "address",
          "name": "operator",
          "type": "address"
        },
        {
          "internalType": "bool",
          "name": "approved",
          "type": "bool"
        }
      ],
      "name": "setApprovalForAll",
      "outputs": [],
      "stateMutability": "nonpayable",
      "type": "function"
    },
    {
      "inputs": [],
      "name": "softCap",
      "outputs": [
        {
          "internalType": "uint256",
          "name": "",
          "type": "uint256"
        }
      ],
      "stateMutability": "view",
      "type": "function",
      "constant": true
    },
    {
      "inputs": [],
      "name": "symbol",
      "outputs": [
        {
          "internalType": "string",
          "name": "",
          "type": "string"
        }
      ],
      "stateMutability": "view",
      "type": "function",
      "constant": true
    },
    {
      "inputs": [],
      "name": "teamMinted",
      "outputs": [
        {
          "internalType": "uint256",
          "name": "",
          "type": "uint256"
        }
      ],
      "stateMutability": "view",
      "type": "function",
      "constant": true
    },
    {
      "inputs": [
        {
          "internalType": "uint256",
          "name": "index",
          "type": "uint256"
        }
      ],
      "name": "tokenByIndex",
      "outputs": [
        {
          "internalType": "uint256",
          "name": "",
          "type": "uint256"
        }
      ],
      "stateMutability": "view",
      "type": "function",
      "constant": true
    },
    {
      "inputs": [
        {
          "internalType": "uint256",
          "name": "",
          "type": "uint256"
        }
      ],
      "name": "tokenMetaDataRecord",
      "outputs": [
        {
          "internalType": "bool",
          "name": "minted",
          "type": "bool"
        },
        {
          "internalType": "address",
          "name": "minter",
          "type": "address"
        },
        {
          "internalType": "uint256",
          "name": "timestamp",
          "type": "uint256"
        }
      ],
      "stateMutability": "view",
      "type": "function",
      "constant": true
    },
    {
      "inputs": [
        {
          "internalType": "address",
          "name": "owner",
          "type": "address"
        },
        {
          "internalType": "uint256",
          "name": "index",
          "type": "uint256"
        }
      ],
      "name": "tokenOfOwnerByIndex",
      "outputs": [
        {
          "internalType": "uint256",
          "name": "",
          "type": "uint256"
        }
      ],
      "stateMutability": "view",
      "type": "function",
      "constant": true
    },
    {
      "inputs": [],
      "name": "totalSupply",
      "outputs": [
        {
          "internalType": "uint256",
          "name": "",
          "type": "uint256"
        }
      ],
      "stateMutability": "view",
      "type": "function",
      "constant": true
    },
    {
      "inputs": [
        {
          "internalType": "address",
          "name": "from",
          "type": "address"
        },
        {
          "internalType": "address",
          "name": "to",
          "type": "address"
        },
        {
          "internalType": "uint256",
          "name": "tokenId",
          "type": "uint256"
        }
      ],
      "name": "transferFrom",
      "outputs": [],
      "stateMutability": "nonpayable",
      "type": "function"
    },
    {
      "inputs": [
        {
          "internalType": "address",
          "name": "newOwner",
          "type": "address"
        }
      ],
      "name": "transferOwnership",
      "outputs": [],
      "stateMutability": "nonpayable",
      "type": "function"
    },
    {
      "inputs": [],
      "name": "treasuryAddress",
      "outputs": [
        {
          "internalType": "address",
          "name": "",
          "type": "address"
        }
      ],
      "stateMutability": "view",
      "type": "function",
      "constant": true
    },
    {
      "inputs": [],
      "name": "wlDataAddress",
      "outputs": [
        {
          "internalType": "address",
          "name": "",
          "type": "address"
        }
      ],
      "stateMutability": "view",
      "type": "function",
      "constant": true
    },
    {
      "inputs": [],
      "name": "wlMintOpen",
      "outputs": [
        {
          "internalType": "bool",
          "name": "",
          "type": "bool"
        }
      ],
      "stateMutability": "view",
      "type": "function",
      "constant": true
    },
    {
      "inputs": [
        {
          "internalType": "uint256",
          "name": "_tokenId",
          "type": "uint256"
        }
      ],
      "name": "mint",
      "outputs": [],
      "stateMutability": "nonpayable",
      "type": "function"
    },
    {
      "inputs": [
        {
          "internalType": "address payable",
          "name": "_treasuryAddress",
          "type": "address"
        }
      ],
      "name": "setTreasuryAddress",
      "outputs": [],
      "stateMutability": "nonpayable",
      "type": "function"
    },
    {
      "inputs": [
        {
          "internalType": "address",
          "name": "_auctionHouse",
          "type": "address"
        }
      ],
      "name": "setAuctionHouse",
      "outputs": [],
      "stateMutability": "nonpayable",
      "type": "function"
    },
    {
      "inputs": [
        {
          "internalType": "bool",
          "name": "_open",
          "type": "bool"
        }
      ],
      "name": "toggleMint",
      "outputs": [],
      "stateMutability": "nonpayable",
      "type": "function"
    },
    {
      "inputs": [
        {
          "internalType": "bool",
          "name": "_open",
          "type": "bool"
        }
      ],
      "name": "toggleWlMint",
      "outputs": [],
      "stateMutability": "nonpayable",
      "type": "function"
    },
    {
      "inputs": [],
      "name": "wlMint",
      "outputs": [],
      "stateMutability": "nonpayable",
      "type": "function"
    },
    {
      "inputs": [
        {
          "internalType": "address",
          "name": "_teamMember",
          "type": "address"
        }
      ],
      "name": "teamMint",
      "outputs": [],
      "stateMutability": "nonpayable",
      "type": "function"
    },
    {
      "inputs": [
        {
          "internalType": "uint256",
          "name": "_SALE_FEE",
          "type": "uint256"
        }
      ],
      "name": "setRegularFee",
      "outputs": [],
      "stateMutability": "nonpayable",
      "type": "function"
    },
    {
      "inputs": [
        {
          "internalType": "bytes4",
          "name": "_interfaceId",
          "type": "bytes4"
        }
      ],
      "name": "supportsInterface",
      "outputs": [
        {
          "internalType": "bool",
          "name": "",
          "type": "bool"
        }
      ],
      "stateMutability": "view",
      "type": "function",
      "constant": true
    },
    {
      "inputs": [
        {
          "internalType": "uint256",
          "name": "",
          "type": "uint256"
        },
        {
          "internalType": "uint256",
          "name": "_salePrice",
          "type": "uint256"
        }
      ],
      "name": "royaltyInfo",
      "outputs": [
        {
          "internalType": "address",
          "name": "receiver",
          "type": "address"
        },
        {
          "internalType": "uint256",
          "name": "royaltyAmount",
          "type": "uint256"
        }
      ],
      "stateMutability": "view",
      "type": "function",
      "constant": true
    },
    {
      "inputs": [
        {
          "internalType": "uint256",
          "name": "_tokenId",
          "type": "uint256"
        }
      ],
      "name": "tokenURI",
      "outputs": [
        {
          "internalType": "string",
          "name": "",
          "type": "string"
        }
      ],
      "stateMutability": "view",
      "type": "function",
      "constant": true
    }
  ],
  "bytecode": "0x60806040526103e8600d55611388601155610fa960125560006013553480156200002857600080fd5b5060405162004e4c38038062004e4c83398181016040528101906200004e9190620002c2565b6040518060400160405280601681526020017f537461636b7320496e766573746d656e742043617264000000000000000000008152506040518060400160405280600681526020017f535441434b5300000000000000000000000000000000000000000000000000008152508160009081620000cb919062000583565b508060019081620000dd919062000583565b50505062000100620000f46200018a60201b60201c565b6200019260201b60201c565b81601560006101000a81548173ffffffffffffffffffffffffffffffffffffffff021916908373ffffffffffffffffffffffffffffffffffffffff16021790555080601460006101000a81548173ffffffffffffffffffffffffffffffffffffffff021916908373ffffffffffffffffffffffffffffffffffffffff16021790555050506200066a565b600033905090565b6000600c60009054906101000a900473ffffffffffffffffffffffffffffffffffffffff16905081600c60006101000a81548173ffffffffffffffffffffffffffffffffffffffff021916908373ffffffffffffffffffffffffffffffffffffffff1602179055508173ffffffffffffffffffffffffffffffffffffffff168173ffffffffffffffffffffffffffffffffffffffff167f8be0079c531659141344cd1fd0a4f28419497f9722a3daafe3b4186f6b6457e060405160405180910390a35050565b600080fd5b600073ffffffffffffffffffffffffffffffffffffffff82169050919050565b60006200028a826200025d565b9050919050565b6200029c816200027d565b8114620002a857600080fd5b50565b600081519050620002bc8162000291565b92915050565b60008060408385031215620002dc57620002db62000258565b5b6000620002ec85828601620002ab565b9250506020620002ff85828601620002ab565b9150509250929050565b600081519050919050565b7f4e487b7100000000000000000000000000000000000000000000000000000000600052604160045260246000fd5b7f4e487b7100000000000000000000000000000000000000000000000000000000600052602260045260246000fd5b600060028204905060018216806200038b57607f821691505b602082108103620003a157620003a062000343565b5b50919050565b60008190508160005260206000209050919050565b60006020601f8301049050919050565b600082821b905092915050565b6000600883026200040b7fffffffffffffffffffffffffffffffffffffffffffffffffffffffffffffffff82620003cc565b620004178683620003cc565b95508019841693508086168417925050509392505050565b6000819050919050565b6000819050919050565b6000620004646200045e62000458846200042f565b62000439565b6200042f565b9050919050565b6000819050919050565b620004808362000443565b620004986200048f826200046b565b848454620003d9565b825550505050565b600090565b620004af620004a0565b620004bc81848462000475565b505050565b5b81811015620004e457620004d8600082620004a5565b600181019050620004c2565b5050565b601f8211156200053357620004fd81620003a7565b6200050884620003bc565b8101602085101562000518578190505b620005306200052785620003bc565b830182620004c1565b50505b505050565b600082821c905092915050565b6000620005586000198460080262000538565b1980831691505092915050565b600062000573838362000545565b9150826002028217905092915050565b6200058e8262000309565b67ffffffffffffffff811115620005aa57620005a962000314565b5b620005b6825462000372565b620005c3828285620004e8565b600060209050601f831160018114620005fb5760008415620005e6578287015190505b620005f2858262000565565b86555062000662565b601f1984166200060b86620003a7565b60005b8281101562000635578489015182556001820191506020850194506020810190506200060e565b8683101562000655578489015162000651601f89168262000545565b8355505b6001600288020188555050505b505050505050565b6147d2806200067a6000396000f3fe608060405234801561001057600080fd5b506004361061023c5760003560e01c80637f9fa4111161013b578063bdce6c44116100b8578063e76d89521161007c578063e76d8952146106a4578063e8b5498d146106c0578063e985e9c5146106de578063ed9152c81461070e578063f2fde38b1461072c5761023c565b8063bdce6c44146105e8578063c5f956af1461061a578063c87b56dd14610638578063d5abeb0114610668578063df22952a146106865761023c565b8063a0712d68116100ff578063a0712d681461055c578063a22cb46514610578578063ac81308814610594578063b6a1dba1146105b0578063b88d4fde146105cc5761023c565b80637f9fa411146104dc5780638a4dcd85146104e65780638da5cb5b14610502578063906a26e01461052057806395d89b411461053e5761023c565b806329fc7bd8116101c95780636352211e1161018d5780636352211e146104385780636605bfda1461046857806370a0823114610484578063715018a6146104b4578063729eaa66146104be5761023c565b806329fc7bd81461036d5780632a55205a1461038b5780632f745c59146103bc57806342842e0e146103ec5780634f6ccce7146104085761023c565b8063095ea7b311610210578063095ea7b3146102dd57806318160ddd146102f957806323b872dd1461031757806324bbd0491461033357806329c4ba09146103515761023c565b8062725dca1461024157806301ffc9a71461025f57806306fdde031461028f578063081812fc146102ad575b600080fd5b610249610748565b6040516102569190612dfc565b60405180910390f35b61027960048036038101906102749190612e83565b61075b565b6040516102869190612dfc565b60405180910390f35b6102976107c3565b6040516102a49190612f40565b60405180910390f35b6102c760048036038101906102c29190612f98565b610855565b6040516102d49190613006565b60405180910390f35b6102f760048036038101906102f2919061304d565b61089b565b005b6103016109b2565b60405161030e919061309c565b60405180910390f35b610331600480360381019061032c91906130b7565b6109bf565b005b61033b610a1f565b6040516103489190612dfc565b60405180910390f35b61036b60048036038101906103669190612f98565b610a32565b005b610375610a89565b604051610382919061309c565b60405180910390f35b6103a560048036038101906103a0919061310a565b610a8f565b6040516103b392919061314a565b60405180910390f35b6103d660048036038101906103d1919061304d565b610adb565b6040516103e3919061309c565b60405180910390f35b610406600480360381019061040191906130b7565b610b80565b005b610422600480360381019061041d9190612f98565b610ba0565b60405161042f919061309c565b60405180910390f35b610452600480360381019061044d9190612f98565b610c11565b60405161045f9190613006565b60405180910390f35b610482600480360381019061047d91906131b1565b610c97565b005b61049e600480360381019061049991906131de565b610ce3565b6040516104ab919061309c565b60405180910390f35b6104bc610d9a565b005b6104c6610dae565b6040516104d3919061309c565b60405180910390f35b6104e4610db4565b005b61050060048036038101906104fb9190613237565b61101c565b005b61050a611041565b6040516105179190613006565b60405180910390f35b61052861106b565b604051610535919061309c565b60405180910390f35b610546611071565b6040516105539190612f40565b60405180910390f35b61057660048036038101906105719190612f98565b611103565b005b610592600480360381019061058d9190613264565b61142f565b005b6105ae60048036038101906105a99190613237565b611445565b005b6105ca60048036038101906105c591906131de565b61146a565b005b6105e660048036038101906105e191906133d9565b6116a8565b005b61060260048036038101906105fd9190612f98565b61170a565b6040516106119392919061345c565b60405180910390f35b610622611761565b60405161062f9190613006565b60405180910390f35b610652600480360381019061064d9190612f98565b611787565b60405161065f9190612f40565b60405180910390f35b6106706117c0565b60405161067d919061309c565b60405180910390f35b61068e6117c6565b60405161069b9190613006565b60405180910390f35b6106be60048036038101906106b991906131de565b6117ec565b005b6106c8611838565b6040516106d5919061309c565b60405180910390f35b6106f860048036038101906106f39190613493565b61183e565b6040516107059190612dfc565b60405180910390f35b6107166118d2565b6040516107239190613006565b60405180910390f35b610746600480360381019061074191906131de565b6118f8565b005b600e60009054906101000a900460ff1681565b6000632a55205a60e01b7bffffffffffffffffffffffffffffffffffffffffffffffffffffffff1916827bffffffffffffffffffffffffffffffffffffffffffffffffffffffff1916036107b257600190506107be565b6107bb8261197b565b90505b919050565b6060600080546107d290613502565b80601f01602080910402602001604051908101604052809291908181526020018280546107fe90613502565b801561084b5780601f106108205761010080835404028352916020019161084b565b820191906000526020600020905b81548152906001019060200180831161082e57829003601f168201915b5050505050905090565b6000610860826119f5565b6004600083815260200190815260200160002060009054906101000a900473ffffffffffffffffffffffffffffffffffffffff169050919050565b60006108a682610c11565b90508073ffffffffffffffffffffffffffffffffffffffff168373ffffffffffffffffffffffffffffffffffffffff1603610916576040517f08c379a000000000000000000000000000000000000000000000000000000000815260040161090d906135a5565b60405180910390fd5b8073ffffffffffffffffffffffffffffffffffffffff16610935611a40565b73ffffffffffffffffffffffffffffffffffffffff16148061096457506109638161095e611a40565b61183e565b5b6109a3576040517f08c379a000000000000000000000000000000000000000000000000000000000815260040161099a90613637565b60405180910390fd5b6109ad8383611a48565b505050565b6000600880549050905090565b6109d06109ca611a40565b82611b01565b610a0f576040517f08c379a0000000000000000000000000000000000000000000000000000000008152600401610a06906136c9565b60405180910390fd5b610a1a838383611b96565b505050565b601060149054906101000a900460ff1681565b610a3a611e8f565b610ce4811115610a7f576040517f08c379a0000000000000000000000000000000000000000000000000000000008152600401610a7690613735565b60405180910390fd5b80600d8190555050565b61271081565b600080601560009054906101000a900473ffffffffffffffffffffffffffffffffffffffff16612710600d5485610ac69190613784565b610ad091906137f5565b915091509250929050565b6000610ae683610ce3565b8210610b27576040517f08c379a0000000000000000000000000000000000000000000000000000000008152600401610b1e90613898565b60405180910390fd5b600660008473ffffffffffffffffffffffffffffffffffffffff1673ffffffffffffffffffffffffffffffffffffffff168152602001908152602001600020600083815260200190815260200160002054905092915050565b610b9b838383604051806020016040528060008152506116a8565b505050565b6000610baa6109b2565b8210610beb576040517f08c379a0000000000000000000000000000000000000000000000000000000008152600401610be29061392a565b60405180910390fd5b60088281548110610bff57610bfe61394a565b5b90600052602060002001549050919050565b600080610c1d83611f0d565b9050600073ffffffffffffffffffffffffffffffffffffffff168173ffffffffffffffffffffffffffffffffffffffff1603610c8e576040517f08c379a0000000000000000000000000000000000000000000000000000000008152600401610c85906139c5565b60405180910390fd5b80915050919050565b610c9f611e8f565b80601560006101000a81548173ffffffffffffffffffffffffffffffffffffffff021916908373ffffffffffffffffffffffffffffffffffffffff16021790555050565b60008073ffffffffffffffffffffffffffffffffffffffff168273ffffffffffffffffffffffffffffffffffffffff1603610d53576040517f08c379a0000000000000000000000000000000000000000000000000000000008152600401610d4a90613a57565b60405180910390fd5b600360008373ffffffffffffffffffffffffffffffffffffffff1673ffffffffffffffffffffffffffffffffffffffff168152602001908152602001600020549050919050565b610da2611e8f565b610dac6000611f4a565b565b600d5481565b600e60009054906101000a900460ff16610e03576040517f08c379a0000000000000000000000000000000000000000000000000000000008152600401610dfa90613ac3565b60405180910390fd5b6000601460009054906101000a900473ffffffffffffffffffffffffffffffffffffffff1673ffffffffffffffffffffffffffffffffffffffff16637553e639336040518263ffffffff1660e01b8152600401610e609190613006565b6040805180830381865afa158015610e7c573d6000803e3d6000fd5b505050506040513d601f19601f82011682018060405250810190610ea09190613b62565b90508060200151610ee6576040517f08c379a0000000000000000000000000000000000000000000000000000000008152600401610edd90613bdb565b60405180910390fd5b600081600001519050600f600082815260200190815260200160002060000160009054906101000a900460ff1615610f53576040517f08c379a0000000000000000000000000000000000000000000000000000000008152600401610f4a90613c47565b60405180910390fd5b60405180606001604052806001151581526020013373ffffffffffffffffffffffffffffffffffffffff16815260200142815250600f600083815260200190815260200160002060008201518160000160006101000a81548160ff02191690831515021790555060208201518160000160016101000a81548173ffffffffffffffffffffffffffffffffffffffff021916908373ffffffffffffffffffffffffffffffffffffffff160217905550604082015181600101559050506110183382612010565b5050565b611024611e8f565b80601060146101000a81548160ff02191690831515021790555050565b6000600c60009054906101000a900473ffffffffffffffffffffffffffffffffffffffff16905090565b60125481565b60606001805461108090613502565b80601f01602080910402602001604051908101604052809291908181526020018280546110ac90613502565b80156110f95780601f106110ce576101008083540402835291602001916110f9565b820191906000526020600020905b8154815290600101906020018083116110dc57829003601f168201915b5050505050905090565b601060149054906101000a900460ff16611152576040517f08c379a000000000000000000000000000000000000000000000000000000000815260040161114990613ac3565b60405180910390fd5b6000811015801561116557506011548111155b6111a4576040517f08c379a000000000000000000000000000000000000000000000000000000000815260040161119b90613cb3565b60405180910390fd5b6000601060009054906101000a900473ffffffffffffffffffffffffffffffffffffffff16905060008173ffffffffffffffffffffffffffffffffffffffff166378bd7935846040518263ffffffff1660e01b8152600401611206919061309c565b60a060405180830381865afa158015611223573d6000803e3d6000fd5b505050506040513d601f19601f820116820180604052508101906112479190613d74565b90504281606001511061128f576040517f08c379a000000000000000000000000000000000000000000000000000000000815260040161128690613ded565b60405180910390fd5b3373ffffffffffffffffffffffffffffffffffffffff16816020015173ffffffffffffffffffffffffffffffffffffffff1614611301576040517f08c379a00000000000000000000000000000000000000000000000000000000081526004016112f890613e7f565b60405180910390fd5b600f600084815260200190815260200160002060000160009054906101000a900460ff1615611365576040517f08c379a000000000000000000000000000000000000000000000000000000000815260040161135c90613c47565b60405180910390fd5b60405180606001604052806001151581526020013373ffffffffffffffffffffffffffffffffffffffff16815260200142815250600f600085815260200190815260200160002060008201518160000160006101000a81548160ff02191690831515021790555060208201518160000160016101000a81548173ffffffffffffffffffffffffffffffffffffffff021916908373ffffffffffffffffffffffffffffffffffffffff1602179055506040820151816001015590505061142a3384612010565b505050565b61144161143a611a40565b838361202e565b5050565b61144d611e8f565b80600e60006101000a81548160ff02191690831515021790555050565b611472611e8f565b600060016013546012546114869190613e9f565b6114909190613e9f565b90506011548111156114d7576040517f08c379a00000000000000000000000000000000000000000000000000000000081526004016114ce90613f1f565b60405180910390fd5b6110d6811061152757636592007f4211611526576040517f08c379a000000000000000000000000000000000000000000000000000000000815260040161151d90613fb1565b60405180910390fd5b5b611202811061157757636774857f4211611576576040517f08c379a000000000000000000000000000000000000000000000000000000000815260040161156d90614043565b60405180910390fd5b5b61132e81106115c757636955b8ff42116115c6576040517f08c379a00000000000000000000000000000000000000000000000000000000081526004016115bd906140d5565b60405180910390fd5b5b60405180606001604052806001151581526020018373ffffffffffffffffffffffffffffffffffffffff16815260200142815250600f600083815260200190815260200160002060008201518160000160006101000a81548160ff02191690831515021790555060208201518160000160016101000a81548173ffffffffffffffffffffffffffffffffffffffff021916908373ffffffffffffffffffffffffffffffffffffffff1602179055506040820151816001015590505061168c8282612010565b6013600081548092919061169f906140f5565b91905055505050565b6116b96116b3611a40565b83611b01565b6116f8576040517f08c379a00000000000000000000000000000000000000000000000000000000081526004016116ef906136c9565b60405180910390fd5b6117048484848461219a565b50505050565b600f6020528060005260406000206000915090508060000160009054906101000a900460ff16908060000160019054906101000a900473ffffffffffffffffffffffffffffffffffffffff16908060010154905083565b601560009054906101000a900473ffffffffffffffffffffffffffffffffffffffff1681565b6060611792826119f5565b61179a6121f6565b6040516020016117aa9190614179565b6040516020818303038152906040529050919050565b60115481565b601460009054906101000a900473ffffffffffffffffffffffffffffffffffffffff1681565b6117f4611e8f565b80601060006101000a81548173ffffffffffffffffffffffffffffffffffffffff021916908373ffffffffffffffffffffffffffffffffffffffff16021790555050565b60135481565b6000600560008473ffffffffffffffffffffffffffffffffffffffff1673ffffffffffffffffffffffffffffffffffffffff16815260200190815260200160002060008373ffffffffffffffffffffffffffffffffffffffff1673ffffffffffffffffffffffffffffffffffffffff16815260200190815260200160002060009054906101000a900460ff16905092915050565b601060009054906101000a900473ffffffffffffffffffffffffffffffffffffffff1681565b611900611e8f565b600073ffffffffffffffffffffffffffffffffffffffff168173ffffffffffffffffffffffffffffffffffffffff160361196f576040517f08c379a000000000000000000000000000000000000000000000000000000000815260040161196690614202565b60405180910390fd5b61197881611f4a565b50565b60007f2a55205a000000000000000000000000000000000000000000000000000000007bffffffffffffffffffffffffffffffffffffffffffffffffffffffff1916827bffffffffffffffffffffffffffffffffffffffffffffffffffffffff191614806119ee57506119ed82612216565b5b9050919050565b6119fe81612290565b611a3d576040517f08c379a0000000000000000000000000000000000000000000000000000000008152600401611a34906139c5565b60405180910390fd5b50565b600033905090565b816004600083815260200190815260200160002060006101000a81548173ffffffffffffffffffffffffffffffffffffffff021916908373ffffffffffffffffffffffffffffffffffffffff160217905550808273ffffffffffffffffffffffffffffffffffffffff16611abb83610c11565b73ffffffffffffffffffffffffffffffffffffffff167f8c5be1e5ebec7d5bd14f71427d1e84f3dd0314c0f7b2291e5b200ac8c7c3b92560405160405180910390a45050565b600080611b0d83610c11565b90508073ffffffffffffffffffffffffffffffffffffffff168473ffffffffffffffffffffffffffffffffffffffff161480611b4f5750611b4e818561183e565b5b80611b8d57508373ffffffffffffffffffffffffffffffffffffffff16611b7584610855565b73ffffffffffffffffffffffffffffffffffffffff16145b91505092915050565b8273ffffffffffffffffffffffffffffffffffffffff16611bb682610c11565b73ffffffffffffffffffffffffffffffffffffffff1614611c0c576040517f08c379a0000000000000000000000000000000000000000000000000000000008152600401611c0390614294565b60405180910390fd5b600073ffffffffffffffffffffffffffffffffffffffff168273ffffffffffffffffffffffffffffffffffffffff1603611c7b576040517f08c379a0000000000000000000000000000000000000000000000000000000008152600401611c7290614326565b60405180910390fd5b611c8883838360016122d1565b8273ffffffffffffffffffffffffffffffffffffffff16611ca882610c11565b73ffffffffffffffffffffffffffffffffffffffff1614611cfe576040517f08c379a0000000000000000000000000000000000000000000000000000000008152600401611cf590614294565b60405180910390fd5b6004600082815260200190815260200160002060006101000a81549073ffffffffffffffffffffffffffffffffffffffff02191690556001600360008573ffffffffffffffffffffffffffffffffffffffff1673ffffffffffffffffffffffffffffffffffffffff168152602001908152602001600020600082825403925050819055506001600360008473ffffffffffffffffffffffffffffffffffffffff1673ffffffffffffffffffffffffffffffffffffffff16815260200190815260200160002060008282540192505081905550816002600083815260200190815260200160002060006101000a81548173ffffffffffffffffffffffffffffffffffffffff021916908373ffffffffffffffffffffffffffffffffffffffff160217905550808273ffffffffffffffffffffffffffffffffffffffff168473ffffffffffffffffffffffffffffffffffffffff167fddf252ad1be2c89b69c2b068fc378daa952ba7f163c4a11628f55a4df523b3ef60405160405180910390a4611e8a83838360016122e3565b505050565b611e97611a40565b73ffffffffffffffffffffffffffffffffffffffff16611eb5611041565b73ffffffffffffffffffffffffffffffffffffffff1614611f0b576040517f08c379a0000000000000000000000000000000000000000000000000000000008152600401611f0290614392565b60405180910390fd5b565b60006002600083815260200190815260200160002060009054906101000a900473ffffffffffffffffffffffffffffffffffffffff169050919050565b6000600c60009054906101000a900473ffffffffffffffffffffffffffffffffffffffff16905081600c60006101000a81548173ffffffffffffffffffffffffffffffffffffffff021916908373ffffffffffffffffffffffffffffffffffffffff1602179055508173ffffffffffffffffffffffffffffffffffffffff168173ffffffffffffffffffffffffffffffffffffffff167f8be0079c531659141344cd1fd0a4f28419497f9722a3daafe3b4186f6b6457e060405160405180910390a35050565b61202a8282604051806020016040528060008152506122e9565b5050565b8173ffffffffffffffffffffffffffffffffffffffff168373ffffffffffffffffffffffffffffffffffffffff160361209c576040517f08c379a0000000000000000000000000000000000000000000000000000000008152600401612093906143fe565b60405180910390fd5b80600560008573ffffffffffffffffffffffffffffffffffffffff1673ffffffffffffffffffffffffffffffffffffffff16815260200190815260200160002060008473ffffffffffffffffffffffffffffffffffffffff1673ffffffffffffffffffffffffffffffffffffffff16815260200190815260200160002060006101000a81548160ff0219169083151502179055508173ffffffffffffffffffffffffffffffffffffffff168373ffffffffffffffffffffffffffffffffffffffff167f17307eab39ab6107e8899845ad3d59bd9653f200f220920489ca2b5937696c318360405161218d9190612dfc565b60405180910390a3505050565b6121a5848484611b96565b6121b184848484612344565b6121f0576040517f08c379a00000000000000000000000000000000000000000000000000000000081526004016121e790614490565b60405180910390fd5b50505050565b60606040518060600160405280603c8152602001614761603c9139905090565b60007f780e9d63000000000000000000000000000000000000000000000000000000007bffffffffffffffffffffffffffffffffffffffffffffffffffffffff1916827bffffffffffffffffffffffffffffffffffffffffffffffffffffffff191614806122895750612288826124cb565b5b9050919050565b60008073ffffffffffffffffffffffffffffffffffffffff166122b283611f0d565b73ffffffffffffffffffffffffffffffffffffffff1614159050919050565b6122dd848484846125ad565b50505050565b50505050565b6122f3838361270b565b6123006000848484612344565b61233f576040517f08c379a000000000000000000000000000000000000000000000000000000000815260040161233690614490565b60405180910390fd5b505050565b60006123658473ffffffffffffffffffffffffffffffffffffffff16612928565b156124be578373ffffffffffffffffffffffffffffffffffffffff1663150b7a0261238e611a40565b8786866040518563ffffffff1660e01b81526004016123b09493929190614505565b6020604051808303816000875af19250505080156123ec57506040513d601f19601f820116820180604052508101906123e99190614566565b60015b61246e573d806000811461241c576040519150601f19603f3d011682016040523d82523d6000602084013e612421565b606091505b506000815103612466576040517f08c379a000000000000000000000000000000000000000000000000000000000815260040161245d90614490565b60405180910390fd5b805181602001fd5b63150b7a0260e01b7bffffffffffffffffffffffffffffffffffffffffffffffffffffffff1916817bffffffffffffffffffffffffffffffffffffffffffffffffffffffff1916149150506124c3565b600190505b949350505050565b60007f80ac58cd000000000000000000000000000000000000000000000000000000007bffffffffffffffffffffffffffffffffffffffffffffffffffffffff1916827bffffffffffffffffffffffffffffffffffffffffffffffffffffffff1916148061259657507f5b5e139f000000000000000000000000000000000000000000000000000000007bffffffffffffffffffffffffffffffffffffffffffffffffffffffff1916827bffffffffffffffffffffffffffffffffffffffffffffffffffffffff1916145b806125a657506125a58261294b565b5b9050919050565b6125b9848484846129b5565b60018111156125fd576040517f08c379a00000000000000000000000000000000000000000000000000000000081526004016125f490614605565b60405180910390fd5b6000829050600073ffffffffffffffffffffffffffffffffffffffff168573ffffffffffffffffffffffffffffffffffffffff16036126445761263f81612adb565b612683565b8373ffffffffffffffffffffffffffffffffffffffff168573ffffffffffffffffffffffffffffffffffffffff1614612682576126818582612b24565b5b5b600073ffffffffffffffffffffffffffffffffffffffff168473ffffffffffffffffffffffffffffffffffffffff16036126c5576126c081612c91565b612704565b8473ffffffffffffffffffffffffffffffffffffffff168473ffffffffffffffffffffffffffffffffffffffff1614612703576127028482612d62565b5b5b5050505050565b600073ffffffffffffffffffffffffffffffffffffffff168273ffffffffffffffffffffffffffffffffffffffff160361277a576040517f08c379a000000000000000000000000000000000000000000000000000000000815260040161277190614671565b60405180910390fd5b61278381612290565b156127c3576040517f08c379a00000000000000000000000000000000000000000000000000000000081526004016127ba906146dd565b60405180910390fd5b6127d16000838360016122d1565b6127da81612290565b1561281a576040517f08c379a0000000000000000000000000000000000000000000000000000000008152600401612811906146dd565b60405180910390fd5b6001600360008473ffffffffffffffffffffffffffffffffffffffff1673ffffffffffffffffffffffffffffffffffffffff16815260200190815260200160002060008282540192505081905550816002600083815260200190815260200160002060006101000a81548173ffffffffffffffffffffffffffffffffffffffff021916908373ffffffffffffffffffffffffffffffffffffffff160217905550808273ffffffffffffffffffffffffffffffffffffffff16600073ffffffffffffffffffffffffffffffffffffffff167fddf252ad1be2c89b69c2b068fc378daa952ba7f163c4a11628f55a4df523b3ef60405160405180910390a46129246000838360016122e3565b5050565b6000808273ffffffffffffffffffffffffffffffffffffffff163b119050919050565b60007f01ffc9a7000000000000000000000000000000000000000000000000000000007bffffffffffffffffffffffffffffffffffffffffffffffffffffffff1916827bffffffffffffffffffffffffffffffffffffffffffffffffffffffff1916149050919050565b6001811115612ad557600073ffffffffffffffffffffffffffffffffffffffff168473ffffffffffffffffffffffffffffffffffffffff1614612a495780600360008673ffffffffffffffffffffffffffffffffffffffff1673ffffffffffffffffffffffffffffffffffffffff1681526020019081526020016000206000828254612a4191906146fd565b925050819055505b600073ffffffffffffffffffffffffffffffffffffffff168373ffffffffffffffffffffffffffffffffffffffff1614612ad45780600360008573ffffffffffffffffffffffffffffffffffffffff1673ffffffffffffffffffffffffffffffffffffffff1681526020019081526020016000206000828254612acc9190613e9f565b925050819055505b5b50505050565b6008805490506009600083815260200190815260200160002081905550600881908060018154018082558091505060019003906000526020600020016000909190919091505550565b60006001612b3184610ce3565b612b3b91906146fd565b9050600060076000848152602001908152602001600020549050818114612c20576000600660008673ffffffffffffffffffffffffffffffffffffffff1673ffffffffffffffffffffffffffffffffffffffff168152602001908152602001600020600084815260200190815260200160002054905080600660008773ffffffffffffffffffffffffffffffffffffffff1673ffffffffffffffffffffffffffffffffffffffff168152602001908152602001600020600084815260200190815260200160002081905550816007600083815260200190815260200160002081905550505b6007600084815260200190815260200160002060009055600660008573ffffffffffffffffffffffffffffffffffffffff1673ffffffffffffffffffffffffffffffffffffffff16815260200190815260200160002060008381526020019081526020016000206000905550505050565b60006001600880549050612ca591906146fd565b9050600060096000848152602001908152602001600020549050600060088381548110612cd557612cd461394a565b5b906000526020600020015490508060088381548110612cf757612cf661394a565b5b906000526020600020018190555081600960008381526020019081526020016000208190555060096000858152602001908152602001600020600090556008805480612d4657612d45614731565b5b6001900381819060005260206000200160009055905550505050565b6000612d6d83610ce3565b905081600660008573ffffffffffffffffffffffffffffffffffffffff1673ffffffffffffffffffffffffffffffffffffffff168152602001908152602001600020600083815260200190815260200160002081905550806007600084815260200190815260200160002081905550505050565b60008115159050919050565b612df681612de1565b82525050565b6000602082019050612e116000830184612ded565b92915050565b6000604051905090565b600080fd5b600080fd5b60007fffffffff0000000000000000000000000000000000000000000000000000000082169050919050565b612e6081612e2b565b8114612e6b57600080fd5b50565b600081359050612e7d81612e57565b92915050565b600060208284031215612e9957612e98612e21565b5b6000612ea784828501612e6e565b91505092915050565b600081519050919050565b600082825260208201905092915050565b60005b83811015612eea578082015181840152602081019050612ecf565b60008484015250505050565b6000601f19601f8301169050919050565b6000612f1282612eb0565b612f1c8185612ebb565b9350612f2c818560208601612ecc565b612f3581612ef6565b840191505092915050565b60006020820190508181036000830152612f5a8184612f07565b905092915050565b6000819050919050565b612f7581612f62565b8114612f8057600080fd5b50565b600081359050612f9281612f6c565b92915050565b600060208284031215612fae57612fad612e21565b5b6000612fbc84828501612f83565b91505092915050565b600073ffffffffffffffffffffffffffffffffffffffff82169050919050565b6000612ff082612fc5565b9050919050565b61300081612fe5565b82525050565b600060208201905061301b6000830184612ff7565b92915050565b61302a81612fe5565b811461303557600080fd5b50565b60008135905061304781613021565b92915050565b6000806040838503121561306457613063612e21565b5b600061307285828601613038565b925050602061308385828601612f83565b9150509250929050565b61309681612f62565b82525050565b60006020820190506130b1600083018461308d565b92915050565b6000806000606084860312156130d0576130cf612e21565b5b60006130de86828701613038565b93505060206130ef86828701613038565b925050604061310086828701612f83565b9150509250925092565b6000806040838503121561312157613120612e21565b5b600061312f85828601612f83565b925050602061314085828601612f83565b9150509250929050565b600060408201905061315f6000830185612ff7565b61316c602083018461308d565b9392505050565b600061317e82612fc5565b9050919050565b61318e81613173565b811461319957600080fd5b50565b6000813590506131ab81613185565b92915050565b6000602082840312156131c7576131c6612e21565b5b60006131d58482850161319c565b91505092915050565b6000602082840312156131f4576131f3612e21565b5b600061320284828501613038565b91505092915050565b61321481612de1565b811461321f57600080fd5b50565b6000813590506132318161320b565b92915050565b60006020828403121561324d5761324c612e21565b5b600061325b84828501613222565b91505092915050565b6000806040838503121561327b5761327a612e21565b5b600061328985828601613038565b925050602061329a85828601613222565b9150509250929050565b600080fd5b600080fd5b7f4e487b7100000000000000000000000000000000000000000000000000000000600052604160045260246000fd5b6132e682612ef6565b810181811067ffffffffffffffff82111715613305576133046132ae565b5b80604052505050565b6000613318612e17565b905061332482826132dd565b919050565b600067ffffffffffffffff821115613344576133436132ae565b5b61334d82612ef6565b9050602081019050919050565b82818337600083830152505050565b600061337c61337784613329565b61330e565b905082815260208101848484011115613398576133976132a9565b5b6133a384828561335a565b509392505050565b600082601f8301126133c0576133bf6132a4565b5b81356133d0848260208601613369565b91505092915050565b600080600080608085870312156133f3576133f2612e21565b5b600061340187828801613038565b945050602061341287828801613038565b935050604061342387828801612f83565b925050606085013567ffffffffffffffff81111561344457613443612e26565b5b613450878288016133ab565b91505092959194509250565b60006060820190506134716000830186612ded565b61347e6020830185612ff7565b61348b604083018461308d565b949350505050565b600080604083850312156134aa576134a9612e21565b5b60006134b885828601613038565b92505060206134c985828601613038565b9150509250929050565b7f4e487b7100000000000000000000000000000000000000000000000000000000600052602260045260246000fd5b6000600282049050600182168061351a57607f821691505b60208210810361352d5761352c6134d3565b5b50919050565b7f4552433732313a20617070726f76616c20746f2063757272656e74206f776e6560008201527f7200000000000000000000000000000000000000000000000000000000000000602082015250565b600061358f602183612ebb565b915061359a82613533565b604082019050919050565b600060208201905081810360008301526135be81613582565b9050919050565b7f4552433732313a20617070726f76652063616c6c6572206973206e6f7420746f60008201527f6b656e206f776e6572206f7220617070726f76656420666f7220616c6c000000602082015250565b6000613621603d83612ebb565b915061362c826135c5565b604082019050919050565b6000602082019050818103600083015261365081613614565b9050919050565b7f4552433732313a2063616c6c6572206973206e6f7420746f6b656e206f776e6560008201527f72206f7220617070726f76656400000000000000000000000000000000000000602082015250565b60006136b3602d83612ebb565b91506136be82613657565b604082019050919050565b600060208201905081810360008301526136e2816136a6565b9050919050565b7f466565206d757374206265206c657373206f7220657175616c20746f20333325600082015250565b600061371f602083612ebb565b915061372a826136e9565b602082019050919050565b6000602082019050818103600083015261374e81613712565b9050919050565b7f4e487b7100000000000000000000000000000000000000000000000000000000600052601160045260246000fd5b600061378f82612f62565b915061379a83612f62565b92508282026137a881612f62565b915082820484148315176137bf576137be613755565b5b5092915050565b7f4e487b7100000000000000000000000000000000000000000000000000000000600052601260045260246000fd5b600061380082612f62565b915061380b83612f62565b92508261381b5761381a6137c6565b5b828204905092915050565b7f455243373231456e756d657261626c653a206f776e657220696e646578206f7560008201527f74206f6620626f756e6473000000000000000000000000000000000000000000602082015250565b6000613882602b83612ebb565b915061388d82613826565b604082019050919050565b600060208201905081810360008301526138b181613875565b9050919050565b7f455243373231456e756d657261626c653a20676c6f62616c20696e646578206f60008201527f7574206f6620626f756e64730000000000000000000000000000000000000000602082015250565b6000613914602c83612ebb565b915061391f826138b8565b604082019050919050565b6000602082019050818103600083015261394381613907565b9050919050565b7f4e487b7100000000000000000000000000000000000000000000000000000000600052603260045260246000fd5b7f4552433732313a20696e76616c696420746f6b656e2049440000000000000000600082015250565b60006139af601883612ebb565b91506139ba82613979565b602082019050919050565b600060208201905081810360008301526139de816139a2565b9050919050565b7f4552433732313a2061646472657373207a65726f206973206e6f74206120766160008201527f6c6964206f776e65720000000000000000000000000000000000000000000000602082015250565b6000613a41602983612ebb565b9150613a4c826139e5565b604082019050919050565b60006020820190508181036000830152613a7081613a34565b9050919050565b7f4d696e74696e67206973206e6f74206f70656e00000000000000000000000000600082015250565b6000613aad601383612ebb565b9150613ab882613a77565b602082019050919050565b60006020820190508181036000830152613adc81613aa0565b9050919050565b600080fd5b600081519050613af781612f6c565b92915050565b600081519050613b0c8161320b565b92915050565b600060408284031215613b2857613b27613ae3565b5b613b32604061330e565b90506000613b4284828501613ae8565b6000830152506020613b5684828501613afd565b60208301525092915050565b600060408284031215613b7857613b77612e21565b5b6000613b8684828501613b12565b91505092915050565b7f41646472657373206e6f742077686974656c6973746564000000000000000000600082015250565b6000613bc5601783612ebb565b9150613bd082613b8f565b602082019050919050565b60006020820190508181036000830152613bf481613bb8565b9050919050565b7f546f6b656e2068617320616c7265616479206265656e206d696e746564000000600082015250565b6000613c31601d83612ebb565b9150613c3c82613bfb565b602082019050919050565b60006020820190508181036000830152613c6081613c24565b9050919050565b7f546f6b656e20494420697320696e76616c696400000000000000000000000000600082015250565b6000613c9d601383612ebb565b9150613ca882613c67565b602082019050919050565b60006020820190508181036000830152613ccc81613c90565b9050919050565b600081519050613ce281613185565b92915050565b600060a08284031215613cfe57613cfd613ae3565b5b613d0860a061330e565b90506000613d1884828501613ae8565b6000830152506020613d2c84828501613cd3565b6020830152506040613d4084828501613ae8565b6040830152506060613d5484828501613ae8565b6060830152506080613d6884828501613afd565b60808301525092915050565b600060a08284031215613d8a57613d89612e21565b5b6000613d9884828501613ce8565b91505092915050565b7f41756374696f6e206973206e6f7420636c6f7365640000000000000000000000600082015250565b6000613dd7601583612ebb565b9150613de282613da1565b602082019050919050565b60006020820190508181036000830152613e0681613dca565b9050919050565b7f596f7520617265206e6f74207468652077696e6e6572206f662074686973206160008201527f756374696f6e0000000000000000000000000000000000000000000000000000602082015250565b6000613e69602683612ebb565b9150613e7482613e0d565b604082019050919050565b60006020820190508181036000830152613e9881613e5c565b9050919050565b6000613eaa82612f62565b9150613eb583612f62565b9250828201905080821115613ecd57613ecc613755565b5b92915050565b7f546f6b656e20494420697320746f6f2068696768000000000000000000000000600082015250565b6000613f09601483612ebb565b9150613f1482613ed3565b602082019050919050565b60006020820190508181036000830152613f3881613efc565b9050919050565b7f5465616d2063616e206f6e6c79206d696e742033303020746f6b656e7320696e60008201527f2032303233000000000000000000000000000000000000000000000000000000602082015250565b6000613f9b602583612ebb565b9150613fa682613f3f565b604082019050919050565b60006020820190508181036000830152613fca81613f8e565b9050919050565b7f5465616d2063616e206f6e6c79206d696e742033303020746f6b656e7320696e60008201527f2032303234000000000000000000000000000000000000000000000000000000602082015250565b600061402d602583612ebb565b915061403882613fd1565b604082019050919050565b6000602082019050818103600083015261405c81614020565b9050919050565b7f5465616d2063616e206f6e6c79206d696e74207468652072656d61696e696e6760008201527f20746f6b656e7320696e20323032350000000000000000000000000000000000602082015250565b60006140bf602f83612ebb565b91506140ca82614063565b604082019050919050565b600060208201905081810360008301526140ee816140b2565b9050919050565b600061410082612f62565b91507fffffffffffffffffffffffffffffffffffffffffffffffffffffffffffffffff820361413257614131613755565b5b600182019050919050565b600081905092915050565b600061415382612eb0565b61415d818561413d565b935061416d818560208601612ecc565b80840191505092915050565b60006141858284614148565b915081905092915050565b7f4f776e61626c653a206e6577206f776e657220697320746865207a65726f206160008201527f6464726573730000000000000000000000000000000000000000000000000000602082015250565b60006141ec602683612ebb565b91506141f782614190565b604082019050919050565b6000602082019050818103600083015261421b816141df565b9050919050565b7f4552433732313a207472616e736665722066726f6d20696e636f72726563742060008201527f6f776e6572000000000000000000000000000000000000000000000000000000602082015250565b600061427e602583612ebb565b915061428982614222565b604082019050919050565b600060208201905081810360008301526142ad81614271565b9050919050565b7f4552433732313a207472616e7366657220746f20746865207a65726f2061646460008201527f7265737300000000000000000000000000000000000000000000000000000000602082015250565b6000614310602483612ebb565b915061431b826142b4565b604082019050919050565b6000602082019050818103600083015261433f81614303565b9050919050565b7f4f776e61626c653a2063616c6c6572206973206e6f7420746865206f776e6572600082015250565b600061437c602083612ebb565b915061438782614346565b602082019050919050565b600060208201905081810360008301526143ab8161436f565b9050919050565b7f4552433732313a20617070726f766520746f2063616c6c657200000000000000600082015250565b60006143e8601983612ebb565b91506143f3826143b2565b602082019050919050565b60006020820190508181036000830152614417816143db565b9050919050565b7f4552433732313a207472616e7366657220746f206e6f6e20455243373231526560008201527f63656976657220696d706c656d656e7465720000000000000000000000000000602082015250565b600061447a603283612ebb565b91506144858261441e565b604082019050919050565b600060208201905081810360008301526144a98161446d565b9050919050565b600081519050919050565b600082825260208201905092915050565b60006144d7826144b0565b6144e181856144bb565b93506144f1818560208601612ecc565b6144fa81612ef6565b840191505092915050565b600060808201905061451a6000830187612ff7565b6145276020830186612ff7565b614534604083018561308d565b818103606083015261454681846144cc565b905095945050505050565b60008151905061456081612e57565b92915050565b60006020828403121561457c5761457b612e21565b5b600061458a84828501614551565b91505092915050565b7f455243373231456e756d657261626c653a20636f6e736563757469766520747260008201527f616e7366657273206e6f7420737570706f727465640000000000000000000000602082015250565b60006145ef603583612ebb565b91506145fa82614593565b604082019050919050565b6000602082019050818103600083015261461e816145e2565b9050919050565b7f4552433732313a206d696e7420746f20746865207a65726f2061646472657373600082015250565b600061465b602083612ebb565b915061466682614625565b602082019050919050565b6000602082019050818103600083015261468a8161464e565b9050919050565b7f4552433732313a20746f6b656e20616c7265616479206d696e74656400000000600082015250565b60006146c7601c83612ebb565b91506146d282614691565b602082019050919050565b600060208201905081810360008301526146f6816146ba565b9050919050565b600061470882612f62565b915061471383612f62565b925082820390508181111561472b5761472a613755565b5b92915050565b7f4e487b7100000000000000000000000000000000000000000000000000000000600052603160045260246000fdfe697066733a2f2f516d57474b384446796133786e363432674c7470357a64547a326b4b4a6574616956583872617a424c354e7a75342f737461636b73a2646970667358221220bfd1071ddbb33bc8cf629662a498412f7015144add1e24e5f02eb1d52c6aaac264736f6c63430008110033",
  "immutableReferences": {},
  "source": "// SPDX-License-Identifier: MIT\npragma solidity >=0.4.22 <0.9.0;\n\nimport \"@openzeppelin/contracts/access/Ownable.sol\";\nimport \"@openzeppelin/contracts/token/ERC721/ERC721.sol\";\nimport \"@openzeppelin/contracts/token/ERC721/extensions/ERC721Enumerable.sol\";\nimport \"@openzeppelin/contracts/token/common/ERC2981.sol\";\nimport \"./WhitelistData.sol\";\nimport \"./StacksAuctionHouse.sol\";\n\ncontract Stacks is ERC721, ERC721Enumerable, ERC2981, Ownable {\n  bytes4 private constant _INTERFACE_ID_ERC2981 = 0x2a55205a;\n\n  uint public constant PERCENT_DIVIDER = 10000;\n  uint public SALE_FEE = 1000; // 10%\n\n  bool public wlMintOpen;\n\n  mapping(uint => TokenMetaData) public tokenMetaDataRecord;\n\n  address public auctionHouse;\n  bool public mintOpen;\n  uint public maxSupply = 5000; // Immutable\n  uint public softCap = 4009; // Available for auction - Immutable\n  uint public teamMinted = 0;\n  address public wlDataAddress;\n  address public treasuryAddress;\n\n  struct TokenMetaData {\n    bool minted;\n    address minter;\n    uint timestamp;\n  }\n\n  constructor(address _treasuryAddress, address _wlDataAddress) ERC721(\"Stacks Investment Card\", \"STACKS\") {\n    treasuryAddress = _treasuryAddress;\n    wlDataAddress = _wlDataAddress;\n  }\n\n  function mint(uint _tokenId) public {\n    require(mintOpen, \"Minting is not open\");\n    require(_tokenId >=0 && _tokenId <= maxSupply, \"Token ID is invalid\");\n\n    StacksAuctionHouse auctionHouseContract = StacksAuctionHouse(auctionHouse);\n    StacksAuctionHouse.Auction memory auction = auctionHouseContract.getAuction(_tokenId);\n    require(auction.endTime < block.timestamp, \"Auction is not closed\");\n    require(auction.topBidder == msg.sender, \"You are not the winner of this auction\");\n\n    require(!tokenMetaDataRecord[_tokenId].minted, \"Token has already been minted\");\n\n    tokenMetaDataRecord[_tokenId] = TokenMetaData(true, msg.sender, block.timestamp);\n    _safeMint(msg.sender, _tokenId);\n  }\n\n  // Admin functions\n  function setTreasuryAddress(address payable _treasuryAddress) public onlyOwner {\n    treasuryAddress = _treasuryAddress;\n  }\n\n  function setAuctionHouse(address _auctionHouse) public onlyOwner {\n    auctionHouse = _auctionHouse;\n  }\n\n  function toggleMint(bool _open) public onlyOwner {\n    mintOpen = _open;\n  }\n\n  function toggleWlMint(bool _open) public onlyOwner {\n    wlMintOpen = _open;\n  }\n\n  function wlMint() public {\n    require(wlMintOpen, \"Minting is not open\");\n    WhitelistData.Account memory wlAccount = WhitelistData(wlDataAddress).getWhitelistAccount(msg.sender);\n    require(wlAccount.exists, \"Address not whitelisted\");\n\n    uint _tokenId = wlAccount.tokenId;\n    require(!tokenMetaDataRecord[_tokenId].minted, \"Token has already been minted\");\n\n    tokenMetaDataRecord[_tokenId] = TokenMetaData(true, msg.sender, block.timestamp);\n    _safeMint(msg.sender, _tokenId);\n  }\n\n  // Mint token for team members\n  function teamMint(address _teamMember) public onlyOwner {\n    // _tokenId for team is between 4010 and 5000\n    uint _tokenId = softCap + teamMinted + 1;\n    require(_tokenId <= maxSupply, \"Token ID is too high\");\n\n    // make it so team can only mint 300 tokens per year\n    // 2023: 4010 - 4309\n    if(_tokenId >= 4310) {\n      // 2024: 4310 - 4609\n      require(block.timestamp > 1704067199, \"Team can only mint 300 tokens in 2023\"); // 31/12/2023\n    }\n    if(_tokenId >= 4610) {\n      // 2025: 4610 - 4909\n      require(block.timestamp > 1735689599, \"Team can only mint 300 tokens in 2024\"); // 31/12/2024\n    }\n    if(_tokenId >= 4910) {\n      // 2026: 4910 - 5000\n      require(block.timestamp > 1767225599, \"Team can only mint the remaining tokens in 2025\"); // 31/12/2025\n    }\n\n    // set mint timestamp\n    tokenMetaDataRecord[_tokenId] = TokenMetaData(true, _teamMember, block.timestamp);\n    // mint token\n    _safeMint(_teamMember, _tokenId);\n    teamMinted++;\n  }\n\n  function setRegularFee(uint _SALE_FEE) public onlyOwner {\n    require(_SALE_FEE <= 3300, \"Fee must be less or equal to 33%\");\n    SALE_FEE = _SALE_FEE;\n  }\n\n  function supportsInterface(bytes4 _interfaceId) public view virtual override(ERC721, ERC2981, ERC721Enumerable) returns (bool) {\n    if (_interfaceId == _INTERFACE_ID_ERC2981) { return true; }\n    return super.supportsInterface(_interfaceId);\n  }\n\n  function royaltyInfo(uint256, uint256 _salePrice) override view public returns (address receiver, uint256 royaltyAmount){\n    return (treasuryAddress, _salePrice * SALE_FEE / PERCENT_DIVIDER);\n  }\n\n  // Overwrite tokenURI\n  // ignore tokenId as all the tokens have the same image\n  function tokenURI(uint256 _tokenId) public view virtual override returns (string memory) {\n    _requireMinted(_tokenId);\n    return string(abi.encodePacked(_baseURI()));\n  }\n\n  // Overwrite _baseURI\n  function _baseURI() override pure internal returns (string memory) {\n    return \"ipfs://QmWGK8DFya3xn642gLtp5zdTz2kKJetaiVX8razBL5Nzu4/stacks\";\n  }\n\n  function _beforeTokenTransfer(address from, address to, uint256 firstTokenId, uint256 batchSize) internal virtual override(ERC721, ERC721Enumerable) {\n    return super._beforeTokenTransfer(from, to, firstTokenId, batchSize);\n  }\n}\n",
  "sourcePath": "/Users/bruno/dev/crypto/stacks/contracts/Stacks.sol",
  "compiler": {
    "name": "solc",
    "version": "0.8.17+commit.8df45f5f.Emscripten.clang"
  },
  "schemaVersion": "3.4.10",
  "updatedAt": "2023-02-17T15:43:47.334Z",
  "networkType": "ethereum",
  "devdoc": {
    "kind": "dev",
    "methods": {
      "approve(address,uint256)": {
        "details": "See {IERC721-approve}."
      },
      "balanceOf(address)": {
        "details": "See {IERC721-balanceOf}."
      },
      "getApproved(uint256)": {
        "details": "See {IERC721-getApproved}."
      },
      "isApprovedForAll(address,address)": {
        "details": "See {IERC721-isApprovedForAll}."
      },
      "name()": {
        "details": "See {IERC721Metadata-name}."
      },
      "owner()": {
        "details": "Returns the address of the current owner."
      },
      "ownerOf(uint256)": {
        "details": "See {IERC721-ownerOf}."
      },
      "renounceOwnership()": {
        "details": "Leaves the contract without owner. It will not be possible to call `onlyOwner` functions anymore. Can only be called by the current owner. NOTE: Renouncing ownership will leave the contract without an owner, thereby removing any functionality that is only available to the owner."
      },
      "safeTransferFrom(address,address,uint256)": {
        "details": "See {IERC721-safeTransferFrom}."
      },
      "safeTransferFrom(address,address,uint256,bytes)": {
        "details": "See {IERC721-safeTransferFrom}."
      },
      "setApprovalForAll(address,bool)": {
        "details": "See {IERC721-setApprovalForAll}."
      },
      "symbol()": {
        "details": "See {IERC721Metadata-symbol}."
      },
      "tokenByIndex(uint256)": {
        "details": "See {IERC721Enumerable-tokenByIndex}."
      },
      "tokenOfOwnerByIndex(address,uint256)": {
        "details": "See {IERC721Enumerable-tokenOfOwnerByIndex}."
      },
      "totalSupply()": {
        "details": "See {IERC721Enumerable-totalSupply}."
      },
      "transferFrom(address,address,uint256)": {
        "details": "See {IERC721-transferFrom}."
      },
      "transferOwnership(address)": {
        "details": "Transfers ownership of the contract to a new account (`newOwner`). Can only be called by the current owner."
      }
    },
    "version": 1
  },
  "userdoc": {
    "kind": "user",
    "methods": {},
    "version": 1
  }
}