{
  "contractName": "StacksAuctionHouse",
  "abi": [
    {
      "inputs": [
        {
          "internalType": "address",
          "name": "_stacksAddress",
          "type": "address"
        },
        {
          "internalType": "address payable",
          "name": "_treasuryAddress",
          "type": "address"
        }
      ],
      "stateMutability": "nonpayable",
      "type": "constructor"
    },
    {
      "anonymous": false,
      "inputs": [
        {
          "indexed": true,
          "internalType": "address",
          "name": "previousOwner",
          "type": "address"
        },
        {
          "indexed": true,
          "internalType": "address",
          "name": "newOwner",
          "type": "address"
        }
      ],
      "name": "OwnershipTransferred",
      "type": "event"
    },
    {
      "inputs": [
        {
          "internalType": "uint256",
          "name": "",
          "type": "uint256"
        }
      ],
      "name": "auctionWinner",
      "outputs": [
        {
          "internalType": "address payable",
          "name": "",
          "type": "address"
        }
      ],
      "stateMutability": "view",
      "type": "function"
    },
    {
      "inputs": [
        {
          "internalType": "uint256",
          "name": "",
          "type": "uint256"
        }
      ],
      "name": "auctions",
      "outputs": [
        {
          "internalType": "uint256",
          "name": "endPrice",
          "type": "uint256"
        },
        {
          "internalType": "uint256",
          "name": "startTime",
          "type": "uint256"
        },
        {
          "internalType": "uint256",
          "name": "endTime",
          "type": "uint256"
        },
        {
          "internalType": "bool",
          "name": "active",
          "type": "bool"
        }
      ],
      "stateMutability": "view",
      "type": "function"
    },
    {
      "inputs": [],
      "name": "owner",
      "outputs": [
        {
          "internalType": "address",
          "name": "",
          "type": "address"
        }
      ],
      "stateMutability": "view",
      "type": "function"
    },
    {
      "inputs": [],
      "name": "renounceOwnership",
      "outputs": [],
      "stateMutability": "nonpayable",
      "type": "function"
    },
    {
      "inputs": [],
      "name": "stacks",
      "outputs": [
        {
          "internalType": "contract Stacks",
          "name": "",
          "type": "address"
        }
      ],
      "stateMutability": "view",
      "type": "function"
    },
    {
      "inputs": [],
      "name": "totalAuctions",
      "outputs": [
        {
          "internalType": "uint256",
          "name": "",
          "type": "uint256"
        }
      ],
      "stateMutability": "view",
      "type": "function"
    },
    {
      "inputs": [
        {
          "internalType": "address",
          "name": "newOwner",
          "type": "address"
        }
      ],
      "name": "transferOwnership",
      "outputs": [],
      "stateMutability": "nonpayable",
      "type": "function"
    },
    {
      "inputs": [],
      "name": "treasuryAddress",
      "outputs": [
        {
          "internalType": "address payable",
          "name": "",
          "type": "address"
        }
      ],
      "stateMutability": "view",
      "type": "function"
    },
    {
      "inputs": [],
      "name": "getCurrentAuction",
      "outputs": [
        {
          "components": [
            {
              "internalType": "uint256",
              "name": "endPrice",
              "type": "uint256"
            },
            {
              "internalType": "uint256",
              "name": "startTime",
              "type": "uint256"
            },
            {
              "internalType": "uint256",
              "name": "endTime",
              "type": "uint256"
            },
            {
              "internalType": "bool",
              "name": "active",
              "type": "bool"
            }
          ],
          "internalType": "struct StacksAuctionHouse.Auction",
          "name": "",
          "type": "tuple"
        }
      ],
      "stateMutability": "view",
      "type": "function"
    },
    {
      "inputs": [
        {
          "internalType": "uint256",
          "name": "_tokenId",
          "type": "uint256"
        }
      ],
      "name": "getAuction",
      "outputs": [
        {
          "components": [
            {
              "internalType": "uint256",
              "name": "endPrice",
              "type": "uint256"
            },
            {
              "internalType": "uint256",
              "name": "startTime",
              "type": "uint256"
            },
            {
              "internalType": "uint256",
              "name": "endTime",
              "type": "uint256"
            },
            {
              "internalType": "bool",
              "name": "active",
              "type": "bool"
            }
          ],
          "internalType": "struct StacksAuctionHouse.Auction",
          "name": "",
          "type": "tuple"
        }
      ],
      "stateMutability": "view",
      "type": "function"
    },
    {
      "inputs": [],
      "name": "bid",
      "outputs": [],
      "stateMutability": "payable",
      "type": "function"
    },
    {
      "inputs": [
        {
          "internalType": "address payable",
          "name": "_treasuryAddress",
          "type": "address"
        }
      ],
      "name": "setTreasuryAddress",
      "outputs": [],
      "stateMutability": "nonpayable",
      "type": "function"
    }
  ],
  "bytecode": "0x608060405260006004553480156200001657600080fd5b50604051620016843803806200168483398181016040528101906200003c919062000412565b6200005c620000506200018b60201b60201c565b6200019360201b60201c565b81600160006101000a81548173ffffffffffffffffffffffffffffffffffffffff021916908373ffffffffffffffffffffffffffffffffffffffff16021790555080600560006101000a81548173ffffffffffffffffffffffffffffffffffffffff021916908373ffffffffffffffffffffffffffffffffffffffff16021790555060006363fe95809050604051806080016040528060008152602001828152602001620151808362000110919062000492565b8152602001600115158152506002600080815260200190815260200160002060008201518160000155602082015181600101556040820151816002015560608201518160030160006101000a81548160ff0219169083151502179055509050506200018260016200025760201b60201c565b50505062000508565b600033905090565b60008060009054906101000a900473ffffffffffffffffffffffffffffffffffffffff169050816000806101000a81548173ffffffffffffffffffffffffffffffffffffffff021916908373ffffffffffffffffffffffffffffffffffffffff1602179055508173ffffffffffffffffffffffffffffffffffffffff168173ffffffffffffffffffffffffffffffffffffffff167f8be0079c531659141344cd1fd0a4f28419497f9722a3daafe3b4186f6b6457e060405160405180910390a35050565b6000600260006001846200026c9190620004cd565b81526020019081526020016000206040518060800160405290816000820154815260200160018201548152602001600282015481526020016003820160009054906101000a900460ff161515151581525050905060405180608001604052806000815260200160018360400151620002e5919062000492565b8152602001620151808360400151620002ff919062000492565b8152602001600015158152506002600084815260200190815260200160002060008201518160000155602082015181600101556040820151816002015560608201518160030160006101000a81548160ff0219169083151502179055509050505050565b600080fd5b600073ffffffffffffffffffffffffffffffffffffffff82169050919050565b6000620003958262000368565b9050919050565b620003a78162000388565b8114620003b357600080fd5b50565b600081519050620003c7816200039c565b92915050565b6000620003da8262000368565b9050919050565b620003ec81620003cd565b8114620003f857600080fd5b50565b6000815190506200040c81620003e1565b92915050565b600080604083850312156200042c576200042b62000363565b5b60006200043c85828601620003b6565b92505060206200044f85828601620003fb565b9150509250929050565b6000819050919050565b7f4e487b7100000000000000000000000000000000000000000000000000000000600052601160045260246000fd5b60006200049f8262000459565b9150620004ac8362000459565b9250828201905080821115620004c757620004c662000463565b5b92915050565b6000620004da8262000459565b9150620004e78362000459565b925082820390508181111562000502576200050162000463565b5b92915050565b61116c80620005186000396000f3fe6080604052600436106100a75760003560e01c80638da5cb5b116100645780638da5cb5b1461019e578063c5f956af146101c9578063d101d228146101f4578063dcb66f121461021f578063f2fde38b1461024a578063fe0dad2514610273576100a7565b806316002f4a146100ac5780631998aeef146100d7578063571a26a0146100e15780636605bfda14610121578063715018a61461014a57806378bd793514610161575b600080fd5b3480156100b857600080fd5b506100c16102b0565b6040516100ce9190610b67565b60405180910390f35b6100df6102b6565b005b3480156100ed57600080fd5b5061010860048036038101906101039190610bb3565b61042d565b6040516101189493929190610bfb565b60405180910390f35b34801561012d57600080fd5b5061014860048036038101906101439190610c9e565b61046a565b005b34801561015657600080fd5b5061015f6104b6565b005b34801561016d57600080fd5b5061018860048036038101906101839190610bb3565b6104ca565b6040516101959190610d3e565b60405180910390f35b3480156101aa57600080fd5b506101b3610530565b6040516101c09190610d7a565b60405180910390f35b3480156101d557600080fd5b506101de610559565b6040516101eb9190610da4565b60405180910390f35b34801561020057600080fd5b5061020961057f565b6040516102169190610e1e565b60405180910390f35b34801561022b57600080fd5b506102346105a5565b6040516102419190610d3e565b60405180910390f35b34801561025657600080fd5b50610271600480360381019061026c9190610e65565b61060b565b005b34801561027f57600080fd5b5061029a60048036038101906102959190610bb3565b61068e565b6040516102a79190610da4565b60405180910390f35b60045481565b60006102c06105a5565b905080600001513411610308576040517f08c379a00000000000000000000000000000000000000000000000000000000081526004016102ff90610eef565b60405180910390fd5b600081600001519050600060036000600454815260200190815260200160002060009054906101000a900473ffffffffffffffffffffffffffffffffffffffff1690503360036000600454815260200190815260200160002060006101000a81548173ffffffffffffffffffffffffffffffffffffffff021916908373ffffffffffffffffffffffffffffffffffffffff16021790555034600260006004548152602001908152602001600020600001819055508073ffffffffffffffffffffffffffffffffffffffff166108fc839081150290604051600060405180830381858888f19350505050158015610402573d6000803e3d6000fd5b50428360400151108015610417575082606001515b15610428576104276004546106c1565b5b505050565b60026020528060005260406000206000915090508060000154908060010154908060020154908060030160009054906101000a900460ff16905084565b61047261080f565b80600560006101000a81548173ffffffffffffffffffffffffffffffffffffffff021916908373ffffffffffffffffffffffffffffffffffffffff16021790555050565b6104be61080f565b6104c8600061088d565b565b6104d2610b24565b600260008381526020019081526020016000206040518060800160405290816000820154815260200160018201548152602001600282015481526020016003820160009054906101000a900460ff1615151515815250509050919050565b60008060009054906101000a900473ffffffffffffffffffffffffffffffffffffffff16905090565b600560009054906101000a900473ffffffffffffffffffffffffffffffffffffffff1681565b600160009054906101000a900473ffffffffffffffffffffffffffffffffffffffff1681565b6105ad610b24565b6002600060045481526020019081526020016000206040518060800160405290816000820154815260200160018201548152602001600282015481526020016003820160009054906101000a900460ff161515151581525050905090565b61061361080f565b600073ffffffffffffffffffffffffffffffffffffffff168173ffffffffffffffffffffffffffffffffffffffff1603610682576040517f08c379a000000000000000000000000000000000000000000000000000000000815260040161067990610f81565b60405180910390fd5b61068b8161088d565b50565b60036020528060005260406000206000915054906101000a900473ffffffffffffffffffffffffffffffffffffffff1681565b6000600260008381526020019081526020016000206040518060800160405290816000820154815260200160018201548152602001600282015481526020016003820160009054906101000a900460ff161515151581525050905060008160600190151590811515815250506001600260006001856107409190610fd0565b815260200190815260200160002060030160006101000a81548160ff02191690831515021790555061077d6002836107789190610fd0565b610951565b6004600081548092919061079090611004565b919050555061079e82610a57565b600560009054906101000a900473ffffffffffffffffffffffffffffffffffffffff1673ffffffffffffffffffffffffffffffffffffffff166108fc82600001519081150290604051600060405180830381858888f1935050505015801561080a573d6000803e3d6000fd5b505050565b610817610b1c565b73ffffffffffffffffffffffffffffffffffffffff16610835610530565b73ffffffffffffffffffffffffffffffffffffffff161461088b576040517f08c379a000000000000000000000000000000000000000000000000000000000815260040161088290611098565b60405180910390fd5b565b60008060009054906101000a900473ffffffffffffffffffffffffffffffffffffffff169050816000806101000a81548173ffffffffffffffffffffffffffffffffffffffff021916908373ffffffffffffffffffffffffffffffffffffffff1602179055508173ffffffffffffffffffffffffffffffffffffffff168173ffffffffffffffffffffffffffffffffffffffff167f8be0079c531659141344cd1fd0a4f28419497f9722a3daafe3b4186f6b6457e060405160405180910390a35050565b60006002600060018461096491906110b8565b81526020019081526020016000206040518060800160405290816000820154815260200160018201548152602001600282015481526020016003820160009054906101000a900460ff1615151515815250509050604051806080016040528060008152602001600183604001516109db9190610fd0565b81526020016201518083604001516109f39190610fd0565b8152602001600015158152506002600084815260200190815260200160002060008201518160000155602082015181600101556040820151816002015560608201518160030160006101000a81548160ff0219169083151502179055509050505050565b600160009054906101000a900473ffffffffffffffffffffffffffffffffffffffff1673ffffffffffffffffffffffffffffffffffffffff16632f271630826003600085815260200190815260200160002060009054906101000a900473ffffffffffffffffffffffffffffffffffffffff166040518363ffffffff1660e01b8152600401610ae792919061110d565b600060405180830381600087803b158015610b0157600080fd5b505af1158015610b15573d6000803e3d6000fd5b5050505050565b600033905090565b60405180608001604052806000815260200160008152602001600081526020016000151581525090565b6000819050919050565b610b6181610b4e565b82525050565b6000602082019050610b7c6000830184610b58565b92915050565b600080fd5b610b9081610b4e565b8114610b9b57600080fd5b50565b600081359050610bad81610b87565b92915050565b600060208284031215610bc957610bc8610b82565b5b6000610bd784828501610b9e565b91505092915050565b60008115159050919050565b610bf581610be0565b82525050565b6000608082019050610c106000830187610b58565b610c1d6020830186610b58565b610c2a6040830185610b58565b610c376060830184610bec565b95945050505050565b600073ffffffffffffffffffffffffffffffffffffffff82169050919050565b6000610c6b82610c40565b9050919050565b610c7b81610c60565b8114610c8657600080fd5b50565b600081359050610c9881610c72565b92915050565b600060208284031215610cb457610cb3610b82565b5b6000610cc284828501610c89565b91505092915050565b610cd481610b4e565b82525050565b610ce381610be0565b82525050565b608082016000820151610cff6000850182610ccb565b506020820151610d126020850182610ccb565b506040820151610d256040850182610ccb565b506060820151610d386060850182610cda565b50505050565b6000608082019050610d536000830184610ce9565b92915050565b6000610d6482610c40565b9050919050565b610d7481610d59565b82525050565b6000602082019050610d8f6000830184610d6b565b92915050565b610d9e81610c60565b82525050565b6000602082019050610db96000830184610d95565b92915050565b6000819050919050565b6000610de4610ddf610dda84610c40565b610dbf565b610c40565b9050919050565b6000610df682610dc9565b9050919050565b6000610e0882610deb565b9050919050565b610e1881610dfd565b82525050565b6000602082019050610e336000830184610e0f565b92915050565b610e4281610d59565b8114610e4d57600080fd5b50565b600081359050610e5f81610e39565b92915050565b600060208284031215610e7b57610e7a610b82565b5b6000610e8984828501610e50565b91505092915050565b600082825260208201905092915050565b7f42696420697320746f6f206c6f77000000000000000000000000000000000000600082015250565b6000610ed9600e83610e92565b9150610ee482610ea3565b602082019050919050565b60006020820190508181036000830152610f0881610ecc565b9050919050565b7f4f776e61626c653a206e6577206f776e657220697320746865207a65726f206160008201527f6464726573730000000000000000000000000000000000000000000000000000602082015250565b6000610f6b602683610e92565b9150610f7682610f0f565b604082019050919050565b60006020820190508181036000830152610f9a81610f5e565b9050919050565b7f4e487b7100000000000000000000000000000000000000000000000000000000600052601160045260246000fd5b6000610fdb82610b4e565b9150610fe683610b4e565b9250828201905080821115610ffe57610ffd610fa1565b5b92915050565b600061100f82610b4e565b91507fffffffffffffffffffffffffffffffffffffffffffffffffffffffffffffffff820361104157611040610fa1565b5b600182019050919050565b7f4f776e61626c653a2063616c6c6572206973206e6f7420746865206f776e6572600082015250565b6000611082602083610e92565b915061108d8261104c565b602082019050919050565b600060208201905081810360008301526110b181611075565b9050919050565b60006110c382610b4e565b91506110ce83610b4e565b92508282039050818111156110e6576110e5610fa1565b5b92915050565b60006110f782610deb565b9050919050565b611107816110ec565b82525050565b60006040820190506111226000830185610b58565b61112f60208301846110fe565b939250505056fea2646970667358221220c6cca556ed8b7719e5a9fcc5741150f2eda32bc71ec386d362721c47b89fb70f64736f6c63430008110033",
  "immutableReferences": {},
  "source": "// SPDX-License-Identifier: MIT\npragma solidity >=0.4.22 <0.9.0;\n\nimport \"@openzeppelin/contracts/access/Ownable.sol\";\nimport \"./Stacks.sol\";\n\ncontract StacksAuctionHouse is Ownable {\n  Stacks public stacks;\n  mapping(uint => Auction) public auctions;\n  mapping(uint => address payable) public auctionWinner;\n  uint public totalAuctions = 0;\n  address payable public treasuryAddress;\n\n  struct Auction {\n    uint endPrice;\n    uint startTime;\n    uint endTime;\n    bool active;\n  }\n\n  constructor(address _stacksAddress, address payable _treasuryAddress) {\n    stacks = Stacks(_stacksAddress);\n    treasuryAddress = _treasuryAddress;\n\n    uint startTime = 1677628800; // Wed Mar 01 2023 00:00:00 GMT+0000\n    // Create the first auction\n    auctions[0] = Auction({\n      endPrice: 0,\n      startTime: startTime,\n      endTime: startTime + 1 days,\n      active: true\n    });\n    // Create the second auction\n    startAuction(1);\n  }\n\n  function getCurrentAuction() public view returns (Auction memory) {\n    return auctions[totalAuctions];\n  }\n\n  function getAuction(uint _tokenId) public view returns (Auction memory) {\n    return auctions[_tokenId];\n  }\n\n  function bid() public payable {\n    Auction memory auction = getCurrentAuction();\n    require(msg.value > auction.endPrice, \"Bid is too low\");\n    uint lastBid = auction.endPrice;\n    address payable lastBidder = auctionWinner[totalAuctions];\n    // update the auction\n    auctionWinner[totalAuctions] = payable(msg.sender);\n    auctions[totalAuctions].endPrice = msg.value;\n    // refund last bidder\n    lastBidder.transfer(lastBid);\n    // after-bid callback\n    if (auction.endTime < block.timestamp && auction.active) {\n      closeAuction(totalAuctions);\n    }\n  }\n\n  function closeAuction(uint _tokenId) private {\n    Auction memory auction = auctions[_tokenId];\n    // close the auction and open the next one\n    auction.active = false;\n    auctions[_tokenId + 1].active = true;\n    // create new auction ahead of the current one\n    startAuction(_tokenId + 2);\n    // total auctions gets incremented when the auction is finished\n    totalAuctions++;\n    // then winner can mint\n    allowMint(_tokenId);\n    // move funds to the treasury\n    treasuryAddress.transfer(auction.endPrice);\n  }\n\n  function startAuction(uint _tokenId) private {\n    // this must run 1 in advance of the auction.\n    // [0, 1, 2 (current), 3] --> when current moves to 3, then the 4th is created\n    Auction memory lastAuction = auctions[_tokenId - 1];\n    auctions[_tokenId] = Auction({\n      endPrice: 0,\n      startTime: lastAuction.endTime + 1, // 1 second after the last auction ends\n      endTime: lastAuction.endTime + 1 days, // 1 day after the last auction ends\n      active: false\n    });\n  }\n\n  function allowMint(uint _tokenId) private {\n    // Allow the winner to mint the token on the Stacks contract\n    stacks.addAvailableForMint(_tokenId, auctionWinner[_tokenId]);\n  }\n\n  // Admin functions\n  function setTreasuryAddress(address payable _treasuryAddress) public onlyOwner {\n    treasuryAddress = _treasuryAddress;\n  }\n}\n",
  "sourcePath": "/Users/bruno/dev/crypto/stacks/contracts/StacksAuctionHouse.sol",
  "compiler": {
    "name": "solc",
    "version": "0.8.17+commit.8df45f5f.Emscripten.clang"
  },
  "schemaVersion": "3.4.10",
  "updatedAt": "2023-01-22T21:06:12.900Z",
  "devdoc": {
    "kind": "dev",
    "methods": {
      "owner()": {
        "details": "Returns the address of the current owner."
      },
      "renounceOwnership()": {
        "details": "Leaves the contract without owner. It will not be possible to call `onlyOwner` functions anymore. Can only be called by the current owner. NOTE: Renouncing ownership will leave the contract without an owner, thereby removing any functionality that is only available to the owner."
      },
      "transferOwnership(address)": {
        "details": "Transfers ownership of the contract to a new account (`newOwner`). Can only be called by the current owner."
      }
    },
    "version": 1
  },
  "userdoc": {
    "kind": "user",
    "methods": {},
    "version": 1
  }
}