{
  "contractName": "Stacks",
  "abi": [
    {
      "inputs": [],
      "stateMutability": "nonpayable",
      "type": "constructor"
    },
    {
      "anonymous": false,
      "inputs": [
        {
          "indexed": true,
          "internalType": "address",
          "name": "owner",
          "type": "address"
        },
        {
          "indexed": true,
          "internalType": "address",
          "name": "approved",
          "type": "address"
        },
        {
          "indexed": true,
          "internalType": "uint256",
          "name": "tokenId",
          "type": "uint256"
        }
      ],
      "name": "Approval",
      "type": "event"
    },
    {
      "anonymous": false,
      "inputs": [
        {
          "indexed": true,
          "internalType": "address",
          "name": "owner",
          "type": "address"
        },
        {
          "indexed": true,
          "internalType": "address",
          "name": "operator",
          "type": "address"
        },
        {
          "indexed": false,
          "internalType": "bool",
          "name": "approved",
          "type": "bool"
        }
      ],
      "name": "ApprovalForAll",
      "type": "event"
    },
    {
      "anonymous": false,
      "inputs": [
        {
          "indexed": true,
          "internalType": "address",
          "name": "previousOwner",
          "type": "address"
        },
        {
          "indexed": true,
          "internalType": "address",
          "name": "newOwner",
          "type": "address"
        }
      ],
      "name": "OwnershipTransferred",
      "type": "event"
    },
    {
      "anonymous": false,
      "inputs": [
        {
          "indexed": true,
          "internalType": "address",
          "name": "from",
          "type": "address"
        },
        {
          "indexed": true,
          "internalType": "address",
          "name": "to",
          "type": "address"
        },
        {
          "indexed": true,
          "internalType": "uint256",
          "name": "tokenId",
          "type": "uint256"
        }
      ],
      "name": "Transfer",
      "type": "event"
    },
    {
      "inputs": [],
      "name": "PERCENT_DIVIDER",
      "outputs": [
        {
          "internalType": "uint256",
          "name": "",
          "type": "uint256"
        }
      ],
      "stateMutability": "view",
      "type": "function",
      "constant": true
    },
    {
      "inputs": [],
      "name": "SALE_FEE",
      "outputs": [
        {
          "internalType": "uint256",
          "name": "",
          "type": "uint256"
        }
      ],
      "stateMutability": "view",
      "type": "function",
      "constant": true
    },
    {
      "inputs": [
        {
          "internalType": "address",
          "name": "to",
          "type": "address"
        },
        {
          "internalType": "uint256",
          "name": "tokenId",
          "type": "uint256"
        }
      ],
      "name": "approve",
      "outputs": [],
      "stateMutability": "nonpayable",
      "type": "function"
    },
    {
      "inputs": [],
      "name": "auctionHouse",
      "outputs": [
        {
          "internalType": "address",
          "name": "",
          "type": "address"
        }
      ],
      "stateMutability": "view",
      "type": "function",
      "constant": true
    },
    {
      "inputs": [
        {
          "internalType": "address",
          "name": "owner",
          "type": "address"
        }
      ],
      "name": "balanceOf",
      "outputs": [
        {
          "internalType": "uint256",
          "name": "",
          "type": "uint256"
        }
      ],
      "stateMutability": "view",
      "type": "function",
      "constant": true
    },
    {
      "inputs": [
        {
          "internalType": "uint256",
          "name": "tokenId",
          "type": "uint256"
        }
      ],
      "name": "getApproved",
      "outputs": [
        {
          "internalType": "address",
          "name": "",
          "type": "address"
        }
      ],
      "stateMutability": "view",
      "type": "function",
      "constant": true
    },
    {
      "inputs": [
        {
          "internalType": "address",
          "name": "owner",
          "type": "address"
        },
        {
          "internalType": "address",
          "name": "operator",
          "type": "address"
        }
      ],
      "name": "isApprovedForAll",
      "outputs": [
        {
          "internalType": "bool",
          "name": "",
          "type": "bool"
        }
      ],
      "stateMutability": "view",
      "type": "function",
      "constant": true
    },
    {
      "inputs": [],
      "name": "maxSupply",
      "outputs": [
        {
          "internalType": "uint256",
          "name": "",
          "type": "uint256"
        }
      ],
      "stateMutability": "view",
      "type": "function",
      "constant": true
    },
    {
      "inputs": [],
      "name": "mintOpen",
      "outputs": [
        {
          "internalType": "bool",
          "name": "",
          "type": "bool"
        }
      ],
      "stateMutability": "view",
      "type": "function",
      "constant": true
    },
    {
      "inputs": [],
      "name": "name",
      "outputs": [
        {
          "internalType": "string",
          "name": "",
          "type": "string"
        }
      ],
      "stateMutability": "view",
      "type": "function",
      "constant": true
    },
    {
      "inputs": [],
      "name": "owner",
      "outputs": [
        {
          "internalType": "address",
          "name": "",
          "type": "address"
        }
      ],
      "stateMutability": "view",
      "type": "function",
      "constant": true
    },
    {
      "inputs": [
        {
          "internalType": "uint256",
          "name": "tokenId",
          "type": "uint256"
        }
      ],
      "name": "ownerOf",
      "outputs": [
        {
          "internalType": "address",
          "name": "",
          "type": "address"
        }
      ],
      "stateMutability": "view",
      "type": "function",
      "constant": true
    },
    {
      "inputs": [],
      "name": "renounceOwnership",
      "outputs": [],
      "stateMutability": "nonpayable",
      "type": "function"
    },
    {
      "inputs": [
        {
          "internalType": "address",
          "name": "from",
          "type": "address"
        },
        {
          "internalType": "address",
          "name": "to",
          "type": "address"
        },
        {
          "internalType": "uint256",
          "name": "tokenId",
          "type": "uint256"
        }
      ],
      "name": "safeTransferFrom",
      "outputs": [],
      "stateMutability": "nonpayable",
      "type": "function"
    },
    {
      "inputs": [
        {
          "internalType": "address",
          "name": "from",
          "type": "address"
        },
        {
          "internalType": "address",
          "name": "to",
          "type": "address"
        },
        {
          "internalType": "uint256",
          "name": "tokenId",
          "type": "uint256"
        },
        {
          "internalType": "bytes",
          "name": "data",
          "type": "bytes"
        }
      ],
      "name": "safeTransferFrom",
      "outputs": [],
      "stateMutability": "nonpayable",
      "type": "function"
    },
    {
      "inputs": [
        {
          "internalType": "address",
          "name": "operator",
          "type": "address"
        },
        {
          "internalType": "bool",
          "name": "approved",
          "type": "bool"
        }
      ],
      "name": "setApprovalForAll",
      "outputs": [],
      "stateMutability": "nonpayable",
      "type": "function"
    },
    {
      "inputs": [],
      "name": "softCap",
      "outputs": [
        {
          "internalType": "uint256",
          "name": "",
          "type": "uint256"
        }
      ],
      "stateMutability": "view",
      "type": "function",
      "constant": true
    },
    {
      "inputs": [],
      "name": "symbol",
      "outputs": [
        {
          "internalType": "string",
          "name": "",
          "type": "string"
        }
      ],
      "stateMutability": "view",
      "type": "function",
      "constant": true
    },
    {
      "inputs": [],
      "name": "teamMinted",
      "outputs": [
        {
          "internalType": "uint256",
          "name": "",
          "type": "uint256"
        }
      ],
      "stateMutability": "view",
      "type": "function",
      "constant": true
    },
    {
      "inputs": [
        {
          "internalType": "uint256",
          "name": "",
          "type": "uint256"
        }
      ],
      "name": "tokenMetaDataRecord",
      "outputs": [
        {
          "internalType": "bool",
          "name": "minted",
          "type": "bool"
        },
        {
          "internalType": "address",
          "name": "minter",
          "type": "address"
        },
        {
          "internalType": "uint256",
          "name": "timestamp",
          "type": "uint256"
        }
      ],
      "stateMutability": "view",
      "type": "function",
      "constant": true
    },
    {
      "inputs": [
        {
          "internalType": "address",
          "name": "from",
          "type": "address"
        },
        {
          "internalType": "address",
          "name": "to",
          "type": "address"
        },
        {
          "internalType": "uint256",
          "name": "tokenId",
          "type": "uint256"
        }
      ],
      "name": "transferFrom",
      "outputs": [],
      "stateMutability": "nonpayable",
      "type": "function"
    },
    {
      "inputs": [
        {
          "internalType": "address",
          "name": "newOwner",
          "type": "address"
        }
      ],
      "name": "transferOwnership",
      "outputs": [],
      "stateMutability": "nonpayable",
      "type": "function"
    },
    {
      "inputs": [],
      "name": "wlMintOpen",
      "outputs": [
        {
          "internalType": "bool",
          "name": "",
          "type": "bool"
        }
      ],
      "stateMutability": "view",
      "type": "function",
      "constant": true
    },
    {
      "inputs": [
        {
          "internalType": "uint256",
          "name": "_tokenId",
          "type": "uint256"
        }
      ],
      "name": "mint",
      "outputs": [],
      "stateMutability": "nonpayable",
      "type": "function"
    },
    {
      "inputs": [
        {
          "internalType": "address",
          "name": "_auctionHouse",
          "type": "address"
        }
      ],
      "name": "setAuctionHouse",
      "outputs": [],
      "stateMutability": "nonpayable",
      "type": "function"
    },
    {
      "inputs": [
        {
          "internalType": "bool",
          "name": "_open",
          "type": "bool"
        }
      ],
      "name": "toggleMint",
      "outputs": [],
      "stateMutability": "nonpayable",
      "type": "function"
    },
    {
      "inputs": [
        {
          "internalType": "bool",
          "name": "_open",
          "type": "bool"
        }
      ],
      "name": "toggleWlMint",
      "outputs": [],
      "stateMutability": "nonpayable",
      "type": "function"
    },
    {
      "inputs": [],
      "name": "wlMint",
      "outputs": [],
      "stateMutability": "nonpayable",
      "type": "function"
    },
    {
      "inputs": [
        {
          "internalType": "address",
          "name": "_teamMember",
          "type": "address"
        }
      ],
      "name": "teamMint",
      "outputs": [],
      "stateMutability": "nonpayable",
      "type": "function"
    },
    {
      "inputs": [
        {
          "internalType": "uint256",
          "name": "_SALE_FEE",
          "type": "uint256"
        }
      ],
      "name": "setRegularFee",
      "outputs": [],
      "stateMutability": "nonpayable",
      "type": "function"
    },
    {
      "inputs": [
        {
          "internalType": "bytes4",
          "name": "_interfaceId",
          "type": "bytes4"
        }
      ],
      "name": "supportsInterface",
      "outputs": [
        {
          "internalType": "bool",
          "name": "",
          "type": "bool"
        }
      ],
      "stateMutability": "view",
      "type": "function",
      "constant": true
    },
    {
      "inputs": [
        {
          "internalType": "uint256",
          "name": "",
          "type": "uint256"
        },
        {
          "internalType": "uint256",
          "name": "_salePrice",
          "type": "uint256"
        }
      ],
      "name": "royaltyInfo",
      "outputs": [
        {
          "internalType": "address",
          "name": "receiver",
          "type": "address"
        },
        {
          "internalType": "uint256",
          "name": "royaltyAmount",
          "type": "uint256"
        }
      ],
      "stateMutability": "view",
      "type": "function",
      "constant": true
    },
    {
      "inputs": [
        {
          "internalType": "uint256",
          "name": "_tokenId",
          "type": "uint256"
        }
      ],
      "name": "tokenURI",
      "outputs": [
        {
          "internalType": "string",
          "name": "",
          "type": "string"
        }
      ],
      "stateMutability": "view",
      "type": "function",
      "constant": true
    }
  ],
  "bytecode": "0x60806040526103e8600955611388600d55610fa9600e556000600f553480156200002857600080fd5b506040518060400160405280601681526020017f537461636b7320496e766573746d656e742043617264000000000000000000008152506040518060400160405280600681526020017f535441434b5300000000000000000000000000000000000000000000000000008152508160009081620000a6919062000429565b508060019081620000b8919062000429565b505050620000db620000cf620000e160201b60201c565b620000e960201b60201c565b62000510565b600033905090565b6000600860009054906101000a900473ffffffffffffffffffffffffffffffffffffffff16905081600860006101000a81548173ffffffffffffffffffffffffffffffffffffffff021916908373ffffffffffffffffffffffffffffffffffffffff1602179055508173ffffffffffffffffffffffffffffffffffffffff168173ffffffffffffffffffffffffffffffffffffffff167f8be0079c531659141344cd1fd0a4f28419497f9722a3daafe3b4186f6b6457e060405160405180910390a35050565b600081519050919050565b7f4e487b7100000000000000000000000000000000000000000000000000000000600052604160045260246000fd5b7f4e487b7100000000000000000000000000000000000000000000000000000000600052602260045260246000fd5b600060028204905060018216806200023157607f821691505b602082108103620002475762000246620001e9565b5b50919050565b60008190508160005260206000209050919050565b60006020601f8301049050919050565b600082821b905092915050565b600060088302620002b17fffffffffffffffffffffffffffffffffffffffffffffffffffffffffffffffff8262000272565b620002bd868362000272565b95508019841693508086168417925050509392505050565b6000819050919050565b6000819050919050565b60006200030a62000304620002fe84620002d5565b620002df565b620002d5565b9050919050565b6000819050919050565b6200032683620002e9565b6200033e620003358262000311565b8484546200027f565b825550505050565b600090565b6200035562000346565b620003628184846200031b565b505050565b5b818110156200038a576200037e6000826200034b565b60018101905062000368565b5050565b601f821115620003d957620003a3816200024d565b620003ae8462000262565b81016020851015620003be578190505b620003d6620003cd8562000262565b83018262000367565b50505b505050565b600082821c905092915050565b6000620003fe60001984600802620003de565b1980831691505092915050565b6000620004198383620003eb565b9150826002028217905092915050565b6200043482620001af565b67ffffffffffffffff81111562000450576200044f620001ba565b5b6200045c825462000218565b620004698282856200038e565b600060209050601f831160018114620004a157600084156200048c578287015190505b6200049885826200040b565b86555062000508565b601f198416620004b1866200024d565b60005b82811015620004db57848901518255600182019150602085019450602081019050620004b4565b86831015620004fb5784890151620004f7601f891682620003eb565b8355505b6001600288020188555050505b505050505050565b614de980620005206000396000f3fe60806040523480156200001157600080fd5b50600436106200022b5760003560e01c80638a4dcd851162000135578063b88d4fde11620000bd578063e76d89521162000087578063e76d89521462000637578063e8b5498d1462000657578063e985e9c51462000679578063ed9152c814620006af578063f2fde38b14620006d1576200022b565b8063b88d4fde1462000587578063bdce6c4414620005a7578063c87b56dd14620005df578063d5abeb011462000615576200022b565b8063a0712d6811620000ff578063a0712d681462000507578063a22cb4651462000527578063ac8130881462000547578063b6a1dba11462000567576200022b565b80638a4dcd8514620004815780638da5cb5b14620004a1578063906a26e014620004c357806395d89b4114620004e5576200022b565b806329fc7bd811620001b957806370a08231116200018357806370a082311462000411578063715018a61462000447578063729eaa6614620004535780637f9fa4111462000475576200022b565b806329fc7bd814620003625780632a55205a146200038457806342842e0e14620003bb5780636352211e14620003db576200022b565b8063095ea7b311620001fb578063095ea7b314620002e057806323b872dd146200030057806324bbd049146200032057806329c4ba091462000342576200022b565b8062725dca146200023057806301ffc9a7146200025257806306fdde031462000288578063081812fc14620002aa575b600080fd5b6200023a620006f1565b60405162000249919062002890565b60405180910390f35b6200027060048036038101906200026a91906200291e565b62000704565b6040516200027f919062002890565b60405180910390f35b6200029262000770565b604051620002a19190620029ea565b60405180910390f35b620002c86004803603810190620002c2919062002a49565b6200080a565b604051620002d7919062002ac0565b60405180910390f35b620002fe6004803603810190620002f8919062002b0e565b62000852565b005b6200031e600480360381019062000318919062002b55565b6200097a565b005b6200032a620009e3565b60405162000339919062002890565b60405180910390f35b6200036060048036038101906200035a919062002a49565b620009f6565b005b6200036c62000a52565b6040516200037b919062002bc2565b60405180910390f35b620003a260048036038101906200039c919062002bdf565b62000a58565b604051620003b292919062002c26565b60405180910390f35b620003d96004803603810190620003d3919062002b55565b62000a8f565b005b620003f96004803603810190620003f3919062002a49565b62000ab1565b60405162000408919062002ac0565b60405180910390f35b6200042f600480360381019062000429919062002c53565b62000b3c565b6040516200043e919062002bc2565b60405180910390f35b6200045162000bf6565b005b6200045d62000c0e565b6040516200046c919062002bc2565b60405180910390f35b6200047f62000c14565b005b6200049f600480360381019062000499919062002cb6565b62000e95565b005b620004ab62000ebc565b604051620004ba919062002ac0565b60405180910390f35b620004cd62000ee6565b604051620004dc919062002bc2565b60405180910390f35b620004ef62000eec565b604051620004fe9190620029ea565b60405180910390f35b6200052560048036038101906200051f919062002a49565b62000f86565b005b6200054560048036038101906200053f919062002ce8565b62001349565b005b6200056560048036038101906200055f919062002cb6565b62001363565b005b6200058560048036038101906200057f919062002c53565b6200138a565b005b620005a560048036038101906200059f919062002e80565b620015e1565b005b620005c56004803603810190620005bf919062002a49565b6200164c565b604051620005d69392919062002f11565b60405180910390f35b620005fd6004803603810190620005f7919062002a49565b620016a3565b6040516200060c9190620029ea565b60405180910390f35b6200061f620016e2565b6040516200062e919062002bc2565b60405180910390f35b6200065560048036038101906200064f919062002c53565b620016e8565b005b6200066162001736565b60405162000670919062002bc2565b60405180910390f35b62000697600480360381019062000691919062002f4e565b6200173c565b604051620006a6919062002890565b60405180910390f35b620006b9620017d0565b604051620006c8919062002ac0565b60405180910390f35b620006ef6004803603810190620006e9919062002c53565b620017f6565b005b600a60009054906101000a900460ff1681565b6000632a55205a60e01b7bffffffffffffffffffffffffffffffffffffffffffffffffffffffff1916827bffffffffffffffffffffffffffffffffffffffffffffffffffffffff1916036200075d57600190506200076b565b620007688262001880565b90505b919050565b606060008054620007819062002fc4565b80601f0160208091040260200160405190810160405280929190818152602001828054620007af9062002fc4565b8015620008005780601f10620007d45761010080835404028352916020019162000800565b820191906000526020600020905b815481529060010190602001808311620007e257829003601f168201915b5050505050905090565b60006200081782620018fd565b6004600083815260200190815260200160002060009054906101000a900473ffffffffffffffffffffffffffffffffffffffff169050919050565b60006200085f8262000ab1565b90508073ffffffffffffffffffffffffffffffffffffffff168373ffffffffffffffffffffffffffffffffffffffff1603620008d2576040517f08c379a0000000000000000000000000000000000000000000000000000000008152600401620008c9906200306f565b60405180910390fd5b8073ffffffffffffffffffffffffffffffffffffffff16620008f36200194d565b73ffffffffffffffffffffffffffffffffffffffff1614806200092757506200092681620009206200194d565b6200173c565b5b62000969576040517f08c379a0000000000000000000000000000000000000000000000000000000008152600401620009609062003107565b60405180910390fd5b62000975838362001955565b505050565b6200098f620009886200194d565b8262001a10565b620009d1576040517f08c379a0000000000000000000000000000000000000000000000000000000008152600401620009c8906200319f565b60405180910390fd5b620009de83838362001aad565b505050565b600c60149054906101000a900460ff1681565b62000a0062001db7565b610ce481111562000a48576040517f08c379a000000000000000000000000000000000000000000000000000000000815260040162000a3f9062003211565b60405180910390fd5b8060098190555050565b61271081565b60008062000a6562000ebc565b6127106009548562000a78919062003262565b62000a849190620032dc565b915091509250929050565b62000aac83838360405180602001604052806000815250620015e1565b505050565b60008062000abf8362001e3c565b9050600073ffffffffffffffffffffffffffffffffffffffff168173ffffffffffffffffffffffffffffffffffffffff160362000b33576040517f08c379a000000000000000000000000000000000000000000000000000000000815260040162000b2a9062003364565b60405180910390fd5b80915050919050565b60008073ffffffffffffffffffffffffffffffffffffffff168273ffffffffffffffffffffffffffffffffffffffff160362000baf576040517f08c379a000000000000000000000000000000000000000000000000000000000815260040162000ba690620033fc565b60405180910390fd5b600360008373ffffffffffffffffffffffffffffffffffffffff1673ffffffffffffffffffffffffffffffffffffffff168152602001908152602001600020549050919050565b62000c0062001db7565b62000c0c600062001e79565b565b60095481565b600a60009054906101000a900460ff1662000c66576040517f08c379a000000000000000000000000000000000000000000000000000000000815260040162000c5d906200346e565b60405180910390fd5b600060405162000c769062002865565b604051809103906000f08015801562000c93573d6000803e3d6000fd5b5073ffffffffffffffffffffffffffffffffffffffff16637553e639336040518263ffffffff1660e01b815260040162000cce919062002ac0565b6040805180830381865afa15801562000ceb573d6000803e3d6000fd5b505050506040513d601f19601f8201168201806040525081019062000d1191906200351c565b9050806020015162000d5a576040517f08c379a000000000000000000000000000000000000000000000000000000000815260040162000d51906200359e565b60405180910390fd5b600081600001519050600b600082815260200190815260200160002060000160009054906101000a900460ff161562000dca576040517f08c379a000000000000000000000000000000000000000000000000000000000815260040162000dc19062003610565b60405180910390fd5b60405180606001604052806001151581526020013373ffffffffffffffffffffffffffffffffffffffff16815260200142815250600b600083815260200190815260200160002060008201518160000160006101000a81548160ff02191690831515021790555060208201518160000160016101000a81548173ffffffffffffffffffffffffffffffffffffffff021916908373ffffffffffffffffffffffffffffffffffffffff1602179055506040820151816001015590505062000e91338262001f3f565b5050565b62000e9f62001db7565b80600c60146101000a81548160ff02191690831515021790555050565b6000600860009054906101000a900473ffffffffffffffffffffffffffffffffffffffff16905090565b600e5481565b60606001805462000efd9062002fc4565b80601f016020809104026020016040519081016040528092919081815260200182805462000f2b9062002fc4565b801562000f7c5780601f1062000f505761010080835404028352916020019162000f7c565b820191906000526020600020905b81548152906001019060200180831162000f5e57829003601f168201915b5050505050905090565b600c60149054906101000a900460ff1662000fd8576040517f08c379a000000000000000000000000000000000000000000000000000000000815260040162000fcf906200346e565b60405180910390fd5b6000811015801562000fec5750600d548111155b6200102e576040517f08c379a0000000000000000000000000000000000000000000000000000000008152600401620010259062003682565b60405180910390fd5b6000600c60009054906101000a900473ffffffffffffffffffffffffffffffffffffffff16905060008173ffffffffffffffffffffffffffffffffffffffff166378bd7935846040518263ffffffff1660e01b815260040162001092919062002bc2565b608060405180830381865afa158015620010b0573d6000803e3d6000fd5b505050506040513d601f19601f82011682018060405250810190620010d6919062003729565b90504281604001511062001121576040517f08c379a00000000000000000000000000000000000000000000000000000000081526004016200111890620037ab565b60405180910390fd5b60008273ffffffffffffffffffffffffffffffffffffffff1663083d353b856040518263ffffffff1660e01b81526004016200115e919062002bc2565b602060405180830381865afa1580156200117c573d6000803e3d6000fd5b505050506040513d601f19601f82011682018060405250810190620011a2919062003812565b90503373ffffffffffffffffffffffffffffffffffffffff168173ffffffffffffffffffffffffffffffffffffffff161462001215576040517f08c379a00000000000000000000000000000000000000000000000000000000081526004016200120c90620038ba565b60405180910390fd5b600b600085815260200190815260200160002060000160009054906101000a900460ff16156200127c576040517f08c379a0000000000000000000000000000000000000000000000000000000008152600401620012739062003610565b60405180910390fd5b60405180606001604052806001151581526020013373ffffffffffffffffffffffffffffffffffffffff16815260200142815250600b600086815260200190815260200160002060008201518160000160006101000a81548160ff02191690831515021790555060208201518160000160016101000a81548173ffffffffffffffffffffffffffffffffffffffff021916908373ffffffffffffffffffffffffffffffffffffffff1602179055506040820151816001015590505062001343338562001f3f565b50505050565b6200135f620013576200194d565b838362001f5f565b5050565b6200136d62001db7565b80600a60006101000a81548160ff02191690831515021790555050565b6200139462001db7565b60006001600f54600e54620013aa9190620038dc565b620013b69190620038dc565b9050600d5481111562001400576040517f08c379a0000000000000000000000000000000000000000000000000000000008152600401620013f79062003967565b60405180910390fd5b6110d681106200145457636592007f421162001453576040517f08c379a00000000000000000000000000000000000000000000000000000000081526004016200144a90620039ff565b60405180910390fd5b5b6112028110620014a857636774857f4211620014a7576040517f08c379a00000000000000000000000000000000000000000000000000000000081526004016200149e9062003a97565b60405180910390fd5b5b61132e8110620014fc57636955b8ff4211620014fb576040517f08c379a0000000000000000000000000000000000000000000000000000000008152600401620014f29062003b2f565b60405180910390fd5b5b60405180606001604052806001151581526020018373ffffffffffffffffffffffffffffffffffffffff16815260200142815250600b600083815260200190815260200160002060008201518160000160006101000a81548160ff02191690831515021790555060208201518160000160016101000a81548173ffffffffffffffffffffffffffffffffffffffff021916908373ffffffffffffffffffffffffffffffffffffffff16021790555060408201518160010155905050620015c3828262001f3f565b600f6000815480929190620015d89062003b51565b91905055505050565b620015f6620015ef6200194d565b8362001a10565b62001638576040517f08c379a00000000000000000000000000000000000000000000000000000000081526004016200162f906200319f565b60405180910390fd5b6200164684848484620020d0565b50505050565b600b6020528060005260406000206000915090508060000160009054906101000a900460ff16908060000160019054906101000a900473ffffffffffffffffffffffffffffffffffffffff16908060010154905083565b6060620016b082620018fd565b620016ba62002133565b604051602001620016cc919062003be0565b6040516020818303038152906040529050919050565b600d5481565b620016f262001db7565b80600c60006101000a81548173ffffffffffffffffffffffffffffffffffffffff021916908373ffffffffffffffffffffffffffffffffffffffff16021790555050565b600f5481565b6000600560008473ffffffffffffffffffffffffffffffffffffffff1673ffffffffffffffffffffffffffffffffffffffff16815260200190815260200160002060008373ffffffffffffffffffffffffffffffffffffffff1673ffffffffffffffffffffffffffffffffffffffff16815260200190815260200160002060009054906101000a900460ff16905092915050565b600c60009054906101000a900473ffffffffffffffffffffffffffffffffffffffff1681565b6200180062001db7565b600073ffffffffffffffffffffffffffffffffffffffff168173ffffffffffffffffffffffffffffffffffffffff160362001872576040517f08c379a0000000000000000000000000000000000000000000000000000000008152600401620018699062003c6f565b60405180910390fd5b6200187d8162001e79565b50565b60007f2a55205a000000000000000000000000000000000000000000000000000000007bffffffffffffffffffffffffffffffffffffffffffffffffffffffff1916827bffffffffffffffffffffffffffffffffffffffffffffffffffffffff19161480620018f65750620018f58262002154565b5b9050919050565b62001908816200223a565b6200194a576040517f08c379a0000000000000000000000000000000000000000000000000000000008152600401620019419062003364565b60405180910390fd5b50565b600033905090565b816004600083815260200190815260200160002060006101000a81548173ffffffffffffffffffffffffffffffffffffffff021916908373ffffffffffffffffffffffffffffffffffffffff160217905550808273ffffffffffffffffffffffffffffffffffffffff16620019ca8362000ab1565b73ffffffffffffffffffffffffffffffffffffffff167f8c5be1e5ebec7d5bd14f71427d1e84f3dd0314c0f7b2291e5b200ac8c7c3b92560405160405180910390a45050565b60008062001a1e8362000ab1565b90508073ffffffffffffffffffffffffffffffffffffffff168473ffffffffffffffffffffffffffffffffffffffff16148062001a63575062001a6281856200173c565b5b8062001aa457508373ffffffffffffffffffffffffffffffffffffffff1662001a8c846200080a565b73ffffffffffffffffffffffffffffffffffffffff16145b91505092915050565b8273ffffffffffffffffffffffffffffffffffffffff1662001acf8262000ab1565b73ffffffffffffffffffffffffffffffffffffffff161462001b28576040517f08c379a000000000000000000000000000000000000000000000000000000000815260040162001b1f9062003d07565b60405180910390fd5b600073ffffffffffffffffffffffffffffffffffffffff168273ffffffffffffffffffffffffffffffffffffffff160362001b9a576040517f08c379a000000000000000000000000000000000000000000000000000000000815260040162001b919062003d9f565b60405180910390fd5b62001ba983838360016200227d565b8273ffffffffffffffffffffffffffffffffffffffff1662001bcb8262000ab1565b73ffffffffffffffffffffffffffffffffffffffff161462001c24576040517f08c379a000000000000000000000000000000000000000000000000000000000815260040162001c1b9062003d07565b60405180910390fd5b6004600082815260200190815260200160002060006101000a81549073ffffffffffffffffffffffffffffffffffffffff02191690556001600360008573ffffffffffffffffffffffffffffffffffffffff1673ffffffffffffffffffffffffffffffffffffffff168152602001908152602001600020600082825403925050819055506001600360008473ffffffffffffffffffffffffffffffffffffffff1673ffffffffffffffffffffffffffffffffffffffff16815260200190815260200160002060008282540192505081905550816002600083815260200190815260200160002060006101000a81548173ffffffffffffffffffffffffffffffffffffffff021916908373ffffffffffffffffffffffffffffffffffffffff160217905550808273ffffffffffffffffffffffffffffffffffffffff168473ffffffffffffffffffffffffffffffffffffffff167fddf252ad1be2c89b69c2b068fc378daa952ba7f163c4a11628f55a4df523b3ef60405160405180910390a462001db28383836001620023aa565b505050565b62001dc16200194d565b73ffffffffffffffffffffffffffffffffffffffff1662001de162000ebc565b73ffffffffffffffffffffffffffffffffffffffff161462001e3a576040517f08c379a000000000000000000000000000000000000000000000000000000000815260040162001e319062003e11565b60405180910390fd5b565b60006002600083815260200190815260200160002060009054906101000a900473ffffffffffffffffffffffffffffffffffffffff169050919050565b6000600860009054906101000a900473ffffffffffffffffffffffffffffffffffffffff16905081600860006101000a81548173ffffffffffffffffffffffffffffffffffffffff021916908373ffffffffffffffffffffffffffffffffffffffff1602179055508173ffffffffffffffffffffffffffffffffffffffff168173ffffffffffffffffffffffffffffffffffffffff167f8be0079c531659141344cd1fd0a4f28419497f9722a3daafe3b4186f6b6457e060405160405180910390a35050565b62001f5b828260405180602001604052806000815250620023b0565b5050565b8173ffffffffffffffffffffffffffffffffffffffff168373ffffffffffffffffffffffffffffffffffffffff160362001fd0576040517f08c379a000000000000000000000000000000000000000000000000000000000815260040162001fc79062003e83565b60405180910390fd5b80600560008573ffffffffffffffffffffffffffffffffffffffff1673ffffffffffffffffffffffffffffffffffffffff16815260200190815260200160002060008473ffffffffffffffffffffffffffffffffffffffff1673ffffffffffffffffffffffffffffffffffffffff16815260200190815260200160002060006101000a81548160ff0219169083151502179055508173ffffffffffffffffffffffffffffffffffffffff168373ffffffffffffffffffffffffffffffffffffffff167f17307eab39ab6107e8899845ad3d59bd9653f200f220920489ca2b5937696c3183604051620020c3919062002890565b60405180910390a3505050565b620020dd84848462001aad565b620020eb8484848462002412565b6200212d576040517f08c379a0000000000000000000000000000000000000000000000000000000008152600401620021249062003f1b565b60405180910390fd5b50505050565b60606040518060600160405280603c815260200162004d78603c9139905090565b60007f80ac58cd000000000000000000000000000000000000000000000000000000007bffffffffffffffffffffffffffffffffffffffffffffffffffffffff1916827bffffffffffffffffffffffffffffffffffffffffffffffffffffffff191614806200222057507f5b5e139f000000000000000000000000000000000000000000000000000000007bffffffffffffffffffffffffffffffffffffffffffffffffffffffff1916827bffffffffffffffffffffffffffffffffffffffffffffffffffffffff1916145b806200223357506200223282620025aa565b5b9050919050565b60008073ffffffffffffffffffffffffffffffffffffffff166200225e8362001e3c565b73ffffffffffffffffffffffffffffffffffffffff1614159050919050565b6001811115620023a457600073ffffffffffffffffffffffffffffffffffffffff168473ffffffffffffffffffffffffffffffffffffffff1614620023155780600360008673ffffffffffffffffffffffffffffffffffffffff1673ffffffffffffffffffffffffffffffffffffffff16815260200190815260200160002060008282546200230d919062003f3d565b925050819055505b600073ffffffffffffffffffffffffffffffffffffffff168373ffffffffffffffffffffffffffffffffffffffff1614620023a35780600360008573ffffffffffffffffffffffffffffffffffffffff1673ffffffffffffffffffffffffffffffffffffffff16815260200190815260200160002060008282546200239b9190620038dc565b925050819055505b5b50505050565b50505050565b620023bc838362002614565b620023cb600084848462002412565b6200240d576040517f08c379a0000000000000000000000000000000000000000000000000000000008152600401620024049062003f1b565b60405180910390fd5b505050565b6000620024358473ffffffffffffffffffffffffffffffffffffffff1662002842565b156200259d578373ffffffffffffffffffffffffffffffffffffffff1663150b7a02620024616200194d565b8786866040518563ffffffff1660e01b815260040162002485949392919062003fd5565b6020604051808303816000875af1925050508015620024c457506040513d601f19601f82011682018060405250810190620024c1919062004040565b60015b6200254c573d8060008114620024f7576040519150601f19603f3d011682016040523d82523d6000602084013e620024fc565b606091505b50600081510362002544576040517f08c379a00000000000000000000000000000000000000000000000000000000081526004016200253b9062003f1b565b60405180910390fd5b805181602001fd5b63150b7a0260e01b7bffffffffffffffffffffffffffffffffffffffffffffffffffffffff1916817bffffffffffffffffffffffffffffffffffffffffffffffffffffffff191614915050620025a2565b600190505b949350505050565b60007f01ffc9a7000000000000000000000000000000000000000000000000000000007bffffffffffffffffffffffffffffffffffffffffffffffffffffffff1916827bffffffffffffffffffffffffffffffffffffffffffffffffffffffff1916149050919050565b600073ffffffffffffffffffffffffffffffffffffffff168273ffffffffffffffffffffffffffffffffffffffff160362002686576040517f08c379a00000000000000000000000000000000000000000000000000000000081526004016200267d90620040c2565b60405180910390fd5b62002691816200223a565b15620026d4576040517f08c379a0000000000000000000000000000000000000000000000000000000008152600401620026cb9062004134565b60405180910390fd5b620026e46000838360016200227d565b620026ef816200223a565b1562002732576040517f08c379a0000000000000000000000000000000000000000000000000000000008152600401620027299062004134565b60405180910390fd5b6001600360008473ffffffffffffffffffffffffffffffffffffffff1673ffffffffffffffffffffffffffffffffffffffff16815260200190815260200160002060008282540192505081905550816002600083815260200190815260200160002060006101000a81548173ffffffffffffffffffffffffffffffffffffffff021916908373ffffffffffffffffffffffffffffffffffffffff160217905550808273ffffffffffffffffffffffffffffffffffffffff16600073ffffffffffffffffffffffffffffffffffffffff167fddf252ad1be2c89b69c2b068fc378daa952ba7f163c4a11628f55a4df523b3ef60405160405180910390a46200283e600083836001620023aa565b5050565b6000808273ffffffffffffffffffffffffffffffffffffffff163b119050919050565b610c21806200415783390190565b60008115159050919050565b6200288a8162002873565b82525050565b6000602082019050620028a760008301846200287f565b92915050565b6000604051905090565b600080fd5b600080fd5b60007fffffffff0000000000000000000000000000000000000000000000000000000082169050919050565b620028f881620028c1565b81146200290457600080fd5b50565b6000813590506200291881620028ed565b92915050565b600060208284031215620029375762002936620028b7565b5b6000620029478482850162002907565b91505092915050565b600081519050919050565b600082825260208201905092915050565b60005b838110156200298c5780820151818401526020810190506200296f565b60008484015250505050565b6000601f19601f8301169050919050565b6000620029b68262002950565b620029c281856200295b565b9350620029d48185602086016200296c565b620029df8162002998565b840191505092915050565b6000602082019050818103600083015262002a068184620029a9565b905092915050565b6000819050919050565b62002a238162002a0e565b811462002a2f57600080fd5b50565b60008135905062002a438162002a18565b92915050565b60006020828403121562002a625762002a61620028b7565b5b600062002a728482850162002a32565b91505092915050565b600073ffffffffffffffffffffffffffffffffffffffff82169050919050565b600062002aa88262002a7b565b9050919050565b62002aba8162002a9b565b82525050565b600060208201905062002ad7600083018462002aaf565b92915050565b62002ae88162002a9b565b811462002af457600080fd5b50565b60008135905062002b088162002add565b92915050565b6000806040838503121562002b285762002b27620028b7565b5b600062002b388582860162002af7565b925050602062002b4b8582860162002a32565b9150509250929050565b60008060006060848603121562002b715762002b70620028b7565b5b600062002b818682870162002af7565b935050602062002b948682870162002af7565b925050604062002ba78682870162002a32565b9150509250925092565b62002bbc8162002a0e565b82525050565b600060208201905062002bd9600083018462002bb1565b92915050565b6000806040838503121562002bf95762002bf8620028b7565b5b600062002c098582860162002a32565b925050602062002c1c8582860162002a32565b9150509250929050565b600060408201905062002c3d600083018562002aaf565b62002c4c602083018462002bb1565b9392505050565b60006020828403121562002c6c5762002c6b620028b7565b5b600062002c7c8482850162002af7565b91505092915050565b62002c908162002873565b811462002c9c57600080fd5b50565b60008135905062002cb08162002c85565b92915050565b60006020828403121562002ccf5762002cce620028b7565b5b600062002cdf8482850162002c9f565b91505092915050565b6000806040838503121562002d025762002d01620028b7565b5b600062002d128582860162002af7565b925050602062002d258582860162002c9f565b9150509250929050565b600080fd5b600080fd5b7f4e487b7100000000000000000000000000000000000000000000000000000000600052604160045260246000fd5b62002d738262002998565b810181811067ffffffffffffffff8211171562002d955762002d9462002d39565b5b80604052505050565b600062002daa620028ad565b905062002db8828262002d68565b919050565b600067ffffffffffffffff82111562002ddb5762002dda62002d39565b5b62002de68262002998565b9050602081019050919050565b82818337600083830152505050565b600062002e1962002e138462002dbd565b62002d9e565b90508281526020810184848401111562002e385762002e3762002d34565b5b62002e4584828562002df3565b509392505050565b600082601f83011262002e655762002e6462002d2f565b5b813562002e7784826020860162002e02565b91505092915050565b6000806000806080858703121562002e9d5762002e9c620028b7565b5b600062002ead8782880162002af7565b945050602062002ec08782880162002af7565b935050604062002ed38782880162002a32565b925050606085013567ffffffffffffffff81111562002ef75762002ef6620028bc565b5b62002f058782880162002e4d565b91505092959194509250565b600060608201905062002f2860008301866200287f565b62002f37602083018562002aaf565b62002f46604083018462002bb1565b949350505050565b6000806040838503121562002f685762002f67620028b7565b5b600062002f788582860162002af7565b925050602062002f8b8582860162002af7565b9150509250929050565b7f4e487b7100000000000000000000000000000000000000000000000000000000600052602260045260246000fd5b6000600282049050600182168062002fdd57607f821691505b60208210810362002ff35762002ff262002f95565b5b50919050565b7f4552433732313a20617070726f76616c20746f2063757272656e74206f776e6560008201527f7200000000000000000000000000000000000000000000000000000000000000602082015250565b6000620030576021836200295b565b9150620030648262002ff9565b604082019050919050565b600060208201905081810360008301526200308a8162003048565b9050919050565b7f4552433732313a20617070726f76652063616c6c6572206973206e6f7420746f60008201527f6b656e206f776e6572206f7220617070726f76656420666f7220616c6c000000602082015250565b6000620030ef603d836200295b565b9150620030fc8262003091565b604082019050919050565b600060208201905081810360008301526200312281620030e0565b9050919050565b7f4552433732313a2063616c6c6572206973206e6f7420746f6b656e206f776e6560008201527f72206f7220617070726f76656400000000000000000000000000000000000000602082015250565b600062003187602d836200295b565b9150620031948262003129565b604082019050919050565b60006020820190508181036000830152620031ba8162003178565b9050919050565b7f466565206d757374206265206c657373206f7220657175616c20746f20333325600082015250565b6000620031f96020836200295b565b91506200320682620031c1565b602082019050919050565b600060208201905081810360008301526200322c81620031ea565b9050919050565b7f4e487b7100000000000000000000000000000000000000000000000000000000600052601160045260246000fd5b60006200326f8262002a0e565b91506200327c8362002a0e565b92508282026200328c8162002a0e565b91508282048414831517620032a657620032a562003233565b5b5092915050565b7f4e487b7100000000000000000000000000000000000000000000000000000000600052601260045260246000fd5b6000620032e98262002a0e565b9150620032f68362002a0e565b925082620033095762003308620032ad565b5b828204905092915050565b7f4552433732313a20696e76616c696420746f6b656e2049440000000000000000600082015250565b60006200334c6018836200295b565b9150620033598262003314565b602082019050919050565b600060208201905081810360008301526200337f816200333d565b9050919050565b7f4552433732313a2061646472657373207a65726f206973206e6f74206120766160008201527f6c6964206f776e65720000000000000000000000000000000000000000000000602082015250565b6000620033e46029836200295b565b9150620033f18262003386565b604082019050919050565b600060208201905081810360008301526200341781620033d5565b9050919050565b7f4d696e74696e67206973206e6f74206f70656e00000000000000000000000000600082015250565b6000620034566013836200295b565b915062003463826200341e565b602082019050919050565b60006020820190508181036000830152620034898162003447565b9050919050565b600080fd5b600081519050620034a68162002a18565b92915050565b600081519050620034bd8162002c85565b92915050565b600060408284031215620034dc57620034db62003490565b5b620034e8604062002d9e565b90506000620034fa8482850162003495565b60008301525060206200351084828501620034ac565b60208301525092915050565b600060408284031215620035355762003534620028b7565b5b60006200354584828501620034c3565b91505092915050565b7f41646472657373206e6f742077686974656c6973746564000000000000000000600082015250565b6000620035866017836200295b565b915062003593826200354e565b602082019050919050565b60006020820190508181036000830152620035b98162003577565b9050919050565b7f546f6b656e2068617320616c7265616479206265656e206d696e746564000000600082015250565b6000620035f8601d836200295b565b91506200360582620035c0565b602082019050919050565b600060208201905081810360008301526200362b81620035e9565b9050919050565b7f546f6b656e20494420697320696e76616c696400000000000000000000000000600082015250565b60006200366a6013836200295b565b9150620036778262003632565b602082019050919050565b600060208201905081810360008301526200369d816200365b565b9050919050565b600060808284031215620036bd57620036bc62003490565b5b620036c9608062002d9e565b90506000620036db8482850162003495565b6000830152506020620036f18482850162003495565b6020830152506040620037078482850162003495565b60408301525060606200371d84828501620034ac565b60608301525092915050565b600060808284031215620037425762003741620028b7565b5b60006200375284828501620036a4565b91505092915050565b7f41756374696f6e206973206e6f7420636c6f7365640000000000000000000000600082015250565b6000620037936015836200295b565b9150620037a0826200375b565b602082019050919050565b60006020820190508181036000830152620037c68162003784565b9050919050565b6000620037da8262002a7b565b9050919050565b620037ec81620037cd565b8114620037f857600080fd5b50565b6000815190506200380c81620037e1565b92915050565b6000602082840312156200382b576200382a620028b7565b5b60006200383b84828501620037fb565b91505092915050565b7f596f7520617265206e6f74207468652077696e6e6572206f662074686973206160008201527f756374696f6e0000000000000000000000000000000000000000000000000000602082015250565b6000620038a26026836200295b565b9150620038af8262003844565b604082019050919050565b60006020820190508181036000830152620038d58162003893565b9050919050565b6000620038e98262002a0e565b9150620038f68362002a0e565b925082820190508082111562003911576200391062003233565b5b92915050565b7f546f6b656e20494420697320746f6f2068696768000000000000000000000000600082015250565b60006200394f6014836200295b565b91506200395c8262003917565b602082019050919050565b60006020820190508181036000830152620039828162003940565b9050919050565b7f5465616d2063616e206f6e6c79206d696e742033303020746f6b656e7320696e60008201527f2032303233000000000000000000000000000000000000000000000000000000602082015250565b6000620039e76025836200295b565b9150620039f48262003989565b604082019050919050565b6000602082019050818103600083015262003a1a81620039d8565b9050919050565b7f5465616d2063616e206f6e6c79206d696e742033303020746f6b656e7320696e60008201527f2032303234000000000000000000000000000000000000000000000000000000602082015250565b600062003a7f6025836200295b565b915062003a8c8262003a21565b604082019050919050565b6000602082019050818103600083015262003ab28162003a70565b9050919050565b7f5465616d2063616e206f6e6c79206d696e74207468652072656d61696e696e6760008201527f20746f6b656e7320696e20323032350000000000000000000000000000000000602082015250565b600062003b17602f836200295b565b915062003b248262003ab9565b604082019050919050565b6000602082019050818103600083015262003b4a8162003b08565b9050919050565b600062003b5e8262002a0e565b91507fffffffffffffffffffffffffffffffffffffffffffffffffffffffffffffffff820362003b935762003b9262003233565b5b600182019050919050565b600081905092915050565b600062003bb68262002950565b62003bc2818562003b9e565b935062003bd48185602086016200296c565b80840191505092915050565b600062003bee828462003ba9565b915081905092915050565b7f4f776e61626c653a206e6577206f776e657220697320746865207a65726f206160008201527f6464726573730000000000000000000000000000000000000000000000000000602082015250565b600062003c576026836200295b565b915062003c648262003bf9565b604082019050919050565b6000602082019050818103600083015262003c8a8162003c48565b9050919050565b7f4552433732313a207472616e736665722066726f6d20696e636f72726563742060008201527f6f776e6572000000000000000000000000000000000000000000000000000000602082015250565b600062003cef6025836200295b565b915062003cfc8262003c91565b604082019050919050565b6000602082019050818103600083015262003d228162003ce0565b9050919050565b7f4552433732313a207472616e7366657220746f20746865207a65726f2061646460008201527f7265737300000000000000000000000000000000000000000000000000000000602082015250565b600062003d876024836200295b565b915062003d948262003d29565b604082019050919050565b6000602082019050818103600083015262003dba8162003d78565b9050919050565b7f4f776e61626c653a2063616c6c6572206973206e6f7420746865206f776e6572600082015250565b600062003df96020836200295b565b915062003e068262003dc1565b602082019050919050565b6000602082019050818103600083015262003e2c8162003dea565b9050919050565b7f4552433732313a20617070726f766520746f2063616c6c657200000000000000600082015250565b600062003e6b6019836200295b565b915062003e788262003e33565b602082019050919050565b6000602082019050818103600083015262003e9e8162003e5c565b9050919050565b7f4552433732313a207472616e7366657220746f206e6f6e20455243373231526560008201527f63656976657220696d706c656d656e7465720000000000000000000000000000602082015250565b600062003f036032836200295b565b915062003f108262003ea5565b604082019050919050565b6000602082019050818103600083015262003f368162003ef4565b9050919050565b600062003f4a8262002a0e565b915062003f578362002a0e565b925082820390508181111562003f725762003f7162003233565b5b92915050565b600081519050919050565b600082825260208201905092915050565b600062003fa18262003f78565b62003fad818562003f83565b935062003fbf8185602086016200296c565b62003fca8162002998565b840191505092915050565b600060808201905062003fec600083018762002aaf565b62003ffb602083018662002aaf565b6200400a604083018562002bb1565b81810360608301526200401e818462003f94565b905095945050505050565b6000815190506200403a81620028ed565b92915050565b600060208284031215620040595762004058620028b7565b5b6000620040698482850162004029565b91505092915050565b7f4552433732313a206d696e7420746f20746865207a65726f2061646472657373600082015250565b6000620040aa6020836200295b565b9150620040b78262004072565b602082019050919050565b60006020820190508181036000830152620040dd816200409b565b9050919050565b7f4552433732313a20746f6b656e20616c7265616479206d696e74656400000000600082015250565b60006200411c601c836200295b565b91506200412982620040e4565b602082019050919050565b600060208201905081810360008301526200414f816200410d565b905091905056fe608060405234801561001057600080fd5b5061002d61002261003260201b60201c565b61003a60201b60201c565b6100fe565b600033905090565b60008060009054906101000a900473ffffffffffffffffffffffffffffffffffffffff169050816000806101000a81548173ffffffffffffffffffffffffffffffffffffffff021916908373ffffffffffffffffffffffffffffffffffffffff1602179055508173ffffffffffffffffffffffffffffffffffffffff168173ffffffffffffffffffffffffffffffffffffffff167f8be0079c531659141344cd1fd0a4f28419497f9722a3daafe3b4186f6b6457e060405160405180910390a35050565b610b148061010d6000396000f3fe608060405234801561001057600080fd5b506004361061007d5760003560e01c8063715018a61161005b578063715018a6146100eb5780637553e639146100f55780638da5cb5b14610125578063f2fde38b146101435761007d565b8063341cd3ab146100825780635e5c06e21461009e57806360b0d313146100cf575b600080fd5b61009c60048036038101906100979190610758565b61015f565b005b6100b860048036038101906100b391906107a1565b610228565b6040516100c6929190610802565b60405180910390f35b6100e960048036038101906100e49190610857565b610259565b005b6100f36102e9565b005b61010f600480360381019061010a91906107a1565b6102fd565b60405161011c91906108e4565b60405180910390f35b61012d61037b565b60405161013a919061090e565b60405180910390f35b61015d600480360381019061015891906107a1565b6103a4565b005b610167610427565b60005b815181101561022457604051806040016040528082815260200160011515815250600160008484815181106101a2576101a1610929565b5b602002602001015173ffffffffffffffffffffffffffffffffffffffff1673ffffffffffffffffffffffffffffffffffffffff1681526020019081526020016000206000820151816000015560208201518160010160006101000a81548160ff021916908315150217905550905050808061021c90610987565b91505061016a565b5050565b60016020528060005260406000206000915090508060000154908060010160009054906101000a900460ff16905082565b610261610427565b604051806040016040528082815260200160011515815250600160008473ffffffffffffffffffffffffffffffffffffffff1673ffffffffffffffffffffffffffffffffffffffff1681526020019081526020016000206000820151816000015560208201518160010160006101000a81548160ff0219169083151502179055509050505050565b6102f1610427565b6102fb60006104a5565b565b610305610571565b600160008373ffffffffffffffffffffffffffffffffffffffff1673ffffffffffffffffffffffffffffffffffffffff168152602001908152602001600020604051806040016040529081600082015481526020016001820160009054906101000a900460ff1615151515815250509050919050565b60008060009054906101000a900473ffffffffffffffffffffffffffffffffffffffff16905090565b6103ac610427565b600073ffffffffffffffffffffffffffffffffffffffff168173ffffffffffffffffffffffffffffffffffffffff160361041b576040517f08c379a000000000000000000000000000000000000000000000000000000000815260040161041290610a52565b60405180910390fd5b610424816104a5565b50565b61042f610569565b73ffffffffffffffffffffffffffffffffffffffff1661044d61037b565b73ffffffffffffffffffffffffffffffffffffffff16146104a3576040517f08c379a000000000000000000000000000000000000000000000000000000000815260040161049a90610abe565b60405180910390fd5b565b60008060009054906101000a900473ffffffffffffffffffffffffffffffffffffffff169050816000806101000a81548173ffffffffffffffffffffffffffffffffffffffff021916908373ffffffffffffffffffffffffffffffffffffffff1602179055508173ffffffffffffffffffffffffffffffffffffffff168173ffffffffffffffffffffffffffffffffffffffff167f8be0079c531659141344cd1fd0a4f28419497f9722a3daafe3b4186f6b6457e060405160405180910390a35050565b600033905090565b6040518060400160405280600081526020016000151581525090565b6000604051905090565b600080fd5b600080fd5b600080fd5b6000601f19601f8301169050919050565b7f4e487b7100000000000000000000000000000000000000000000000000000000600052604160045260246000fd5b6105ef826105a6565b810181811067ffffffffffffffff8211171561060e5761060d6105b7565b5b80604052505050565b600061062161058d565b905061062d82826105e6565b919050565b600067ffffffffffffffff82111561064d5761064c6105b7565b5b602082029050602081019050919050565b600080fd5b600073ffffffffffffffffffffffffffffffffffffffff82169050919050565b600061068e82610663565b9050919050565b61069e81610683565b81146106a957600080fd5b50565b6000813590506106bb81610695565b92915050565b60006106d46106cf84610632565b610617565b905080838252602082019050602084028301858111156106f7576106f661065e565b5b835b81811015610720578061070c88826106ac565b8452602084019350506020810190506106f9565b5050509392505050565b600082601f83011261073f5761073e6105a1565b5b813561074f8482602086016106c1565b91505092915050565b60006020828403121561076e5761076d610597565b5b600082013567ffffffffffffffff81111561078c5761078b61059c565b5b6107988482850161072a565b91505092915050565b6000602082840312156107b7576107b6610597565b5b60006107c5848285016106ac565b91505092915050565b6000819050919050565b6107e1816107ce565b82525050565b60008115159050919050565b6107fc816107e7565b82525050565b600060408201905061081760008301856107d8565b61082460208301846107f3565b9392505050565b610834816107ce565b811461083f57600080fd5b50565b6000813590506108518161082b565b92915050565b6000806040838503121561086e5761086d610597565b5b600061087c858286016106ac565b925050602061088d85828601610842565b9150509250929050565b6108a0816107ce565b82525050565b6108af816107e7565b82525050565b6040820160008201516108cb6000850182610897565b5060208201516108de60208501826108a6565b50505050565b60006040820190506108f960008301846108b5565b92915050565b61090881610683565b82525050565b600060208201905061092360008301846108ff565b92915050565b7f4e487b7100000000000000000000000000000000000000000000000000000000600052603260045260246000fd5b7f4e487b7100000000000000000000000000000000000000000000000000000000600052601160045260246000fd5b6000610992826107ce565b91507fffffffffffffffffffffffffffffffffffffffffffffffffffffffffffffffff82036109c4576109c3610958565b5b600182019050919050565b600082825260208201905092915050565b7f4f776e61626c653a206e6577206f776e657220697320746865207a65726f206160008201527f6464726573730000000000000000000000000000000000000000000000000000602082015250565b6000610a3c6026836109cf565b9150610a47826109e0565b604082019050919050565b60006020820190508181036000830152610a6b81610a2f565b9050919050565b7f4f776e61626c653a2063616c6c6572206973206e6f7420746865206f776e6572600082015250565b6000610aa86020836109cf565b9150610ab382610a72565b602082019050919050565b60006020820190508181036000830152610ad781610a9b565b905091905056fea26469706673582212203b824e0e98929b8687a0e9d92b226b2fa0f00fae76719160755575c91a3531ad64736f6c63430008110033697066733a2f2f516d5837527a644355487a506e67386d7373547058414257547856465651774e58313234746d70515551694639702f737461636b73a2646970667358221220a0514ec4ed8266a03b45450f5d9a66e2326f47eaf80ea4d6a94756ed9e7c2df564736f6c63430008110033",
  "immutableReferences": {},
  "source": "// SPDX-License-Identifier: MIT\npragma solidity >=0.4.22 <0.9.0;\n\nimport \"@openzeppelin/contracts/access/Ownable.sol\";\nimport \"@openzeppelin/contracts/token/ERC721/ERC721.sol\";\nimport \"@openzeppelin/contracts/token/common/ERC2981.sol\";\nimport \"./WhitelistData.sol\";\nimport \"./StacksAuctionHouse.sol\";\n\ncontract Stacks is ERC721, ERC2981, Ownable {\n  bytes4 private constant _INTERFACE_ID_ERC2981 = 0x2a55205a;\n\n  uint public constant PERCENT_DIVIDER = 10000;\n  uint public SALE_FEE = 1000; // 10%\n\n  bool public wlMintOpen;\n\n  mapping(uint => TokenMetaData) public tokenMetaDataRecord;\n\n  address public auctionHouse;\n  bool public mintOpen;\n  uint public maxSupply = 5000; // Immutable\n  uint public softCap = 4009; // Available for auction - Immutable\n  uint public teamMinted = 0;\n\n  struct TokenMetaData {\n    bool minted;\n    address minter;\n    uint timestamp;\n  }\n\n  constructor() ERC721(\"Stacks Investment Card\", \"STACKS\") {}\n\n  function mint(uint _tokenId) public {\n    require(mintOpen, \"Minting is not open\");\n    require(_tokenId >=0 && _tokenId <= maxSupply, \"Token ID is invalid\");\n\n    StacksAuctionHouse auctionHouseContract = StacksAuctionHouse(auctionHouse);\n    StacksAuctionHouse.Auction memory auction = auctionHouseContract.getAuction(_tokenId);\n    require(auction.endTime < block.timestamp, \"Auction is not closed\");\n\n    address payable auctionWinner = auctionHouseContract.getAuctionWinner(_tokenId);\n    require(auctionWinner == msg.sender, \"You are not the winner of this auction\");\n\n    require(!tokenMetaDataRecord[_tokenId].minted, \"Token has already been minted\");\n\n    tokenMetaDataRecord[_tokenId] = TokenMetaData(true, msg.sender, block.timestamp);\n    _safeMint(msg.sender, _tokenId);\n  }\n\n  // Admin functions\n  function setAuctionHouse(address _auctionHouse) public onlyOwner {\n    auctionHouse = _auctionHouse;\n  }\n\n  function toggleMint(bool _open) public onlyOwner {\n    mintOpen = _open;\n  }\n\n  function toggleWlMint(bool _open) public onlyOwner {\n    wlMintOpen = _open;\n  }\n\n  function wlMint() public {\n    require(wlMintOpen, \"Minting is not open\");\n    WhitelistData.Account memory wlAccount = new WhitelistData().getWhitelistAccount(msg.sender);\n    require(wlAccount.exists, \"Address not whitelisted\");\n\n    // _tokenId for whitelist is between 0 and 250\n    uint _tokenId = wlAccount.tokenId;\n    require(!tokenMetaDataRecord[_tokenId].minted, \"Token has already been minted\");\n\n    tokenMetaDataRecord[_tokenId] = TokenMetaData(true, msg.sender, block.timestamp);\n    _safeMint(msg.sender, _tokenId);\n  }\n\n  // Mint token for team members\n  function teamMint(address _teamMember) public onlyOwner {\n    // _tokenId for team is between 4010 and 5000\n    uint _tokenId = softCap + teamMinted + 1;\n    require(_tokenId <= maxSupply, \"Token ID is too high\");\n\n    // make it so team can only mint 300 tokens per year\n    // 2023: 4010 - 4309\n    if(_tokenId >= 4310) {\n      // 2024: 4310 - 4609\n      require(block.timestamp > 1704067199, \"Team can only mint 300 tokens in 2023\"); // 31/12/2023\n    }\n    if(_tokenId >= 4610) {\n      // 2025: 4610 - 4909\n      require(block.timestamp > 1735689599, \"Team can only mint 300 tokens in 2024\"); // 31/12/2024\n    }\n    if(_tokenId >= 4910) {\n      // 2026: 4910 - 5000\n      require(block.timestamp > 1767225599, \"Team can only mint the remaining tokens in 2025\"); // 31/12/2025\n    }\n\n    // set mint timestamp\n    tokenMetaDataRecord[_tokenId] = TokenMetaData(true, _teamMember, block.timestamp);\n    // mint token\n    _safeMint(_teamMember, _tokenId);\n    teamMinted++;\n  }\n\n  function setRegularFee(uint _SALE_FEE) public onlyOwner {\n    require(_SALE_FEE <= 3300, \"Fee must be less or equal to 33%\");\n    SALE_FEE = _SALE_FEE;\n  }\n\n  function supportsInterface(bytes4 _interfaceId) public view virtual override(ERC721, ERC2981) returns (bool) {\n    if (_interfaceId == _INTERFACE_ID_ERC2981) { return true; }\n    return super.supportsInterface(_interfaceId);\n  }\n\n  function royaltyInfo(uint256, uint256 _salePrice) override view public returns (address receiver, uint256 royaltyAmount){\n    return (owner(), _salePrice * SALE_FEE / PERCENT_DIVIDER);\n  }\n\n  // Overwrite tokenURI\n  // ignore tokenId as all the tokens have the same image\n  function tokenURI(uint256 _tokenId) public view virtual override returns (string memory) {\n    _requireMinted(_tokenId);\n    return string(abi.encodePacked(_baseURI()));\n  }\n\n  // Overwrite _baseURI\n  function _baseURI() override pure internal returns (string memory) {\n    return \"ipfs://QmX7RzdCUHzPng8mssTpXABWTxVFVQwNX124tmpQUQiF9p/stacks\";\n  }\n}\n",
  "sourcePath": "/Users/bruno/dev/crypto/stacks/contracts/Stacks.sol",
  "compiler": {
    "name": "solc",
    "version": "0.8.17+commit.8df45f5f.Emscripten.clang"
  },
  "schemaVersion": "3.4.10",
  "updatedAt": "2023-02-16T12:15:58.039Z",
  "networkType": "ethereum",
  "devdoc": {
    "kind": "dev",
    "methods": {
      "approve(address,uint256)": {
        "details": "See {IERC721-approve}."
      },
      "balanceOf(address)": {
        "details": "See {IERC721-balanceOf}."
      },
      "getApproved(uint256)": {
        "details": "See {IERC721-getApproved}."
      },
      "isApprovedForAll(address,address)": {
        "details": "See {IERC721-isApprovedForAll}."
      },
      "name()": {
        "details": "See {IERC721Metadata-name}."
      },
      "owner()": {
        "details": "Returns the address of the current owner."
      },
      "ownerOf(uint256)": {
        "details": "See {IERC721-ownerOf}."
      },
      "renounceOwnership()": {
        "details": "Leaves the contract without owner. It will not be possible to call `onlyOwner` functions anymore. Can only be called by the current owner. NOTE: Renouncing ownership will leave the contract without an owner, thereby removing any functionality that is only available to the owner."
      },
      "safeTransferFrom(address,address,uint256)": {
        "details": "See {IERC721-safeTransferFrom}."
      },
      "safeTransferFrom(address,address,uint256,bytes)": {
        "details": "See {IERC721-safeTransferFrom}."
      },
      "setApprovalForAll(address,bool)": {
        "details": "See {IERC721-setApprovalForAll}."
      },
      "symbol()": {
        "details": "See {IERC721Metadata-symbol}."
      },
      "transferFrom(address,address,uint256)": {
        "details": "See {IERC721-transferFrom}."
      },
      "transferOwnership(address)": {
        "details": "Transfers ownership of the contract to a new account (`newOwner`). Can only be called by the current owner."
      }
    },
    "version": 1
  },
  "userdoc": {
    "kind": "user",
    "methods": {},
    "version": 1
  }
}