{
  "contractName": "Stacks",
  "abi": [
    {
      "inputs": [],
      "stateMutability": "nonpayable",
      "type": "constructor"
    },
    {
      "anonymous": false,
      "inputs": [
        {
          "indexed": true,
          "internalType": "address",
          "name": "owner",
          "type": "address"
        },
        {
          "indexed": true,
          "internalType": "address",
          "name": "approved",
          "type": "address"
        },
        {
          "indexed": true,
          "internalType": "uint256",
          "name": "tokenId",
          "type": "uint256"
        }
      ],
      "name": "Approval",
      "type": "event"
    },
    {
      "anonymous": false,
      "inputs": [
        {
          "indexed": true,
          "internalType": "address",
          "name": "owner",
          "type": "address"
        },
        {
          "indexed": true,
          "internalType": "address",
          "name": "operator",
          "type": "address"
        },
        {
          "indexed": false,
          "internalType": "bool",
          "name": "approved",
          "type": "bool"
        }
      ],
      "name": "ApprovalForAll",
      "type": "event"
    },
    {
      "anonymous": false,
      "inputs": [
        {
          "indexed": true,
          "internalType": "address",
          "name": "previousOwner",
          "type": "address"
        },
        {
          "indexed": true,
          "internalType": "address",
          "name": "newOwner",
          "type": "address"
        }
      ],
      "name": "OwnershipTransferred",
      "type": "event"
    },
    {
      "anonymous": false,
      "inputs": [
        {
          "indexed": true,
          "internalType": "address",
          "name": "from",
          "type": "address"
        },
        {
          "indexed": true,
          "internalType": "address",
          "name": "to",
          "type": "address"
        },
        {
          "indexed": true,
          "internalType": "uint256",
          "name": "tokenId",
          "type": "uint256"
        }
      ],
      "name": "Transfer",
      "type": "event"
    },
    {
      "inputs": [],
      "name": "PERCENT_DIVIDER",
      "outputs": [
        {
          "internalType": "uint256",
          "name": "",
          "type": "uint256"
        }
      ],
      "stateMutability": "view",
      "type": "function",
      "constant": true
    },
    {
      "inputs": [],
      "name": "SALE_FEE",
      "outputs": [
        {
          "internalType": "uint256",
          "name": "",
          "type": "uint256"
        }
      ],
      "stateMutability": "view",
      "type": "function",
      "constant": true
    },
    {
      "inputs": [
        {
          "internalType": "address",
          "name": "to",
          "type": "address"
        },
        {
          "internalType": "uint256",
          "name": "tokenId",
          "type": "uint256"
        }
      ],
      "name": "approve",
      "outputs": [],
      "stateMutability": "nonpayable",
      "type": "function"
    },
    {
      "inputs": [],
      "name": "auctionHouse",
      "outputs": [
        {
          "internalType": "address",
          "name": "",
          "type": "address"
        }
      ],
      "stateMutability": "view",
      "type": "function",
      "constant": true
    },
    {
      "inputs": [
        {
          "internalType": "address",
          "name": "owner",
          "type": "address"
        }
      ],
      "name": "balanceOf",
      "outputs": [
        {
          "internalType": "uint256",
          "name": "",
          "type": "uint256"
        }
      ],
      "stateMutability": "view",
      "type": "function",
      "constant": true
    },
    {
      "inputs": [
        {
          "internalType": "uint256",
          "name": "tokenId",
          "type": "uint256"
        }
      ],
      "name": "getApproved",
      "outputs": [
        {
          "internalType": "address",
          "name": "",
          "type": "address"
        }
      ],
      "stateMutability": "view",
      "type": "function",
      "constant": true
    },
    {
      "inputs": [
        {
          "internalType": "address",
          "name": "owner",
          "type": "address"
        },
        {
          "internalType": "address",
          "name": "operator",
          "type": "address"
        }
      ],
      "name": "isApprovedForAll",
      "outputs": [
        {
          "internalType": "bool",
          "name": "",
          "type": "bool"
        }
      ],
      "stateMutability": "view",
      "type": "function",
      "constant": true
    },
    {
      "inputs": [],
      "name": "maxSupply",
      "outputs": [
        {
          "internalType": "uint256",
          "name": "",
          "type": "uint256"
        }
      ],
      "stateMutability": "view",
      "type": "function",
      "constant": true
    },
    {
      "inputs": [],
      "name": "mintOpen",
      "outputs": [
        {
          "internalType": "bool",
          "name": "",
          "type": "bool"
        }
      ],
      "stateMutability": "view",
      "type": "function",
      "constant": true
    },
    {
      "inputs": [],
      "name": "name",
      "outputs": [
        {
          "internalType": "string",
          "name": "",
          "type": "string"
        }
      ],
      "stateMutability": "view",
      "type": "function",
      "constant": true
    },
    {
      "inputs": [],
      "name": "owner",
      "outputs": [
        {
          "internalType": "address",
          "name": "",
          "type": "address"
        }
      ],
      "stateMutability": "view",
      "type": "function",
      "constant": true
    },
    {
      "inputs": [
        {
          "internalType": "uint256",
          "name": "tokenId",
          "type": "uint256"
        }
      ],
      "name": "ownerOf",
      "outputs": [
        {
          "internalType": "address",
          "name": "",
          "type": "address"
        }
      ],
      "stateMutability": "view",
      "type": "function",
      "constant": true
    },
    {
      "inputs": [],
      "name": "renounceOwnership",
      "outputs": [],
      "stateMutability": "nonpayable",
      "type": "function"
    },
    {
      "inputs": [
        {
          "internalType": "address",
          "name": "from",
          "type": "address"
        },
        {
          "internalType": "address",
          "name": "to",
          "type": "address"
        },
        {
          "internalType": "uint256",
          "name": "tokenId",
          "type": "uint256"
        }
      ],
      "name": "safeTransferFrom",
      "outputs": [],
      "stateMutability": "nonpayable",
      "type": "function"
    },
    {
      "inputs": [
        {
          "internalType": "address",
          "name": "from",
          "type": "address"
        },
        {
          "internalType": "address",
          "name": "to",
          "type": "address"
        },
        {
          "internalType": "uint256",
          "name": "tokenId",
          "type": "uint256"
        },
        {
          "internalType": "bytes",
          "name": "data",
          "type": "bytes"
        }
      ],
      "name": "safeTransferFrom",
      "outputs": [],
      "stateMutability": "nonpayable",
      "type": "function"
    },
    {
      "inputs": [
        {
          "internalType": "address",
          "name": "operator",
          "type": "address"
        },
        {
          "internalType": "bool",
          "name": "approved",
          "type": "bool"
        }
      ],
      "name": "setApprovalForAll",
      "outputs": [],
      "stateMutability": "nonpayable",
      "type": "function"
    },
    {
      "inputs": [],
      "name": "softCap",
      "outputs": [
        {
          "internalType": "uint256",
          "name": "",
          "type": "uint256"
        }
      ],
      "stateMutability": "view",
      "type": "function",
      "constant": true
    },
    {
      "inputs": [],
      "name": "symbol",
      "outputs": [
        {
          "internalType": "string",
          "name": "",
          "type": "string"
        }
      ],
      "stateMutability": "view",
      "type": "function",
      "constant": true
    },
    {
      "inputs": [],
      "name": "teamMinted",
      "outputs": [
        {
          "internalType": "uint256",
          "name": "",
          "type": "uint256"
        }
      ],
      "stateMutability": "view",
      "type": "function",
      "constant": true
    },
    {
      "inputs": [
        {
          "internalType": "uint256",
          "name": "",
          "type": "uint256"
        }
      ],
      "name": "tokenMetaDataRecord",
      "outputs": [
        {
          "internalType": "bool",
          "name": "minted",
          "type": "bool"
        },
        {
          "internalType": "uint256",
          "name": "timestamp",
          "type": "uint256"
        }
      ],
      "stateMutability": "view",
      "type": "function",
      "constant": true
    },
    {
      "inputs": [
        {
          "internalType": "uint256",
          "name": "",
          "type": "uint256"
        }
      ],
      "name": "tokenMinter",
      "outputs": [
        {
          "internalType": "address",
          "name": "",
          "type": "address"
        }
      ],
      "stateMutability": "view",
      "type": "function",
      "constant": true
    },
    {
      "inputs": [
        {
          "internalType": "address",
          "name": "from",
          "type": "address"
        },
        {
          "internalType": "address",
          "name": "to",
          "type": "address"
        },
        {
          "internalType": "uint256",
          "name": "tokenId",
          "type": "uint256"
        }
      ],
      "name": "transferFrom",
      "outputs": [],
      "stateMutability": "nonpayable",
      "type": "function"
    },
    {
      "inputs": [
        {
          "internalType": "address",
          "name": "newOwner",
          "type": "address"
        }
      ],
      "name": "transferOwnership",
      "outputs": [],
      "stateMutability": "nonpayable",
      "type": "function"
    },
    {
      "inputs": [],
      "name": "wlMintOpen",
      "outputs": [
        {
          "internalType": "bool",
          "name": "",
          "type": "bool"
        }
      ],
      "stateMutability": "view",
      "type": "function",
      "constant": true
    },
    {
      "inputs": [
        {
          "internalType": "uint256",
          "name": "_tokenId",
          "type": "uint256"
        }
      ],
      "name": "mint",
      "outputs": [],
      "stateMutability": "nonpayable",
      "type": "function"
    },
    {
      "inputs": [
        {
          "internalType": "address",
          "name": "_auctionHouse",
          "type": "address"
        }
      ],
      "name": "setAuctionHouse",
      "outputs": [],
      "stateMutability": "nonpayable",
      "type": "function"
    },
    {
      "inputs": [
        {
          "internalType": "bool",
          "name": "_open",
          "type": "bool"
        }
      ],
      "name": "toggleMint",
      "outputs": [],
      "stateMutability": "nonpayable",
      "type": "function"
    },
    {
      "inputs": [
        {
          "internalType": "bool",
          "name": "_open",
          "type": "bool"
        }
      ],
      "name": "toggleWlMint",
      "outputs": [],
      "stateMutability": "nonpayable",
      "type": "function"
    },
    {
      "inputs": [],
      "name": "wlMint",
      "outputs": [],
      "stateMutability": "nonpayable",
      "type": "function"
    },
    {
      "inputs": [
        {
          "internalType": "address",
          "name": "_teamMember",
          "type": "address"
        }
      ],
      "name": "teamMint",
      "outputs": [],
      "stateMutability": "nonpayable",
      "type": "function"
    },
    {
      "inputs": [
        {
          "internalType": "uint256",
          "name": "_SALE_FEE",
          "type": "uint256"
        }
      ],
      "name": "setRegularFee",
      "outputs": [],
      "stateMutability": "nonpayable",
      "type": "function"
    },
    {
      "inputs": [
        {
          "internalType": "bytes4",
          "name": "_interfaceId",
          "type": "bytes4"
        }
      ],
      "name": "supportsInterface",
      "outputs": [
        {
          "internalType": "bool",
          "name": "",
          "type": "bool"
        }
      ],
      "stateMutability": "view",
      "type": "function",
      "constant": true
    },
    {
      "inputs": [
        {
          "internalType": "uint256",
          "name": "",
          "type": "uint256"
        },
        {
          "internalType": "uint256",
          "name": "_salePrice",
          "type": "uint256"
        }
      ],
      "name": "royaltyInfo",
      "outputs": [
        {
          "internalType": "address",
          "name": "receiver",
          "type": "address"
        },
        {
          "internalType": "uint256",
          "name": "royaltyAmount",
          "type": "uint256"
        }
      ],
      "stateMutability": "view",
      "type": "function",
      "constant": true
    },
    {
      "inputs": [
        {
          "internalType": "uint256",
          "name": "_tokenId",
          "type": "uint256"
        }
      ],
      "name": "tokenURI",
      "outputs": [
        {
          "internalType": "string",
          "name": "",
          "type": "string"
        }
      ],
      "stateMutability": "view",
      "type": "function",
      "constant": true
    }
  ],
  "bytecode": "0x60806040526103e8600955611388600e55610fa9600f5560006010553480156200002857600080fd5b506040518060400160405280601681526020017f537461636b7320496e766573746d656e742043617264000000000000000000008152506040518060400160405280600681526020017f535441434b5300000000000000000000000000000000000000000000000000008152508160009081620000a6919062000429565b508060019081620000b8919062000429565b505050620000db620000cf620000e160201b60201c565b620000e960201b60201c565b62000510565b600033905090565b6000600860009054906101000a900473ffffffffffffffffffffffffffffffffffffffff16905081600860006101000a81548173ffffffffffffffffffffffffffffffffffffffff021916908373ffffffffffffffffffffffffffffffffffffffff1602179055508173ffffffffffffffffffffffffffffffffffffffff168173ffffffffffffffffffffffffffffffffffffffff167f8be0079c531659141344cd1fd0a4f28419497f9722a3daafe3b4186f6b6457e060405160405180910390a35050565b600081519050919050565b7f4e487b7100000000000000000000000000000000000000000000000000000000600052604160045260246000fd5b7f4e487b7100000000000000000000000000000000000000000000000000000000600052602260045260246000fd5b600060028204905060018216806200023157607f821691505b602082108103620002475762000246620001e9565b5b50919050565b60008190508160005260206000209050919050565b60006020601f8301049050919050565b600082821b905092915050565b600060088302620002b17fffffffffffffffffffffffffffffffffffffffffffffffffffffffffffffffff8262000272565b620002bd868362000272565b95508019841693508086168417925050509392505050565b6000819050919050565b6000819050919050565b60006200030a62000304620002fe84620002d5565b620002df565b620002d5565b9050919050565b6000819050919050565b6200032683620002e9565b6200033e620003358262000311565b8484546200027f565b825550505050565b600090565b6200035562000346565b620003628184846200031b565b505050565b5b818110156200038a576200037e6000826200034b565b60018101905062000368565b5050565b601f821115620003d957620003a3816200024d565b620003ae8462000262565b81016020851015620003be578190505b620003d6620003cd8562000262565b83018262000367565b50505b505050565b600082821c905092915050565b6000620003fe60001984600802620003de565b1980831691505092915050565b6000620004198383620003eb565b9150826002028217905092915050565b6200043482620001af565b67ffffffffffffffff81111562000450576200044f620001ba565b5b6200045c825462000218565b620004698282856200038e565b600060209050601f831160018114620004a157600084156200048c578287015190505b6200049885826200040b565b86555062000508565b601f198416620004b1866200024d565b60005b82811015620004db57848901518255600182019150602085019450602081019050620004b4565b86831015620004fb5784890151620004f7601f891682620003eb565b8355505b6001600288020188555050505b505050505050565b614a9480620005206000396000f3fe60806040523480156200001157600080fd5b5060043610620002375760003560e01c80638a4dcd851162000135578063b88d4fde11620000bd578063e76d89521162000087578063e76d89521462000678578063e8b5498d1462000698578063e985e9c514620006ba578063ed9152c814620006f0578063f2fde38b14620007125762000237565b8063b88d4fde14620005c9578063bdce6c4414620005e9578063c87b56dd1462000620578063d5abeb0114620006565762000237565b8063a0712d6811620000ff578063a0712d681462000549578063a22cb4651462000569578063ac8130881462000589578063b6a1dba114620005a95762000237565b80638a4dcd8514620004c35780638da5cb5b14620004e3578063906a26e0146200050557806395d89b4114620005275762000237565b806329fc7bd811620001c557806370a08231116200018f57806370a08231146200041d578063715018a61462000453578063729eaa66146200045f5780637c57d94714620004815780637f9fa41114620004b75762000237565b806329fc7bd8146200036e5780632a55205a146200039057806342842e0e14620003c75780636352211e14620003e75762000237565b8063095ea7b31162000207578063095ea7b314620002ec57806323b872dd146200030c57806324bbd049146200032c57806329c4ba09146200034e5762000237565b8062725dca146200023c57806301ffc9a7146200025e57806306fdde031462000294578063081812fc14620002b6575b600080fd5b6200024662000732565b6040516200025591906200275d565b60405180910390f35b6200027c6004803603810190620002769190620027eb565b62000745565b6040516200028b91906200275d565b60405180910390f35b6200029e620007b1565b604051620002ad9190620028b7565b60405180910390f35b620002d46004803603810190620002ce919062002916565b6200084b565b604051620002e391906200298d565b60405180910390f35b6200030a6004803603810190620003049190620029db565b62000893565b005b6200032a600480360381019062000324919062002a22565b620009bb565b005b6200033662000a24565b6040516200034591906200275d565b60405180910390f35b6200036c600480360381019062000366919062002916565b62000a37565b005b6200037862000a93565b60405162000387919062002a8f565b60405180910390f35b620003ae6004803603810190620003a8919062002aac565b62000a99565b604051620003be92919062002af3565b60405180910390f35b620003e56004803603810190620003df919062002a22565b62000ad0565b005b620004056004803603810190620003ff919062002916565b62000af2565b6040516200041491906200298d565b60405180910390f35b6200043b600480360381019062000435919062002b20565b62000b7d565b6040516200044a919062002a8f565b60405180910390f35b6200045d62000c37565b005b6200046962000c4f565b60405162000478919062002a8f565b60405180910390f35b6200049f600480360381019062000499919062002916565b62000c55565b604051620004ae91906200298d565b60405180910390f35b620004c162000c88565b005b620004e16004803603810190620004db919062002b83565b62000f40565b005b620004ed62000f67565b604051620004fc91906200298d565b60405180910390f35b6200050f62000f91565b6040516200051e919062002a8f565b60405180910390f35b6200053162000f97565b604051620005409190620028b7565b60405180910390f35b62000567600480360381019062000561919062002916565b62001031565b005b62000587600480360381019062000581919062002bb5565b6200123d565b005b620005a76004803603810190620005a1919062002b83565b62001257565b005b620005c76004803603810190620005c1919062002b20565b6200127e565b005b620005e76004803603810190620005e1919062002d4d565b6200147e565b005b62000607600480360381019062000601919062002916565b620014e9565b6040516200061792919062002dde565b60405180910390f35b6200063e600480360381019062000638919062002916565b6200151a565b6040516200064d9190620028b7565b60405180910390f35b6200066062001559565b6040516200066f919062002a8f565b60405180910390f35b62000696600480360381019062000690919062002b20565b6200155f565b005b620006a2620015ad565b604051620006b1919062002a8f565b60405180910390f35b620006d86004803603810190620006d2919062002e0b565b620015b3565b604051620006e791906200275d565b60405180910390f35b620006fa62001647565b6040516200070991906200298d565b60405180910390f35b6200073060048036038101906200072a919062002b20565b6200166d565b005b600a60009054906101000a900460ff1681565b6000632a55205a60e01b7bffffffffffffffffffffffffffffffffffffffffffffffffffffffff1916827bffffffffffffffffffffffffffffffffffffffffffffffffffffffff1916036200079e5760019050620007ac565b620007a982620016f7565b90505b919050565b606060008054620007c29062002e81565b80601f0160208091040260200160405190810160405280929190818152602001828054620007f09062002e81565b8015620008415780601f10620008155761010080835404028352916020019162000841565b820191906000526020600020905b8154815290600101906020018083116200082357829003601f168201915b5050505050905090565b6000620008588262001774565b6004600083815260200190815260200160002060009054906101000a900473ffffffffffffffffffffffffffffffffffffffff169050919050565b6000620008a08262000af2565b90508073ffffffffffffffffffffffffffffffffffffffff168373ffffffffffffffffffffffffffffffffffffffff160362000913576040517f08c379a00000000000000000000000000000000000000000000000000000000081526004016200090a9062002f2c565b60405180910390fd5b8073ffffffffffffffffffffffffffffffffffffffff1662000934620017c4565b73ffffffffffffffffffffffffffffffffffffffff161480620009685750620009678162000961620017c4565b620015b3565b5b620009aa576040517f08c379a0000000000000000000000000000000000000000000000000000000008152600401620009a19062002fc4565b60405180910390fd5b620009b68383620017cc565b505050565b620009d0620009c9620017c4565b8262001887565b62000a12576040517f08c379a000000000000000000000000000000000000000000000000000000000815260040162000a09906200305c565b60405180910390fd5b62000a1f83838362001924565b505050565b600d60149054906101000a900460ff1681565b62000a4162001c2e565b610ce481111562000a89576040517f08c379a000000000000000000000000000000000000000000000000000000000815260040162000a8090620030ce565b60405180910390fd5b8060098190555050565b61271081565b60008062000aa662000f67565b6127106009548562000ab991906200311f565b62000ac5919062003199565b915091509250929050565b62000aed838383604051806020016040528060008152506200147e565b505050565b60008062000b008362001cb3565b9050600073ffffffffffffffffffffffffffffffffffffffff168173ffffffffffffffffffffffffffffffffffffffff160362000b74576040517f08c379a000000000000000000000000000000000000000000000000000000000815260040162000b6b9062003221565b60405180910390fd5b80915050919050565b60008073ffffffffffffffffffffffffffffffffffffffff168273ffffffffffffffffffffffffffffffffffffffff160362000bf0576040517f08c379a000000000000000000000000000000000000000000000000000000000815260040162000be790620032b9565b60405180910390fd5b600360008373ffffffffffffffffffffffffffffffffffffffff1673ffffffffffffffffffffffffffffffffffffffff168152602001908152602001600020549050919050565b62000c4162001c2e565b62000c4d600062001cf0565b565b60095481565b600b6020528060005260406000206000915054906101000a900473ffffffffffffffffffffffffffffffffffffffff1681565b600a60009054906101000a900460ff1662000cda576040517f08c379a000000000000000000000000000000000000000000000000000000000815260040162000cd1906200332b565b60405180910390fd5b600060405162000cea9062002732565b604051809103906000f08015801562000d07573d6000803e3d6000fd5b5073ffffffffffffffffffffffffffffffffffffffff16637553e639336040518263ffffffff1660e01b815260040162000d4291906200298d565b6040805180830381865afa15801562000d5f573d6000803e3d6000fd5b505050506040513d601f19601f8201168201806040525081019062000d859190620033d9565b9050806020015162000dce576040517f08c379a000000000000000000000000000000000000000000000000000000000815260040162000dc5906200345b565b60405180910390fd5b600081600001519050600e5481111562000e1f576040517f08c379a000000000000000000000000000000000000000000000000000000000815260040162000e1690620034cd565b60405180910390fd5b600c600082815260200190815260200160002060000160009054906101000a900460ff161562000e86576040517f08c379a000000000000000000000000000000000000000000000000000000000815260040162000e7d906200353f565b60405180910390fd5b33600b600083815260200190815260200160002060006101000a81548173ffffffffffffffffffffffffffffffffffffffff021916908373ffffffffffffffffffffffffffffffffffffffff160217905550604051806040016040528060011515815260200142815250600c600083815260200190815260200160002060008201518160000160006101000a81548160ff0219169083151502179055506020820151816001015590505062000f3c338262001db6565b5050565b62000f4a62001c2e565b80600d60146101000a81548160ff02191690831515021790555050565b6000600860009054906101000a900473ffffffffffffffffffffffffffffffffffffffff16905090565b600f5481565b60606001805462000fa89062002e81565b80601f016020809104026020016040519081016040528092919081815260200182805462000fd69062002e81565b8015620010275780601f1062000ffb5761010080835404028352916020019162001027565b820191906000526020600020905b8154815290600101906020018083116200100957829003601f168201915b5050505050905090565b600d60149054906101000a900460ff1662001083576040517f08c379a00000000000000000000000000000000000000000000000000000000081526004016200107a906200332b565b60405180910390fd5b600e54811115620010cb576040517f08c379a0000000000000000000000000000000000000000000000000000000008152600401620010c290620034cd565b60405180910390fd5b3373ffffffffffffffffffffffffffffffffffffffff16600b600083815260200190815260200160002060009054906101000a900473ffffffffffffffffffffffffffffffffffffffff1673ffffffffffffffffffffffffffffffffffffffff16146200116f576040517f08c379a00000000000000000000000000000000000000000000000000000000081526004016200116690620035d7565b60405180910390fd5b600c600082815260200190815260200160002060000160009054906101000a900460ff1615620011d6576040517f08c379a0000000000000000000000000000000000000000000000000000000008152600401620011cd906200353f565b60405180910390fd5b604051806040016040528060011515815260200142815250600c600083815260200190815260200160002060008201518160000160006101000a81548160ff021916908315150217905550602082015181600101559050506200123a338262001db6565b50565b620012536200124b620017c4565b838362001dd6565b5050565b6200126162001c2e565b80600a60006101000a81548160ff02191690831515021790555050565b6200128862001c2e565b60006001601054600f546200129e9190620035f9565b620012aa9190620035f9565b9050600e54811115620012f4576040517f08c379a0000000000000000000000000000000000000000000000000000000008152600401620012eb90620034cd565b60405180910390fd5b6110d681106200134857636592007f421162001347576040517f08c379a00000000000000000000000000000000000000000000000000000000081526004016200133e90620036aa565b60405180910390fd5b5b61120281106200139c57636774857f42116200139b576040517f08c379a0000000000000000000000000000000000000000000000000000000008152600401620013929062003742565b60405180910390fd5b5b61132e8110620013f057636955b8ff4211620013ef576040517f08c379a0000000000000000000000000000000000000000000000000000000008152600401620013e690620037da565b60405180910390fd5b5b620013fc818362001f47565b604051806040016040528060011515815260200142815250600c600083815260200190815260200160002060008201518160000160006101000a81548160ff0219169083151502179055506020820151816001015590505062001460338262001db6565b601060008154809291906200147590620037fc565b91905055505050565b620014936200148c620017c4565b8362001887565b620014d5576040517f08c379a0000000000000000000000000000000000000000000000000000000008152600401620014cc906200305c565b60405180910390fd5b620014e38484848462001f9d565b50505050565b600c6020528060005260406000206000915090508060000160009054906101000a900460ff16908060010154905082565b6060620015278262001774565b6200153162002000565b6040516020016200154391906200388b565b6040516020818303038152906040529050919050565b600e5481565b6200156962001c2e565b80600d60006101000a81548173ffffffffffffffffffffffffffffffffffffffff021916908373ffffffffffffffffffffffffffffffffffffffff16021790555050565b60105481565b6000600560008473ffffffffffffffffffffffffffffffffffffffff1673ffffffffffffffffffffffffffffffffffffffff16815260200190815260200160002060008373ffffffffffffffffffffffffffffffffffffffff1673ffffffffffffffffffffffffffffffffffffffff16815260200190815260200160002060009054906101000a900460ff16905092915050565b600d60009054906101000a900473ffffffffffffffffffffffffffffffffffffffff1681565b6200167762001c2e565b600073ffffffffffffffffffffffffffffffffffffffff168173ffffffffffffffffffffffffffffffffffffffff1603620016e9576040517f08c379a0000000000000000000000000000000000000000000000000000000008152600401620016e0906200391a565b60405180910390fd5b620016f48162001cf0565b50565b60007f2a55205a000000000000000000000000000000000000000000000000000000007bffffffffffffffffffffffffffffffffffffffffffffffffffffffff1916827bffffffffffffffffffffffffffffffffffffffffffffffffffffffff191614806200176d57506200176c8262002021565b5b9050919050565b6200177f8162002107565b620017c1576040517f08c379a0000000000000000000000000000000000000000000000000000000008152600401620017b89062003221565b60405180910390fd5b50565b600033905090565b816004600083815260200190815260200160002060006101000a81548173ffffffffffffffffffffffffffffffffffffffff021916908373ffffffffffffffffffffffffffffffffffffffff160217905550808273ffffffffffffffffffffffffffffffffffffffff16620018418362000af2565b73ffffffffffffffffffffffffffffffffffffffff167f8c5be1e5ebec7d5bd14f71427d1e84f3dd0314c0f7b2291e5b200ac8c7c3b92560405160405180910390a45050565b600080620018958362000af2565b90508073ffffffffffffffffffffffffffffffffffffffff168473ffffffffffffffffffffffffffffffffffffffff161480620018da5750620018d98185620015b3565b5b806200191b57508373ffffffffffffffffffffffffffffffffffffffff1662001903846200084b565b73ffffffffffffffffffffffffffffffffffffffff16145b91505092915050565b8273ffffffffffffffffffffffffffffffffffffffff16620019468262000af2565b73ffffffffffffffffffffffffffffffffffffffff16146200199f576040517f08c379a00000000000000000000000000000000000000000000000000000000081526004016200199690620039b2565b60405180910390fd5b600073ffffffffffffffffffffffffffffffffffffffff168273ffffffffffffffffffffffffffffffffffffffff160362001a11576040517f08c379a000000000000000000000000000000000000000000000000000000000815260040162001a089062003a4a565b60405180910390fd5b62001a2083838360016200214a565b8273ffffffffffffffffffffffffffffffffffffffff1662001a428262000af2565b73ffffffffffffffffffffffffffffffffffffffff161462001a9b576040517f08c379a000000000000000000000000000000000000000000000000000000000815260040162001a9290620039b2565b60405180910390fd5b6004600082815260200190815260200160002060006101000a81549073ffffffffffffffffffffffffffffffffffffffff02191690556001600360008573ffffffffffffffffffffffffffffffffffffffff1673ffffffffffffffffffffffffffffffffffffffff168152602001908152602001600020600082825403925050819055506001600360008473ffffffffffffffffffffffffffffffffffffffff1673ffffffffffffffffffffffffffffffffffffffff16815260200190815260200160002060008282540192505081905550816002600083815260200190815260200160002060006101000a81548173ffffffffffffffffffffffffffffffffffffffff021916908373ffffffffffffffffffffffffffffffffffffffff160217905550808273ffffffffffffffffffffffffffffffffffffffff168473ffffffffffffffffffffffffffffffffffffffff167fddf252ad1be2c89b69c2b068fc378daa952ba7f163c4a11628f55a4df523b3ef60405160405180910390a462001c29838383600162002277565b505050565b62001c38620017c4565b73ffffffffffffffffffffffffffffffffffffffff1662001c5862000f67565b73ffffffffffffffffffffffffffffffffffffffff161462001cb1576040517f08c379a000000000000000000000000000000000000000000000000000000000815260040162001ca89062003abc565b60405180910390fd5b565b60006002600083815260200190815260200160002060009054906101000a900473ffffffffffffffffffffffffffffffffffffffff169050919050565b6000600860009054906101000a900473ffffffffffffffffffffffffffffffffffffffff16905081600860006101000a81548173ffffffffffffffffffffffffffffffffffffffff021916908373ffffffffffffffffffffffffffffffffffffffff1602179055508173ffffffffffffffffffffffffffffffffffffffff168173ffffffffffffffffffffffffffffffffffffffff167f8be0079c531659141344cd1fd0a4f28419497f9722a3daafe3b4186f6b6457e060405160405180910390a35050565b62001dd28282604051806020016040528060008152506200227d565b5050565b8173ffffffffffffffffffffffffffffffffffffffff168373ffffffffffffffffffffffffffffffffffffffff160362001e47576040517f08c379a000000000000000000000000000000000000000000000000000000000815260040162001e3e9062003b2e565b60405180910390fd5b80600560008573ffffffffffffffffffffffffffffffffffffffff1673ffffffffffffffffffffffffffffffffffffffff16815260200190815260200160002060008473ffffffffffffffffffffffffffffffffffffffff1673ffffffffffffffffffffffffffffffffffffffff16815260200190815260200160002060006101000a81548160ff0219169083151502179055508173ffffffffffffffffffffffffffffffffffffffff168373ffffffffffffffffffffffffffffffffffffffff167f17307eab39ab6107e8899845ad3d59bd9653f200f220920489ca2b5937696c318360405162001f3a91906200275d565b60405180910390a3505050565b80600b600084815260200190815260200160002060006101000a81548173ffffffffffffffffffffffffffffffffffffffff021916908373ffffffffffffffffffffffffffffffffffffffff1602179055505050565b62001faa84848462001924565b62001fb884848484620022df565b62001ffa576040517f08c379a000000000000000000000000000000000000000000000000000000000815260040162001ff19062003bc6565b60405180910390fd5b50505050565b60606040518060600160405280603c815260200162004a23603c9139905090565b60007f80ac58cd000000000000000000000000000000000000000000000000000000007bffffffffffffffffffffffffffffffffffffffffffffffffffffffff1916827bffffffffffffffffffffffffffffffffffffffffffffffffffffffff19161480620020ed57507f5b5e139f000000000000000000000000000000000000000000000000000000007bffffffffffffffffffffffffffffffffffffffffffffffffffffffff1916827bffffffffffffffffffffffffffffffffffffffffffffffffffffffff1916145b80620021005750620020ff8262002477565b5b9050919050565b60008073ffffffffffffffffffffffffffffffffffffffff166200212b8362001cb3565b73ffffffffffffffffffffffffffffffffffffffff1614159050919050565b60018111156200227157600073ffffffffffffffffffffffffffffffffffffffff168473ffffffffffffffffffffffffffffffffffffffff1614620021e25780600360008673ffffffffffffffffffffffffffffffffffffffff1673ffffffffffffffffffffffffffffffffffffffff1681526020019081526020016000206000828254620021da919062003be8565b925050819055505b600073ffffffffffffffffffffffffffffffffffffffff168373ffffffffffffffffffffffffffffffffffffffff1614620022705780600360008573ffffffffffffffffffffffffffffffffffffffff1673ffffffffffffffffffffffffffffffffffffffff1681526020019081526020016000206000828254620022689190620035f9565b925050819055505b5b50505050565b50505050565b620022898383620024e1565b620022986000848484620022df565b620022da576040517f08c379a0000000000000000000000000000000000000000000000000000000008152600401620022d19062003bc6565b60405180910390fd5b505050565b6000620023028473ffffffffffffffffffffffffffffffffffffffff166200270f565b156200246a578373ffffffffffffffffffffffffffffffffffffffff1663150b7a026200232e620017c4565b8786866040518563ffffffff1660e01b815260040162002352949392919062003c80565b6020604051808303816000875af19250505080156200239157506040513d601f19601f820116820180604052508101906200238e919062003ceb565b60015b62002419573d8060008114620023c4576040519150601f19603f3d011682016040523d82523d6000602084013e620023c9565b606091505b50600081510362002411576040517f08c379a0000000000000000000000000000000000000000000000000000000008152600401620024089062003bc6565b60405180910390fd5b805181602001fd5b63150b7a0260e01b7bffffffffffffffffffffffffffffffffffffffffffffffffffffffff1916817bffffffffffffffffffffffffffffffffffffffffffffffffffffffff1916149150506200246f565b600190505b949350505050565b60007f01ffc9a7000000000000000000000000000000000000000000000000000000007bffffffffffffffffffffffffffffffffffffffffffffffffffffffff1916827bffffffffffffffffffffffffffffffffffffffffffffffffffffffff1916149050919050565b600073ffffffffffffffffffffffffffffffffffffffff168273ffffffffffffffffffffffffffffffffffffffff160362002553576040517f08c379a00000000000000000000000000000000000000000000000000000000081526004016200254a9062003d6d565b60405180910390fd5b6200255e8162002107565b15620025a1576040517f08c379a0000000000000000000000000000000000000000000000000000000008152600401620025989062003ddf565b60405180910390fd5b620025b16000838360016200214a565b620025bc8162002107565b15620025ff576040517f08c379a0000000000000000000000000000000000000000000000000000000008152600401620025f69062003ddf565b60405180910390fd5b6001600360008473ffffffffffffffffffffffffffffffffffffffff1673ffffffffffffffffffffffffffffffffffffffff16815260200190815260200160002060008282540192505081905550816002600083815260200190815260200160002060006101000a81548173ffffffffffffffffffffffffffffffffffffffff021916908373ffffffffffffffffffffffffffffffffffffffff160217905550808273ffffffffffffffffffffffffffffffffffffffff16600073ffffffffffffffffffffffffffffffffffffffff167fddf252ad1be2c89b69c2b068fc378daa952ba7f163c4a11628f55a4df523b3ef60405160405180910390a46200270b60008383600162002277565b5050565b6000808273ffffffffffffffffffffffffffffffffffffffff163b119050919050565b610c218062003e0283390190565b60008115159050919050565b620027578162002740565b82525050565b60006020820190506200277460008301846200274c565b92915050565b6000604051905090565b600080fd5b600080fd5b60007fffffffff0000000000000000000000000000000000000000000000000000000082169050919050565b620027c5816200278e565b8114620027d157600080fd5b50565b600081359050620027e581620027ba565b92915050565b60006020828403121562002804576200280362002784565b5b60006200281484828501620027d4565b91505092915050565b600081519050919050565b600082825260208201905092915050565b60005b83811015620028595780820151818401526020810190506200283c565b60008484015250505050565b6000601f19601f8301169050919050565b600062002883826200281d565b6200288f818562002828565b9350620028a181856020860162002839565b620028ac8162002865565b840191505092915050565b60006020820190508181036000830152620028d3818462002876565b905092915050565b6000819050919050565b620028f081620028db565b8114620028fc57600080fd5b50565b6000813590506200291081620028e5565b92915050565b6000602082840312156200292f576200292e62002784565b5b60006200293f84828501620028ff565b91505092915050565b600073ffffffffffffffffffffffffffffffffffffffff82169050919050565b6000620029758262002948565b9050919050565b620029878162002968565b82525050565b6000602082019050620029a460008301846200297c565b92915050565b620029b58162002968565b8114620029c157600080fd5b50565b600081359050620029d581620029aa565b92915050565b60008060408385031215620029f557620029f462002784565b5b600062002a0585828601620029c4565b925050602062002a1885828601620028ff565b9150509250929050565b60008060006060848603121562002a3e5762002a3d62002784565b5b600062002a4e86828701620029c4565b935050602062002a6186828701620029c4565b925050604062002a7486828701620028ff565b9150509250925092565b62002a8981620028db565b82525050565b600060208201905062002aa6600083018462002a7e565b92915050565b6000806040838503121562002ac65762002ac562002784565b5b600062002ad685828601620028ff565b925050602062002ae985828601620028ff565b9150509250929050565b600060408201905062002b0a60008301856200297c565b62002b19602083018462002a7e565b9392505050565b60006020828403121562002b395762002b3862002784565b5b600062002b4984828501620029c4565b91505092915050565b62002b5d8162002740565b811462002b6957600080fd5b50565b60008135905062002b7d8162002b52565b92915050565b60006020828403121562002b9c5762002b9b62002784565b5b600062002bac8482850162002b6c565b91505092915050565b6000806040838503121562002bcf5762002bce62002784565b5b600062002bdf85828601620029c4565b925050602062002bf28582860162002b6c565b9150509250929050565b600080fd5b600080fd5b7f4e487b7100000000000000000000000000000000000000000000000000000000600052604160045260246000fd5b62002c408262002865565b810181811067ffffffffffffffff8211171562002c625762002c6162002c06565b5b80604052505050565b600062002c776200277a565b905062002c85828262002c35565b919050565b600067ffffffffffffffff82111562002ca85762002ca762002c06565b5b62002cb38262002865565b9050602081019050919050565b82818337600083830152505050565b600062002ce662002ce08462002c8a565b62002c6b565b90508281526020810184848401111562002d055762002d0462002c01565b5b62002d1284828562002cc0565b509392505050565b600082601f83011262002d325762002d3162002bfc565b5b813562002d4484826020860162002ccf565b91505092915050565b6000806000806080858703121562002d6a5762002d6962002784565b5b600062002d7a87828801620029c4565b945050602062002d8d87828801620029c4565b935050604062002da087828801620028ff565b925050606085013567ffffffffffffffff81111562002dc45762002dc362002789565b5b62002dd28782880162002d1a565b91505092959194509250565b600060408201905062002df560008301856200274c565b62002e04602083018462002a7e565b9392505050565b6000806040838503121562002e255762002e2462002784565b5b600062002e3585828601620029c4565b925050602062002e4885828601620029c4565b9150509250929050565b7f4e487b7100000000000000000000000000000000000000000000000000000000600052602260045260246000fd5b6000600282049050600182168062002e9a57607f821691505b60208210810362002eb05762002eaf62002e52565b5b50919050565b7f4552433732313a20617070726f76616c20746f2063757272656e74206f776e6560008201527f7200000000000000000000000000000000000000000000000000000000000000602082015250565b600062002f1460218362002828565b915062002f218262002eb6565b604082019050919050565b6000602082019050818103600083015262002f478162002f05565b9050919050565b7f4552433732313a20617070726f76652063616c6c6572206973206e6f7420746f60008201527f6b656e206f776e6572206f7220617070726f76656420666f7220616c6c000000602082015250565b600062002fac603d8362002828565b915062002fb98262002f4e565b604082019050919050565b6000602082019050818103600083015262002fdf8162002f9d565b9050919050565b7f4552433732313a2063616c6c6572206973206e6f7420746f6b656e206f776e6560008201527f72206f7220617070726f76656400000000000000000000000000000000000000602082015250565b600062003044602d8362002828565b9150620030518262002fe6565b604082019050919050565b60006020820190508181036000830152620030778162003035565b9050919050565b7f466565206d757374206265206c657373206f7220657175616c20746f20333325600082015250565b6000620030b660208362002828565b9150620030c3826200307e565b602082019050919050565b60006020820190508181036000830152620030e981620030a7565b9050919050565b7f4e487b7100000000000000000000000000000000000000000000000000000000600052601160045260246000fd5b60006200312c82620028db565b91506200313983620028db565b92508282026200314981620028db565b91508282048414831517620031635762003162620030f0565b5b5092915050565b7f4e487b7100000000000000000000000000000000000000000000000000000000600052601260045260246000fd5b6000620031a682620028db565b9150620031b383620028db565b925082620031c657620031c56200316a565b5b828204905092915050565b7f4552433732313a20696e76616c696420746f6b656e2049440000000000000000600082015250565b60006200320960188362002828565b91506200321682620031d1565b602082019050919050565b600060208201905081810360008301526200323c81620031fa565b9050919050565b7f4552433732313a2061646472657373207a65726f206973206e6f74206120766160008201527f6c6964206f776e65720000000000000000000000000000000000000000000000602082015250565b6000620032a160298362002828565b9150620032ae8262003243565b604082019050919050565b60006020820190508181036000830152620032d48162003292565b9050919050565b7f4d696e74696e67206973206e6f74206f70656e00000000000000000000000000600082015250565b60006200331360138362002828565b91506200332082620032db565b602082019050919050565b60006020820190508181036000830152620033468162003304565b9050919050565b600080fd5b6000815190506200336381620028e5565b92915050565b6000815190506200337a8162002b52565b92915050565b6000604082840312156200339957620033986200334d565b5b620033a5604062002c6b565b90506000620033b78482850162003352565b6000830152506020620033cd8482850162003369565b60208301525092915050565b600060408284031215620033f257620033f162002784565b5b6000620034028482850162003380565b91505092915050565b7f41646472657373206e6f742077686974656c6973746564000000000000000000600082015250565b60006200344360178362002828565b915062003450826200340b565b602082019050919050565b60006020820190508181036000830152620034768162003434565b9050919050565b7f546f6b656e20494420697320746f6f2068696768000000000000000000000000600082015250565b6000620034b560148362002828565b9150620034c2826200347d565b602082019050919050565b60006020820190508181036000830152620034e881620034a6565b9050919050565b7f546f6b656e2068617320616c7265616479206265656e206d696e746564000000600082015250565b600062003527601d8362002828565b91506200353482620034ef565b602082019050919050565b600060208201905081810360008301526200355a8162003518565b9050919050565b7f596f7520617265206e6f7420616c6c6f77656420746f206d696e74207468697360008201527f20746f6b656e0000000000000000000000000000000000000000000000000000602082015250565b6000620035bf60268362002828565b9150620035cc8262003561565b604082019050919050565b60006020820190508181036000830152620035f281620035b0565b9050919050565b60006200360682620028db565b91506200361383620028db565b92508282019050808211156200362e576200362d620030f0565b5b92915050565b7f5465616d2063616e206f6e6c79206d696e742033303020746f6b656e7320696e60008201527f2032303233000000000000000000000000000000000000000000000000000000602082015250565b60006200369260258362002828565b91506200369f8262003634565b604082019050919050565b60006020820190508181036000830152620036c58162003683565b9050919050565b7f5465616d2063616e206f6e6c79206d696e742033303020746f6b656e7320696e60008201527f2032303234000000000000000000000000000000000000000000000000000000602082015250565b60006200372a60258362002828565b91506200373782620036cc565b604082019050919050565b600060208201905081810360008301526200375d816200371b565b9050919050565b7f5465616d2063616e206f6e6c79206d696e74207468652072656d61696e696e6760008201527f20746f6b656e7320696e20323032350000000000000000000000000000000000602082015250565b6000620037c2602f8362002828565b9150620037cf8262003764565b604082019050919050565b60006020820190508181036000830152620037f581620037b3565b9050919050565b60006200380982620028db565b91507fffffffffffffffffffffffffffffffffffffffffffffffffffffffffffffffff82036200383e576200383d620030f0565b5b600182019050919050565b600081905092915050565b600062003861826200281d565b6200386d818562003849565b93506200387f81856020860162002839565b80840191505092915050565b600062003899828462003854565b915081905092915050565b7f4f776e61626c653a206e6577206f776e657220697320746865207a65726f206160008201527f6464726573730000000000000000000000000000000000000000000000000000602082015250565b60006200390260268362002828565b91506200390f82620038a4565b604082019050919050565b600060208201905081810360008301526200393581620038f3565b9050919050565b7f4552433732313a207472616e736665722066726f6d20696e636f72726563742060008201527f6f776e6572000000000000000000000000000000000000000000000000000000602082015250565b60006200399a60258362002828565b9150620039a7826200393c565b604082019050919050565b60006020820190508181036000830152620039cd816200398b565b9050919050565b7f4552433732313a207472616e7366657220746f20746865207a65726f2061646460008201527f7265737300000000000000000000000000000000000000000000000000000000602082015250565b600062003a3260248362002828565b915062003a3f82620039d4565b604082019050919050565b6000602082019050818103600083015262003a658162003a23565b9050919050565b7f4f776e61626c653a2063616c6c6572206973206e6f7420746865206f776e6572600082015250565b600062003aa460208362002828565b915062003ab18262003a6c565b602082019050919050565b6000602082019050818103600083015262003ad78162003a95565b9050919050565b7f4552433732313a20617070726f766520746f2063616c6c657200000000000000600082015250565b600062003b1660198362002828565b915062003b238262003ade565b602082019050919050565b6000602082019050818103600083015262003b498162003b07565b9050919050565b7f4552433732313a207472616e7366657220746f206e6f6e20455243373231526560008201527f63656976657220696d706c656d656e7465720000000000000000000000000000602082015250565b600062003bae60328362002828565b915062003bbb8262003b50565b604082019050919050565b6000602082019050818103600083015262003be18162003b9f565b9050919050565b600062003bf582620028db565b915062003c0283620028db565b925082820390508181111562003c1d5762003c1c620030f0565b5b92915050565b600081519050919050565b600082825260208201905092915050565b600062003c4c8262003c23565b62003c58818562003c2e565b935062003c6a81856020860162002839565b62003c758162002865565b840191505092915050565b600060808201905062003c9760008301876200297c565b62003ca660208301866200297c565b62003cb5604083018562002a7e565b818103606083015262003cc9818462003c3f565b905095945050505050565b60008151905062003ce581620027ba565b92915050565b60006020828403121562003d045762003d0362002784565b5b600062003d148482850162003cd4565b91505092915050565b7f4552433732313a206d696e7420746f20746865207a65726f2061646472657373600082015250565b600062003d5560208362002828565b915062003d628262003d1d565b602082019050919050565b6000602082019050818103600083015262003d888162003d46565b9050919050565b7f4552433732313a20746f6b656e20616c7265616479206d696e74656400000000600082015250565b600062003dc7601c8362002828565b915062003dd48262003d8f565b602082019050919050565b6000602082019050818103600083015262003dfa8162003db8565b905091905056fe608060405234801561001057600080fd5b5061002d61002261003260201b60201c565b61003a60201b60201c565b6100fe565b600033905090565b60008060009054906101000a900473ffffffffffffffffffffffffffffffffffffffff169050816000806101000a81548173ffffffffffffffffffffffffffffffffffffffff021916908373ffffffffffffffffffffffffffffffffffffffff1602179055508173ffffffffffffffffffffffffffffffffffffffff168173ffffffffffffffffffffffffffffffffffffffff167f8be0079c531659141344cd1fd0a4f28419497f9722a3daafe3b4186f6b6457e060405160405180910390a35050565b610b148061010d6000396000f3fe608060405234801561001057600080fd5b506004361061007d5760003560e01c8063715018a61161005b578063715018a6146100eb5780637553e639146100f55780638da5cb5b14610125578063f2fde38b146101435761007d565b8063341cd3ab146100825780635e5c06e21461009e57806360b0d313146100cf575b600080fd5b61009c60048036038101906100979190610758565b61015f565b005b6100b860048036038101906100b391906107a1565b610228565b6040516100c6929190610802565b60405180910390f35b6100e960048036038101906100e49190610857565b610259565b005b6100f36102e9565b005b61010f600480360381019061010a91906107a1565b6102fd565b60405161011c91906108e4565b60405180910390f35b61012d61037b565b60405161013a919061090e565b60405180910390f35b61015d600480360381019061015891906107a1565b6103a4565b005b610167610427565b60005b815181101561022457604051806040016040528082815260200160011515815250600160008484815181106101a2576101a1610929565b5b602002602001015173ffffffffffffffffffffffffffffffffffffffff1673ffffffffffffffffffffffffffffffffffffffff1681526020019081526020016000206000820151816000015560208201518160010160006101000a81548160ff021916908315150217905550905050808061021c90610987565b91505061016a565b5050565b60016020528060005260406000206000915090508060000154908060010160009054906101000a900460ff16905082565b610261610427565b604051806040016040528082815260200160011515815250600160008473ffffffffffffffffffffffffffffffffffffffff1673ffffffffffffffffffffffffffffffffffffffff1681526020019081526020016000206000820151816000015560208201518160010160006101000a81548160ff0219169083151502179055509050505050565b6102f1610427565b6102fb60006104a5565b565b610305610571565b600160008373ffffffffffffffffffffffffffffffffffffffff1673ffffffffffffffffffffffffffffffffffffffff168152602001908152602001600020604051806040016040529081600082015481526020016001820160009054906101000a900460ff1615151515815250509050919050565b60008060009054906101000a900473ffffffffffffffffffffffffffffffffffffffff16905090565b6103ac610427565b600073ffffffffffffffffffffffffffffffffffffffff168173ffffffffffffffffffffffffffffffffffffffff160361041b576040517f08c379a000000000000000000000000000000000000000000000000000000000815260040161041290610a52565b60405180910390fd5b610424816104a5565b50565b61042f610569565b73ffffffffffffffffffffffffffffffffffffffff1661044d61037b565b73ffffffffffffffffffffffffffffffffffffffff16146104a3576040517f08c379a000000000000000000000000000000000000000000000000000000000815260040161049a90610abe565b60405180910390fd5b565b60008060009054906101000a900473ffffffffffffffffffffffffffffffffffffffff169050816000806101000a81548173ffffffffffffffffffffffffffffffffffffffff021916908373ffffffffffffffffffffffffffffffffffffffff1602179055508173ffffffffffffffffffffffffffffffffffffffff168173ffffffffffffffffffffffffffffffffffffffff167f8be0079c531659141344cd1fd0a4f28419497f9722a3daafe3b4186f6b6457e060405160405180910390a35050565b600033905090565b6040518060400160405280600081526020016000151581525090565b6000604051905090565b600080fd5b600080fd5b600080fd5b6000601f19601f8301169050919050565b7f4e487b7100000000000000000000000000000000000000000000000000000000600052604160045260246000fd5b6105ef826105a6565b810181811067ffffffffffffffff8211171561060e5761060d6105b7565b5b80604052505050565b600061062161058d565b905061062d82826105e6565b919050565b600067ffffffffffffffff82111561064d5761064c6105b7565b5b602082029050602081019050919050565b600080fd5b600073ffffffffffffffffffffffffffffffffffffffff82169050919050565b600061068e82610663565b9050919050565b61069e81610683565b81146106a957600080fd5b50565b6000813590506106bb81610695565b92915050565b60006106d46106cf84610632565b610617565b905080838252602082019050602084028301858111156106f7576106f661065e565b5b835b81811015610720578061070c88826106ac565b8452602084019350506020810190506106f9565b5050509392505050565b600082601f83011261073f5761073e6105a1565b5b813561074f8482602086016106c1565b91505092915050565b60006020828403121561076e5761076d610597565b5b600082013567ffffffffffffffff81111561078c5761078b61059c565b5b6107988482850161072a565b91505092915050565b6000602082840312156107b7576107b6610597565b5b60006107c5848285016106ac565b91505092915050565b6000819050919050565b6107e1816107ce565b82525050565b60008115159050919050565b6107fc816107e7565b82525050565b600060408201905061081760008301856107d8565b61082460208301846107f3565b9392505050565b610834816107ce565b811461083f57600080fd5b50565b6000813590506108518161082b565b92915050565b6000806040838503121561086e5761086d610597565b5b600061087c858286016106ac565b925050602061088d85828601610842565b9150509250929050565b6108a0816107ce565b82525050565b6108af816107e7565b82525050565b6040820160008201516108cb6000850182610897565b5060208201516108de60208501826108a6565b50505050565b60006040820190506108f960008301846108b5565b92915050565b61090881610683565b82525050565b600060208201905061092360008301846108ff565b92915050565b7f4e487b7100000000000000000000000000000000000000000000000000000000600052603260045260246000fd5b7f4e487b7100000000000000000000000000000000000000000000000000000000600052601160045260246000fd5b6000610992826107ce565b91507fffffffffffffffffffffffffffffffffffffffffffffffffffffffffffffffff82036109c4576109c3610958565b5b600182019050919050565b600082825260208201905092915050565b7f4f776e61626c653a206e6577206f776e657220697320746865207a65726f206160008201527f6464726573730000000000000000000000000000000000000000000000000000602082015250565b6000610a3c6026836109cf565b9150610a47826109e0565b604082019050919050565b60006020820190508181036000830152610a6b81610a2f565b9050919050565b7f4f776e61626c653a2063616c6c6572206973206e6f7420746865206f776e6572600082015250565b6000610aa86020836109cf565b9150610ab382610a72565b602082019050919050565b60006020820190508181036000830152610ad781610a9b565b905091905056fea26469706673582212203b824e0e98929b8687a0e9d92b226b2fa0f00fae76719160755575c91a3531ad64736f6c63430008110033697066733a2f2f516d5837527a644355487a506e67386d7373547058414257547856465651774e58313234746d70515551694639702f737461636b73a2646970667358221220449b261afb66f2b53b311e184960279d4c37cc81fd3900dbe3c8990fcf9e3b2f64736f6c63430008110033",
  "immutableReferences": {},
  "source": "// SPDX-License-Identifier: MIT\npragma solidity >=0.4.22 <0.9.0;\n\nimport \"@openzeppelin/contracts/access/Ownable.sol\";\nimport \"@openzeppelin/contracts/token/ERC721/ERC721.sol\";\nimport \"@openzeppelin/contracts/token/common/ERC2981.sol\";\nimport \"./WhitelistData.sol\";\n\ncontract Stacks is ERC721, ERC2981, Ownable {\n  bytes4 private constant _INTERFACE_ID_ERC2981 = 0x2a55205a;\n\n  uint public constant PERCENT_DIVIDER = 10000;\n  uint public SALE_FEE = 1000; // 10%\n\n  bool public wlMintOpen;\n\n  mapping(uint => address) public tokenMinter;\n  mapping(uint => TokenMetaData) public tokenMetaDataRecord;\n\n  address public auctionHouse;\n  bool public mintOpen;\n  uint public maxSupply = 5000; // Immutable\n  uint public softCap = 4009; // Available for auction - Immutable\n  uint public teamMinted = 0;\n\n  struct TokenMetaData {\n    bool minted;\n    uint timestamp;\n  }\n\n  constructor() ERC721(\"Stacks Investment Card\", \"STACKS\") {}\n\n  function mint(uint _tokenId) public {\n    require(mintOpen, \"Minting is not open\");\n    require(_tokenId <= maxSupply, \"Token ID is too high\");\n    require(tokenMinter[_tokenId] == msg.sender, \"You are not allowed to mint this token\");\n    require(!tokenMetaDataRecord[_tokenId].minted, \"Token has already been minted\");\n\n    tokenMetaDataRecord[_tokenId] = TokenMetaData(true, block.timestamp);\n    _safeMint(msg.sender, _tokenId);\n  }\n\n  // Set who can mint the token with tokenId\n  function addAvailableForMint(uint _tokenId, address _auctionWinner) internal {\n    tokenMinter[_tokenId] = _auctionWinner;\n  }\n\n  // Admin functions\n  function setAuctionHouse(address _auctionHouse) public onlyOwner {\n    auctionHouse = _auctionHouse;\n  }\n\n  function toggleMint(bool _open) public onlyOwner {\n    mintOpen = _open;\n  }\n\n  function toggleWlMint(bool _open) public onlyOwner {\n    wlMintOpen = _open;\n  }\n\n  function wlMint() public {\n    require(wlMintOpen, \"Minting is not open\");\n    WhitelistData.Account memory wlAccount = new WhitelistData().getWhitelistAccount(msg.sender);\n    require(wlAccount.exists, \"Address not whitelisted\");\n\n    // _tokenId for whitelist is between 0 and 250\n    uint _tokenId = wlAccount.tokenId;\n    require(_tokenId <= maxSupply, \"Token ID is too high\");\n    require(!tokenMetaDataRecord[_tokenId].minted, \"Token has already been minted\");\n\n    tokenMinter[_tokenId] = msg.sender;\n    tokenMetaDataRecord[_tokenId] = TokenMetaData(true, block.timestamp);\n    _safeMint(msg.sender, _tokenId);\n  }\n\n  // Mint token for team members\n  function teamMint(address _teamMember) public onlyOwner {\n    // _tokenId for team is between 4010 and 5000\n    uint _tokenId = softCap + teamMinted + 1;\n    require(_tokenId <= maxSupply, \"Token ID is too high\");\n\n    // make it so team can only mint 300 tokens per year\n    // 2023: 4010 - 4309\n    if(_tokenId >= 4310) {\n      // 2024: 4310 - 4609\n      require(block.timestamp > 1704067199, \"Team can only mint 300 tokens in 2023\"); // 31/12/2023\n    }\n    if(_tokenId >= 4610) {\n      // 2025: 4610 - 4909\n      require(block.timestamp > 1735689599, \"Team can only mint 300 tokens in 2024\"); // 31/12/2024\n    }\n    if(_tokenId >= 4910) {\n      // 2026: 4910 - 5000\n      require(block.timestamp > 1767225599, \"Team can only mint the remaining tokens in 2025\"); // 31/12/2025\n    }\n\n    // set minter\n    addAvailableForMint(_tokenId, _teamMember);\n    // set mint timestamp\n    tokenMetaDataRecord[_tokenId] = TokenMetaData(true, block.timestamp);\n    // mint token\n    _safeMint(msg.sender, _tokenId);\n    teamMinted++;\n  }\n\n  function setRegularFee(uint _SALE_FEE) public onlyOwner {\n    require(_SALE_FEE <= 3300, \"Fee must be less or equal to 33%\");\n    SALE_FEE = _SALE_FEE;\n  }\n\n  function supportsInterface(bytes4 _interfaceId) public view virtual override(ERC721, ERC2981) returns (bool) {\n    if (_interfaceId == _INTERFACE_ID_ERC2981) { return true; }\n    return super.supportsInterface(_interfaceId);\n  }\n\n  function royaltyInfo(uint256, uint256 _salePrice) override view public returns (address receiver, uint256 royaltyAmount){\n    return (owner(), _salePrice * SALE_FEE / PERCENT_DIVIDER);\n  }\n\n  // Overwrite tokenURI\n  // ignore tokenId as all the tokens have the same image\n  function tokenURI(uint256 _tokenId) public view virtual override returns (string memory) {\n    _requireMinted(_tokenId);\n    return string(abi.encodePacked(_baseURI()));\n  }\n\n  // Overwrite _baseURI\n  function _baseURI() override pure internal returns (string memory) {\n    return \"ipfs://QmX7RzdCUHzPng8mssTpXABWTxVFVQwNX124tmpQUQiF9p/stacks\";\n  }\n}\n",
  "sourcePath": "/Users/bruno/dev/crypto/stacks/contracts/Stacks.sol",
  "compiler": {
    "name": "solc",
    "version": "0.8.17+commit.8df45f5f.Emscripten.clang"
  },
  "schemaVersion": "3.4.10",
  "updatedAt": "2023-02-10T10:10:35.793Z",
  "networkType": "ethereum",
  "devdoc": {
    "kind": "dev",
    "methods": {
      "approve(address,uint256)": {
        "details": "See {IERC721-approve}."
      },
      "balanceOf(address)": {
        "details": "See {IERC721-balanceOf}."
      },
      "getApproved(uint256)": {
        "details": "See {IERC721-getApproved}."
      },
      "isApprovedForAll(address,address)": {
        "details": "See {IERC721-isApprovedForAll}."
      },
      "name()": {
        "details": "See {IERC721Metadata-name}."
      },
      "owner()": {
        "details": "Returns the address of the current owner."
      },
      "ownerOf(uint256)": {
        "details": "See {IERC721-ownerOf}."
      },
      "renounceOwnership()": {
        "details": "Leaves the contract without owner. It will not be possible to call `onlyOwner` functions anymore. Can only be called by the current owner. NOTE: Renouncing ownership will leave the contract without an owner, thereby removing any functionality that is only available to the owner."
      },
      "safeTransferFrom(address,address,uint256)": {
        "details": "See {IERC721-safeTransferFrom}."
      },
      "safeTransferFrom(address,address,uint256,bytes)": {
        "details": "See {IERC721-safeTransferFrom}."
      },
      "setApprovalForAll(address,bool)": {
        "details": "See {IERC721-setApprovalForAll}."
      },
      "symbol()": {
        "details": "See {IERC721Metadata-symbol}."
      },
      "transferFrom(address,address,uint256)": {
        "details": "See {IERC721-transferFrom}."
      },
      "transferOwnership(address)": {
        "details": "Transfers ownership of the contract to a new account (`newOwner`). Can only be called by the current owner."
      }
    },
    "version": 1
  },
  "userdoc": {
    "kind": "user",
    "methods": {},
    "version": 1
  }
}