{
  "contractName": "Stacks",
  "abi": [
    {
      "inputs": [],
      "stateMutability": "nonpayable",
      "type": "constructor"
    },
    {
      "anonymous": false,
      "inputs": [
        {
          "indexed": true,
          "internalType": "address",
          "name": "owner",
          "type": "address"
        },
        {
          "indexed": true,
          "internalType": "address",
          "name": "approved",
          "type": "address"
        },
        {
          "indexed": true,
          "internalType": "uint256",
          "name": "tokenId",
          "type": "uint256"
        }
      ],
      "name": "Approval",
      "type": "event"
    },
    {
      "anonymous": false,
      "inputs": [
        {
          "indexed": true,
          "internalType": "address",
          "name": "owner",
          "type": "address"
        },
        {
          "indexed": true,
          "internalType": "address",
          "name": "operator",
          "type": "address"
        },
        {
          "indexed": false,
          "internalType": "bool",
          "name": "approved",
          "type": "bool"
        }
      ],
      "name": "ApprovalForAll",
      "type": "event"
    },
    {
      "anonymous": false,
      "inputs": [
        {
          "indexed": true,
          "internalType": "address",
          "name": "previousOwner",
          "type": "address"
        },
        {
          "indexed": true,
          "internalType": "address",
          "name": "newOwner",
          "type": "address"
        }
      ],
      "name": "OwnershipTransferred",
      "type": "event"
    },
    {
      "anonymous": false,
      "inputs": [
        {
          "indexed": true,
          "internalType": "address",
          "name": "from",
          "type": "address"
        },
        {
          "indexed": true,
          "internalType": "address",
          "name": "to",
          "type": "address"
        },
        {
          "indexed": true,
          "internalType": "uint256",
          "name": "tokenId",
          "type": "uint256"
        }
      ],
      "name": "Transfer",
      "type": "event"
    },
    {
      "inputs": [],
      "name": "PERCENT_DIVIDER",
      "outputs": [
        {
          "internalType": "uint256",
          "name": "",
          "type": "uint256"
        }
      ],
      "stateMutability": "view",
      "type": "function"
    },
    {
      "inputs": [],
      "name": "SALE_FEE",
      "outputs": [
        {
          "internalType": "uint256",
          "name": "",
          "type": "uint256"
        }
      ],
      "stateMutability": "view",
      "type": "function"
    },
    {
      "inputs": [
        {
          "internalType": "address",
          "name": "to",
          "type": "address"
        },
        {
          "internalType": "uint256",
          "name": "tokenId",
          "type": "uint256"
        }
      ],
      "name": "approve",
      "outputs": [],
      "stateMutability": "nonpayable",
      "type": "function"
    },
    {
      "inputs": [],
      "name": "auctionHouse",
      "outputs": [
        {
          "internalType": "address",
          "name": "",
          "type": "address"
        }
      ],
      "stateMutability": "view",
      "type": "function"
    },
    {
      "inputs": [
        {
          "internalType": "address",
          "name": "owner",
          "type": "address"
        }
      ],
      "name": "balanceOf",
      "outputs": [
        {
          "internalType": "uint256",
          "name": "",
          "type": "uint256"
        }
      ],
      "stateMutability": "view",
      "type": "function"
    },
    {
      "inputs": [
        {
          "internalType": "uint256",
          "name": "tokenId",
          "type": "uint256"
        }
      ],
      "name": "getApproved",
      "outputs": [
        {
          "internalType": "address",
          "name": "",
          "type": "address"
        }
      ],
      "stateMutability": "view",
      "type": "function"
    },
    {
      "inputs": [
        {
          "internalType": "address",
          "name": "owner",
          "type": "address"
        },
        {
          "internalType": "address",
          "name": "operator",
          "type": "address"
        }
      ],
      "name": "isApprovedForAll",
      "outputs": [
        {
          "internalType": "bool",
          "name": "",
          "type": "bool"
        }
      ],
      "stateMutability": "view",
      "type": "function"
    },
    {
      "inputs": [],
      "name": "maxSupply",
      "outputs": [
        {
          "internalType": "uint256",
          "name": "",
          "type": "uint256"
        }
      ],
      "stateMutability": "view",
      "type": "function"
    },
    {
      "inputs": [],
      "name": "mintOpen",
      "outputs": [
        {
          "internalType": "bool",
          "name": "",
          "type": "bool"
        }
      ],
      "stateMutability": "view",
      "type": "function"
    },
    {
      "inputs": [],
      "name": "name",
      "outputs": [
        {
          "internalType": "string",
          "name": "",
          "type": "string"
        }
      ],
      "stateMutability": "view",
      "type": "function"
    },
    {
      "inputs": [],
      "name": "owner",
      "outputs": [
        {
          "internalType": "address",
          "name": "",
          "type": "address"
        }
      ],
      "stateMutability": "view",
      "type": "function"
    },
    {
      "inputs": [
        {
          "internalType": "uint256",
          "name": "tokenId",
          "type": "uint256"
        }
      ],
      "name": "ownerOf",
      "outputs": [
        {
          "internalType": "address",
          "name": "",
          "type": "address"
        }
      ],
      "stateMutability": "view",
      "type": "function"
    },
    {
      "inputs": [],
      "name": "renounceOwnership",
      "outputs": [],
      "stateMutability": "nonpayable",
      "type": "function"
    },
    {
      "inputs": [
        {
          "internalType": "address",
          "name": "from",
          "type": "address"
        },
        {
          "internalType": "address",
          "name": "to",
          "type": "address"
        },
        {
          "internalType": "uint256",
          "name": "tokenId",
          "type": "uint256"
        }
      ],
      "name": "safeTransferFrom",
      "outputs": [],
      "stateMutability": "nonpayable",
      "type": "function"
    },
    {
      "inputs": [
        {
          "internalType": "address",
          "name": "from",
          "type": "address"
        },
        {
          "internalType": "address",
          "name": "to",
          "type": "address"
        },
        {
          "internalType": "uint256",
          "name": "tokenId",
          "type": "uint256"
        },
        {
          "internalType": "bytes",
          "name": "data",
          "type": "bytes"
        }
      ],
      "name": "safeTransferFrom",
      "outputs": [],
      "stateMutability": "nonpayable",
      "type": "function"
    },
    {
      "inputs": [
        {
          "internalType": "address",
          "name": "operator",
          "type": "address"
        },
        {
          "internalType": "bool",
          "name": "approved",
          "type": "bool"
        }
      ],
      "name": "setApprovalForAll",
      "outputs": [],
      "stateMutability": "nonpayable",
      "type": "function"
    },
    {
      "inputs": [],
      "name": "softCap",
      "outputs": [
        {
          "internalType": "uint256",
          "name": "",
          "type": "uint256"
        }
      ],
      "stateMutability": "view",
      "type": "function"
    },
    {
      "inputs": [],
      "name": "symbol",
      "outputs": [
        {
          "internalType": "string",
          "name": "",
          "type": "string"
        }
      ],
      "stateMutability": "view",
      "type": "function"
    },
    {
      "inputs": [],
      "name": "teamMinted",
      "outputs": [
        {
          "internalType": "uint256",
          "name": "",
          "type": "uint256"
        }
      ],
      "stateMutability": "view",
      "type": "function"
    },
    {
      "inputs": [
        {
          "internalType": "uint256",
          "name": "",
          "type": "uint256"
        }
      ],
      "name": "tokenMetaDataRecord",
      "outputs": [
        {
          "internalType": "bool",
          "name": "minted",
          "type": "bool"
        },
        {
          "internalType": "uint256",
          "name": "timestamp",
          "type": "uint256"
        }
      ],
      "stateMutability": "view",
      "type": "function"
    },
    {
      "inputs": [
        {
          "internalType": "uint256",
          "name": "",
          "type": "uint256"
        }
      ],
      "name": "tokenMinter",
      "outputs": [
        {
          "internalType": "address",
          "name": "",
          "type": "address"
        }
      ],
      "stateMutability": "view",
      "type": "function"
    },
    {
      "inputs": [
        {
          "internalType": "address",
          "name": "from",
          "type": "address"
        },
        {
          "internalType": "address",
          "name": "to",
          "type": "address"
        },
        {
          "internalType": "uint256",
          "name": "tokenId",
          "type": "uint256"
        }
      ],
      "name": "transferFrom",
      "outputs": [],
      "stateMutability": "nonpayable",
      "type": "function"
    },
    {
      "inputs": [
        {
          "internalType": "address",
          "name": "newOwner",
          "type": "address"
        }
      ],
      "name": "transferOwnership",
      "outputs": [],
      "stateMutability": "nonpayable",
      "type": "function"
    },
    {
      "inputs": [
        {
          "internalType": "uint256",
          "name": "_tokenId",
          "type": "uint256"
        }
      ],
      "name": "mint",
      "outputs": [],
      "stateMutability": "nonpayable",
      "type": "function"
    },
    {
      "inputs": [
        {
          "internalType": "uint256",
          "name": "_tokenId",
          "type": "uint256"
        },
        {
          "internalType": "address",
          "name": "_auctionWinner",
          "type": "address"
        }
      ],
      "name": "addAvailableForMint",
      "outputs": [],
      "stateMutability": "nonpayable",
      "type": "function"
    },
    {
      "inputs": [
        {
          "internalType": "address",
          "name": "_auctionHouse",
          "type": "address"
        }
      ],
      "name": "setAuctionHouse",
      "outputs": [],
      "stateMutability": "nonpayable",
      "type": "function"
    },
    {
      "inputs": [
        {
          "internalType": "bool",
          "name": "_open",
          "type": "bool"
        }
      ],
      "name": "toggleMint",
      "outputs": [],
      "stateMutability": "nonpayable",
      "type": "function"
    },
    {
      "inputs": [
        {
          "internalType": "uint256",
          "name": "_tokenId",
          "type": "uint256"
        },
        {
          "internalType": "address",
          "name": "_teamMember",
          "type": "address"
        }
      ],
      "name": "teamMint",
      "outputs": [],
      "stateMutability": "nonpayable",
      "type": "function"
    },
    {
      "inputs": [
        {
          "internalType": "uint256",
          "name": "_SALE_FEE",
          "type": "uint256"
        }
      ],
      "name": "setRegularFee",
      "outputs": [],
      "stateMutability": "nonpayable",
      "type": "function"
    },
    {
      "inputs": [
        {
          "internalType": "bytes4",
          "name": "_interfaceId",
          "type": "bytes4"
        }
      ],
      "name": "supportsInterface",
      "outputs": [
        {
          "internalType": "bool",
          "name": "",
          "type": "bool"
        }
      ],
      "stateMutability": "view",
      "type": "function"
    },
    {
      "inputs": [
        {
          "internalType": "uint256",
          "name": "",
          "type": "uint256"
        },
        {
          "internalType": "uint256",
          "name": "_salePrice",
          "type": "uint256"
        }
      ],
      "name": "royaltyInfo",
      "outputs": [
        {
          "internalType": "address",
          "name": "receiver",
          "type": "address"
        },
        {
          "internalType": "uint256",
          "name": "royaltyAmount",
          "type": "uint256"
        }
      ],
      "stateMutability": "view",
      "type": "function"
    },
    {
      "inputs": [
        {
          "internalType": "uint256",
          "name": "_tokenId",
          "type": "uint256"
        }
      ],
      "name": "tokenURI",
      "outputs": [
        {
          "internalType": "string",
          "name": "",
          "type": "string"
        }
      ],
      "stateMutability": "view",
      "type": "function"
    }
  ],
  "bytecode": "0x60806040526103e8600955611388600d55610fa9600e556000600f553480156200002857600080fd5b506040518060400160405280600681526020017f537461636b7300000000000000000000000000000000000000000000000000008152506040518060400160405280600681526020017f535441434b5300000000000000000000000000000000000000000000000000008152508160009081620000a6919062000429565b508060019081620000b8919062000429565b505050620000db620000cf620000e160201b60201c565b620000e960201b60201c565b62000510565b600033905090565b6000600860009054906101000a900473ffffffffffffffffffffffffffffffffffffffff16905081600860006101000a81548173ffffffffffffffffffffffffffffffffffffffff021916908373ffffffffffffffffffffffffffffffffffffffff1602179055508173ffffffffffffffffffffffffffffffffffffffff168173ffffffffffffffffffffffffffffffffffffffff167f8be0079c531659141344cd1fd0a4f28419497f9722a3daafe3b4186f6b6457e060405160405180910390a35050565b600081519050919050565b7f4e487b7100000000000000000000000000000000000000000000000000000000600052604160045260246000fd5b7f4e487b7100000000000000000000000000000000000000000000000000000000600052602260045260246000fd5b600060028204905060018216806200023157607f821691505b602082108103620002475762000246620001e9565b5b50919050565b60008190508160005260206000209050919050565b60006020601f8301049050919050565b600082821b905092915050565b600060088302620002b17fffffffffffffffffffffffffffffffffffffffffffffffffffffffffffffffff8262000272565b620002bd868362000272565b95508019841693508086168417925050509392505050565b6000819050919050565b6000819050919050565b60006200030a62000304620002fe84620002d5565b620002df565b620002d5565b9050919050565b6000819050919050565b6200032683620002e9565b6200033e620003358262000311565b8484546200027f565b825550505050565b600090565b6200035562000346565b620003628184846200031b565b505050565b5b818110156200038a576200037e6000826200034b565b60018101905062000368565b5050565b601f821115620003d957620003a3816200024d565b620003ae8462000262565b81016020851015620003be578190505b620003d6620003cd8562000262565b83018262000367565b50505b505050565b600082821c905092915050565b6000620003fe60001984600802620003de565b1980831691505092915050565b6000620004198383620003eb565b9150826002028217905092915050565b6200043482620001af565b67ffffffffffffffff81111562000450576200044f620001ba565b5b6200045c825462000218565b620004698282856200038e565b600060209050601f831160018114620004a157600084156200048c578287015190505b6200049885826200040b565b86555062000508565b601f198416620004b1866200024d565b60005b82811015620004db57848901518255600182019150602085019450602081019050620004b4565b86831015620004fb5784890151620004f7601f891682620003eb565b8355505b6001600288020188555050505b505050505050565b61359880620005206000396000f3fe608060405234801561001057600080fd5b50600436106101f05760003560e01c80638a4dcd851161010f578063bfa457bc116100a2578063e8b5498d11610071578063e8b5498d146105a5578063e985e9c5146105c3578063ed9152c8146105f3578063f2fde38b14610611576101f0565b8063bfa457bc1461051f578063c87b56dd1461053b578063d5abeb011461056b578063e76d895214610589576101f0565b8063a0712d68116100de578063a0712d681461049a578063a22cb465146104b6578063b88d4fde146104d2578063bdce6c44146104ee576101f0565b80638a4dcd85146104245780638da5cb5b14610440578063906a26e01461045e57806395d89b411461047c576101f0565b80632a55205a1161018757806370a082311161015657806370a082311461039c578063715018a6146103cc578063729eaa66146103d65780637c57d947146103f4576101f0565b80632a55205a146103035780632f2716301461033457806342842e0e146103505780636352211e1461036c576101f0565b806323b872dd116101c357806323b872dd1461028f57806324bbd049146102ab57806329c4ba09146102c957806329fc7bd8146102e5576101f0565b806301ffc9a7146101f557806306fdde0314610225578063081812fc14610243578063095ea7b314610273575b600080fd5b61020f600480360381019061020a919061226f565b61062d565b60405161021c91906122b7565b60405180910390f35b61022d610695565b60405161023a9190612362565b60405180910390f35b61025d600480360381019061025891906123ba565b610727565b60405161026a9190612428565b60405180910390f35b61028d6004803603810190610288919061246f565b61076d565b005b6102a960048036038101906102a491906124af565b610884565b005b6102b36108e4565b6040516102c091906122b7565b60405180910390f35b6102e360048036038101906102de91906123ba565b6108f7565b005b6102ed610909565b6040516102fa9190612511565b60405180910390f35b61031d6004803603810190610318919061252c565b61090f565b60405161032b92919061256c565b60405180910390f35b61034e60048036038101906103499190612595565b610940565b005b61036a600480360381019061036591906124af565b610a26565b005b610386600480360381019061038191906123ba565b610a46565b6040516103939190612428565b60405180910390f35b6103b660048036038101906103b191906125d5565b610acc565b6040516103c39190612511565b60405180910390f35b6103d4610b83565b005b6103de610b97565b6040516103eb9190612511565b60405180910390f35b61040e600480360381019061040991906123ba565b610b9d565b60405161041b9190612428565b60405180910390f35b61043e6004803603810190610439919061262e565b610bd0565b005b610448610bf5565b6040516104559190612428565b60405180910390f35b610466610c1f565b6040516104739190612511565b60405180910390f35b610484610c25565b6040516104919190612362565b60405180910390f35b6104b460048036038101906104af91906123ba565b610cb7565b005b6104d060048036038101906104cb919061265b565b610eb5565b005b6104ec60048036038101906104e791906127d0565b610ecb565b005b610508600480360381019061050391906123ba565b610f2d565b604051610516929190612853565b60405180910390f35b61053960048036038101906105349190612595565b610f5e565b005b610555600480360381019061055091906123ba565b6110bf565b6040516105629190612362565b60405180910390f35b6105736110f8565b6040516105809190612511565b60405180910390f35b6105a3600480360381019061059e91906125d5565b6110fe565b005b6105ad61114a565b6040516105ba9190612511565b60405180910390f35b6105dd60048036038101906105d8919061287c565b611150565b6040516105ea91906122b7565b60405180910390f35b6105fb6111e4565b6040516106089190612428565b60405180910390f35b61062b600480360381019061062691906125d5565b61120a565b005b6000632a55205a60e01b7bffffffffffffffffffffffffffffffffffffffffffffffffffffffff1916827bffffffffffffffffffffffffffffffffffffffffffffffffffffffff1916036106845760019050610690565b61068d8261128d565b90505b919050565b6060600080546106a4906128eb565b80601f01602080910402602001604051908101604052809291908181526020018280546106d0906128eb565b801561071d5780601f106106f25761010080835404028352916020019161071d565b820191906000526020600020905b81548152906001019060200180831161070057829003601f168201915b5050505050905090565b600061073282611307565b6004600083815260200190815260200160002060009054906101000a900473ffffffffffffffffffffffffffffffffffffffff169050919050565b600061077882610a46565b90508073ffffffffffffffffffffffffffffffffffffffff168373ffffffffffffffffffffffffffffffffffffffff16036107e8576040517f08c379a00000000000000000000000000000000000000000000000000000000081526004016107df9061298e565b60405180910390fd5b8073ffffffffffffffffffffffffffffffffffffffff16610807611352565b73ffffffffffffffffffffffffffffffffffffffff161480610836575061083581610830611352565b611150565b5b610875576040517f08c379a000000000000000000000000000000000000000000000000000000000815260040161086c90612a20565b60405180910390fd5b61087f838361135a565b505050565b61089561088f611352565b82611413565b6108d4576040517f08c379a00000000000000000000000000000000000000000000000000000000081526004016108cb90612ab2565b60405180910390fd5b6108df8383836114a8565b505050565b600c60149054906101000a900460ff1681565b6108ff6117a1565b8060098190555050565b61271081565b60008061091a610bf5565b6127106009548561092b9190612b01565b6109359190612b72565b915091509250929050565b600c60009054906101000a900473ffffffffffffffffffffffffffffffffffffffff1673ffffffffffffffffffffffffffffffffffffffff163373ffffffffffffffffffffffffffffffffffffffff16146109d0576040517f08c379a00000000000000000000000000000000000000000000000000000000081526004016109c790612bef565b60405180910390fd5b80600a600084815260200190815260200160002060006101000a81548173ffffffffffffffffffffffffffffffffffffffff021916908373ffffffffffffffffffffffffffffffffffffffff1602179055505050565b610a4183838360405180602001604052806000815250610ecb565b505050565b600080610a528361181f565b9050600073ffffffffffffffffffffffffffffffffffffffff168173ffffffffffffffffffffffffffffffffffffffff1603610ac3576040517f08c379a0000000000000000000000000000000000000000000000000000000008152600401610aba90612c5b565b60405180910390fd5b80915050919050565b60008073ffffffffffffffffffffffffffffffffffffffff168273ffffffffffffffffffffffffffffffffffffffff1603610b3c576040517f08c379a0000000000000000000000000000000000000000000000000000000008152600401610b3390612ced565b60405180910390fd5b600360008373ffffffffffffffffffffffffffffffffffffffff1673ffffffffffffffffffffffffffffffffffffffff168152602001908152602001600020549050919050565b610b8b6117a1565b610b95600061185c565b565b60095481565b600a6020528060005260406000206000915054906101000a900473ffffffffffffffffffffffffffffffffffffffff1681565b610bd86117a1565b80600c60146101000a81548160ff02191690831515021790555050565b6000600860009054906101000a900473ffffffffffffffffffffffffffffffffffffffff16905090565b600e5481565b606060018054610c34906128eb565b80601f0160208091040260200160405190810160405280929190818152602001828054610c60906128eb565b8015610cad5780601f10610c8257610100808354040283529160200191610cad565b820191906000526020600020905b815481529060010190602001808311610c9057829003601f168201915b5050505050905090565b600c60149054906101000a900460ff16610d06576040517f08c379a0000000000000000000000000000000000000000000000000000000008152600401610cfd90612d59565b60405180910390fd5b600d54811115610d4b576040517f08c379a0000000000000000000000000000000000000000000000000000000008152600401610d4290612dc5565b60405180910390fd5b3373ffffffffffffffffffffffffffffffffffffffff16600a600083815260200190815260200160002060009054906101000a900473ffffffffffffffffffffffffffffffffffffffff1673ffffffffffffffffffffffffffffffffffffffff1614610dec576040517f08c379a0000000000000000000000000000000000000000000000000000000008152600401610de390612e57565b60405180910390fd5b600b600082815260200190815260200160002060000160009054906101000a900460ff1615610e50576040517f08c379a0000000000000000000000000000000000000000000000000000000008152600401610e4790612ec3565b60405180910390fd5b610e5a3382611922565b604051806040016040528060011515815260200142815250600b600083815260200190815260200160002060008201518160000160006101000a81548160ff0219169083151502179055506020820151816001015590505050565b610ec7610ec0611352565b8383611940565b5050565b610edc610ed6611352565b83611413565b610f1b576040517f08c379a0000000000000000000000000000000000000000000000000000000008152600401610f1290612ab2565b60405180910390fd5b610f2784848484611aac565b50505050565b600b6020528060005260406000206000915090508060000160009054906101000a900460ff16908060010154905082565b610f666117a1565b600e548211610faa576040517f08c379a0000000000000000000000000000000000000000000000000000000008152600401610fa190612f2f565b60405180910390fd5b600d54821115610fef576040517f08c379a0000000000000000000000000000000000000000000000000000000008152600401610fe690612dc5565b60405180910390fd5b80600a600084815260200190815260200160002060006101000a81548173ffffffffffffffffffffffffffffffffffffffff021916908373ffffffffffffffffffffffffffffffffffffffff160217905550604051806040016040528060011515815260200142815250600b600084815260200190815260200160002060008201518160000160006101000a81548160ff021916908315150217905550602082015181600101559050506110a33383611922565b600f60008154809291906110b690612f4f565b91905055505050565b60606110ca82611307565b6110d2611b08565b6040516020016110e29190612fd3565b6040516020818303038152906040529050919050565b600d5481565b6111066117a1565b80600c60006101000a81548173ffffffffffffffffffffffffffffffffffffffff021916908373ffffffffffffffffffffffffffffffffffffffff16021790555050565b600f5481565b6000600560008473ffffffffffffffffffffffffffffffffffffffff1673ffffffffffffffffffffffffffffffffffffffff16815260200190815260200160002060008373ffffffffffffffffffffffffffffffffffffffff1673ffffffffffffffffffffffffffffffffffffffff16815260200190815260200160002060009054906101000a900460ff16905092915050565b600c60009054906101000a900473ffffffffffffffffffffffffffffffffffffffff1681565b6112126117a1565b600073ffffffffffffffffffffffffffffffffffffffff168173ffffffffffffffffffffffffffffffffffffffff1603611281576040517f08c379a00000000000000000000000000000000000000000000000000000000081526004016112789061305c565b60405180910390fd5b61128a8161185c565b50565b60007f2a55205a000000000000000000000000000000000000000000000000000000007bffffffffffffffffffffffffffffffffffffffffffffffffffffffff1916827bffffffffffffffffffffffffffffffffffffffffffffffffffffffff1916148061130057506112ff82611b28565b5b9050919050565b61131081611c0a565b61134f576040517f08c379a000000000000000000000000000000000000000000000000000000000815260040161134690612c5b565b60405180910390fd5b50565b600033905090565b816004600083815260200190815260200160002060006101000a81548173ffffffffffffffffffffffffffffffffffffffff021916908373ffffffffffffffffffffffffffffffffffffffff160217905550808273ffffffffffffffffffffffffffffffffffffffff166113cd83610a46565b73ffffffffffffffffffffffffffffffffffffffff167f8c5be1e5ebec7d5bd14f71427d1e84f3dd0314c0f7b2291e5b200ac8c7c3b92560405160405180910390a45050565b60008061141f83610a46565b90508073ffffffffffffffffffffffffffffffffffffffff168473ffffffffffffffffffffffffffffffffffffffff16148061146157506114608185611150565b5b8061149f57508373ffffffffffffffffffffffffffffffffffffffff1661148784610727565b73ffffffffffffffffffffffffffffffffffffffff16145b91505092915050565b8273ffffffffffffffffffffffffffffffffffffffff166114c882610a46565b73ffffffffffffffffffffffffffffffffffffffff161461151e576040517f08c379a0000000000000000000000000000000000000000000000000000000008152600401611515906130ee565b60405180910390fd5b600073ffffffffffffffffffffffffffffffffffffffff168273ffffffffffffffffffffffffffffffffffffffff160361158d576040517f08c379a000000000000000000000000000000000000000000000000000000000815260040161158490613180565b60405180910390fd5b61159a8383836001611c4b565b8273ffffffffffffffffffffffffffffffffffffffff166115ba82610a46565b73ffffffffffffffffffffffffffffffffffffffff1614611610576040517f08c379a0000000000000000000000000000000000000000000000000000000008152600401611607906130ee565b60405180910390fd5b6004600082815260200190815260200160002060006101000a81549073ffffffffffffffffffffffffffffffffffffffff02191690556001600360008573ffffffffffffffffffffffffffffffffffffffff1673ffffffffffffffffffffffffffffffffffffffff168152602001908152602001600020600082825403925050819055506001600360008473ffffffffffffffffffffffffffffffffffffffff1673ffffffffffffffffffffffffffffffffffffffff16815260200190815260200160002060008282540192505081905550816002600083815260200190815260200160002060006101000a81548173ffffffffffffffffffffffffffffffffffffffff021916908373ffffffffffffffffffffffffffffffffffffffff160217905550808273ffffffffffffffffffffffffffffffffffffffff168473ffffffffffffffffffffffffffffffffffffffff167fddf252ad1be2c89b69c2b068fc378daa952ba7f163c4a11628f55a4df523b3ef60405160405180910390a461179c8383836001611d71565b505050565b6117a9611352565b73ffffffffffffffffffffffffffffffffffffffff166117c7610bf5565b73ffffffffffffffffffffffffffffffffffffffff161461181d576040517f08c379a0000000000000000000000000000000000000000000000000000000008152600401611814906131ec565b60405180910390fd5b565b60006002600083815260200190815260200160002060009054906101000a900473ffffffffffffffffffffffffffffffffffffffff169050919050565b6000600860009054906101000a900473ffffffffffffffffffffffffffffffffffffffff16905081600860006101000a81548173ffffffffffffffffffffffffffffffffffffffff021916908373ffffffffffffffffffffffffffffffffffffffff1602179055508173ffffffffffffffffffffffffffffffffffffffff168173ffffffffffffffffffffffffffffffffffffffff167f8be0079c531659141344cd1fd0a4f28419497f9722a3daafe3b4186f6b6457e060405160405180910390a35050565b61193c828260405180602001604052806000815250611d77565b5050565b8173ffffffffffffffffffffffffffffffffffffffff168373ffffffffffffffffffffffffffffffffffffffff16036119ae576040517f08c379a00000000000000000000000000000000000000000000000000000000081526004016119a590613258565b60405180910390fd5b80600560008573ffffffffffffffffffffffffffffffffffffffff1673ffffffffffffffffffffffffffffffffffffffff16815260200190815260200160002060008473ffffffffffffffffffffffffffffffffffffffff1673ffffffffffffffffffffffffffffffffffffffff16815260200190815260200160002060006101000a81548160ff0219169083151502179055508173ffffffffffffffffffffffffffffffffffffffff168373ffffffffffffffffffffffffffffffffffffffff167f17307eab39ab6107e8899845ad3d59bd9653f200f220920489ca2b5937696c3183604051611a9f91906122b7565b60405180910390a3505050565b611ab78484846114a8565b611ac384848484611dd2565b611b02576040517f08c379a0000000000000000000000000000000000000000000000000000000008152600401611af9906132ea565b60405180910390fd5b50505050565b606060405180606001604052806035815260200161352e60359139905090565b60007f80ac58cd000000000000000000000000000000000000000000000000000000007bffffffffffffffffffffffffffffffffffffffffffffffffffffffff1916827bffffffffffffffffffffffffffffffffffffffffffffffffffffffff19161480611bf357507f5b5e139f000000000000000000000000000000000000000000000000000000007bffffffffffffffffffffffffffffffffffffffffffffffffffffffff1916827bffffffffffffffffffffffffffffffffffffffffffffffffffffffff1916145b80611c035750611c0282611f59565b5b9050919050565b60008073ffffffffffffffffffffffffffffffffffffffff16611c2c8361181f565b73ffffffffffffffffffffffffffffffffffffffff1614159050919050565b6001811115611d6b57600073ffffffffffffffffffffffffffffffffffffffff168473ffffffffffffffffffffffffffffffffffffffff1614611cdf5780600360008673ffffffffffffffffffffffffffffffffffffffff1673ffffffffffffffffffffffffffffffffffffffff1681526020019081526020016000206000828254611cd7919061330a565b925050819055505b600073ffffffffffffffffffffffffffffffffffffffff168373ffffffffffffffffffffffffffffffffffffffff1614611d6a5780600360008573ffffffffffffffffffffffffffffffffffffffff1673ffffffffffffffffffffffffffffffffffffffff1681526020019081526020016000206000828254611d62919061333e565b925050819055505b5b50505050565b50505050565b611d818383611fc3565b611d8e6000848484611dd2565b611dcd576040517f08c379a0000000000000000000000000000000000000000000000000000000008152600401611dc4906132ea565b60405180910390fd5b505050565b6000611df38473ffffffffffffffffffffffffffffffffffffffff166121e0565b15611f4c578373ffffffffffffffffffffffffffffffffffffffff1663150b7a02611e1c611352565b8786866040518563ffffffff1660e01b8152600401611e3e94939291906133c7565b6020604051808303816000875af1925050508015611e7a57506040513d601f19601f82011682018060405250810190611e779190613428565b60015b611efc573d8060008114611eaa576040519150601f19603f3d011682016040523d82523d6000602084013e611eaf565b606091505b506000815103611ef4576040517f08c379a0000000000000000000000000000000000000000000000000000000008152600401611eeb906132ea565b60405180910390fd5b805181602001fd5b63150b7a0260e01b7bffffffffffffffffffffffffffffffffffffffffffffffffffffffff1916817bffffffffffffffffffffffffffffffffffffffffffffffffffffffff191614915050611f51565b600190505b949350505050565b60007f01ffc9a7000000000000000000000000000000000000000000000000000000007bffffffffffffffffffffffffffffffffffffffffffffffffffffffff1916827bffffffffffffffffffffffffffffffffffffffffffffffffffffffff1916149050919050565b600073ffffffffffffffffffffffffffffffffffffffff168273ffffffffffffffffffffffffffffffffffffffff1603612032576040517f08c379a0000000000000000000000000000000000000000000000000000000008152600401612029906134a1565b60405180910390fd5b61203b81611c0a565b1561207b576040517f08c379a00000000000000000000000000000000000000000000000000000000081526004016120729061350d565b60405180910390fd5b612089600083836001611c4b565b61209281611c0a565b156120d2576040517f08c379a00000000000000000000000000000000000000000000000000000000081526004016120c99061350d565b60405180910390fd5b6001600360008473ffffffffffffffffffffffffffffffffffffffff1673ffffffffffffffffffffffffffffffffffffffff16815260200190815260200160002060008282540192505081905550816002600083815260200190815260200160002060006101000a81548173ffffffffffffffffffffffffffffffffffffffff021916908373ffffffffffffffffffffffffffffffffffffffff160217905550808273ffffffffffffffffffffffffffffffffffffffff16600073ffffffffffffffffffffffffffffffffffffffff167fddf252ad1be2c89b69c2b068fc378daa952ba7f163c4a11628f55a4df523b3ef60405160405180910390a46121dc600083836001611d71565b5050565b6000808273ffffffffffffffffffffffffffffffffffffffff163b119050919050565b6000604051905090565b600080fd5b600080fd5b60007fffffffff0000000000000000000000000000000000000000000000000000000082169050919050565b61224c81612217565b811461225757600080fd5b50565b60008135905061226981612243565b92915050565b6000602082840312156122855761228461220d565b5b60006122938482850161225a565b91505092915050565b60008115159050919050565b6122b18161229c565b82525050565b60006020820190506122cc60008301846122a8565b92915050565b600081519050919050565b600082825260208201905092915050565b60005b8381101561230c5780820151818401526020810190506122f1565b60008484015250505050565b6000601f19601f8301169050919050565b6000612334826122d2565b61233e81856122dd565b935061234e8185602086016122ee565b61235781612318565b840191505092915050565b6000602082019050818103600083015261237c8184612329565b905092915050565b6000819050919050565b61239781612384565b81146123a257600080fd5b50565b6000813590506123b48161238e565b92915050565b6000602082840312156123d0576123cf61220d565b5b60006123de848285016123a5565b91505092915050565b600073ffffffffffffffffffffffffffffffffffffffff82169050919050565b6000612412826123e7565b9050919050565b61242281612407565b82525050565b600060208201905061243d6000830184612419565b92915050565b61244c81612407565b811461245757600080fd5b50565b60008135905061246981612443565b92915050565b600080604083850312156124865761248561220d565b5b60006124948582860161245a565b92505060206124a5858286016123a5565b9150509250929050565b6000806000606084860312156124c8576124c761220d565b5b60006124d68682870161245a565b93505060206124e78682870161245a565b92505060406124f8868287016123a5565b9150509250925092565b61250b81612384565b82525050565b60006020820190506125266000830184612502565b92915050565b600080604083850312156125435761254261220d565b5b6000612551858286016123a5565b9250506020612562858286016123a5565b9150509250929050565b60006040820190506125816000830185612419565b61258e6020830184612502565b9392505050565b600080604083850312156125ac576125ab61220d565b5b60006125ba858286016123a5565b92505060206125cb8582860161245a565b9150509250929050565b6000602082840312156125eb576125ea61220d565b5b60006125f98482850161245a565b91505092915050565b61260b8161229c565b811461261657600080fd5b50565b60008135905061262881612602565b92915050565b6000602082840312156126445761264361220d565b5b600061265284828501612619565b91505092915050565b600080604083850312156126725761267161220d565b5b60006126808582860161245a565b925050602061269185828601612619565b9150509250929050565b600080fd5b600080fd5b7f4e487b7100000000000000000000000000000000000000000000000000000000600052604160045260246000fd5b6126dd82612318565b810181811067ffffffffffffffff821117156126fc576126fb6126a5565b5b80604052505050565b600061270f612203565b905061271b82826126d4565b919050565b600067ffffffffffffffff82111561273b5761273a6126a5565b5b61274482612318565b9050602081019050919050565b82818337600083830152505050565b600061277361276e84612720565b612705565b90508281526020810184848401111561278f5761278e6126a0565b5b61279a848285612751565b509392505050565b600082601f8301126127b7576127b661269b565b5b81356127c7848260208601612760565b91505092915050565b600080600080608085870312156127ea576127e961220d565b5b60006127f88782880161245a565b94505060206128098782880161245a565b935050604061281a878288016123a5565b925050606085013567ffffffffffffffff81111561283b5761283a612212565b5b612847878288016127a2565b91505092959194509250565b600060408201905061286860008301856122a8565b6128756020830184612502565b9392505050565b600080604083850312156128935761289261220d565b5b60006128a18582860161245a565b92505060206128b28582860161245a565b9150509250929050565b7f4e487b7100000000000000000000000000000000000000000000000000000000600052602260045260246000fd5b6000600282049050600182168061290357607f821691505b602082108103612916576129156128bc565b5b50919050565b7f4552433732313a20617070726f76616c20746f2063757272656e74206f776e6560008201527f7200000000000000000000000000000000000000000000000000000000000000602082015250565b60006129786021836122dd565b91506129838261291c565b604082019050919050565b600060208201905081810360008301526129a78161296b565b9050919050565b7f4552433732313a20617070726f76652063616c6c6572206973206e6f7420746f60008201527f6b656e206f776e6572206f7220617070726f76656420666f7220616c6c000000602082015250565b6000612a0a603d836122dd565b9150612a15826129ae565b604082019050919050565b60006020820190508181036000830152612a39816129fd565b9050919050565b7f4552433732313a2063616c6c6572206973206e6f7420746f6b656e206f776e6560008201527f72206f7220617070726f76656400000000000000000000000000000000000000602082015250565b6000612a9c602d836122dd565b9150612aa782612a40565b604082019050919050565b60006020820190508181036000830152612acb81612a8f565b9050919050565b7f4e487b7100000000000000000000000000000000000000000000000000000000600052601160045260246000fd5b6000612b0c82612384565b9150612b1783612384565b9250828202612b2581612384565b91508282048414831517612b3c57612b3b612ad2565b5b5092915050565b7f4e487b7100000000000000000000000000000000000000000000000000000000600052601260045260246000fd5b6000612b7d82612384565b9150612b8883612384565b925082612b9857612b97612b43565b5b828204905092915050565b7f596f7520617265206e6f74207468652061756374696f6e20686f757365000000600082015250565b6000612bd9601d836122dd565b9150612be482612ba3565b602082019050919050565b60006020820190508181036000830152612c0881612bcc565b9050919050565b7f4552433732313a20696e76616c696420746f6b656e2049440000000000000000600082015250565b6000612c456018836122dd565b9150612c5082612c0f565b602082019050919050565b60006020820190508181036000830152612c7481612c38565b9050919050565b7f4552433732313a2061646472657373207a65726f206973206e6f74206120766160008201527f6c6964206f776e65720000000000000000000000000000000000000000000000602082015250565b6000612cd76029836122dd565b9150612ce282612c7b565b604082019050919050565b60006020820190508181036000830152612d0681612cca565b9050919050565b7f4d696e74696e67206973206e6f74206f70656e00000000000000000000000000600082015250565b6000612d436013836122dd565b9150612d4e82612d0d565b602082019050919050565b60006020820190508181036000830152612d7281612d36565b9050919050565b7f546f6b656e20494420697320746f6f2068696768000000000000000000000000600082015250565b6000612daf6014836122dd565b9150612dba82612d79565b602082019050919050565b60006020820190508181036000830152612dde81612da2565b9050919050565b7f596f7520617265206e6f7420616c6c6f77656420746f206d696e74207468697360008201527f20746f6b656e0000000000000000000000000000000000000000000000000000602082015250565b6000612e416026836122dd565b9150612e4c82612de5565b604082019050919050565b60006020820190508181036000830152612e7081612e34565b9050919050565b7f546f6b656e2068617320616c7265616479206265656e206d696e746564000000600082015250565b6000612ead601d836122dd565b9150612eb882612e77565b602082019050919050565b60006020820190508181036000830152612edc81612ea0565b9050919050565b7f546f6b656e20494420746f6f206c6f7700000000000000000000000000000000600082015250565b6000612f196010836122dd565b9150612f2482612ee3565b602082019050919050565b60006020820190508181036000830152612f4881612f0c565b9050919050565b6000612f5a82612384565b91507fffffffffffffffffffffffffffffffffffffffffffffffffffffffffffffffff8203612f8c57612f8b612ad2565b5b600182019050919050565b600081905092915050565b6000612fad826122d2565b612fb78185612f97565b9350612fc78185602086016122ee565b80840191505092915050565b6000612fdf8284612fa2565b915081905092915050565b7f4f776e61626c653a206e6577206f776e657220697320746865207a65726f206160008201527f6464726573730000000000000000000000000000000000000000000000000000602082015250565b60006130466026836122dd565b915061305182612fea565b604082019050919050565b6000602082019050818103600083015261307581613039565b9050919050565b7f4552433732313a207472616e736665722066726f6d20696e636f72726563742060008201527f6f776e6572000000000000000000000000000000000000000000000000000000602082015250565b60006130d86025836122dd565b91506130e38261307c565b604082019050919050565b60006020820190508181036000830152613107816130cb565b9050919050565b7f4552433732313a207472616e7366657220746f20746865207a65726f2061646460008201527f7265737300000000000000000000000000000000000000000000000000000000602082015250565b600061316a6024836122dd565b91506131758261310e565b604082019050919050565b600060208201905081810360008301526131998161315d565b9050919050565b7f4f776e61626c653a2063616c6c6572206973206e6f7420746865206f776e6572600082015250565b60006131d66020836122dd565b91506131e1826131a0565b602082019050919050565b60006020820190508181036000830152613205816131c9565b9050919050565b7f4552433732313a20617070726f766520746f2063616c6c657200000000000000600082015250565b60006132426019836122dd565b915061324d8261320c565b602082019050919050565b6000602082019050818103600083015261327181613235565b9050919050565b7f4552433732313a207472616e7366657220746f206e6f6e20455243373231526560008201527f63656976657220696d706c656d656e7465720000000000000000000000000000602082015250565b60006132d46032836122dd565b91506132df82613278565b604082019050919050565b60006020820190508181036000830152613303816132c7565b9050919050565b600061331582612384565b915061332083612384565b925082820390508181111561333857613337612ad2565b5b92915050565b600061334982612384565b915061335483612384565b925082820190508082111561336c5761336b612ad2565b5b92915050565b600081519050919050565b600082825260208201905092915050565b600061339982613372565b6133a3818561337d565b93506133b38185602086016122ee565b6133bc81612318565b840191505092915050565b60006080820190506133dc6000830187612419565b6133e96020830186612419565b6133f66040830185612502565b8181036060830152613408818461338e565b905095945050505050565b60008151905061342281612243565b92915050565b60006020828403121561343e5761343d61220d565b5b600061344c84828501613413565b91505092915050565b7f4552433732313a206d696e7420746f20746865207a65726f2061646472657373600082015250565b600061348b6020836122dd565b915061349682613455565b602082019050919050565b600060208201905081810360008301526134ba8161347e565b9050919050565b7f4552433732313a20746f6b656e20616c7265616479206d696e74656400000000600082015250565b60006134f7601c836122dd565b9150613502826134c1565b602082019050919050565b60006020820190508181036000830152613526816134ea565b905091905056fe697066733a2f2f516d59326150435a514e76735a55517655533267366343536d644c58756872486e525545636f4c66777939485734a26469706673582212208e3a1825460deac2c1b86e629e3b534d17c3014a827c6cf8db657a2ec4b333d764736f6c63430008110033",
  "immutableReferences": {},
  "source": "// SPDX-License-Identifier: MIT\npragma solidity >=0.4.22 <0.9.0;\n\nimport \"@openzeppelin/contracts/access/Ownable.sol\";\nimport \"@openzeppelin/contracts/token/ERC721/ERC721.sol\";\nimport \"@openzeppelin/contracts/token/common/ERC2981.sol\";\n\ncontract Stacks is ERC721, ERC2981, Ownable {\n  bytes4 private constant _INTERFACE_ID_ERC2981 = 0x2a55205a;\n\n  uint public constant PERCENT_DIVIDER = 10000;\n  uint public SALE_FEE = 1000;\n\n  mapping(uint => address) public tokenMinter;\n  mapping(uint => TokenMetaData) public tokenMetaDataRecord;\n\n  address public auctionHouse;\n  bool public mintOpen;\n  uint public maxSupply = 5000; // Immutable\n  uint public softCap = 4009;\n  uint public teamMinted = 0;\n\n  struct TokenMetaData {\n    bool minted;\n    uint timestamp;\n  }\n\n  constructor() ERC721(\"Stacks\", \"STACKS\") {}\n\n  function mint(uint _tokenId) public {\n    require(mintOpen, \"Minting is not open\");\n    require(_tokenId <= maxSupply, \"Token ID is too high\");\n    require(tokenMinter[_tokenId] == msg.sender, \"You are not allowed to mint this token\");\n    require(!tokenMetaDataRecord[_tokenId].minted, \"Token has already been minted\");\n\n    _safeMint(msg.sender, _tokenId);\n    // tokenMetaDataRecord[_tokenId].minted = true;\n    tokenMetaDataRecord[_tokenId] = TokenMetaData(true, block.timestamp);\n  }\n\n  // Set who can mint the token with tokenId\n  function addAvailableForMint(uint _tokenId, address _auctionWinner) public {\n    require(msg.sender == auctionHouse, \"You are not the auction house\");\n    tokenMinter[_tokenId] = _auctionWinner;\n  }\n\n  // Runs before the auction so the auction house can set the metadata\n  // function prepTokenMetadata(uint tokenId) public {\n  //   require(msg.sender == auctionHouse, \"You are not the auction house\");\n  //   tokenMetaDataRecord[tokenId] = TokenMetaData(false, block.timestamp);\n  // }\n\n  // Admin functions\n  function setAuctionHouse(address _auctionHouse) public onlyOwner {\n    auctionHouse = _auctionHouse;\n  }\n\n  function toggleMint(bool _open) public onlyOwner {\n    mintOpen = _open;\n  }\n\n  // Mint token to offer new team members\n  function teamMint(uint _tokenId, address _teamMember) public onlyOwner {\n    // _tokenId for team must be between 4010 and 5000\n    require(_tokenId > softCap, \"Token ID too low\");\n    require(_tokenId <= maxSupply, \"Token ID is too high\");\n    // addAvailableForMint\n    tokenMinter[_tokenId] = _teamMember;\n    // prepTokenMetadata\n    tokenMetaDataRecord[_tokenId] = TokenMetaData(true, block.timestamp);\n    // mint\n    _safeMint(msg.sender, _tokenId);\n    teamMinted++;\n  }\n\n  function setRegularFee(uint _SALE_FEE) public onlyOwner {\n    SALE_FEE = _SALE_FEE;\n  }\n\n  function supportsInterface(bytes4 _interfaceId) public view virtual override(ERC721, ERC2981) returns (bool) {\n    if (_interfaceId == _INTERFACE_ID_ERC2981) { return true; }\n    return super.supportsInterface(_interfaceId);\n  }\n\n  function royaltyInfo(uint256, uint256 _salePrice) override view public returns (address receiver, uint256 royaltyAmount){\n    return (owner(), _salePrice * SALE_FEE / PERCENT_DIVIDER);\n  }\n\n  // Overwrite tokenURI\n  // ignore tokenId as all the tokens have the same image\n  function tokenURI(uint256 _tokenId) public view virtual override returns (string memory) {\n    _requireMinted(_tokenId);\n    return string(abi.encodePacked(_baseURI()));\n  }\n\n  // Overwrite _baseURI\n  function _baseURI() override pure internal returns (string memory) {\n    return \"ipfs://QmY2aPCZQNvsZUQvUS2g6cCSmdLXuhrHnRUEcoLfwy9HW4\";\n  }\n}\n",
  "sourcePath": "/Users/bruno/dev/crypto/stacks/contracts/Stacks.sol",
  "compiler": {
    "name": "solc",
    "version": "0.8.17+commit.8df45f5f.Emscripten.clang"
  },
  "schemaVersion": "3.4.10",
  "updatedAt": "2023-01-22T21:06:12.891Z",
  "devdoc": {
    "kind": "dev",
    "methods": {
      "approve(address,uint256)": {
        "details": "See {IERC721-approve}."
      },
      "balanceOf(address)": {
        "details": "See {IERC721-balanceOf}."
      },
      "getApproved(uint256)": {
        "details": "See {IERC721-getApproved}."
      },
      "isApprovedForAll(address,address)": {
        "details": "See {IERC721-isApprovedForAll}."
      },
      "name()": {
        "details": "See {IERC721Metadata-name}."
      },
      "owner()": {
        "details": "Returns the address of the current owner."
      },
      "ownerOf(uint256)": {
        "details": "See {IERC721-ownerOf}."
      },
      "renounceOwnership()": {
        "details": "Leaves the contract without owner. It will not be possible to call `onlyOwner` functions anymore. Can only be called by the current owner. NOTE: Renouncing ownership will leave the contract without an owner, thereby removing any functionality that is only available to the owner."
      },
      "safeTransferFrom(address,address,uint256)": {
        "details": "See {IERC721-safeTransferFrom}."
      },
      "safeTransferFrom(address,address,uint256,bytes)": {
        "details": "See {IERC721-safeTransferFrom}."
      },
      "setApprovalForAll(address,bool)": {
        "details": "See {IERC721-setApprovalForAll}."
      },
      "symbol()": {
        "details": "See {IERC721Metadata-symbol}."
      },
      "transferFrom(address,address,uint256)": {
        "details": "See {IERC721-transferFrom}."
      },
      "transferOwnership(address)": {
        "details": "Transfers ownership of the contract to a new account (`newOwner`). Can only be called by the current owner."
      }
    },
    "version": 1
  },
  "userdoc": {
    "kind": "user",
    "methods": {},
    "version": 1
  }
}