{
  "contractName": "Stacks",
  "abi": [
    {
      "inputs": [],
      "stateMutability": "nonpayable",
      "type": "constructor"
    },
    {
      "anonymous": false,
      "inputs": [
        {
          "indexed": true,
          "internalType": "address",
          "name": "owner",
          "type": "address"
        },
        {
          "indexed": true,
          "internalType": "address",
          "name": "approved",
          "type": "address"
        },
        {
          "indexed": true,
          "internalType": "uint256",
          "name": "tokenId",
          "type": "uint256"
        }
      ],
      "name": "Approval",
      "type": "event"
    },
    {
      "anonymous": false,
      "inputs": [
        {
          "indexed": true,
          "internalType": "address",
          "name": "owner",
          "type": "address"
        },
        {
          "indexed": true,
          "internalType": "address",
          "name": "operator",
          "type": "address"
        },
        {
          "indexed": false,
          "internalType": "bool",
          "name": "approved",
          "type": "bool"
        }
      ],
      "name": "ApprovalForAll",
      "type": "event"
    },
    {
      "anonymous": false,
      "inputs": [
        {
          "indexed": true,
          "internalType": "address",
          "name": "previousOwner",
          "type": "address"
        },
        {
          "indexed": true,
          "internalType": "address",
          "name": "newOwner",
          "type": "address"
        }
      ],
      "name": "OwnershipTransferred",
      "type": "event"
    },
    {
      "anonymous": false,
      "inputs": [
        {
          "indexed": true,
          "internalType": "address",
          "name": "from",
          "type": "address"
        },
        {
          "indexed": true,
          "internalType": "address",
          "name": "to",
          "type": "address"
        },
        {
          "indexed": true,
          "internalType": "uint256",
          "name": "tokenId",
          "type": "uint256"
        }
      ],
      "name": "Transfer",
      "type": "event"
    },
    {
      "inputs": [
        {
          "internalType": "address",
          "name": "to",
          "type": "address"
        },
        {
          "internalType": "uint256",
          "name": "tokenId",
          "type": "uint256"
        }
      ],
      "name": "approve",
      "outputs": [],
      "stateMutability": "nonpayable",
      "type": "function"
    },
    {
      "inputs": [],
      "name": "auctionHouse",
      "outputs": [
        {
          "internalType": "address",
          "name": "",
          "type": "address"
        }
      ],
      "stateMutability": "view",
      "type": "function"
    },
    {
      "inputs": [
        {
          "internalType": "address",
          "name": "owner",
          "type": "address"
        }
      ],
      "name": "balanceOf",
      "outputs": [
        {
          "internalType": "uint256",
          "name": "",
          "type": "uint256"
        }
      ],
      "stateMutability": "view",
      "type": "function"
    },
    {
      "inputs": [
        {
          "internalType": "uint256",
          "name": "tokenId",
          "type": "uint256"
        }
      ],
      "name": "getApproved",
      "outputs": [
        {
          "internalType": "address",
          "name": "",
          "type": "address"
        }
      ],
      "stateMutability": "view",
      "type": "function"
    },
    {
      "inputs": [
        {
          "internalType": "address",
          "name": "owner",
          "type": "address"
        },
        {
          "internalType": "address",
          "name": "operator",
          "type": "address"
        }
      ],
      "name": "isApprovedForAll",
      "outputs": [
        {
          "internalType": "bool",
          "name": "",
          "type": "bool"
        }
      ],
      "stateMutability": "view",
      "type": "function"
    },
    {
      "inputs": [],
      "name": "name",
      "outputs": [
        {
          "internalType": "string",
          "name": "",
          "type": "string"
        }
      ],
      "stateMutability": "view",
      "type": "function"
    },
    {
      "inputs": [],
      "name": "owner",
      "outputs": [
        {
          "internalType": "address",
          "name": "",
          "type": "address"
        }
      ],
      "stateMutability": "view",
      "type": "function"
    },
    {
      "inputs": [
        {
          "internalType": "uint256",
          "name": "tokenId",
          "type": "uint256"
        }
      ],
      "name": "ownerOf",
      "outputs": [
        {
          "internalType": "address",
          "name": "",
          "type": "address"
        }
      ],
      "stateMutability": "view",
      "type": "function"
    },
    {
      "inputs": [],
      "name": "renounceOwnership",
      "outputs": [],
      "stateMutability": "nonpayable",
      "type": "function"
    },
    {
      "inputs": [
        {
          "internalType": "address",
          "name": "from",
          "type": "address"
        },
        {
          "internalType": "address",
          "name": "to",
          "type": "address"
        },
        {
          "internalType": "uint256",
          "name": "tokenId",
          "type": "uint256"
        }
      ],
      "name": "safeTransferFrom",
      "outputs": [],
      "stateMutability": "nonpayable",
      "type": "function"
    },
    {
      "inputs": [
        {
          "internalType": "address",
          "name": "from",
          "type": "address"
        },
        {
          "internalType": "address",
          "name": "to",
          "type": "address"
        },
        {
          "internalType": "uint256",
          "name": "tokenId",
          "type": "uint256"
        },
        {
          "internalType": "bytes",
          "name": "data",
          "type": "bytes"
        }
      ],
      "name": "safeTransferFrom",
      "outputs": [],
      "stateMutability": "nonpayable",
      "type": "function"
    },
    {
      "inputs": [
        {
          "internalType": "address",
          "name": "operator",
          "type": "address"
        },
        {
          "internalType": "bool",
          "name": "approved",
          "type": "bool"
        }
      ],
      "name": "setApprovalForAll",
      "outputs": [],
      "stateMutability": "nonpayable",
      "type": "function"
    },
    {
      "inputs": [
        {
          "internalType": "bytes4",
          "name": "interfaceId",
          "type": "bytes4"
        }
      ],
      "name": "supportsInterface",
      "outputs": [
        {
          "internalType": "bool",
          "name": "",
          "type": "bool"
        }
      ],
      "stateMutability": "view",
      "type": "function"
    },
    {
      "inputs": [],
      "name": "symbol",
      "outputs": [
        {
          "internalType": "string",
          "name": "",
          "type": "string"
        }
      ],
      "stateMutability": "view",
      "type": "function"
    },
    {
      "inputs": [
        {
          "internalType": "uint256",
          "name": "",
          "type": "uint256"
        }
      ],
      "name": "tokenMetaDataRecord",
      "outputs": [
        {
          "internalType": "bool",
          "name": "minted",
          "type": "bool"
        },
        {
          "internalType": "uint256",
          "name": "tokenId",
          "type": "uint256"
        },
        {
          "internalType": "uint256",
          "name": "timestamp",
          "type": "uint256"
        },
        {
          "internalType": "string",
          "name": "metadataURI",
          "type": "string"
        }
      ],
      "stateMutability": "view",
      "type": "function"
    },
    {
      "inputs": [
        {
          "internalType": "uint256",
          "name": "",
          "type": "uint256"
        }
      ],
      "name": "tokenOwnershipRecord",
      "outputs": [
        {
          "internalType": "address",
          "name": "",
          "type": "address"
        }
      ],
      "stateMutability": "view",
      "type": "function"
    },
    {
      "inputs": [
        {
          "internalType": "uint256",
          "name": "tokenId",
          "type": "uint256"
        }
      ],
      "name": "tokenURI",
      "outputs": [
        {
          "internalType": "string",
          "name": "",
          "type": "string"
        }
      ],
      "stateMutability": "view",
      "type": "function"
    },
    {
      "inputs": [
        {
          "internalType": "address",
          "name": "from",
          "type": "address"
        },
        {
          "internalType": "address",
          "name": "to",
          "type": "address"
        },
        {
          "internalType": "uint256",
          "name": "tokenId",
          "type": "uint256"
        }
      ],
      "name": "transferFrom",
      "outputs": [],
      "stateMutability": "nonpayable",
      "type": "function"
    },
    {
      "inputs": [
        {
          "internalType": "address",
          "name": "newOwner",
          "type": "address"
        }
      ],
      "name": "transferOwnership",
      "outputs": [],
      "stateMutability": "nonpayable",
      "type": "function"
    },
    {
      "inputs": [
        {
          "internalType": "uint256",
          "name": "tokenId",
          "type": "uint256"
        }
      ],
      "name": "mint",
      "outputs": [],
      "stateMutability": "nonpayable",
      "type": "function"
    },
    {
      "inputs": [
        {
          "internalType": "uint256",
          "name": "tokenId",
          "type": "uint256"
        },
        {
          "internalType": "address",
          "name": "auctionWinner",
          "type": "address"
        }
      ],
      "name": "addAvailableForMint",
      "outputs": [],
      "stateMutability": "nonpayable",
      "type": "function"
    },
    {
      "inputs": [
        {
          "internalType": "uint256",
          "name": "tokenId",
          "type": "uint256"
        },
        {
          "internalType": "string",
          "name": "metadataURI",
          "type": "string"
        }
      ],
      "name": "prepTokenMetadata",
      "outputs": [],
      "stateMutability": "nonpayable",
      "type": "function"
    },
    {
      "inputs": [
        {
          "internalType": "address",
          "name": "_auctionHouse",
          "type": "address"
        }
      ],
      "name": "setAuctionHouse",
      "outputs": [],
      "stateMutability": "nonpayable",
      "type": "function"
    }
  ],
  "bytecode": "0x60806040523480156200001157600080fd5b506040518060400160405280600681526020017f537461636b7300000000000000000000000000000000000000000000000000008152506040518060400160405280600681526020017f535441434b53000000000000000000000000000000000000000000000000000081525081600090816200008f919062000412565b508060019081620000a1919062000412565b505050620000c4620000b8620000ca60201b60201c565b620000d260201b60201c565b620004f9565b600033905090565b6000600660009054906101000a900473ffffffffffffffffffffffffffffffffffffffff16905081600660006101000a81548173ffffffffffffffffffffffffffffffffffffffff021916908373ffffffffffffffffffffffffffffffffffffffff1602179055508173ffffffffffffffffffffffffffffffffffffffff168173ffffffffffffffffffffffffffffffffffffffff167f8be0079c531659141344cd1fd0a4f28419497f9722a3daafe3b4186f6b6457e060405160405180910390a35050565b600081519050919050565b7f4e487b7100000000000000000000000000000000000000000000000000000000600052604160045260246000fd5b7f4e487b7100000000000000000000000000000000000000000000000000000000600052602260045260246000fd5b600060028204905060018216806200021a57607f821691505b60208210810362000230576200022f620001d2565b5b50919050565b60008190508160005260206000209050919050565b60006020601f8301049050919050565b600082821b905092915050565b6000600883026200029a7fffffffffffffffffffffffffffffffffffffffffffffffffffffffffffffffff826200025b565b620002a686836200025b565b95508019841693508086168417925050509392505050565b6000819050919050565b6000819050919050565b6000620002f3620002ed620002e784620002be565b620002c8565b620002be565b9050919050565b6000819050919050565b6200030f83620002d2565b620003276200031e82620002fa565b84845462000268565b825550505050565b600090565b6200033e6200032f565b6200034b81848462000304565b505050565b5b8181101562000373576200036760008262000334565b60018101905062000351565b5050565b601f821115620003c2576200038c8162000236565b62000397846200024b565b81016020851015620003a7578190505b620003bf620003b6856200024b565b83018262000350565b50505b505050565b600082821c905092915050565b6000620003e760001984600802620003c7565b1980831691505092915050565b6000620004028383620003d4565b9150826002028217905092915050565b6200041d8262000198565b67ffffffffffffffff811115620004395762000438620001a3565b5b62000445825462000201565b6200045282828562000377565b600060209050601f8311600181146200048a576000841562000475578287015190505b620004818582620003f4565b865550620004f1565b601f1984166200049a8662000236565b60005b82811015620004c4578489015182556001820191506020850194506020810190506200049d565b86831015620004e45784890151620004e0601f891682620003d4565b8355505b6001600288020188555050505b505050505050565b61351580620005096000396000f3fe608060405234801561001057600080fd5b506004361061014d5760003560e01c80638da5cb5b116100c3578063bdce6c441161007c578063bdce6c4414610386578063c87b56dd146103b9578063e76d8952146103e9578063e985e9c514610405578063ed9152c814610435578063f2fde38b146104535761014d565b80638da5cb5b146102da57806395d89b41146102f8578063a0712d6814610316578063a22cb46514610332578063b3d79f131461034e578063b88d4fde1461036a5761014d565b80632f271630116101155780632f271630146102085780632f9b80c21461022457806342842e0e146102545780636352211e1461027057806370a08231146102a0578063715018a6146102d05761014d565b806301ffc9a71461015257806306fdde0314610182578063081812fc146101a0578063095ea7b3146101d057806323b872dd146101ec575b600080fd5b61016c6004803603810190610167919061210b565b61046f565b6040516101799190612153565b60405180910390f35b61018a610551565b60405161019791906121fe565b60405180910390f35b6101ba60048036038101906101b59190612256565b6105e3565b6040516101c791906122c4565b60405180910390f35b6101ea60048036038101906101e5919061230b565b610629565b005b6102066004803603810190610201919061234b565b610740565b005b610222600480360381019061021d919061239e565b6107a0565b005b61023e60048036038101906102399190612256565b610886565b60405161024b91906122c4565b60405180910390f35b61026e6004803603810190610269919061234b565b6108b9565b005b61028a60048036038101906102859190612256565b6108d9565b60405161029791906122c4565b60405180910390f35b6102ba60048036038101906102b591906123de565b61095f565b6040516102c7919061241a565b60405180910390f35b6102d8610a16565b005b6102e2610a2a565b6040516102ef91906122c4565b60405180910390f35b610300610a54565b60405161030d91906121fe565b60405180910390f35b610330600480360381019061032b9190612256565b610ae6565b005b61034c60048036038101906103479190612461565b610c27565b005b610368600480360381019061036391906125d6565b610c3d565b005b610384600480360381019061037f91906126d3565b610d55565b005b6103a0600480360381019061039b9190612256565b610db7565b6040516103b09493929190612756565b60405180910390f35b6103d360048036038101906103ce9190612256565b610e7c565b6040516103e091906121fe565b60405180910390f35b61040360048036038101906103fe91906123de565b610ee4565b005b61041f600480360381019061041a91906127a2565b610f30565b60405161042c9190612153565b60405180910390f35b61043d610fc4565b60405161044a91906122c4565b60405180910390f35b61046d600480360381019061046891906123de565b610fea565b005b60007f80ac58cd000000000000000000000000000000000000000000000000000000007bffffffffffffffffffffffffffffffffffffffffffffffffffffffff1916827bffffffffffffffffffffffffffffffffffffffffffffffffffffffff1916148061053a57507f5b5e139f000000000000000000000000000000000000000000000000000000007bffffffffffffffffffffffffffffffffffffffffffffffffffffffff1916827bffffffffffffffffffffffffffffffffffffffffffffffffffffffff1916145b8061054a57506105498261106d565b5b9050919050565b60606000805461056090612811565b80601f016020809104026020016040519081016040528092919081815260200182805461058c90612811565b80156105d95780601f106105ae576101008083540402835291602001916105d9565b820191906000526020600020905b8154815290600101906020018083116105bc57829003601f168201915b5050505050905090565b60006105ee826110d7565b6004600083815260200190815260200160002060009054906101000a900473ffffffffffffffffffffffffffffffffffffffff169050919050565b6000610634826108d9565b90508073ffffffffffffffffffffffffffffffffffffffff168373ffffffffffffffffffffffffffffffffffffffff16036106a4576040517f08c379a000000000000000000000000000000000000000000000000000000000815260040161069b906128b4565b60405180910390fd5b8073ffffffffffffffffffffffffffffffffffffffff166106c3611122565b73ffffffffffffffffffffffffffffffffffffffff1614806106f257506106f1816106ec611122565b610f30565b5b610731576040517f08c379a000000000000000000000000000000000000000000000000000000000815260040161072890612946565b60405180910390fd5b61073b838361112a565b505050565b61075161074b611122565b826111e3565b610790576040517f08c379a0000000000000000000000000000000000000000000000000000000008152600401610787906129d8565b60405180910390fd5b61079b838383611278565b505050565b600960009054906101000a900473ffffffffffffffffffffffffffffffffffffffff1673ffffffffffffffffffffffffffffffffffffffff163373ffffffffffffffffffffffffffffffffffffffff1614610830576040517f08c379a000000000000000000000000000000000000000000000000000000000815260040161082790612a44565b60405180910390fd5b806007600084815260200190815260200160002060006101000a81548173ffffffffffffffffffffffffffffffffffffffff021916908373ffffffffffffffffffffffffffffffffffffffff1602179055505050565b60076020528060005260406000206000915054906101000a900473ffffffffffffffffffffffffffffffffffffffff1681565b6108d483838360405180602001604052806000815250610d55565b505050565b6000806108e583611571565b9050600073ffffffffffffffffffffffffffffffffffffffff168173ffffffffffffffffffffffffffffffffffffffff1603610956576040517f08c379a000000000000000000000000000000000000000000000000000000000815260040161094d90612ab0565b60405180910390fd5b80915050919050565b60008073ffffffffffffffffffffffffffffffffffffffff168273ffffffffffffffffffffffffffffffffffffffff16036109cf576040517f08c379a00000000000000000000000000000000000000000000000000000000081526004016109c690612b42565b60405180910390fd5b600360008373ffffffffffffffffffffffffffffffffffffffff1673ffffffffffffffffffffffffffffffffffffffff168152602001908152602001600020549050919050565b610a1e6115ae565b610a28600061162c565b565b6000600660009054906101000a900473ffffffffffffffffffffffffffffffffffffffff16905090565b606060018054610a6390612811565b80601f0160208091040260200160405190810160405280929190818152602001828054610a8f90612811565b8015610adc5780601f10610ab157610100808354040283529160200191610adc565b820191906000526020600020905b815481529060010190602001808311610abf57829003601f168201915b5050505050905090565b3373ffffffffffffffffffffffffffffffffffffffff166007600083815260200190815260200160002060009054906101000a900473ffffffffffffffffffffffffffffffffffffffff1673ffffffffffffffffffffffffffffffffffffffff1614610b87576040517f08c379a0000000000000000000000000000000000000000000000000000000008152600401610b7e90612bd4565b60405180910390fd5b6008600082815260200190815260200160002060000160009054906101000a900460ff1615610beb576040517f08c379a0000000000000000000000000000000000000000000000000000000008152600401610be290612c40565b60405180910390fd5b610bf533826116f2565b60016008600083815260200190815260200160002060000160006101000a81548160ff02191690831515021790555050565b610c39610c32611122565b8383611710565b5050565b600960009054906101000a900473ffffffffffffffffffffffffffffffffffffffff1673ffffffffffffffffffffffffffffffffffffffff163373ffffffffffffffffffffffffffffffffffffffff1614610ccd576040517f08c379a0000000000000000000000000000000000000000000000000000000008152600401610cc490612a44565b60405180910390fd5b6040518060800160405280600015158152602001838152602001428152602001828152506008600084815260200190815260200160002060008201518160000160006101000a81548160ff02191690831515021790555060208201518160010155604082015181600201556060820151816003019081610d4d9190612e0c565b509050505050565b610d66610d60611122565b836111e3565b610da5576040517f08c379a0000000000000000000000000000000000000000000000000000000008152600401610d9c906129d8565b60405180910390fd5b610db18484848461187c565b50505050565b60086020528060005260406000206000915090508060000160009054906101000a900460ff1690806001015490806002015490806003018054610df990612811565b80601f0160208091040260200160405190810160405280929190818152602001828054610e2590612811565b8015610e725780601f10610e4757610100808354040283529160200191610e72565b820191906000526020600020905b815481529060010190602001808311610e5557829003601f168201915b5050505050905084565b6060610e87826110d7565b6000610e916118d8565b90506000815111610eb15760405180602001604052806000815250610edc565b80610ebb846118ef565b604051602001610ecc929190612f1a565b6040516020818303038152906040525b915050919050565b610eec6115ae565b80600960006101000a81548173ffffffffffffffffffffffffffffffffffffffff021916908373ffffffffffffffffffffffffffffffffffffffff16021790555050565b6000600560008473ffffffffffffffffffffffffffffffffffffffff1673ffffffffffffffffffffffffffffffffffffffff16815260200190815260200160002060008373ffffffffffffffffffffffffffffffffffffffff1673ffffffffffffffffffffffffffffffffffffffff16815260200190815260200160002060009054906101000a900460ff16905092915050565b600960009054906101000a900473ffffffffffffffffffffffffffffffffffffffff1681565b610ff26115ae565b600073ffffffffffffffffffffffffffffffffffffffff168173ffffffffffffffffffffffffffffffffffffffff1603611061576040517f08c379a000000000000000000000000000000000000000000000000000000000815260040161105890612fb0565b60405180910390fd5b61106a8161162c565b50565b60007f01ffc9a7000000000000000000000000000000000000000000000000000000007bffffffffffffffffffffffffffffffffffffffffffffffffffffffff1916827bffffffffffffffffffffffffffffffffffffffffffffffffffffffff1916149050919050565b6110e0816119bd565b61111f576040517f08c379a000000000000000000000000000000000000000000000000000000000815260040161111690612ab0565b60405180910390fd5b50565b600033905090565b816004600083815260200190815260200160002060006101000a81548173ffffffffffffffffffffffffffffffffffffffff021916908373ffffffffffffffffffffffffffffffffffffffff160217905550808273ffffffffffffffffffffffffffffffffffffffff1661119d836108d9565b73ffffffffffffffffffffffffffffffffffffffff167f8c5be1e5ebec7d5bd14f71427d1e84f3dd0314c0f7b2291e5b200ac8c7c3b92560405160405180910390a45050565b6000806111ef836108d9565b90508073ffffffffffffffffffffffffffffffffffffffff168473ffffffffffffffffffffffffffffffffffffffff16148061123157506112308185610f30565b5b8061126f57508373ffffffffffffffffffffffffffffffffffffffff16611257846105e3565b73ffffffffffffffffffffffffffffffffffffffff16145b91505092915050565b8273ffffffffffffffffffffffffffffffffffffffff16611298826108d9565b73ffffffffffffffffffffffffffffffffffffffff16146112ee576040517f08c379a00000000000000000000000000000000000000000000000000000000081526004016112e590613042565b60405180910390fd5b600073ffffffffffffffffffffffffffffffffffffffff168273ffffffffffffffffffffffffffffffffffffffff160361135d576040517f08c379a0000000000000000000000000000000000000000000000000000000008152600401611354906130d4565b60405180910390fd5b61136a83838360016119fe565b8273ffffffffffffffffffffffffffffffffffffffff1661138a826108d9565b73ffffffffffffffffffffffffffffffffffffffff16146113e0576040517f08c379a00000000000000000000000000000000000000000000000000000000081526004016113d790613042565b60405180910390fd5b6004600082815260200190815260200160002060006101000a81549073ffffffffffffffffffffffffffffffffffffffff02191690556001600360008573ffffffffffffffffffffffffffffffffffffffff1673ffffffffffffffffffffffffffffffffffffffff168152602001908152602001600020600082825403925050819055506001600360008473ffffffffffffffffffffffffffffffffffffffff1673ffffffffffffffffffffffffffffffffffffffff16815260200190815260200160002060008282540192505081905550816002600083815260200190815260200160002060006101000a81548173ffffffffffffffffffffffffffffffffffffffff021916908373ffffffffffffffffffffffffffffffffffffffff160217905550808273ffffffffffffffffffffffffffffffffffffffff168473ffffffffffffffffffffffffffffffffffffffff167fddf252ad1be2c89b69c2b068fc378daa952ba7f163c4a11628f55a4df523b3ef60405160405180910390a461156c8383836001611b24565b505050565b60006002600083815260200190815260200160002060009054906101000a900473ffffffffffffffffffffffffffffffffffffffff169050919050565b6115b6611122565b73ffffffffffffffffffffffffffffffffffffffff166115d4610a2a565b73ffffffffffffffffffffffffffffffffffffffff161461162a576040517f08c379a000000000000000000000000000000000000000000000000000000000815260040161162190613140565b60405180910390fd5b565b6000600660009054906101000a900473ffffffffffffffffffffffffffffffffffffffff16905081600660006101000a81548173ffffffffffffffffffffffffffffffffffffffff021916908373ffffffffffffffffffffffffffffffffffffffff1602179055508173ffffffffffffffffffffffffffffffffffffffff168173ffffffffffffffffffffffffffffffffffffffff167f8be0079c531659141344cd1fd0a4f28419497f9722a3daafe3b4186f6b6457e060405160405180910390a35050565b61170c828260405180602001604052806000815250611b2a565b5050565b8173ffffffffffffffffffffffffffffffffffffffff168373ffffffffffffffffffffffffffffffffffffffff160361177e576040517f08c379a0000000000000000000000000000000000000000000000000000000008152600401611775906131ac565b60405180910390fd5b80600560008573ffffffffffffffffffffffffffffffffffffffff1673ffffffffffffffffffffffffffffffffffffffff16815260200190815260200160002060008473ffffffffffffffffffffffffffffffffffffffff1673ffffffffffffffffffffffffffffffffffffffff16815260200190815260200160002060006101000a81548160ff0219169083151502179055508173ffffffffffffffffffffffffffffffffffffffff168373ffffffffffffffffffffffffffffffffffffffff167f17307eab39ab6107e8899845ad3d59bd9653f200f220920489ca2b5937696c318360405161186f9190612153565b60405180910390a3505050565b611887848484611278565b61189384848484611b85565b6118d2576040517f08c379a00000000000000000000000000000000000000000000000000000000081526004016118c99061323e565b60405180910390fd5b50505050565b606060405180602001604052806000815250905090565b6060600060016118fe84611d0c565b01905060008167ffffffffffffffff81111561191d5761191c6124ab565b5b6040519080825280601f01601f19166020018201604052801561194f5781602001600182028036833780820191505090505b509050600082602001820190505b6001156119b2578080600190039150507f3031323334353637383961626364656600000000000000000000000000000000600a86061a8153600a85816119a6576119a561325e565b5b0494506000850361195d575b819350505050919050565b60008073ffffffffffffffffffffffffffffffffffffffff166119df83611571565b73ffffffffffffffffffffffffffffffffffffffff1614159050919050565b6001811115611b1e57600073ffffffffffffffffffffffffffffffffffffffff168473ffffffffffffffffffffffffffffffffffffffff1614611a925780600360008673ffffffffffffffffffffffffffffffffffffffff1673ffffffffffffffffffffffffffffffffffffffff1681526020019081526020016000206000828254611a8a91906132bc565b925050819055505b600073ffffffffffffffffffffffffffffffffffffffff168373ffffffffffffffffffffffffffffffffffffffff1614611b1d5780600360008573ffffffffffffffffffffffffffffffffffffffff1673ffffffffffffffffffffffffffffffffffffffff1681526020019081526020016000206000828254611b1591906132f0565b925050819055505b5b50505050565b50505050565b611b348383611e5f565b611b416000848484611b85565b611b80576040517f08c379a0000000000000000000000000000000000000000000000000000000008152600401611b779061323e565b60405180910390fd5b505050565b6000611ba68473ffffffffffffffffffffffffffffffffffffffff1661207c565b15611cff578373ffffffffffffffffffffffffffffffffffffffff1663150b7a02611bcf611122565b8786866040518563ffffffff1660e01b8152600401611bf19493929190613379565b6020604051808303816000875af1925050508015611c2d57506040513d601f19601f82011682018060405250810190611c2a91906133da565b60015b611caf573d8060008114611c5d576040519150601f19603f3d011682016040523d82523d6000602084013e611c62565b606091505b506000815103611ca7576040517f08c379a0000000000000000000000000000000000000000000000000000000008152600401611c9e9061323e565b60405180910390fd5b805181602001fd5b63150b7a0260e01b7bffffffffffffffffffffffffffffffffffffffffffffffffffffffff1916817bffffffffffffffffffffffffffffffffffffffffffffffffffffffff191614915050611d04565b600190505b949350505050565b600080600090507a184f03e93ff9f4daa797ed6e38ed64bf6a1f0100000000000000008310611d6a577a184f03e93ff9f4daa797ed6e38ed64bf6a1f0100000000000000008381611d6057611d5f61325e565b5b0492506040810190505b6d04ee2d6d415b85acef81000000008310611da7576d04ee2d6d415b85acef81000000008381611d9d57611d9c61325e565b5b0492506020810190505b662386f26fc100008310611dd657662386f26fc100008381611dcc57611dcb61325e565b5b0492506010810190505b6305f5e1008310611dff576305f5e1008381611df557611df461325e565b5b0492506008810190505b6127108310611e24576127108381611e1a57611e1961325e565b5b0492506004810190505b60648310611e475760648381611e3d57611e3c61325e565b5b0492506002810190505b600a8310611e56576001810190505b80915050919050565b600073ffffffffffffffffffffffffffffffffffffffff168273ffffffffffffffffffffffffffffffffffffffff1603611ece576040517f08c379a0000000000000000000000000000000000000000000000000000000008152600401611ec590613453565b60405180910390fd5b611ed7816119bd565b15611f17576040517f08c379a0000000000000000000000000000000000000000000000000000000008152600401611f0e906134bf565b60405180910390fd5b611f256000838360016119fe565b611f2e816119bd565b15611f6e576040517f08c379a0000000000000000000000000000000000000000000000000000000008152600401611f65906134bf565b60405180910390fd5b6001600360008473ffffffffffffffffffffffffffffffffffffffff1673ffffffffffffffffffffffffffffffffffffffff16815260200190815260200160002060008282540192505081905550816002600083815260200190815260200160002060006101000a81548173ffffffffffffffffffffffffffffffffffffffff021916908373ffffffffffffffffffffffffffffffffffffffff160217905550808273ffffffffffffffffffffffffffffffffffffffff16600073ffffffffffffffffffffffffffffffffffffffff167fddf252ad1be2c89b69c2b068fc378daa952ba7f163c4a11628f55a4df523b3ef60405160405180910390a4612078600083836001611b24565b5050565b6000808273ffffffffffffffffffffffffffffffffffffffff163b119050919050565b6000604051905090565b600080fd5b600080fd5b60007fffffffff0000000000000000000000000000000000000000000000000000000082169050919050565b6120e8816120b3565b81146120f357600080fd5b50565b600081359050612105816120df565b92915050565b600060208284031215612121576121206120a9565b5b600061212f848285016120f6565b91505092915050565b60008115159050919050565b61214d81612138565b82525050565b60006020820190506121686000830184612144565b92915050565b600081519050919050565b600082825260208201905092915050565b60005b838110156121a857808201518184015260208101905061218d565b60008484015250505050565b6000601f19601f8301169050919050565b60006121d08261216e565b6121da8185612179565b93506121ea81856020860161218a565b6121f3816121b4565b840191505092915050565b6000602082019050818103600083015261221881846121c5565b905092915050565b6000819050919050565b61223381612220565b811461223e57600080fd5b50565b6000813590506122508161222a565b92915050565b60006020828403121561226c5761226b6120a9565b5b600061227a84828501612241565b91505092915050565b600073ffffffffffffffffffffffffffffffffffffffff82169050919050565b60006122ae82612283565b9050919050565b6122be816122a3565b82525050565b60006020820190506122d960008301846122b5565b92915050565b6122e8816122a3565b81146122f357600080fd5b50565b600081359050612305816122df565b92915050565b60008060408385031215612322576123216120a9565b5b6000612330858286016122f6565b925050602061234185828601612241565b9150509250929050565b600080600060608486031215612364576123636120a9565b5b6000612372868287016122f6565b9350506020612383868287016122f6565b925050604061239486828701612241565b9150509250925092565b600080604083850312156123b5576123b46120a9565b5b60006123c385828601612241565b92505060206123d4858286016122f6565b9150509250929050565b6000602082840312156123f4576123f36120a9565b5b6000612402848285016122f6565b91505092915050565b61241481612220565b82525050565b600060208201905061242f600083018461240b565b92915050565b61243e81612138565b811461244957600080fd5b50565b60008135905061245b81612435565b92915050565b60008060408385031215612478576124776120a9565b5b6000612486858286016122f6565b92505060206124978582860161244c565b9150509250929050565b600080fd5b600080fd5b7f4e487b7100000000000000000000000000000000000000000000000000000000600052604160045260246000fd5b6124e3826121b4565b810181811067ffffffffffffffff82111715612502576125016124ab565b5b80604052505050565b600061251561209f565b905061252182826124da565b919050565b600067ffffffffffffffff821115612541576125406124ab565b5b61254a826121b4565b9050602081019050919050565b82818337600083830152505050565b600061257961257484612526565b61250b565b905082815260208101848484011115612595576125946124a6565b5b6125a0848285612557565b509392505050565b600082601f8301126125bd576125bc6124a1565b5b81356125cd848260208601612566565b91505092915050565b600080604083850312156125ed576125ec6120a9565b5b60006125fb85828601612241565b925050602083013567ffffffffffffffff81111561261c5761261b6120ae565b5b612628858286016125a8565b9150509250929050565b600067ffffffffffffffff82111561264d5761264c6124ab565b5b612656826121b4565b9050602081019050919050565b600061267661267184612632565b61250b565b905082815260208101848484011115612692576126916124a6565b5b61269d848285612557565b509392505050565b600082601f8301126126ba576126b96124a1565b5b81356126ca848260208601612663565b91505092915050565b600080600080608085870312156126ed576126ec6120a9565b5b60006126fb878288016122f6565b945050602061270c878288016122f6565b935050604061271d87828801612241565b925050606085013567ffffffffffffffff81111561273e5761273d6120ae565b5b61274a878288016126a5565b91505092959194509250565b600060808201905061276b6000830187612144565b612778602083018661240b565b612785604083018561240b565b818103606083015261279781846121c5565b905095945050505050565b600080604083850312156127b9576127b86120a9565b5b60006127c7858286016122f6565b92505060206127d8858286016122f6565b9150509250929050565b7f4e487b7100000000000000000000000000000000000000000000000000000000600052602260045260246000fd5b6000600282049050600182168061282957607f821691505b60208210810361283c5761283b6127e2565b5b50919050565b7f4552433732313a20617070726f76616c20746f2063757272656e74206f776e6560008201527f7200000000000000000000000000000000000000000000000000000000000000602082015250565b600061289e602183612179565b91506128a982612842565b604082019050919050565b600060208201905081810360008301526128cd81612891565b9050919050565b7f4552433732313a20617070726f76652063616c6c6572206973206e6f7420746f60008201527f6b656e206f776e6572206f7220617070726f76656420666f7220616c6c000000602082015250565b6000612930603d83612179565b915061293b826128d4565b604082019050919050565b6000602082019050818103600083015261295f81612923565b9050919050565b7f4552433732313a2063616c6c6572206973206e6f7420746f6b656e206f776e6560008201527f72206f7220617070726f76656400000000000000000000000000000000000000602082015250565b60006129c2602d83612179565b91506129cd82612966565b604082019050919050565b600060208201905081810360008301526129f1816129b5565b9050919050565b7f596f7520617265206e6f74207468652061756374696f6e20686f757365000000600082015250565b6000612a2e601d83612179565b9150612a39826129f8565b602082019050919050565b60006020820190508181036000830152612a5d81612a21565b9050919050565b7f4552433732313a20696e76616c696420746f6b656e2049440000000000000000600082015250565b6000612a9a601883612179565b9150612aa582612a64565b602082019050919050565b60006020820190508181036000830152612ac981612a8d565b9050919050565b7f4552433732313a2061646472657373207a65726f206973206e6f74206120766160008201527f6c6964206f776e65720000000000000000000000000000000000000000000000602082015250565b6000612b2c602983612179565b9150612b3782612ad0565b604082019050919050565b60006020820190508181036000830152612b5b81612b1f565b9050919050565b7f596f7520617265206e6f7420616c6c6f77656420746f206d696e74207468697360008201527f20746f6b656e0000000000000000000000000000000000000000000000000000602082015250565b6000612bbe602683612179565b9150612bc982612b62565b604082019050919050565b60006020820190508181036000830152612bed81612bb1565b9050919050565b7f546f6b656e2068617320616c7265616479206265656e206d696e746564000000600082015250565b6000612c2a601d83612179565b9150612c3582612bf4565b602082019050919050565b60006020820190508181036000830152612c5981612c1d565b9050919050565b60008190508160005260206000209050919050565b60006020601f8301049050919050565b600082821b905092915050565b600060088302612cc27fffffffffffffffffffffffffffffffffffffffffffffffffffffffffffffffff82612c85565b612ccc8683612c85565b95508019841693508086168417925050509392505050565b6000819050919050565b6000612d09612d04612cff84612220565b612ce4565b612220565b9050919050565b6000819050919050565b612d2383612cee565b612d37612d2f82612d10565b848454612c92565b825550505050565b600090565b612d4c612d3f565b612d57818484612d1a565b505050565b5b81811015612d7b57612d70600082612d44565b600181019050612d5d565b5050565b601f821115612dc057612d9181612c60565b612d9a84612c75565b81016020851015612da9578190505b612dbd612db585612c75565b830182612d5c565b50505b505050565b600082821c905092915050565b6000612de360001984600802612dc5565b1980831691505092915050565b6000612dfc8383612dd2565b9150826002028217905092915050565b612e158261216e565b67ffffffffffffffff811115612e2e57612e2d6124ab565b5b612e388254612811565b612e43828285612d7f565b600060209050601f831160018114612e765760008415612e64578287015190505b612e6e8582612df0565b865550612ed6565b601f198416612e8486612c60565b60005b82811015612eac57848901518255600182019150602085019450602081019050612e87565b86831015612ec95784890151612ec5601f891682612dd2565b8355505b6001600288020188555050505b505050505050565b600081905092915050565b6000612ef48261216e565b612efe8185612ede565b9350612f0e81856020860161218a565b80840191505092915050565b6000612f268285612ee9565b9150612f328284612ee9565b91508190509392505050565b7f4f776e61626c653a206e6577206f776e657220697320746865207a65726f206160008201527f6464726573730000000000000000000000000000000000000000000000000000602082015250565b6000612f9a602683612179565b9150612fa582612f3e565b604082019050919050565b60006020820190508181036000830152612fc981612f8d565b9050919050565b7f4552433732313a207472616e736665722066726f6d20696e636f72726563742060008201527f6f776e6572000000000000000000000000000000000000000000000000000000602082015250565b600061302c602583612179565b915061303782612fd0565b604082019050919050565b6000602082019050818103600083015261305b8161301f565b9050919050565b7f4552433732313a207472616e7366657220746f20746865207a65726f2061646460008201527f7265737300000000000000000000000000000000000000000000000000000000602082015250565b60006130be602483612179565b91506130c982613062565b604082019050919050565b600060208201905081810360008301526130ed816130b1565b9050919050565b7f4f776e61626c653a2063616c6c6572206973206e6f7420746865206f776e6572600082015250565b600061312a602083612179565b9150613135826130f4565b602082019050919050565b600060208201905081810360008301526131598161311d565b9050919050565b7f4552433732313a20617070726f766520746f2063616c6c657200000000000000600082015250565b6000613196601983612179565b91506131a182613160565b602082019050919050565b600060208201905081810360008301526131c581613189565b9050919050565b7f4552433732313a207472616e7366657220746f206e6f6e20455243373231526560008201527f63656976657220696d706c656d656e7465720000000000000000000000000000602082015250565b6000613228603283612179565b9150613233826131cc565b604082019050919050565b600060208201905081810360008301526132578161321b565b9050919050565b7f4e487b7100000000000000000000000000000000000000000000000000000000600052601260045260246000fd5b7f4e487b7100000000000000000000000000000000000000000000000000000000600052601160045260246000fd5b60006132c782612220565b91506132d283612220565b92508282039050818111156132ea576132e961328d565b5b92915050565b60006132fb82612220565b915061330683612220565b925082820190508082111561331e5761331d61328d565b5b92915050565b600081519050919050565b600082825260208201905092915050565b600061334b82613324565b613355818561332f565b935061336581856020860161218a565b61336e816121b4565b840191505092915050565b600060808201905061338e60008301876122b5565b61339b60208301866122b5565b6133a8604083018561240b565b81810360608301526133ba8184613340565b905095945050505050565b6000815190506133d4816120df565b92915050565b6000602082840312156133f0576133ef6120a9565b5b60006133fe848285016133c5565b91505092915050565b7f4552433732313a206d696e7420746f20746865207a65726f2061646472657373600082015250565b600061343d602083612179565b915061344882613407565b602082019050919050565b6000602082019050818103600083015261346c81613430565b9050919050565b7f4552433732313a20746f6b656e20616c7265616479206d696e74656400000000600082015250565b60006134a9601c83612179565b91506134b482613473565b602082019050919050565b600060208201905081810360008301526134d88161349c565b905091905056fea26469706673582212203d2bedb8d2ef9e9f07c2205b1578befae977ccc75fa0e788c57c6e66d0115aaa64736f6c63430008110033",
  "immutableReferences": {},
  "source": "// SPDX-License-Identifier: MIT\npragma solidity >=0.4.22 <0.9.0;\n\nimport \"@openzeppelin/contracts/access/Ownable.sol\";\nimport \"@openzeppelin/contracts/token/ERC721/ERC721.sol\";\n\ncontract Stacks is ERC721, Ownable {\n  // mapping(address => tokenMetaData[]) public ownershipRecord;\n  // winner of auction is added here so they can mint\n  // Key is tokenId\n  // mapping(uint => address) public availableForMint;\n  // mapping(uint => tokenMetaData) public nonMintedTokens;\n\n  mapping(uint => address) public tokenOwnershipRecord;\n  mapping(uint => tokenMetaData) public tokenMetaDataRecord;\n\n  address public auctionHouse;\n\n  struct tokenMetaData {\n    bool minted;\n    uint tokenId;\n    uint timestamp;\n    string metadataURI;\n  }\n\n  constructor() ERC721(\"Stacks\", \"STACKS\") {}\n\n  function mint(uint tokenId) public {\n    require(tokenOwnershipRecord[tokenId] == msg.sender, \"You are not allowed to mint this token\");\n    require(!tokenMetaDataRecord[tokenId].minted, \"Token has already been minted\");\n\n    _safeMint(msg.sender, tokenId);\n    tokenMetaDataRecord[tokenId].minted = true;\n  }\n\n  // Set who can mint the token with tokenId\n  function addAvailableForMint(uint tokenId, address auctionWinner) public {\n    require(msg.sender == auctionHouse, \"You are not the auction house\");\n    tokenOwnershipRecord[tokenId] = auctionWinner;\n  }\n\n  // Runs before the auction so the auction house can set the metadata\n  function prepTokenMetadata(uint tokenId, string memory metadataURI) public {\n    require(msg.sender == auctionHouse, \"You are not the auction house\");\n    tokenMetaDataRecord[tokenId] = tokenMetaData({\n      minted: false,\n      tokenId: tokenId,\n      timestamp: block.timestamp,\n      metadataURI: metadataURI\n    });\n  }\n\n  // Admin functions\n  function setAuctionHouse(address _auctionHouse) public onlyOwner {\n    auctionHouse = _auctionHouse;\n  }\n}\n",
  "sourcePath": "/Users/bruno/dev/crypto/stacks/contracts/stacks.sol",
  "compiler": {
    "name": "solc",
    "version": "0.8.17+commit.8df45f5f.Emscripten.clang"
  },
  "schemaVersion": "3.4.10",
  "updatedAt": "2022-12-14T09:23:41.540Z",
  "devdoc": {
    "kind": "dev",
    "methods": {
      "approve(address,uint256)": {
        "details": "See {IERC721-approve}."
      },
      "balanceOf(address)": {
        "details": "See {IERC721-balanceOf}."
      },
      "getApproved(uint256)": {
        "details": "See {IERC721-getApproved}."
      },
      "isApprovedForAll(address,address)": {
        "details": "See {IERC721-isApprovedForAll}."
      },
      "name()": {
        "details": "See {IERC721Metadata-name}."
      },
      "owner()": {
        "details": "Returns the address of the current owner."
      },
      "ownerOf(uint256)": {
        "details": "See {IERC721-ownerOf}."
      },
      "renounceOwnership()": {
        "details": "Leaves the contract without owner. It will not be possible to call `onlyOwner` functions anymore. Can only be called by the current owner. NOTE: Renouncing ownership will leave the contract without an owner, thereby removing any functionality that is only available to the owner."
      },
      "safeTransferFrom(address,address,uint256)": {
        "details": "See {IERC721-safeTransferFrom}."
      },
      "safeTransferFrom(address,address,uint256,bytes)": {
        "details": "See {IERC721-safeTransferFrom}."
      },
      "setApprovalForAll(address,bool)": {
        "details": "See {IERC721-setApprovalForAll}."
      },
      "supportsInterface(bytes4)": {
        "details": "See {IERC165-supportsInterface}."
      },
      "symbol()": {
        "details": "See {IERC721Metadata-symbol}."
      },
      "tokenURI(uint256)": {
        "details": "See {IERC721Metadata-tokenURI}."
      },
      "transferFrom(address,address,uint256)": {
        "details": "See {IERC721-transferFrom}."
      },
      "transferOwnership(address)": {
        "details": "Transfers ownership of the contract to a new account (`newOwner`). Can only be called by the current owner."
      }
    },
    "version": 1
  },
  "userdoc": {
    "kind": "user",
    "methods": {},
    "version": 1
  }
}