{
  "contractName": "WhitelistStacks",
  "abi": [
    {
      "inputs": [
        {
          "internalType": "address",
          "name": "_usdcAddress",
          "type": "address"
        }
      ],
      "stateMutability": "nonpayable",
      "type": "constructor"
    },
    {
      "anonymous": false,
      "inputs": [
        {
          "indexed": true,
          "internalType": "address",
          "name": "previousOwner",
          "type": "address"
        },
        {
          "indexed": true,
          "internalType": "address",
          "name": "newOwner",
          "type": "address"
        }
      ],
      "name": "OwnershipTransferred",
      "type": "event"
    },
    {
      "anonymous": false,
      "inputs": [
        {
          "indexed": true,
          "internalType": "address",
          "name": "account",
          "type": "address"
        }
      ],
      "name": "ReferralFeesPaid",
      "type": "event"
    },
    {
      "anonymous": false,
      "inputs": [
        {
          "indexed": true,
          "internalType": "address",
          "name": "account",
          "type": "address"
        }
      ],
      "name": "WhitelistAdded",
      "type": "event"
    },
    {
      "inputs": [],
      "name": "maxListLength",
      "outputs": [
        {
          "internalType": "uint256",
          "name": "",
          "type": "uint256"
        }
      ],
      "stateMutability": "view",
      "type": "function",
      "constant": true
    },
    {
      "inputs": [],
      "name": "owner",
      "outputs": [
        {
          "internalType": "address",
          "name": "",
          "type": "address"
        }
      ],
      "stateMutability": "view",
      "type": "function",
      "constant": true
    },
    {
      "inputs": [
        {
          "internalType": "uint256",
          "name": "",
          "type": "uint256"
        }
      ],
      "name": "plans",
      "outputs": [
        {
          "internalType": "uint256",
          "name": "",
          "type": "uint256"
        }
      ],
      "stateMutability": "view",
      "type": "function",
      "constant": true
    },
    {
      "inputs": [
        {
          "internalType": "address",
          "name": "",
          "type": "address"
        }
      ],
      "name": "referralsLength",
      "outputs": [
        {
          "internalType": "uint256",
          "name": "",
          "type": "uint256"
        }
      ],
      "stateMutability": "view",
      "type": "function",
      "constant": true
    },
    {
      "inputs": [],
      "name": "renounceOwnership",
      "outputs": [],
      "stateMutability": "nonpayable",
      "type": "function"
    },
    {
      "inputs": [
        {
          "internalType": "address",
          "name": "newOwner",
          "type": "address"
        }
      ],
      "name": "transferOwnership",
      "outputs": [],
      "stateMutability": "nonpayable",
      "type": "function"
    },
    {
      "inputs": [],
      "name": "usdcAddress",
      "outputs": [
        {
          "internalType": "contract ERC20",
          "name": "",
          "type": "address"
        }
      ],
      "stateMutability": "view",
      "type": "function",
      "constant": true
    },
    {
      "inputs": [
        {
          "internalType": "address",
          "name": "",
          "type": "address"
        }
      ],
      "name": "whitelist",
      "outputs": [
        {
          "internalType": "address",
          "name": "accountAddress",
          "type": "address"
        },
        {
          "internalType": "address",
          "name": "referredBy",
          "type": "address"
        },
        {
          "internalType": "bool",
          "name": "exists",
          "type": "bool"
        }
      ],
      "stateMutability": "view",
      "type": "function",
      "constant": true
    },
    {
      "inputs": [],
      "name": "whitelistLength",
      "outputs": [
        {
          "internalType": "uint256",
          "name": "",
          "type": "uint256"
        }
      ],
      "stateMutability": "view",
      "type": "function",
      "constant": true
    },
    {
      "inputs": [
        {
          "internalType": "address",
          "name": "_referredBy",
          "type": "address"
        }
      ],
      "name": "addToWhitelist",
      "outputs": [],
      "stateMutability": "nonpayable",
      "type": "function"
    },
    {
      "inputs": [],
      "name": "receiveReferral",
      "outputs": [],
      "stateMutability": "nonpayable",
      "type": "function"
    },
    {
      "inputs": [],
      "name": "currentPlan",
      "outputs": [
        {
          "internalType": "uint256",
          "name": "",
          "type": "uint256"
        }
      ],
      "stateMutability": "view",
      "type": "function",
      "constant": true
    },
    {
      "inputs": [
        {
          "internalType": "address",
          "name": "_user",
          "type": "address"
        }
      ],
      "name": "amountToPayToReferrer",
      "outputs": [
        {
          "internalType": "uint256",
          "name": "",
          "type": "uint256"
        }
      ],
      "stateMutability": "view",
      "type": "function",
      "constant": true
    },
    {
      "inputs": [
        {
          "internalType": "bool",
          "name": "_openWithdrawals",
          "type": "bool"
        }
      ],
      "name": "setOpenWithdrawals",
      "outputs": [],
      "stateMutability": "nonpayable",
      "type": "function"
    },
    {
      "inputs": [
        {
          "internalType": "address",
          "name": "to",
          "type": "address"
        },
        {
          "internalType": "uint256",
          "name": "amount",
          "type": "uint256"
        }
      ],
      "name": "withdrawFunds",
      "outputs": [],
      "stateMutability": "nonpayable",
      "type": "function"
    },
    {
      "inputs": [
        {
          "internalType": "uint256",
          "name": "_maxListLength",
          "type": "uint256"
        }
      ],
      "name": "setMaxListLength",
      "outputs": [],
      "stateMutability": "nonpayable",
      "type": "function"
    }
  ],
  "bytecode": "0x6080604052604051806080016040528068056bc75e2d6310000068ffffffffffffffffff168152602001680d8d726b7177a8000068ffffffffffffffffff168152602001681b1ae4d6e2ef50000068ffffffffffffffffff168152602001683635c9adc5dea0000068ffffffffffffffffff16815250600290600462000087929190620001f5565b506103e86006553480156200009b57600080fd5b5060405162001937380380620019378339818101604052810190620000c19190620002dd565b620000e1620000d56200012960201b60201c565b6200013160201b60201c565b80600160006101000a81548173ffffffffffffffffffffffffffffffffffffffff021916908373ffffffffffffffffffffffffffffffffffffffff160217905550506200030f565b600033905090565b60008060009054906101000a900473ffffffffffffffffffffffffffffffffffffffff169050816000806101000a81548173ffffffffffffffffffffffffffffffffffffffff021916908373ffffffffffffffffffffffffffffffffffffffff1602179055508173ffffffffffffffffffffffffffffffffffffffff168173ffffffffffffffffffffffffffffffffffffffff167f8be0079c531659141344cd1fd0a4f28419497f9722a3daafe3b4186f6b6457e060405160405180910390a35050565b82805482825590600052602060002090810192821562000241579160200282015b8281111562000240578251829068ffffffffffffffffff1690559160200191906001019062000216565b5b50905062000250919062000254565b5090565b5b808211156200026f57600081600090555060010162000255565b5090565b600080fd5b600073ffffffffffffffffffffffffffffffffffffffff82169050919050565b6000620002a58262000278565b9050919050565b620002b78162000298565b8114620002c357600080fd5b50565b600081519050620002d781620002ac565b92915050565b600060208284031215620002f657620002f562000273565b5b60006200030684828501620002c6565b91505092915050565b611618806200031f6000396000f3fe608060405234801561001057600080fd5b50600436106101005760003560e01c80639d38696611610097578063c107532911610066578063c10753291461029f578063c47eb8d2146102bb578063e43252d7146102c5578063f2fde38b146102e157610100565b80639d386966146101f1578063a4d86f891461020f578063b16206161461023f578063b2587d831461026f57610100565b806378bb5164116100d357806378bb5164146101675780638c6025c5146101855780638da5cb5b146101a15780639b19251a146101bf57610100565b806302d45457146101055780630574070c146101235780631e27f9f614610141578063715018a61461015d575b600080fd5b61010d6102fd565b60405161011a9190610ea6565b60405180910390f35b61012b610323565b6040516101389190610eda565b60405180910390f35b61015b60048036038101906101569190610f26565b61036a565b005b61016561037c565b005b61016f610390565b60405161017c9190610eda565b60405180910390f35b61019f600480360381019061019a9190610f8b565b610396565b005b6101a96103bb565b6040516101b69190610fd9565b60405180910390f35b6101d960048036038101906101d49190611020565b6103e4565b6040516101e89392919061105c565b60405180910390f35b6101f961045b565b6040516102069190610eda565b60405180910390f35b61022960048036038101906102249190611020565b610461565b6040516102369190610eda565b60405180910390f35b61025960048036038101906102549190610f26565b610479565b6040516102669190610eda565b60405180910390f35b61028960048036038101906102849190611020565b61049d565b6040516102969190610eda565b60405180910390f35b6102b960048036038101906102b49190611093565b610505565b005b6102c36105b2565b005b6102df60048036038101906102da9190611020565b6107bc565b005b6102fb60048036038101906102f69190611020565b610c5a565b005b600160009054906101000a900473ffffffffffffffffffffffffffffffffffffffff1681565b6000606460055410156103395760009050610367565b60fa600554101561034d5760019050610367565b6101f460055410156103625760029050610367565b600390505b90565b610372610cdd565b8060068190555050565b610384610cdd565b61038e6000610d5b565b565b60055481565b61039e610cdd565b80600160146101000a81548160ff02191690831515021790555050565b60008060009054906101000a900473ffffffffffffffffffffffffffffffffffffffff16905090565b60036020528060005260406000206000915090508060000160009054906101000a900473ffffffffffffffffffffffffffffffffffffffff16908060010160009054906101000a900473ffffffffffffffffffffffffffffffffffffffff16908060010160149054906101000a900460ff16905083565b60065481565b60046020528060005260406000206000915090505481565b6002818154811061048957600080fd5b906000526020600020016000915090505481565b6000670de0b6b3a76400006032600460008573ffffffffffffffffffffffffffffffffffffffff1673ffffffffffffffffffffffffffffffffffffffff168152602001908152602001600020546104f49190611102565b6104fe9190611102565b9050919050565b61050d610cdd565b600160009054906101000a900473ffffffffffffffffffffffffffffffffffffffff1673ffffffffffffffffffffffffffffffffffffffff1663a9059cbb83836040518363ffffffff1660e01b815260040161056a929190611144565b6020604051808303816000875af1158015610589573d6000803e3d6000fd5b505050506040513d601f19601f820116820180604052508101906105ad9190611182565b505050565b600160149054906101000a900460ff16610601576040517f08c379a00000000000000000000000000000000000000000000000000000000081526004016105f89061120c565b60405180910390fd5b6000600460003373ffffffffffffffffffffffffffffffffffffffff1673ffffffffffffffffffffffffffffffffffffffff1681526020019081526020016000205411610683576040517f08c379a000000000000000000000000000000000000000000000000000000000815260040161067a90611278565b60405180910390fd5b600061068e3361049d565b90506000600460003373ffffffffffffffffffffffffffffffffffffffff1673ffffffffffffffffffffffffffffffffffffffff16815260200190815260200160002081905550600160009054906101000a900473ffffffffffffffffffffffffffffffffffffffff1673ffffffffffffffffffffffffffffffffffffffff1663a9059cbb33836040518363ffffffff1660e01b8152600401610732929190611144565b6020604051808303816000875af1158015610751573d6000803e3d6000fd5b505050506040513d601f19601f820116820180604052508101906107759190611182565b503373ffffffffffffffffffffffffffffffffffffffff167fd03a333578b3bec046a21391622c18e0b54a2006f8720f38a8dc70f8e28c0d0e60405160405180910390a250565b60065460055410610802576040517f08c379a00000000000000000000000000000000000000000000000000000000081526004016107f9906112e4565b60405180910390fd5b600360003373ffffffffffffffffffffffffffffffffffffffff1673ffffffffffffffffffffffffffffffffffffffff16815260200190815260200160002060010160149054906101000a900460ff1615610892576040517f08c379a000000000000000000000000000000000000000000000000000000000815260040161088990611376565b60405180910390fd5b3373ffffffffffffffffffffffffffffffffffffffff168173ffffffffffffffffffffffffffffffffffffffff1603610900576040517f08c379a00000000000000000000000000000000000000000000000000000000081526004016108f7906113e2565b60405180910390fd5b600061090a610323565b90506000600360008473ffffffffffffffffffffffffffffffffffffffff1673ffffffffffffffffffffffffffffffffffffffff16815260200190815260200160002060010160149054906101000a900460ff161561096b57829050610970565b600090505b600160009054906101000a900473ffffffffffffffffffffffffffffffffffffffff1673ffffffffffffffffffffffffffffffffffffffff166323b872dd3330600286815481106109c4576109c3611402565b5b90600052602060002001546040518463ffffffff1660e01b81526004016109ed93929190611431565b6020604051808303816000875af1158015610a0c573d6000803e3d6000fd5b505050506040513d601f19601f82011682018060405250810190610a309190611182565b5060405180606001604052803373ffffffffffffffffffffffffffffffffffffffff1681526020018273ffffffffffffffffffffffffffffffffffffffff16815260200160011515815250600360003373ffffffffffffffffffffffffffffffffffffffff1673ffffffffffffffffffffffffffffffffffffffff16815260200190815260200160002060008201518160000160006101000a81548173ffffffffffffffffffffffffffffffffffffffff021916908373ffffffffffffffffffffffffffffffffffffffff16021790555060208201518160010160006101000a81548173ffffffffffffffffffffffffffffffffffffffff021916908373ffffffffffffffffffffffffffffffffffffffff16021790555060408201518160010160146101000a81548160ff02191690831515021790555090505060056000815480929190610b7e90611468565b91905055506001600460008373ffffffffffffffffffffffffffffffffffffffff1673ffffffffffffffffffffffffffffffffffffffff16815260200190815260200160002054610bcf91906114b0565b600460008373ffffffffffffffffffffffffffffffffffffffff1673ffffffffffffffffffffffffffffffffffffffff168152602001908152602001600020819055503373ffffffffffffffffffffffffffffffffffffffff167f4790a4adb426ca2345bb5108f6e454eae852a7bf687544cd66a7270dff3a41d660405160405180910390a2505050565b610c62610cdd565b600073ffffffffffffffffffffffffffffffffffffffff168173ffffffffffffffffffffffffffffffffffffffff1603610cd1576040517f08c379a0000000000000000000000000000000000000000000000000000000008152600401610cc890611556565b60405180910390fd5b610cda81610d5b565b50565b610ce5610e1f565b73ffffffffffffffffffffffffffffffffffffffff16610d036103bb565b73ffffffffffffffffffffffffffffffffffffffff1614610d59576040517f08c379a0000000000000000000000000000000000000000000000000000000008152600401610d50906115c2565b60405180910390fd5b565b60008060009054906101000a900473ffffffffffffffffffffffffffffffffffffffff169050816000806101000a81548173ffffffffffffffffffffffffffffffffffffffff021916908373ffffffffffffffffffffffffffffffffffffffff1602179055508173ffffffffffffffffffffffffffffffffffffffff168173ffffffffffffffffffffffffffffffffffffffff167f8be0079c531659141344cd1fd0a4f28419497f9722a3daafe3b4186f6b6457e060405160405180910390a35050565b600033905090565b600073ffffffffffffffffffffffffffffffffffffffff82169050919050565b6000819050919050565b6000610e6c610e67610e6284610e27565b610e47565b610e27565b9050919050565b6000610e7e82610e51565b9050919050565b6000610e9082610e73565b9050919050565b610ea081610e85565b82525050565b6000602082019050610ebb6000830184610e97565b92915050565b6000819050919050565b610ed481610ec1565b82525050565b6000602082019050610eef6000830184610ecb565b92915050565b600080fd5b610f0381610ec1565b8114610f0e57600080fd5b50565b600081359050610f2081610efa565b92915050565b600060208284031215610f3c57610f3b610ef5565b5b6000610f4a84828501610f11565b91505092915050565b60008115159050919050565b610f6881610f53565b8114610f7357600080fd5b50565b600081359050610f8581610f5f565b92915050565b600060208284031215610fa157610fa0610ef5565b5b6000610faf84828501610f76565b91505092915050565b6000610fc382610e27565b9050919050565b610fd381610fb8565b82525050565b6000602082019050610fee6000830184610fca565b92915050565b610ffd81610fb8565b811461100857600080fd5b50565b60008135905061101a81610ff4565b92915050565b60006020828403121561103657611035610ef5565b5b60006110448482850161100b565b91505092915050565b61105681610f53565b82525050565b60006060820190506110716000830186610fca565b61107e6020830185610fca565b61108b604083018461104d565b949350505050565b600080604083850312156110aa576110a9610ef5565b5b60006110b88582860161100b565b92505060206110c985828601610f11565b9150509250929050565b7f4e487b7100000000000000000000000000000000000000000000000000000000600052601160045260246000fd5b600061110d82610ec1565b915061111883610ec1565b925082820261112681610ec1565b9150828204841483151761113d5761113c6110d3565b5b5092915050565b60006040820190506111596000830185610fca565b6111666020830184610ecb565b9392505050565b60008151905061117c81610f5f565b92915050565b60006020828403121561119857611197610ef5565b5b60006111a68482850161116d565b91505092915050565b600082825260208201905092915050565b7f46756e64207769746864726177616c732061726520636c6f7365640000000000600082015250565b60006111f6601b836111af565b9150611201826111c0565b602082019050919050565b60006020820190508181036000830152611225816111e9565b9050919050565b7f4e6f20726566657272616c7320666f756e640000000000000000000000000000600082015250565b60006112626012836111af565b915061126d8261122c565b602082019050919050565b6000602082019050818103600083015261129181611255565b9050919050565b7f536f7272792c2077686974656c6973742069732066756c6c0000000000000000600082015250565b60006112ce6018836111af565b91506112d982611298565b602082019050919050565b600060208201905081810360008301526112fd816112c1565b9050919050565b7f4164647265737320616c7265616479207265676973746572656420666f72207760008201527f686974656c697374000000000000000000000000000000000000000000000000602082015250565b60006113606028836111af565b915061136b82611304565b604082019050919050565b6000602082019050818103600083015261138f81611353565b9050919050565b7f596f752063616e6e6f7420726566657220796f757273656c6600000000000000600082015250565b60006113cc6019836111af565b91506113d782611396565b602082019050919050565b600060208201905081810360008301526113fb816113bf565b9050919050565b7f4e487b7100000000000000000000000000000000000000000000000000000000600052603260045260246000fd5b60006060820190506114466000830186610fca565b6114536020830185610fca565b6114606040830184610ecb565b949350505050565b600061147382610ec1565b91507fffffffffffffffffffffffffffffffffffffffffffffffffffffffffffffffff82036114a5576114a46110d3565b5b600182019050919050565b60006114bb82610ec1565b91506114c683610ec1565b92508282019050808211156114de576114dd6110d3565b5b92915050565b7f4f776e61626c653a206e6577206f776e657220697320746865207a65726f206160008201527f6464726573730000000000000000000000000000000000000000000000000000602082015250565b60006115406026836111af565b915061154b826114e4565b604082019050919050565b6000602082019050818103600083015261156f81611533565b9050919050565b7f4f776e61626c653a2063616c6c6572206973206e6f7420746865206f776e6572600082015250565b60006115ac6020836111af565b91506115b782611576565b602082019050919050565b600060208201905081810360008301526115db8161159f565b905091905056fea2646970667358221220f602cffefe16c67c79ef00c86c6553f10d22a3da53a843afe7a8cd08d00c429264736f6c63430008110033",
  "immutableReferences": {},
  "source": "// SPDX-License-Identifier: MIT\npragma solidity >=0.4.22 <0.9.0;\n\nimport \"@openzeppelin/contracts/access/Ownable.sol\";\nimport \"@openzeppelin/contracts/token/ERC20/ERC20.sol\";\n\ncontract WhitelistStacks is Ownable {\n  ERC20 public usdcAddress;\n  bool openWithdrawals;\n\n  uint [] public plans = [\n    100 * 10 ** 18,\n    250 * 10 ** 18,\n    500 * 10 ** 18,\n    1000 * 10 ** 18\n  ];\n\n  struct Account {\n    address accountAddress;\n    address referredBy;\n    bool exists;\n  }\n\n  mapping(address => Account) public whitelist;\n  mapping(address => uint) public referralsLength;\n  uint public whitelistLength;\n  uint public maxListLength = 1000;\n\n  event WhitelistAdded(address indexed account);\n  event ReferralFeesPaid(address indexed account);\n\n  constructor(address _usdcAddress) {\n    usdcAddress = ERC20(_usdcAddress);\n  }\n\n  // make payment and add sender address to whitelist with according plan\n  function addToWhitelist(address _referredBy) public {\n    require(whitelistLength < maxListLength, \"Sorry, whitelist is full\");\n    require(!whitelist[msg.sender].exists, \"Address already registered for whitelist\");\n    require(_referredBy != msg.sender, \"You cannot refer yourself\");\n\n    // select currect plan\n    uint plan = currentPlan();\n\n    // filter out referral if not registered\n    address referredBy;\n    if(whitelist[_referredBy].exists) {\n      referredBy = _referredBy;\n    }\n    else {\n      referredBy = address(0);\n    }\n\n    usdcAddress.transferFrom(msg.sender, address(this), plans[plan]);\n    whitelist[msg.sender] = Account(msg.sender, referredBy, true);\n    whitelistLength++;\n    referralsLength[referredBy] = referralsLength[referredBy] + 1;\n    emit WhitelistAdded(msg.sender);\n  }\n\n  function receiveReferral() public {\n    require(openWithdrawals, \"Fund withdrawals are closed\");\n    require(referralsLength[msg.sender] > 0, \"No referrals found\");\n\n    uint amount = amountToPayToReferrer(msg.sender);\n    referralsLength[msg.sender] = 0;\n    usdcAddress.transfer(msg.sender, amount);\n    emit ReferralFeesPaid(msg.sender);\n  }\n\n  function currentPlan() public view returns(uint) {\n    if(whitelistLength < 100) {\n      return 0;\n    } else if(whitelistLength < 250) {\n      return 1;\n    } else if(whitelistLength < 500) {\n      return 2;\n    } else {\n      return 3;\n    }\n  }\n\n  function amountToPayToReferrer(address _user) public view returns(uint) {\n    return referralsLength[_user] * 50 * 10 ** 18;\n  }\n\n  // Admin functions\n  function setOpenWithdrawals(bool _openWithdrawals) public onlyOwner {\n    openWithdrawals = _openWithdrawals;\n  }\n\n  function withdrawFunds(address to, uint amount) public onlyOwner {\n    usdcAddress.transfer(to, amount);\n  }\n\n  function setMaxListLength(uint _maxListLength) public onlyOwner {\n    maxListLength = _maxListLength;\n  }\n}\n\n",
  "sourcePath": "/Users/bruno/dev/crypto/stacks/contracts/WhitelistStacks.sol",
  "compiler": {
    "name": "solc",
    "version": "0.8.17+commit.8df45f5f.Emscripten.clang"
  },
  "schemaVersion": "3.4.10",
  "updatedAt": "2022-11-22T16:57:38.075Z",
  "networkType": "ethereum",
  "devdoc": {
    "kind": "dev",
    "methods": {
      "owner()": {
        "details": "Returns the address of the current owner."
      },
      "renounceOwnership()": {
        "details": "Leaves the contract without owner. It will not be possible to call `onlyOwner` functions anymore. Can only be called by the current owner. NOTE: Renouncing ownership will leave the contract without an owner, thereby removing any functionality that is only available to the owner."
      },
      "transferOwnership(address)": {
        "details": "Transfers ownership of the contract to a new account (`newOwner`). Can only be called by the current owner."
      }
    },
    "version": 1
  },
  "userdoc": {
    "kind": "user",
    "methods": {},
    "version": 1
  }
}