{
  "contractName": "WhitelistStacks",
  "abi": [
    {
      "inputs": [
        {
          "internalType": "address",
          "name": "_usdcAddress",
          "type": "address"
        }
      ],
      "stateMutability": "nonpayable",
      "type": "constructor"
    },
    {
      "anonymous": false,
      "inputs": [
        {
          "indexed": true,
          "internalType": "address",
          "name": "previousOwner",
          "type": "address"
        },
        {
          "indexed": true,
          "internalType": "address",
          "name": "newOwner",
          "type": "address"
        }
      ],
      "name": "OwnershipTransferred",
      "type": "event"
    },
    {
      "anonymous": false,
      "inputs": [
        {
          "indexed": true,
          "internalType": "address",
          "name": "account",
          "type": "address"
        }
      ],
      "name": "ReferralFeesPaid",
      "type": "event"
    },
    {
      "anonymous": false,
      "inputs": [
        {
          "indexed": true,
          "internalType": "address",
          "name": "account",
          "type": "address"
        }
      ],
      "name": "WhitelistAdded",
      "type": "event"
    },
    {
      "inputs": [],
      "name": "owner",
      "outputs": [
        {
          "internalType": "address",
          "name": "",
          "type": "address"
        }
      ],
      "stateMutability": "view",
      "type": "function",
      "constant": true
    },
    {
      "inputs": [
        {
          "internalType": "uint256",
          "name": "",
          "type": "uint256"
        }
      ],
      "name": "plans",
      "outputs": [
        {
          "internalType": "uint256",
          "name": "",
          "type": "uint256"
        }
      ],
      "stateMutability": "view",
      "type": "function",
      "constant": true
    },
    {
      "inputs": [
        {
          "internalType": "address",
          "name": "",
          "type": "address"
        }
      ],
      "name": "referralsLength",
      "outputs": [
        {
          "internalType": "uint256",
          "name": "",
          "type": "uint256"
        }
      ],
      "stateMutability": "view",
      "type": "function",
      "constant": true
    },
    {
      "inputs": [
        {
          "internalType": "address",
          "name": "",
          "type": "address"
        }
      ],
      "name": "registered",
      "outputs": [
        {
          "internalType": "bool",
          "name": "",
          "type": "bool"
        }
      ],
      "stateMutability": "view",
      "type": "function",
      "constant": true
    },
    {
      "inputs": [],
      "name": "renounceOwnership",
      "outputs": [],
      "stateMutability": "nonpayable",
      "type": "function"
    },
    {
      "inputs": [
        {
          "internalType": "address",
          "name": "newOwner",
          "type": "address"
        }
      ],
      "name": "transferOwnership",
      "outputs": [],
      "stateMutability": "nonpayable",
      "type": "function"
    },
    {
      "inputs": [],
      "name": "usdcAddress",
      "outputs": [
        {
          "internalType": "contract ERC20",
          "name": "",
          "type": "address"
        }
      ],
      "stateMutability": "view",
      "type": "function",
      "constant": true
    },
    {
      "inputs": [
        {
          "internalType": "uint256",
          "name": "",
          "type": "uint256"
        }
      ],
      "name": "whitelist",
      "outputs": [
        {
          "internalType": "address",
          "name": "accountAddress",
          "type": "address"
        },
        {
          "internalType": "address",
          "name": "referredBy",
          "type": "address"
        }
      ],
      "stateMutability": "view",
      "type": "function",
      "constant": true
    },
    {
      "inputs": [],
      "name": "whitelistLength",
      "outputs": [
        {
          "internalType": "uint256",
          "name": "",
          "type": "uint256"
        }
      ],
      "stateMutability": "view",
      "type": "function",
      "constant": true
    },
    {
      "inputs": [
        {
          "internalType": "address",
          "name": "_referredBy",
          "type": "address"
        }
      ],
      "name": "addToWhitelist",
      "outputs": [],
      "stateMutability": "nonpayable",
      "type": "function"
    },
    {
      "inputs": [],
      "name": "receiveReferral",
      "outputs": [],
      "stateMutability": "nonpayable",
      "type": "function"
    },
    {
      "inputs": [
        {
          "internalType": "address",
          "name": "_user",
          "type": "address"
        }
      ],
      "name": "amountToPayToReferrer",
      "outputs": [
        {
          "internalType": "uint256",
          "name": "",
          "type": "uint256"
        }
      ],
      "stateMutability": "view",
      "type": "function",
      "constant": true
    },
    {
      "inputs": [
        {
          "internalType": "bool",
          "name": "_openWithdrawals",
          "type": "bool"
        }
      ],
      "name": "setOpenWithdrawals",
      "outputs": [],
      "stateMutability": "nonpayable",
      "type": "function"
    },
    {
      "inputs": [],
      "name": "withdrawFunds",
      "outputs": [],
      "stateMutability": "nonpayable",
      "type": "function"
    }
  ],
  "bytecode": "0x6080604052604051806080016040528068056bc75e2d6310000068ffffffffffffffffff168152602001680d8d726b7177a8000068ffffffffffffffffff168152602001681b1ae4d6e2ef50000068ffffffffffffffffff168152602001683635c9adc5dea0000068ffffffffffffffffff16815250600290600462000087929190620001ef565b503480156200009557600080fd5b5060405162001994380380620019948339818101604052810190620000bb9190620002d7565b620000db620000cf6200012360201b60201c565b6200012b60201b60201c565b80600160006101000a81548173ffffffffffffffffffffffffffffffffffffffff021916908373ffffffffffffffffffffffffffffffffffffffff1602179055505062000309565b600033905090565b60008060009054906101000a900473ffffffffffffffffffffffffffffffffffffffff169050816000806101000a81548173ffffffffffffffffffffffffffffffffffffffff021916908373ffffffffffffffffffffffffffffffffffffffff1602179055508173ffffffffffffffffffffffffffffffffffffffff168173ffffffffffffffffffffffffffffffffffffffff167f8be0079c531659141344cd1fd0a4f28419497f9722a3daafe3b4186f6b6457e060405160405180910390a35050565b8280548282559060005260206000209081019282156200023b579160200282015b828111156200023a578251829068ffffffffffffffffff1690559160200191906001019062000210565b5b5090506200024a91906200024e565b5090565b5b80821115620002695760008160009055506001016200024f565b5090565b600080fd5b600073ffffffffffffffffffffffffffffffffffffffff82169050919050565b60006200029f8262000272565b9050919050565b620002b18162000292565b8114620002bd57600080fd5b50565b600081519050620002d181620002a6565b92915050565b600060208284031215620002f057620002ef6200026d565b5b60006200030084828501620002c0565b91505092915050565b61167b80620003196000396000f3fe608060405234801561001057600080fd5b50600436106100ea5760003560e01c8063a4d86f891161008c578063b2dd5c0711610066578063b2dd5c071461023a578063c47eb8d21461026a578063e43252d714610274578063f2fde38b14610290576100ea565b8063a4d86f89146101aa578063b1620616146101da578063b2587d831461020a576100ea565b806378bb5164116100c857806378bb5164146101215780637ebd1b301461013f5780638c6025c5146101705780638da5cb5b1461018c576100ea565b806302d45457146100ef57806324600fc31461010d578063715018a614610117575b600080fd5b6100f76102ac565b6040516101049190610efa565b60405180910390f35b6101156102d2565b005b61011f610418565b005b61012961042c565b6040516101369190610f2e565b60405180910390f35b61015960048036038101906101549190610f7a565b610432565b604051610167929190610fc8565b60405180910390f35b61018a60048036038101906101859190611029565b6104a6565b005b6101946104cb565b6040516101a19190611056565b60405180910390f35b6101c460048036038101906101bf919061109d565b6104f4565b6040516101d19190610f2e565b60405180910390f35b6101f460048036038101906101ef9190610f7a565b61050c565b6040516102019190610f2e565b60405180910390f35b610224600480360381019061021f919061109d565b610530565b6040516102319190610f2e565b60405180910390f35b610254600480360381019061024f919061109d565b610598565b60405161026191906110d9565b60405180910390f35b6102726105b8565b005b61028e6004803603810190610289919061109d565b6107c2565b005b6102aa60048036038101906102a5919061109d565b610cae565b005b600160009054906101000a900473ffffffffffffffffffffffffffffffffffffffff1681565b6102da610d31565b600160009054906101000a900473ffffffffffffffffffffffffffffffffffffffff1673ffffffffffffffffffffffffffffffffffffffff1663a9059cbb33600160009054906101000a900473ffffffffffffffffffffffffffffffffffffffff1673ffffffffffffffffffffffffffffffffffffffff166370a08231306040518263ffffffff1660e01b81526004016103749190611056565b602060405180830381865afa158015610391573d6000803e3d6000fd5b505050506040513d601f19601f820116820180604052508101906103b59190611109565b6040518363ffffffff1660e01b81526004016103d2929190611136565b6020604051808303816000875af11580156103f1573d6000803e3d6000fd5b505050506040513d601f19601f820116820180604052508101906104159190611174565b50565b610420610d31565b61042a6000610daf565b565b60055481565b6006818154811061044257600080fd5b90600052602060002090600202016000915090508060000160009054906101000a900473ffffffffffffffffffffffffffffffffffffffff16908060010160009054906101000a900473ffffffffffffffffffffffffffffffffffffffff16905082565b6104ae610d31565b80600160146101000a81548160ff02191690831515021790555050565b60008060009054906101000a900473ffffffffffffffffffffffffffffffffffffffff16905090565b60046020528060005260406000206000915090505481565b6002818154811061051c57600080fd5b906000526020600020016000915090505481565b6000670de0b6b3a76400006032600460008573ffffffffffffffffffffffffffffffffffffffff1673ffffffffffffffffffffffffffffffffffffffff1681526020019081526020016000205461058791906111d0565b61059191906111d0565b9050919050565b60036020528060005260406000206000915054906101000a900460ff1681565b600160149054906101000a900460ff16610607576040517f08c379a00000000000000000000000000000000000000000000000000000000081526004016105fe9061126f565b60405180910390fd5b6000600460003373ffffffffffffffffffffffffffffffffffffffff1673ffffffffffffffffffffffffffffffffffffffff1681526020019081526020016000205411610689576040517f08c379a0000000000000000000000000000000000000000000000000000000008152600401610680906112db565b60405180910390fd5b600061069433610530565b90506000600460003373ffffffffffffffffffffffffffffffffffffffff1673ffffffffffffffffffffffffffffffffffffffff16815260200190815260200160002081905550600160009054906101000a900473ffffffffffffffffffffffffffffffffffffffff1673ffffffffffffffffffffffffffffffffffffffff1663a9059cbb33836040518363ffffffff1660e01b8152600401610738929190611136565b6020604051808303816000875af1158015610757573d6000803e3d6000fd5b505050506040513d601f19601f8201168201806040525081019061077b9190611174565b503373ffffffffffffffffffffffffffffffffffffffff167fd03a333578b3bec046a21391622c18e0b54a2006f8720f38a8dc70f8e28c0d0e60405160405180910390a250565b6103e860055410610808576040517f08c379a00000000000000000000000000000000000000000000000000000000081526004016107ff90611347565b60405180910390fd5b600360003373ffffffffffffffffffffffffffffffffffffffff1673ffffffffffffffffffffffffffffffffffffffff16815260200190815260200160002060009054906101000a900460ff1615610895576040517f08c379a000000000000000000000000000000000000000000000000000000000815260040161088c906113d9565b60405180910390fd5b3373ffffffffffffffffffffffffffffffffffffffff168173ffffffffffffffffffffffffffffffffffffffff1603610903576040517f08c379a00000000000000000000000000000000000000000000000000000000081526004016108fa90611445565b60405180910390fd5b6000606460055410156109195760009050610949565b60fa600554101561092d5760019050610948565b6101f460055410156109425760029050610947565b600390505b5b5b6000600360008473ffffffffffffffffffffffffffffffffffffffff1673ffffffffffffffffffffffffffffffffffffffff16815260200190815260200160002060009054906101000a900460ff16156109a5578290506109aa565b600090505b600160009054906101000a900473ffffffffffffffffffffffffffffffffffffffff1673ffffffffffffffffffffffffffffffffffffffff166323b872dd3330600286815481106109fe576109fd611465565b5b90600052602060002001546040518463ffffffff1660e01b8152600401610a2793929190611494565b6020604051808303816000875af1158015610a46573d6000803e3d6000fd5b505050506040513d601f19601f82011682018060405250810190610a6a9190611174565b50600660405180604001604052803373ffffffffffffffffffffffffffffffffffffffff1681526020018373ffffffffffffffffffffffffffffffffffffffff16815250908060018154018082558091505060019003906000526020600020906002020160009091909190915060008201518160000160006101000a81548173ffffffffffffffffffffffffffffffffffffffff021916908373ffffffffffffffffffffffffffffffffffffffff16021790555060208201518160010160006101000a81548173ffffffffffffffffffffffffffffffffffffffff021916908373ffffffffffffffffffffffffffffffffffffffff160217905550505060056000815480929190610b7a906114cb565b91905055506001600360003373ffffffffffffffffffffffffffffffffffffffff1673ffffffffffffffffffffffffffffffffffffffff16815260200190815260200160002060006101000a81548160ff0219169083151502179055506001600460008373ffffffffffffffffffffffffffffffffffffffff1673ffffffffffffffffffffffffffffffffffffffff16815260200190815260200160002054610c239190611513565b600460008373ffffffffffffffffffffffffffffffffffffffff1673ffffffffffffffffffffffffffffffffffffffff168152602001908152602001600020819055503373ffffffffffffffffffffffffffffffffffffffff167f4790a4adb426ca2345bb5108f6e454eae852a7bf687544cd66a7270dff3a41d660405160405180910390a2505050565b610cb6610d31565b600073ffffffffffffffffffffffffffffffffffffffff168173ffffffffffffffffffffffffffffffffffffffff1603610d25576040517f08c379a0000000000000000000000000000000000000000000000000000000008152600401610d1c906115b9565b60405180910390fd5b610d2e81610daf565b50565b610d39610e73565b73ffffffffffffffffffffffffffffffffffffffff16610d576104cb565b73ffffffffffffffffffffffffffffffffffffffff1614610dad576040517f08c379a0000000000000000000000000000000000000000000000000000000008152600401610da490611625565b60405180910390fd5b565b60008060009054906101000a900473ffffffffffffffffffffffffffffffffffffffff169050816000806101000a81548173ffffffffffffffffffffffffffffffffffffffff021916908373ffffffffffffffffffffffffffffffffffffffff1602179055508173ffffffffffffffffffffffffffffffffffffffff168173ffffffffffffffffffffffffffffffffffffffff167f8be0079c531659141344cd1fd0a4f28419497f9722a3daafe3b4186f6b6457e060405160405180910390a35050565b600033905090565b600073ffffffffffffffffffffffffffffffffffffffff82169050919050565b6000819050919050565b6000610ec0610ebb610eb684610e7b565b610e9b565b610e7b565b9050919050565b6000610ed282610ea5565b9050919050565b6000610ee482610ec7565b9050919050565b610ef481610ed9565b82525050565b6000602082019050610f0f6000830184610eeb565b92915050565b6000819050919050565b610f2881610f15565b82525050565b6000602082019050610f436000830184610f1f565b92915050565b600080fd5b610f5781610f15565b8114610f6257600080fd5b50565b600081359050610f7481610f4e565b92915050565b600060208284031215610f9057610f8f610f49565b5b6000610f9e84828501610f65565b91505092915050565b6000610fb282610e7b565b9050919050565b610fc281610fa7565b82525050565b6000604082019050610fdd6000830185610fb9565b610fea6020830184610fb9565b9392505050565b60008115159050919050565b61100681610ff1565b811461101157600080fd5b50565b60008135905061102381610ffd565b92915050565b60006020828403121561103f5761103e610f49565b5b600061104d84828501611014565b91505092915050565b600060208201905061106b6000830184610fb9565b92915050565b61107a81610fa7565b811461108557600080fd5b50565b60008135905061109781611071565b92915050565b6000602082840312156110b3576110b2610f49565b5b60006110c184828501611088565b91505092915050565b6110d381610ff1565b82525050565b60006020820190506110ee60008301846110ca565b92915050565b60008151905061110381610f4e565b92915050565b60006020828403121561111f5761111e610f49565b5b600061112d848285016110f4565b91505092915050565b600060408201905061114b6000830185610fb9565b6111586020830184610f1f565b9392505050565b60008151905061116e81610ffd565b92915050565b60006020828403121561118a57611189610f49565b5b60006111988482850161115f565b91505092915050565b7f4e487b7100000000000000000000000000000000000000000000000000000000600052601160045260246000fd5b60006111db82610f15565b91506111e683610f15565b92508282026111f481610f15565b9150828204841483151761120b5761120a6111a1565b5b5092915050565b600082825260208201905092915050565b7f46756e64207769746864726177616c732061726520636c6f7365640000000000600082015250565b6000611259601b83611212565b915061126482611223565b602082019050919050565b600060208201905081810360008301526112888161124c565b9050919050565b7f4e6f20726566657272616c7320666f756e640000000000000000000000000000600082015250565b60006112c5601283611212565b91506112d08261128f565b602082019050919050565b600060208201905081810360008301526112f4816112b8565b9050919050565b7f536f7272792c2077686974656c6973742069732066756c6c0000000000000000600082015250565b6000611331601883611212565b915061133c826112fb565b602082019050919050565b6000602082019050818103600083015261136081611324565b9050919050565b7f4164647265737320616c7265616479207265676973746572656420666f72207760008201527f686974656c697374000000000000000000000000000000000000000000000000602082015250565b60006113c3602883611212565b91506113ce82611367565b604082019050919050565b600060208201905081810360008301526113f2816113b6565b9050919050565b7f596f752063616e6e6f7420726566657220796f757273656c6600000000000000600082015250565b600061142f601983611212565b915061143a826113f9565b602082019050919050565b6000602082019050818103600083015261145e81611422565b9050919050565b7f4e487b7100000000000000000000000000000000000000000000000000000000600052603260045260246000fd5b60006060820190506114a96000830186610fb9565b6114b66020830185610fb9565b6114c36040830184610f1f565b949350505050565b60006114d682610f15565b91507fffffffffffffffffffffffffffffffffffffffffffffffffffffffffffffffff8203611508576115076111a1565b5b600182019050919050565b600061151e82610f15565b915061152983610f15565b9250828201905080821115611541576115406111a1565b5b92915050565b7f4f776e61626c653a206e6577206f776e657220697320746865207a65726f206160008201527f6464726573730000000000000000000000000000000000000000000000000000602082015250565b60006115a3602683611212565b91506115ae82611547565b604082019050919050565b600060208201905081810360008301526115d281611596565b9050919050565b7f4f776e61626c653a2063616c6c6572206973206e6f7420746865206f776e6572600082015250565b600061160f602083611212565b915061161a826115d9565b602082019050919050565b6000602082019050818103600083015261163e81611602565b905091905056fea26469706673582212202bb4480d77a6da14aed088f156cddf12230a93bbf6bec8df2b50cc3b3c172a3864736f6c63430008110033",
  "immutableReferences": {},
  "source": "// SPDX-License-Identifier: MIT\npragma solidity >=0.4.22 <0.9.0;\n\nimport \"@openzeppelin/contracts/access/Ownable.sol\";\nimport \"@openzeppelin/contracts/token/ERC20/ERC20.sol\";\n\ncontract WhitelistStacks is Ownable {\n  ERC20 public usdcAddress;\n  bool openWithdrawals;\n\n  uint [] public plans = [\n    100 * 10 ** 18,\n    250 * 10 ** 18,\n    500 * 10 ** 18,\n    1000 * 10 ** 18\n  ];\n\n  struct Account {\n    address accountAddress;\n    address referredBy;\n  }\n\n  mapping(address => bool) public registered;\n  mapping(address => uint) public referralsLength;\n  uint public whitelistLength;\n  Account [] public whitelist;\n\n  event WhitelistAdded(address indexed account);\n  event ReferralFeesPaid(address indexed account);\n\n  constructor(address _usdcAddress) {\n    usdcAddress = ERC20(_usdcAddress);\n  }\n\n  // make payment and add sender address to whitelist with according plan\n  function addToWhitelist(address _referredBy) public {\n    require(whitelistLength < 1000, \"Sorry, whitelist is full\");\n    require(!registered[msg.sender], \"Address already registered for whitelist\");\n    require(_referredBy != msg.sender, \"You cannot refer yourself\");\n\n    // select correct plan\n    uint plan;\n    if(whitelistLength < 100) {\n      plan = 0;\n    } else if(whitelistLength < 250) {\n      plan = 1;\n    } else if(whitelistLength < 500) {\n      plan = 2;\n    } else {\n      plan = 3;\n    }\n\n    // filter out referral if not registered\n    address referredBy;\n    if(registered[_referredBy]) {\n      referredBy = _referredBy;\n    }\n    else {\n      referredBy = address(0);\n    }\n\n    usdcAddress.transferFrom(msg.sender, address(this), plans[plan]);\n    whitelist.push(Account(msg.sender, referredBy));\n    whitelistLength++;\n    registered[msg.sender] = true;\n    referralsLength[referredBy] = referralsLength[referredBy] + 1;\n    emit WhitelistAdded(msg.sender);\n  }\n\n  function receiveReferral() public {\n    require(openWithdrawals, \"Fund withdrawals are closed\");\n    require(referralsLength[msg.sender] > 0, \"No referrals found\");\n\n    uint amount = amountToPayToReferrer(msg.sender);\n    referralsLength[msg.sender] = 0;\n    usdcAddress.transfer(msg.sender, amount);\n    emit ReferralFeesPaid(msg.sender);\n  }\n\n  function amountToPayToReferrer(address _user) public view returns(uint) {\n    return referralsLength[_user] * 50 * 10 ** 18;\n  }\n\n  // Admin functions\n  function setOpenWithdrawals(bool _openWithdrawals) public onlyOwner {\n    openWithdrawals = _openWithdrawals;\n  }\n\n  function withdrawFunds() public onlyOwner {\n    usdcAddress.transfer(msg.sender, usdcAddress.balanceOf(address(this)));\n  }\n}\n\n",
  "sourcePath": "/Users/bruno/dev/crypto/stacks/contracts/WhitelistStacks.sol",
  "compiler": {
    "name": "solc",
    "version": "0.8.17+commit.8df45f5f.Emscripten.clang"
  },
  "schemaVersion": "3.4.10",
  "updatedAt": "2022-11-17T16:50:47.052Z",
  "networkType": "ethereum",
  "devdoc": {
    "kind": "dev",
    "methods": {
      "owner()": {
        "details": "Returns the address of the current owner."
      },
      "renounceOwnership()": {
        "details": "Leaves the contract without owner. It will not be possible to call `onlyOwner` functions anymore. Can only be called by the current owner. NOTE: Renouncing ownership will leave the contract without an owner, thereby removing any functionality that is only available to the owner."
      },
      "transferOwnership(address)": {
        "details": "Transfers ownership of the contract to a new account (`newOwner`). Can only be called by the current owner."
      }
    },
    "version": 1
  },
  "userdoc": {
    "kind": "user",
    "methods": {},
    "version": 1
  }
}