{
  "contractName": "WhitelistStacks",
  "abi": [
    {
      "inputs": [
        {
          "internalType": "address",
          "name": "_usdcAddress",
          "type": "address"
        }
      ],
      "stateMutability": "nonpayable",
      "type": "constructor"
    },
    {
      "anonymous": false,
      "inputs": [
        {
          "indexed": true,
          "internalType": "address",
          "name": "previousOwner",
          "type": "address"
        },
        {
          "indexed": true,
          "internalType": "address",
          "name": "newOwner",
          "type": "address"
        }
      ],
      "name": "OwnershipTransferred",
      "type": "event"
    },
    {
      "anonymous": false,
      "inputs": [
        {
          "indexed": true,
          "internalType": "address",
          "name": "account",
          "type": "address"
        }
      ],
      "name": "ReferralFeesPaid",
      "type": "event"
    },
    {
      "anonymous": false,
      "inputs": [
        {
          "indexed": true,
          "internalType": "address",
          "name": "account",
          "type": "address"
        }
      ],
      "name": "WhitelistAdded",
      "type": "event"
    },
    {
      "inputs": [],
      "name": "DECIMALS",
      "outputs": [
        {
          "internalType": "uint256",
          "name": "",
          "type": "uint256"
        }
      ],
      "stateMutability": "view",
      "type": "function",
      "constant": true
    },
    {
      "inputs": [],
      "name": "maxListLength",
      "outputs": [
        {
          "internalType": "uint256",
          "name": "",
          "type": "uint256"
        }
      ],
      "stateMutability": "view",
      "type": "function",
      "constant": true
    },
    {
      "inputs": [],
      "name": "owner",
      "outputs": [
        {
          "internalType": "address",
          "name": "",
          "type": "address"
        }
      ],
      "stateMutability": "view",
      "type": "function",
      "constant": true
    },
    {
      "inputs": [
        {
          "internalType": "uint256",
          "name": "",
          "type": "uint256"
        }
      ],
      "name": "plans",
      "outputs": [
        {
          "internalType": "uint256",
          "name": "",
          "type": "uint256"
        }
      ],
      "stateMutability": "view",
      "type": "function",
      "constant": true
    },
    {
      "inputs": [
        {
          "internalType": "address",
          "name": "",
          "type": "address"
        }
      ],
      "name": "referralsLength",
      "outputs": [
        {
          "internalType": "uint256",
          "name": "",
          "type": "uint256"
        }
      ],
      "stateMutability": "view",
      "type": "function",
      "constant": true
    },
    {
      "inputs": [],
      "name": "renounceOwnership",
      "outputs": [],
      "stateMutability": "nonpayable",
      "type": "function"
    },
    {
      "inputs": [
        {
          "internalType": "address",
          "name": "newOwner",
          "type": "address"
        }
      ],
      "name": "transferOwnership",
      "outputs": [],
      "stateMutability": "nonpayable",
      "type": "function"
    },
    {
      "inputs": [],
      "name": "usdcAddress",
      "outputs": [
        {
          "internalType": "contract ERC20",
          "name": "",
          "type": "address"
        }
      ],
      "stateMutability": "view",
      "type": "function",
      "constant": true
    },
    {
      "inputs": [
        {
          "internalType": "address",
          "name": "",
          "type": "address"
        }
      ],
      "name": "whitelist",
      "outputs": [
        {
          "internalType": "address",
          "name": "accountAddress",
          "type": "address"
        },
        {
          "internalType": "address",
          "name": "referredBy",
          "type": "address"
        },
        {
          "internalType": "uint256",
          "name": "amountPaid",
          "type": "uint256"
        },
        {
          "internalType": "bool",
          "name": "exists",
          "type": "bool"
        }
      ],
      "stateMutability": "view",
      "type": "function",
      "constant": true
    },
    {
      "inputs": [
        {
          "internalType": "uint256",
          "name": "",
          "type": "uint256"
        }
      ],
      "name": "whitelistArr",
      "outputs": [
        {
          "internalType": "address",
          "name": "",
          "type": "address"
        }
      ],
      "stateMutability": "view",
      "type": "function",
      "constant": true
    },
    {
      "inputs": [],
      "name": "whitelistLength",
      "outputs": [
        {
          "internalType": "uint256",
          "name": "",
          "type": "uint256"
        }
      ],
      "stateMutability": "view",
      "type": "function",
      "constant": true
    },
    {
      "inputs": [
        {
          "internalType": "address",
          "name": "_referredBy",
          "type": "address"
        }
      ],
      "name": "addToWhitelist",
      "outputs": [],
      "stateMutability": "nonpayable",
      "type": "function"
    },
    {
      "inputs": [],
      "name": "receiveReferral",
      "outputs": [],
      "stateMutability": "nonpayable",
      "type": "function"
    },
    {
      "inputs": [],
      "name": "currentPlan",
      "outputs": [
        {
          "internalType": "uint256",
          "name": "",
          "type": "uint256"
        }
      ],
      "stateMutability": "view",
      "type": "function",
      "constant": true
    },
    {
      "inputs": [
        {
          "internalType": "address",
          "name": "_user",
          "type": "address"
        }
      ],
      "name": "amountToPayToReferrer",
      "outputs": [
        {
          "internalType": "uint256",
          "name": "",
          "type": "uint256"
        }
      ],
      "stateMutability": "view",
      "type": "function",
      "constant": true
    },
    {
      "inputs": [
        {
          "internalType": "bool",
          "name": "_openWithdrawals",
          "type": "bool"
        }
      ],
      "name": "setOpenWithdrawals",
      "outputs": [],
      "stateMutability": "nonpayable",
      "type": "function"
    },
    {
      "inputs": [
        {
          "internalType": "address",
          "name": "to",
          "type": "address"
        },
        {
          "internalType": "uint256",
          "name": "amount",
          "type": "uint256"
        }
      ],
      "name": "withdrawFunds",
      "outputs": [],
      "stateMutability": "nonpayable",
      "type": "function"
    },
    {
      "inputs": [
        {
          "internalType": "uint256",
          "name": "_maxListLength",
          "type": "uint256"
        }
      ],
      "name": "setMaxListLength",
      "outputs": [],
      "stateMutability": "nonpayable",
      "type": "function"
    },
    {
      "inputs": [
        {
          "internalType": "address",
          "name": "_user",
          "type": "address"
        }
      ],
      "name": "addToWhitelistAdmin",
      "outputs": [],
      "stateMutability": "nonpayable",
      "type": "function"
    }
  ],
  "bytecode": "0x6080604052620f42406002556040518060800160405280600254606462000027919062000298565b815260200160025460fa6200003d919062000298565b81526020016002546101f462000054919062000298565b81526020016002546103e86200006b919062000298565b815250600390600462000080929190620001ee565b506103e86008553480156200009457600080fd5b5060405162001bce38038062001bce8339818101604052810190620000ba91906200034d565b620000da620000ce6200012260201b60201c565b6200012a60201b60201c565b80600160006101000a81548173ffffffffffffffffffffffffffffffffffffffff021916908373ffffffffffffffffffffffffffffffffffffffff160217905550506200037f565b600033905090565b60008060009054906101000a900473ffffffffffffffffffffffffffffffffffffffff169050816000806101000a81548173ffffffffffffffffffffffffffffffffffffffff021916908373ffffffffffffffffffffffffffffffffffffffff1602179055508173ffffffffffffffffffffffffffffffffffffffff168173ffffffffffffffffffffffffffffffffffffffff167f8be0079c531659141344cd1fd0a4f28419497f9722a3daafe3b4186f6b6457e060405160405180910390a35050565b8280548282559060005260206000209081019282156200022d579160200282015b828111156200022c5782518255916020019190600101906200020f565b5b5090506200023c919062000240565b5090565b5b808211156200025b57600081600090555060010162000241565b5090565b6000819050919050565b7f4e487b7100000000000000000000000000000000000000000000000000000000600052601160045260246000fd5b6000620002a5826200025f565b9150620002b2836200025f565b9250828202620002c2816200025f565b91508282048414831517620002dc57620002db62000269565b5b5092915050565b600080fd5b600073ffffffffffffffffffffffffffffffffffffffff82169050919050565b60006200031582620002e8565b9050919050565b620003278162000308565b81146200033357600080fd5b50565b60008151905062000347816200031c565b92915050565b600060208284031215620003665762000365620002e3565b5b6000620003768482850162000336565b91505092915050565b61183f806200038f6000396000f3fe608060405234801561001057600080fd5b50600436106101215760003560e01c80639b19251a116100ad578063be38341d11610071578063be38341d146102fb578063c10753291461032b578063c47eb8d214610347578063e43252d714610351578063f2fde38b1461036d57610121565b80639b19251a1461021a5780639d3869661461024d578063a4d86f891461026b578063b16206161461029b578063b2587d83146102cb57610121565b806344729691116100f4578063447296911461019c578063715018a6146101b857806378bb5164146101c25780638c6025c5146101e05780638da5cb5b146101fc57610121565b806302d45457146101265780630574070c146101445780631e27f9f6146101625780632e0f26251461017e575b600080fd5b61012e610389565b60405161013b91906110bf565b60405180910390f35b61014c6103af565b60405161015991906110f3565b60405180910390f35b61017c6004803603810190610177919061113f565b6103f6565b005b610186610408565b60405161019391906110f3565b60405180910390f35b6101b660048036038101906101b191906111aa565b61040e565b005b6101c06104b5565b005b6101ca6104c9565b6040516101d791906110f3565b60405180910390f35b6101fa60048036038101906101f5919061120f565b6104cf565b005b6102046104f4565b604051610211919061124b565b60405180910390f35b610234600480360381019061022f91906111aa565b61051d565b6040516102449493929190611275565b60405180910390f35b61025561059a565b60405161026291906110f3565b60405180910390f35b610285600480360381019061028091906111aa565b6105a0565b60405161029291906110f3565b60405180910390f35b6102b560048036038101906102b0919061113f565b6105b8565b6040516102c291906110f3565b60405180910390f35b6102e560048036038101906102e091906111aa565b6105dc565b6040516102f291906110f3565b60405180910390f35b6103156004803603810190610310919061113f565b61063e565b604051610322919061124b565b60405180910390f35b610345600480360381019061034091906112ba565b61067d565b005b61034f61072a565b005b61036b600480360381019061036691906111aa565b610934565b005b610387600480360381019061038291906111aa565b610bd7565b005b600160009054906101000a900473ffffffffffffffffffffffffffffffffffffffff1681565b6000606460075410156103c557600090506103f3565b60fa60075410156103d957600190506103f3565b6101f460075410156103ee57600290506103f3565b600390505b90565b6103fe610c5a565b8060088190555050565b60025481565b610416610c5a565b600460008273ffffffffffffffffffffffffffffffffffffffff1673ffffffffffffffffffffffffffffffffffffffff16815260200190815260200160002060030160009054906101000a900460ff16156104a6576040517f08c379a000000000000000000000000000000000000000000000000000000000815260040161049d9061137d565b60405180910390fd5b6104b281600080610cd8565b50565b6104bd610c5a565b6104c76000610f74565b565b60075481565b6104d7610c5a565b80600160146101000a81548160ff02191690831515021790555050565b60008060009054906101000a900473ffffffffffffffffffffffffffffffffffffffff16905090565b60046020528060005260406000206000915090508060000160009054906101000a900473ffffffffffffffffffffffffffffffffffffffff16908060010160009054906101000a900473ffffffffffffffffffffffffffffffffffffffff16908060020154908060030160009054906101000a900460ff16905084565b60085481565b60066020528060005260406000206000915090505481565b600381815481106105c857600080fd5b906000526020600020016000915090505481565b60006002546032600660008573ffffffffffffffffffffffffffffffffffffffff1673ffffffffffffffffffffffffffffffffffffffff1681526020019081526020016000205461062d91906113cc565b61063791906113cc565b9050919050565b6005818154811061064e57600080fd5b906000526020600020016000915054906101000a900473ffffffffffffffffffffffffffffffffffffffff1681565b610685610c5a565b600160009054906101000a900473ffffffffffffffffffffffffffffffffffffffff1673ffffffffffffffffffffffffffffffffffffffff1663a9059cbb83836040518363ffffffff1660e01b81526004016106e292919061140e565b6020604051808303816000875af1158015610701573d6000803e3d6000fd5b505050506040513d601f19601f82011682018060405250810190610725919061144c565b505050565b600160149054906101000a900460ff16610779576040517f08c379a0000000000000000000000000000000000000000000000000000000008152600401610770906114c5565b60405180910390fd5b6000600660003373ffffffffffffffffffffffffffffffffffffffff1673ffffffffffffffffffffffffffffffffffffffff16815260200190815260200160002054116107fb576040517f08c379a00000000000000000000000000000000000000000000000000000000081526004016107f290611531565b60405180910390fd5b6000610806336105dc565b90506000600660003373ffffffffffffffffffffffffffffffffffffffff1673ffffffffffffffffffffffffffffffffffffffff16815260200190815260200160002081905550600160009054906101000a900473ffffffffffffffffffffffffffffffffffffffff1673ffffffffffffffffffffffffffffffffffffffff1663a9059cbb33836040518363ffffffff1660e01b81526004016108aa92919061140e565b6020604051808303816000875af11580156108c9573d6000803e3d6000fd5b505050506040513d601f19601f820116820180604052508101906108ed919061144c565b503373ffffffffffffffffffffffffffffffffffffffff167fd03a333578b3bec046a21391622c18e0b54a2006f8720f38a8dc70f8e28c0d0e60405160405180910390a250565b6008546007541061097a576040517f08c379a00000000000000000000000000000000000000000000000000000000081526004016109719061159d565b60405180910390fd5b600460003373ffffffffffffffffffffffffffffffffffffffff1673ffffffffffffffffffffffffffffffffffffffff16815260200190815260200160002060030160009054906101000a900460ff1615610a0a576040517f08c379a0000000000000000000000000000000000000000000000000000000008152600401610a019061137d565b60405180910390fd5b3373ffffffffffffffffffffffffffffffffffffffff168173ffffffffffffffffffffffffffffffffffffffff1603610a78576040517f08c379a0000000000000000000000000000000000000000000000000000000008152600401610a6f90611609565b60405180910390fd5b6000600460008373ffffffffffffffffffffffffffffffffffffffff1673ffffffffffffffffffffffffffffffffffffffff16815260200190815260200160002060030160009054906101000a900460ff1615610ad757819050610adc565b600090505b6000610ae66103af565b9050600160009054906101000a900473ffffffffffffffffffffffffffffffffffffffff1673ffffffffffffffffffffffffffffffffffffffff166323b872dd333060038581548110610b3c57610b3b611629565b5b90600052602060002001546040518463ffffffff1660e01b8152600401610b6593929190611658565b6020604051808303816000875af1158015610b84573d6000803e3d6000fd5b505050506040513d601f19601f82011682018060405250810190610ba8919061144c565b50610bd2338360038481548110610bc257610bc1611629565b5b9060005260206000200154610cd8565b505050565b610bdf610c5a565b600073ffffffffffffffffffffffffffffffffffffffff168173ffffffffffffffffffffffffffffffffffffffff1603610c4e576040517f08c379a0000000000000000000000000000000000000000000000000000000008152600401610c4590611701565b60405180910390fd5b610c5781610f74565b50565b610c62611038565b73ffffffffffffffffffffffffffffffffffffffff16610c806104f4565b73ffffffffffffffffffffffffffffffffffffffff1614610cd6576040517f08c379a0000000000000000000000000000000000000000000000000000000008152600401610ccd9061176d565b60405180910390fd5b565b60405180608001604052808473ffffffffffffffffffffffffffffffffffffffff1681526020018373ffffffffffffffffffffffffffffffffffffffff16815260200182815260200160011515815250600460008573ffffffffffffffffffffffffffffffffffffffff1673ffffffffffffffffffffffffffffffffffffffff16815260200190815260200160002060008201518160000160006101000a81548173ffffffffffffffffffffffffffffffffffffffff021916908373ffffffffffffffffffffffffffffffffffffffff16021790555060208201518160010160006101000a81548173ffffffffffffffffffffffffffffffffffffffff021916908373ffffffffffffffffffffffffffffffffffffffff1602179055506040820151816002015560608201518160030160006101000a81548160ff0219169083151502179055509050506005839080600181540180825580915050600190039060005260206000200160009091909190916101000a81548173ffffffffffffffffffffffffffffffffffffffff021916908373ffffffffffffffffffffffffffffffffffffffff16021790555060076000815480929190610e989061178d565b91905055506001600660008473ffffffffffffffffffffffffffffffffffffffff1673ffffffffffffffffffffffffffffffffffffffff16815260200190815260200160002054610ee991906117d5565b600660008473ffffffffffffffffffffffffffffffffffffffff1673ffffffffffffffffffffffffffffffffffffffff168152602001908152602001600020819055508273ffffffffffffffffffffffffffffffffffffffff167f4790a4adb426ca2345bb5108f6e454eae852a7bf687544cd66a7270dff3a41d660405160405180910390a2505050565b60008060009054906101000a900473ffffffffffffffffffffffffffffffffffffffff169050816000806101000a81548173ffffffffffffffffffffffffffffffffffffffff021916908373ffffffffffffffffffffffffffffffffffffffff1602179055508173ffffffffffffffffffffffffffffffffffffffff168173ffffffffffffffffffffffffffffffffffffffff167f8be0079c531659141344cd1fd0a4f28419497f9722a3daafe3b4186f6b6457e060405160405180910390a35050565b600033905090565b600073ffffffffffffffffffffffffffffffffffffffff82169050919050565b6000819050919050565b600061108561108061107b84611040565b611060565b611040565b9050919050565b60006110978261106a565b9050919050565b60006110a98261108c565b9050919050565b6110b98161109e565b82525050565b60006020820190506110d460008301846110b0565b92915050565b6000819050919050565b6110ed816110da565b82525050565b600060208201905061110860008301846110e4565b92915050565b600080fd5b61111c816110da565b811461112757600080fd5b50565b60008135905061113981611113565b92915050565b6000602082840312156111555761115461110e565b5b60006111638482850161112a565b91505092915050565b600061117782611040565b9050919050565b6111878161116c565b811461119257600080fd5b50565b6000813590506111a48161117e565b92915050565b6000602082840312156111c0576111bf61110e565b5b60006111ce84828501611195565b91505092915050565b60008115159050919050565b6111ec816111d7565b81146111f757600080fd5b50565b600081359050611209816111e3565b92915050565b6000602082840312156112255761122461110e565b5b6000611233848285016111fa565b91505092915050565b6112458161116c565b82525050565b6000602082019050611260600083018461123c565b92915050565b61126f816111d7565b82525050565b600060808201905061128a600083018761123c565b611297602083018661123c565b6112a460408301856110e4565b6112b16060830184611266565b95945050505050565b600080604083850312156112d1576112d061110e565b5b60006112df85828601611195565b92505060206112f08582860161112a565b9150509250929050565b600082825260208201905092915050565b7f4164647265737320616c7265616479207265676973746572656420666f72207760008201527f686974656c697374000000000000000000000000000000000000000000000000602082015250565b60006113676028836112fa565b91506113728261130b565b604082019050919050565b600060208201905081810360008301526113968161135a565b9050919050565b7f4e487b7100000000000000000000000000000000000000000000000000000000600052601160045260246000fd5b60006113d7826110da565b91506113e2836110da565b92508282026113f0816110da565b915082820484148315176114075761140661139d565b5b5092915050565b6000604082019050611423600083018561123c565b61143060208301846110e4565b9392505050565b600081519050611446816111e3565b92915050565b6000602082840312156114625761146161110e565b5b600061147084828501611437565b91505092915050565b7f46756e64207769746864726177616c732061726520636c6f7365640000000000600082015250565b60006114af601b836112fa565b91506114ba82611479565b602082019050919050565b600060208201905081810360008301526114de816114a2565b9050919050565b7f4e6f20726566657272616c7320666f756e640000000000000000000000000000600082015250565b600061151b6012836112fa565b9150611526826114e5565b602082019050919050565b6000602082019050818103600083015261154a8161150e565b9050919050565b7f536f7272792c2077686974656c6973742069732066756c6c0000000000000000600082015250565b60006115876018836112fa565b915061159282611551565b602082019050919050565b600060208201905081810360008301526115b68161157a565b9050919050565b7f596f752063616e6e6f7420726566657220796f757273656c6600000000000000600082015250565b60006115f36019836112fa565b91506115fe826115bd565b602082019050919050565b60006020820190508181036000830152611622816115e6565b9050919050565b7f4e487b7100000000000000000000000000000000000000000000000000000000600052603260045260246000fd5b600060608201905061166d600083018661123c565b61167a602083018561123c565b61168760408301846110e4565b949350505050565b7f4f776e61626c653a206e6577206f776e657220697320746865207a65726f206160008201527f6464726573730000000000000000000000000000000000000000000000000000602082015250565b60006116eb6026836112fa565b91506116f68261168f565b604082019050919050565b6000602082019050818103600083015261171a816116de565b9050919050565b7f4f776e61626c653a2063616c6c6572206973206e6f7420746865206f776e6572600082015250565b60006117576020836112fa565b915061176282611721565b602082019050919050565b600060208201905081810360008301526117868161174a565b9050919050565b6000611798826110da565b91507fffffffffffffffffffffffffffffffffffffffffffffffffffffffffffffffff82036117ca576117c961139d565b5b600182019050919050565b60006117e0826110da565b91506117eb836110da565b92508282019050808211156118035761180261139d565b5b9291505056fea2646970667358221220886493353fdd01fc0cb1bc688db60044de5c4ae071483a349dbcdd18ec5f977a64736f6c63430008110033",
  "immutableReferences": {},
  "source": "// SPDX-License-Identifier: MIT\npragma solidity >=0.4.22 <0.9.0;\n\nimport \"@openzeppelin/contracts/access/Ownable.sol\";\nimport \"@openzeppelin/contracts/token/ERC20/ERC20.sol\";\n\ncontract WhitelistStacks is Ownable {\n  ERC20 public usdcAddress;\n  bool openWithdrawals;\n\n  uint public DECIMALS = 10**6;\n\n  uint [] public plans = [\n    100 * DECIMALS,\n    250 * DECIMALS,\n    500 * DECIMALS,\n    1000 * DECIMALS\n  ];\n\n  struct Account {\n    address accountAddress;\n    address referredBy;\n    uint amountPaid;\n    bool exists;\n  }\n\n  mapping(address => Account) public whitelist;\n  address [] public whitelistArr; // for key identification\n  mapping(address => uint) public referralsLength;\n  uint public whitelistLength;\n  uint public maxListLength = 1000;\n\n  event WhitelistAdded(address indexed account);\n  event ReferralFeesPaid(address indexed account);\n\n  constructor(address _usdcAddress) {\n    usdcAddress = ERC20(_usdcAddress);\n  }\n\n  // make payment and add sender address to whitelist with according plan\n  function addToWhitelist(address _referredBy) public {\n    require(whitelistLength < maxListLength, \"Sorry, whitelist is full\");\n    require(!whitelist[msg.sender].exists, \"Address already registered for whitelist\");\n    require(_referredBy != msg.sender, \"You cannot refer yourself\");\n\n    // filter out referral if not registered\n    address referredBy;\n    if(whitelist[_referredBy].exists) {\n      referredBy = _referredBy;\n    }\n    else {\n      referredBy = address(0);\n    }\n\n    uint plan = currentPlan();\n    usdcAddress.transferFrom(msg.sender, address(this), plans[plan]);\n    addUserToList(msg.sender, referredBy, plans[plan]);\n  }\n\n  function receiveReferral() public {\n    require(openWithdrawals, \"Fund withdrawals are closed\");\n    require(referralsLength[msg.sender] > 0, \"No referrals found\");\n\n    uint amount = amountToPayToReferrer(msg.sender);\n    referralsLength[msg.sender] = 0;\n    usdcAddress.transfer(msg.sender, amount);\n    emit ReferralFeesPaid(msg.sender);\n  }\n\n  function currentPlan() public view returns(uint) {\n    if(whitelistLength < 100) {\n      return 0;\n    } else if(whitelistLength < 250) {\n      return 1;\n    } else if(whitelistLength < 500) {\n      return 2;\n    } else {\n      return 3;\n    }\n  }\n\n  function amountToPayToReferrer(address _user) public view returns(uint) {\n    return referralsLength[_user] * 50 * DECIMALS;\n  }\n\n  // Admin functions\n  function setOpenWithdrawals(bool _openWithdrawals) public onlyOwner {\n    openWithdrawals = _openWithdrawals;\n  }\n\n  function withdrawFunds(address to, uint amount) public onlyOwner {\n    usdcAddress.transfer(to, amount);\n  }\n\n  function setMaxListLength(uint _maxListLength) public onlyOwner {\n    maxListLength = _maxListLength;\n  }\n\n  function addToWhitelistAdmin(address _user) public onlyOwner {\n    require(!whitelist[_user].exists, \"Address already registered for whitelist\");\n    addUserToList(_user, address(0), 0);\n  }\n\n  function addUserToList(address _user, address _referredBy, uint _amountPaid) private {\n    whitelist[_user] = Account({\n      accountAddress: _user,\n      referredBy: _referredBy,\n      amountPaid: _amountPaid,\n      exists: true\n    });\n    whitelistArr.push(_user);\n    whitelistLength++;\n    referralsLength[_referredBy] = referralsLength[_referredBy] + 1;\n    emit WhitelistAdded(_user);\n  }\n}\n\n",
  "sourcePath": "/Users/bruno/dev/crypto/stacks/contracts/WhitelistStacks.sol",
  "compiler": {
    "name": "solc",
    "version": "0.8.17+commit.8df45f5f.Emscripten.clang"
  },
  "schemaVersion": "3.4.10",
  "updatedAt": "2022-11-28T15:35:16.358Z",
  "networkType": "ethereum",
  "devdoc": {
    "kind": "dev",
    "methods": {
      "owner()": {
        "details": "Returns the address of the current owner."
      },
      "renounceOwnership()": {
        "details": "Leaves the contract without owner. It will not be possible to call `onlyOwner` functions anymore. Can only be called by the current owner. NOTE: Renouncing ownership will leave the contract without an owner, thereby removing any functionality that is only available to the owner."
      },
      "transferOwnership(address)": {
        "details": "Transfers ownership of the contract to a new account (`newOwner`). Can only be called by the current owner."
      }
    },
    "version": 1
  },
  "userdoc": {
    "kind": "user",
    "methods": {},
    "version": 1
  }
}