{
  "contractName": "WhitelistStacks",
  "abi": [
    {
      "inputs": [
        {
          "internalType": "address",
          "name": "_usdcAddress",
          "type": "address"
        }
      ],
      "stateMutability": "nonpayable",
      "type": "constructor"
    },
    {
      "anonymous": false,
      "inputs": [
        {
          "indexed": true,
          "internalType": "address",
          "name": "previousOwner",
          "type": "address"
        },
        {
          "indexed": true,
          "internalType": "address",
          "name": "newOwner",
          "type": "address"
        }
      ],
      "name": "OwnershipTransferred",
      "type": "event"
    },
    {
      "anonymous": false,
      "inputs": [
        {
          "indexed": true,
          "internalType": "address",
          "name": "account",
          "type": "address"
        }
      ],
      "name": "ReferralFeesPaid",
      "type": "event"
    },
    {
      "anonymous": false,
      "inputs": [
        {
          "indexed": true,
          "internalType": "address",
          "name": "account",
          "type": "address"
        }
      ],
      "name": "WhitelistAdded",
      "type": "event"
    },
    {
      "inputs": [],
      "name": "DECIMALS",
      "outputs": [
        {
          "internalType": "uint256",
          "name": "",
          "type": "uint256"
        }
      ],
      "stateMutability": "view",
      "type": "function",
      "constant": true
    },
    {
      "inputs": [],
      "name": "contractActive",
      "outputs": [
        {
          "internalType": "bool",
          "name": "",
          "type": "bool"
        }
      ],
      "stateMutability": "view",
      "type": "function",
      "constant": true
    },
    {
      "inputs": [],
      "name": "maxListLength",
      "outputs": [
        {
          "internalType": "uint256",
          "name": "",
          "type": "uint256"
        }
      ],
      "stateMutability": "view",
      "type": "function",
      "constant": true
    },
    {
      "inputs": [],
      "name": "openWithdrawals",
      "outputs": [
        {
          "internalType": "bool",
          "name": "",
          "type": "bool"
        }
      ],
      "stateMutability": "view",
      "type": "function",
      "constant": true
    },
    {
      "inputs": [],
      "name": "owner",
      "outputs": [
        {
          "internalType": "address",
          "name": "",
          "type": "address"
        }
      ],
      "stateMutability": "view",
      "type": "function",
      "constant": true
    },
    {
      "inputs": [
        {
          "internalType": "uint256",
          "name": "",
          "type": "uint256"
        }
      ],
      "name": "plans",
      "outputs": [
        {
          "internalType": "uint256",
          "name": "",
          "type": "uint256"
        }
      ],
      "stateMutability": "view",
      "type": "function",
      "constant": true
    },
    {
      "inputs": [
        {
          "internalType": "address",
          "name": "",
          "type": "address"
        }
      ],
      "name": "referralsLength",
      "outputs": [
        {
          "internalType": "uint256",
          "name": "",
          "type": "uint256"
        }
      ],
      "stateMutability": "view",
      "type": "function",
      "constant": true
    },
    {
      "inputs": [],
      "name": "renounceOwnership",
      "outputs": [],
      "stateMutability": "nonpayable",
      "type": "function"
    },
    {
      "inputs": [
        {
          "internalType": "address",
          "name": "newOwner",
          "type": "address"
        }
      ],
      "name": "transferOwnership",
      "outputs": [],
      "stateMutability": "nonpayable",
      "type": "function"
    },
    {
      "inputs": [],
      "name": "usdcAddress",
      "outputs": [
        {
          "internalType": "contract ERC20",
          "name": "",
          "type": "address"
        }
      ],
      "stateMutability": "view",
      "type": "function",
      "constant": true
    },
    {
      "inputs": [
        {
          "internalType": "address",
          "name": "",
          "type": "address"
        }
      ],
      "name": "whitelist",
      "outputs": [
        {
          "internalType": "address",
          "name": "accountAddress",
          "type": "address"
        },
        {
          "internalType": "address",
          "name": "referredBy",
          "type": "address"
        },
        {
          "internalType": "uint256",
          "name": "amountPaid",
          "type": "uint256"
        },
        {
          "internalType": "bool",
          "name": "exists",
          "type": "bool"
        }
      ],
      "stateMutability": "view",
      "type": "function",
      "constant": true
    },
    {
      "inputs": [
        {
          "internalType": "uint256",
          "name": "",
          "type": "uint256"
        }
      ],
      "name": "whitelistArr",
      "outputs": [
        {
          "internalType": "address",
          "name": "",
          "type": "address"
        }
      ],
      "stateMutability": "view",
      "type": "function",
      "constant": true
    },
    {
      "inputs": [],
      "name": "whitelistLength",
      "outputs": [
        {
          "internalType": "uint256",
          "name": "",
          "type": "uint256"
        }
      ],
      "stateMutability": "view",
      "type": "function",
      "constant": true
    },
    {
      "inputs": [
        {
          "internalType": "address",
          "name": "_referredBy",
          "type": "address"
        }
      ],
      "name": "addToWhitelist",
      "outputs": [],
      "stateMutability": "nonpayable",
      "type": "function"
    },
    {
      "inputs": [],
      "name": "receiveReferral",
      "outputs": [],
      "stateMutability": "nonpayable",
      "type": "function"
    },
    {
      "inputs": [],
      "name": "currentPlan",
      "outputs": [
        {
          "internalType": "uint256",
          "name": "",
          "type": "uint256"
        }
      ],
      "stateMutability": "view",
      "type": "function",
      "constant": true
    },
    {
      "inputs": [
        {
          "internalType": "address",
          "name": "_user",
          "type": "address"
        }
      ],
      "name": "amountToPayToReferrer",
      "outputs": [
        {
          "internalType": "uint256",
          "name": "",
          "type": "uint256"
        }
      ],
      "stateMutability": "view",
      "type": "function",
      "constant": true
    },
    {
      "inputs": [
        {
          "internalType": "bool",
          "name": "_openWithdrawals",
          "type": "bool"
        }
      ],
      "name": "setOpenWithdrawals",
      "outputs": [],
      "stateMutability": "nonpayable",
      "type": "function"
    },
    {
      "inputs": [
        {
          "internalType": "address",
          "name": "to",
          "type": "address"
        },
        {
          "internalType": "uint256",
          "name": "amount",
          "type": "uint256"
        }
      ],
      "name": "withdrawFunds",
      "outputs": [],
      "stateMutability": "nonpayable",
      "type": "function"
    },
    {
      "inputs": [
        {
          "internalType": "uint256",
          "name": "_maxListLength",
          "type": "uint256"
        }
      ],
      "name": "setMaxListLength",
      "outputs": [],
      "stateMutability": "nonpayable",
      "type": "function"
    },
    {
      "inputs": [
        {
          "internalType": "bool",
          "name": "_value",
          "type": "bool"
        }
      ],
      "name": "setContractActive",
      "outputs": [],
      "stateMutability": "nonpayable",
      "type": "function"
    },
    {
      "inputs": [
        {
          "internalType": "address",
          "name": "_user",
          "type": "address"
        }
      ],
      "name": "addToWhitelistAdmin",
      "outputs": [],
      "stateMutability": "nonpayable",
      "type": "function"
    },
    {
      "inputs": [
        {
          "internalType": "address",
          "name": "_user",
          "type": "address"
        },
        {
          "internalType": "bool",
          "name": "decrementLength",
          "type": "bool"
        }
      ],
      "name": "removeUserFromWhitelist",
      "outputs": [],
      "stateMutability": "nonpayable",
      "type": "function"
    }
  ],
  "bytecode": "0x6080604052620f42406002556040518060800160405280600254606462000027919062000298565b815260200160025460fa6200003d919062000298565b81526020016002546101f462000054919062000298565b81526020016002546103e86200006b919062000298565b815250600390600462000080929190620001ee565b506103e86008553480156200009457600080fd5b5060405162001fab38038062001fab8339818101604052810190620000ba91906200034d565b620000da620000ce6200012260201b60201c565b6200012a60201b60201c565b80600160006101000a81548173ffffffffffffffffffffffffffffffffffffffff021916908373ffffffffffffffffffffffffffffffffffffffff160217905550506200037f565b600033905090565b60008060009054906101000a900473ffffffffffffffffffffffffffffffffffffffff169050816000806101000a81548173ffffffffffffffffffffffffffffffffffffffff021916908373ffffffffffffffffffffffffffffffffffffffff1602179055508173ffffffffffffffffffffffffffffffffffffffff168173ffffffffffffffffffffffffffffffffffffffff167f8be0079c531659141344cd1fd0a4f28419497f9722a3daafe3b4186f6b6457e060405160405180910390a35050565b8280548282559060005260206000209081019282156200022d579160200282015b828111156200022c5782518255916020019190600101906200020f565b5b5090506200023c919062000240565b5090565b5b808211156200025b57600081600090555060010162000241565b5090565b6000819050919050565b7f4e487b7100000000000000000000000000000000000000000000000000000000600052601160045260246000fd5b6000620002a5826200025f565b9150620002b2836200025f565b9250828202620002c2816200025f565b91508282048414831517620002dc57620002db62000269565b5b5092915050565b600080fd5b600073ffffffffffffffffffffffffffffffffffffffff82169050919050565b60006200031582620002e8565b9050919050565b620003278162000308565b81146200033357600080fd5b50565b60008151905062000347816200031c565b92915050565b600060208284031215620003665762000365620002e3565b5b6000620003768482850162000336565b91505092915050565b611c1c806200038f6000396000f3fe608060405234801561001057600080fd5b506004361061014d5760003560e01c80639b19251a116100c3578063c10753291161007c578063c107532914610391578063c47eb8d2146103ad578063e289fcb6146103b7578063e43252d7146103d5578063f2fde38b146103f1578063f9444fc31461040d5761014d565b80639b19251a146102805780639d386966146102b3578063a4d86f89146102d1578063b162061614610301578063b2587d8314610331578063be38341d146103615761014d565b8063715018a611610115578063715018a6146101e457806378bb5164146101ee57806381d5c2051461020c5780638c6025c51461022a5780638da5cb5b14610246578063970388b5146102645761014d565b806302d45457146101525780630574070c146101705780631e27f9f61461018e5780632e0f2625146101aa57806344729691146101c8575b600080fd5b61015a610429565b604051610167919061131a565b60405180910390f35b61017861044f565b604051610185919061134e565b60405180910390f35b6101a860048036038101906101a3919061139a565b610496565b005b6101b26104a8565b6040516101bf919061134e565b60405180910390f35b6101e260048036038101906101dd9190611405565b6104ae565b005b6101ec610557565b005b6101f661056b565b604051610203919061134e565b60405180910390f35b610214610571565b604051610221919061144d565b60405180910390f35b610244600480360381019061023f9190611494565b610584565b005b61024e6105a9565b60405161025b91906114d0565b60405180910390f35b61027e60048036038101906102799190611494565b6105d2565b005b61029a60048036038101906102959190611405565b6105f7565b6040516102aa94939291906114eb565b60405180910390f35b6102bb610674565b6040516102c8919061134e565b60405180910390f35b6102eb60048036038101906102e69190611405565b61067a565b6040516102f8919061134e565b60405180910390f35b61031b6004803603810190610316919061139a565b610692565b604051610328919061134e565b60405180910390f35b61034b60048036038101906103469190611405565b6106b6565b604051610358919061134e565b60405180910390f35b61037b6004803603810190610376919061139a565b610718565b60405161038891906114d0565b60405180910390f35b6103ab60048036038101906103a69190611530565b610757565b005b6103b5610804565b005b6103bf610a0e565b6040516103cc919061144d565b60405180910390f35b6103ef60048036038101906103ea9190611405565b610a21565b005b61040b60048036038101906104069190611405565b610d15565b005b61042760048036038101906104229190611570565b610d98565b005b600160009054906101000a900473ffffffffffffffffffffffffffffffffffffffff1681565b6000606460075410156104655760009050610493565b60fa60075410156104795760019050610493565b6101f4600754101561048e5760029050610493565b600390505b90565b61049e610ead565b8060088190555050565b60025481565b6104b6610ead565b600460008273ffffffffffffffffffffffffffffffffffffffff1673ffffffffffffffffffffffffffffffffffffffff16815260200190815260200160002060030160009054906101000a900460ff1615610546576040517f08c379a000000000000000000000000000000000000000000000000000000000815260040161053d90611633565b60405180910390fd5b610554816000806000610f2b565b50565b61055f610ead565b61056960006111cf565b565b60075481565b600160149054906101000a900460ff1681565b61058c610ead565b80600160146101000a81548160ff02191690831515021790555050565b60008060009054906101000a900473ffffffffffffffffffffffffffffffffffffffff16905090565b6105da610ead565b80600160156101000a81548160ff02191690831515021790555050565b60046020528060005260406000206000915090508060000160009054906101000a900473ffffffffffffffffffffffffffffffffffffffff16908060010160009054906101000a900473ffffffffffffffffffffffffffffffffffffffff16908060020154908060030160009054906101000a900460ff16905084565b60085481565b60066020528060005260406000206000915090505481565b600381815481106106a257600080fd5b906000526020600020016000915090505481565b60006002546032600660008573ffffffffffffffffffffffffffffffffffffffff1673ffffffffffffffffffffffffffffffffffffffff168152602001908152602001600020546107079190611682565b6107119190611682565b9050919050565b6005818154811061072857600080fd5b906000526020600020016000915054906101000a900473ffffffffffffffffffffffffffffffffffffffff1681565b61075f610ead565b600160009054906101000a900473ffffffffffffffffffffffffffffffffffffffff1673ffffffffffffffffffffffffffffffffffffffff1663a9059cbb83836040518363ffffffff1660e01b81526004016107bc9291906116c4565b6020604051808303816000875af11580156107db573d6000803e3d6000fd5b505050506040513d601f19601f820116820180604052508101906107ff9190611702565b505050565b600160149054906101000a900460ff16610853576040517f08c379a000000000000000000000000000000000000000000000000000000000815260040161084a9061177b565b60405180910390fd5b6000600660003373ffffffffffffffffffffffffffffffffffffffff1673ffffffffffffffffffffffffffffffffffffffff16815260200190815260200160002054116108d5576040517f08c379a00000000000000000000000000000000000000000000000000000000081526004016108cc906117e7565b60405180910390fd5b60006108e0336106b6565b90506000600660003373ffffffffffffffffffffffffffffffffffffffff1673ffffffffffffffffffffffffffffffffffffffff16815260200190815260200160002081905550600160009054906101000a900473ffffffffffffffffffffffffffffffffffffffff1673ffffffffffffffffffffffffffffffffffffffff1663a9059cbb33836040518363ffffffff1660e01b81526004016109849291906116c4565b6020604051808303816000875af11580156109a3573d6000803e3d6000fd5b505050506040513d601f19601f820116820180604052508101906109c79190611702565b503373ffffffffffffffffffffffffffffffffffffffff167fd03a333578b3bec046a21391622c18e0b54a2006f8720f38a8dc70f8e28c0d0e60405160405180910390a250565b600160159054906101000a900460ff1681565b600160159054906101000a900460ff16610a70576040517f08c379a0000000000000000000000000000000000000000000000000000000008152600401610a6790611853565b60405180910390fd5b60085460075410610ab6576040517f08c379a0000000000000000000000000000000000000000000000000000000008152600401610aad906118bf565b60405180910390fd5b600460003373ffffffffffffffffffffffffffffffffffffffff1673ffffffffffffffffffffffffffffffffffffffff16815260200190815260200160002060030160009054906101000a900460ff1615610b46576040517f08c379a0000000000000000000000000000000000000000000000000000000008152600401610b3d90611633565b60405180910390fd5b3373ffffffffffffffffffffffffffffffffffffffff168173ffffffffffffffffffffffffffffffffffffffff1603610bb4576040517f08c379a0000000000000000000000000000000000000000000000000000000008152600401610bab9061192b565b60405180910390fd5b6000600460008373ffffffffffffffffffffffffffffffffffffffff1673ffffffffffffffffffffffffffffffffffffffff16815260200190815260200160002060030160009054906101000a900460ff1615610c1357819050610c18565b600090505b6000610c2261044f565b9050600160009054906101000a900473ffffffffffffffffffffffffffffffffffffffff1673ffffffffffffffffffffffffffffffffffffffff166323b872dd333060038581548110610c7857610c7761194b565b5b90600052602060002001546040518463ffffffff1660e01b8152600401610ca19392919061197a565b6020604051808303816000875af1158015610cc0573d6000803e3d6000fd5b505050506040513d601f19601f82011682018060405250810190610ce49190611702565b50610d10338360038481548110610cfe57610cfd61194b565b5b90600052602060002001546001610f2b565b505050565b610d1d610ead565b600073ffffffffffffffffffffffffffffffffffffffff168173ffffffffffffffffffffffffffffffffffffffff1603610d8c576040517f08c379a0000000000000000000000000000000000000000000000000000000008152600401610d8390611a23565b60405180910390fd5b610d95816111cf565b50565b610da0610ead565b600460008373ffffffffffffffffffffffffffffffffffffffff1673ffffffffffffffffffffffffffffffffffffffff16815260200190815260200160002060030160009054906101000a900460ff16610e2f576040517f08c379a0000000000000000000000000000000000000000000000000000000008152600401610e2690611ab5565b60405180910390fd5b6000600460008473ffffffffffffffffffffffffffffffffffffffff1673ffffffffffffffffffffffffffffffffffffffff16815260200190815260200160002060030160006101000a81548160ff0219169083151502179055508015610ea95760076000815480929190610ea390611ad5565b91905055505b5050565b610eb5611293565b73ffffffffffffffffffffffffffffffffffffffff16610ed36105a9565b73ffffffffffffffffffffffffffffffffffffffff1614610f29576040517f08c379a0000000000000000000000000000000000000000000000000000000008152600401610f2090611b4a565b60405180910390fd5b565b60405180608001604052808573ffffffffffffffffffffffffffffffffffffffff1681526020018473ffffffffffffffffffffffffffffffffffffffff16815260200183815260200160011515815250600460008673ffffffffffffffffffffffffffffffffffffffff1673ffffffffffffffffffffffffffffffffffffffff16815260200190815260200160002060008201518160000160006101000a81548173ffffffffffffffffffffffffffffffffffffffff021916908373ffffffffffffffffffffffffffffffffffffffff16021790555060208201518160010160006101000a81548173ffffffffffffffffffffffffffffffffffffffff021916908373ffffffffffffffffffffffffffffffffffffffff1602179055506040820151816002015560608201518160030160006101000a81548160ff0219169083151502179055509050506005849080600181540180825580915050600190039060005260206000200160009091909190916101000a81548173ffffffffffffffffffffffffffffffffffffffff021916908373ffffffffffffffffffffffffffffffffffffffff16021790555080156110f757600760008154809291906110f190611b6a565b91905055505b6001600660008573ffffffffffffffffffffffffffffffffffffffff1673ffffffffffffffffffffffffffffffffffffffff168152602001908152602001600020546111439190611bb2565b600660008573ffffffffffffffffffffffffffffffffffffffff1673ffffffffffffffffffffffffffffffffffffffff168152602001908152602001600020819055508373ffffffffffffffffffffffffffffffffffffffff167f4790a4adb426ca2345bb5108f6e454eae852a7bf687544cd66a7270dff3a41d660405160405180910390a250505050565b60008060009054906101000a900473ffffffffffffffffffffffffffffffffffffffff169050816000806101000a81548173ffffffffffffffffffffffffffffffffffffffff021916908373ffffffffffffffffffffffffffffffffffffffff1602179055508173ffffffffffffffffffffffffffffffffffffffff168173ffffffffffffffffffffffffffffffffffffffff167f8be0079c531659141344cd1fd0a4f28419497f9722a3daafe3b4186f6b6457e060405160405180910390a35050565b600033905090565b600073ffffffffffffffffffffffffffffffffffffffff82169050919050565b6000819050919050565b60006112e06112db6112d68461129b565b6112bb565b61129b565b9050919050565b60006112f2826112c5565b9050919050565b6000611304826112e7565b9050919050565b611314816112f9565b82525050565b600060208201905061132f600083018461130b565b92915050565b6000819050919050565b61134881611335565b82525050565b6000602082019050611363600083018461133f565b92915050565b600080fd5b61137781611335565b811461138257600080fd5b50565b6000813590506113948161136e565b92915050565b6000602082840312156113b0576113af611369565b5b60006113be84828501611385565b91505092915050565b60006113d28261129b565b9050919050565b6113e2816113c7565b81146113ed57600080fd5b50565b6000813590506113ff816113d9565b92915050565b60006020828403121561141b5761141a611369565b5b6000611429848285016113f0565b91505092915050565b60008115159050919050565b61144781611432565b82525050565b6000602082019050611462600083018461143e565b92915050565b61147181611432565b811461147c57600080fd5b50565b60008135905061148e81611468565b92915050565b6000602082840312156114aa576114a9611369565b5b60006114b88482850161147f565b91505092915050565b6114ca816113c7565b82525050565b60006020820190506114e560008301846114c1565b92915050565b600060808201905061150060008301876114c1565b61150d60208301866114c1565b61151a604083018561133f565b611527606083018461143e565b95945050505050565b6000806040838503121561154757611546611369565b5b6000611555858286016113f0565b925050602061156685828601611385565b9150509250929050565b6000806040838503121561158757611586611369565b5b6000611595858286016113f0565b92505060206115a68582860161147f565b9150509250929050565b600082825260208201905092915050565b7f4164647265737320616c7265616479207265676973746572656420666f72207760008201527f686974656c697374000000000000000000000000000000000000000000000000602082015250565b600061161d6028836115b0565b9150611628826115c1565b604082019050919050565b6000602082019050818103600083015261164c81611610565b9050919050565b7f4e487b7100000000000000000000000000000000000000000000000000000000600052601160045260246000fd5b600061168d82611335565b915061169883611335565b92508282026116a681611335565b915082820484148315176116bd576116bc611653565b5b5092915050565b60006040820190506116d960008301856114c1565b6116e6602083018461133f565b9392505050565b6000815190506116fc81611468565b92915050565b60006020828403121561171857611717611369565b5b6000611726848285016116ed565b91505092915050565b7f46756e64207769746864726177616c732061726520636c6f7365640000000000600082015250565b6000611765601b836115b0565b91506117708261172f565b602082019050919050565b6000602082019050818103600083015261179481611758565b9050919050565b7f4e6f20726566657272616c7320666f756e640000000000000000000000000000600082015250565b60006117d16012836115b0565b91506117dc8261179b565b602082019050919050565b60006020820190508181036000830152611800816117c4565b9050919050565b7f436f6e7472616374206973206e6f742061637469766500000000000000000000600082015250565b600061183d6016836115b0565b915061184882611807565b602082019050919050565b6000602082019050818103600083015261186c81611830565b9050919050565b7f536f7272792c2077686974656c6973742069732066756c6c0000000000000000600082015250565b60006118a96018836115b0565b91506118b482611873565b602082019050919050565b600060208201905081810360008301526118d88161189c565b9050919050565b7f596f752063616e6e6f7420726566657220796f757273656c6600000000000000600082015250565b60006119156019836115b0565b9150611920826118df565b602082019050919050565b6000602082019050818103600083015261194481611908565b9050919050565b7f4e487b7100000000000000000000000000000000000000000000000000000000600052603260045260246000fd5b600060608201905061198f60008301866114c1565b61199c60208301856114c1565b6119a9604083018461133f565b949350505050565b7f4f776e61626c653a206e6577206f776e657220697320746865207a65726f206160008201527f6464726573730000000000000000000000000000000000000000000000000000602082015250565b6000611a0d6026836115b0565b9150611a18826119b1565b604082019050919050565b60006020820190508181036000830152611a3c81611a00565b9050919050565b7f41646472657373206e6f74207265676973746572656420666f7220776869746560008201527f6c69737400000000000000000000000000000000000000000000000000000000602082015250565b6000611a9f6024836115b0565b9150611aaa82611a43565b604082019050919050565b60006020820190508181036000830152611ace81611a92565b9050919050565b6000611ae082611335565b915060008203611af357611af2611653565b5b600182039050919050565b7f4f776e61626c653a2063616c6c6572206973206e6f7420746865206f776e6572600082015250565b6000611b346020836115b0565b9150611b3f82611afe565b602082019050919050565b60006020820190508181036000830152611b6381611b27565b9050919050565b6000611b7582611335565b91507fffffffffffffffffffffffffffffffffffffffffffffffffffffffffffffffff8203611ba757611ba6611653565b5b600182019050919050565b6000611bbd82611335565b9150611bc883611335565b9250828201905080821115611be057611bdf611653565b5b9291505056fea26469706673582212206a726ee0baafc1d28dde7931d896647e0066cf07c65a70e8ffdaa0bc38fcab3f64736f6c63430008110033",
  "immutableReferences": {},
  "source": "// SPDX-License-Identifier: MIT\npragma solidity >=0.4.22 <0.9.0;\n\nimport \"@openzeppelin/contracts/access/Ownable.sol\";\nimport \"@openzeppelin/contracts/token/ERC20/ERC20.sol\";\n\ncontract WhitelistStacks is Ownable {\n  ERC20 public usdcAddress;\n  bool public openWithdrawals;\n  bool public contractActive;\n\n  uint public DECIMALS = 10**6;\n\n  uint [] public plans = [\n    100 * DECIMALS,\n    250 * DECIMALS,\n    500 * DECIMALS,\n    1000 * DECIMALS\n  ];\n\n  struct Account {\n    address accountAddress;\n    address referredBy;\n    uint amountPaid;\n    bool exists;\n  }\n\n  mapping(address => Account) public whitelist;\n  address [] public whitelistArr; // for key identification\n  mapping(address => uint) public referralsLength;\n  uint public whitelistLength;\n  uint public maxListLength = 1000;\n\n  event WhitelistAdded(address indexed account);\n  event ReferralFeesPaid(address indexed account);\n\n  constructor(address _usdcAddress) {\n    usdcAddress = ERC20(_usdcAddress);\n  }\n\n  // make payment and add sender address to whitelist with according plan\n  function addToWhitelist(address _referredBy) public {\n    require(contractActive, \"Contract is not active\");\n    require(whitelistLength < maxListLength, \"Sorry, whitelist is full\");\n    require(!whitelist[msg.sender].exists, \"Address already registered for whitelist\");\n    require(_referredBy != msg.sender, \"You cannot refer yourself\");\n\n    // filter out referral if not registered\n    address referredBy;\n    if(whitelist[_referredBy].exists) {\n      referredBy = _referredBy;\n    }\n    else {\n      referredBy = address(0);\n    }\n\n    uint plan = currentPlan();\n    usdcAddress.transferFrom(msg.sender, address(this), plans[plan]);\n    addUserToList(msg.sender, referredBy, plans[plan], true);\n  }\n\n  function receiveReferral() public {\n    require(openWithdrawals, \"Fund withdrawals are closed\");\n    require(referralsLength[msg.sender] > 0, \"No referrals found\");\n\n    uint amount = amountToPayToReferrer(msg.sender);\n    referralsLength[msg.sender] = 0;\n    usdcAddress.transfer(msg.sender, amount);\n    emit ReferralFeesPaid(msg.sender);\n  }\n\n  function currentPlan() public view returns(uint) {\n    if(whitelistLength < 100) {\n      return 0;\n    } else if(whitelistLength < 250) {\n      return 1;\n    } else if(whitelistLength < 500) {\n      return 2;\n    } else {\n      return 3;\n    }\n  }\n\n  function amountToPayToReferrer(address _user) public view returns(uint) {\n    return referralsLength[_user] * 50 * DECIMALS;\n  }\n\n  // Admin functions\n  function setOpenWithdrawals(bool _openWithdrawals) public onlyOwner {\n    openWithdrawals = _openWithdrawals;\n  }\n\n  function withdrawFunds(address to, uint amount) public onlyOwner {\n    usdcAddress.transfer(to, amount);\n  }\n\n  function setMaxListLength(uint _maxListLength) public onlyOwner {\n    maxListLength = _maxListLength;\n  }\n\n  function setContractActive(bool _value) public onlyOwner {\n    contractActive = _value;\n  }\n\n  function addToWhitelistAdmin(address _user) public onlyOwner {\n    require(!whitelist[_user].exists, \"Address already registered for whitelist\");\n    addUserToList(_user, address(0), 0, false);\n  }\n\n  function removeUserFromWhitelist(address _user, bool decrementLength) public onlyOwner {\n    require(whitelist[_user].exists, \"Address not registered for whitelist\");\n    whitelist[_user].exists = false;\n    if(decrementLength) { whitelistLength--; }\n  }\n\n  function addUserToList(address _user, address _referredBy, uint _amountPaid, bool increment) private {\n    whitelist[_user] = Account({\n      accountAddress: _user,\n      referredBy: _referredBy,\n      amountPaid: _amountPaid,\n      exists: true\n    });\n    whitelistArr.push(_user);\n    if(increment) { whitelistLength++; }\n    referralsLength[_referredBy] = referralsLength[_referredBy] + 1;\n    emit WhitelistAdded(_user);\n  }\n}\n\n",
  "sourcePath": "/Users/bruno/dev/crypto/stacks/contracts/WhitelistStacks.sol",
  "compiler": {
    "name": "solc",
    "version": "0.8.17+commit.8df45f5f.Emscripten.clang"
  },
  "schemaVersion": "3.4.10",
  "updatedAt": "2022-12-01T11:23:49.973Z",
  "networkType": "ethereum",
  "devdoc": {
    "kind": "dev",
    "methods": {
      "owner()": {
        "details": "Returns the address of the current owner."
      },
      "renounceOwnership()": {
        "details": "Leaves the contract without owner. It will not be possible to call `onlyOwner` functions anymore. Can only be called by the current owner. NOTE: Renouncing ownership will leave the contract without an owner, thereby removing any functionality that is only available to the owner."
      },
      "transferOwnership(address)": {
        "details": "Transfers ownership of the contract to a new account (`newOwner`). Can only be called by the current owner."
      }
    },
    "version": 1
  },
  "userdoc": {
    "kind": "user",
    "methods": {},
    "version": 1
  }
}