{
  "contractName": "WhitelistData",
  "abi": [
    {
      "anonymous": false,
      "inputs": [
        {
          "indexed": true,
          "internalType": "address",
          "name": "previousOwner",
          "type": "address"
        },
        {
          "indexed": true,
          "internalType": "address",
          "name": "newOwner",
          "type": "address"
        }
      ],
      "name": "OwnershipTransferred",
      "type": "event"
    },
    {
      "inputs": [
        {
          "internalType": "address",
          "name": "",
          "type": "address"
        }
      ],
      "name": "accounts",
      "outputs": [
        {
          "internalType": "uint256",
          "name": "tokenId",
          "type": "uint256"
        },
        {
          "internalType": "bool",
          "name": "exists",
          "type": "bool"
        }
      ],
      "stateMutability": "view",
      "type": "function"
    },
    {
      "inputs": [],
      "name": "owner",
      "outputs": [
        {
          "internalType": "address",
          "name": "",
          "type": "address"
        }
      ],
      "stateMutability": "view",
      "type": "function"
    },
    {
      "inputs": [],
      "name": "renounceOwnership",
      "outputs": [],
      "stateMutability": "nonpayable",
      "type": "function"
    },
    {
      "inputs": [],
      "name": "startOfWl",
      "outputs": [
        {
          "internalType": "uint256",
          "name": "",
          "type": "uint256"
        }
      ],
      "stateMutability": "view",
      "type": "function"
    },
    {
      "inputs": [
        {
          "internalType": "address",
          "name": "newOwner",
          "type": "address"
        }
      ],
      "name": "transferOwnership",
      "outputs": [],
      "stateMutability": "nonpayable",
      "type": "function"
    },
    {
      "inputs": [],
      "name": "wlDataLength",
      "outputs": [
        {
          "internalType": "uint256",
          "name": "",
          "type": "uint256"
        }
      ],
      "stateMutability": "view",
      "type": "function"
    },
    {
      "inputs": [],
      "name": "wlLength",
      "outputs": [
        {
          "internalType": "uint256",
          "name": "",
          "type": "uint256"
        }
      ],
      "stateMutability": "view",
      "type": "function"
    },
    {
      "inputs": [
        {
          "internalType": "address[]",
          "name": "_accounts",
          "type": "address[]"
        }
      ],
      "name": "bulkAddWhitelistAccounts",
      "outputs": [],
      "stateMutability": "nonpayable",
      "type": "function"
    },
    {
      "inputs": [
        {
          "internalType": "address",
          "name": "_account",
          "type": "address"
        }
      ],
      "name": "addWhitelistAccount",
      "outputs": [],
      "stateMutability": "nonpayable",
      "type": "function"
    },
    {
      "inputs": [
        {
          "internalType": "address",
          "name": "_account",
          "type": "address"
        }
      ],
      "name": "getWhitelistAccount",
      "outputs": [
        {
          "components": [
            {
              "internalType": "uint256",
              "name": "tokenId",
              "type": "uint256"
            },
            {
              "internalType": "bool",
              "name": "exists",
              "type": "bool"
            }
          ],
          "internalType": "struct WhitelistData.Account",
          "name": "",
          "type": "tuple"
        }
      ],
      "stateMutability": "view",
      "type": "function"
    }
  ],
  "bytecode": "0x6080604052606e600155600154610fa96100199190610154565b600255600060035534801561002d57600080fd5b5061004a61003f61004f60201b60201c565b61005760201b60201c565b610188565b600033905090565b60008060009054906101000a900473ffffffffffffffffffffffffffffffffffffffff169050816000806101000a81548173ffffffffffffffffffffffffffffffffffffffff021916908373ffffffffffffffffffffffffffffffffffffffff1602179055508173ffffffffffffffffffffffffffffffffffffffff168173ffffffffffffffffffffffffffffffffffffffff167f8be0079c531659141344cd1fd0a4f28419497f9722a3daafe3b4186f6b6457e060405160405180910390a35050565b6000819050919050565b7f4e487b7100000000000000000000000000000000000000000000000000000000600052601160045260246000fd5b600061015f8261011b565b915061016a8361011b565b925082820390508181111561018257610181610125565b5b92915050565b610b86806101976000396000f3fe608060405234801561001057600080fd5b506004361061009e5760003560e01c8063715018a611610066578063715018a6146101485780637553e639146101525780638da5cb5b14610182578063a86874a0146101a0578063f2fde38b146101be5761009e565b80631927fe14146100a3578063341cd3ab146100bf5780634abd1269146100db57806352bee984146100f95780635e5c06e214610117575b600080fd5b6100bd60048036038101906100b891906106c2565b6101da565b005b6100d960048036038101906100d49190610848565b610283565b005b6100e3610369565b6040516100f091906108aa565b60405180910390f35b61010161036f565b60405161010e91906108aa565b60405180910390f35b610131600480360381019061012c91906106c2565b610375565b60405161013f9291906108e0565b60405180910390f35b6101506103a6565b005b61016c600480360381019061016791906106c2565b6103ba565b6040516101799190610956565b60405180910390f35b61018a610438565b6040516101979190610980565b60405180910390f35b6101a8610461565b6040516101b591906108aa565b60405180910390f35b6101d860048036038101906101d391906106c2565b610467565b005b6101e26104ea565b6040518060400160405280600354815260200160011515815250600460008373ffffffffffffffffffffffffffffffffffffffff1673ffffffffffffffffffffffffffffffffffffffff1681526020019081526020016000206000820151816000015560208201518160010160006101000a81548160ff0219169083151502179055509050506003600081548092919061027b906109ca565b919050555050565b61028b6104ea565b600060025490505b815181101561036557604051806040016040528082815260200160011515815250600460008484815181106102cb576102ca610a12565b5b602002602001015173ffffffffffffffffffffffffffffffffffffffff1673ffffffffffffffffffffffffffffffffffffffff1681526020019081526020016000206000820151816000015560208201518160010160006101000a81548160ff0219169083151502179055509050506003600081548092919061034d906109ca565b9190505550808061035d906109ca565b915050610293565b5050565b60015481565b60035481565b60046020528060005260406000206000915090508060000154908060010160009054906101000a900460ff16905082565b6103ae6104ea565b6103b86000610568565b565b6103c2610634565b600460008373ffffffffffffffffffffffffffffffffffffffff1673ffffffffffffffffffffffffffffffffffffffff168152602001908152602001600020604051806040016040529081600082015481526020016001820160009054906101000a900460ff1615151515815250509050919050565b60008060009054906101000a900473ffffffffffffffffffffffffffffffffffffffff16905090565b60025481565b61046f6104ea565b600073ffffffffffffffffffffffffffffffffffffffff168173ffffffffffffffffffffffffffffffffffffffff16036104de576040517f08c379a00000000000000000000000000000000000000000000000000000000081526004016104d590610ac4565b60405180910390fd5b6104e781610568565b50565b6104f261062c565b73ffffffffffffffffffffffffffffffffffffffff16610510610438565b73ffffffffffffffffffffffffffffffffffffffff1614610566576040517f08c379a000000000000000000000000000000000000000000000000000000000815260040161055d90610b30565b60405180910390fd5b565b60008060009054906101000a900473ffffffffffffffffffffffffffffffffffffffff169050816000806101000a81548173ffffffffffffffffffffffffffffffffffffffff021916908373ffffffffffffffffffffffffffffffffffffffff1602179055508173ffffffffffffffffffffffffffffffffffffffff168173ffffffffffffffffffffffffffffffffffffffff167f8be0079c531659141344cd1fd0a4f28419497f9722a3daafe3b4186f6b6457e060405160405180910390a35050565b600033905090565b6040518060400160405280600081526020016000151581525090565b6000604051905090565b600080fd5b600080fd5b600073ffffffffffffffffffffffffffffffffffffffff82169050919050565b600061068f82610664565b9050919050565b61069f81610684565b81146106aa57600080fd5b50565b6000813590506106bc81610696565b92915050565b6000602082840312156106d8576106d761065a565b5b60006106e6848285016106ad565b91505092915050565b600080fd5b6000601f19601f8301169050919050565b7f4e487b7100000000000000000000000000000000000000000000000000000000600052604160045260246000fd5b61073d826106f4565b810181811067ffffffffffffffff8211171561075c5761075b610705565b5b80604052505050565b600061076f610650565b905061077b8282610734565b919050565b600067ffffffffffffffff82111561079b5761079a610705565b5b602082029050602081019050919050565b600080fd5b60006107c46107bf84610780565b610765565b905080838252602082019050602084028301858111156107e7576107e66107ac565b5b835b8181101561081057806107fc88826106ad565b8452602084019350506020810190506107e9565b5050509392505050565b600082601f83011261082f5761082e6106ef565b5b813561083f8482602086016107b1565b91505092915050565b60006020828403121561085e5761085d61065a565b5b600082013567ffffffffffffffff81111561087c5761087b61065f565b5b6108888482850161081a565b91505092915050565b6000819050919050565b6108a481610891565b82525050565b60006020820190506108bf600083018461089b565b92915050565b60008115159050919050565b6108da816108c5565b82525050565b60006040820190506108f5600083018561089b565b61090260208301846108d1565b9392505050565b61091281610891565b82525050565b610921816108c5565b82525050565b60408201600082015161093d6000850182610909565b5060208201516109506020850182610918565b50505050565b600060408201905061096b6000830184610927565b92915050565b61097a81610684565b82525050565b60006020820190506109956000830184610971565b92915050565b7f4e487b7100000000000000000000000000000000000000000000000000000000600052601160045260246000fd5b60006109d582610891565b91507fffffffffffffffffffffffffffffffffffffffffffffffffffffffffffffffff8203610a0757610a0661099b565b5b600182019050919050565b7f4e487b7100000000000000000000000000000000000000000000000000000000600052603260045260246000fd5b600082825260208201905092915050565b7f4f776e61626c653a206e6577206f776e657220697320746865207a65726f206160008201527f6464726573730000000000000000000000000000000000000000000000000000602082015250565b6000610aae602683610a41565b9150610ab982610a52565b604082019050919050565b60006020820190508181036000830152610add81610aa1565b9050919050565b7f4f776e61626c653a2063616c6c6572206973206e6f7420746865206f776e6572600082015250565b6000610b1a602083610a41565b9150610b2582610ae4565b602082019050919050565b60006020820190508181036000830152610b4981610b0d565b905091905056fea26469706673582212204950a7819b0240e5d8d5833c37f22270ac97d58516e807a1bfe0f5d079d7df0764736f6c63430008110033",
  "immutableReferences": {},
  "source": "// SPDX-License-Identifier: MIT\npragma solidity >=0.4.22 <0.9.0;\n\nimport \"@openzeppelin/contracts/access/Ownable.sol\";\nimport \"@openzeppelin/contracts/token/ERC20/ERC20.sol\";\n\ncontract WhitelistData is Ownable {\n  // Whitelist will have the last IDs not to disturb the auction contract\n  uint public wlLength = 110;\n  uint public startOfWl = 4009 - wlLength;\n  uint public wlDataLength = 0;\n\n  struct Account {\n    uint tokenId;\n    bool exists;\n  }\n\n  mapping(address => Account) public accounts;\n\n  function bulkAddWhitelistAccounts(address[] memory _accounts) public onlyOwner {\n    for(uint i = startOfWl; i < _accounts.length; i++) {\n      accounts[_accounts[i]] = Account(i, true);\n      wlDataLength++;\n    }\n  }\n\n  function addWhitelistAccount(address _account) public onlyOwner {\n    accounts[_account] = Account(wlDataLength, true);\n    wlDataLength++;\n  }\n\n  function getWhitelistAccount(address _account) public view returns (Account memory) {\n    return accounts[_account];\n  }\n}\n",
  "sourcePath": "/Users/bruno/dev/crypto/stacks/contracts/WhitelistData.sol",
  "compiler": {
    "name": "solc",
    "version": "0.8.17+commit.8df45f5f.Emscripten.clang"
  },
  "schemaVersion": "3.4.10",
  "updatedAt": "2023-02-17T13:32:34.865Z",
  "devdoc": {
    "kind": "dev",
    "methods": {
      "owner()": {
        "details": "Returns the address of the current owner."
      },
      "renounceOwnership()": {
        "details": "Leaves the contract without owner. It will not be possible to call `onlyOwner` functions anymore. Can only be called by the current owner. NOTE: Renouncing ownership will leave the contract without an owner, thereby removing any functionality that is only available to the owner."
      },
      "transferOwnership(address)": {
        "details": "Transfers ownership of the contract to a new account (`newOwner`). Can only be called by the current owner."
      }
    },
    "version": 1
  },
  "userdoc": {
    "kind": "user",
    "methods": {},
    "version": 1
  }
}