{
  "contractName": "WhitelistStacks",
  "abi": [
    {
      "inputs": [
        {
          "internalType": "address",
          "name": "_usdcAddress",
          "type": "address"
        }
      ],
      "stateMutability": "nonpayable",
      "type": "constructor"
    },
    {
      "anonymous": false,
      "inputs": [
        {
          "indexed": true,
          "internalType": "address",
          "name": "previousOwner",
          "type": "address"
        },
        {
          "indexed": true,
          "internalType": "address",
          "name": "newOwner",
          "type": "address"
        }
      ],
      "name": "OwnershipTransferred",
      "type": "event"
    },
    {
      "anonymous": false,
      "inputs": [
        {
          "indexed": true,
          "internalType": "address",
          "name": "account",
          "type": "address"
        }
      ],
      "name": "ReferralFeesPaid",
      "type": "event"
    },
    {
      "anonymous": false,
      "inputs": [
        {
          "indexed": true,
          "internalType": "address",
          "name": "account",
          "type": "address"
        }
      ],
      "name": "WhitelistAdded",
      "type": "event"
    },
    {
      "inputs": [],
      "name": "DECIMALS",
      "outputs": [
        {
          "internalType": "uint256",
          "name": "",
          "type": "uint256"
        }
      ],
      "stateMutability": "view",
      "type": "function",
      "constant": true
    },
    {
      "inputs": [],
      "name": "contractActive",
      "outputs": [
        {
          "internalType": "bool",
          "name": "",
          "type": "bool"
        }
      ],
      "stateMutability": "view",
      "type": "function",
      "constant": true
    },
    {
      "inputs": [],
      "name": "maxListLength",
      "outputs": [
        {
          "internalType": "uint256",
          "name": "",
          "type": "uint256"
        }
      ],
      "stateMutability": "view",
      "type": "function",
      "constant": true
    },
    {
      "inputs": [],
      "name": "openWithdrawals",
      "outputs": [
        {
          "internalType": "bool",
          "name": "",
          "type": "bool"
        }
      ],
      "stateMutability": "view",
      "type": "function",
      "constant": true
    },
    {
      "inputs": [],
      "name": "owner",
      "outputs": [
        {
          "internalType": "address",
          "name": "",
          "type": "address"
        }
      ],
      "stateMutability": "view",
      "type": "function",
      "constant": true
    },
    {
      "inputs": [
        {
          "internalType": "uint256",
          "name": "",
          "type": "uint256"
        }
      ],
      "name": "plans",
      "outputs": [
        {
          "internalType": "uint256",
          "name": "",
          "type": "uint256"
        }
      ],
      "stateMutability": "view",
      "type": "function",
      "constant": true
    },
    {
      "inputs": [
        {
          "internalType": "address",
          "name": "",
          "type": "address"
        }
      ],
      "name": "referralsLength",
      "outputs": [
        {
          "internalType": "uint256",
          "name": "",
          "type": "uint256"
        }
      ],
      "stateMutability": "view",
      "type": "function",
      "constant": true
    },
    {
      "inputs": [],
      "name": "renounceOwnership",
      "outputs": [],
      "stateMutability": "nonpayable",
      "type": "function"
    },
    {
      "inputs": [],
      "name": "totalReferralCount",
      "outputs": [
        {
          "internalType": "uint256",
          "name": "",
          "type": "uint256"
        }
      ],
      "stateMutability": "view",
      "type": "function",
      "constant": true
    },
    {
      "inputs": [
        {
          "internalType": "address",
          "name": "newOwner",
          "type": "address"
        }
      ],
      "name": "transferOwnership",
      "outputs": [],
      "stateMutability": "nonpayable",
      "type": "function"
    },
    {
      "inputs": [],
      "name": "usdcAddress",
      "outputs": [
        {
          "internalType": "contract ERC20",
          "name": "",
          "type": "address"
        }
      ],
      "stateMutability": "view",
      "type": "function",
      "constant": true
    },
    {
      "inputs": [
        {
          "internalType": "address",
          "name": "",
          "type": "address"
        }
      ],
      "name": "whitelist",
      "outputs": [
        {
          "internalType": "address",
          "name": "accountAddress",
          "type": "address"
        },
        {
          "internalType": "address",
          "name": "referredBy",
          "type": "address"
        },
        {
          "internalType": "uint256",
          "name": "amountPaid",
          "type": "uint256"
        },
        {
          "internalType": "bool",
          "name": "exists",
          "type": "bool"
        }
      ],
      "stateMutability": "view",
      "type": "function",
      "constant": true
    },
    {
      "inputs": [
        {
          "internalType": "uint256",
          "name": "",
          "type": "uint256"
        }
      ],
      "name": "whitelistArr",
      "outputs": [
        {
          "internalType": "address",
          "name": "",
          "type": "address"
        }
      ],
      "stateMutability": "view",
      "type": "function",
      "constant": true
    },
    {
      "inputs": [],
      "name": "whitelistLength",
      "outputs": [
        {
          "internalType": "uint256",
          "name": "",
          "type": "uint256"
        }
      ],
      "stateMutability": "view",
      "type": "function",
      "constant": true
    },
    {
      "inputs": [
        {
          "internalType": "address",
          "name": "_referredBy",
          "type": "address"
        }
      ],
      "name": "addToWhitelist",
      "outputs": [],
      "stateMutability": "nonpayable",
      "type": "function"
    },
    {
      "inputs": [],
      "name": "receiveReferral",
      "outputs": [],
      "stateMutability": "nonpayable",
      "type": "function"
    },
    {
      "inputs": [],
      "name": "currentPlan",
      "outputs": [
        {
          "internalType": "uint256",
          "name": "",
          "type": "uint256"
        }
      ],
      "stateMutability": "view",
      "type": "function",
      "constant": true
    },
    {
      "inputs": [
        {
          "internalType": "address",
          "name": "_user",
          "type": "address"
        }
      ],
      "name": "amountToPayToReferrer",
      "outputs": [
        {
          "internalType": "uint256",
          "name": "",
          "type": "uint256"
        }
      ],
      "stateMutability": "view",
      "type": "function",
      "constant": true
    },
    {
      "inputs": [
        {
          "internalType": "bool",
          "name": "_openWithdrawals",
          "type": "bool"
        }
      ],
      "name": "setOpenWithdrawals",
      "outputs": [],
      "stateMutability": "nonpayable",
      "type": "function"
    },
    {
      "inputs": [
        {
          "internalType": "address",
          "name": "to",
          "type": "address"
        },
        {
          "internalType": "uint256",
          "name": "amount",
          "type": "uint256"
        }
      ],
      "name": "withdrawFunds",
      "outputs": [],
      "stateMutability": "nonpayable",
      "type": "function"
    },
    {
      "inputs": [
        {
          "internalType": "uint256",
          "name": "_maxListLength",
          "type": "uint256"
        }
      ],
      "name": "setMaxListLength",
      "outputs": [],
      "stateMutability": "nonpayable",
      "type": "function"
    },
    {
      "inputs": [
        {
          "internalType": "bool",
          "name": "_value",
          "type": "bool"
        }
      ],
      "name": "setContractActive",
      "outputs": [],
      "stateMutability": "nonpayable",
      "type": "function"
    },
    {
      "inputs": [
        {
          "internalType": "address",
          "name": "_user",
          "type": "address"
        }
      ],
      "name": "addToWhitelistAdmin",
      "outputs": [],
      "stateMutability": "nonpayable",
      "type": "function"
    },
    {
      "inputs": [
        {
          "internalType": "address",
          "name": "_user",
          "type": "address"
        },
        {
          "internalType": "bool",
          "name": "decrementLength",
          "type": "bool"
        }
      ],
      "name": "removeUserFromWhitelist",
      "outputs": [],
      "stateMutability": "nonpayable",
      "type": "function"
    },
    {
      "inputs": [],
      "name": "totalLeftToPayReferrals",
      "outputs": [
        {
          "internalType": "uint256",
          "name": "",
          "type": "uint256"
        }
      ],
      "stateMutability": "view",
      "type": "function",
      "constant": true
    }
  ],
  "bytecode": "0x6080604052620f42406002556040518060800160405280600254606462000027919062000298565b815260200160025460fa6200003d919062000298565b81526020016002546101f462000054919062000298565b81526020016002546103e86200006b919062000298565b815250600390600462000080929190620001ee565b506103e86009553480156200009457600080fd5b506040516200206c3803806200206c8339818101604052810190620000ba91906200034d565b620000da620000ce6200012260201b60201c565b6200012a60201b60201c565b80600160006101000a81548173ffffffffffffffffffffffffffffffffffffffff021916908373ffffffffffffffffffffffffffffffffffffffff160217905550506200037f565b600033905090565b60008060009054906101000a900473ffffffffffffffffffffffffffffffffffffffff169050816000806101000a81548173ffffffffffffffffffffffffffffffffffffffff021916908373ffffffffffffffffffffffffffffffffffffffff1602179055508173ffffffffffffffffffffffffffffffffffffffff168173ffffffffffffffffffffffffffffffffffffffff167f8be0079c531659141344cd1fd0a4f28419497f9722a3daafe3b4186f6b6457e060405160405180910390a35050565b8280548282559060005260206000209081019282156200022d579160200282015b828111156200022c5782518255916020019190600101906200020f565b5b5090506200023c919062000240565b5090565b5b808211156200025b57600081600090555060010162000241565b5090565b6000819050919050565b7f4e487b7100000000000000000000000000000000000000000000000000000000600052601160045260246000fd5b6000620002a5826200025f565b9150620002b2836200025f565b9250828202620002c2816200025f565b91508282048414831517620002dc57620002db62000269565b5b5092915050565b600080fd5b600073ffffffffffffffffffffffffffffffffffffffff82169050919050565b60006200031582620002e8565b9050919050565b620003278162000308565b81146200033357600080fd5b50565b60008151905062000347816200031c565b92915050565b600060208284031215620003665762000365620002e3565b5b6000620003768482850162000336565b91505092915050565b611cdd806200038f6000396000f3fe608060405234801561001057600080fd5b50600436106101735760003560e01c8063970388b5116100de578063be38341d11610097578063e289fcb611610071578063e289fcb614610419578063e43252d714610437578063f2fde38b14610453578063f9444fc31461046f57610173565b8063be38341d146103c3578063c1075329146103f3578063c47eb8d21461040f57610173565b8063970388b5146102c65780639b19251a146102e25780639d38696614610315578063a4d86f8914610333578063b162061614610363578063b2587d831461039357610173565b806378bb51641161013057806378bb51641461021457806381d5c205146102325780638473cc3a146102505780638c6025c51461026e5780638da5cb5b1461028a5780638e1de20c146102a857610173565b806302d45457146101785780630574070c146101965780631e27f9f6146101b45780632e0f2625146101d057806344729691146101ee578063715018a61461020a575b600080fd5b61018061048b565b60405161018d91906113db565b60405180910390f35b61019e6104b1565b6040516101ab919061140f565b60405180910390f35b6101ce60048036038101906101c9919061145b565b6104f8565b005b6101d861050a565b6040516101e5919061140f565b60405180910390f35b610208600480360381019061020391906114c6565b610510565b005b6102126105b9565b005b61021c6105cd565b604051610229919061140f565b60405180910390f35b61023a6105d3565b604051610247919061150e565b60405180910390f35b6102586105e6565b604051610265919061140f565b60405180910390f35b61028860048036038101906102839190611555565b6105ec565b005b610292610611565b60405161029f9190611591565b60405180910390f35b6102b061063a565b6040516102bd919061140f565b60405180910390f35b6102e060048036038101906102db9190611555565b61065d565b005b6102fc60048036038101906102f791906114c6565b610682565b60405161030c94939291906115ac565b60405180910390f35b61031d6106ff565b60405161032a919061140f565b60405180910390f35b61034d600480360381019061034891906114c6565b610705565b60405161035a919061140f565b60405180910390f35b61037d6004803603810190610378919061145b565b61071d565b60405161038a919061140f565b60405180910390f35b6103ad60048036038101906103a891906114c6565b610741565b6040516103ba919061140f565b60405180910390f35b6103dd60048036038101906103d8919061145b565b6107a3565b6040516103ea9190611591565b60405180910390f35b61040d600480360381019061040891906115f1565b6107e2565b005b61041761088f565b005b610421610af1565b60405161042e919061150e565b60405180910390f35b610451600480360381019061044c91906114c6565b610b04565b005b61046d600480360381019061046891906114c6565b610e10565b005b61048960048036038101906104849190611631565b610e93565b005b600160009054906101000a900473ffffffffffffffffffffffffffffffffffffffff1681565b6000606460085410156104c757600090506104f5565b60fa60085410156104db57600190506104f5565b6101f460085410156104f057600290506104f5565b600390505b90565b610500610fa8565b8060098190555050565b60025481565b610518610fa8565b600460008273ffffffffffffffffffffffffffffffffffffffff1673ffffffffffffffffffffffffffffffffffffffff16815260200190815260200160002060030160009054906101000a900460ff16156105a8576040517f08c379a000000000000000000000000000000000000000000000000000000000815260040161059f906116f4565b60405180910390fd5b6105b6816000806000611026565b50565b6105c1610fa8565b6105cb6000611290565b565b60085481565b600160149054906101000a900460ff1681565b60075481565b6105f4610fa8565b80600160146101000a81548160ff02191690831515021790555050565b60008060009054906101000a900473ffffffffffffffffffffffffffffffffffffffff16905090565b6000600254603260075461064e9190611743565b6106589190611743565b905090565b610665610fa8565b80600160156101000a81548160ff02191690831515021790555050565b60046020528060005260406000206000915090508060000160009054906101000a900473ffffffffffffffffffffffffffffffffffffffff16908060010160009054906101000a900473ffffffffffffffffffffffffffffffffffffffff16908060020154908060030160009054906101000a900460ff16905084565b60095481565b60066020528060005260406000206000915090505481565b6003818154811061072d57600080fd5b906000526020600020016000915090505481565b60006002546032600660008573ffffffffffffffffffffffffffffffffffffffff1673ffffffffffffffffffffffffffffffffffffffff168152602001908152602001600020546107929190611743565b61079c9190611743565b9050919050565b600581815481106107b357600080fd5b906000526020600020016000915054906101000a900473ffffffffffffffffffffffffffffffffffffffff1681565b6107ea610fa8565b600160009054906101000a900473ffffffffffffffffffffffffffffffffffffffff1673ffffffffffffffffffffffffffffffffffffffff1663a9059cbb83836040518363ffffffff1660e01b8152600401610847929190611785565b6020604051808303816000875af1158015610866573d6000803e3d6000fd5b505050506040513d601f19601f8201168201806040525081019061088a91906117c3565b505050565b600160149054906101000a900460ff166108de576040517f08c379a00000000000000000000000000000000000000000000000000000000081526004016108d59061183c565b60405180910390fd5b6000600660003373ffffffffffffffffffffffffffffffffffffffff1673ffffffffffffffffffffffffffffffffffffffff1681526020019081526020016000205411610960576040517f08c379a0000000000000000000000000000000000000000000000000000000008152600401610957906118a8565b60405180910390fd5b600061096b33610741565b90506000600660003373ffffffffffffffffffffffffffffffffffffffff1673ffffffffffffffffffffffffffffffffffffffff16815260200190815260200160002081905550600660003373ffffffffffffffffffffffffffffffffffffffff1673ffffffffffffffffffffffffffffffffffffffff1681526020019081526020016000205460076000828254610a0391906118c8565b92505081905550600160009054906101000a900473ffffffffffffffffffffffffffffffffffffffff1673ffffffffffffffffffffffffffffffffffffffff1663a9059cbb33836040518363ffffffff1660e01b8152600401610a67929190611785565b6020604051808303816000875af1158015610a86573d6000803e3d6000fd5b505050506040513d601f19601f82011682018060405250810190610aaa91906117c3565b503373ffffffffffffffffffffffffffffffffffffffff167fd03a333578b3bec046a21391622c18e0b54a2006f8720f38a8dc70f8e28c0d0e60405160405180910390a250565b600160159054906101000a900460ff1681565b600160159054906101000a900460ff16610b53576040517f08c379a0000000000000000000000000000000000000000000000000000000008152600401610b4a90611948565b60405180910390fd5b60095460085410610b99576040517f08c379a0000000000000000000000000000000000000000000000000000000008152600401610b90906119b4565b60405180910390fd5b600460003373ffffffffffffffffffffffffffffffffffffffff1673ffffffffffffffffffffffffffffffffffffffff16815260200190815260200160002060030160009054906101000a900460ff1615610c29576040517f08c379a0000000000000000000000000000000000000000000000000000000008152600401610c20906116f4565b60405180910390fd5b3373ffffffffffffffffffffffffffffffffffffffff168173ffffffffffffffffffffffffffffffffffffffff1603610c97576040517f08c379a0000000000000000000000000000000000000000000000000000000008152600401610c8e90611a20565b60405180910390fd5b6000600460008373ffffffffffffffffffffffffffffffffffffffff1673ffffffffffffffffffffffffffffffffffffffff16815260200190815260200160002060030160009054906101000a900460ff1615610d0e5781905060076000815480929190610d0490611a40565b9190505550610d13565b600090505b6000610d1d6104b1565b9050600160009054906101000a900473ffffffffffffffffffffffffffffffffffffffff1673ffffffffffffffffffffffffffffffffffffffff166323b872dd333060038581548110610d7357610d72611a88565b5b90600052602060002001546040518463ffffffff1660e01b8152600401610d9c93929190611ab7565b6020604051808303816000875af1158015610dbb573d6000803e3d6000fd5b505050506040513d601f19601f82011682018060405250810190610ddf91906117c3565b50610e0b338360038481548110610df957610df8611a88565b5b90600052602060002001546001611026565b505050565b610e18610fa8565b600073ffffffffffffffffffffffffffffffffffffffff168173ffffffffffffffffffffffffffffffffffffffff1603610e87576040517f08c379a0000000000000000000000000000000000000000000000000000000008152600401610e7e90611b60565b60405180910390fd5b610e9081611290565b50565b610e9b610fa8565b600460008373ffffffffffffffffffffffffffffffffffffffff1673ffffffffffffffffffffffffffffffffffffffff16815260200190815260200160002060030160009054906101000a900460ff16610f2a576040517f08c379a0000000000000000000000000000000000000000000000000000000008152600401610f2190611bf2565b60405180910390fd5b6000600460008473ffffffffffffffffffffffffffffffffffffffff1673ffffffffffffffffffffffffffffffffffffffff16815260200190815260200160002060030160006101000a81548160ff0219169083151502179055508015610fa45760086000815480929190610f9e90611c12565b91905055505b5050565b610fb0611354565b73ffffffffffffffffffffffffffffffffffffffff16610fce610611565b73ffffffffffffffffffffffffffffffffffffffff1614611024576040517f08c379a000000000000000000000000000000000000000000000000000000000815260040161101b90611c87565b60405180910390fd5b565b60405180608001604052808573ffffffffffffffffffffffffffffffffffffffff1681526020018473ffffffffffffffffffffffffffffffffffffffff16815260200183815260200160011515815250600460008673ffffffffffffffffffffffffffffffffffffffff1673ffffffffffffffffffffffffffffffffffffffff16815260200190815260200160002060008201518160000160006101000a81548173ffffffffffffffffffffffffffffffffffffffff021916908373ffffffffffffffffffffffffffffffffffffffff16021790555060208201518160010160006101000a81548173ffffffffffffffffffffffffffffffffffffffff021916908373ffffffffffffffffffffffffffffffffffffffff1602179055506040820151816002015560608201518160030160006101000a81548160ff0219169083151502179055509050506005849080600181540180825580915050600190039060005260206000200160009091909190916101000a81548173ffffffffffffffffffffffffffffffffffffffff021916908373ffffffffffffffffffffffffffffffffffffffff16021790555080156111f257600860008154809291906111ec90611a40565b91905055505b600660008473ffffffffffffffffffffffffffffffffffffffff1673ffffffffffffffffffffffffffffffffffffffff168152602001908152602001600020600081548092919061124290611a40565b91905055508373ffffffffffffffffffffffffffffffffffffffff167f4790a4adb426ca2345bb5108f6e454eae852a7bf687544cd66a7270dff3a41d660405160405180910390a250505050565b60008060009054906101000a900473ffffffffffffffffffffffffffffffffffffffff169050816000806101000a81548173ffffffffffffffffffffffffffffffffffffffff021916908373ffffffffffffffffffffffffffffffffffffffff1602179055508173ffffffffffffffffffffffffffffffffffffffff168173ffffffffffffffffffffffffffffffffffffffff167f8be0079c531659141344cd1fd0a4f28419497f9722a3daafe3b4186f6b6457e060405160405180910390a35050565b600033905090565b600073ffffffffffffffffffffffffffffffffffffffff82169050919050565b6000819050919050565b60006113a161139c6113978461135c565b61137c565b61135c565b9050919050565b60006113b382611386565b9050919050565b60006113c5826113a8565b9050919050565b6113d5816113ba565b82525050565b60006020820190506113f060008301846113cc565b92915050565b6000819050919050565b611409816113f6565b82525050565b60006020820190506114246000830184611400565b92915050565b600080fd5b611438816113f6565b811461144357600080fd5b50565b6000813590506114558161142f565b92915050565b6000602082840312156114715761147061142a565b5b600061147f84828501611446565b91505092915050565b60006114938261135c565b9050919050565b6114a381611488565b81146114ae57600080fd5b50565b6000813590506114c08161149a565b92915050565b6000602082840312156114dc576114db61142a565b5b60006114ea848285016114b1565b91505092915050565b60008115159050919050565b611508816114f3565b82525050565b600060208201905061152360008301846114ff565b92915050565b611532816114f3565b811461153d57600080fd5b50565b60008135905061154f81611529565b92915050565b60006020828403121561156b5761156a61142a565b5b600061157984828501611540565b91505092915050565b61158b81611488565b82525050565b60006020820190506115a66000830184611582565b92915050565b60006080820190506115c16000830187611582565b6115ce6020830186611582565b6115db6040830185611400565b6115e860608301846114ff565b95945050505050565b600080604083850312156116085761160761142a565b5b6000611616858286016114b1565b925050602061162785828601611446565b9150509250929050565b600080604083850312156116485761164761142a565b5b6000611656858286016114b1565b925050602061166785828601611540565b9150509250929050565b600082825260208201905092915050565b7f4164647265737320616c7265616479207265676973746572656420666f72207760008201527f686974656c697374000000000000000000000000000000000000000000000000602082015250565b60006116de602883611671565b91506116e982611682565b604082019050919050565b6000602082019050818103600083015261170d816116d1565b9050919050565b7f4e487b7100000000000000000000000000000000000000000000000000000000600052601160045260246000fd5b600061174e826113f6565b9150611759836113f6565b9250828202611767816113f6565b9150828204841483151761177e5761177d611714565b5b5092915050565b600060408201905061179a6000830185611582565b6117a76020830184611400565b9392505050565b6000815190506117bd81611529565b92915050565b6000602082840312156117d9576117d861142a565b5b60006117e7848285016117ae565b91505092915050565b7f46756e64207769746864726177616c732061726520636c6f7365640000000000600082015250565b6000611826601b83611671565b9150611831826117f0565b602082019050919050565b6000602082019050818103600083015261185581611819565b9050919050565b7f4e6f20726566657272616c7320666f756e640000000000000000000000000000600082015250565b6000611892601283611671565b915061189d8261185c565b602082019050919050565b600060208201905081810360008301526118c181611885565b9050919050565b60006118d3826113f6565b91506118de836113f6565b92508282039050818111156118f6576118f5611714565b5b92915050565b7f436f6e7472616374206973206e6f742061637469766500000000000000000000600082015250565b6000611932601683611671565b915061193d826118fc565b602082019050919050565b6000602082019050818103600083015261196181611925565b9050919050565b7f536f7272792c2077686974656c6973742069732066756c6c0000000000000000600082015250565b600061199e601883611671565b91506119a982611968565b602082019050919050565b600060208201905081810360008301526119cd81611991565b9050919050565b7f596f752063616e6e6f7420726566657220796f757273656c6600000000000000600082015250565b6000611a0a601983611671565b9150611a15826119d4565b602082019050919050565b60006020820190508181036000830152611a39816119fd565b9050919050565b6000611a4b826113f6565b91507fffffffffffffffffffffffffffffffffffffffffffffffffffffffffffffffff8203611a7d57611a7c611714565b5b600182019050919050565b7f4e487b7100000000000000000000000000000000000000000000000000000000600052603260045260246000fd5b6000606082019050611acc6000830186611582565b611ad96020830185611582565b611ae66040830184611400565b949350505050565b7f4f776e61626c653a206e6577206f776e657220697320746865207a65726f206160008201527f6464726573730000000000000000000000000000000000000000000000000000602082015250565b6000611b4a602683611671565b9150611b5582611aee565b604082019050919050565b60006020820190508181036000830152611b7981611b3d565b9050919050565b7f41646472657373206e6f74207265676973746572656420666f7220776869746560008201527f6c69737400000000000000000000000000000000000000000000000000000000602082015250565b6000611bdc602483611671565b9150611be782611b80565b604082019050919050565b60006020820190508181036000830152611c0b81611bcf565b9050919050565b6000611c1d826113f6565b915060008203611c3057611c2f611714565b5b600182039050919050565b7f4f776e61626c653a2063616c6c6572206973206e6f7420746865206f776e6572600082015250565b6000611c71602083611671565b9150611c7c82611c3b565b602082019050919050565b60006020820190508181036000830152611ca081611c64565b905091905056fea2646970667358221220d8d47ee157c03aa1266229b8e22092756f231f0cd45e124f6548acde816ee70364736f6c63430008110033",
  "immutableReferences": {},
  "source": "// SPDX-License-Identifier: MIT\npragma solidity >=0.4.22 <0.9.0;\n\nimport \"@openzeppelin/contracts/access/Ownable.sol\";\nimport \"@openzeppelin/contracts/token/ERC20/ERC20.sol\";\n\ncontract WhitelistStacks is Ownable {\n  ERC20 public usdcAddress;\n  bool public openWithdrawals;\n  bool public contractActive;\n\n  uint public DECIMALS = 10**6;\n\n  uint [] public plans = [\n    100 * DECIMALS,\n    250 * DECIMALS,\n    500 * DECIMALS,\n    1000 * DECIMALS\n  ];\n\n  struct Account {\n    address accountAddress;\n    address referredBy;\n    uint amountPaid;\n    bool exists;\n  }\n\n  mapping(address => Account) public whitelist;\n  address [] public whitelistArr; // for key identification\n  mapping(address => uint) public referralsLength;\n  uint public totalReferralCount;\n  uint public whitelistLength;\n  uint public maxListLength = 1000;\n\n  event WhitelistAdded(address indexed account);\n  event ReferralFeesPaid(address indexed account);\n\n  constructor(address _usdcAddress) {\n    usdcAddress = ERC20(_usdcAddress);\n  }\n\n  // make payment and add sender address to whitelist with according plan\n  function addToWhitelist(address _referredBy) public {\n    require(contractActive, \"Contract is not active\");\n    require(whitelistLength < maxListLength, \"Sorry, whitelist is full\");\n    require(!whitelist[msg.sender].exists, \"Address already registered for whitelist\");\n    require(_referredBy != msg.sender, \"You cannot refer yourself\");\n\n    // filter out referral if not registered\n    address referredBy;\n    if(whitelist[_referredBy].exists) {\n      referredBy = _referredBy;\n      totalReferralCount++;\n    }\n    else {\n      referredBy = address(0);\n    }\n\n    uint plan = currentPlan();\n    usdcAddress.transferFrom(msg.sender, address(this), plans[plan]);\n    addUserToList(msg.sender, referredBy, plans[plan], true);\n  }\n\n  function receiveReferral() public {\n    require(openWithdrawals, \"Fund withdrawals are closed\");\n    require(referralsLength[msg.sender] > 0, \"No referrals found\");\n\n    uint amount = amountToPayToReferrer(msg.sender);\n    referralsLength[msg.sender] = 0;\n    totalReferralCount -= referralsLength[msg.sender];\n    usdcAddress.transfer(msg.sender, amount);\n    emit ReferralFeesPaid(msg.sender);\n  }\n\n  function currentPlan() public view returns(uint) {\n    if(whitelistLength < 100) {\n      return 0;\n    } else if(whitelistLength < 250) {\n      return 1;\n    } else if(whitelistLength < 500) {\n      return 2;\n    } else {\n      return 3;\n    }\n  }\n\n  function amountToPayToReferrer(address _user) public view returns(uint) {\n    return referralsLength[_user] * 50 * DECIMALS;\n  }\n\n  // Admin functions\n  function setOpenWithdrawals(bool _openWithdrawals) public onlyOwner {\n    openWithdrawals = _openWithdrawals;\n  }\n\n  function withdrawFunds(address to, uint amount) public onlyOwner {\n    usdcAddress.transfer(to, amount);\n  }\n\n  function setMaxListLength(uint _maxListLength) public onlyOwner {\n    maxListLength = _maxListLength;\n  }\n\n  function setContractActive(bool _value) public onlyOwner {\n    contractActive = _value;\n  }\n\n  function addToWhitelistAdmin(address _user) public onlyOwner {\n    require(!whitelist[_user].exists, \"Address already registered for whitelist\");\n    addUserToList(_user, address(0), 0, false);\n  }\n\n  function removeUserFromWhitelist(address _user, bool decrementLength) public onlyOwner {\n    require(whitelist[_user].exists, \"Address not registered for whitelist\");\n    whitelist[_user].exists = false;\n    if(decrementLength) { whitelistLength--; }\n  }\n\n  function totalLeftToPayReferrals() public view returns(uint) {\n    return totalReferralCount * 50 * DECIMALS;\n  }\n\n  function addUserToList(address _user, address _referredBy, uint _amountPaid, bool increment) private {\n    whitelist[_user] = Account({\n      accountAddress: _user,\n      referredBy: _referredBy,\n      amountPaid: _amountPaid,\n      exists: true\n    });\n    whitelistArr.push(_user);\n    if(increment) { whitelistLength++; }\n    referralsLength[_referredBy]++;\n    emit WhitelistAdded(_user);\n  }\n}\n\n",
  "sourcePath": "/Users/bruno/dev/crypto/stacks/contracts/WhitelistStacks.sol",
  "compiler": {
    "name": "solc",
    "version": "0.8.17+commit.8df45f5f.Emscripten.clang"
  },
  "schemaVersion": "3.4.10",
  "updatedAt": "2023-02-17T14:26:34.670Z",
  "networkType": "ethereum",
  "devdoc": {
    "kind": "dev",
    "methods": {
      "owner()": {
        "details": "Returns the address of the current owner."
      },
      "renounceOwnership()": {
        "details": "Leaves the contract without owner. It will not be possible to call `onlyOwner` functions anymore. Can only be called by the current owner. NOTE: Renouncing ownership will leave the contract without an owner, thereby removing any functionality that is only available to the owner."
      },
      "transferOwnership(address)": {
        "details": "Transfers ownership of the contract to a new account (`newOwner`). Can only be called by the current owner."
      }
    },
    "version": 1
  },
  "userdoc": {
    "kind": "user",
    "methods": {},
    "version": 1
  }
}