{
  "contractName": "WhitelistData",
  "abi": [
    {
      "anonymous": false,
      "inputs": [
        {
          "indexed": true,
          "internalType": "address",
          "name": "previousOwner",
          "type": "address"
        },
        {
          "indexed": true,
          "internalType": "address",
          "name": "newOwner",
          "type": "address"
        }
      ],
      "name": "OwnershipTransferred",
      "type": "event"
    },
    {
      "inputs": [
        {
          "internalType": "address",
          "name": "",
          "type": "address"
        }
      ],
      "name": "accounts",
      "outputs": [
        {
          "internalType": "uint256",
          "name": "tokenId",
          "type": "uint256"
        },
        {
          "internalType": "bool",
          "name": "exists",
          "type": "bool"
        }
      ],
      "stateMutability": "view",
      "type": "function",
      "constant": true
    },
    {
      "inputs": [],
      "name": "owner",
      "outputs": [
        {
          "internalType": "address",
          "name": "",
          "type": "address"
        }
      ],
      "stateMutability": "view",
      "type": "function",
      "constant": true
    },
    {
      "inputs": [],
      "name": "renounceOwnership",
      "outputs": [],
      "stateMutability": "nonpayable",
      "type": "function"
    },
    {
      "inputs": [],
      "name": "startOfWl",
      "outputs": [
        {
          "internalType": "uint256",
          "name": "",
          "type": "uint256"
        }
      ],
      "stateMutability": "view",
      "type": "function",
      "constant": true
    },
    {
      "inputs": [
        {
          "internalType": "address",
          "name": "newOwner",
          "type": "address"
        }
      ],
      "name": "transferOwnership",
      "outputs": [],
      "stateMutability": "nonpayable",
      "type": "function"
    },
    {
      "inputs": [],
      "name": "wlDataLength",
      "outputs": [
        {
          "internalType": "uint256",
          "name": "",
          "type": "uint256"
        }
      ],
      "stateMutability": "view",
      "type": "function",
      "constant": true
    },
    {
      "inputs": [],
      "name": "wlLength",
      "outputs": [
        {
          "internalType": "uint256",
          "name": "",
          "type": "uint256"
        }
      ],
      "stateMutability": "view",
      "type": "function",
      "constant": true
    },
    {
      "inputs": [
        {
          "internalType": "address[]",
          "name": "_accounts",
          "type": "address[]"
        }
      ],
      "name": "bulkAddWhitelistAccounts",
      "outputs": [],
      "stateMutability": "nonpayable",
      "type": "function"
    },
    {
      "inputs": [
        {
          "internalType": "address",
          "name": "_account",
          "type": "address"
        }
      ],
      "name": "addWhitelistAccount",
      "outputs": [],
      "stateMutability": "nonpayable",
      "type": "function"
    },
    {
      "inputs": [
        {
          "internalType": "address",
          "name": "_account",
          "type": "address"
        }
      ],
      "name": "getWhitelistAccount",
      "outputs": [
        {
          "components": [
            {
              "internalType": "uint256",
              "name": "tokenId",
              "type": "uint256"
            },
            {
              "internalType": "bool",
              "name": "exists",
              "type": "bool"
            }
          ],
          "internalType": "struct WhitelistData.Account",
          "name": "",
          "type": "tuple"
        }
      ],
      "stateMutability": "view",
      "type": "function",
      "constant": true
    }
  ],
  "bytecode": "0x6080604052606d600155600154610fa96100199190610154565b600255600060035534801561002d57600080fd5b5061004a61003f61004f60201b60201c565b61005760201b60201c565b610188565b600033905090565b60008060009054906101000a900473ffffffffffffffffffffffffffffffffffffffff169050816000806101000a81548173ffffffffffffffffffffffffffffffffffffffff021916908373ffffffffffffffffffffffffffffffffffffffff1602179055508173ffffffffffffffffffffffffffffffffffffffff168173ffffffffffffffffffffffffffffffffffffffff167f8be0079c531659141344cd1fd0a4f28419497f9722a3daafe3b4186f6b6457e060405160405180910390a35050565b6000819050919050565b7f4e487b7100000000000000000000000000000000000000000000000000000000600052601160045260246000fd5b600061015f8261011b565b915061016a8361011b565b925082820390508181111561018257610181610125565b5b92915050565b610bc2806101976000396000f3fe608060405234801561001057600080fd5b506004361061009e5760003560e01c8063715018a611610066578063715018a6146101485780637553e639146101525780638da5cb5b14610182578063a86874a0146101a0578063f2fde38b146101be5761009e565b80631927fe14146100a3578063341cd3ab146100bf5780634abd1269146100db57806352bee984146100f95780635e5c06e214610117575b600080fd5b6100bd60048036038101906100b891906106ca565b6101da565b005b6100d960048036038101906100d49190610850565b610283565b005b6100e3610371565b6040516100f091906108b2565b60405180910390f35b610101610377565b60405161010e91906108b2565b60405180910390f35b610131600480360381019061012c91906106ca565b61037d565b60405161013f9291906108e8565b60405180910390f35b6101506103ae565b005b61016c600480360381019061016791906106ca565b6103c2565b604051610179919061095e565b60405180910390f35b61018a610440565b6040516101979190610988565b60405180910390f35b6101a8610469565b6040516101b591906108b2565b60405180910390f35b6101d860048036038101906101d391906106ca565b61046f565b005b6101e26104f2565b6040518060400160405280600354815260200160011515815250600460008373ffffffffffffffffffffffffffffffffffffffff1673ffffffffffffffffffffffffffffffffffffffff1681526020019081526020016000206000820151816000015560208201518160010160006101000a81548160ff0219169083151502179055509050506003600081548092919061027b906109d2565b919050555050565b61028b6104f2565b60005b815181101561036d576040518060400160405280826002546102b09190610a1a565b815260200160011515815250600460008484815181106102d3576102d2610a4e565b5b602002602001015173ffffffffffffffffffffffffffffffffffffffff1673ffffffffffffffffffffffffffffffffffffffff1681526020019081526020016000206000820151816000015560208201518160010160006101000a81548160ff02191690831515021790555090505060036000815480929190610355906109d2565b91905055508080610365906109d2565b91505061028e565b5050565b60015481565b60035481565b60046020528060005260406000206000915090508060000154908060010160009054906101000a900460ff16905082565b6103b66104f2565b6103c06000610570565b565b6103ca61063c565b600460008373ffffffffffffffffffffffffffffffffffffffff1673ffffffffffffffffffffffffffffffffffffffff168152602001908152602001600020604051806040016040529081600082015481526020016001820160009054906101000a900460ff1615151515815250509050919050565b60008060009054906101000a900473ffffffffffffffffffffffffffffffffffffffff16905090565b60025481565b6104776104f2565b600073ffffffffffffffffffffffffffffffffffffffff168173ffffffffffffffffffffffffffffffffffffffff16036104e6576040517f08c379a00000000000000000000000000000000000000000000000000000000081526004016104dd90610b00565b60405180910390fd5b6104ef81610570565b50565b6104fa610634565b73ffffffffffffffffffffffffffffffffffffffff16610518610440565b73ffffffffffffffffffffffffffffffffffffffff161461056e576040517f08c379a000000000000000000000000000000000000000000000000000000000815260040161056590610b6c565b60405180910390fd5b565b60008060009054906101000a900473ffffffffffffffffffffffffffffffffffffffff169050816000806101000a81548173ffffffffffffffffffffffffffffffffffffffff021916908373ffffffffffffffffffffffffffffffffffffffff1602179055508173ffffffffffffffffffffffffffffffffffffffff168173ffffffffffffffffffffffffffffffffffffffff167f8be0079c531659141344cd1fd0a4f28419497f9722a3daafe3b4186f6b6457e060405160405180910390a35050565b600033905090565b6040518060400160405280600081526020016000151581525090565b6000604051905090565b600080fd5b600080fd5b600073ffffffffffffffffffffffffffffffffffffffff82169050919050565b60006106978261066c565b9050919050565b6106a78161068c565b81146106b257600080fd5b50565b6000813590506106c48161069e565b92915050565b6000602082840312156106e0576106df610662565b5b60006106ee848285016106b5565b91505092915050565b600080fd5b6000601f19601f8301169050919050565b7f4e487b7100000000000000000000000000000000000000000000000000000000600052604160045260246000fd5b610745826106fc565b810181811067ffffffffffffffff821117156107645761076361070d565b5b80604052505050565b6000610777610658565b9050610783828261073c565b919050565b600067ffffffffffffffff8211156107a3576107a261070d565b5b602082029050602081019050919050565b600080fd5b60006107cc6107c784610788565b61076d565b905080838252602082019050602084028301858111156107ef576107ee6107b4565b5b835b81811015610818578061080488826106b5565b8452602084019350506020810190506107f1565b5050509392505050565b600082601f830112610837576108366106f7565b5b81356108478482602086016107b9565b91505092915050565b60006020828403121561086657610865610662565b5b600082013567ffffffffffffffff81111561088457610883610667565b5b61089084828501610822565b91505092915050565b6000819050919050565b6108ac81610899565b82525050565b60006020820190506108c760008301846108a3565b92915050565b60008115159050919050565b6108e2816108cd565b82525050565b60006040820190506108fd60008301856108a3565b61090a60208301846108d9565b9392505050565b61091a81610899565b82525050565b610929816108cd565b82525050565b6040820160008201516109456000850182610911565b5060208201516109586020850182610920565b50505050565b6000604082019050610973600083018461092f565b92915050565b6109828161068c565b82525050565b600060208201905061099d6000830184610979565b92915050565b7f4e487b7100000000000000000000000000000000000000000000000000000000600052601160045260246000fd5b60006109dd82610899565b91507fffffffffffffffffffffffffffffffffffffffffffffffffffffffffffffffff8203610a0f57610a0e6109a3565b5b600182019050919050565b6000610a2582610899565b9150610a3083610899565b9250828201905080821115610a4857610a476109a3565b5b92915050565b7f4e487b7100000000000000000000000000000000000000000000000000000000600052603260045260246000fd5b600082825260208201905092915050565b7f4f776e61626c653a206e6577206f776e657220697320746865207a65726f206160008201527f6464726573730000000000000000000000000000000000000000000000000000602082015250565b6000610aea602683610a7d565b9150610af582610a8e565b604082019050919050565b60006020820190508181036000830152610b1981610add565b9050919050565b7f4f776e61626c653a2063616c6c6572206973206e6f7420746865206f776e6572600082015250565b6000610b56602083610a7d565b9150610b6182610b20565b602082019050919050565b60006020820190508181036000830152610b8581610b49565b905091905056fea26469706673582212208b320d8f3e6323928c5a1166627b98a138e14298b98a19602a7236ffe807058564736f6c63430008110033",
  "immutableReferences": {},
  "source": "// SPDX-License-Identifier: MIT\npragma solidity >=0.4.22 <0.9.0;\n\nimport \"@openzeppelin/contracts/access/Ownable.sol\";\nimport \"@openzeppelin/contracts/token/ERC20/ERC20.sol\";\n\ncontract WhitelistData is Ownable {\n  // Whitelist will have the last IDs not to disturb the auction contract\n  uint public wlLength = 109;\n  uint public startOfWl = 4009 - wlLength;\n  uint public wlDataLength = 0;\n\n  struct Account {\n    uint tokenId;\n    bool exists;\n  }\n\n  mapping(address => Account) public accounts;\n\n  function bulkAddWhitelistAccounts(address[] memory _accounts) public onlyOwner {\n    for(uint i = 0; i < _accounts.length; i++) {\n      accounts[_accounts[i]] = Account(startOfWl + i, true);\n      wlDataLength++;\n    }\n  }\n\n  function addWhitelistAccount(address _account) public onlyOwner {\n    accounts[_account] = Account(wlDataLength, true);\n    wlDataLength++;\n  }\n\n  function getWhitelistAccount(address _account) public view returns (Account memory) {\n    return accounts[_account];\n  }\n}\n",
  "sourcePath": "/Users/bruno/dev/crypto/stacks/contracts/WhitelistData.sol",
  "compiler": {
    "name": "solc",
    "version": "0.8.17+commit.8df45f5f.Emscripten.clang"
  },
  "schemaVersion": "3.4.10",
  "updatedAt": "2023-02-17T15:43:47.348Z",
  "networkType": "ethereum",
  "devdoc": {
    "kind": "dev",
    "methods": {
      "owner()": {
        "details": "Returns the address of the current owner."
      },
      "renounceOwnership()": {
        "details": "Leaves the contract without owner. It will not be possible to call `onlyOwner` functions anymore. Can only be called by the current owner. NOTE: Renouncing ownership will leave the contract without an owner, thereby removing any functionality that is only available to the owner."
      },
      "transferOwnership(address)": {
        "details": "Transfers ownership of the contract to a new account (`newOwner`). Can only be called by the current owner."
      }
    },
    "version": 1
  },
  "userdoc": {
    "kind": "user",
    "methods": {},
    "version": 1
  }
}