{
  "contractName": "WhitelistData",
  "abi": [
    {
      "anonymous": false,
      "inputs": [
        {
          "indexed": true,
          "internalType": "address",
          "name": "previousOwner",
          "type": "address"
        },
        {
          "indexed": true,
          "internalType": "address",
          "name": "newOwner",
          "type": "address"
        }
      ],
      "name": "OwnershipTransferred",
      "type": "event"
    },
    {
      "inputs": [
        {
          "internalType": "address",
          "name": "",
          "type": "address"
        }
      ],
      "name": "accounts",
      "outputs": [
        {
          "internalType": "uint256",
          "name": "tokenId",
          "type": "uint256"
        },
        {
          "internalType": "bool",
          "name": "exists",
          "type": "bool"
        }
      ],
      "stateMutability": "view",
      "type": "function"
    },
    {
      "inputs": [],
      "name": "owner",
      "outputs": [
        {
          "internalType": "address",
          "name": "",
          "type": "address"
        }
      ],
      "stateMutability": "view",
      "type": "function"
    },
    {
      "inputs": [],
      "name": "renounceOwnership",
      "outputs": [],
      "stateMutability": "nonpayable",
      "type": "function"
    },
    {
      "inputs": [
        {
          "internalType": "address",
          "name": "newOwner",
          "type": "address"
        }
      ],
      "name": "transferOwnership",
      "outputs": [],
      "stateMutability": "nonpayable",
      "type": "function"
    },
    {
      "inputs": [
        {
          "internalType": "address[]",
          "name": "_accounts",
          "type": "address[]"
        }
      ],
      "name": "bulkAddWhitelistAccounts",
      "outputs": [],
      "stateMutability": "nonpayable",
      "type": "function"
    },
    {
      "inputs": [
        {
          "internalType": "address",
          "name": "_account",
          "type": "address"
        },
        {
          "internalType": "uint256",
          "name": "_tokenId",
          "type": "uint256"
        }
      ],
      "name": "addWhitelistAccount",
      "outputs": [],
      "stateMutability": "nonpayable",
      "type": "function"
    },
    {
      "inputs": [
        {
          "internalType": "address",
          "name": "_account",
          "type": "address"
        }
      ],
      "name": "getWhitelistAccount",
      "outputs": [
        {
          "components": [
            {
              "internalType": "uint256",
              "name": "tokenId",
              "type": "uint256"
            },
            {
              "internalType": "bool",
              "name": "exists",
              "type": "bool"
            }
          ],
          "internalType": "struct WhitelistData.Account",
          "name": "",
          "type": "tuple"
        }
      ],
      "stateMutability": "view",
      "type": "function"
    }
  ],
  "bytecode": "0x608060405234801561001057600080fd5b5061002d61002261003260201b60201c565b61003a60201b60201c565b6100fe565b600033905090565b60008060009054906101000a900473ffffffffffffffffffffffffffffffffffffffff169050816000806101000a81548173ffffffffffffffffffffffffffffffffffffffff021916908373ffffffffffffffffffffffffffffffffffffffff1602179055508173ffffffffffffffffffffffffffffffffffffffff168173ffffffffffffffffffffffffffffffffffffffff167f8be0079c531659141344cd1fd0a4f28419497f9722a3daafe3b4186f6b6457e060405160405180910390a35050565b610b148061010d6000396000f3fe608060405234801561001057600080fd5b506004361061007d5760003560e01c8063715018a61161005b578063715018a6146100eb5780637553e639146100f55780638da5cb5b14610125578063f2fde38b146101435761007d565b8063341cd3ab146100825780635e5c06e21461009e57806360b0d313146100cf575b600080fd5b61009c60048036038101906100979190610758565b61015f565b005b6100b860048036038101906100b391906107a1565b610228565b6040516100c6929190610802565b60405180910390f35b6100e960048036038101906100e49190610857565b610259565b005b6100f36102e9565b005b61010f600480360381019061010a91906107a1565b6102fd565b60405161011c91906108e4565b60405180910390f35b61012d61037b565b60405161013a919061090e565b60405180910390f35b61015d600480360381019061015891906107a1565b6103a4565b005b610167610427565b60005b815181101561022457604051806040016040528082815260200160011515815250600160008484815181106101a2576101a1610929565b5b602002602001015173ffffffffffffffffffffffffffffffffffffffff1673ffffffffffffffffffffffffffffffffffffffff1681526020019081526020016000206000820151816000015560208201518160010160006101000a81548160ff021916908315150217905550905050808061021c90610987565b91505061016a565b5050565b60016020528060005260406000206000915090508060000154908060010160009054906101000a900460ff16905082565b610261610427565b604051806040016040528082815260200160011515815250600160008473ffffffffffffffffffffffffffffffffffffffff1673ffffffffffffffffffffffffffffffffffffffff1681526020019081526020016000206000820151816000015560208201518160010160006101000a81548160ff0219169083151502179055509050505050565b6102f1610427565b6102fb60006104a5565b565b610305610571565b600160008373ffffffffffffffffffffffffffffffffffffffff1673ffffffffffffffffffffffffffffffffffffffff168152602001908152602001600020604051806040016040529081600082015481526020016001820160009054906101000a900460ff1615151515815250509050919050565b60008060009054906101000a900473ffffffffffffffffffffffffffffffffffffffff16905090565b6103ac610427565b600073ffffffffffffffffffffffffffffffffffffffff168173ffffffffffffffffffffffffffffffffffffffff160361041b576040517f08c379a000000000000000000000000000000000000000000000000000000000815260040161041290610a52565b60405180910390fd5b610424816104a5565b50565b61042f610569565b73ffffffffffffffffffffffffffffffffffffffff1661044d61037b565b73ffffffffffffffffffffffffffffffffffffffff16146104a3576040517f08c379a000000000000000000000000000000000000000000000000000000000815260040161049a90610abe565b60405180910390fd5b565b60008060009054906101000a900473ffffffffffffffffffffffffffffffffffffffff169050816000806101000a81548173ffffffffffffffffffffffffffffffffffffffff021916908373ffffffffffffffffffffffffffffffffffffffff1602179055508173ffffffffffffffffffffffffffffffffffffffff168173ffffffffffffffffffffffffffffffffffffffff167f8be0079c531659141344cd1fd0a4f28419497f9722a3daafe3b4186f6b6457e060405160405180910390a35050565b600033905090565b6040518060400160405280600081526020016000151581525090565b6000604051905090565b600080fd5b600080fd5b600080fd5b6000601f19601f8301169050919050565b7f4e487b7100000000000000000000000000000000000000000000000000000000600052604160045260246000fd5b6105ef826105a6565b810181811067ffffffffffffffff8211171561060e5761060d6105b7565b5b80604052505050565b600061062161058d565b905061062d82826105e6565b919050565b600067ffffffffffffffff82111561064d5761064c6105b7565b5b602082029050602081019050919050565b600080fd5b600073ffffffffffffffffffffffffffffffffffffffff82169050919050565b600061068e82610663565b9050919050565b61069e81610683565b81146106a957600080fd5b50565b6000813590506106bb81610695565b92915050565b60006106d46106cf84610632565b610617565b905080838252602082019050602084028301858111156106f7576106f661065e565b5b835b81811015610720578061070c88826106ac565b8452602084019350506020810190506106f9565b5050509392505050565b600082601f83011261073f5761073e6105a1565b5b813561074f8482602086016106c1565b91505092915050565b60006020828403121561076e5761076d610597565b5b600082013567ffffffffffffffff81111561078c5761078b61059c565b5b6107988482850161072a565b91505092915050565b6000602082840312156107b7576107b6610597565b5b60006107c5848285016106ac565b91505092915050565b6000819050919050565b6107e1816107ce565b82525050565b60008115159050919050565b6107fc816107e7565b82525050565b600060408201905061081760008301856107d8565b61082460208301846107f3565b9392505050565b610834816107ce565b811461083f57600080fd5b50565b6000813590506108518161082b565b92915050565b6000806040838503121561086e5761086d610597565b5b600061087c858286016106ac565b925050602061088d85828601610842565b9150509250929050565b6108a0816107ce565b82525050565b6108af816107e7565b82525050565b6040820160008201516108cb6000850182610897565b5060208201516108de60208501826108a6565b50505050565b60006040820190506108f960008301846108b5565b92915050565b61090881610683565b82525050565b600060208201905061092360008301846108ff565b92915050565b7f4e487b7100000000000000000000000000000000000000000000000000000000600052603260045260246000fd5b7f4e487b7100000000000000000000000000000000000000000000000000000000600052601160045260246000fd5b6000610992826107ce565b91507fffffffffffffffffffffffffffffffffffffffffffffffffffffffffffffffff82036109c4576109c3610958565b5b600182019050919050565b600082825260208201905092915050565b7f4f776e61626c653a206e6577206f776e657220697320746865207a65726f206160008201527f6464726573730000000000000000000000000000000000000000000000000000602082015250565b6000610a3c6026836109cf565b9150610a47826109e0565b604082019050919050565b60006020820190508181036000830152610a6b81610a2f565b9050919050565b7f4f776e61626c653a2063616c6c6572206973206e6f7420746865206f776e6572600082015250565b6000610aa86020836109cf565b9150610ab382610a72565b602082019050919050565b60006020820190508181036000830152610ad781610a9b565b905091905056fea26469706673582212203b824e0e98929b8687a0e9d92b226b2fa0f00fae76719160755575c91a3531ad64736f6c63430008110033",
  "immutableReferences": {},
  "source": "// SPDX-License-Identifier: MIT\npragma solidity >=0.4.22 <0.9.0;\n\nimport \"@openzeppelin/contracts/access/Ownable.sol\";\nimport \"@openzeppelin/contracts/token/ERC20/ERC20.sol\";\n\ncontract WhitelistData is Ownable {\n  struct Account {\n    uint tokenId;\n    bool exists;\n  }\n\n  mapping(address => Account) public accounts;\n\n  function bulkAddWhitelistAccounts(address[] memory _accounts) public onlyOwner {\n    for(uint i = 0; i < _accounts.length; i++) {\n      accounts[_accounts[i]] = Account(i, true);\n    }\n  }\n\n  function addWhitelistAccount(address _account, uint _tokenId) public onlyOwner {\n    accounts[_account] = Account(_tokenId, true);\n  }\n\n  function getWhitelistAccount(address _account) public view returns (Account memory) {\n    return accounts[_account];\n  }\n}\n",
  "sourcePath": "/Users/bruno/dev/crypto/stacks/contracts/WhitelistData.sol",
  "compiler": {
    "name": "solc",
    "version": "0.8.17+commit.8df45f5f.Emscripten.clang"
  },
  "schemaVersion": "3.4.10",
  "updatedAt": "2023-02-08T17:40:23.978Z",
  "devdoc": {
    "kind": "dev",
    "methods": {
      "owner()": {
        "details": "Returns the address of the current owner."
      },
      "renounceOwnership()": {
        "details": "Leaves the contract without owner. It will not be possible to call `onlyOwner` functions anymore. Can only be called by the current owner. NOTE: Renouncing ownership will leave the contract without an owner, thereby removing any functionality that is only available to the owner."
      },
      "transferOwnership(address)": {
        "details": "Transfers ownership of the contract to a new account (`newOwner`). Can only be called by the current owner."
      }
    },
    "version": 1
  },
  "userdoc": {
    "kind": "user",
    "methods": {},
    "version": 1
  }
}