{
  "contractName": "WhitelistStacks",
  "abi": [
    {
      "inputs": [
        {
          "internalType": "address",
          "name": "_usdcAddress",
          "type": "address"
        }
      ],
      "stateMutability": "nonpayable",
      "type": "constructor"
    },
    {
      "anonymous": false,
      "inputs": [
        {
          "indexed": true,
          "internalType": "address",
          "name": "previousOwner",
          "type": "address"
        },
        {
          "indexed": true,
          "internalType": "address",
          "name": "newOwner",
          "type": "address"
        }
      ],
      "name": "OwnershipTransferred",
      "type": "event"
    },
    {
      "anonymous": false,
      "inputs": [
        {
          "indexed": true,
          "internalType": "address",
          "name": "account",
          "type": "address"
        }
      ],
      "name": "ReferralFeesPaid",
      "type": "event"
    },
    {
      "anonymous": false,
      "inputs": [
        {
          "indexed": true,
          "internalType": "address",
          "name": "account",
          "type": "address"
        }
      ],
      "name": "WhitelistAdded",
      "type": "event"
    },
    {
      "inputs": [],
      "name": "DECIMALS",
      "outputs": [
        {
          "internalType": "uint256",
          "name": "",
          "type": "uint256"
        }
      ],
      "stateMutability": "view",
      "type": "function",
      "constant": true
    },
    {
      "inputs": [],
      "name": "maxListLength",
      "outputs": [
        {
          "internalType": "uint256",
          "name": "",
          "type": "uint256"
        }
      ],
      "stateMutability": "view",
      "type": "function",
      "constant": true
    },
    {
      "inputs": [],
      "name": "owner",
      "outputs": [
        {
          "internalType": "address",
          "name": "",
          "type": "address"
        }
      ],
      "stateMutability": "view",
      "type": "function",
      "constant": true
    },
    {
      "inputs": [
        {
          "internalType": "uint256",
          "name": "",
          "type": "uint256"
        }
      ],
      "name": "plans",
      "outputs": [
        {
          "internalType": "uint256",
          "name": "",
          "type": "uint256"
        }
      ],
      "stateMutability": "view",
      "type": "function",
      "constant": true
    },
    {
      "inputs": [
        {
          "internalType": "address",
          "name": "",
          "type": "address"
        }
      ],
      "name": "referralsLength",
      "outputs": [
        {
          "internalType": "uint256",
          "name": "",
          "type": "uint256"
        }
      ],
      "stateMutability": "view",
      "type": "function",
      "constant": true
    },
    {
      "inputs": [],
      "name": "renounceOwnership",
      "outputs": [],
      "stateMutability": "nonpayable",
      "type": "function"
    },
    {
      "inputs": [
        {
          "internalType": "address",
          "name": "newOwner",
          "type": "address"
        }
      ],
      "name": "transferOwnership",
      "outputs": [],
      "stateMutability": "nonpayable",
      "type": "function"
    },
    {
      "inputs": [],
      "name": "usdcAddress",
      "outputs": [
        {
          "internalType": "contract ERC20",
          "name": "",
          "type": "address"
        }
      ],
      "stateMutability": "view",
      "type": "function",
      "constant": true
    },
    {
      "inputs": [
        {
          "internalType": "address",
          "name": "",
          "type": "address"
        }
      ],
      "name": "whitelist",
      "outputs": [
        {
          "internalType": "address",
          "name": "accountAddress",
          "type": "address"
        },
        {
          "internalType": "address",
          "name": "referredBy",
          "type": "address"
        },
        {
          "internalType": "uint256",
          "name": "amountPaid",
          "type": "uint256"
        },
        {
          "internalType": "bool",
          "name": "exists",
          "type": "bool"
        }
      ],
      "stateMutability": "view",
      "type": "function",
      "constant": true
    },
    {
      "inputs": [
        {
          "internalType": "uint256",
          "name": "",
          "type": "uint256"
        }
      ],
      "name": "whitelistArr",
      "outputs": [
        {
          "internalType": "address",
          "name": "",
          "type": "address"
        }
      ],
      "stateMutability": "view",
      "type": "function",
      "constant": true
    },
    {
      "inputs": [],
      "name": "whitelistLength",
      "outputs": [
        {
          "internalType": "uint256",
          "name": "",
          "type": "uint256"
        }
      ],
      "stateMutability": "view",
      "type": "function",
      "constant": true
    },
    {
      "inputs": [
        {
          "internalType": "address",
          "name": "_referredBy",
          "type": "address"
        }
      ],
      "name": "addToWhitelist",
      "outputs": [],
      "stateMutability": "nonpayable",
      "type": "function"
    },
    {
      "inputs": [],
      "name": "receiveReferral",
      "outputs": [],
      "stateMutability": "nonpayable",
      "type": "function"
    },
    {
      "inputs": [],
      "name": "currentPlan",
      "outputs": [
        {
          "internalType": "uint256",
          "name": "",
          "type": "uint256"
        }
      ],
      "stateMutability": "view",
      "type": "function",
      "constant": true
    },
    {
      "inputs": [
        {
          "internalType": "address",
          "name": "_user",
          "type": "address"
        }
      ],
      "name": "amountToPayToReferrer",
      "outputs": [
        {
          "internalType": "uint256",
          "name": "",
          "type": "uint256"
        }
      ],
      "stateMutability": "view",
      "type": "function",
      "constant": true
    },
    {
      "inputs": [
        {
          "internalType": "bool",
          "name": "_openWithdrawals",
          "type": "bool"
        }
      ],
      "name": "setOpenWithdrawals",
      "outputs": [],
      "stateMutability": "nonpayable",
      "type": "function"
    },
    {
      "inputs": [
        {
          "internalType": "address",
          "name": "to",
          "type": "address"
        },
        {
          "internalType": "uint256",
          "name": "amount",
          "type": "uint256"
        }
      ],
      "name": "withdrawFunds",
      "outputs": [],
      "stateMutability": "nonpayable",
      "type": "function"
    },
    {
      "inputs": [
        {
          "internalType": "uint256",
          "name": "_maxListLength",
          "type": "uint256"
        }
      ],
      "name": "setMaxListLength",
      "outputs": [],
      "stateMutability": "nonpayable",
      "type": "function"
    },
    {
      "inputs": [
        {
          "internalType": "bool",
          "name": "_value",
          "type": "bool"
        }
      ],
      "name": "setContractActive",
      "outputs": [],
      "stateMutability": "nonpayable",
      "type": "function"
    },
    {
      "inputs": [
        {
          "internalType": "address",
          "name": "_user",
          "type": "address"
        }
      ],
      "name": "addToWhitelistAdmin",
      "outputs": [],
      "stateMutability": "nonpayable",
      "type": "function"
    }
  ],
  "bytecode": "0x6080604052620f42406002556040518060800160405280600254606462000027919062000298565b815260200160025460fa6200003d919062000298565b81526020016002546101f462000054919062000298565b81526020016002546103e86200006b919062000298565b815250600390600462000080929190620001ee565b506103e86008553480156200009457600080fd5b5060405162001cd538038062001cd58339818101604052810190620000ba91906200034d565b620000da620000ce6200012260201b60201c565b6200012a60201b60201c565b80600160006101000a81548173ffffffffffffffffffffffffffffffffffffffff021916908373ffffffffffffffffffffffffffffffffffffffff160217905550506200037f565b600033905090565b60008060009054906101000a900473ffffffffffffffffffffffffffffffffffffffff169050816000806101000a81548173ffffffffffffffffffffffffffffffffffffffff021916908373ffffffffffffffffffffffffffffffffffffffff1602179055508173ffffffffffffffffffffffffffffffffffffffff168173ffffffffffffffffffffffffffffffffffffffff167f8be0079c531659141344cd1fd0a4f28419497f9722a3daafe3b4186f6b6457e060405160405180910390a35050565b8280548282559060005260206000209081019282156200022d579160200282015b828111156200022c5782518255916020019190600101906200020f565b5b5090506200023c919062000240565b5090565b5b808211156200025b57600081600090555060010162000241565b5090565b6000819050919050565b7f4e487b7100000000000000000000000000000000000000000000000000000000600052601160045260246000fd5b6000620002a5826200025f565b9150620002b2836200025f565b9250828202620002c2816200025f565b91508282048414831517620002dc57620002db62000269565b5b5092915050565b600080fd5b600073ffffffffffffffffffffffffffffffffffffffff82169050919050565b60006200031582620002e8565b9050919050565b620003278162000308565b81146200033357600080fd5b50565b60008151905062000347816200031c565b92915050565b600060208284031215620003665762000365620002e3565b5b6000620003768482850162000336565b91505092915050565b611946806200038f6000396000f3fe608060405234801561001057600080fd5b506004361061012c5760003560e01c80639b19251a116100ad578063be38341d11610071578063be38341d14610322578063c107532914610352578063c47eb8d21461036e578063e43252d714610378578063f2fde38b146103945761012c565b80639b19251a146102415780639d38696614610274578063a4d86f8914610292578063b1620616146102c2578063b2587d83146102f25761012c565b8063715018a6116100f4578063715018a6146101c357806378bb5164146101cd5780638c6025c5146101eb5780638da5cb5b14610207578063970388b5146102255761012c565b806302d45457146101315780630574070c1461014f5780631e27f9f61461016d5780632e0f26251461018957806344729691146101a7575b600080fd5b6101396103b0565b604051610146919061115a565b60405180910390f35b6101576103d6565b604051610164919061118e565b60405180910390f35b610187600480360381019061018291906111da565b61041d565b005b61019161042f565b60405161019e919061118e565b60405180910390f35b6101c160048036038101906101bc9190611245565b610435565b005b6101cb6104dc565b005b6101d56104f0565b6040516101e2919061118e565b60405180910390f35b610205600480360381019061020091906112aa565b6104f6565b005b61020f61051b565b60405161021c91906112e6565b60405180910390f35b61023f600480360381019061023a91906112aa565b610544565b005b61025b60048036038101906102569190611245565b610569565b60405161026b9493929190611310565b60405180910390f35b61027c6105e6565b604051610289919061118e565b60405180910390f35b6102ac60048036038101906102a79190611245565b6105ec565b6040516102b9919061118e565b60405180910390f35b6102dc60048036038101906102d791906111da565b610604565b6040516102e9919061118e565b60405180910390f35b61030c60048036038101906103079190611245565b610628565b604051610319919061118e565b60405180910390f35b61033c600480360381019061033791906111da565b61068a565b60405161034991906112e6565b60405180910390f35b61036c60048036038101906103679190611355565b6106c9565b005b610376610776565b005b610392600480360381019061038d9190611245565b610980565b005b6103ae60048036038101906103a99190611245565b610c72565b005b600160009054906101000a900473ffffffffffffffffffffffffffffffffffffffff1681565b6000606460075410156103ec576000905061041a565b60fa6007541015610400576001905061041a565b6101f46007541015610415576002905061041a565b600390505b90565b610425610cf5565b8060088190555050565b60025481565b61043d610cf5565b600460008273ffffffffffffffffffffffffffffffffffffffff1673ffffffffffffffffffffffffffffffffffffffff16815260200190815260200160002060030160009054906101000a900460ff16156104cd576040517f08c379a00000000000000000000000000000000000000000000000000000000081526004016104c490611418565b60405180910390fd5b6104d981600080610d73565b50565b6104e4610cf5565b6104ee600061100f565b565b60075481565b6104fe610cf5565b80600160146101000a81548160ff02191690831515021790555050565b60008060009054906101000a900473ffffffffffffffffffffffffffffffffffffffff16905090565b61054c610cf5565b80600160156101000a81548160ff02191690831515021790555050565b60046020528060005260406000206000915090508060000160009054906101000a900473ffffffffffffffffffffffffffffffffffffffff16908060010160009054906101000a900473ffffffffffffffffffffffffffffffffffffffff16908060020154908060030160009054906101000a900460ff16905084565b60085481565b60066020528060005260406000206000915090505481565b6003818154811061061457600080fd5b906000526020600020016000915090505481565b60006002546032600660008573ffffffffffffffffffffffffffffffffffffffff1673ffffffffffffffffffffffffffffffffffffffff168152602001908152602001600020546106799190611467565b6106839190611467565b9050919050565b6005818154811061069a57600080fd5b906000526020600020016000915054906101000a900473ffffffffffffffffffffffffffffffffffffffff1681565b6106d1610cf5565b600160009054906101000a900473ffffffffffffffffffffffffffffffffffffffff1673ffffffffffffffffffffffffffffffffffffffff1663a9059cbb83836040518363ffffffff1660e01b815260040161072e9291906114a9565b6020604051808303816000875af115801561074d573d6000803e3d6000fd5b505050506040513d601f19601f8201168201806040525081019061077191906114e7565b505050565b600160149054906101000a900460ff166107c5576040517f08c379a00000000000000000000000000000000000000000000000000000000081526004016107bc90611560565b60405180910390fd5b6000600660003373ffffffffffffffffffffffffffffffffffffffff1673ffffffffffffffffffffffffffffffffffffffff1681526020019081526020016000205411610847576040517f08c379a000000000000000000000000000000000000000000000000000000000815260040161083e906115cc565b60405180910390fd5b600061085233610628565b90506000600660003373ffffffffffffffffffffffffffffffffffffffff1673ffffffffffffffffffffffffffffffffffffffff16815260200190815260200160002081905550600160009054906101000a900473ffffffffffffffffffffffffffffffffffffffff1673ffffffffffffffffffffffffffffffffffffffff1663a9059cbb33836040518363ffffffff1660e01b81526004016108f69291906114a9565b6020604051808303816000875af1158015610915573d6000803e3d6000fd5b505050506040513d601f19601f8201168201806040525081019061093991906114e7565b503373ffffffffffffffffffffffffffffffffffffffff167fd03a333578b3bec046a21391622c18e0b54a2006f8720f38a8dc70f8e28c0d0e60405160405180910390a250565b600160159054906101000a900460ff166109cf576040517f08c379a00000000000000000000000000000000000000000000000000000000081526004016109c690611638565b60405180910390fd5b60085460075410610a15576040517f08c379a0000000000000000000000000000000000000000000000000000000008152600401610a0c906116a4565b60405180910390fd5b600460003373ffffffffffffffffffffffffffffffffffffffff1673ffffffffffffffffffffffffffffffffffffffff16815260200190815260200160002060030160009054906101000a900460ff1615610aa5576040517f08c379a0000000000000000000000000000000000000000000000000000000008152600401610a9c90611418565b60405180910390fd5b3373ffffffffffffffffffffffffffffffffffffffff168173ffffffffffffffffffffffffffffffffffffffff1603610b13576040517f08c379a0000000000000000000000000000000000000000000000000000000008152600401610b0a90611710565b60405180910390fd5b6000600460008373ffffffffffffffffffffffffffffffffffffffff1673ffffffffffffffffffffffffffffffffffffffff16815260200190815260200160002060030160009054906101000a900460ff1615610b7257819050610b77565b600090505b6000610b816103d6565b9050600160009054906101000a900473ffffffffffffffffffffffffffffffffffffffff1673ffffffffffffffffffffffffffffffffffffffff166323b872dd333060038581548110610bd757610bd6611730565b5b90600052602060002001546040518463ffffffff1660e01b8152600401610c009392919061175f565b6020604051808303816000875af1158015610c1f573d6000803e3d6000fd5b505050506040513d601f19601f82011682018060405250810190610c4391906114e7565b50610c6d338360038481548110610c5d57610c5c611730565b5b9060005260206000200154610d73565b505050565b610c7a610cf5565b600073ffffffffffffffffffffffffffffffffffffffff168173ffffffffffffffffffffffffffffffffffffffff1603610ce9576040517f08c379a0000000000000000000000000000000000000000000000000000000008152600401610ce090611808565b60405180910390fd5b610cf28161100f565b50565b610cfd6110d3565b73ffffffffffffffffffffffffffffffffffffffff16610d1b61051b565b73ffffffffffffffffffffffffffffffffffffffff1614610d71576040517f08c379a0000000000000000000000000000000000000000000000000000000008152600401610d6890611874565b60405180910390fd5b565b60405180608001604052808473ffffffffffffffffffffffffffffffffffffffff1681526020018373ffffffffffffffffffffffffffffffffffffffff16815260200182815260200160011515815250600460008573ffffffffffffffffffffffffffffffffffffffff1673ffffffffffffffffffffffffffffffffffffffff16815260200190815260200160002060008201518160000160006101000a81548173ffffffffffffffffffffffffffffffffffffffff021916908373ffffffffffffffffffffffffffffffffffffffff16021790555060208201518160010160006101000a81548173ffffffffffffffffffffffffffffffffffffffff021916908373ffffffffffffffffffffffffffffffffffffffff1602179055506040820151816002015560608201518160030160006101000a81548160ff0219169083151502179055509050506005839080600181540180825580915050600190039060005260206000200160009091909190916101000a81548173ffffffffffffffffffffffffffffffffffffffff021916908373ffffffffffffffffffffffffffffffffffffffff16021790555060076000815480929190610f3390611894565b91905055506001600660008473ffffffffffffffffffffffffffffffffffffffff1673ffffffffffffffffffffffffffffffffffffffff16815260200190815260200160002054610f8491906118dc565b600660008473ffffffffffffffffffffffffffffffffffffffff1673ffffffffffffffffffffffffffffffffffffffff168152602001908152602001600020819055508273ffffffffffffffffffffffffffffffffffffffff167f4790a4adb426ca2345bb5108f6e454eae852a7bf687544cd66a7270dff3a41d660405160405180910390a2505050565b60008060009054906101000a900473ffffffffffffffffffffffffffffffffffffffff169050816000806101000a81548173ffffffffffffffffffffffffffffffffffffffff021916908373ffffffffffffffffffffffffffffffffffffffff1602179055508173ffffffffffffffffffffffffffffffffffffffff168173ffffffffffffffffffffffffffffffffffffffff167f8be0079c531659141344cd1fd0a4f28419497f9722a3daafe3b4186f6b6457e060405160405180910390a35050565b600033905090565b600073ffffffffffffffffffffffffffffffffffffffff82169050919050565b6000819050919050565b600061112061111b611116846110db565b6110fb565b6110db565b9050919050565b600061113282611105565b9050919050565b600061114482611127565b9050919050565b61115481611139565b82525050565b600060208201905061116f600083018461114b565b92915050565b6000819050919050565b61118881611175565b82525050565b60006020820190506111a3600083018461117f565b92915050565b600080fd5b6111b781611175565b81146111c257600080fd5b50565b6000813590506111d4816111ae565b92915050565b6000602082840312156111f0576111ef6111a9565b5b60006111fe848285016111c5565b91505092915050565b6000611212826110db565b9050919050565b61122281611207565b811461122d57600080fd5b50565b60008135905061123f81611219565b92915050565b60006020828403121561125b5761125a6111a9565b5b600061126984828501611230565b91505092915050565b60008115159050919050565b61128781611272565b811461129257600080fd5b50565b6000813590506112a48161127e565b92915050565b6000602082840312156112c0576112bf6111a9565b5b60006112ce84828501611295565b91505092915050565b6112e081611207565b82525050565b60006020820190506112fb60008301846112d7565b92915050565b61130a81611272565b82525050565b600060808201905061132560008301876112d7565b61133260208301866112d7565b61133f604083018561117f565b61134c6060830184611301565b95945050505050565b6000806040838503121561136c5761136b6111a9565b5b600061137a85828601611230565b925050602061138b858286016111c5565b9150509250929050565b600082825260208201905092915050565b7f4164647265737320616c7265616479207265676973746572656420666f72207760008201527f686974656c697374000000000000000000000000000000000000000000000000602082015250565b6000611402602883611395565b915061140d826113a6565b604082019050919050565b60006020820190508181036000830152611431816113f5565b9050919050565b7f4e487b7100000000000000000000000000000000000000000000000000000000600052601160045260246000fd5b600061147282611175565b915061147d83611175565b925082820261148b81611175565b915082820484148315176114a2576114a1611438565b5b5092915050565b60006040820190506114be60008301856112d7565b6114cb602083018461117f565b9392505050565b6000815190506114e18161127e565b92915050565b6000602082840312156114fd576114fc6111a9565b5b600061150b848285016114d2565b91505092915050565b7f46756e64207769746864726177616c732061726520636c6f7365640000000000600082015250565b600061154a601b83611395565b915061155582611514565b602082019050919050565b600060208201905081810360008301526115798161153d565b9050919050565b7f4e6f20726566657272616c7320666f756e640000000000000000000000000000600082015250565b60006115b6601283611395565b91506115c182611580565b602082019050919050565b600060208201905081810360008301526115e5816115a9565b9050919050565b7f436f6e7472616374206973206e6f742061637469766500000000000000000000600082015250565b6000611622601683611395565b915061162d826115ec565b602082019050919050565b6000602082019050818103600083015261165181611615565b9050919050565b7f536f7272792c2077686974656c6973742069732066756c6c0000000000000000600082015250565b600061168e601883611395565b915061169982611658565b602082019050919050565b600060208201905081810360008301526116bd81611681565b9050919050565b7f596f752063616e6e6f7420726566657220796f757273656c6600000000000000600082015250565b60006116fa601983611395565b9150611705826116c4565b602082019050919050565b60006020820190508181036000830152611729816116ed565b9050919050565b7f4e487b7100000000000000000000000000000000000000000000000000000000600052603260045260246000fd5b600060608201905061177460008301866112d7565b61178160208301856112d7565b61178e604083018461117f565b949350505050565b7f4f776e61626c653a206e6577206f776e657220697320746865207a65726f206160008201527f6464726573730000000000000000000000000000000000000000000000000000602082015250565b60006117f2602683611395565b91506117fd82611796565b604082019050919050565b60006020820190508181036000830152611821816117e5565b9050919050565b7f4f776e61626c653a2063616c6c6572206973206e6f7420746865206f776e6572600082015250565b600061185e602083611395565b915061186982611828565b602082019050919050565b6000602082019050818103600083015261188d81611851565b9050919050565b600061189f82611175565b91507fffffffffffffffffffffffffffffffffffffffffffffffffffffffffffffffff82036118d1576118d0611438565b5b600182019050919050565b60006118e782611175565b91506118f283611175565b925082820190508082111561190a57611909611438565b5b9291505056fea26469706673582212206cfb80400014c2fee3649d0cd139fdeb0453cd3c5e723c417d66e76f8327667764736f6c63430008110033",
  "immutableReferences": {},
  "source": "// SPDX-License-Identifier: MIT\npragma solidity >=0.4.22 <0.9.0;\n\nimport \"@openzeppelin/contracts/access/Ownable.sol\";\nimport \"@openzeppelin/contracts/token/ERC20/ERC20.sol\";\n\ncontract WhitelistStacks is Ownable {\n  ERC20 public usdcAddress;\n  bool openWithdrawals;\n  bool contractActive;\n\n  uint public DECIMALS = 10**6;\n\n  uint [] public plans = [\n    100 * DECIMALS,\n    250 * DECIMALS,\n    500 * DECIMALS,\n    1000 * DECIMALS\n  ];\n\n  struct Account {\n    address accountAddress;\n    address referredBy;\n    uint amountPaid;\n    bool exists;\n  }\n\n  mapping(address => Account) public whitelist;\n  address [] public whitelistArr; // for key identification\n  mapping(address => uint) public referralsLength;\n  uint public whitelistLength;\n  uint public maxListLength = 1000;\n\n  event WhitelistAdded(address indexed account);\n  event ReferralFeesPaid(address indexed account);\n\n  constructor(address _usdcAddress) {\n    usdcAddress = ERC20(_usdcAddress);\n  }\n\n  // make payment and add sender address to whitelist with according plan\n  function addToWhitelist(address _referredBy) public {\n    require(contractActive, \"Contract is not active\");\n    require(whitelistLength < maxListLength, \"Sorry, whitelist is full\");\n    require(!whitelist[msg.sender].exists, \"Address already registered for whitelist\");\n    require(_referredBy != msg.sender, \"You cannot refer yourself\");\n\n    // filter out referral if not registered\n    address referredBy;\n    if(whitelist[_referredBy].exists) {\n      referredBy = _referredBy;\n    }\n    else {\n      referredBy = address(0);\n    }\n\n    uint plan = currentPlan();\n    usdcAddress.transferFrom(msg.sender, address(this), plans[plan]);\n    addUserToList(msg.sender, referredBy, plans[plan]);\n  }\n\n  function receiveReferral() public {\n    require(openWithdrawals, \"Fund withdrawals are closed\");\n    require(referralsLength[msg.sender] > 0, \"No referrals found\");\n\n    uint amount = amountToPayToReferrer(msg.sender);\n    referralsLength[msg.sender] = 0;\n    usdcAddress.transfer(msg.sender, amount);\n    emit ReferralFeesPaid(msg.sender);\n  }\n\n  function currentPlan() public view returns(uint) {\n    if(whitelistLength < 100) {\n      return 0;\n    } else if(whitelistLength < 250) {\n      return 1;\n    } else if(whitelistLength < 500) {\n      return 2;\n    } else {\n      return 3;\n    }\n  }\n\n  function amountToPayToReferrer(address _user) public view returns(uint) {\n    return referralsLength[_user] * 50 * DECIMALS;\n  }\n\n  // Admin functions\n  function setOpenWithdrawals(bool _openWithdrawals) public onlyOwner {\n    openWithdrawals = _openWithdrawals;\n  }\n\n  function withdrawFunds(address to, uint amount) public onlyOwner {\n    usdcAddress.transfer(to, amount);\n  }\n\n  function setMaxListLength(uint _maxListLength) public onlyOwner {\n    maxListLength = _maxListLength;\n  }\n\n  function setContractActive(bool _value) public onlyOwner {\n    contractActive = _value;\n  }\n\n  function addToWhitelistAdmin(address _user) public onlyOwner {\n    require(!whitelist[_user].exists, \"Address already registered for whitelist\");\n    addUserToList(_user, address(0), 0);\n  }\n\n  function addUserToList(address _user, address _referredBy, uint _amountPaid) private {\n    whitelist[_user] = Account({\n      accountAddress: _user,\n      referredBy: _referredBy,\n      amountPaid: _amountPaid,\n      exists: true\n    });\n    whitelistArr.push(_user);\n    whitelistLength++;\n    referralsLength[_referredBy] = referralsLength[_referredBy] + 1;\n    emit WhitelistAdded(_user);\n  }\n}\n\n",
  "sourcePath": "/Users/bruno/dev/crypto/stacks/contracts/WhitelistStacks.sol",
  "compiler": {
    "name": "solc",
    "version": "0.8.17+commit.8df45f5f.Emscripten.clang"
  },
  "schemaVersion": "3.4.10",
  "updatedAt": "2022-11-28T17:32:16.720Z",
  "networkType": "ethereum",
  "devdoc": {
    "kind": "dev",
    "methods": {
      "owner()": {
        "details": "Returns the address of the current owner."
      },
      "renounceOwnership()": {
        "details": "Leaves the contract without owner. It will not be possible to call `onlyOwner` functions anymore. Can only be called by the current owner. NOTE: Renouncing ownership will leave the contract without an owner, thereby removing any functionality that is only available to the owner."
      },
      "transferOwnership(address)": {
        "details": "Transfers ownership of the contract to a new account (`newOwner`). Can only be called by the current owner."
      }
    },
    "version": 1
  },
  "userdoc": {
    "kind": "user",
    "methods": {},
    "version": 1
  }
}