{
  "contractName": "WhitelistStacks",
  "abi": [
    {
      "inputs": [
        {
          "internalType": "address",
          "name": "_usdcAddress",
          "type": "address"
        }
      ],
      "stateMutability": "nonpayable",
      "type": "constructor"
    },
    {
      "anonymous": false,
      "inputs": [
        {
          "indexed": true,
          "internalType": "address",
          "name": "previousOwner",
          "type": "address"
        },
        {
          "indexed": true,
          "internalType": "address",
          "name": "newOwner",
          "type": "address"
        }
      ],
      "name": "OwnershipTransferred",
      "type": "event"
    },
    {
      "anonymous": false,
      "inputs": [
        {
          "indexed": true,
          "internalType": "address",
          "name": "account",
          "type": "address"
        }
      ],
      "name": "ReferralFeesPaid",
      "type": "event"
    },
    {
      "anonymous": false,
      "inputs": [
        {
          "indexed": true,
          "internalType": "address",
          "name": "account",
          "type": "address"
        }
      ],
      "name": "WhitelistAdded",
      "type": "event"
    },
    {
      "inputs": [],
      "name": "DECIMALS",
      "outputs": [
        {
          "internalType": "uint256",
          "name": "",
          "type": "uint256"
        }
      ],
      "stateMutability": "view",
      "type": "function"
    },
    {
      "inputs": [],
      "name": "maxListLength",
      "outputs": [
        {
          "internalType": "uint256",
          "name": "",
          "type": "uint256"
        }
      ],
      "stateMutability": "view",
      "type": "function"
    },
    {
      "inputs": [],
      "name": "owner",
      "outputs": [
        {
          "internalType": "address",
          "name": "",
          "type": "address"
        }
      ],
      "stateMutability": "view",
      "type": "function"
    },
    {
      "inputs": [
        {
          "internalType": "uint256",
          "name": "",
          "type": "uint256"
        }
      ],
      "name": "plans",
      "outputs": [
        {
          "internalType": "uint256",
          "name": "",
          "type": "uint256"
        }
      ],
      "stateMutability": "view",
      "type": "function"
    },
    {
      "inputs": [
        {
          "internalType": "address",
          "name": "",
          "type": "address"
        }
      ],
      "name": "referralsLength",
      "outputs": [
        {
          "internalType": "uint256",
          "name": "",
          "type": "uint256"
        }
      ],
      "stateMutability": "view",
      "type": "function"
    },
    {
      "inputs": [],
      "name": "renounceOwnership",
      "outputs": [],
      "stateMutability": "nonpayable",
      "type": "function"
    },
    {
      "inputs": [
        {
          "internalType": "address",
          "name": "newOwner",
          "type": "address"
        }
      ],
      "name": "transferOwnership",
      "outputs": [],
      "stateMutability": "nonpayable",
      "type": "function"
    },
    {
      "inputs": [],
      "name": "usdcAddress",
      "outputs": [
        {
          "internalType": "contract ERC20",
          "name": "",
          "type": "address"
        }
      ],
      "stateMutability": "view",
      "type": "function"
    },
    {
      "inputs": [
        {
          "internalType": "address",
          "name": "",
          "type": "address"
        }
      ],
      "name": "whitelist",
      "outputs": [
        {
          "internalType": "address",
          "name": "accountAddress",
          "type": "address"
        },
        {
          "internalType": "address",
          "name": "referredBy",
          "type": "address"
        },
        {
          "internalType": "uint256",
          "name": "amountPaid",
          "type": "uint256"
        },
        {
          "internalType": "bool",
          "name": "exists",
          "type": "bool"
        }
      ],
      "stateMutability": "view",
      "type": "function"
    },
    {
      "inputs": [
        {
          "internalType": "uint256",
          "name": "",
          "type": "uint256"
        }
      ],
      "name": "whitelistArr",
      "outputs": [
        {
          "internalType": "address",
          "name": "",
          "type": "address"
        }
      ],
      "stateMutability": "view",
      "type": "function"
    },
    {
      "inputs": [],
      "name": "whitelistLength",
      "outputs": [
        {
          "internalType": "uint256",
          "name": "",
          "type": "uint256"
        }
      ],
      "stateMutability": "view",
      "type": "function"
    },
    {
      "inputs": [
        {
          "internalType": "address",
          "name": "_referredBy",
          "type": "address"
        }
      ],
      "name": "addToWhitelist",
      "outputs": [],
      "stateMutability": "nonpayable",
      "type": "function"
    },
    {
      "inputs": [],
      "name": "receiveReferral",
      "outputs": [],
      "stateMutability": "nonpayable",
      "type": "function"
    },
    {
      "inputs": [],
      "name": "currentPlan",
      "outputs": [
        {
          "internalType": "uint256",
          "name": "",
          "type": "uint256"
        }
      ],
      "stateMutability": "view",
      "type": "function"
    },
    {
      "inputs": [
        {
          "internalType": "address",
          "name": "_user",
          "type": "address"
        }
      ],
      "name": "amountToPayToReferrer",
      "outputs": [
        {
          "internalType": "uint256",
          "name": "",
          "type": "uint256"
        }
      ],
      "stateMutability": "view",
      "type": "function"
    },
    {
      "inputs": [
        {
          "internalType": "bool",
          "name": "_openWithdrawals",
          "type": "bool"
        }
      ],
      "name": "setOpenWithdrawals",
      "outputs": [],
      "stateMutability": "nonpayable",
      "type": "function"
    },
    {
      "inputs": [
        {
          "internalType": "address",
          "name": "to",
          "type": "address"
        },
        {
          "internalType": "uint256",
          "name": "amount",
          "type": "uint256"
        }
      ],
      "name": "withdrawFunds",
      "outputs": [],
      "stateMutability": "nonpayable",
      "type": "function"
    },
    {
      "inputs": [
        {
          "internalType": "uint256",
          "name": "_maxListLength",
          "type": "uint256"
        }
      ],
      "name": "setMaxListLength",
      "outputs": [],
      "stateMutability": "nonpayable",
      "type": "function"
    }
  ],
  "bytecode": "0x6080604052620f42406002556040518060800160405280600254606462000027919062000298565b815260200160025460fa6200003d919062000298565b81526020016002546101f462000054919062000298565b81526020016002546103e86200006b919062000298565b815250600390600462000080929190620001ee565b506103e86008553480156200009457600080fd5b5060405162001af038038062001af08339818101604052810190620000ba91906200034d565b620000da620000ce6200012260201b60201c565b6200012a60201b60201c565b80600160006101000a81548173ffffffffffffffffffffffffffffffffffffffff021916908373ffffffffffffffffffffffffffffffffffffffff160217905550506200037f565b600033905090565b60008060009054906101000a900473ffffffffffffffffffffffffffffffffffffffff169050816000806101000a81548173ffffffffffffffffffffffffffffffffffffffff021916908373ffffffffffffffffffffffffffffffffffffffff1602179055508173ffffffffffffffffffffffffffffffffffffffff168173ffffffffffffffffffffffffffffffffffffffff167f8be0079c531659141344cd1fd0a4f28419497f9722a3daafe3b4186f6b6457e060405160405180910390a35050565b8280548282559060005260206000209081019282156200022d579160200282015b828111156200022c5782518255916020019190600101906200020f565b5b5090506200023c919062000240565b5090565b5b808211156200025b57600081600090555060010162000241565b5090565b6000819050919050565b7f4e487b7100000000000000000000000000000000000000000000000000000000600052601160045260246000fd5b6000620002a5826200025f565b9150620002b2836200025f565b9250828202620002c2816200025f565b91508282048414831517620002dc57620002db62000269565b5b5092915050565b600080fd5b600073ffffffffffffffffffffffffffffffffffffffff82169050919050565b60006200031582620002e8565b9050919050565b620003278162000308565b81146200033357600080fd5b50565b60008151905062000347816200031c565b92915050565b600060208284031215620003665762000365620002e3565b5b6000620003768482850162000336565b91505092915050565b611761806200038f6000396000f3fe608060405234801561001057600080fd5b50600436106101165760003560e01c80639d386966116100a2578063be38341d11610071578063be38341d146102d4578063c107532914610304578063c47eb8d214610320578063e43252d71461032a578063f2fde38b1461034657610116565b80639d38696614610226578063a4d86f8914610244578063b162061614610274578063b2587d83146102a457610116565b8063715018a6116100e9578063715018a61461019157806378bb51641461019b5780638c6025c5146101b95780638da5cb5b146101d55780639b19251a146101f357610116565b806302d454571461011b5780630574070c146101395780631e27f9f6146101575780632e0f262514610173575b600080fd5b610123610362565b6040516101309190610fe1565b60405180910390f35b610141610388565b60405161014e9190611015565b60405180910390f35b610171600480360381019061016c9190611061565b6103cf565b005b61017b6103e1565b6040516101889190611015565b60405180910390f35b6101996103e7565b005b6101a36103fb565b6040516101b09190611015565b60405180910390f35b6101d360048036038101906101ce91906110c6565b610401565b005b6101dd610426565b6040516101ea9190611114565b60405180910390f35b61020d6004803603810190610208919061115b565b61044f565b60405161021d9493929190611197565b60405180910390f35b61022e6104cc565b60405161023b9190611015565b60405180910390f35b61025e6004803603810190610259919061115b565b6104d2565b60405161026b9190611015565b60405180910390f35b61028e60048036038101906102899190611061565b6104ea565b60405161029b9190611015565b60405180910390f35b6102be60048036038101906102b9919061115b565b61050e565b6040516102cb9190611015565b60405180910390f35b6102ee60048036038101906102e99190611061565b610570565b6040516102fb9190611114565b60405180910390f35b61031e600480360381019061031991906111dc565b6105af565b005b61032861065c565b005b610344600480360381019061033f919061115b565b610866565b005b610360600480360381019061035b919061115b565b610d95565b005b600160009054906101000a900473ffffffffffffffffffffffffffffffffffffffff1681565b60006064600754101561039e57600090506103cc565b60fa60075410156103b257600190506103cc565b6101f460075410156103c757600290506103cc565b600390505b90565b6103d7610e18565b8060088190555050565b60025481565b6103ef610e18565b6103f96000610e96565b565b60075481565b610409610e18565b80600160146101000a81548160ff02191690831515021790555050565b60008060009054906101000a900473ffffffffffffffffffffffffffffffffffffffff16905090565b60046020528060005260406000206000915090508060000160009054906101000a900473ffffffffffffffffffffffffffffffffffffffff16908060010160009054906101000a900473ffffffffffffffffffffffffffffffffffffffff16908060020154908060030160009054906101000a900460ff16905084565b60085481565b60066020528060005260406000206000915090505481565b600381815481106104fa57600080fd5b906000526020600020016000915090505481565b60006002546032600660008573ffffffffffffffffffffffffffffffffffffffff1673ffffffffffffffffffffffffffffffffffffffff1681526020019081526020016000205461055f919061124b565b610569919061124b565b9050919050565b6005818154811061058057600080fd5b906000526020600020016000915054906101000a900473ffffffffffffffffffffffffffffffffffffffff1681565b6105b7610e18565b600160009054906101000a900473ffffffffffffffffffffffffffffffffffffffff1673ffffffffffffffffffffffffffffffffffffffff1663a9059cbb83836040518363ffffffff1660e01b815260040161061492919061128d565b6020604051808303816000875af1158015610633573d6000803e3d6000fd5b505050506040513d601f19601f8201168201806040525081019061065791906112cb565b505050565b600160149054906101000a900460ff166106ab576040517f08c379a00000000000000000000000000000000000000000000000000000000081526004016106a290611355565b60405180910390fd5b6000600660003373ffffffffffffffffffffffffffffffffffffffff1673ffffffffffffffffffffffffffffffffffffffff168152602001908152602001600020541161072d576040517f08c379a0000000000000000000000000000000000000000000000000000000008152600401610724906113c1565b60405180910390fd5b60006107383361050e565b90506000600660003373ffffffffffffffffffffffffffffffffffffffff1673ffffffffffffffffffffffffffffffffffffffff16815260200190815260200160002081905550600160009054906101000a900473ffffffffffffffffffffffffffffffffffffffff1673ffffffffffffffffffffffffffffffffffffffff1663a9059cbb33836040518363ffffffff1660e01b81526004016107dc92919061128d565b6020604051808303816000875af11580156107fb573d6000803e3d6000fd5b505050506040513d601f19601f8201168201806040525081019061081f91906112cb565b503373ffffffffffffffffffffffffffffffffffffffff167fd03a333578b3bec046a21391622c18e0b54a2006f8720f38a8dc70f8e28c0d0e60405160405180910390a250565b600854600754106108ac576040517f08c379a00000000000000000000000000000000000000000000000000000000081526004016108a39061142d565b60405180910390fd5b600460003373ffffffffffffffffffffffffffffffffffffffff1673ffffffffffffffffffffffffffffffffffffffff16815260200190815260200160002060030160009054906101000a900460ff161561093c576040517f08c379a0000000000000000000000000000000000000000000000000000000008152600401610933906114bf565b60405180910390fd5b3373ffffffffffffffffffffffffffffffffffffffff168173ffffffffffffffffffffffffffffffffffffffff16036109aa576040517f08c379a00000000000000000000000000000000000000000000000000000000081526004016109a19061152b565b60405180910390fd5b60006109b4610388565b90506000600460008473ffffffffffffffffffffffffffffffffffffffff1673ffffffffffffffffffffffffffffffffffffffff16815260200190815260200160002060030160009054906101000a900460ff1615610a1557829050610a1a565b600090505b600160009054906101000a900473ffffffffffffffffffffffffffffffffffffffff1673ffffffffffffffffffffffffffffffffffffffff166323b872dd333060038681548110610a6e57610a6d61154b565b5b90600052602060002001546040518463ffffffff1660e01b8152600401610a979392919061157a565b6020604051808303816000875af1158015610ab6573d6000803e3d6000fd5b505050506040513d601f19601f82011682018060405250810190610ada91906112cb565b5060405180608001604052803373ffffffffffffffffffffffffffffffffffffffff1681526020018273ffffffffffffffffffffffffffffffffffffffff16815260200160038481548110610b3257610b3161154b565b5b9060005260206000200154815260200160011515815250600460003373ffffffffffffffffffffffffffffffffffffffff1673ffffffffffffffffffffffffffffffffffffffff16815260200190815260200160002060008201518160000160006101000a81548173ffffffffffffffffffffffffffffffffffffffff021916908373ffffffffffffffffffffffffffffffffffffffff16021790555060208201518160010160006101000a81548173ffffffffffffffffffffffffffffffffffffffff021916908373ffffffffffffffffffffffffffffffffffffffff1602179055506040820151816002015560608201518160030160006101000a81548160ff0219169083151502179055509050506005339080600181540180825580915050600190039060005260206000200160009091909190916101000a81548173ffffffffffffffffffffffffffffffffffffffff021916908373ffffffffffffffffffffffffffffffffffffffff16021790555060076000815480929190610cb9906115b1565b91905055506001600660008373ffffffffffffffffffffffffffffffffffffffff1673ffffffffffffffffffffffffffffffffffffffff16815260200190815260200160002054610d0a91906115f9565b600660008373ffffffffffffffffffffffffffffffffffffffff1673ffffffffffffffffffffffffffffffffffffffff168152602001908152602001600020819055503373ffffffffffffffffffffffffffffffffffffffff167f4790a4adb426ca2345bb5108f6e454eae852a7bf687544cd66a7270dff3a41d660405160405180910390a2505050565b610d9d610e18565b600073ffffffffffffffffffffffffffffffffffffffff168173ffffffffffffffffffffffffffffffffffffffff1603610e0c576040517f08c379a0000000000000000000000000000000000000000000000000000000008152600401610e039061169f565b60405180910390fd5b610e1581610e96565b50565b610e20610f5a565b73ffffffffffffffffffffffffffffffffffffffff16610e3e610426565b73ffffffffffffffffffffffffffffffffffffffff1614610e94576040517f08c379a0000000000000000000000000000000000000000000000000000000008152600401610e8b9061170b565b60405180910390fd5b565b60008060009054906101000a900473ffffffffffffffffffffffffffffffffffffffff169050816000806101000a81548173ffffffffffffffffffffffffffffffffffffffff021916908373ffffffffffffffffffffffffffffffffffffffff1602179055508173ffffffffffffffffffffffffffffffffffffffff168173ffffffffffffffffffffffffffffffffffffffff167f8be0079c531659141344cd1fd0a4f28419497f9722a3daafe3b4186f6b6457e060405160405180910390a35050565b600033905090565b600073ffffffffffffffffffffffffffffffffffffffff82169050919050565b6000819050919050565b6000610fa7610fa2610f9d84610f62565b610f82565b610f62565b9050919050565b6000610fb982610f8c565b9050919050565b6000610fcb82610fae565b9050919050565b610fdb81610fc0565b82525050565b6000602082019050610ff66000830184610fd2565b92915050565b6000819050919050565b61100f81610ffc565b82525050565b600060208201905061102a6000830184611006565b92915050565b600080fd5b61103e81610ffc565b811461104957600080fd5b50565b60008135905061105b81611035565b92915050565b60006020828403121561107757611076611030565b5b60006110858482850161104c565b91505092915050565b60008115159050919050565b6110a38161108e565b81146110ae57600080fd5b50565b6000813590506110c08161109a565b92915050565b6000602082840312156110dc576110db611030565b5b60006110ea848285016110b1565b91505092915050565b60006110fe82610f62565b9050919050565b61110e816110f3565b82525050565b60006020820190506111296000830184611105565b92915050565b611138816110f3565b811461114357600080fd5b50565b6000813590506111558161112f565b92915050565b60006020828403121561117157611170611030565b5b600061117f84828501611146565b91505092915050565b6111918161108e565b82525050565b60006080820190506111ac6000830187611105565b6111b96020830186611105565b6111c66040830185611006565b6111d36060830184611188565b95945050505050565b600080604083850312156111f3576111f2611030565b5b600061120185828601611146565b92505060206112128582860161104c565b9150509250929050565b7f4e487b7100000000000000000000000000000000000000000000000000000000600052601160045260246000fd5b600061125682610ffc565b915061126183610ffc565b925082820261126f81610ffc565b915082820484148315176112865761128561121c565b5b5092915050565b60006040820190506112a26000830185611105565b6112af6020830184611006565b9392505050565b6000815190506112c58161109a565b92915050565b6000602082840312156112e1576112e0611030565b5b60006112ef848285016112b6565b91505092915050565b600082825260208201905092915050565b7f46756e64207769746864726177616c732061726520636c6f7365640000000000600082015250565b600061133f601b836112f8565b915061134a82611309565b602082019050919050565b6000602082019050818103600083015261136e81611332565b9050919050565b7f4e6f20726566657272616c7320666f756e640000000000000000000000000000600082015250565b60006113ab6012836112f8565b91506113b682611375565b602082019050919050565b600060208201905081810360008301526113da8161139e565b9050919050565b7f536f7272792c2077686974656c6973742069732066756c6c0000000000000000600082015250565b60006114176018836112f8565b9150611422826113e1565b602082019050919050565b600060208201905081810360008301526114468161140a565b9050919050565b7f4164647265737320616c7265616479207265676973746572656420666f72207760008201527f686974656c697374000000000000000000000000000000000000000000000000602082015250565b60006114a96028836112f8565b91506114b48261144d565b604082019050919050565b600060208201905081810360008301526114d88161149c565b9050919050565b7f596f752063616e6e6f7420726566657220796f757273656c6600000000000000600082015250565b60006115156019836112f8565b9150611520826114df565b602082019050919050565b6000602082019050818103600083015261154481611508565b9050919050565b7f4e487b7100000000000000000000000000000000000000000000000000000000600052603260045260246000fd5b600060608201905061158f6000830186611105565b61159c6020830185611105565b6115a96040830184611006565b949350505050565b60006115bc82610ffc565b91507fffffffffffffffffffffffffffffffffffffffffffffffffffffffffffffffff82036115ee576115ed61121c565b5b600182019050919050565b600061160482610ffc565b915061160f83610ffc565b92508282019050808211156116275761162661121c565b5b92915050565b7f4f776e61626c653a206e6577206f776e657220697320746865207a65726f206160008201527f6464726573730000000000000000000000000000000000000000000000000000602082015250565b60006116896026836112f8565b91506116948261162d565b604082019050919050565b600060208201905081810360008301526116b88161167c565b9050919050565b7f4f776e61626c653a2063616c6c6572206973206e6f7420746865206f776e6572600082015250565b60006116f56020836112f8565b9150611700826116bf565b602082019050919050565b60006020820190508181036000830152611724816116e8565b905091905056fea2646970667358221220b130a8f3602e3125229890b0086b4c22d7fd9f2617ae01cf5a29752ff0ea8b5564736f6c63430008110033",
  "immutableReferences": {},
  "source": "// SPDX-License-Identifier: MIT\npragma solidity >=0.4.22 <0.9.0;\n\nimport \"@openzeppelin/contracts/access/Ownable.sol\";\nimport \"@openzeppelin/contracts/token/ERC20/ERC20.sol\";\n\ncontract WhitelistStacks is Ownable {\n  ERC20 public usdcAddress;\n  bool openWithdrawals;\n\n  uint public DECIMALS = 10**6;\n\n  uint [] public plans = [\n    100 * DECIMALS,\n    250 * DECIMALS,\n    500 * DECIMALS,\n    1000 * DECIMALS\n  ];\n\n  struct Account {\n    address accountAddress;\n    address referredBy;\n    uint amountPaid;\n    bool exists;\n  }\n\n  mapping(address => Account) public whitelist;\n  address [] public whitelistArr; // for key identification\n  mapping(address => uint) public referralsLength;\n  uint public whitelistLength;\n  uint public maxListLength = 1000;\n\n  event WhitelistAdded(address indexed account);\n  event ReferralFeesPaid(address indexed account);\n\n  constructor(address _usdcAddress) {\n    usdcAddress = ERC20(_usdcAddress);\n  }\n\n  // make payment and add sender address to whitelist with according plan\n  function addToWhitelist(address _referredBy) public {\n    require(whitelistLength < maxListLength, \"Sorry, whitelist is full\");\n    require(!whitelist[msg.sender].exists, \"Address already registered for whitelist\");\n    require(_referredBy != msg.sender, \"You cannot refer yourself\");\n\n    // select currect plan\n    uint plan = currentPlan();\n\n    // filter out referral if not registered\n    address referredBy;\n    if(whitelist[_referredBy].exists) {\n      referredBy = _referredBy;\n    }\n    else {\n      referredBy = address(0);\n    }\n\n    usdcAddress.transferFrom(msg.sender, address(this), plans[plan]);\n    whitelist[msg.sender] = Account({\n        accountAddress: msg.sender,\n        referredBy: referredBy,\n        amountPaid: plans[plan],\n        exists: true\n      });\n    whitelistArr.push(msg.sender);\n    whitelistLength++;\n    referralsLength[referredBy] = referralsLength[referredBy] + 1;\n    emit WhitelistAdded(msg.sender);\n  }\n\n  function receiveReferral() public {\n    require(openWithdrawals, \"Fund withdrawals are closed\");\n    require(referralsLength[msg.sender] > 0, \"No referrals found\");\n\n    uint amount = amountToPayToReferrer(msg.sender);\n    referralsLength[msg.sender] = 0;\n    usdcAddress.transfer(msg.sender, amount);\n    emit ReferralFeesPaid(msg.sender);\n  }\n\n  function currentPlan() public view returns(uint) {\n    if(whitelistLength < 100) {\n      return 0;\n    } else if(whitelistLength < 250) {\n      return 1;\n    } else if(whitelistLength < 500) {\n      return 2;\n    } else {\n      return 3;\n    }\n  }\n\n  function amountToPayToReferrer(address _user) public view returns(uint) {\n    return referralsLength[_user] * 50 * DECIMALS;\n  }\n\n  // Admin functions\n  function setOpenWithdrawals(bool _openWithdrawals) public onlyOwner {\n    openWithdrawals = _openWithdrawals;\n  }\n\n  function withdrawFunds(address to, uint amount) public onlyOwner {\n    usdcAddress.transfer(to, amount);\n  }\n\n  function setMaxListLength(uint _maxListLength) public onlyOwner {\n    maxListLength = _maxListLength;\n  }\n}\n\n",
  "sourcePath": "/Users/bruno/dev/crypto/stacks/contracts/WhitelistStacks.sol",
  "compiler": {
    "name": "solc",
    "version": "0.8.17+commit.8df45f5f.Emscripten.clang"
  },
  "schemaVersion": "3.4.10",
  "updatedAt": "2022-11-26T12:26:18.142Z",
  "devdoc": {
    "kind": "dev",
    "methods": {
      "owner()": {
        "details": "Returns the address of the current owner."
      },
      "renounceOwnership()": {
        "details": "Leaves the contract without owner. It will not be possible to call `onlyOwner` functions anymore. Can only be called by the current owner. NOTE: Renouncing ownership will leave the contract without an owner, thereby removing any functionality that is only available to the owner."
      },
      "transferOwnership(address)": {
        "details": "Transfers ownership of the contract to a new account (`newOwner`). Can only be called by the current owner."
      }
    },
    "version": 1
  },
  "userdoc": {
    "kind": "user",
    "methods": {},
    "version": 1
  }
}