{
  "contractName": "WhitelistStacks",
  "abi": [
    {
      "inputs": [
        {
          "internalType": "address",
          "name": "_usdcAddress",
          "type": "address"
        }
      ],
      "stateMutability": "nonpayable",
      "type": "constructor"
    },
    {
      "anonymous": false,
      "inputs": [
        {
          "indexed": true,
          "internalType": "address",
          "name": "previousOwner",
          "type": "address"
        },
        {
          "indexed": true,
          "internalType": "address",
          "name": "newOwner",
          "type": "address"
        }
      ],
      "name": "OwnershipTransferred",
      "type": "event"
    },
    {
      "anonymous": false,
      "inputs": [
        {
          "indexed": true,
          "internalType": "address",
          "name": "account",
          "type": "address"
        }
      ],
      "name": "ReferralFeesPaid",
      "type": "event"
    },
    {
      "anonymous": false,
      "inputs": [
        {
          "indexed": true,
          "internalType": "address",
          "name": "account",
          "type": "address"
        }
      ],
      "name": "WhitelistAdded",
      "type": "event"
    },
    {
      "inputs": [],
      "name": "maxListLength",
      "outputs": [
        {
          "internalType": "uint256",
          "name": "",
          "type": "uint256"
        }
      ],
      "stateMutability": "view",
      "type": "function",
      "constant": true
    },
    {
      "inputs": [],
      "name": "owner",
      "outputs": [
        {
          "internalType": "address",
          "name": "",
          "type": "address"
        }
      ],
      "stateMutability": "view",
      "type": "function",
      "constant": true
    },
    {
      "inputs": [
        {
          "internalType": "uint256",
          "name": "",
          "type": "uint256"
        }
      ],
      "name": "plans",
      "outputs": [
        {
          "internalType": "uint256",
          "name": "",
          "type": "uint256"
        }
      ],
      "stateMutability": "view",
      "type": "function",
      "constant": true
    },
    {
      "inputs": [
        {
          "internalType": "address",
          "name": "",
          "type": "address"
        }
      ],
      "name": "referralsLength",
      "outputs": [
        {
          "internalType": "uint256",
          "name": "",
          "type": "uint256"
        }
      ],
      "stateMutability": "view",
      "type": "function",
      "constant": true
    },
    {
      "inputs": [
        {
          "internalType": "address",
          "name": "",
          "type": "address"
        }
      ],
      "name": "registered",
      "outputs": [
        {
          "internalType": "bool",
          "name": "",
          "type": "bool"
        }
      ],
      "stateMutability": "view",
      "type": "function",
      "constant": true
    },
    {
      "inputs": [],
      "name": "renounceOwnership",
      "outputs": [],
      "stateMutability": "nonpayable",
      "type": "function"
    },
    {
      "inputs": [
        {
          "internalType": "address",
          "name": "newOwner",
          "type": "address"
        }
      ],
      "name": "transferOwnership",
      "outputs": [],
      "stateMutability": "nonpayable",
      "type": "function"
    },
    {
      "inputs": [],
      "name": "usdcAddress",
      "outputs": [
        {
          "internalType": "contract ERC20",
          "name": "",
          "type": "address"
        }
      ],
      "stateMutability": "view",
      "type": "function",
      "constant": true
    },
    {
      "inputs": [
        {
          "internalType": "uint256",
          "name": "",
          "type": "uint256"
        }
      ],
      "name": "whitelist",
      "outputs": [
        {
          "internalType": "address",
          "name": "accountAddress",
          "type": "address"
        },
        {
          "internalType": "address",
          "name": "referredBy",
          "type": "address"
        }
      ],
      "stateMutability": "view",
      "type": "function",
      "constant": true
    },
    {
      "inputs": [],
      "name": "whitelistLength",
      "outputs": [
        {
          "internalType": "uint256",
          "name": "",
          "type": "uint256"
        }
      ],
      "stateMutability": "view",
      "type": "function",
      "constant": true
    },
    {
      "inputs": [
        {
          "internalType": "address",
          "name": "_referredBy",
          "type": "address"
        }
      ],
      "name": "addToWhitelist",
      "outputs": [],
      "stateMutability": "nonpayable",
      "type": "function"
    },
    {
      "inputs": [],
      "name": "receiveReferral",
      "outputs": [],
      "stateMutability": "nonpayable",
      "type": "function"
    },
    {
      "inputs": [],
      "name": "withdrawlsLeft",
      "outputs": [
        {
          "internalType": "uint256",
          "name": "",
          "type": "uint256"
        }
      ],
      "stateMutability": "view",
      "type": "function",
      "constant": true
    },
    {
      "inputs": [
        {
          "internalType": "address",
          "name": "_user",
          "type": "address"
        }
      ],
      "name": "amountToPayToReferrer",
      "outputs": [
        {
          "internalType": "uint256",
          "name": "",
          "type": "uint256"
        }
      ],
      "stateMutability": "view",
      "type": "function",
      "constant": true
    },
    {
      "inputs": [
        {
          "internalType": "bool",
          "name": "_openWithdrawals",
          "type": "bool"
        }
      ],
      "name": "setOpenWithdrawals",
      "outputs": [],
      "stateMutability": "nonpayable",
      "type": "function"
    },
    {
      "inputs": [
        {
          "internalType": "address",
          "name": "to",
          "type": "address"
        },
        {
          "internalType": "uint256",
          "name": "amount",
          "type": "uint256"
        }
      ],
      "name": "withdrawFunds",
      "outputs": [],
      "stateMutability": "nonpayable",
      "type": "function"
    },
    {
      "inputs": [
        {
          "internalType": "uint256",
          "name": "_maxListLength",
          "type": "uint256"
        }
      ],
      "name": "setMaxListLength",
      "outputs": [],
      "stateMutability": "nonpayable",
      "type": "function"
    }
  ],
  "bytecode": "0x6080604052604051806080016040528068056bc75e2d6310000068ffffffffffffffffff168152602001680d8d726b7177a8000068ffffffffffffffffff168152602001681b1ae4d6e2ef50000068ffffffffffffffffff168152602001683635c9adc5dea0000068ffffffffffffffffff16815250600290600462000087929190620001f5565b506103e86006553480156200009b57600080fd5b5060405162001a7038038062001a708339818101604052810190620000c19190620002dd565b620000e1620000d56200012960201b60201c565b6200013160201b60201c565b80600160006101000a81548173ffffffffffffffffffffffffffffffffffffffff021916908373ffffffffffffffffffffffffffffffffffffffff160217905550506200030f565b600033905090565b60008060009054906101000a900473ffffffffffffffffffffffffffffffffffffffff169050816000806101000a81548173ffffffffffffffffffffffffffffffffffffffff021916908373ffffffffffffffffffffffffffffffffffffffff1602179055508173ffffffffffffffffffffffffffffffffffffffff168173ffffffffffffffffffffffffffffffffffffffff167f8be0079c531659141344cd1fd0a4f28419497f9722a3daafe3b4186f6b6457e060405160405180910390a35050565b82805482825590600052602060002090810192821562000241579160200282015b8281111562000240578251829068ffffffffffffffffff1690559160200191906001019062000216565b5b50905062000250919062000254565b5090565b5b808211156200026f57600081600090555060010162000255565b5090565b600080fd5b600073ffffffffffffffffffffffffffffffffffffffff82169050919050565b6000620002a58262000278565b9050919050565b620002b78162000298565b8114620002c357600080fd5b50565b600081519050620002d781620002ac565b92915050565b600060208284031215620002f657620002f562000273565b5b60006200030684828501620002c6565b91505092915050565b611751806200031f6000396000f3fe608060405234801561001057600080fd5b506004361061010b5760003560e01c8063a4d86f89116100a2578063c107532911610071578063c1075329146102bb578063c47eb8d2146102d7578063e3f65f6a146102e1578063e43252d7146102ff578063f2fde38b1461031b5761010b565b8063a4d86f89146101fb578063b16206161461022b578063b2587d831461025b578063b2dd5c071461028b5761010b565b80637ebd1b30116100de5780637ebd1b30146101725780638c6025c5146101a35780638da5cb5b146101bf5780639d386966146101dd5761010b565b806302d45457146101105780631e27f9f61461012e578063715018a61461014a57806378bb516414610154575b600080fd5b610118610337565b6040516101259190610fd2565b60405180910390f35b61014860048036038101906101439190611028565b61035d565b005b61015261036f565b005b61015c610383565b6040516101699190611064565b60405180910390f35b61018c60048036038101906101879190611028565b610389565b60405161019a9291906110a0565b60405180910390f35b6101bd60048036038101906101b89190611101565b6103fd565b005b6101c7610422565b6040516101d4919061112e565b60405180910390f35b6101e561044b565b6040516101f29190611064565b60405180910390f35b61021560048036038101906102109190611175565b610451565b6040516102229190611064565b60405180910390f35b61024560048036038101906102409190611028565b610469565b6040516102529190611064565b60405180910390f35b61027560048036038101906102709190611175565b61048d565b6040516102829190611064565b60405180910390f35b6102a560048036038101906102a09190611175565b6104f5565b6040516102b291906111b1565b60405180910390f35b6102d560048036038101906102d091906111cc565b610515565b005b6102df6105c2565b005b6102e96107cc565b6040516102f69190611064565b60405180910390f35b61031960048036038101906103149190611175565b61089a565b005b61033560048036038101906103309190611175565b610d86565b005b600160009054906101000a900473ffffffffffffffffffffffffffffffffffffffff1681565b610365610e09565b8060068190555050565b610377610e09565b6103816000610e87565b565b60055481565b6007818154811061039957600080fd5b90600052602060002090600202016000915090508060000160009054906101000a900473ffffffffffffffffffffffffffffffffffffffff16908060010160009054906101000a900473ffffffffffffffffffffffffffffffffffffffff16905082565b610405610e09565b80600160146101000a81548160ff02191690831515021790555050565b60008060009054906101000a900473ffffffffffffffffffffffffffffffffffffffff16905090565b60065481565b60046020528060005260406000206000915090505481565b6002818154811061047957600080fd5b906000526020600020016000915090505481565b6000670de0b6b3a76400006032600460008573ffffffffffffffffffffffffffffffffffffffff1673ffffffffffffffffffffffffffffffffffffffff168152602001908152602001600020546104e4919061123b565b6104ee919061123b565b9050919050565b60036020528060005260406000206000915054906101000a900460ff1681565b61051d610e09565b600160009054906101000a900473ffffffffffffffffffffffffffffffffffffffff1673ffffffffffffffffffffffffffffffffffffffff1663a9059cbb83836040518363ffffffff1660e01b815260040161057a92919061127d565b6020604051808303816000875af1158015610599573d6000803e3d6000fd5b505050506040513d601f19601f820116820180604052508101906105bd91906112bb565b505050565b600160149054906101000a900460ff16610611576040517f08c379a000000000000000000000000000000000000000000000000000000000815260040161060890611345565b60405180910390fd5b6000600460003373ffffffffffffffffffffffffffffffffffffffff1673ffffffffffffffffffffffffffffffffffffffff1681526020019081526020016000205411610693576040517f08c379a000000000000000000000000000000000000000000000000000000000815260040161068a906113b1565b60405180910390fd5b600061069e3361048d565b90506000600460003373ffffffffffffffffffffffffffffffffffffffff1673ffffffffffffffffffffffffffffffffffffffff16815260200190815260200160002081905550600160009054906101000a900473ffffffffffffffffffffffffffffffffffffffff1673ffffffffffffffffffffffffffffffffffffffff1663a9059cbb33836040518363ffffffff1660e01b815260040161074292919061127d565b6020604051808303816000875af1158015610761573d6000803e3d6000fd5b505050506040513d601f19601f8201168201806040525081019061078591906112bb565b503373ffffffffffffffffffffffffffffffffffffffff167fd03a333578b3bec046a21391622c18e0b54a2006f8720f38a8dc70f8e28c0d0e60405160405180910390a250565b6000806000905060005b60078054905081101561089257600060046000600784815481106107fd576107fc6113d1565b5b906000526020600020906002020160010160009054906101000a900473ffffffffffffffffffffffffffffffffffffffff1673ffffffffffffffffffffffffffffffffffffffff1673ffffffffffffffffffffffffffffffffffffffff16815260200190815260200160002054111561087f57818061087b90611400565b9250505b808061088a90611400565b9150506107d6565b508091505090565b600654600554106108e0576040517f08c379a00000000000000000000000000000000000000000000000000000000081526004016108d790611494565b60405180910390fd5b600360003373ffffffffffffffffffffffffffffffffffffffff1673ffffffffffffffffffffffffffffffffffffffff16815260200190815260200160002060009054906101000a900460ff161561096d576040517f08c379a000000000000000000000000000000000000000000000000000000000815260040161096490611526565b60405180910390fd5b3373ffffffffffffffffffffffffffffffffffffffff168173ffffffffffffffffffffffffffffffffffffffff16036109db576040517f08c379a00000000000000000000000000000000000000000000000000000000081526004016109d290611592565b60405180910390fd5b6000606460055410156109f15760009050610a21565b60fa6005541015610a055760019050610a20565b6101f46005541015610a1a5760029050610a1f565b600390505b5b5b6000600360008473ffffffffffffffffffffffffffffffffffffffff1673ffffffffffffffffffffffffffffffffffffffff16815260200190815260200160002060009054906101000a900460ff1615610a7d57829050610a82565b600090505b600160009054906101000a900473ffffffffffffffffffffffffffffffffffffffff1673ffffffffffffffffffffffffffffffffffffffff166323b872dd333060028681548110610ad657610ad56113d1565b5b90600052602060002001546040518463ffffffff1660e01b8152600401610aff939291906115b2565b6020604051808303816000875af1158015610b1e573d6000803e3d6000fd5b505050506040513d601f19601f82011682018060405250810190610b4291906112bb565b50600760405180604001604052803373ffffffffffffffffffffffffffffffffffffffff1681526020018373ffffffffffffffffffffffffffffffffffffffff16815250908060018154018082558091505060019003906000526020600020906002020160009091909190915060008201518160000160006101000a81548173ffffffffffffffffffffffffffffffffffffffff021916908373ffffffffffffffffffffffffffffffffffffffff16021790555060208201518160010160006101000a81548173ffffffffffffffffffffffffffffffffffffffff021916908373ffffffffffffffffffffffffffffffffffffffff160217905550505060056000815480929190610c5290611400565b91905055506001600360003373ffffffffffffffffffffffffffffffffffffffff1673ffffffffffffffffffffffffffffffffffffffff16815260200190815260200160002060006101000a81548160ff0219169083151502179055506001600460008373ffffffffffffffffffffffffffffffffffffffff1673ffffffffffffffffffffffffffffffffffffffff16815260200190815260200160002054610cfb91906115e9565b600460008373ffffffffffffffffffffffffffffffffffffffff1673ffffffffffffffffffffffffffffffffffffffff168152602001908152602001600020819055503373ffffffffffffffffffffffffffffffffffffffff167f4790a4adb426ca2345bb5108f6e454eae852a7bf687544cd66a7270dff3a41d660405160405180910390a2505050565b610d8e610e09565b600073ffffffffffffffffffffffffffffffffffffffff168173ffffffffffffffffffffffffffffffffffffffff1603610dfd576040517f08c379a0000000000000000000000000000000000000000000000000000000008152600401610df49061168f565b60405180910390fd5b610e0681610e87565b50565b610e11610f4b565b73ffffffffffffffffffffffffffffffffffffffff16610e2f610422565b73ffffffffffffffffffffffffffffffffffffffff1614610e85576040517f08c379a0000000000000000000000000000000000000000000000000000000008152600401610e7c906116fb565b60405180910390fd5b565b60008060009054906101000a900473ffffffffffffffffffffffffffffffffffffffff169050816000806101000a81548173ffffffffffffffffffffffffffffffffffffffff021916908373ffffffffffffffffffffffffffffffffffffffff1602179055508173ffffffffffffffffffffffffffffffffffffffff168173ffffffffffffffffffffffffffffffffffffffff167f8be0079c531659141344cd1fd0a4f28419497f9722a3daafe3b4186f6b6457e060405160405180910390a35050565b600033905090565b600073ffffffffffffffffffffffffffffffffffffffff82169050919050565b6000819050919050565b6000610f98610f93610f8e84610f53565b610f73565b610f53565b9050919050565b6000610faa82610f7d565b9050919050565b6000610fbc82610f9f565b9050919050565b610fcc81610fb1565b82525050565b6000602082019050610fe76000830184610fc3565b92915050565b600080fd5b6000819050919050565b61100581610ff2565b811461101057600080fd5b50565b60008135905061102281610ffc565b92915050565b60006020828403121561103e5761103d610fed565b5b600061104c84828501611013565b91505092915050565b61105e81610ff2565b82525050565b60006020820190506110796000830184611055565b92915050565b600061108a82610f53565b9050919050565b61109a8161107f565b82525050565b60006040820190506110b56000830185611091565b6110c26020830184611091565b9392505050565b60008115159050919050565b6110de816110c9565b81146110e957600080fd5b50565b6000813590506110fb816110d5565b92915050565b60006020828403121561111757611116610fed565b5b6000611125848285016110ec565b91505092915050565b60006020820190506111436000830184611091565b92915050565b6111528161107f565b811461115d57600080fd5b50565b60008135905061116f81611149565b92915050565b60006020828403121561118b5761118a610fed565b5b600061119984828501611160565b91505092915050565b6111ab816110c9565b82525050565b60006020820190506111c660008301846111a2565b92915050565b600080604083850312156111e3576111e2610fed565b5b60006111f185828601611160565b925050602061120285828601611013565b9150509250929050565b7f4e487b7100000000000000000000000000000000000000000000000000000000600052601160045260246000fd5b600061124682610ff2565b915061125183610ff2565b925082820261125f81610ff2565b915082820484148315176112765761127561120c565b5b5092915050565b60006040820190506112926000830185611091565b61129f6020830184611055565b9392505050565b6000815190506112b5816110d5565b92915050565b6000602082840312156112d1576112d0610fed565b5b60006112df848285016112a6565b91505092915050565b600082825260208201905092915050565b7f46756e64207769746864726177616c732061726520636c6f7365640000000000600082015250565b600061132f601b836112e8565b915061133a826112f9565b602082019050919050565b6000602082019050818103600083015261135e81611322565b9050919050565b7f4e6f20726566657272616c7320666f756e640000000000000000000000000000600082015250565b600061139b6012836112e8565b91506113a682611365565b602082019050919050565b600060208201905081810360008301526113ca8161138e565b9050919050565b7f4e487b7100000000000000000000000000000000000000000000000000000000600052603260045260246000fd5b600061140b82610ff2565b91507fffffffffffffffffffffffffffffffffffffffffffffffffffffffffffffffff820361143d5761143c61120c565b5b600182019050919050565b7f536f7272792c2077686974656c6973742069732066756c6c0000000000000000600082015250565b600061147e6018836112e8565b915061148982611448565b602082019050919050565b600060208201905081810360008301526114ad81611471565b9050919050565b7f4164647265737320616c7265616479207265676973746572656420666f72207760008201527f686974656c697374000000000000000000000000000000000000000000000000602082015250565b60006115106028836112e8565b915061151b826114b4565b604082019050919050565b6000602082019050818103600083015261153f81611503565b9050919050565b7f596f752063616e6e6f7420726566657220796f757273656c6600000000000000600082015250565b600061157c6019836112e8565b915061158782611546565b602082019050919050565b600060208201905081810360008301526115ab8161156f565b9050919050565b60006060820190506115c76000830186611091565b6115d46020830185611091565b6115e16040830184611055565b949350505050565b60006115f482610ff2565b91506115ff83610ff2565b92508282019050808211156116175761161661120c565b5b92915050565b7f4f776e61626c653a206e6577206f776e657220697320746865207a65726f206160008201527f6464726573730000000000000000000000000000000000000000000000000000602082015250565b60006116796026836112e8565b91506116848261161d565b604082019050919050565b600060208201905081810360008301526116a88161166c565b9050919050565b7f4f776e61626c653a2063616c6c6572206973206e6f7420746865206f776e6572600082015250565b60006116e56020836112e8565b91506116f0826116af565b602082019050919050565b60006020820190508181036000830152611714816116d8565b905091905056fea26469706673582212201ca5ce3b2f865691ef609be5bd85cf8a6404a299afb7bf9631c46d32f0fc15fa64736f6c63430008110033",
  "immutableReferences": {},
  "source": "// SPDX-License-Identifier: MIT\npragma solidity >=0.4.22 <0.9.0;\n\nimport \"@openzeppelin/contracts/access/Ownable.sol\";\nimport \"@openzeppelin/contracts/token/ERC20/ERC20.sol\";\n\ncontract WhitelistStacks is Ownable {\n  ERC20 public usdcAddress;\n  bool openWithdrawals;\n\n  uint [] public plans = [\n    100 * 10 ** 18,\n    250 * 10 ** 18,\n    500 * 10 ** 18,\n    1000 * 10 ** 18\n  ];\n\n  struct Account {\n    address accountAddress;\n    address referredBy;\n  }\n\n  mapping(address => bool) public registered;\n  mapping(address => uint) public referralsLength;\n  uint public whitelistLength;\n  uint public maxListLength = 1000;\n  Account [] public whitelist;\n\n  event WhitelistAdded(address indexed account);\n  event ReferralFeesPaid(address indexed account);\n\n  constructor(address _usdcAddress) {\n    usdcAddress = ERC20(_usdcAddress);\n  }\n\n  // make payment and add sender address to whitelist with according plan\n  function addToWhitelist(address _referredBy) public {\n    require(whitelistLength < maxListLength, \"Sorry, whitelist is full\");\n    require(!registered[msg.sender], \"Address already registered for whitelist\");\n    require(_referredBy != msg.sender, \"You cannot refer yourself\");\n\n    // select correct plan\n    uint plan;\n    if(whitelistLength < 100) {\n      plan = 0;\n    } else if(whitelistLength < 250) {\n      plan = 1;\n    } else if(whitelistLength < 500) {\n      plan = 2;\n    } else {\n      plan = 3;\n    }\n\n    // filter out referral if not registered\n    address referredBy;\n    if(registered[_referredBy]) {\n      referredBy = _referredBy;\n    }\n    else {\n      referredBy = address(0);\n    }\n\n    usdcAddress.transferFrom(msg.sender, address(this), plans[plan]);\n    whitelist.push(Account(msg.sender, referredBy));\n    whitelistLength++;\n    registered[msg.sender] = true;\n    referralsLength[referredBy] = referralsLength[referredBy] + 1;\n    emit WhitelistAdded(msg.sender);\n  }\n\n  function receiveReferral() public {\n    require(openWithdrawals, \"Fund withdrawals are closed\");\n    require(referralsLength[msg.sender] > 0, \"No referrals found\");\n\n    uint amount = amountToPayToReferrer(msg.sender);\n    referralsLength[msg.sender] = 0;\n    usdcAddress.transfer(msg.sender, amount);\n    emit ReferralFeesPaid(msg.sender);\n  }\n\n  function withdrawlsLeft() public view returns(uint) {\n    uint totalLeft = 0;\n    for(uint i=0; i < whitelist.length; i++){\n      if(referralsLength[whitelist[i].referredBy] > 0){\n        totalLeft++;\n      }\n    }\n    return totalLeft;\n  }\n\n  function amountToPayToReferrer(address _user) public view returns(uint) {\n    return referralsLength[_user] * 50 * 10 ** 18;\n  }\n\n  // Admin functions\n  function setOpenWithdrawals(bool _openWithdrawals) public onlyOwner {\n    openWithdrawals = _openWithdrawals;\n  }\n\n  function withdrawFunds(address to, uint amount) public onlyOwner {\n    usdcAddress.transfer(to, amount);\n  }\n\n  function setMaxListLength(uint _maxListLength) public onlyOwner {\n    maxListLength = _maxListLength;\n  }\n}\n\n",
  "sourcePath": "/Users/bruno/dev/crypto/stacks/contracts/WhitelistStacks.sol",
  "compiler": {
    "name": "solc",
    "version": "0.8.17+commit.8df45f5f.Emscripten.clang"
  },
  "schemaVersion": "3.4.10",
  "updatedAt": "2022-11-22T09:34:18.072Z",
  "networkType": "ethereum",
  "devdoc": {
    "kind": "dev",
    "methods": {
      "owner()": {
        "details": "Returns the address of the current owner."
      },
      "renounceOwnership()": {
        "details": "Leaves the contract without owner. It will not be possible to call `onlyOwner` functions anymore. Can only be called by the current owner. NOTE: Renouncing ownership will leave the contract without an owner, thereby removing any functionality that is only available to the owner."
      },
      "transferOwnership(address)": {
        "details": "Transfers ownership of the contract to a new account (`newOwner`). Can only be called by the current owner."
      }
    },
    "version": 1
  },
  "userdoc": {
    "kind": "user",
    "methods": {},
    "version": 1
  }
}